:20000000004D0020D5800000FDC90110FDC90110FDC90110FDC90110FDC90110FDC9011014
:1C002000FDC90110FDC90110FDC90110FDC90110FDC90110FDC901103BCA0110A4
:20003C00A36100007F1407134D00F1242E1F133FB00A3F0007FF00003040004001400340BF
:20005C0007400F404F40CF40CF41CF43CF47CF4FCF3FCF2FCF1FCF0F000000000F0008000B
:20007C0000003F00000040003F000000040068000E00DC00060043001A00050000000000E8
:20009C00020000003F00000000000400C00000000400C0000000070050C00091007070C033
:2000BC000091007082312100319110B10070018101B100A18231329110B1019111104181DB
:2000DC0041224F40F106007051C0019130181039833108D01831416F3100319110B18314A7
:2000FC0014165B680070251050C00091F4C3C0C02014036F3110410422C0823121003191D6
:20011C0010B163393110410482C082312100319110B163393110A2C082312100319110B1B1
:20013C00501015310514059200703F6452C0311031066131C102426412C1311021397106D0
:20015C005131E102426400708A65996588C0208250398039001E9F4041C001301814181A62
:20017C0089C0308260398039001EA94041C001301914191A3C64369110B1349110B154B0CB
:20019C00007154A064B0F0800022AF404012B09032B053825339533985643F6411C122C1A7
:2001BC00426470C1C26811C1C2C0426470C1C76850C000912772989215161416421053105A
:2001DC00F0C12182313131398139313151B070B272652772999270B262107310F0C331828C
:2001FC002131213981391B107265E2C08231608280318039020061B00071329110B151A0E1
:20021C0061B0277230C2F36800008012B09032B0007050C000912772999262107310F0C39A
:20023C00318221312139813951B070B27E652772989270B242105310F0C1218231313139C9
:20025C00813931311A107E6551A061B02772B0C018693F6401C122C1426401C1C2C04264F5
:20027C00151A3C64359110B153828564C012B09032B000703F6472C281C0426422C111C177
:20029C00426402C011C1426462C031C3426462C311C1426402C311C1426453825339856482
:2002BC00E2C347641122404142C281C8426452C211C1426472C2E1CE426402C281C8426463
:2002DC0002C201C84264B0C0546900703F6442C201C8426452C211C0426472C2E1C0426416
:2002FC0002C001C1426462C001C3426422C101C1426462C301C1426402C301C14264538252
:20031C008564007061B000711214231C7A4D339110B10070329110B17269007061B0007174
:20033C001318321C8649329110B10070339110B17E690070C2C047641510C2C012164764E2
:20035C0041311514C0C0803105145410A07804040070E6C0863101CC161467106182F0C347
:20037C00010417140070067305720B720E7250B00071818060B050A092804122C3458080E5
:20039C00F1C11004301601110114016CD661D761D861D961DA61DB61DC61DE61E061E26148
:2003BC00E461366339639180F2C0210421318280422A1214321601112114016CEE610B6221
:2003DC00F4613963EE610B62F4613963E661E661E661E661E661E6619464E661F964E661D6
:2003FC002A65E6615665E6614667E6611012B0900E720673057210123090A761F0CF3C67F7
:20041C00D4C103C0C0C3546440785091507810926078209270783092807840929078609232
:20043C003078909110824039F00601101031101400924267E661BCA0E2A054A0F08050222A
:20045C001546408000222B470D6240A02D828D318D391082F1C0100409101A824A391A04A2
:20047C001082803910040E10AB10BC10C21063642972E0CF3C6713B003B0C86653B050B02F
:20049C0054B064B013B0A5661082E0223846AE660071418001222B47F08010224B46F02228
:2004BC00184764B03122384263B0CE661082E02238467066386264B06F818F318F3DD0DFD8
:2004DC00FF923C670071418001222B4764B0F0805022654263B01182C1226046CE66056799
:2004FC001182D122524670665262618172818131813D8231823DC0EFF19202933C670B62AA
:20051C00B081C091D381978290A2D3187F4EF30B1316E31CA44AC391E3813B149062BA1C03
:20053C008B46231E8B4AE31C8B4E90B207228B4290A21B1A9662E31CA44AC391E3813B1851
:20055C00AB1CA04E9B1CA24ABC1CA442B2101082D0229D42F0801022A4466364A566A462E0
:20057C00AB1094629B10946200703082F1C0100463B00071A86ABC10E0B00070B281C2913E
:20059C00D281018212185181121841828131813D121CBF4AE2B032B0B0DFF2923C67F1C7F7
:2005BC002114C34E12C86291729131B0E1B0007008C006C000C86091709100700182B081BB
:2005DC00C091D0811018518110180614E18042828231823D201CE44AE2B02122E84632B03B
:2005FC000510A0DFF5923C672122E842E2A032B031824139F0C00104011EF642181610C019
:20061C001030081C04476010103C0610F1C76114FA4E16C8669171818131813D161C014B13
:20063C00769131B006C008C0007061818131813D408280390118F11C174B0114B080C0223C
:20065C001747BCB033B090EFF1920F933C67007003A063B064B0EFB05665007140800022A3
:20067C002B4764B02A65EFA00071408000222B4764B003B03862018262818231823D80EF4D
:20069C00F19202933C6703A05665E661A2806364E66150B00071E661E092D08200223D478C
:2006BC00C0B20070A080F022594330B002C1623101C0A080001E5243F0225343A0F56031D6
:2006DC00603953632010101A136F236E11161216546B0070AD040021490400217D040021E2
:2006FC0081040021110500219105002141060021F8B51047F8B50E4600210125AD0430476E
:20071C000A48037800F00FF89B070BD0124C2078FF2807D0FF2121700E490F2424022043C4
:20073C006031C882F8BDF8B5014800476B020021E54C0000094801E00848000C064C0549E3
:20075C002278FF2A01D1CA7A22706031C8827046801C004700620840A4060021070F080803
:20077C00F0B4084770B503461546012906D0002906D0114A2846FFF7BBFF70BD0F4800E0C5
:20079C000F480524834203D84008641E002CF9DCE340012040031818820B012907D00649BE
:2007BC00002380312846FFF7A5FFE0B270BD0249044B6C31F6E70000835C0000A0BC86238A
:2007DC0000830D2374060021F8B51A4E0546716B1948CC09E401002D11D01849097802293D
:2007FC000FD0007B044372B60120154F4002B847114820380088C109C90704D016E0C07A77
:20081C00F0E7407BEEE70F497463CC61400AC0070CD001208003316B002D01D0014300E0AA
:20083C008143084631630749403948630020B84762B6F8BD80020021880000219B0200218C
:20085C007B3F00004040044010B5224A0021516121498968C90009D42149204BCA0598427B
:20087C004B6B01D8134300E093434B631D49FFF777FF10BD38B51A4D287F002827D11A48F7
:20089C000088C009C00722D1124C606900281ED1684600F045F868460078012817D1684633
:2008BC004078102813D208206061686A4009400120600E4A0021D1620D4A022111600121C9
:2008DC0008432060032108436862206038BD0948804738BD0040044018000021000093081E
:2008FC0080020021CF680000680000210011044080E200E0C33B00000749002800D0042078
:20091C00064A72B60978C90701D0105800E0802062B640B2704700006B02002158600440EE
:20093C0003B40148019001BDA56F000000000000010003000A001F005900EB003902EA049E
:20095C00F9099712EB1FA132784A0A66FA828C9E63B617C964D6EDDEC1E3E0E5FF000000B5
:20097C00002020202020202020202828282828202020202020202020202020202020202053
:20099C002088101010101010101010101010101010444444444444444444441010101010AB
:2009BC00101041414141414101010101010101010101010101010101010101011010101021
:2009DC001010424242424242020202020202020202020202020202020202020210101010E7
:2009FC002000000000000000000000000000000000000000000000000000000000000000BB
:200A1C000000000000000000000000000000000000000000000000000000000000000000BA
:200A3C0000000000000000000000000000000000000000000000000000000000000000009A
:200A5C0000000000000000000000000000000000000000000000000000000000000000007A
:200A7C0000DBDCC0597A0000E154000027930000F9410000955C0000C94E0000F7250000C3
:200A9C00000000000100000000000000020000000100000003000000100000002000000003
:200ABC00018000C0018000D50180000C0180005D018000CC018000DD8F3F00008F3F0100D0
:200ADC008F3F02008F3F0300903F00018F3F0101903F0002903F00038F3F01048F3F000570
:200AFC008F1208048F3F00048F3F0006513F00007F3F01003F3F04003F3F02003F3F0100B7
:200B1C007F3F02007B756E6B6E6F776E2D696E7374616E63652D6E616D657D007B656D70E4
:200B3C0074792D696E7374616E63652D6E616D657D00C0467B7374617469632D696E7374EB
:200B5C00616E63652D6E616D657D00C0000000002000000040000000600000000000000017
:200B7C00080000000000000006000000020000008600000082000000000000000800000039
:200B9C001000000018000000200000000000004017FF00000000000004000000080000008F
:200BBC0010000000050708FF0080004018FF00000000000005000000000001000000020017
:200BDC00FFFFFFFF7BC80110C5BC0110D9B2011033C20110BDAD0110C1B10110058D0000E5
:200BFC006DBA011065BB01101DC0011083920000456C000029750000C5900000B13A0000DE
:200C1C00D54600006794000021710000014900006D94000019680000800A00002027002053
:200C3C00A80B0000800A0000FC270020C40B00000000000000000000000000000000000049
:200C5C00FFFFFFFFFFFFFFFF00000000000000000101010100C201000300000000000000B6
:200C7C0051650000FD7300005B940000ED930000F94A0000E5580000000000000100000042
:200C9C0000000000FFFFFFFF000000000000000040420F00080000000000000000000000A3
:200CBC00001000400600000015000000FF000000000000000201FFFF0000000000000000AD
:200CDC00014000800200C0800908C080054000800740008008400080FE0000007C0C0000CA
:200CFC00242B0020280D00000000000000000000000000000C0C0000D8280020BC0C000034
:200D1C00000000000000000000000000002000400700000011000000FF0000000000000040
:200D3C000403000001000000000000000000000000000000010000000000DBDD00000000D6
:200D5C0039530000B570000001010100DC3000209C0D0000000000000000000000000000EE
:200D7C0000000000000000000000000041B5011095A6011015B80110FF0000000000000027
:200D9C00000002400A29FF0000001C00000000000A00000040390020AD900000E53D0000A5
:030DBC002800000C
:201000003C000000000000000000000034100000000000000000000001000000000000004F
:1C10200000000000000000000000000001000000000000000800000000000000AB
:20103C003400000000000000000000006810000000000000000000000100000000000000E7
:14105C00010000000000000000000000080000000000000077
:2010700030000000000000000000000098100000040000000000000001000000FFFFFFFF87
:10109000FF00000001000000080000000000000048
:2010A0002C0000000000000000000000C4100000040000000000000001000000FFFFFFFF2F
:0C10C000FFFFFFFF080000000000000020
:2010CC0038140000E410000095A1011091A70110A1C2011009B2011041B80110A5BC011078
:0810EC0085BC01103400000076
:2010F400280000000000000000000000141100000000000000000000FFFFFFFF0000000093
:081114000800000000000000CB
:20111C00341400003011000065C2011069C101101BC2011091BA011005BC0110E5BB0110EA
:04113C00320000007D
:20114000341400005411000071C20110A5B6011099BF011045B60110B5BA011025BC01104B
:041160003300000058
:201164002400000000000000000000008011000000000000000000000000000008000000AE
:041184000000000067
:20118800240000000000000000000000A41100000000000000000000000000000800000066
:0411A8000000000043
:2011AC00240000000000000000000000C8110000000000000100000000000000080000001D
:0411CC00000000001F
:2011D00000000000D039002004000000000000000000000020000000701000003000000002
:2011F0001C110000D83900200400000000000000000000000C000000301300001800000016
:2012100040110000E039002004000000000000000000000024000000481300001800000099
:2012300000000000E839002004000000000000000000000010000000A01000002C0000006D
:20125000CC100000F03900200400000000000000000000002000000064110000240000009C
:20127000FFFFFFFFF839002004000000000000000000000028000000881100002400000028
:20129000FFFFFFFF003A0020040000000000000000000000580000003C100000340000000C
:2012B000FFFFFFFF083A002004000000000000000000000010000000601300001800000021
:2012D000FFFFFFFF103A00200400000000000000000000001C000000AC1100002400000097
:2012F000FFFFFFFF183A002004000000000000000000000038000000F41000002800000008
:20131000FFFFFFFF203A002004000000000000000000000054000000001000003C000000A3
:1813300018000000000000000000000040130000080000000000000032
:1813480018000000000000000000000058130000080000000000000002
:18136000180000000000000000000000701300000800000000000000D2
:0813780001000000B40D0000AB
:041384000100000064
:0413880000000E0053
:04138C0000000F004E
:041390003200000027
:041394000100000054
:041398006039002098
:04139C00000200004B
:0413A0000000000049
:0413A400FDC901106E
:0413A8000000000041
:0413AC00000000003D
:0413B0000800000031
:0413B4000000230012
:0413B800A838002031
:0413BC00010000002C
:0413C0007839002058
:0413C400080000001D
:0413C8000000000021
:0413CC00000000001D
:0413D0000000000019
:0413D400080000000D
:0413D8000000000011
:0413DC00000000000D
:0413E0000100000008
:0413E400103900209C
:0413E80006000000FB
:0413EC0001000000FC
:0413F000D0370020D2
:0413F40000000000F5
:0413F80000000000F1
:0413FC0000020000EB
:0414000000000000E8
:021406002B00B9
:021408000100E1
:02140A002500BB
:02140C003200AC
:02140E003300A9
:021410003400A6
:021412000100D7
:0114140001D6
:0814180003000000880D000034
:081420000000000000000000C4
:0414280000000100BF
:04142C0000000300B9
:0414300083C4011060
:041434003C14000064
:041438003C14000060
:04143C0000000000AC
:041440009000000018
:041444009000000014
:0414480000000000A0
:04144C0078390020CB
:041450009592000071
:041454002000000074
:04145800400D000043
:04145C00E00B0000A1
:0414600009C30110AB
:041464000B7B0000FE
:04146800D38000002D
:04146C0095C801100E
:0414700097C8011008
:041474000000000074
:04147800BE0D0000A5
:04147C00380B000029
:04148000500B00000D
:04148400200B000039
:0214880008005A
:02148A00090057
:02148C0001005D
:02148E0000005C
:01149000015A
:041494000000000054
:041498000000000050
:04149C00000000004C
:0414A0000000000048
:0414A4008794000029
:0414A800E1850000DA
:0414AC00E18C0000CF
:0414B0008D87000024
:0414B400F5870000B8
:0414B800798900002E
:0414BC00A56D00001A
:0414C0004393000052
:0414C400FD790000AE
:0414C800358E00005D
:0414CC00E1930000A8
:0414D0000800000010
:0414D40024000000F0
:0414D80018000000F8
:0414DC0028000000E4
:0414E00020000000E8
:0414E4003C000000C8
:0414E8000C000000F4
:0414EC0034000000C8
:2014F0002DE9F843089C582B804617460CBFBEA5C2A5002908BFB8F1000F05D12068411E47
:201510002160302707702AE04FEAE7793E460246083E13D0083E0DD0002908BFB2F1FF3FE0
:2015300004D94B463A4601F05BFD0BE0B2FBF7F0002107E008071209090902E04807D20896
:20155000C9081043226800FB1783561E0029EB5C26608046137008BFB8F1000FD6D12068D7
:2015700007F06AFE401EBDE8F8837CB51446002806460D460094B8BF404264230A22C11714
:20159000FFF7AEFF702D0BD0502D09D00A2E09DA16F10A0F04DD2068411E21603023037080
:2015B000002E01D42B2100E02D212068421E226001702068411E216005707CBDF8B51D469D
:2015D00017460E46044607F037FE324603460021002A284603DD9342A4BFA118491E27B14A
:2015F00005686E1E06602E272F70934208DAD71A30251A4603685E1E06607F1E1D70F9D1EA
:20161000002A0CDD8C420FD80F1B7F1C026811F80139541E04607F1E1370F7D1F8BD0168A4
:201630004A1E026030270F70F8BD2DE9F04F04461646B068ADF16C0D0028199302D003D59D
:20165000062000E00120B060884630210FF2083B8DF800109BE80C00471C2046414605F077
:20167000E7F9A14638BF88F00048002412E0302008705AE09AE80C0003F0B8F9641E884642
:20169000814611E09AE80C00484602F051FE641C88468146CAA20CCA414605F00CFA0FF24B
:2016B000183AEFD300201A909BE80C00484605F0BFF909D01A9DC4A20CCA484605F0B8F972
:2016D00038BF0125002DD5D1484606F08FFC83460DF1010106F0EAFA0DEB00052418874256
:2016F00005F1010519DD3F1A584607F06CF90B4602464146484602F027F89AE80C0003F055
:2017100075F98846814606F071FC83460BF130007F1E05F8010BE7D102E00DEB07056D1C91
:2017300015F8010D35280ADB294611F8010D401CC2B23A2A08709ADA6F468F4204D01A988A
:201750000DF10107287003E01A98641C05F8010C14F1030F08DBB068A04214DA022C03DBCE
:201770001A98641E001905E0002C05DC1A98C4F10104001B1A900124307B199A801EC1B255
:201790001A98FFF7F2FE384607F056FD0025401E844219DC021B521C002803D4395C302923
:2017B00001D004E0302115B933681B0908D3DDF864C0DCF800305D1ECCF800500125197070
:2017D000521EA0F10100E7D13068002200F00800284318BF0122199B21463846FFF7EEFEAD
:2017F0001BB0BDE8F08FC0463031323334353637383941424344454600C046C030313233B6
:2018100034353637383961626364656600C02DE9FE4F0D99441C9946924601900FF2381B57
:2018300000940C9F029130210170194610469BE80C0005F0FDF838BF89F00049002512E006
:201850003020087054E098E80C0003F0CFF86D1E8946824610E098E80C00504602F068FDAB
:201870006D1C8946824656A20CCA494605F023F90FF24418EFD37F1C9BE80C00504605F0F6
:20189000D7F80AD050A20CCA504605F0D1F84FF0000638BF0126002ED5D1504606F0A6FB0F
:2018B0000646214606F002FA2418291802987F19002F016017DD304607F085F80B460246BD
:2018D0004946504601F040FF98E80C0003F08EF88946824606F08AFB064606F130007F1E7C
:2018F00004F8010BE7D114F8010D352810DB214611F8010D401CC2B23A2A0870A0DA019879
:20191000884205D10299019A08680092401C0860002100982170BDE8FE8FF8B51D46174632
:201930000E46044607F088FC3A4631462B468918491E521E0FD4521C002903D48842C8BFFC
:20195000665C00DC30261D686F1E521E1F60A1F101012E70F0D1F8BD0000000000000000DA
:20197000F0B51546AF681C460246ADF5FE7D002FADF1100D44BF0627AF60266802A8009781
:201990000B46019003A8FFF742FFAA68029923460746FFF7C2FF20680122B04203D1286858
:2019B000000938BF0022029938462346FFF706FE7FB004B0F0BDC04600000000000024407F
:2019D0000000C0FFFFFFDF41000000000000F03F2DE9F0471646B4689A4688460746ADF18D
:2019F000700D002C44BF0624B4600FF2E82999E80C0005F060F84FF000050DD90FF2DC29D1
:201A100099E80C00384605F013F805D9B5A20CCA05F00EF812D11FE099E880010EE099E852
:201A30000C00384602F084FC6D1C07460FE099E80C0002F0DBFF6D1E88460746ABA20CCAB3
:201A50004146384604F0F4FF0FF2A829EFD399E80C0005F030F8E2D9009402A80B463A4682
:201A7000019003A8FFF7D3FE04460298022809D1401E0290204607F0DFFB6D1C0021001981
:201A900000F8011C317B28465246FFF76EFDB268029920465346FFF740FF204607F0CCFB01
:201AB00002990122884203D13068000938BF002220465346FFF782FD1CB0BDE8F0872DE98E
:201AD000F04F074616460020ADF17C0D1B9381A4009094E80C00384604F0EDFF88460FF2AF
:201AF00004290CD97DA494E80C00384604F0A0FF05D999E80C0004F09BFF02D109E094E8D9
:201B10008001414638466A4605F042FF0098401E0090307BB5680024A0F14101B5F1FF3F20
:201B30001D9108BF0124A24641280CBF754876481E9030208DF8080099E80C004146384647
:201B500004F076FF38BF88F0004899E80C00414604F06EFF0CD0384601AA05F019FF019A33
:201B700041463846C2F1010203F084FD88460746384606F03BFA83460DF1090106F096F80D
:201B90000446584606F01FFF0B4602464146384601F0DAFD0FF2641B0DEB04021C94074658
:201BB000BAF1000F02F1090453D16D1C15D09BE80C0002F01BFF8846814606F017FA1E99DB
:201BD000095C04F8011B06F0FEFE0B4602464146484601F0B9FD6D1EE9D11D9F641E002F7F
:201BF00014BF494D474D2178284607F0E6FA401B082833DB27464FF000081D987F1E002833
:201C100014BF414D3F4D3978284607F0D6FA401B401C1028B4BF295C3021102839701DDBD0
:201C300087F80080E9E79BE80C00384602F0DEFE0D46074606F0DAF91E99095C04F8011B4D
:201C500006F0C1FE0B4602462946384601F07CFD074699E80C0004F0EBFEE4D10025307B93
:201C70002570412814BF702150211B9A0098FFF77CFCB068B0F1FF3F05D10DF1090007F0FB
:201C9000DBFA401EB0601C991B9B0DF1090402462046FFF742FE3168B0682A4601F008017C
:201CB000084318BF01221C991B9B2046FFF786FC307B412814BF782158211B980268531EFF
:201CD00003601170016830274A1E02601FB00F70BDE8F08F000000000000F07F00000000A5
:201CF0000000F0FF0000000000000000000000000000F03F00000000000024400000000052
:201D100000003040F81700000C1800002DE9F04F0646ADF5FE7DADF1680DA29835688D904B
:201D30003068984617468B4607F086FA0146CDF8308228468B974919002581428E9140F28F
:201D50004B84899594952C468A942F469597BB49979196914FF0FF330393899901910F46C9
:201D70008DF810703C4602940778252F08BF271C0FD0002F00F0308431688C9A491C3160F2
:201D900000788B999047306807786D1C252FF0D1019F31685C46491C316011E047F01007FB
:201DB0000AE047F0010707E047F0020704E047F0080701E047F0040701973068401C30605A
:201DD00030680178B1F12000F4D0C01EEFD00838EAD0801EE5D0C01EE0D02A291CD0959977
:201DF00086A80A2204F0ECFE3068017830290BDB86AA3A2908DA0146401C3060097802F828
:201E1000011B01783029F4DA9DF81872AFB186A805F0C6FF029010E0E41C24F00304241DB1
:201E300054F8041C002903D547F001070197494202913168A346491C3160306801782E2950
:201E500031D1401C306000782A2820D0959986A80A2204F0B5FE3068017830290BDB86AA1B
:201E70003A2908DA0146401C3060097802F8011B01783029F4DA9DF81872002F08BF8A986C
:201E900002D086A805F08CFF0146306809E03068E41C24F00304401C241D54F8041C30609E
:201EB000A34603910178019F4C391FD01C3911D0091F21D13068401C306001786C2903D053
:201ED00047F04007019717E0306847F48077401C3060F7E73068401C30600178682918BFEC
:201EF00047F02007EED147F4007701E047F0800701973068401C30603168491C3160007841
:201F10006E288DF8100000F03583732800F0E7820DF21520DDF80880059020214FF4FF72CF
:201F300006A804F04DFE05988A9901700F46909791910DF5057C92910DEB0803939103F114
:201F50001800CDF814C09DF810708F90642F15DC642F23D0B7F1250000F0B6821C3800F049
:201F70000E81001F022840F20A81133816D0093800F00581801E00F0F78174E1A7F165007C
:201F9000022840F2FC80001F08D0801F012805D9801F18BFB0F1030040F0658103990029C7
:201FB00004D4019820F01000019002E0012003900146B7F1580007D0173807D0401E03D0E4
:201FD000083818BF0A2202D1102200E00822702F79D0DDF854920198CA4600F4EC602038BB
:201FF00053D0203843D0C0382AD0B0F580700DD0B7F1580067D00C385CD0401F5AD0801F10
:2020100061D0801F5FD0C01E5DD066E0B7F158000AD00C384ED0401F4CD0801F04D0801F97
:2020300018BFB0F1030058D1E41C24F00304241D14F8049C4FF0000A4EE0C046FFFF0F005A
:20205000B7F158000AD00C3808D0401F06D0801F04D0801F18BFB0F103003ED1E41D24F094
:2020700007040834A4F1080090E8000634E0B7F1580028D00C381DD0401F1BD0801F22D0D6
:20209000801F20D0C01E28D11DE0B7F158000AD00C380FD0401F0DD0801F04D0801F18BFAB
:2020B000B0F1030019D1E41C24F00304241D34F8040C0EE0E41C24F00304241D54F8040C44
:2020D0004FEAE07A07E0E41C24F00304241D54F8040C4FF0000A8146A346CB1748465446BB
:2020F0000143234308BF002903D101990B09C0F05181642F18BF692F08D1002C06DA012327
:2021100040424FF00001919361EB040405A900913B462146FFF7E4F90399401C814227DABF
:202130009DF81070782F03D0582F18BF702F11D1019908090FD3702F08BF7827059807707B
:202150000598401E05903021017005989DF81070401E059001996F2F40F01C810809C0F0B2
:20217000198105984278302A00F014813021F6E0059930220A700599491E0591CCE7384622
:20219000A0F16101192998BF2038DDF85482B84208BF4FF00108E01D20F007000830834682
:2021B000083803C847F6F07347F6F07E03EA11439E4510D1969C0A46002312001343002285
:2021D0001C4040EA02024FF0FF3303EA020208BF002A40F0A780949C002C40F0A380734653
:2021F0000FF2C02C03EA11439E450FD1979C0A4600231200134300221C4040EA02024FF0E5
:20221000FF3303EA020208BF002A33D0959C002C30D19CE80C0004F00BFC03D2012281F045
:2022300000419292B7F141021FD0121F15D0521E0ED0521E07D01A3A17D0121F0DD0521EEB
:2022500006D0521E0FD101AA05ABFFF7EEF908E001AA05ABFFF784FB03E001AA05ABFFF724
:20227000B7FB9DF81070019994E001AA05ABFFF726FC2CE09CE80C0004F0DAFB29D3B8F1FC
:20229000000F14BF4621662105988DF81412B8F1000FA0F10100059014BF4E216E210170F5
:2022B0000599B8F1000FA0F10100A1F10101059114BF49216921017005992B27491E0591D7
:2022D000032400F8017C05989294401E059001995EE0B8F1000F14BF4621662105988DF829
:2022F0001412B8F1000FA0F10100059014BF4E216E2101700599B8F1000FA0F10100A1F10D
:202310000101059114BF49216921017005992D27491E0591042400F8017C0199DDF814C00E
:20233000929432E0B8F1000F14BF4E216E2160468DF81412401EB8F1000F059014BF41219B
:20235000612101700599B8F1000FA0F10100A1F10101059114BF4E216E21022292920170DE
:202370000598401E05907CE7E41C24F00304241D14F8043C0F46A34603B901278DF81432C5
:202390000199939721F0020101916046401E05909DF810700598752F00F101022AD06F2F48
:2023B00028D0782F26D0582F24D0702F22D0929F1FB17F1E1ED10123919301F00203919F71
:2023D00090931FB98B0808D32B2100E02D21017005980199521E401E0590909C274309D18F
:2023F000C80807D305982021017005980199521E401E059048080ED2059C0298ADEB040132
:2024100001F21521884206DB8F9F06A8241AE419A4F5FE7400E006AC1146959A20464FF4F5
:20243000FF7306F0A9FD939F059027B18A9901700598401C05908F99814209D30A46121A7A
:202450002021401E521C04F0BBFB8F988A990170019840092AD306A8A0422ED006A8221AA3
:20247000302106A804F0ACFB9DF81000782810D058280ED070280CD0909F9198074302D146
:202490000198C00819D320788DF818003027277013E00198000910D360788DF81900302777
:2024B00067700AE0000000000000000006A8241A2021224606A804F083FB06A806F0BCFE38
:2024D000939F0246D21904E046A00188012206AF39808D9B8B9906A898472D1877E0E01C32
:2024F000039C20F00300001D50F8048C8346B8F1000F3AD0DDF80890002C06D4404606F0AB
:202510009BFEA04288BF201C02D8404606F094FE04464C45A8BF81464D44A1450BDD7808DD
:2025300009D2A9EB0407002F05DD8C9A8B99202090477F1EF9D1002C07DD274618F8010B9F
:202550008C9A8B9990477F1EF8D10198A1453EDD40083CD3A9EB0407002F38DD8C9A8B99C6
:20257000202090477F1EF9D131E08C9A95988B9990472CE007F4EC67B7F120001FD0E03845
:2025900012D0B0F5807007D0E41C24F00304241D54F8040C056019E0E41C24F00304241D6B
:2025B00054F8040C057011E0E41C24F00304241D54F8042C2846E91782E8030006E0E41CB0
:2025D00024F00304241D54F8040C0580A34630688E9981423FF6BEAB7FB028461AB0BDE899
:2025F000F08FC046250070472DE9F04F09AFADF13C0D08900A92388809911E46ADF81800C7
:20261000101C08BF002000F08481002700F101094FF0FF3A4FF0010BB8466CE1252940F0F4
:2026300063811078521C0A922D2818BFADF8068005D15846551CADF8060010780A953028AE
:202650001CBF4246434605D10A9908785A465B46491C0A912A28CDF80080554616D1306893
:2026700004930A99CDF808A0C01C4B1C20F00300001D306050F8044C0A93002C087800942B
:2026900018D5ADF806B06442009413E044460AE0610001EBC4010918A1F130040A99087825
:2026B0000094491C0A91302801DB3A28F0DBCDF808A004932E282BD10A9908782A2801F158
:2026D00001010A9111D13068CDF80880C01C20F00300001D306050F8045C002D48BF454683
:2026F00008782B46491C0A9111E0454643460AE0690001EBC5010918A1F130050A990878C4
:202710002B46491C0A91302801DB3A28F0DB02930AB1224604926C2804D04C2818BFADF831
:20273000048005D10A990878ADF804B0491C0A910BA9CDF80C800FAB07916428059300F048
:202750008B80692800F08880BDF818C0752872D078286ED06F286AD0702850D063283DD06A
:2027700073281ED009980A990128A1F101010A9115D96B490C68B5F1FF3F03D0A84288BF26
:202790006D1C00D8099D029508A80AA932466B46A0473F180A99039801F1010974E04046AD
:2027B0002AE030680A99C01C20F00300001D306050F8040CBCF1000F01F10109014608B910
:2027D00055A00146079106F037FD0390B5F1FF3F5BD0A842C4BF281C039056E03068C01C5B
:2027F00020F00300001D306010F8040C5D468DF82C000A990395584601F1010945E008207B
:2028100035680490E81C20F00300001D306050F8041C082210230FA804F0A0FB401E0790B3
:20283000402101700A99079801F1010929E0082302E0102300E00A230A99306801F10109EB
:20285000C01C20F00300001D306050F8041CAA42BCBF2A1C049210E00A99306801F10109FA
:20287000C01C20F00300001D306050F8041CAA42BCBF2A1C04926FF009030FA804F06EFB82
:202890000790059D281A0390009C241ABDF8065000945DB906E008A8202109AA06F02EF9E4
:2028B000009C7F1C641E0094F5D503980546401E039075B9BDF80600E8B10098401E009012
:2028D00019D408A8202109AA06F018F900987F1CF4E70798411C0791017809AA08A806F0DC
:2028F0000DF903987F1CE1E708A809AA06F006F97F1C09F101094A460A9812F8011C401C18
:2029100000290A907FF48AAE089808B14146017038460FB0BDE8F08F286E756C6C2900C0BB
:20293000B80D00002DE9F04F924898490068924E4FF4967240F6C413ADF15C0D01244FF0A7
:2029500000084FF0020A4FF0F30B8900B2FBF0F21492B3FBF0F21592B1FBF0F016908748E1
:2029700000680FA94FF0FF3206F062FEBDF83C70149806F059FE11AD10A80B9015980C95A8
:2029900006F052FE8DF841808DF842808DF843809F208DF8400003200A9006F09DFC79487B
:2029B00000680AA906F029FD814606F08DFC744D05EB0725284606F03FFC9DF845109DF88F
:2029D000463055A74A4640190091394604F0C8FE9DF846209DF845304946384606F0D9FAE7
:2029F00076208DF81C0003AF049413A90694D023059112AA8DF8483030680392394606F00C
:202A1000F2FC8146284606F017FC9DF84C304AA140194A4604F0A4FEF2208DF848008DF89B
:202A30004940CDF810A013A9CDF8188012AB059130680393394606F0D6FCF4208DF84800C6
:202A5000CDF810A013A9CDF818802723059112AA8DF8493030680392394606F0C4FC12A822
:202A700003908DF848B0049413AA069403A93068059206F0B8FC9DF84C00C008EFD2F72041
:202A90008DF848000821049412AF069101AA03973068059203A906F0A6FC0DF1040908274E
:202AB000284606F0C9FB19F8012B28A1401904F057FE7F1EF4D168208DF81C008DF848805E
:202AD00012AF049413AA069403A903973068059206F089FC0746284606F0AEFB9DF84C30DB
:202AF0001CA140193A4604F03BFE284606F0A4FB1FA1401904F034FE284606F09DFBADF820
:202B10003E00214800680FA94FF0FF3206F088FD169806F089FD22E7737069207265743DCC
:202B3000256420726561642D69643D2530327820253032780D0A00C07265743D256420697A
:202B5000643D3078253032780D0A00C0253032782000C046424D49313630207265743D25E5
:202B7000642069643D3078253032780D0A00C0460D0A00C0AC0D0000BC310020B83100204D
:202B900020050020D4310020DC31002040420F002DE9F047DFF80CA20746AAF13500DFF837
:202BB000F8810068800880F0E78005F0BDFF814908310B6800261A17990D02F101020AD2CF
:202BD000C0F13E0110F10A0F4FEAE101D8BF08218A42B8BF0A1CDFF8C4C1990E0FD2590E4C
:202BF0000DD36446143C2168C1F304211629A8BF20392468C4F30464162C0EDB0CE0634C19
:202C1000D4F87C11C1F304611629A8BF20392468C4F30444162C00DB203C5118A1461629A0
:202C300005DA11F10A0FB8BF6FF0090100E01521574C584D01F01F0242F4F85222802A6886
:202C500012F0030F18BF0126D20828BF46F002060FB146F00406424692F90740041B052CA9
:202C700004DA9479B44208BF918865D00F28A0F10F0827DB08EB0014A4F1F0084FEA282E4A
:202C9000BEF1070F88BF4FF0070E7546062D88BF06255CF82570042404EB850465462C59AB
:202CB000E41B04F0FF05F70824BFC4F307273D44B70824BFC4F307473D44770828BF05EB47
:202CD000146501E00025AE465CF82EC0F7080CF0FF0424BFCCF307273C44B70824BFCCF380
:202CF00007473C44770828BF04EB1C64ADB2A8EB0E27B9EB010105FB07F505F1800504EBEE
:202D10001524D8BF012103F0FF0334254D435D434FF6FF73B5FBF4F18B4238BF191C802846
:202D300089B2918005DA10F1800FB8BF6FF07F0000E07F20D0719671194800681F2910602B
:202D50004FF0000008D340F2FF128A4206D24908401C8A42FBD301E01F219180124F0F3940
:202D7000090940EAC10047EA0001CAF8FB1F0026CAF8FF6FBDE8F0870C490D4F4246082065
:202D90000F60921D1070BDE8F087C0463C1100506E62084024220840983100209C13005038
:202DB000082009403500094000E7A48030100940FDFDA400AC3F00502DE9F04F0128ADF18B
:202DD000140D40F0F280DFF81492D9F8DC00012840F0E9800220C9F8DC0006F01DFC0290D4
:202DF000012005F0DFF820B101210646C9F8DC10D5E006F00DFC03906E484FF00008C0F8EE
:202E10000080012005F00CFE012818BFCDF8008004D1404604F020FF0120009066486E4C36
:202E3000C0F800801934D4F8FF0F112006F0A0FA00280CBF46460126102006F099FA08B14A
:202E500046F002060F2006F093FA08B146F004060B2006F08DFA30B1584800685849006BDC
:202E70000246088890470A2006F082FA0028404618BF01204FF0805B0BF5DC7528B128687D
:202E90005049006B0246088890474F480127076028688069014646F0200088474B4807606A
:202EB00006F060FA00F001010191400815D2484806F02AFA8246BAF1040FF8D0BAF1010F4C
:202ED00006D1DBF8D801406802464148032190474049086820F0030008604046FFF758FEA5
:202EF0002868D4F8FF1F806B8047019801280ED0BAF1010F06D1DBF8D8014068024634484C
:202F1000394690473349086840F0030008602A480760286840690146304688470B2006F005
:202F300027FA28B128682649C06A0246088890470A2006F01DFA28B128682249C06A024632
:202F500008889047204807600322C9F8DC201F4BC3F800802868406B0146304688470128B4
:202F7000F8D1042005F01EF8124807601A48D4F8FF1F01688909FCD30098012802D1384660
:202F900004F06AFE06F0E2F9082005F00BF806460398C9F8DC7006F037FB04F041FC0298ED
:202FB00006F02EFB02E0042600E00126304605B0BDE8F08F0C40094000022243B8010010BB
:202FD000020B0000FE0A00002820086080010443004003402422084014100940E0310020A5
:202FF0002DE9F0411C4615468C4208BF854282BF00230022E5E0002C08BF002D0AD10029F2
:203010000EBF00286FF000006FF0000100F0E1F8BDE8F0815FF000085FF0000E002C08BF66
:203030008D429CBF2C1C0025070C47EA01470E0CB44208BFBD429EBF5FEA044444EA154412
:203050005FEA0545070A47EA01670E0AB44208BFBD429EBF5FEA042444EA15645FEA052567
:20307000470847EAC1774E08B44208BFBD4200F29380870847EA81778E08B44208BFBD4267
:203090007CD8C70847EA4177CE08B44208BFBD4266D8070947EA01770E09B44208BFBD42B8
:2030B00050D8470947EAC1674E09B44208BFBD423AD8870947EA81678E09B44208BFBD420E
:2030D00024D8C70947EA4167CE09B44208BFBD420DD8E60146EA5566EF01B14208BFB8424D
:2030F00001D3C01BB14158EB08085EEB0E0EA60146EA95664FEA8517B14208BFB84201D338
:20311000C01BB14158EB08084EEB0E0E660146EAD5666F01B14208BFB84201D3C01BB14193
:2031300058EB08084EEB0E0E260146EA15762F01B14208BFB84201D3C01BB14158EB08081D
:203150005EEB0E0EE60046EA5576EF00B14208BFB84201D3C01BB14158EB08084EEB0E0E2D
:20317000A60046EA9576AF00B14208BFB84201D3C01BB14158EB08084EEB0E0E660046EA1C
:20319000D5766F00B14208BFB84201D3C01BB14158EB08085EEB0E0EA14208BFA84201D3F0
:2031B000401BA14158EB08085EEB0E0EA34208BFAA423EBF2D0A45EA0465240A89D3734663
:2031D00042461E4617460B46024631463846BDE8F08170472DE9F843814606F0B1F8002163
:2031F00000B90121724E30680028FCD0734D01242D1DEF6A346009B106F0A8F8DFF8B48120
:20321000C7F3072008F1BC01086006F099F8002100B9214630680028FCD02F68346009B166
:2032300006F094F8C7F38440C8F8C00006F088F80146002001B92046014630680028FCD02E
:20325000ED69346009B106F081F8C5F38120C8F8D000B9F5C061C8F8B81000F0A48098F867
:20327000D80068B9C8F8D410D8F8C000C8F8C800D8F8BC70C8F8C470D8F8D060C8F8CC60AD
:20329000D8F8D410D8F8BC60002954BF02206FF00100454605F1C8031A6801EB410140186C
:2032B000411000EB917002EBA0021A60D5F8C810C5F8C46000291CDD1E293DDDD5F8CC0016
:2032D00030B93429B4BF15391E21C5F8C81025E02A29BABFD5F8C8000B381E20C5F8C80097
:2032F000D5F8C4003F28B4BF401C3F20C5F8C4001FE0D5F8CC00032812D011F10B0FC6BFD1
:20331000D5F8C8000B30201CC5F8C800D5F8C4000028CCBF401E0020C5F8C400032009E0BD
:2033300011F1150FC6BFD5F8C8001530201CC5F8C8000020C5F8CC004FF08058D8F8A40102
:20335000B5F8C4101C4E40684FF47F4208230746009130463021B847D8F8A40140680421B5
:203370004FF400321123074600943046B847D8F8A401B5F8C81040684FF4F80212230446E0
:20339000009130460421A047D8F8A401B5F8CC1040684FF440620A230446009120213046C0
:2033B000A047BDE8F883002088F8D800BDE8F88300800C40E031002000A00C4000A00C4089
:2033D0002DE9F04FADF1840D209001F0E5F804F07DFD0024012804D105F0F4FD022808BF74
:2033F000012459490868C0F38150012805D151F80C1C0120090E884004435448007805F042
:203410001FFCDFF84C81DFF84CA1C8F8000030B15246FF2107467F1E02F8011BFBD120993B
:203430000968002501F0FF02FE2A1BD0DDF880C052462B46012701F0FF06FF2E0BD0B042AB
:2034500003D907FA06F6344201D0022079E001F0FF01354353545CF8041F5B1C01F0FF06CD
:20347000FE2EEAD1092002F09DF83B49209824220823086001A8002106F0BEF84FF00109D1
:2034900001AA3E488DF81C90494606F0B1F8D8F800303BB33A4E00274FF0040BBA4609FA9E
:2034B00007F0044218D1054204BF07F0FF0141F4C04104D027482099C05D51F8201027489E
:2034D00001F0E6FDF8B24FF0FF3105F0F5FCD8F80030C6F800A001E0C6F800B07F1C361D6E
:2034F0009F42DCD30AA800213022082306F07CF81B4D1D4A2878002410210AAB12901948F6
:20351000009406F06DF816A828220823214606F063F8686816AA16491C9014481D942346B0
:2035300006F056F8134A52F80D0C494620F4F85040F4005042F80D0C0F4BC2F8FF1F20461D
:20355000196021B0BDE8F08FB43F005071310020B4310020BC300020C4310020007FC76715
:20357000940D0000FC300020E58E0000683000206D7F00000D3009400800094018310020F7
:203590006C2D0020F8B584460F1C5BD06848674908605578167885B1622D4FF0010003D09A
:2035B0009178622918BF00202B2D4FF0010406D091782B2918BF002401E00020044600213A
:2035D00044B9722E08BF102205D0772E14BF612E202200D00A46612E0CBF80230B1C1A4386
:2035F000002814BF4FF480730B1C002C43EA020214BF40230B1C13437B6108B14FF400413A
:20361000613E10D0113E02D0761F04D012E00CB141F002010EE0002C14BF0220012001433A
:2036300041F4C06106E0002C14BF02200120014341F4027160464FF4DB7202F06BFA00285B
:20365000386001D50020F8BD3846F8BD70B5394D284602F0FDFD384C206802280BDB01269C
:2036700055F8181F002903D4284602F0F1FD2068761C8642F4DB70BD70B505462F4800683B
:2036900014460E468047204602F0E2FD284632462146FFF777FF0446294800688047204665
:2036B00070BD2DE9F843814624480068884680472449204A0F6857B901234FF0FF3407272A
:2036D00002F148000B607F1E40F8184BFBD11A490868002300280BDD14460546183C54F8E5
:2036F000186FB6F1FF3F03D06D1E03F10103F6D10A2B0ED0DC00984204EB0314144404BF47
:20371000401C086000211822204603F059FA214600E0002148464246FFF734FF044608488D
:20373000006880472046BDE8F883C046A03900205D360000F032002090390020B8390020F6
:20375000BC390020383A00202DE9FC4F83F0004301E02DE9FC4F1F03FF0847EAD2574FEA9D
:2037700042284FEA43095FEA595906D147EA080A1CBF00210020BDE8FC8F57F000575FF4F8
:20379000E06E1EF1FF0EF14505D14FF00000190D0905BDE8FC8F002B05D55FF0000AD8F1D9
:2037B00000086AEB07070C03E40844EAD0544FEA40254FEA4106760D08D144EA050A19BFB2
:2037D00000210020191C101CBDE8FC8F44F00054764504D10020090D0905BDE8FC8F002952
:2037F00004D55FF0000A6D426AEB0404B6EB090E08D5A2463C465746AA464546D046CEF18F
:20381000000E4E46BEF1360F5CBF4FF0000B23E0BEF1000F04BF4FF0000B1AE0CEF1390AD3
:20383000BAF120092EBF08FA09FB07FA0AFB4BEA080BDEF1200A07FA0AFA38BFBA4647FA2D
:203850000EF72DBF28FA0EF8AEF1200E4AFA0EF8D04415EB08057C4154EA050A02BF00211B
:203870000020BDE8FC8F002C58BF4FF0000A06D55FF0010A5FF0000E6D426EEB0404A6F123
:2038900001066D006441FAD515F4806E11D005F480794BEA090B15F5806554F1000428BFFE
:2038B000761C0BD205F400795BEA090B08BF25F4006525F4E0656D0044EB0404B61CDEBF08
:2038D00000210020BDE8FC8F5FF4E06E1EF1FF0E76450AD34FF0000013F00043FF21C900A4
:2038F000C91D09051943BDE8FC8F270547EA1530210B41EA065141EACA71BDE8FC8F70479B
:203910002DE9FC41654C5E4D5E4EDFF88081624F94F8E410481E0B2866D8DFE800F0802CF9
:2039300043062343062343067B69042907D001220A2945F8212C14BF0220032004E0202151
:20395000012045F8211C024684F8E200002045F8390C0827C5F8FF7FC5F8F37F45F8392C39
:20397000BDE8FC81052914BF09200620002584F8E40035607DE094F8E1700120383D002FAC
:20399000C5F81B0004BF0620002102D00021F160032084F8E400032045F8010C31603068D8
:2039B000800866D294F8E4103748012503290FD000684068002160220523074600914046C8
:2039D000B84794F8E400062814BF0A200720CEE70068406802216022052307460091404620
:2039F0000021B8470420C2E705F0EEFDBDE8FC812749002627480E60012505600E2001F0AB
:203A1000FDFC022004F038FF84F8E45084F8E360BDE8FC81002038600C25786027E04FF0B8
:203A30008056D6F8A00100680146202088472C3D0F2045F8010C41F61D53C5F80330D6F82C
:203A5000A401406800214FF4C07202250723844640460095E047D6F8A401C06800214FF417
:203A7000C072072306464046B0470120386084F8E45004F1780005F0A3FDBDE8FC81C0467E
:203A900039400C4038600C40A401001000A00C402C500C4004800C4034600C40E031002023
:203AB0002DE9F0478046D8F80460D8F808700C46ADF1380D05F080FD3178012903D105F024
:203AD00077FD0020ABE04FF0010986F8009005F06FFD207870706078B07060687060A068EF
:203AF000B060E068F06020693061207D3075607D7075A07DB075A069B061207F3077607F6F
:203B100000257077A07F35623563102186F83C10B0772C4674627463B462B46386F82C40E3
:203B300086F82D4086F83D40786801F03BFD404601F008FE404602F021FE78B93948006858
:203B5000C068014638688847786801F057FC05F033FD347005F02CFDA0465FE001A8214637
:203B70003022082305F040FDCDF818803A7B0992A246CDF800A02C4AB96806F1800001ABD2
:203B900005F02EFD01A828220823294605F024FD396907912549CDF8148006F19C0001AA13
:203BB0002B4605F015FD01A824220823294605F023FDB5788DF81C903DB906F1D00021465D
:203BD00001AA05F015FD1A483061707838B906F1EC00214601AA05F00BFD1648F06001A80E
:203BF00021462422082305F0DFFC0694ADF8144006F584701049CDF81C800A2201AB05F004
:203C1000CFFCB969FA6906F1400005F029FB0B4A06F16C000421434604F09AFF40460EB0BD
:203C3000BDE8F087D0010010F1470000DD8300005394000043940000BD6400000993000064
:203C5000F0B5064600220C2104201346ADF14C0D05F0A2FC5B4900221346086004200C2135
:203C700005F09AFC4A490860684605F02FFA4FF0FF300290019000248DF816408DF8154078
:203C900001258DF814404FF4E1308DF817402422069040488DF80150082303903E488DF8E2
:203CB00000502146049009A805F0A6FC204609A98DF83C50024605F06BFC384924220823A2
:203CD000086009A8214605F097FC204609A98DF83C50024605F05CFC3B49242208230860B1
:203CF00009A8214605F088FC8DF83C50284609A9224605F04DFC354908603046694604F04D
:203D100003FE3349264D3C22082308602146284605F03AFC0420A8614FF400762E62224FCB
:203D30002F61204BEB6110A005F033F91F48204923462A4605F024FC1E4D21463C22082342
:203D5000284605F021FC0320A8612E622F611A4BEB610AA005F01DF91848194923462A4686
:203D700005F00EFC13B0F0BD75617274207478207461736B20696E69740A00C075617274CF
:203D9000207278207461736B20696E69740A00C0D8310020B1930000BD9300006431002026
:203DB0002C3000202025002040420F00382E002025610000F02F002020230020E82D00209E
:203DD0005D520000DC310020683100206C310020503A00202DE9F84F804692460868DAF89A
:203DF0000050067800271C46BB46421C242E0A6026D110F8016F521C532E0A6020D1ED1C7F
:203E100025F003052D1D55F8040CE061CAF80050208B0090A168E269D8F800005346FEF78E
:203E3000E3FB8346D8F8000010B15844C8F80000DAF800502068E7600127A0EB0B002060AF
:203E5000662E05D0002F64D1E16901200E705FE0208B40B9ED1D25F007050835A5F10800B3
:203E700090E8000309E0ED1C25F003052D1D55F8040C04F091FB894680462AA20CCA4946BB
:203E9000404602F0D5FD28BF002705D2206989F000490127401E206124A20CCA49464046E0
:203EB00002F009FE31D3404604F0A0F8064604F08AFD0B46024649464046FFF745FC1DA278
:203ED0000CCA00F093FD04F01FF90146606904220A2303F043F8401EE0612E2101706369B4
:203EF0002269E06931461B1AE360D21A0A2303F035F8002F08BFE06104D0401EE0612D21BE
:203F10000170E0696169081A02E004A0E0610720E060CAF800505846BDE8F88F2865727270
:203F30006F72290000000000000000000000C0FFFFFFDF41000000000088C340B0B54568ED
:203F500084685148297BADF1180D01291AD001462F7E227E637E4D4837F0010741EA0202E9
:203F700040EA030001904A48009218BF011CA27E1143029195F88D200323FF2A13D00146A1
:203F900010460DE0A17E627E237E41F00041024343F00043029195F88D0000933D490192A8
:203FB000014304230391FE2105F190004DF82310694602F031FAC5F89C00002808BF0020A1
:203FD0005FD0287B344951F8200001282BD02068B0F1804F14BF22220A22217ED5F89C00B2
:203FF00004F04AFD2068B0F1804F14BF21220922617ED5F89C0004F03FFD2068B0F1804FCD
:2040100014BF24220C22A17ED5F89C0004F034FD95F88D10FF2933D02068B0F1804F14BF7C
:2040300023220B2228E02068B0F1804F14BF21220922217ED5F89C0004F01EFD2068B0F17D
:20405000804F14BF22220A22617ED5F89C0004F013FD2068B0F1804F14BF24220C22A17E94
:20407000D5F89C0004F008FD2068B0F1804F14BF23220B2295F88D10D5F89C0004F0FCFC12
:20409000012006B0B0BDC046000480A0004000800004C0A0002000809C0A00004748484918
:2040B0002DE9F041ADF1280D02F0B6F94C49086010B924A005F060FA002768462422082316
:2040D0008DF81870394605F097FA69463846024605F05EFA3B4C69463A466060104605F03B
:2040F00057FA012160600A461FA004F052FF364C3C2208233946204605F046FA4FF400764B
:2041100001250220DFF8C8803049A0613B462662224625612F48E161414605F031FA2E48E1
:204130003B4626624146A5612246E0612B48256105F026FA2B48017817A004F02AFF0AB0A8
:20415000BDE8F0814572726F7220696E697469616C697A696E6720626F617264204C4544E7
:204170002070696E730A00C04C45445320636F6E73747275637465642073656D6170686F88
:2041900072657320666F72206C6564732025642C2025640A00C046C04C45445320696E69C0
:2041B0007469616C20626C696E6B20636F756E746572203D2025640A00C046C0743100205A
:2041D000C83900208C310020782F0020201F0020E1650000D82E0020201D0020882E00200C
:2041F000B0310020563A00202DE9F04305466E68AF680C46ADF1340D05F0DEF996F8D91009
:20421000012903D105F0D4F9002084E04FF0010886F8D98005F0CCF94FF00009C6F8889053
:204230002069306160697061207E3076207B307320783070606886F8A4907060606949465E
:20425000092828BF414686F88C10387B01F0AAF9284603F025FAF87E86F88D002846FFF7E9
:204270006DFE50B9387B01F0C9F805F0A5F986F8D99005F09DF94D464CE001A84946302207
:20429000082305F0B1F906957A790992CDF80090224A397906F11C0001AB05F0A1F901A8B1
:2042B00028220823494605F097F9B96807911C49059506F1380001AA4B4605F089F9307823
:2042D00078B901A849462422082305F095F906F16C008DF81C80494601AA05F089F91148E3
:2042F00000E0A068B06003F0F7FA317BC6F8A000012908D1D6F89C000B4905F02DF8D6F81F
:204310009C0000B18560094A06F1C40004212B4604F01EFC28460DB0BDE8F083E15F000026
:20433000157C00003B940000A1830000999300002DE9FC4191EA03084CBF4FF000484FF013
:2043500000084FEA03354FEA153556006D414FEA43075FEA575711BF45F400150021002074
:20437000BDE8FC814FF4E06E1EF1FF0E77456FD04FEA01334FEA133342005B414FEA41041B
:20439000640D11BF43F4001300210020BDE8FC8174455DD0E41B002100205FF0360EAB4279
:2043B00000D1B24205D340414941921B63EB050301E040414941BEF1010E05D053EA02077D
:2043D00002D052005B41EAE7BEF1200F09D2BEF1160F0CD3CEF1200720FA07F100FA0EF0E0
:2043F0000FE0AEF1200E00FA0EF1002009E001FA0EF1CEF1200720FA07F741EA070100FACA
:204410000EF011F4001F02D140004941641E401C51F1000111F4800F1ABF641C21F4800129
:2044300021F400114FF44077FF37E419DEBF00210020BDE8FC8107F58067BC4208D249080D
:204450004FEA300041EA045141EA0801BDE8FC810020FF214FEAC101C91D4FEA015141EA36
:204470000801BDE8FC8170472DE9F041424C464D8046C8F38140401E02D0401E2AD025E013
:20449000284620300168880C20D24FF4804020603A48D0F802204B0AC1F3033703F08003B7
:2044B00022F08F02134347EA0302C0F80220D0F801300E1266F30303C0F80130026801F027
:2044D000E70722F0E70247EA020102E04FF00041204601602F4E301D0068C0F3C0070FB912
:2044F0004020A0624FF40070206404F0DDFE40F0300084F8C800C8F3815040B3401E03D0F0
:20451000401E1FD002211EE0012004F089FA07460420394603F064F8042004F081FA8742EA
:20453000FAD1361F366826F07F4004F08DF914480068036807214FF06022300E98474FF4E6
:20455000806020600321042003F04AF806E00420012103F045F80B4804F076F92846006886
:204570000A4947F6180700F03F0084F8CB0F084E0F803068BDE8F08140A00C400A60084086
:20459000B4010010BD3786006C13005070B00C402C200940AC3F00502DE9F043484C94F858
:2045B000E700ADF12C0D002877D13D4F387B01250021242284F8E7507E6884F8E6000823CB
:2045D000C4F80C6101A804F0EFFF002604F10C00069601ABADF8146032490796324604F00B
:2045F000DFFF314904F1300001AB324604F0D8FF2E4904F1540001AB324604F0D1FFB86877
:20461000014628468847DFF8AC8029487B7B0078D8F80410C1F381571BB1032F03D184F866
:20463000E150032F1ED0022F1CD0012F2ED14FF08059D9F8A401204C406803214FF0405236
:204650001C230746009131462046B847D9F8A401406831464FF40072092307460095204693
:20467000B84713E0022004F01FF9032F0CBF4FF47A7142F21071114800685434B1FBF0F154
:20469000204604F075FF204604F09AFFD8F80000C00802D2304604F007F90BB0BDE8F083A0
:2046B000580D00000F39000071660000A568000071310020B03F005000A00C40AC0D0000B3
:2046D000E03100202DE9FC410746BE6833687D68986B20F4FA609863A86B40B13268916B4D
:2046F0004FF0FF3041F4FA619163BDE8FC81AA6329630024EC776C630CE09DF80000296B92
:2047100008702A6B696BA86B521C2A63491C6963401EA863A86BA0B93168886B40F4FA607A
:2047300088636A6B286B69780129A0EB0200286305D1E868296B0346384698476A6B144664
:2047500046E005F14000694603F088FD0028D4D504F032FF204F8046387820B9022004F0FC
:20477000A3F801203870404604F022FF1B49086840F4007008603168886B40F4FA60886345
:204790006878D8B9696805F1EC0004F0EDFE90B9AC6304F011FF0646387818B1022004F0CF
:2047B0006BF83C70304604F003FF1022696B286BEA77401A2863686BBDE8FC8195F82D00E0
:2047D00030B1686B20B1AC6305F19C0004F0C8FE2046BDE8FC81C046723100203010004018
:2047F0002DE9F8438146D9F808703868066CD9F804504664AA6CA96B686C16F4F06FA0EB75
:2048100002082BD1F00910D270095FD309B395F83C40641EA14298BF0C1C4846214603F06B
:204830009FFEA86B001BA86308E091B1484603F097FE014695F82D00A96318B9A86B002839
:2048500044D101E00020A86305F19C0004F088FE3CE04846414603F05DFF37E0F00A1AD29E
:204870004FF00008444603E0A86B401EA863A96B41B34846012103F073FE3868446814F08C
:204890000F04C0F80480EFD0296B686B491E2963401E686316E0386844680022202904F0D6
:2048B0000F044260CCBF20270F1C4846394603F057FEC7F12007B845C8BFB846484641466B
:2048D00003F028FFEC77484602F022FCB0090DD3AF6A5FB14846394603F096FEA862A86A3B
:2048F000394618B94846091D03F0A6FABDE8F8832DE9F04707467D68D7F8089090460C46E3
:2049100004F05AFEAE6A8246002E64D105F5847004F078FA2C620024EC7750466C6204F037
:2049300047FE04F049FE2F4E3378824623B9022003F0BAFF01203070504604F039FE2A4A57
:204950001068414640F480701060384603F05CFEA862C0B93846414603F06EFAA878D0B95D
:20497000A96805F1D00004F0FFFDE8B9AC621020E8774946284602F047FA04F01DFE82461B
:20499000307840B323E0D9F80010886B40F020008863A87810B12046BDE8F087A96805F1F0
:2049B000D00004F0E1FD10B1686ABDE8F0873846414603F041FA1020AC624946E8772846C9
:2049D00002F022FA04F0F8FD8246307818B1022003F052FF3470504604F0EAFD4FF0FF30AE
:2049F000BDE8F08773310020301000402DE9FC4191EA03084CBF4FF000484FF000084FEA5C
:204A1000C32545EA52554FEAC2264FEA43077F0D11BF45F0004500210020BDE8FC815FF498
:204A3000E06E1EF1FF0E774555D04FEAC12343EA50534FEAC0224FEA4104640D11BF43F021
:204A5000004300210020BDE8FC81744543D0E419A3FB0501A3FB06E7A2FB06631EEB030E88
:204A700057F1000751F10001A2FB05631EEB060E57F1000751F10001FF1851F10001C019AD
:204A900051F100014CBF4FF4806E4FF4007E10EB0E0051F1000148BF641C01D44000494154
:204AB0005FF44077FF37E41BDEBF00210020BDE8FC8117F58067BC420DD24FEAD02040EA84
:204AD00041504FEA41014FEA113141EA045141EA0801BDE8FC810020FF21C900C91D09056C
:204AF00051EA0801BDE8FC812DE9F04104466668A7680D46ADF1380D04F05EFD96F8DC10D3
:204B1000012903D104F054FD00205EE04FF0010886F8DC8004F04CFDE968204602F098FC48
:204B30000028F1D12878307068687060287A002130220823F06001A804F056FD06943A7BCC
:204B5000099200250095224AB96806F1100001AB04F046FD01A828220823294604F03CFDBF
:204B7000396907911B49059406F12C0001AA2B4604F02EFD01A824220823294604F03CFDDA
:204B900006F160008DF81C80414601AA04F030FD307838B906F17C00294601AA04F028FDFB
:204BB0000D4870603572C6F8BC50C6F8C050786800F0F8FC204603F065F9084A06F1C800F5
:204BD0000421234603F0C4FF20460EB0BDE8F081B94F0000B37A000033940000F9920000C0
:204BF0002DE9F8434468836808681D6894F88C6082B2B5F1804F02FA06F21FFA82FE14BF47
:204C10002D4D2E4DDFF8B8808A683AB994F88C604246B600975904F1A60206E094F88C60FA
:204C3000284FB600BF597244521EAF606A601A6808322A60AF68000143F6F07C10380CEADF
:204C500000000743AF601F68B7F1804F14BF1E4D1E4DD1F80490B9F1000F12D1D889424662
:204C7000A4F8A6009759AF6004F1A6062E6008681F686646010107F10802103906EA0100D3
:204C900006E0134989590EEB0906A960761E2E606A60A9680843A860D4F8A0005E694268A2
:204CB0001969126846EA01009062786A40F003007862BDE8F883C046000500203004002037
:204CD000CC0A0000C40A00001005002040040020BC0A00002DE9F84F3A48DFF8D4C0DFF8A0
:204CF000E0E0DFF8D0A0DFF8D090DFF8D080032700F118010CF110060EF124020AF12805AB
:204D100009F1180408F120039CE800471036A6F1100080E80047DFF89CE0BEE8000F283585
:204D3000A5F12800A0E8000FBEE80007A0E800079EE8004380E80043DFF87CE0BEE800077E
:204D50001834A4F11800A0E800079EE8004380E80043DFF868E0BEE8000F2033A3F120006C
:204D7000A0E8000F9EE8004780E80047DFF850E0BEE800072432A2F12400A0E80007BEE81A
:204D90000007A0E800079EE8004380E80043DFF834E0BEE800071831A1F11800A0E80007DF
:204DB0009EE800437F1E80E80043ADD1BDE8F88F68380020E0330020683600201035002012
:204DD00080340020083600207CB50546084602F0D5F9364E02461821304603F00BFE04F09C
:204DF0005DF83449103909684C6840F2FF32002380B22C2100903046A04704F05DFA1C21E9
:204E10000246304603F0F6FD04F03AF802461421304603F0EFFD04F005F902461021304605
:204E300003F0E8FD284602F0D1F802460C21304603F0E0FD284604F0DDF81D4C400040F096
:204E500020002070284604F0E1F840F010002070284603F097FF02462821304603F0CAFDCF
:204E7000284604F0EBF8400040F06000E070284604F0F0F8C00040F0800004F8080C284685
:204E900004F0F4F8800040F47C40A4F89300284603F0DCFD02460821304603F0ABFD4FF484
:204EB0008000A4F2091108607CBDC04600A00C4049A10C40B40100102DE9F84306467468AB
:204ED000B56804F079FBD4F88810002964D004F06FFB2968486820F0020048602968486AE0
:204EF00020F003004862D4F8A0006F6941682A69096847EA0200C1F804052968486920F0AD
:204F10000100486128684FF00108C0F82080304603F032FED4F88800476804F04DFB814608
:204F300094F8D80060B117F0704F03D117B1042003F0A2FC022003F09FFC002084F8D800B1
:204F5000484604F035FBD4F88810087C042803D003200874D4F88810D4F8A00043682A69FB
:204F700068691B68474610438740DF622868B0F1804F14BF0A480B48826808689204A0EBF2
:204F90009250401E0860A06800230246C4F8883030469047BDE8F88304F00AFBBDE8F883EC
:204FB000000500203004002098B53749826844680968106849688847344B01229A6140B10E
:204FD000217AFF2905D0FF214009217257D204224DE0207A002852D0401E19D0401E02D056
:204FF000FD384CD048E05968D4F8B4000170D4F8B800D4F8B410401E491CC4F8B800D4F85F
:20501000B870C4F8B410F7B1012F88BF09222EE0D4F8B000401EC4F8B000D4F8B070A7B9EE
:20503000D4F8B8707FB10220D4F8A8102072097C012F4FEA410141F0010143F8041C94BFF3
:2050500003220B2214E004220FE0D4F8AC0000785860D4F8AC00022F00F10100C4F8AC003A
:2050700005D2D4F8B87017B905220020207202201A6004F0EDF998BDFF20207298BD04F1E6
:205090002C0004F06DFA98BDAC010010042800402DE9F8430C460546E6B2200824BF3048F2
:2050B0004440DFF8C0C0B2002F485CF8021005F4E02E05EA0407BEF5E02F00EA070084EA54
:2050D000010305EA030321EA0501C3F3006740EA010001D1410E14D305F4E0210F4310D03A
:2050F00000F4E027B7F5A02707D0B7F5803704BF20F4003040F4A02003E020F4803040F422
:20511000C0206146DFF86480885008F1D0073868F04010F0010905D1E80D03D34046C4F3DD
:2051300080518155280E10D304F046FA210E03D201210023B14002E00121B1400B463A6849
:205150008A4313433B6004F033FAB9F1000F05D0E80D03D34046C4F380518155BDE8F88303
:20517000006000A000100840007F077F002002402DE9F843DFF8C4900446D9F800001F4664
:2051900016460D468047DFF8B8802068B0F1FF3F02D0042E03D017B9464630682EE063686F
:2051B00073B16069010903D3581E03F0D8FE606900216160A160E16020F00800216100E06C
:2051D000606906B9012620F00700012F46EA0006666108BF0025B7F5807F88BF4FF48077B4
:2051F000B5B97F1C384603F0D7FB4646054630684DB96169656041F48061616180474FF071
:20521000FF30BDE8F883616941F00801616101E0464630686D1C65602561E919A560491E22
:20523000E1608047D9F8000080470749054A3068116080470020BDE8F883C046B8390020F8
:20525000BC390020A03900205D3600002DE9FE4F314C20680DF10501012203F0D5F89DF8B9
:205270000500C028F5D12D4EDFF8B480DFF8B4A04FF0DB094FF0C00B08E0DAF80000ADF82E
:20529000027069464FF0FF3204F0CAF9D8F8000069464FF0FF3204F0CBF900273D4631E054
:2052B00020680DF10501012203F0AEF89DF80530BDF80010C03B20D01B3B16D1206801A9AD
:2052D000012203F0A1F89DF80400BDF80010DD2805D107EB01207F1C06F80090BFB29DF894
:2052F0000400DC280AD1584601E09DF8050007EB01217F1C7054BFB200E00125B7F5807F0D
:2053100008BFFF27002DCBD0002F18BFFF2FB4D1D8F80000B5E7C046503A002020050020AE
:20533000B8310020D8310020F8B504F009F801F059FF04F017F8044604F00C000C284FD0A0
:20535000E0081ED203F0C4FB274E376805460120014603F086FD31686943884211D2234C15
:205370008220B0FBF7F0291A204604F001F9204604F026F90120FDF71FFD204603F042FD10
:205390002FE020092CD21A4803F0BEFF0428FAD01849620906D228B10A460846016821F02A
:2053B000010104E00A460846016841F001010160D2F898004FF0805440F00300C2F8980062
:2053D000D4F8B8018069014620208847D4F8B801094C806B2168804701202060206800E0DB
:2053F00030BF03F0B3FFF8BDAC0D0000EC310020004003408C2108402C2009402DE9F84300
:20541000044604F0D9F881462D48021992F8ED10491ECFB2002F82F8ED704BD12B4D05EB1D
:2054300084052E78698836F07F0788461AD1F10911D24FF08054D4F8B801806901464046AC
:20545000884704F5DC742068406B0146404688470228F8D121E000EB8800D0F800110020F5
:2054700088471AE04FF08054D4F8B801006A014640468847D4F8B801806A014640468847AA
:20549000D4F8B801006B01464046884701210D4A0D48116001688908FCD306F03F003F28CC
:2054B00001D0FFF7ABFF687800F03F003F2801D0FFF7A4FF484604F07BF8BDE8F883C04670
:2054D000E03100202820086028200840D40A0000F8B587684568324C084620383ED0401E94
:2054F0004CD0401E47D1287B1678012814BF2A492A49FF2E41EA060125D0D5F89C0001F049
:205510009BFD70BB3868B0F1804F14BF23220B22D5F89C00314603F0AFFAD5F89C0095F8F1
:205530008D1002F0ABF9287B85F88D60012813D195F8A40001280FD1D5F89C002146314390
:2055500002F09EFF08E0D5F89C0095F88D1002F095F9FF2085F88D0000241BE0287B01289D
:2055700002D04FF0FF3415E095F88D20214601200024114308E06FF001040BE095F88D1047
:205590000020044641F0004185F8A400D5F89C0002F076FF2046F8BD0004C0A0002000800F
:2055B000000006802DE9F041064604F005F82D4D8046A91991F8ED00421C002881F8ED204D
:2055D0004AD1294C04EB8604277807F03F003F2801D0FFF7E7FF607800F03F003F2801D08A
:2055F000FFF7E0FF668837F07F001AD1F80911D24FF08054D4F8B801406901463046884796
:2056100004F5DC742068406B0146304688470128F8D121E005EB8605D5F800110120884736
:205630001AE04FF08054D4F8B801C069014630468847D4F8B801406A014630468847D4F88C
:20565000B801C06A0146304688470121074A0848116001688908FCD3404603F0A9FFBDE808
:20567000F081C046E0310020D40A00002820086028200840F8B5144602460F46C1F30A50A2
:2056900028A590B921F0004352EA030020D0104622A20CCAFFF7AAF9284B02460F46C1F314
:2056B0000A50A342A0F136001DDC40F2FF76864204D110460B46FEF74CF8F8BD0019761E55
:2056D000864216DB002805DD6FF31E5141EA00511046F8BD10F1360F07DD36306FF31E513E
:2056F00014A541EA0051104612E04CF25030A04209DA134922200DA6086096E803003B46DF
:2057100003F09BFEF8BD95E803003B4603F095FE95E80C00FFF76AF9F8BDC0460000000014
:205730000000504359F3F8C21F6EA501000000000000F07F000000000000903CB03CFFFF68
:20575000343A00202B4AF0B538CAADF11C0D02A938C10CCA4FF0805681E80C00846845682B
:20577000D6F8D0112068C9688847216822488A6B10408863206840F2F271416495F83C0034
:2057900095F83D202168C0100DEB8000806810434863684603F0E0FE1A4FDFF864E0D6F887
:2057B000D0112B7FDFF854C06A7FA87F496857F823705EF82260AA695CF820300D46206856
:2057D00001993E433343A8470F490A1F106840F010001060086840F001000860A07DFF2843
:2057F00006D0E07DFF2803D0086840F44040086007B0F0BD940B00000DF8FFFF800B00004F
:20581000780B0000680B00003010004038B504462568B5F1FF3F12D063690020990909D30E
:20583000616839B1A268914204D0521A284603F0DFF96369002805D543F4806363614FF064
:20585000FF3038BD60682061A060D80924BF23F030036361002038BD2DE9F0470746194CE9
:20587000DFF86C8020680FBB8047174A10680025002820DD1549A1462E469246A1F11804DA
:2058900054F8181FB1F1FF3F0CD0D9F8000080472046FFF7BBFF0746D8F800008047DAF855
:2058B00000003D43761C8642EADB04E080473846FFF7ACFF05464046006880472846BDE85C
:2058D000F087C046B839002090390020F0320020BC3900202DE9F8430D460646686874684E
:2058F000D6F80890002710B9E868002850D02078012814D103F060FED4F8BC1049B1D4F855
:20591000C0108D61C4F8C05003F052FE0120BDE8F883C4F8BC50C4F8C05003F049FE022079
:2059300002F0C2FF04F160084FF0FF31404603F01BFED9F8080003F00BFE3046294600F09C
:20595000D7FE0546D9F8080003F0FEFD207888B9B5F1FF3F08D004F17C004FF0FF3103F0E8
:2059700003FE207A48B110E003202072022002F083FF0AE0B5F1FF3F01D0012705E0032079
:20599000207204F12C0003F0EBFD404603F0D8FD3846BDE8F883FEE7264A2DE9F04180461B
:2059B0000125254815600768002FFCD0234CC02024492060081F03689B0806D250F8040CC4
:2059D0001F4B000C40F0F0001870002010630E68304600F059FA40463146FFF7F5F91A4894
:2059F000816D40F21E226FF31F418A4213D901680068C1F30367C0F3034007B17F1E072854
:205A100005D006280EBF0720801C00F00F000F4947EA001008703046FEF726FD0C48006889
:205A3000C16802208847402020600A4F3D60BDE8F081C046101009409402224300600C403A
:205A500056620840B43F0050BC12005002600840A00100109404604230B517A0ADF12C0DCD
:205A700003F097FA00212422082301A803F0C4FD214D002101AA284603F0BAFD214C20487C
:205A90001E4A2146006815604FF0FF3203F0D0FD218810A003F07DFA882000901B491A4859
:205AB0002022022300F03CFF18B91949FF20088000E0FEE70BB030BD5258207461736B2060
:205AD0006372656174696E672073656D6170686F72650A004372656174696E6720717565E3
:205AF000756520726561647920627566666572203D2025640A00C04634310020C831002039
:205B1000B8310020D0310020A03100209C300020C03100202DE9FC47294C8A4621680090A6
:205B300088472849284D086848B901232846072700220B6018307F1E40F8082BFBD1284658
:205B5000214600F1180400E00834DFF8809000F15002A24206D14C46206880474FF0FF3071
:205B7000BDE8FC872268002AEED108688047684601F0D1F906467089641BE2109046400806
:205B900006D2F0680346009851469847074601E04FF0FF374C462068002F48BFB84609D4A0
:205BB00005EBC8052E6071896F608A083CBF41F0010171818047206880474046BDE8FC874B
:205BD000B83900203C3A002080370020BC39002008B5FEF7E1FC2A48FDF7F2FB10B110A0CF
:205BF00003F0CAFC02F084FCFEF758FA12A003F0D0F902F099FCFFF72FFF1BA003F0C9F99A
:205C1000FFF768F80020FEF71BF802F055FC00F08DF902F0DFFA03F08FFC002008BDC04609
:205C30004572726F7220776974682050494E5F696E69740A00C046C02A2A2A4255494C4496
:205C50002054494D4520444154452031363A32333A3131204465632031312032303137202D
:205C70002A2A2A0A00C046C0676F696E6720746F20726164696F2073657475700A00C0461F
:205C9000DC0C00002DE9F0470F46054638686C68D5F8089000284AD003F08EFCD4F8881023
:205CB00021B103F085FC0320387440E001263E74C4F8887003F07CFCD7F8048003F07CFCE9
:205CD000824694F8D80068B918F0704F05D1B8F1000F02D0042002F0E7FD022002F0E4FD51
:205CF00084F8D860504603F063FCD9F80010486840F00200486028463946FEF771FFD9F86A
:205D10000010486940F001004861207828B961686C34204603F028FC10B13046BDE8F08726
:205D30002846FFF7C9F82046002103F01DFC0020BDE8F08798B504462068B0F1FF3F05D08C
:205D50006269500904D342F480626261002098BD100A05D320460021022201F00FFC626984
:205D700090094FF0000104D2D00924BF42F02002626167684FB9D00807D202F007022046A8
:205D90004FF48073FFF7F4F90146E2680020226101B9012098BD80B50168B1F1FF3F05D023
:205DB0004269910904D342F480624261002080BD53094FF0000104D2D30924BF42F010022A
:205DD0004261476847B9D30806D202F007024FF48073FFF7CDF90146002001B9012080BD42
:205DF000264838B560300468B4F1FF3F08BF002403F0D8F92248234B0025012110380560DE
:205E100003F15C0001601448016001F079FF1348006820B1124800682046FFF7BDFD1148D6
:205E300011490560114C0A686FF35B4244EA020008600F490868C0F30130012806D10A680F
:205E50000C48104040F400320A6008600A4908680028FCD138BDC046082204438001284346
:205E7000000120438C210840482003400000390104000940FFFFFCFC0C006842BC120050BD
:205E90009404604200600C4070B5234C234D0646B00E11D2700E0FD3802020744FF6D80169
:205EB000A4F85110207000F001FFD0352868C0F30420162806DB04E02868C0F30460162801
:205ED00000DB203800EB2670401C162805DA10F10A0FB8BF6FF0090000E01520104D00F02A
:205EF0001F0040F4F850A4F859002868800803D20C490020086001E046F040660A49F00E2A
:205F1000B50E80F0010000F00100086085F0010000F00100886070BD15620840B81200508F
:205F30000000094094042A430000204310B5ADF1300D08A803F0B0F9002408A920468DF8F4
:205F5000204002F069FC2149086010B911A003F020F81B481B4900F05FFA1849086068469C
:205F700003F056F98DF80C4049F640408DF800400323049008228DF818306946059220461D
:205F900002F0AAFC1049086010B907A003F001F80CB010BD49324320646964206E6F742013
:205FB0006F70656E00C046C053504920646964206E6F74206F70656E00C046C0303A002089
:205FD00080310020C0390020D4310020BC310020B0B501468B681C68E26948682262520899
:205FF00024D2D0F8A01049680A685D69D2F80415294206D01C68616A21F002016162C2F836
:206010000455D2F8042519690A4231D01A68516A21F001015162D0F8A01049681A69096835
:206030003830C1F8042503F09BFAB0BD1C68626922F001026261D0F88870B7B9626822F0DE
:20605000020262601C68626A22F003026262D0F8A0005F6944681A69236847EA0200C3F867
:206070000405084602F088FDB0BD0846FEF724FFB0BD7047F0B520480127F84201D001F01A
:20609000B5FE204D204F214EBD4206D203CD0478A4003459401CA047F6E71D48002800D021
:2060B0008047164D164FBD4202D210CDA047FAE7F0BD03251BE0416808300A1C2A400BD1AC
:2060D0001A1C2A40AB4305D0046804300C600431043BF9D1131C05D0047801300C700131A4
:2060F000013BF9D1021C2A4001D0A84304300368002BE0D17047C046FFFFFFFF0000000012
:206110000000000078990000F89900001499000055C501102DE9FC471E4E1F4F1F4DDFF87F
:2061300080A0DFF88090DFF88880D9F8000069464FF0FF3203F07CFA28685146012202F0D4
:2061500081F9002415E0BDF8001004EB01217B5CB3F1C002337006D01B3A1CBF311C012270
:2061700003D1114900E01149022202F06BF9641CA4B2BDF802102868A142E4DC51460122A3
:2061900002F060F9D8F8000069464FF0FF3203F047FACAE77031002020050020503A002020
:2061B0007F0A0000DC310020560D00007D0A0000B8310020002A4AD05FEA000C8B071CD10E
:2061D000830722D1102A08D370B4103A78C978C0103AFBD270BC103238D0042A2CD3082A4A
:2061F00005D30C2A24BF08C908C008C908C008C908C092072AD0920F22E00B780370491C42
:20621000401C521E22D08B07F7D1C30714D18307D8D0121F12D308C903801B0C4380001D04
:20623000121FF8D20AE008C903701B0A43701B0A83701B0AC370001D121FF4D2121D05D0C5
:206250000B780370491C401C521EF9D160467047F8B5044625686769B5F1FF3F07F48057D6
:2062700002D0FFF7D3FA10B14FF0FF30F8BD6069000907D36068401E02F071FE606920F089
:206290000800606100206060A060E060206801F051FB06464FF0FF30206057B10F4800683F
:2062B00080470F4800EB051002F0FCFB0D48006880473046F8BD38B5084C0546206880473D
:2062D000206880472846FFF7C3FF064C05462068804720688047284638BDC046B839002084
:2062F000CC2C0020BC390020F8B50546214800680C4680472046FFF71DFD1F4E002830D074
:20631000606900F00700042819D0A068E168814204D82046FFF77AFAF8B9A068411CA160C1
:20633000EFB207706069800805D30A2D03D12046FFF76CFA88B9306880473846F8BD2068E4
:206350008DF800506946012202F052FCB0F1FF3F03D030688047E8B2F8BD616941F4806106
:206370006161306880474FF0FF30F8BD0349FFF7BBBFC046B8390020BC3900200833002086
:206390002DE9F8432020EFF3118780F31188214CA068012103F0CCF84FF001094FF00008F8
:2063B00065692168A4F81C906A1A2168A4F81E80461B401A904227D387F3118840462D1882
:2063D000361A4846294603F0AFF8B042F7D92021EFF3118781F31188E18B012903D140464C
:2063F000294603F0A1F8B0F1FF3F06D0A169801B814238BF081C291801E0A069411903F0E2
:206410008FF8A4F820902560A4F81C8087F31188BDE8F883780100202DE9F843DFF87C90DC
:206430000F4604464FF0FF31484603F09DF8DFF870801D4800210AE0FF2A07D003689342B1
:2064500002D958F822600EB1002421E0491C1FB117F82120FE2AEFD10020206001266060A7
:206470000546A0600EE0FF290BD0636806FA01F048F8214018430B4960601268204602F032
:206490002FF96D1C27B107EB85021178FE29EAD1484603F055F82046BDE8F88318310020C2
:2064B0006C2D0020007FC767B43100202DE9F04107467C68BE6804F5847002F0A3FC1D49DF
:2064D000306809688069000923D203F075F81A4D8046287820B1022002F0CEF9002028702B
:2064F000404603F065F832681449906B20F020009063086820F480700860206A616A2569E2
:20651000626A401A2062216A2B4638469847BDE8F0814FF4FA70B0FBF1F1012998BF012177
:2065300004F58474204603F023F8204603F048F8BDE8F081AC0D000073310020301000403A
:206550002DE9F04107467D68D5F8BC00C8B303F033F81D4E00248046F46004203060022011
:2065700002F076FF6868D5F8A8102246034638469847022002F080F90CE08069C5F8BC0066
:206590006868D5F8BC102246034638469847022002F072F9D5F8BC00D5F8C0108142ECD14F
:2065B0002C722046C5F8A800C5F8BC00C5F8C000064B346038461C6001F064FC404602F0C4
:2065D000F7FFBDE8F081C04604280040100405422DE9F0415FFA80F84046401E012828D8AD
:2065F0001B481C4A006846F2A8134146B3FBF0F6B2FBF0F510A02B46324602F0CAFC174C06
:20661000154F04EB880420684FF0FF3102F0ACFF38680021012201F09DFE304603F004F822
:20663000386800210A4601F095FE284602F0FCFFE9E7BDE8F081C0464C454453202564207D
:206650006F6E202564206F66662025640A00C046AC0D0000E0930400B03100208C31002082
:206670002DE9984302F0A8FF1F4CDFF87880814604F1E000007850B94446A068014602202E
:2066900088470746102001F08DFC2FB320E000F011FF002820460FD1144909683222B2FB05
:2066B000F1F101B9012100F13004204602F060FF204602F085FF0FE044460022A16880F838
:2066D000E020022088470746102001F06BFC1FB1A068014603208847484602F069FFBDE846
:2066F0009883C046580D0000E0310020AC0D000080B54268C2F8A8100868C2F8AC00486843
:20671000C2F8B000D2F8B0708868C2F8B400C8681949C2F8B80097B9D2F8A800007C400035
:2067300040F0010041F8040C022010720B68DB0917D2D2F8B820022A17D30B2216E0D2F846
:20675000A800007C0123400041F8040CD2F8AC001372431CC2F8AC30007848600868C0090F
:2067700002D34FF0FF3080BD022003220A6002F06FFE002080BDC04604280040F0B5846819
:20679000204A637DA17D257DADF1140D022643F00043FF2942EA050700934568019708D072
:2067B000E07DFF2805D041F000410243029104260392FE2105F158004DF826106946FFF7DA
:2067D0002BFE6866686E002808BF002018D0617D0F2202F051F9686E217D102202F04CF9BD
:2067F000A17DFF290BD0E07DFF2808D0686E112202F042F9686EE17D122202F03DF9012025
:2068100005B0F0BD0000C0A02DE9F04107467E68BD6802F0D1FEB16A39B9296889690909A4
:2068300003D202F0C5FEBDE8F0810024B46202F0BFFEA87DFF2806D0E87DFF2803D03046C8
:20685000294600F0E1FA2A681049906B20F020009063086820F48070086002F0ADFE0C4D13
:206870008046287818B1022002F006F82C70404602F09EFE716A306A3569726A401A30623C
:20689000316A2B4638469847BDE8F08130100040733100207CB5042002F0C2F8022818D012
:2068B000032816D01A480068C0F38150032814BF41F288324FF47A721748184C016854349B
:2068D0002046B2FBF1F102F053FE204602F078FE7CBD4FF08056D6F8A4010E4D40680321BA
:2068F0004FF040521C230446009100212846A047D6F8A40101214FF4007209234068009178
:20691000044600212846A047022001F0B5FF7CBDB43F005000A00C40AC0D0000E03100208E
:206930002DE9F84FB2EB031F804638BF012033D30E4643B3DFF864A0DFF864900D464FF4C1
:20695000807B1F4605F11004DAF8000069464FF0FF3202F06DFE29460020BDF80020087192
:206970007F1E4879CA6000F0F00040F00600487105F110050C6009EB0223A1F806B004F1DC
:2069900010048B60E0D10E600020C8F80060054AC8F8040011460E60BDE8F88FB83100207C
