:20000000004D0020497D0000FDC90110FDC90110FDC90110FDC90110FDC90110FDC90110A3
:1C002000FDC90110FDC90110FDC90110FDC90110FDC90110FDC901103BCA0110A4
:20003C0000202020202020202020282828282820202020202020202020202020202020209C
:20005C002088101010101010101010101010101010444444444444444444441010101010F4
:20007C0010104141414141410101010101010101010101010101010101010101101010106A
:20009C00101042424242424202020202020202020202020202020202020202021010101030
:2000BC00200000000000000000000000000000000000000000000000000000000000000004
:2000DC00000000000000000000000000000000000000000000000000000000000000000004
:2000FC000000000000000000000000000000000000000000000000000000000000000000E4
:20011C000000000000000000000000000000000000000000000000000000000000000000C3
:20013C0000C08F0000008F0001008F0002008F000300900000018F0001019000000290005D
:20015C0000038F0001048F0000058F0008048F0000048A000006510000007F0001003F008A
:20017C0004003F0002003F0001007F000200DBDC7B756E6B6E6F776E2D696E7374616E63FE
:20019C00652D6E616D657D007B656D7074792D696E7374616E63652D6E616D657D00C04616
:2001BC007B7374617469632D696E7374616E63652D6E616D657D00C000000000080000008B
:2001DC000000000020000000400000006000000000000000060000000200000086000000B5
:2001FC008200000000000000080000001000000018000000200000000000004017FF0000BB
:20021C0000000000040000000800000010000000050708FF000000000080004018FF0000BC
:20023C0000000000050000000000010000000200FFFFFFFF0000000000000000010000009D
:20025C00018000C0018000D50180000C0180005D018000CC018000DD0000000002000000D3
:20027C00010000000300000010000000200000007BC80110C5BC0110D9B2011033C20110A6
:20029C00BDAD0110C1B10110218B00006DBA011065BB01101DC0011049910000D56700002B
:2002BC0015740000498F0000A9410000914A00006F930000B56F0000E54E0000759300009B
:2002DC0061680000CC0300002027002014020000CC030000FC2700203402000000000000A5
:2002FC00000000000000000000000000FFFFFFFFFFFFFFFF000000000000000001010101E6
:20031C0000C20100030000000000000000000000FFFFFFFF000000000000000040420F006E
:20033C00080000000000000000000000001000400600000015000000FF000000000000002F
:20035C000201FFFFEC2F002020000000014000800200C0800908C080054000800740008045
:20037C0008400080FE00000099650000AD6D000063930000F9920000654400008958000078
:20039C0084030000242B0020FC03000000000000000000000000000000000000B552000045
:2003BC00917500000000000000000001010100005D770000296600001B9200006D49000052
:2003DC00412C0000CD510000B8020000D82800204803000000000000000000000000000051
:2003FC00002000400700000011000000FF0000000000000004030000010000000000000062
:20041C000000000000000000010000000000DBDD0000000000000000000000000000000007
:20043C000C30002068040000000000000000000041B5011095A6011015B80110FF000000A8
:20045C00000000000000000001000000000002400A29FF0001020101D1C0011061AD011045
:1B047C0000001C00000000000A00000018360020318F00004140000027000069
:2004980000C500000FDD030100750085200F05798FFF0000ED720000C79352221F081204F0
:2004B800F8247922254002258F01FD2426CFA301020075740000FF157E0000C17800007B66
:2004D800197911707000005900F07B557133DF40383400200031554000344800345000341F
:2004F80058003455600034680034700034780034D5800034880034900034C0330300203F25
:2005180031007120B100F11ABF02417F16D1E80AF0003125B90413A700203D2106F307C2EE
:20053800011028BF06017F0ADBC5A74A1311912C1758366300200175027D02F540112F3DD8
:200558003F010094350020003101BF02A9B001B00031B80034C00034C8AA0034D00034D8CA
:200578000034E00034E816003401655497055540164255C83C02F156B19C0100200031382D
:2005980071B63829D75E5893FFFF591F14756F8C00000302F100145C2215CC15D0080771D3
:2005B8001107A400C000F1260231D0321A300030001FB4407AF66004F79000330908C080EF
:2005D80049FE03F20073C816B00031D0003455D80034E00034E80034F00034ADF800340003
:2005F8003700330800341002003418003424FF0A6937FFF0007D000000403700203000307B
:200618005934007000F1004D00700300927F2001010000042C0174000044FFF000F3010015
:20063800000700B938340020F401A80133370133340100200200313C0034FFF0009D000096
:20065800016CDC02007200C09CEF3500200300C44986001F00A9900000FFF0007D000004C7
:2006780038350020E80030F10101000031002918360020000031FFF0007B0100000F00B89F
:20069800350020016100FFF01D7000002992000099920000003D00000038350020FFF00070
:2006B8000200000010000000020000001000000002000000100000000200000010000000DA
:2006D80002000000882B0000000F08000000FFF00001000000FFF00001000004FFF0000162
:2006F800000004FFF000000098040000A83000200C06000044010020340600000001002089
:2007180054060000A4010020730600007801002090060000C8010020AC060000E40100205A
:20073800B806000030040020C006000040040020C806000000050020D00600001005002067
:20075800D806000020050020E006000000020020E8060000EC010020EF060000F001002055
:08077800F6060000F801002064
:201000003C000000000000000000000034100000000000000000000001000000000000004F
:1C10200000000000000000000000000001000000000000000800000000000000AB
:20103C003400000000000000000000006810000000000000000000000100000000000000E7
:14105C00010000000000000000000000080000000000000077
:2010700030000000000000000000000098100000040000000000000001000000FFFFFFFF87
:10109000FF00000001000000080000000000000048
:2010A0002C0000000000000000000000C4100000040000000000000001000000FFFFFFFF2F
:0C10C000FFFFFFFF080000000000000020
:2010CC0038140000E410000095A1011091A70110A1C2011009B2011041B80110A5BC011078
:0810EC0085BC01103300000077
:2010F400280000000000000000000000141100000000000000000000FFFFFFFF0000000093
:081114000800000000000000CB
:20111C00341400003011000065C2011069C101101BC2011091BA011005BC0110E5BB0110EA
:04113C00310000007E
:20114000341400005411000071C20110A5B6011099BF011045B60110B5BA011025BC01104B
:041160003200000059
:201164002400000000000000000000008011000000000000000000000000000008000000AE
:041184000000000067
:20118800240000000000000000000000A41100000000000000000000000000000800000066
:0411A8000000000043
:2011AC00240000000000000000000000C8110000000000000100000000000000080000001D
:0411CC00000000001F
:2011D00000000000C83600200400000000000000000000002000000070100000300000000D
:2011F0001C110000D03600200400000000000000000000000C000000301300001800000021
:2012100040110000D8360020040000000000000000000000240000004813000018000000A4
:2012300000000000E036002004000000000000000000000010000000A01000002C00000078
:20125000CC100000E8360020040000000000000000000000200000006411000024000000A7
:20127000FFFFFFFFF036002004000000000000000000000028000000881100002400000033
:20129000FFFFFFFFF8360020040000000000000000000000580000003C1000003400000018
:2012B000FFFFFFFF003700200400000000000000000000001000000060130000180000002C
:2012D000FFFFFFFF083700200400000000000000000000001C000000AC11000024000000A2
:2012F000FFFFFFFF1037002004000000000000000000000038000000F41000002800000013
:20131000FFFFFFFF1837002004000000000000000000000054000000001000003C000000AE
:1813300018000000000000000000000040130000080000000000000032
:1813480018000000000000000000000058130000080000000000000002
:18136000180000000000000000000000701300000800000000000000D2
:08137800010000008C040000DC
:041384000100000064
:0413880000000E0053
:04138C0000000F004E
:041390003200000027
:041394000100000054
:0413980058360020A3
:04139C00000200004B
:0413A0000000000049
:0413A400FDC901106E
:0413A8000000000041
:0413AC00000000003D
:0413B0000800000031
:0413B4000000230012
:0413B800803500205C
:0413BC00010000002C
:0413C0007036002063
:0413C400080000001D
:0413C8000000000021
:0413CC00000000001D
:0413D0000000000019
:0413D400080000000D
:0413D8000000000011
:0413DC00000000000D
:0413E0000100000008
:0413E400E8350020C8
:0413E80006000000FB
:0413EC0001000000FC
:0413F000E8340020BD
:0413F40000000000F5
:0413F80000000000F1
:0413FC0000020000EB
:0414000000000000E8
:021406002A00BA
:021408000100E1
:02140A002400BC
:02140C003100AD
:02140E003200AA
:021410003300A7
:021412000100D7
:0114140001D6
:08141800030000004C04000079
:081420000000000000000000C4
:0414280000000100BF
:04142C0000000300B9
:0414300083C4011060
:041434003C14000064
:041438003C14000060
:04143C0000000000AC
:041440009000000018
:041444009000000014
:0414480000000000A0
:04144C0070360020D6
:041450005B910000AC
:041454002000000074
:041458001404000078
:04145C008C020000FE
:0414600009C30110AB
:041464003F6D0000D8
:041468000F780000F9
:04146C0095C801100E
:0414700097C8011008
:041474000000000074
:0414780096040000D6
:04147C00A4010000C7
:04148000BC010000AB
:041484008C010000D7
:0214880008005A
:02148A00090057
:02148C0001005D
:02148E0000005C
:01149000015A
:041494000000000054
:041498000000000050
:04149C00000000004C
:0414A0000000000048
:0414A400CB930000E6
:0414A8009D8400001F
:0414AC00FD8A0000B5
:0414B0007D86000035
:0414B400E5860000C9
:0414B800258100008A
:0414BC00ED6B0000D4
:0414C000379200005F
:0414C40001770000AC
:0414C800B58C0000DF
:0414CC00ED9200009D
:0414D0000800000010
:0414D40024000000F0
:0414D80018000000F8
:0414DC0028000000E4
:0414E00020000000E8
:0414E4003C000000C8
:0414E8000C000000F4
:0414EC0034000000C8
:2014F0002DE9F843089C582B804617460CBFBEA5C2A5002908BFB8F1000F05D12068411E47
:201510002160302707702AE04FEAE7793E460246083E13D0083E0DD0002908BFB2F1FF3FE0
:2015300004D94B463A4602F059F80BE0B2FBF7F0002107E008071209090902E04807D2089C
:20155000C9081043226800FB1783561E0029EB5C26608046137008BFB8F1000FD6D12068D7
:2015700007F0C4FD401EBDE8F8837CB51446002806460D460094B8BF404264230A22C117BB
:20159000FFF7AEFF702D0BD0502D09D00A2E09DA16F10A0F04DD2068411E21603023037080
:2015B000002E01D42B2100E02D212068421E226001702068411E216005707CBDF8B51D469D
:2015D00017460E46044607F091FD324603460021002A284603DD9342A4BFA118491E27B1F1
:2015F00005686E1E06602E272F70934208DAD71A30251A4603685E1E06607F1E1D70F9D1EA
:20161000002A0CDD8C420FD80F1B7F1C026811F80139541E04607F1E1370F7D1F8BD0168A4
:201630004A1E026030270F70F8BD2DE9F04F04461646B068ADF16C0D0028199302D003D59D
:20165000062000E00120B060884630210FF2083B8DF800109BE80C00471C2046414605F077
:2016700083F9A14638BF88F00048002412E0302008705AE09AE80C0003F0AAFC641E8846B1
:20169000814611E09AE80C00484603F033F8641C88468146CAA20CCA414605F0A8F90FF2D3
:2016B000183AEFD300201A909BE80C00484605F05BF909D01A9DC4A20CCA484605F054F93A
:2016D00038BF0125002DD5D1484606F0A9FA83460DF1010106F06FF90DEB000524188742BA
:2016F00005F1010519DD3F1A584607F085F80B4602464146484602F02BFA9AE80C0003F037
:2017100067FC8846814606F08BFA83460BF130007F1E05F8010BE7D102E00DEB07056D1C84
:2017300015F8010D35280ADB294611F8010D401CC2B23A2A08709ADA6F468F4204D01A988A
:201750000DF10107287003E01A98641C05F8010C14F1030F08DBB068A04214DA022C03DBCE
:201770001A98641E001905E0002C05DC1A98C4F10104001B1A900124307B199A801EC1B255
:201790001A98FFF7F2FE384607F0B0FC0025401E844219DC021B521C002803D4395C3029CA
:2017B00001D004E0302115B933681B0908D3DDF864C0DCF800305D1ECCF800500125197070
:2017D000521EA0F10100E7D13068002200F00800284318BF0122199B21463846FFF7EEFEAD
:2017F0001BB0BDE8F08FC0463031323334353637383941424344454600C046C030313233B6
:2018100034353637383961626364656600C02DE9FE4F0D99441C9946924601900FF2381B57
:2018300000940C9F029130210170194610469BE80C0005F099F838BF89F00049002512E06A
:201850003020087054E098E80C0003F0C1FB6D1E8946824610E098E80C00504602F04AFFD2
:201870006D1C8946824656A20CCA494605F0BFF80FF24418EFD37F1C9BE80C00504605F05B
:2018900073F80AD050A20CCA504605F06DF84FF0000638BF0126002ED5D1504606F0C0F9BF
:2018B0000646214606F087F82418291802987F19002F016017DD304606F09EFF0B4602461B
:2018D0004946504602F044F998E80C0003F080FB8946824606F0A4F9064606F130007F1E70
:2018F00004F8010BE7D114F8010D352810DB214611F8010D401CC2B23A2A0870A0DA019879
:20191000884205D10299019A08680092401C0860002100982170BDE8FE8FF8B51D46174632
:201930000E46044607F0E2FB3A4631462B468918491E521E0FD4521C002903D48842C8BFA3
:20195000665C00DC30261D686F1E521E1F60A1F101012E70F0D1F8BD0000000000000000DA
:20197000F0B51546AF681C460246ADF5FE7D002FADF1100D44BF0627AF60266802A8009781
:201990000B46019003A8FFF742FFAA68029923460746FFF7C2FF20680122B04203D1286858
:2019B000000938BF0022029938462346FFF706FE7FB004B0F0BDC04600000000000024407F
:2019D0000000C0FFFFFFDF41000000000000F03F2DE9F0471646B4689A4688460746ADF18D
:2019F000700D002C44BF0624B4600FF2E82999E80C0004F0FCFF4FF000050DD90FF2DC292F
:201A100099E80C00384604F0AFFF05D9B5A20CCA04F0AAFF12D11FE099E880010EE099E80E
:201A30000C00384602F066FE6D1C07460FE099E80C0003F0CDFA6D1E88460746ABA20CCAE1
:201A50004146384604F090FF0FF2A829EFD399E80C0004F0CCFFE2D9009402A80B463A4644
:201A7000019003A8FFF7D3FE04460298022809D1401E0290204607F039FB6D1C0021001927
:201A900000F8011C317B28465246FFF76EFDB268029920465346FFF740FF204607F026FBA7
:201AB00002990122884203D13068000938BF002220465346FFF782FD1CB0BDE8F0872DE98E
:201AD000F04F074616460020ADF17C0D1B9381A4009094E80C00384604F089FF88460FF213
:201AF00004290CD97DA494E80C00384604F03CFF05D999E80C0004F037FF02D109E094E8A1
:201B10008001414638466A4605F0C4FD0098401E0090307BB5680024A0F14101B5F1FF3FA0
:201B30001D9108BF0124A24641280CBF754876481E9030208DF8080099E80C004146384647
:201B500004F012FF38BF88F0004899E80C00414604F00AFF0CD0384601AA05F09BFD019A7B
:201B700041463846C2F1010203F058FD88460746384606F055F883460DF1090105F01BFF96
:201B90000446584606F038FE0B4602464146384601F0DEFF0FF2641B0DEB04021C9407463A
:201BB000BAF1000F02F1090453D16D1C15D09BE80C0003F00DFA8846814606F031F81E99D5
:201BD000095C04F8011B06F017FE0B4602464146484601F0BDFF6D1EE9D11D9F641E002F60
:201BF00014BF494D474D2178284607F03FFA401B082833DB27464FF000081D987F1E0028DA
:201C100014BF414D3F4D3978284607F02FFA401B401C1028B4BF295C3021102839701DDB77
:201C300087F80080E9E79BE80C00384603F0D0F90D46074605F0F4FF1E99095C04F8011B40
:201C500006F0DAFD0B4602462946384601F080FF074699E80C0004F087FEE4D10025307BD9
:201C70002570412814BF702150211B9A0098FFF77CFCB068B0F1FF3F05D10DF1090007F0FB
:201C900035FA401EB0601C991B9B0DF1090402462046FFF742FE3168B0682A4601F0080122
:201CB000084318BF01221C991B9B2046FFF786FC307B412814BF782158211B980268531EFF
:201CD00003601170016830274A1E02601FB00F70BDE8F08F000000000000F07F00000000A5
:201CF0000000F0FF0000000000000000000000000000F03F00000000000024400000000052
:201D100000003040F81700000C1800002DE9F04F0646ADF5FE7DADF1680DA29835688D904B
:201D30003068984617468B4607F0E0F90146CDF8308228468B974919002581428E9140F236
:201D50004B84899594952C468A942F469597BB49979196914FF0FF330393899901910F46C9
:201D70008DF810703C4602940778252F08BF271C0FD0002F00F0308431688C9A491C3160F2
:201D900000788B999047306807786D1C252FF0D1019F31685C46491C316011E047F01007FB
:201DB0000AE047F0010707E047F0020704E047F0080701E047F0040701973068401C30605A
:201DD00030680178B1F12000F4D0C01EEFD00838EAD0801EE5D0C01EE0D02A291CD0959977
:201DF00086A80A2204F04AFE3068017830290BDB86AA3A2908DA0146401C3060097802F8CA
:201E1000011B01783029F4DA9DF81872AFB186A805F072FE029010E0E41C24F00304241D06
:201E300054F8041C002903D547F001070197494202913168A346491C3160306801782E2950
:201E500031D1401C306000782A2820D0959986A80A2204F013FE3068017830290BDB86AABD
:201E70003A2908DA0146401C3060097802F8011B01783029F4DA9DF81872002F08BF8A986C
:201E900002D086A805F038FE0146306809E03068E41C24F00304401C241D54F8041C3060F3
:201EB000A34603910178019F4C391FD01C3911D0091F21D13068401C306001786C2903D053
:201ED00047F04007019717E0306847F48077401C3060F7E73068401C30600178682918BFEC
:201EF00047F02007EED147F4007701E047F0800701973068401C30603168491C3160007841
:201F10006E288DF8100000F03583732800F0E7820DF21520DDF80880059020214FF4FF72CF
:201F300006A804F0ABFD05988A9901700F46909791910DF5057C92910DEB0803939103F1B7
:201F50001800CDF814C09DF810708F90642F15DC642F23D0B7F1250000F0B6821C3800F049
:201F70000E81001F022840F20A81133816D0093800F00581801E00F0F78174E1A7F165007C
:201F9000022840F2FC80001F08D0801F012805D9801F18BFB0F1030040F0658103990029C7
:201FB00004D4019820F01000019002E0012003900146B7F1580007D0173807D0401E03D0E4
:201FD000083818BF0A2202D1102200E00822702F79D0DDF854920198CA4600F4EC602038BB
:201FF00053D0203843D0C0382AD0B0F580700DD0B7F1580067D00C385CD0401F5AD0801F10
:2020100061D0801F5FD0C01E5DD066E0B7F158000AD00C384ED0401F4CD0801F04D0801F97
:2020300018BFB0F1030058D1E41C24F00304241D14F8049C4FF0000A4EE0C046FFFF0F005A
:20205000B7F158000AD00C3808D0401F06D0801F04D0801F18BFB0F103003ED1E41D24F094
:2020700007040834A4F1080090E8000634E0B7F1580028D00C381DD0401F1BD0801F22D0D6
:20209000801F20D0C01E28D11DE0B7F158000AD00C380FD0401F0DD0801F04D0801F18BFAB
:2020B000B0F1030019D1E41C24F00304241D34F8040C0EE0E41C24F00304241D54F8040C44
:2020D0004FEAE07A07E0E41C24F00304241D54F8040C4FF0000A8146A346CB1748465446BB
:2020F0000143234308BF002903D101990B09C0F05181642F18BF692F08D1002C06DA012327
:2021100040424FF00001919361EB040405A900913B462146FFF7E4F90399401C814227DABF
:202130009DF81070782F03D0582F18BF702F11D1019908090FD3702F08BF7827059807707B
:202150000598401E05903021017005989DF81070401E059001996F2F40F01C810809C0F0B2
:20217000198105984278302A00F014813021F6E0059930220A700599491E0591CCE7384622
:20219000A0F16101192998BF2038DDF85482B84208BF4FF00108E01D20F007000830834682
:2021B000083803C847F6F07347F6F07E03EA11439E4510D1969C0A46002312001343002285
:2021D0001C4040EA02024FF0FF3303EA020208BF002A40F0A780949C002C40F0A380734653
:2021F0000FF2C02C03EA11439E450FD1979C0A4600231200134300221C4040EA02024FF0E5
:20221000FF3303EA020208BF002A33D0959C002C30D19CE80C0004F0A7FB03D2012281F0AA
:2022300000419292B7F141021FD0121F15D0521E0ED0521E07D01A3A17D0121F0DD0521EEB
:2022500006D0521E0FD101AA05ABFFF7EEF908E001AA05ABFFF784FB03E001AA05ABFFF724
:20227000B7FB9DF81070019994E001AA05ABFFF726FC2CE09CE80C0004F076FB29D3B8F160
:20229000000F14BF4621662105988DF81412B8F1000FA0F10100059014BF4E216E210170F5
:2022B0000599B8F1000FA0F10100A1F10101059114BF49216921017005992B27491E0591D7
:2022D000032400F8017C05989294401E059001995EE0B8F1000F14BF4621662105988DF829
:2022F0001412B8F1000FA0F10100059014BF4E216E2101700599B8F1000FA0F10100A1F10D
:202310000101059114BF49216921017005992D27491E0591042400F8017C0199DDF814C00E
:20233000929432E0B8F1000F14BF4E216E2160468DF81412401EB8F1000F059014BF41219B
:20235000612101700599B8F1000FA0F10100A1F10101059114BF4E216E21022292920170DE
:202370000598401E05907CE7E41C24F00304241D14F8043C0F46A34603B901278DF81432C5
:202390000199939721F0020101916046401E05909DF810700598752F00F101022AD06F2F48
:2023B00028D0782F26D0582F24D0702F22D0929F1FB17F1E1ED10123919301F00203919F71
:2023D00090931FB98B0808D32B2100E02D21017005980199521E401E0590909C274309D18F
:2023F000C80807D305982021017005980199521E401E059048080ED2059C0298ADEB040132
:2024100001F21521884206DB8F9F06A8241AE419A4F5FE7400E006AC1146959A20464FF4F5
:20243000FF7306F0EAFC939F059027B18A9901700598401C05908F99814209D30A46121A3A
:202450002021401E521C04F019FB8F988A990170019840092AD306A8A0422ED006A8221A45
:20247000302106A804F00AFB9DF81000782810D058280ED070280CD0909F9198074302D1E8
:202490000198C00819D320788DF818003027277013E00198000910D360788DF81900302777
:2024B00067700AE0000000000000000006A8241A2021224606A804F0E1FA06A806F016FE81
:2024D000939F0246D21904E046A00188012206AF39808D9B8B9906A898472D1877E0E01C32
:2024F000039C20F00300001D50F8048C8346B8F1000F3AD0DDF80890002C06D4404606F0AB
:20251000F5FDA04288BF201C02D8404606F0EEFD04464C45A8BF81464D44A1450BDD78082B
:2025300009D2A9EB0407002F05DD8C9A8B99202090477F1EF9D1002C07DD274618F8010B9F
:202550008C9A8B9990477F1EF8D10198A1453EDD40083CD3A9EB0407002F38DD8C9A8B99C6
:20257000202090477F1EF9D131E08C9A95988B9990472CE007F4EC67B7F120001FD0E03845
:2025900012D0B0F5807007D0E41C24F00304241D54F8040C056019E0E41C24F00304241D6B
:2025B00054F8040C057011E0E41C24F00304241D54F8042C2846E91782E8030006E0E41CB0
:2025D00024F00304241D54F8040C0580A34630688E9981423FF6BEAB7FB028461AB0BDE899
:2025F000F08FC046250070472DE9F04F09AFADF13C0D08900A92388809911E46ADF81800C7
:20261000101C08BF002000F08481002700F101094FF0FF3A4FF0010BB8466CE1252940F0F4
:2026300063811078521C0A922D2818BFADF8068005D15846551CADF8060010780A953028AE
:202650001CBF4246434605D10A9908785A465B46491C0A912A28CDF80080554616D1306893
:2026700004930A99CDF808A0C01C4B1C20F00300001D306050F8044C0A93002C087800942B
:2026900018D5ADF806B06442009413E044460AE0610001EBC4010918A1F130040A99087825
:2026B0000094491C0A91302801DB3A28F0DBCDF808A004932E282BD10A9908782A2801F158
:2026D00001010A9111D13068CDF80880C01C20F00300001D306050F8045C002D48BF454683
:2026F00008782B46491C0A9111E0454643460AE0690001EBC5010918A1F130050A990878C4
:202710002B46491C0A91302801DB3A28F0DB02930AB1224604926C2804D04C2818BFADF831
:20273000048005D10A990878ADF804B0491C0A910BA9CDF80C800FAB07916428059300F048
:202750008B80692800F08880BDF818C0752872D078286ED06F286AD0702850D063283DD06A
:2027700073281ED009980A990128A1F101010A9115D96B490C68B5F1FF3F03D0A84288BF26
:202790006D1C00D8099D029508A80AA932466B46A0473F180A99039801F1010974E04046AD
:2027B0002AE030680A99C01C20F00300001D306050F8040CBCF1000F01F10109014608B910
:2027D00055A00146079106F091FC0390B5F1FF3F5BD0A842C4BF281C039056E03068C01C02
:2027F00020F00300001D306010F8040C5D468DF82C000A990395584601F1010945E008207B
:2028100035680490E81C20F00300001D306050F8041C082210230FA804F052FA401E079002
:20283000402101700A99079801F1010929E0082302E0102300E00A230A99306801F10109EB
:20285000C01C20F00300001D306050F8041CAA42BCBF2A1C049210E00A99306801F10109FA
:20287000C01C20F00300001D306050F8041CAA42BCBF2A1C04926FF009030FA804F020FAD1
:202890000790059D281A0390009C241ABDF8065000945DB906E008A8202109AA06F074F89F
:2028B000009C7F1C641E0094F5D503980546401E039075B9BDF80600E8B10098401E009012
:2028D00019D408A8202109AA06F05EF800987F1CF4E70798411C0791017809AA08A806F097
:2028F00053F803987F1CE1E708A809AA06F04CF87F1C09F101094A460A9812F8011C401C8E
:2029100000290A907FF48AAE089808B14146017038460FB0BDE8F08F286E756C6C2900C0BB
:2029300090040000BA482DE9F84F0025B94CB749056094F8E200002800F06381012800F082
:202950002F81B54E02283CD0032840F05A8151F8250CD4F8B8100029A0F5C060C4F8D400CC
:20297000B8BF49420028B8BF4042814226DA4FF08057D7F8A4014568B4F8BC0030214FF42E
:202990007F42082300903046A847D7F8A4014568B4F8C00004214FF4F8021223009030461C
:2029B000A847D7F8A401B4F8D070456820214FF440620A2330460097A847012584F8D850F2
:2029D0001AE151F8258C06F03BFC2F4600B901273946924F38680028FCD0B146012609F163
:2029F0000409D9F82CA03E6009B106F02FFCCAF30720C4F8BC0006F023FCAA4600B9B24692
:202A10003B68002BFCD0D9F800B0BAF1000F3E6001D006F01BFCCBF38440C4F8C00006F061
:202A30000FFCAA4600B9B2463B68002BFCD0D9F81C90BAF1000F3E6001D006F007FCC9F3E5
:202A50008120C4F8D000B8F5C061C4F8B81000F09C8094F8D80068B9C4F8D410D4F8C0002A
:202A7000C4F8C800D4F8BC70C4F8C470D4F8D030C4F8CC30D4F8D410D4F8BC30002954BFB2
:202A900002206FF0010004F1C802176801EB41014018411000EB917107EBA1001060D4F8D3
:202AB000C810C4F8C43000291CDD1E293CDDD4F8CC0030B93429B4BF15391E21C4F8C8108A
:202AD00025E02A29BABFD4F8C8000B381E20C4F8C800D4F8C4003F28B4BF401C3F20C4F89B
:202AF000C4001FE0D4F8CC00032812D011F10B0FC6BFD4F8C8000B30301CC4F8C800D4F852
:202B1000C4000028C4BF401E051CC4F8C450032508E011F1150FC6BFD4F8C8001530301C07
:202B3000C4F8C800C4F8CC504FF08057D7F8A401B4F8C43030214FF47F42456836480093EC
:202B50000823A847D7F8A40104214FF400321123456831480096A847B4F8C860D7F8A40116
:202B700004214FF4F802122345682B480096A847D7F8A40120214FF440620A23B4F8CC606A
:202B9000456825480096A84701E084F8D85040F2FF50404502D8801C40452DD208202EE0CB
:202BB00051F8251C1E4F4BF2F5204843060A3868C0F3814001280AD105F0FCFE05F026FB04
:202BD00006F04AFB3111C010484306EBE03694F8E50030B91348006820F07F408019460833
:202BF00001E084F8E5501048310C0660012741600E4D8760287808B90B2000E0052084F820
:202C1000E40001F04DF9BDE8F88FC0462D400C402C500C40BC31002000A00C4000800C4011
:202C3000B43F0050102009403C600C40C90300002DE9F04FD0F804A0ADF1140D029080681A
:202C50008B460390DBF80000002800F0588106F09AFBDAF8881029B106F084FC03208BF851
:202C700010004CE101218BF81010CAF888B006F079FC9AF8A40038B19AF88D20A249DAF8C2
:202C90009C00114305F0A4FCDBF8047006F07BFB04469AF8D80078B917F0704F06D12FB18A
:202CB000042005F061FD062005F05EFD022005F05BFD01208AF8D800204606F053FC0398E7
:202CD000D0F80080D8F8040040F00200C8F804009AF80070002F019778D1DDF80CC0DBF84C
:202CF0000050DCF81C00A84272D9DBF8086064460EB90AF1A606DBF8047037B9E0890AF161
:202D1000A607AAF8A600DBF80050DAF8140009282CBF4FF002094FF0010975B3DFF8EC818A
:202D3000DAF8140009280FD3D8F800004268398820689047D8F80000C268206869469047E8
:202D5000BDF8000030800EE0D8F800004268397820689047D8F80000C2682068694690477E
:202D70009DF800003070DBF8083003B14E44DBF8043003B14F446D1ED2D1204601684868C2
:202D900020F002004860DBF8047006F0FCFA04469AF8D80078B117F0704F06D12FB10620B6
:202DB00005F030FC042005F02DFC022005F02AFC00208AF8D800204606F0D4FBDAF8881054
:202DD00000200874CAF88800012099E0DBF80050DDF808C0DCF80830DCF804401F6894F86C
:202DF0008C00A9B2B7F1804F01FA00F11FFA81F914BF474E474EDBF80870474957B994F872
:202E10008C004FEA800C084600EB0C018A6904F1A6010AE094F88C004FEA800C084600EB7C
:202E30000C010A6909EB0701491EB2607160014618682A0108303060B56843F6F07E103AF4
:202E50000EEA02021543B5601E68B6F1804F14BF324D334DDBF80470C7B96144D8898F6966
:202E7000A4F8A60004F1A606AF60039A2E60D2F80080DBF800101E689AF8007072460901AE
:202E9000019706F1080010390A4006E061448968A96009EB0701491E29606860A86802436A
:202EB000AA605969D4F8A0701869014378680068019D8162706A40F003007062D8F8140009
:202ED000002D40F00100C8F814007FF47DAFDAF804100AF16C00044606F025F900283FF40B
:202EF00073AFDAF88800017C012904BF03210174029802F063F92046002106F014F90020B1
:202F100005B0BDE8F08FC04600000680C40100100005002030040020540200001005002063
:202F3000400400202DE9F04F924898490068924E4FF4967240F6C413ADF15C0D01244FF002
:202F500000084FF0020A4FF0F30B8900B2FBF0F21492B3FBF0F21592B1FBF0F016908748DB
:202F700000680FA94FF0FF3206F0F8FABDF83C70149806F0EFFA11AD10A80B9015980C957E
:202F900006F0E8FA8DF841808DF842808DF843809F208DF8400003200A9006F017F979486C
:202FB00000680AA906F0AAF9814606F007F9744D05EB0725284606F099F89DF845109DF83F
:202FD000463055A74A4640190091394604F07AFA9DF846209DF845304946384605F01AFFEE
:202FF00076208DF81C0003AF049413A90694D023059112AA8DF8483030680392394606F006
:2030100078F98146284606F071F89DF84C304AA140194A4604F056FAF2208DF848008DF80E
:203030004940CDF810A013A9CDF8188012AB059130680393394606F05CF9F4208DF848003D
:20305000CDF810A013A9CDF818802723059112AA8DF8493030680392394606F04AF912A899
:2030700003908DF848B0049413AA069403A93068059206F03EF99DF84C00C008EFD2F720B8
:203090008DF848000821049412AF069101AA03973068059203A906F02CF90DF104090827C5
:2030B000284606F023F819F8012B28A1401904F009FA7F1EF4D168208DF81C008DF8488053
:2030D00012AF049413AA069403A903973068059206F00FF90746284606F008F89DF84C30FB
:2030F0001CA140193A4604F0EDF9284605F0FEFF1FA1401904F0E6F9284605F0F7FFADF806
:203110003E00214800680FA94FF0FF3206F01EFA169806F01FFA22E7737069207265743DA0
:20313000256420726561642D69643D2530327820253032780D0A00C07265743D2564206974
:20315000643D3078253032780D0A00C0253032782000C046424D49313630207265743D25DF
:20317000642069643D3078253032780D0A00C0460D0A00C0840400009830002094300020C2
:20319000200500209C300020A430002040420F002DE9F047DFF80CA20746AAF13500DFF8A3
:2031B000F8810068800880F0E78005F003FC814908310B6800261A17990D02F101020AD286
:2031D000C0F13E0110F10A0F4FEAE101D8BF08218A42B8BF0A1CDFF8C4C1990E0FD2590E46
:2031F0000DD36446143C2168C1F304211629A8BF20392468C4F30464162C0EDB0CE0634C13
:20321000D4F87C11C1F304611629A8BF20392468C4F30444162C00DB203C5118A14616299A
:2032300005DA11F10A0FB8BF6FF0090100E01521574C584D01F01F0242F4F85222802A6880
:2032500012F0030F18BF0126D20828BF46F002060FB146F00406424692F90740041B052CA3
:2032700004DA9479B44208BF918865D00F28A0F10F0827DB08EB0014A4F1F0084FEA282E44
:20329000BEF1070F88BF4FF0070E7546062D88BF06255CF82570042404EB850465462C59A5
:2032B000E41B04F0FF05F70824BFC4F307273D44B70824BFC4F307473D44770828BF05EB41
:2032D000146501E00025AE465CF82EC0F7080CF0FF0424BFCCF307273C44B70824BFCCF37A
:2032F00007473C44770828BF04EB1C64ADB2A8EB0E27B9EB010105FB07F505F1800504EBE8
:203310001524D8BF012103F0FF0334254D435D434FF6FF73B5FBF4F18B4238BF191C802840
:2033300089B2918005DA10F1800FB8BF6FF07F0000E07F20D0719671194800681F29106025
:203350004FF0000008D340F2FF128A4206D24908401C8A42FBD301E01F219180124F0F393A
:20337000090940EAC10047EA0001CAF8FB1F0026CAF8FF6FBDE8F0870C490D4F424608205F
:203390000F60921D1070BDE8F087C0463C1100506E620840242208407C3000209C1300504F
:2033B000082009403500094000E7A48030100940FDFDA400AC3F005001282DE9FE4F40F0E5
:2033D000EE80DFF810B2DBF8DC00012840F0E4800220CBF8DC0005F005FC012004F0CEFCD4
:2033F0005FEA000805D00120CBF8DC0005F00AFCD7E005F0D8FF6C49029000200860012069
:2034100005F03EFA012818BF002003D1002003F065FF0120654900900020654F08603868C9
:20343000112005F02BFF00280CBF00240124102005F024FF08B144F002040F2005F01EFF74
:2034500008B144F004040B2005F018FF30B1624814300068574E016B308888470A2005F042
:203470000DFF002600B101264FF0805A0AF5DC75301C04D02868504E016B308888474F48F1
:20349000012606602868816944F0200088474C48066005F0EDFE00F001010191400814D266
:2034B000484805F0ABFE8146B9F1040FF8D0B9F1010F05D1DAF8D801426842480321904718
:2034D0004149086820F0030008600020FFF760FE2B683868986B8047019801280DD0B9F1AD
:2034F000010F05D1DAF8D80142683648314690473549086840F0030008602C4806602868C2
:203510004169204688470B2005F0B8FE20B12868284BC16A188888470A2005F0AFFE20B1DB
:203530002868254BC16A188888472448032206602349CBF8DC2000230B602868416B20468F
:2035500088470128F9D13868042004F017FC044615481E490660386808688009FCD300985A
:20357000012802D1304603F0B9FE05F06FFE082004F004FC07460298CBF8DC6005F0E2FFE5
:203590001348008803F0A6FC05F03CFB57EA040018BF4FF0FF3804E06FF0040801E06FF056
:2035B00001084046BDE8FE8F0C400940000222432C2009406C010000680100002820086023
:2035D00080010443004003402422084014100940C4030000BC310020A40100102DE9F041C5
:2035F0001C4615468C4208BF854282BF00230022E5E0002C08BF002D0AD100290EBF00283E
:203610006FF000006FF0000100F0E1F8BDE8F0815FF000085FF0000E002C08BF8D429CBF2B
:203630002C1C0025070C47EA01470E0CB44208BFBD429EBF5FEA044444EA15445FEA0545A3
:20365000070A47EA01670E0AB44208BFBD429EBF5FEA042444EA15645FEA0525470847EA74
:20367000C1774E08B44208BFBD4200F29380870847EA81778E08B44208BFBD427CD8C708BE
:2036900047EA4177CE08B44208BFBD4266D8070947EA01770E09B44208BFBD4250D847095D
:2036B00047EAC1674E09B44208BFBD423AD8870947EA81678E09B44208BFBD4224D8C709B4
:2036D00047EA4167CE09B44208BFBD420DD8E60146EA5566EF01B14208BFB84201D3C01B64
:2036F000B14158EB08085EEB0E0EA60146EA95664FEA8517B14208BFB84201D3C01BB14114
:2037100058EB08084EEB0E0E660146EAD5666F01B14208BFB84201D3C01BB14158EB080807
:203730004EEB0E0E260146EA15762F01B14208BFB84201D3C01BB14158EB08085EEB0E0E05
:20375000E60046EA5576EF00B14208BFB84201D3C01BB14158EB08084EEB0E0EA60046EAB6
:203770009576AF00B14208BFB84201D3C01BB14158EB08084EEB0E0E660046EAD5766F0032
:20379000B14208BFB84201D3C01BB14158EB08085EEB0E0EA14208BFA84201D3401BA14167
:2037B00058EB08085EEB0E0EA34208BFAA423EBF2D0A45EA0465240A89D3734642461E46AE
:2037D00017460B46024631463846BDE8F0817047F8B584460F1C5BD06848674908605578BF
:2037F000167885B1622D4FF0010003D09178622918BF00202B2D4FF0010406D091782B29F9
:2038100018BF002401E000200446002144B9722E08BF102205D0772E14BF612E202200D0AD
:203830000A46612E0CBF80230B1C1A43002814BF4FF480730B1C002C43EA020214BF4023BC
:203850000B1C13437B6108B14FF40041613E10D0113E02D0761F04D012E00CB141F00201D6
:203870000EE0002C14BF02200120014341F4C06106E0002C14BF02200120014341F402715A
:2038900060464FF4DB7202F013F90028386001D50020F8BD3846F8BD70B5394D284602F03B
:2038B0008FFD384C206802280BDB012655F8181F002903D4284602F083FD2068761C8642E3
:2038D000F4DB70BD70B505462F48006814460E468047204602F074FD284632462146FFF70C
:2038F00077FF0446294800688047204670BD2DE9F843814624480068884680472449204A6D
:203910000F6857B901234FF0FF34072702F148000B607F1E40F8184BFBD11A4908680023AC
:2039300000280BDD14460546183C54F8186FB6F1FF3F03D06D1E03F10103F6D10A2B0ED086
:20395000DC00984204EB0314144404BF401C086000211822204603F091F8214600E0002117
:2039700048464246FFF734FF04460848006880472046BDE8F883C04698360020A9380000D4
:20399000D032002088360020B0360020B4360020243700202DE9F04FADF1240D079001F0E0
:2039B000FDF86148007804F0AFFE604D0024012808D90A380FD0801E04D0401E0ED0401E38
:2039D00009D006E005F040FA022804BF01210C1C06D0696805E005211F2401E0032107248D
:2039F0006960534A1068C0F38150012806D152F80C0C0127020E07FA02F0044305F0CEFBC3
:203A1000524AFF230818401E471C28607F1E02F8013BFBD1079A1268002702F0FF03FE2B71
:203A300020D0DDF81CC096463B4601260EF0FF02FF2A10D0904205D3914203D806FA02F2FD
:203A5000144201D002206CE017430EF0FF02DFF8FCE00EF802305CF804EF5B1C0EF0FF02C0
:203A7000FE2AE5D1092002F081F807980121A86005F1280004F046FF05F19806A8464FF0E3
:203A9000010A4FF0040B0025A9460AFA05F0044216D1074204BF05F0FF0141F4C04104D078
:203AB0002A480799405D51F82010224801F06CFCE8B24FF0FF3105F04DF9C6F8009001E098
:203AD000C6F800B0D8F800006D1C361D8542DCD904A805F043FB184C184A2078102104AB23
:203AF000059008F10C0004F035FB684605F05EFBCDF80C906A4660681149029008F16400DA
:203B100004F0A2FB0F4951F80D0C20F4F85040F4005041F80D0C0C4FC1F8FFAF4846C7F809
:203B300000A009B0BDE8F08F4F300020A8300020B43F0050007FC76758040000818D000007
:203B5000A57F00000D30094008000940EC3000202DE9FC4F83F0004301E02DE9FC4F1F03A3
:203B7000FF0847EAD2574FEA42284FEA43095FEA595906D147EA080A1CBF00210020BDE8D6
:203B9000FC8F57F000575FF4E06E1EF1FF0EF14505D14FF00000190D0905BDE8FC8F002B55
:203BB00005D55FF0000AD8F100086AEB07070C03E40844EAD0544FEA40254FEA4106760DA0
:203BD00008D144EA050A19BF00210020191C101CBDE8FC8F44F00054764504D10020090DC7
:203BF0000905BDE8FC8F002904D55FF0000A6D426AEB0404B6EB090E08D5A2463C46574674
:203C1000AA464546D046CEF1000E4E46BEF1360F5CBF4FF0000B23E0BEF1000F04BF4FF086
:203C3000000B1AE0CEF1390ABAF120092EBF08FA09FB07FA0AFB4BEA080BDEF1200A07FA5E
:203C50000AFA38BFBA4647FA0EF72DBF28FA0EF8AEF1200E4AFA0EF8D04415EB08057C410A
:203C700054EA050A02BF00210020BDE8FC8F002C58BF4FF0000A06D55FF0010A5FF0000E97
:203C90006D426EEB0404A6F101066D006441FAD515F4806E11D005F480794BEA090B15F568
:203CB000806554F1000428BF761C0BD205F400795BEA090B08BF25F4006525F4E0656D0095
:203CD00044EB0404B61CDEBF00210020BDE8FC8F5FF4E06E1EF1FF0E76450AD34FF0000029
:203CF00013F00043FF21C900C91D09051943BDE8FC8F270547EA1530210B41EA065141EA8A
:203D1000CA71BDE8FC8F7047F0B5064600220C2104201346ADF14C0D05F010FC5C490022F5
:203D30001346086004200C2105F008FC4B490860684605F00DF94FF0FF300290019000240E
:203D50008DF816408DF8154001258DF814404FF4E1308DF817402422069041488DF8015034
:203D7000082303903F488DF800502146049009A805F0E0FB204609A98DF83C50024605F037
:203D9000D5FB394924220823086009A8214605F0D1FB204609A98DF83C50024605F0C6FBE8
:203DB0003C4924220823086009A8214605F0C2FB8DF83C50284609A9224605F0B7FB364A0B
:203DD0000146F0B21160694604F064F93349274D3C22082308602146284605F0A3FB04200C
:203DF000A8614FF400762E62224F2F61204BEB6110A005F00FF82048204923462A4605F05E
:203E10008DFB1F4D21463C220823284605F08AFB0320A8612E622F611A4BEB610AA004F02B
:203E3000F9FF1948194923462A4605F077FB13B0F0BDC04675617274207478207461736B66
:203E500020696E69740A00C075617274207278207461736B20696E69740A00C0A03000208D
:203E7000BD920000C992000040300020B02F00202025002040420F00BC2D00206561000034
:203E9000742F0020202300206C2D002051550000A430002044300020483000203C370020DA
:203EB0002DE9F843614C5A4D5A4EDFF870815E4F94F8E4100846401E0B2864D8DFE800F0DE
:203ED0007B2C43062343062343067664042907D001220A2945F8212C14BF0220032004E050
:203EF000202045F8210C0120024684F8E200002045F8390C0827C5F8FF7FC5F8F37F45F8C9
:203F1000392CBDE8F883052914BF09200620002784F8E400376075E094F8E170383D0120D6
:203F3000002FC5F81B0004BF0620002102D00021F160032084F8E400032045F8010C31609B
:203F5000306880085ED294F8E4103348012703290ED00068456800216022052300914046DD
:203F7000A84794F8E400062814BF0A200720CFE700684568002160220523022000904046B2
:203F9000A8470420C4E7FEE72548264F0026012506600E203D6001F0CFFC022004F032FB10
:203FB00084F8E45084F8E360BDE8F883002038600C25786024E04FF08059D9F8A0010168AA
:203FD000202088472C3D0F2045F8010C41F61D56C5F80360D9F8A401466800214FF4C0725C
:203FF0000723022540460095B047D9F8A401C66800214FF4C07207234046B04701203860B4
:2040100084F8E45004F1780005F0B7F9BDE8F88339400C4038600C40A401001000A00C4064
:204030002C500C4004800C4034600C40BC3100202DE9F84F804692460868DAF800500678E0
:2040500000271C46BB46421C242E0A6026D110F8016F521C532E0A6020D1ED1C25F00305CD
:204070002D1D55F8040CE061CAF80050208B0090A168E269D8F800005346FEF7B5FA8346D1
:20409000D8F8000010B15844C8F80000DAF800502068E7600127A0EB0B002060662E05D08B
:2040B000002F64D1E16901200E705FE0208B40B9ED1D25F007050835A5F1080090E800033F
:2040D00009E0ED1C25F003052D1D55F8040C04F0C1F9894680462AA20CCA4946404602F02E
:2040F00043FC28BF002705D2206989F000490127401E206124A20CCA4946404602F077FC24
:2041100031D3404603F08CFD064604F075FB0B46024649464046FFF71BFD1DA20CCA00F098
:2041300057FF03F04DFE0146606904220A2302F0C7FD401EE0612E21017063692269E069C3
:2041500031461B1AE360D21A0A2302F0B9FD002F08BFE06104D0401EE0612D210170E069ED
:204170006169081A02E004A0E0610720E060CAF800505846BDE8F88F286572726F722900BE
:2041900000000000000000000000C0FFFFFFDF41000000000088C3402DE9FF410446666839
:2041B000A7680D4605F0EFF83178012903D105F0D9F9002091E00121317005F0D3F928788E
:2041D00070706878B07068687060A868B060E868F06028693061287D3075687D7075A87D34
:2041F000B075A869B061287F3077687F7077A87FB0774FF00008C6F82080C6F83080454660
:2042100075627563B562B56386F82C50102386F83C3086F82D5086F83D50786801F0A6FC20
:20423000204601F0E7FB204602F07EF870B92C480068C16838688847786801F07DFB05F08C
:20425000A2F8357005F08EF92C4645E0684604F085FF0094387B234A0190B9686B4606F1C8
:20427000800003F077FF684604F0A0FF00941E4938696A46029006F19C0003F0E5FFB07894
:2042900030B906F1D000294604F03CFB17483061707830B906F1EC00294604F033FB144833
:2042B000F060684605F052F801958DF800501149029406F584700A226B4603F069FCB96910
:2042D000FA6906F1400004F025FF0B4A06F16C000421234604F082FB20460090BDE8FF814A
:2042F000D0010010C14C0000BD8300005593000045930000ED680000FD910000B0B54568CB
:2043100084684F48297BADF1180D012916D0217E627E4C4B2F7E0143009143EA0201019139
:20433000494937F0010718BF081CA27E1043029095F88D000322FF2811D00DE0677E217EF4
:204350003843A37E019041F00041009143F000403E49029095F88D00014304220391FE205B
:204370004DF82200694605F1900001F091FFC5F89C00002808BF00205FD0287B344951F810
:20439000200001282BD02068B0F1804F14BF22220A22217ED5F89C0004F09EFA2068B0F1D1
:2043B000804F14BF21220922617ED5F89C0004F093FA2068B0F1804F14BF24220C22A17EB6
:2043D000D5F89C0004F088FA95F88D10FF2933D02068B0F1804F14BF23220B2228E02068CC
:2043F000B0F1804F14BF21220922217ED5F89C0004F072FA2068B0F1804F14BF22220A2259
:20441000617ED5F89C0004F067FA2068B0F1804F14BF24220C22A17ED5F89C0004F05CFADE
:204430002068B0F1804F14BF23220B2295F88D10D5F89C0004F050FA012006B0B0BDC04614
:20445000000480A0004000800004C0A000200080540200002DE9F04704466568A6680F4647
:20447000ADF1200D04F08FFF95F8DC10012903D105F078F8002085E04FF0010A85F8DCA03B
:2044900005F070F83878287078686860387AE860706801F06BFB204603F008FBF86867680B
:2044B00028B9A06890F8149090F8158003E090F8009090F80180B9F1FF0F15D0B8F1FF0F62
:2044D00012D0324840EA09010491FE23069340EA080004A9059007F1980001F0D9FEC7F862
:2044F000A400D7F8A40070B9294800240460294F3C60706801F020FA04F045FF85F8DC40AB
:2045100005F030F83DE049460D2204F0E5F9D7F8A40041460E2204F0DFF9684604F01EFE0D
:20453000307B00946B46B1681B4A019005F1100003F010FE684604F039FE306900946A46AF
:204550001649029005F12C0003F07EFE05F16000514604F0D7F9287830B905F17C000021FC
:2045700004F0D0F90E48686000202872C5F8BC000C4AC5F8C0000421234605F1C80004F00A
:204590002DFA204608B0BDE8F087C046002000840428004010040542D54D0000B7770000E9
:2045B00035930000ED910000474848492DE9F041ADF1280D01F06CFE4C49086010B924A086
:2045D00004F0A8FF00276846242208238DF81870394604F0AFFF69463846024604F0A6FFAE
:2045F0003B4C69463A466060104604F09FFF012160600A461FA004F00DFC364C3C22082354
:204610003946204604F08EFF4FF4007601250220DFF8C8803049A0613B4626622246256193
:204630002F48E161414604F079FF2E483B4626624146A5612246E0612B48256104F06EFFAF
:204650002B48017817A004F0E5FB0AB0BDE8F0814572726F7220696E697469616C697A69A3
:204670006E6720626F617264204C45442070696E730A00C04C45445320636F6E737472753E
:20469000637465642073656D6170686F72657320666F72206C6564732025642C2025640A5C
:2046B00000C046C04C45445320696E697469616C20626C696E6B20636F756E746572203D45
:2046D0002025640A00C046C050300020C036002068300020FC2E0020201F0020B96600001B
:2046F0005C2E0020201D00200C2E00208C300020453700202DE9FC4191EA03084CBF4FF0AE
:2047100000484FF000084FEA03354FEA153556006D414FEA43075FEA575711BF45F400156A
:2047300000210020BDE8FC814FF4E06E1EF1FF0E77456FD04FEA01334FEA133342005B4194
:204750004FEA4104640D11BF43F4001300210020BDE8FC8174455DD0E41B002100205FF068
:20477000360EAB4200D1B24205D340414941921B63EB050301E040414941BEF1010E05D0CE
:2047900053EA020702D052005B41EAE7BEF1200F09D2BEF1160F0CD3CEF1200720FA07F1CE
:2047B00000FA0EF00FE0AEF1200E00FA0EF1002009E001FA0EF1CEF1200720FA07F741EA10
:2047D000070100FA0EF011F4001F02D140004941641E401C51F1000111F4800F1ABF641CFA
:2047F00021F4800121F400114FF44077FF37E419DEBF00210020BDE8FC8107F58067BC42DF
:2048100008D249084FEA300041EA045141EA0801BDE8FC810020FF214FEAC101C91D4FEAC4
:20483000015141EA0801BDE8FC81FEE72DE9F041424C464D8046C8F38140401E02D0401EA3
:204850002AD025E0284620300168880C20D24FF4804020603A48D0F802204B0AC1F303376A
:2048700003F0800322F08F02134347EA0302C0F80220D0F801300E1266F30303C0F8013048
:20489000026801F0E70722F0E70247EA020102E04FF00041204601602F4E301D0068C0F382
:2048B000C0070FB94020A0624FF40070206404F065FC40F0300084F8C800C8F3815040B348
:2048D000401E03D0401E1FD002211EE0012003F0D7FF07460420394602F064FD042003F0E5
:2048F000CFFF8742FAD1361F366826F07F4003F023FF14480068036807214FF06022300E13
:2049100098474FF4806020600321042002F04AFD06E00420012102F045FD0B4803F00CFFD3
:20493000284600680A4947F6180700F03F0084F8CB0F084E0F803068BDE8F08140A00C409E
:204950000A600840B4010010BD3786006C13005070B00C402C200940AC3F00502DE9F04302
:2049700004466568A7680E46ADF1140D04F00BFD95F8D910012903D104F0F4FD002072E027
:204990004FF0010985F8D99004F0ECFD4FF00008C5F888803069286170696861307E2876DF
:2049B000307B287330782870706885F8A480686070694146092828BF494685F88C10387B4D
:2049D00001F0D4F8204602F047FFF87E85F88D002046FFF793FC50B9387B00F0ADFF04F0B5
:2049F000D2FC85F8D98004F0BDFD44463AE0684604F0B4FB009478791C4A019039796B4681
:204A100005F11C0003F0A6FB684604F0CFFB00941749B8686A46029005F1380003F014FCED
:204A3000287830B905F16C00414603F06BFF114800E0B068A86002F0D1FDC5F8A000287B7E
:204A5000012808D1D5F89C000B4904F00BFCD5F89C0000B18460094A05F1C40004212346F3
:204A700003F0BCFF204605B0BDE8F083315E0000717900003D930000057D0000A592000043
:204A90002DE9FC4705466E68D5F80880B76B002F18BF4FF0FF307BD131630024F477171CFF
:204AB00074631BD006F1400904F06DFC82466946484603F06EFB00281ED4504604F052FD33
:204AD0009DF80000316B0870306B736B7F1E00F10100306303F101007063E5D17078726B3F
:204AF000316B0128A1EB0201316303D1F36828469847726B14464AE0B763504604F032FD0E
:204B100004F041FC234D0746287820B9022003F02BFE01202870384604F024FD1E490868BD
:204B300040F400700860D8F80010886B40F4FA608863707808BB716806F1EC07384604F02D
:204B5000F2FAB8B1B4633846214604F0ECFA88B104F019FC0746287818B1022003F052FDBE
:204B70002C70384604F0FEFC1027716B306BF777401A3063706BBDE8FC8796F82D0030B175
:204B9000706B20B1B46306F19C0004F012FC2046BDE8FC874D300020301000402DE9FF47A6
:204BB000424C94F8E70000286ED10127384D84F8E770E87C84F8E6006E68C4F81061684686
:204BD00004F0C4FB002604F10C0001966B468DF8006030490296324602F0DAFF2E4904F1FE
:204BF00030006B46324602F0D3FF2C4904F154006B468146324602F0CBFFA96838468847C0
:204C1000DFF8A48026482A7D08F104030078254D1868C0F3815A22B1BAF1030F04D184F89B
:204C3000E170BAF1030F15D0BAF1020F12D0BAF1010F0CD0022003F097FD042003F020FE5E
:204C5000012804D028683221B1FBF0F10DE003F019FB12E0022003F087FDBAF1030F0CBFD0
:204C70004FF47A7142F210712868B1FBF0F1484604F081FB484604F080FB40460068C00873
:204C900002D2304603F070FD00200090BDE8FF87B4030000F7250000216000008570000036
:204CB0004F30002090300020B03F0050BC3100202DE9F8438146D9F808703868066CD9F8D5
:204CD000045046646A6CAB6CA86B16F4F06F0146A2EB03082ED1F00919D2700961D389B1B4
:204CF00095F83C40641EA14298BF0C1C4846214603F094FBA86B001BA86352D105F19C0052
:204D100004F057FB4846414603F046FD49E00029F8D0484603F082FB95F82D10A86311B93B
:204D300000283ED101E00020A86305F19C0004F040FB36E0F20A19D24FF00008444602E0AF
:204D5000A86B401EA86340B34846012103F066FB3868446814F00F04C0F80480F0D0286BDE
:204D7000401E2863686B401E686316E0386844680022202904F00F044260CCBF20270F1CEB
:204D90004846394603F04AFBC7F12007B845C8BFB8464846414603F0FFFCEC77484602F077
:204DB00001F9B0090BD3A96A49B10F46484603F089FBA86218B94846391D02F04FFEBDE848
:204DD000F8837047B0B53F494468096880684968006888473E4D012205F118031A6050B17D
:204DF000217AFF2907D0FF214009217264D2042043F8180C45E0207A00285DD0324B334947
:204E1000401E1AD0401E02D0FD3855D051E01D68D4F8B4000570D4F8B870D4F8B400401C35
:204E3000C4F8B400781EC4F8B800D4F8B87027B3012F3BD9092202201BE0D4F8B000401EB4
:204E5000C4F8B000D4F8B070EFB9D4F8B870A7B10220D4F8A8202072127C2D1F012F4FEA6B
:204E7000420242F001022A609CBF0321696001D90B220A6004F070FAB0BD002020720422C3
:204E90000A600220F6E7D4F8AC0000781860D4F8AC00022F00F10100C4F8AC00F0D2D4F8A0
:204EB000B870002FECD100202072052243F8042CE7E7FF202072B0BD04F12C0004F079FA16
:204ED000B0BDC046AC0100100828004004280040042800402DE9F04707467D68D7F8089064
:204EF00090460E4604F04FFA8246A86A002864D105F5847004F043FA0024EC772E62504638
:204F10006C6204F02FFB04F03EFA2F4E3378824623B9022003F028FC01203070504604F019
:204F300021FB2A49086840F4807008603846414603F0C8FAA862C0B93846414602F08EFD17
:204F5000A878D0B9A96805F1D00004F0ECF8E8B1AC621020E8774946284601F0C8FD04F00C
:204F700012FA8246307840B323E0D9F80010886B40F020008863A87810B12046BDE8F0873D
:204F9000A96805F1D00004F0CEF810B9686ABDE8F0873846414602F061FD1020AC62494697
:204FB000E877284601F0A3FD04F0EDF98246307818B1022003F026FB3470504604F0D2FA40
:204FD0004FF0FF30BDE8F0874E300020301000402DE9FC4191EA03084CBF4FF000484FF06F
:204FF00000084FEAC32545EA52554FEAC2264FEA43077F0D11BF45F0004500210020BDE842
:20501000FC815FF4E06E1EF1FF0E774555D04FEAC12343EA50534FEAC0224FEA4104640D6E
:2050300011BF43F0004300210020BDE8FC81744543D0E419A3FB0501A3FB06E7A2FB0663B9
:205050001EEB030E57F1000751F10001A2FB05631EEB060E57F1000751F10001FF1851F187
:205070000001C01951F100014CBF4FF4806E4FF4007E10EB0E0051F1000148BF641C01D45E
:20509000400049415FF44077FF37E41BDEBF00210020BDE8FC8117F58067BC420DD24FEAEE
:2050B000D02040EA41504FEA41014FEA113141EA045141EA0801BDE8FC810020FF21C90060
:2050D000C91D090551EA0801BDE8FC817CB50546084601F0CBFE364E02461821304603F074
:2050F000B9FB03F029FE3449103909684C6840F2FF32002380B22C2100903046A04704F001
:2051100045F81C210246304603F0A4FB03F006FE02461421304603F09DFB03F0C5FE024642
:205130001021304603F096FB284601F06BFE02460C21304603F08EFB284603F09DFE1D4CA0
:20515000400040F020002070284603F0A1FE40F010002070284603F035FD024628213046B5
:2051700003F078FB284603F0ABFE400040F06000E070284603F0B0FEC00040F0800004F814
:20519000080C284603F0B4FE800040F47C40A4F89300284603F08AFB02460821304603F079
:2051B00059FB4FF48000A4F2091108607CBDC04600A00C4049A10C40B40100102DE9F84339
:2051D00006467468B56804F0DEF8D4F8881000295FD00F4604F0C6F92968486820F0020099
:2051F00048602968486A20F0030048626869D4F8A0302969084359680968C1F80405296828
:20521000486920F00100486128684FF00108C0F82080304603F0F6FB7E6804F0B4F881463C
:2052300094F8D80078B116F0704F06D12EB1062003F0E8F9042003F0E5F9022003F0E2F977
:20525000002084F8D800484604F08CF9387C012804BF022038742969D4F8A03068694646CA
:20527000084306FA00F158680068C1622868B0F1804F14BF09480A483E6880688104A6EB7D
:205290009150401E386004F1380004F092F8BDE8F88304F067F9BDE8F883C04600050020BD
:2052B00030040020F8B503F0CBFF01F047FE03F0DFFF054605F00C000C2853D0E80826D28E
:2052D00003F04CFB2A4E376804460120014603F008FD31686143884219D22649F020B0FBA7
:2052F000F7F0241A887C18B1C868A04238BF041C214D2146284604F009F9284604F002F9ED
:205310000120FEF759F8284603F0BCFC2CE0280928D21A4803F072FF0428FAD0184A690936
:2053300005D220B11168104621F0010103E01046016841F001010160983210684FF0805547
:2053500040F003001060D5F8B8018169202088470C4CD5F8B8712068B86B804701202060BA
:20537000206801E004F001F803F070FFF8BDC04684040000B4030000C831002000400340CF
:205390008C2108402C2009402DE9F0470D4606465FFA85FA280824BF2E4845402E494FEAF1
:2053B0008A03C85885EA00023240C2F300672B4A06EA0504B043224006F4E0240243B4F582
:2053D000E02F01D1500E14D306F4E020074310D002F4E027B7F5A02707D0B7F5803704BF06
:2053F00022F4003242F4A02203E022F4803242F4C022DFF86C80CA5008F1D0073968012229
:20541000002002FA0AF40C4218BF101C5FEA000906D1F00D04D34146C5F3805001F80A0002
:20543000300E0BD303F0AFFF290E34BF0021211C3A68A2431143396004F094F8B9F1000F6A
:2054500006D0F00D04D34046C5F3805100F80A10BDE8F087006000A000100840007F077FF8
:20547000002002402DE9F843DFF8C4900446D9F800001F4616460D468047DFF8B8802068B1
:20549000B0F1FF3F02D0042E03D017B9464630682EE0636873B16069010903D3581E03F043
:2054B0009FFC606900216160A160E16020F00800216100E0606906B9012620F00700012FE4
:2054D00046EA0006666108BF0025B7F5807F88BF4FF48077B5B97F1C384603F0A4F9464604
:2054F000054630684DB96169656041F48061616180474FF0FF30BDE8F883616941F00801F3
:20551000616101E0464630686D1C65602561E919A560491EE1608047D9F800008047074982
:20553000054A3068116080470020BDE8F883C046B0360020B436002098360020A938000017
:205550002DE9FE4F314C20680DF10501012202F0D5FE9DF80500C028F5D12D4EDFF8B48019
:20557000DFF8B4A04FF0DB094FF0C00B08E0DAF80000ADF8027069464FF0FF3203F0E6FFFB
:20559000D8F8000069464FF0FF3203F0E7FF00273D4631E020680DF10501012202F0AEFE2B
:2055B0009DF80530BDF80010C03B20D01B3B16D1206801A9012202F0A1FE9DF80400BDF8F0
:2055D0000010DD2805D107EB01207F1C06F80090BFB29DF80400DC280AD1584601E09DF897
:2055F000050007EB01217F1C7054BFB200E00125B7F5807F08BFFF27002DCBD0002F18BF46
:20561000FF2FB4D1D8F80000B5E7C0463C3700202005002094300020A0300020F8B51446A2
:2056300002460F46C1F30A5028A590B921F0004352EA030020D0104622A20CCAFFF7C8FC6C
:20565000284B02460F46C1F30A50A342A0F136001DDC40F2FF76864204D110460B46FEF797
:205670007CFAF8BD0019761E864216DB002805DD6FF31E5141EA00511046F8BD10F1360FE1
:2056900007DD36306FF31E5114A541EA0051104612E04CF25030A04209DA134922200DA68E
:2056B000086096E803003B4603F048FEF8BD95E803003B4603F042FE95E80C00FFF788FC4B
:2056D000F8BDC046000000000000504359F3F8C21F6EA501000000000000F07F00000000C4
:2056F0000000903CB03CFFFF2037002038B504462568B5F1FF3F12D063690020990909D379
:20571000616839B1A268914204D0521A284603F0B5F96369002805D543F4806363614FF0AF
:20573000FF3038BD60682061A060D80924BF23F030036361002038BD2DE9F0470746194C0A
:20575000DFF86C8020680FBB8047174A10680025002820DD1549A1462E469246A1F11804FB
:2057700054F8181FB1F1FF3F0CD0D9F8000080472046FFF7BBFF0746D8F800008047DAF876
:2057900000003D43761C8642EADB04E080473846FFF7ACFF05464046006880472846BDE87D
:2057B000F087C046B036002088360020D0320020B4360020274A2DE9F0418046012526483A
:2057D00015600768002FFCD0244CC02025492060081F03689B0806D250F8040C204B000CC0
:2057F00040F0F0001870002010630E68304600F06BFB40463146FFF769FC1B49886D40F239
:205810001E226FF31F40824215D90868020E12F00F0F02F00F01C0F3034018BF491E0728C0
:2058300005D006280EBF0720801C00F00F0041EA00110E4801703046FEF7F8FF0C480068A5
:20585000C16802208847402020600A4F3D60BDE8F081C046101009409402224300600C401C
:2058700056620840B43F0050BC12005002600840A0010010940460422DE9F8430D46064632
:2058900068687468B7684FF0000810B9E86800284FD02078012814D103F075FDD4F8BC10E3
:2058B00049B1D4F8C0108D61C4F8C05003F05AFE0120BDE8F883C4F8BC50C4F8C05003F075
:2058D00051FE022002F050FF04F160004FF0FF31814603F028FCB86803F057FD3046294618
:2058F00000F02AFF0546B86803F051FD207888B9B5F1FF3F08D004F17C004FF0FF3103F06B
:2059100012FC207A48B111E003202072022002F079FE0BE0B5F1FF3F02D04FF0010805E0D7
:205930000320207204F12C0003F043FD484603F036FD4046BDE8F8832DE9B043044603F0AE
:2059500022FD81462748021992F8EF10491ECFB2002F82F8EF703FD1254901EB84014A888D
:205970000C78904634F07F0718D1E1090FD24FF0805000F5DC75D0F8B8018169104688477A
:205990002868416B404688470228F9D11EE000EB8800D0F804110020884717E04FF080552A
:2059B000D5F8B801016A10468847D5F8B801816A40468847D5F8B801016B404688470A4961
:2059D00001200860094908688008FCD304F03F003F2801D0FFF7B0FF484603F0C3FD0020A4
:2059F000BDE8B083BC31002028200860282008403E010000F0B52B4D05F12C0158C9ADF134
:205A10001C0D02AA58C20AC94FF0805682E80A0047688468D6F8D001C168206888472168E8
:205A300021488A6B10408863206840F2F271416497F83C0097F83D10C0100DEB8000806824
:205A5000084321684863684603F093FCD6F8D001397F466805EB8101BA698B68797F20687A
:205A700055F821101943BB7F05EB8305AB690B430199B0470D490A1F106840F010001060F0
:205A9000086840F001000860A07D0027FF2802D0E07DFF2800D11FB1086840F440400860FF
:205AB00007B0F0BDD40100000DF8FFFF301000402DE9FC47294C8A46216800908847284923
:205AD000284D086848B901232846072700220B6018307F1E40F8082BFBD12846214600F1A1
:205AF000180400E00834DFF8809000F15002A24206D14C46206880474FF0FF30BDE8FC8702
:205B10002268002AEED108688047684601F0B5F806467089641BE2109046400806D2F0687B
:205B30000346009851469847074601E04FF0FF374C462068002F48BFB84609D405EBC80573
:205B50002E6071896F608A083CBF41F0010171818047206880474046BDE8FC87B036002062
:205B70002837002098340020B4360020F8B5064603F009FC264D0746A91991F8EF00421C57
:205B9000002881F8EF203ED1224C04EB8604267806F03F003F2801D0FFF7E8FF648836F055
:205BB0007F0018D1F0090FD24FF0805000F5DC75D0F8B8014169204688472868416B20463C
:205BD00088470128F9D11EE005EB8405D5F804110120884717E04FF08055D5F8B801C169EF
:205BF00020468847D5F8B801416A20468847D5F8B801C16A204688470749012008600749EB
:205C100008688008FCD3384603F0ACFC0020F8BDBC3100203E010000282008602820084033
:205C300008B5FEF7BBFF2848FDF7B4FE10B10EA003F070FC02F00EFAFEF7B6FC10A003F0C0
:205C5000E9F802F0CFFB1AA003F0E4F80020FEF75BF802F0BFF900F089F902F017F903F095
:205C70004DFC002008BDC0464572726F7220776974682050494E5F696E69740A00C046C010
:205C90002A2A2A4255494C442054494D4520444154452030393A32313A3032204A616E205E
:205CB00020342032303138202A2A2A0A00C046C0676F696E6720746F20726164696F20734E
:205CD000657475700A00C0466803000098B504462068B0F1FF3F05D06269500904D342F477
:205CF00080626261002098BD100A05D320460021022201F025FB626990094FF0000104D252
:205D1000D00924BF42F02002626167684FB9D00807D202F0070220464FF48073FFF7A2FBEE
:205D30000146E2680020226101B9012098BD80B50168B1F1FF3F05D04269910904D342F44A
:205D500080624261002080BD53094FF0000104D2D30924BF42F010024261476847B9D308AF
:205D700006D202F007024FF48073FFF77BFB0146002001B9012080BD264838B560300468C8
:205D9000B4F1FF3F08BF002403F065F92248234B002501211038056003F15C0001601448FB
:205DB000016001F033FE1348006820B1124800682046FFF7FFFC114811490560114C0A68BC
:205DD0006FF35B4244EA020008600F490868C0F30130012806D10A680C48104040F40032F4
:205DF0000A6008600A4908680028FCD138BDC0460822044380012843000120438C21084058
:205E1000482003400000390104000940FFFFFCFC0C006842BC1200509404604200600C4090
:205E3000B0B501468B681C68E26948682262520827D2D0F8A01049680A685D69D2F8041519
:205E5000294206D01C68616A21F002016162C2F80455D2F804151C69214233D01B68596AA4
:205E700021F001015962C2F80445D0F8887027B1397C012904BF00213974383003F099FA4B
:205E9000B0BD1C68626922F001026261D0F88870AFB9626822F0020262601C68626A22F032
:205EB00003026262D0F8A0005A6940681C6900682243C0F80425084602F0A4FDB0BD084667
:205ED000FFF77CF9B0BD704770B5234C234D0646B00E11D2700E0FD3802020744FF6D80180
:205EF000A4F85110207000F03FFED0352868C0F30420162806DB04E02868C0F30460162884
:205F100000DB203800EB2670401C162805DA10F10A0FB8BF6FF0090000E01520104D00F0E9
:205F30001F0040F4F850A4F859002868800803D20C490020086001E046F040660A49F00EE9
:205F5000B50E80F0010000F00100086085F0010000F00100886070BD15620840B81200504F
:205F70000000094094042A430000204310B5ADF1300D08A803F0FAF8002408A920468DF86B
:205F9000204001F0C7FF2149086010B911A002F041FF1B481B4900F07BF9184908606846BA
:205FB00003F090F88DF80C4049F640408DF800400323049008228DF81830694605922046A4
:205FD00002F028F81049086010B907A002F022FF0CB010BD49324320646964206E6F742032
:205FF0006F70656E00C046C053504920646964206E6F74206F70656E00C046C0343500204A
:206010005C300020B83600209C300020983000202DE9F04103F0B7F9254D214E804605F15B
:20603000E000007848B93446A168022088470746102001F0A3FE6FB31AE003F019F9C0098A
:206050001AD218480068C4681748342101220023A04788B101F0DEF834460020A16885F84F
:20607000E000022088470746102001F087FE8FB1A168032088470DE00C4800683221B1FB69
:20609000F0F101B901213035284603F074F9284603F073F9404603F065FABDE8F081C0463F
:2060B000B4030000A401001000A00C4090300020BC310020F0B520480127F84201D001F05A
:2060D00041FD204D204F214EBD4206D203CD0478A4003459401CA047F6E71D48002800D056
:2060F0008047164D164FBD4202D210CDA047FAE7F0BD03251BE0416808300A1C2A400BD16C
:206110001A1C2A40AB4305D0046804300C600431043BF9D1131C05D0047801300C70013163
:20613000013BF9D1021C2A4001D0A84304300368002BE0D17047C046FFFFFFFF00000000D1
:20615000000000000007000080070000A006000055C501102DE9FC471E4E1F4F1F4DDFF85A
:2061700080A0DFF88090DFF88880D9F8000069464FF0FF3203F0F2F928685146012202F01F
:20619000DBF8002415E0BDF8001004EB01217B5CB3F1C002337006D01B3A1CBF311C0122D7
:2061B00003D1114900E01149022202F0C5F8641CA4B2BDF802102868A142E4DC514601220A
:2061D00002F0BAF8D8F8000069464FF0FF3203F0BDF9CAE74C300020200500203C3700204E
:2061F0003D010000A43000202A0400008A01000094300020002A4AD05FEA000C8B071CD1A8
:20621000830722D1102A08D370B4103A78C978C0103AFBD270BC103238D0042A2CD3082A09
:2062300005D30C2A24BF08C908C008C908C008C908C092072AD0920F22E00B780370491C01
:20625000401C521E22D08B07F7D1C30714D18307D8D0121F12D308C903801B0C4380001DC4
:20627000121FF8D20AE008C903701B0A43701B0A83701B0AC370001D121FF4D2121D05D085
:206290000B780370491C401C521EF9D1604670472DE9F843234D884606464FF0FF3105F160
:2062B0002800814602F03FFF00200CE0FF2909D02A688A4204D305EB8101D1F898700FB16A
:2062D000002627E0401CB8F1000F03D018F82010FE29EBD10024346074600127B46011E0BE
:2062F000FF280ED005EB80000B787268C0F8986007FA03F0104370600A680949304602F0C9
:206310004DF9641CB8F1000F04D008EB84010878FE28E5D1484603F042F83046BDE8F883F6
:20633000007FC767A8300020B0B5456884682349607DA27DADF1180D40F000400090207DE2
:206350000027FF2A41EA000001904FF0020002D0E27DFF2A00D13FB1E37DA07D1943039158
:2063700040F0004002900420FE214DF8201005F158006946FFF78CFF6866002808BF381CC4
:206390001AD0617D0F2202F0A7FA686E217D102202F0A2FAA17D3846FF2902D0E27DFF2A0F
:2063B00000D140B1686E112202F096FA686EE17D122202F091FA012006B0B0BD0000C0A0F7
:2063D000F8B5044625686769B5F1FF3F07F4805702D0FFF78BF910B14FF0FF30F8BD6069AA
:2063F000000907D36068401E02F0FAFC606920F00800606100206060A060E060206801F061
:206410001BF906464FF0FF30206057B10F48006880470F4800EB051002F08AFA0D48006806
:2064300080473046F8BD38B5084C054620688047206880472846FFF7C3FF064C05462068E5
:20645000804720688047284638BDC046B0360020CC2C0020B4360020F8B5054621480068BC
:206470000C4680472046FFF731FC1F4E002830D0606900F00700042819D0A068E1688142EC
:2064900004D82046FFF732F9F8B9A068411CA160EFB207706069800805D30A2D03D12046C0
:2064B000FFF724F988B9306880473846F8BD20688DF800506946012202F0E0FAB0F1FF3F0C
:2064D00003D030688047E8B2F8BD616941F480616161306880474FF0FF30F8BD0349FFF7C5
:2064F000BBBFC046B0360020B4360020E83200202DE9F8432020EFF3118780F31188214C3E
:20651000A068012102F0F6FF4FF001094FF0000865692168A4F81C906A1A2168A4F81E80E4
:20653000461B401A904227D387F3118840462D18361A4846294602F0D9FFB042F7D92021CC
:20655000EFF3118781F31188E18B012903D14046294602F0CBFFB0F1FF3F06D0A169801B2F
:20657000814238BF081C291801E0A069411902F0B9FFA4F820902560A4F81C8087F31188E2
:20659000BDE8F883780100202DE9F04107467E68D6F8BC00C8B302F0F6FE1D4D0024804679
:2065B000042305F10C00046002202B6002F0D4FE7368D6F8A810384622469847022002F093
:2065D00021F80BE08069C6F8BC007368D6F8BC10224638469847022002F014F8D6F8BC0060
:2065F000D6F8C0108142EDD134722046C6F8A800C6F8BC00C6F8C000064B2C6038461C602B
:2066100001F054FA404602F0ADFFBDE8F081C0460428004010040542F8B50F4601468E68E5
:206630004D683846203829D0401E33D0401E2ED1287B1478012814BF19491A49FF2C41EAC2
:20665000040119D0D5F89C0000F016FEC8B93068B0F1804F14BF23220B22D5F89C00214631
:2066700002F03AF9D5F89C0095F88D1001F0C8F885F88D400020F8BDFF24F3E7287B0128B9
:2066900002D04FF0FF30F8BD0121002004E06FF00100F8BD0021084685F8A410F8BDC0465F
:2066B0000004C0A0002000802DE9F0415FFA80F84046401E012828D81B481C4A006846F238
:2066D000A8134146B3FBF0F6B2FBF0F510A02B46324602F09FFB174C154F04EB8804206853
:2066F0004FF0FF3102F0FAFE38680021012201F041FE304602F02EFF386800210A4601F086
:2067100039FE284602F026FFE9E7BDE8F081C0464C454453202564206F6E202564206F6655
:20673000662025640A00C04684040000E09304008C3000206830002098B54368C3F8A8102C
:206750000868C3F8AC004868C3F8B0008868D3F8B070C3F8B400C8681949C3F8B800174889
:206770008FB9D3F8A820127C520042F001020260022018720A68D20916D2D3F8B820022A07
:2067900016D30B2215E0D3F8A820127C012752000260D3F8AC201F72541CC3F8AC40127818
:2067B00082600868C00902D34FF0FF3098BD022003220A6002F0D0FD002098BD00280040C9
:2067D0000428004070B506467468B568606E02F079FA29681C488A6B10408863304600F015
:2067F00037F8304600F0DEFB2968C86A20F01000C862296815480A6B104008636868FFF72A
:206810009BF804F1800002F0BCFD04F19C0002F0C8FDA07818B904F1D00002F0BEFD60783A
:2068300018B904F1EC0002F0B8FD04F5847002F09EFD02F0A8FD0021217002F093FE04F1B4
:206850006C0002F0EFF970BD0DF8FFFFFEFCFFFF2DE9F04106467568B46802F094FDA96A98
:2068700039B921688969090903D202F07BFEBDE8F0810027AF6202F075FEA17D3846FF29D2
:2068900002D0E17DFF2900D118B12846214600F02EF92168886B20F0200088630D490868AD
:2068B00020F48070086002F06EFD0B4C8046207818B1022001F0A6FE2770404602F052FE6B
:2068D000686A296A091A29622B696A6A30469847BDE8F081301000404E3000202DE9F0415D
:2068F00007461E49BE687C68306809688069C0F3C00008BB02F047FD194D8046287820B1CF
:20691000022001F07FFE00202870404602F02AFE3168144D886B20F020008863286820F4D3
:2069300080702860606A216A091A21622369626A38469847BDE8F0814FF4FA70B0FBF1F1CF
:20695000012998BF012104F58474204602F013FD204602F012FDBDE8F081C04690300020C8
:206970004E3000203010004010B5994201D1904233D050EA020404D141EA03046400002CCB
:206990002BD050EA410401D19C4226E04C006415641C07D15C006415641C03D1DC0FB4EBE7
:2069B000D1741AE0002B0CD4002916D4994214D190EA020401D490420FE0002A0DD1012467
:2069D0000BE0002909DC8B4207D190EA020401D4824202E0002800D10124EFF3008454BF77
:2069F00044F0005424F0005484F3008810BD10B58B4201D1824233D052EA000404D143EA5E
:206A100001046400002C2BD052EA430401D18C4226E05C006415641C07D14C006415641C3B
:206A300003D1CC0FB4EBD3741AE000290CD4002B16D48B4214D192EA000401D482420FE0DF
:206A500000280DD101240BE0002B09DC994207D192EA000401D4904202E0002A00D1012424
:206A7000EFF3008454BF44F0005424F0005484F3008810BD002213460A46194671B510F081
:206A9000030F0BD0002A82BF00F8011BB2F1010210F0030FF6D1002A08BF71BD11F0FF01DB
:206AB00041EA0121042A18D341EA0141082A0FD30E46102A08D30C460D46B2F10F0312F01A
:206AD0000F0272C0103BFCD812F0080F18BF42C012F0040F18BF40F8041B12F0020F18BF25
:206AF00020F8021B12F0010F18BF017071BD38B50C4621680546886B20F020008863686ED2
:206B1000217D012201F068F8686E217D012201F031FC686E217D002201F0DEFE686EA17D47
:206B3000002201F0D9FEA878012806D005F1D0004FF0FF3102F0F7FA03E0216888690009BE
:206B5000FCD2686E217D102201F0C6FEA17D0020FF2902D0E27DFF2A00D118B1686E112299
:206B700001F0BAFE38BDFEE7184870B50068C0F304601628A8BF2038154B0146187800F05A
:206B90001F001628A8BF203881421ED0114E124C0022012532600A1A022A05DC12F1020F3C
:206BB000B8BF6FF0010200E002221018226800F01F0242F4F852A3F8662081422560EAD181
:206BD0002068256020683560206870BD8813005006620840980020432C2009402DE9F8434A
:206BF0008146EFF31188202080F31188174D154C134F012605F11C000660A4F11400066022
:206C1000F86A016A14208847D9F81000810C14BF000C04202060386802682321002090475E
:206C30000948066054F8180C20F4C02040F4803044F8180C2E6088F31188BDE8F883C0461D
:206C50008401001018200940800224430000244370B50646307870B1184C502528342046E9
:206C7000314602F0A5F9002808BF201C04D0283D2834282DF3D2002070BDBFB50446206890
:206C90003A2102F0F3F9071C14D02168781A7D1A0828C8BF082568462A4601F04AFC002099
:206CB00005F80D006846FFF7D3FF00281CBF7F1C276000D101480090BFBDC046C0330020E0
:206CD0002DE9F8430024002B16460F468046254606D5002FC3F1000302D57F42761E2D25E3
:206CF00099463846494601F0F5F90CA0405CB7FBF9F7002F04F1010408F8010DF1D1A642EE
:206D100005DD3021301B401E08F8011DFBD10DB108F8015D4046BDE8F883C046303132330F
:206D30003435363738396162636465660000FEE798B5164C94F8E100002710B914480078E2
:206D500060B102F020FB94F8E310002906BF012184F8E310012702F005FC0FB1002098BDB7
:206D7000022001F001FD0E20FEF700FF094A106848B909494020C86008600127D761002042
:206D900084F8E20098BD012098BDC046BC310020C903000004800C402C500C4070B5446872
:206DB0008668D4F8A40001F08DFF154800250C30056040F80C5C114805607068FEF7BCFDE1
:206DD00004F1100002F0DDFA04F12C0002F0E9FA04F1600002F0E1FA207818B904F17C00E3
:206DF00002F0DBFA04F1C80001F01CFF02F0CBFA84F8DC5002F0B6FB70BDC0461004054263
:206E10000428004038B51849164D0446143909686868C1F30342C1F30353400812D22868AE
:206E3000050513EB257303D4102BA8BF0F2300E00023000412EB207203D4102AA8BF0F22B8
:206E500000E0002242EA031201F47F4001F0FF03222C40EA024243EA020024BF01F08041B8
:206E7000084338BDAC3F00508C1300500146184880B53C3800688A0CC0F38367C0F38F204B
:206E900022D241F3072100290BD54A420021400805D17F0806BF0127381C4FF6FF70521ED2
:206EB000F5D1002910DD4FF6FF72400040F00100824207D2780040F001070F2F92BF0120C2
:206ED0000F27101C491EF0D140EA074080BDC0468C130050B0B5184C0546241D2068000494
:206EF000070C25D001F066FD124991F90720824205DD10F1800FB8BF6FF07F00C871BD4257
:206F10002CBF01277F1B8D88BD4210D80A68D4F8D40F801A801C1F2888BF1F207F1B4008B2
:206F3000C7404FF6FF70EF19B84238BF071C8F80B0BDC0467C30002030100940164880B500
:206F500007683FB315498B6803EA5300C00E21D2134A106880081DD2486880081AD2106886
:206F7000096810F0050F4FEA114101F0F00101F5E0710AD1B9420DD2190F38BF40F00100C3
:206F9000D90E38BF40F0040003E0B94202D920F00500106080BDC04628500940AC3F005052
:206FB00000000940F8B50646B06801687568886B20F4FA6088631349086820F4007008601D
:206FD00002F0E1F9104C0746207820B1022001F019FB00202070384602F0C4FA02F0D3F900
