:20000000004D00207DA70000FDC90110FDC90110FDC90110FDC90110FDC90110FDC9011045
:1C002000FDC90110FDC90110FDC90110FDC90110FDC90110FDC901103BCA0110A4
:20003C00A36100007F1407134D00F1242E1F133FB00A3F0007FF00003040004001400340BF
:20005C0007400F404F40CF40CF41CF43CF47CF4FCF3FCF2FCF1FCF0F000000000F0008000B
:20007C0000003F00000040003F000000040068000E00DC00060043001A00050000000000E8
:20009C00020000003F00000000000400C00000000400C0000000070050C00091007070C033
:2000BC000091007082312100319110B10070018101B100A18231329110B1019111104181DB
:2000DC0041224F40F106007051C0019130181039833108D01831416F3100319110B18314A7
:2000FC0014165B680070251050C00091F4C3C0C02014036F3110410422C0823121003191D6
:20011C0010B163393110410482C082312100319110B163393110A2C082312100319110B1B1
:20013C00501015310514059200703F6452C0311031066131C102426412C1311021397106D0
:20015C005131E102426400708A65996588C0208250398039001E9F4041C001301814181A62
:20017C0089C0308260398039001EA94041C001301914191A3C64369110B1349110B154B0CB
:20019C00007154A064B0F0800022AF404012B09032B053825339533985643F6411C122C1A7
:2001BC00426470C1C26811C1C2C0426470C1C76850C000912772989215161416421053105A
:2001DC00F0C12182313131398139313151B070B272652772999270B262107310F0C331828C
:2001FC002131213981391B107265E2C08231608280318039020061B00071329110B151A0E1
:20021C0061B0277230C2F36800008012B09032B0007050C000912772999262107310F0C39A
:20023C00318221312139813951B070B27E652772989270B242105310F0C1218231313139C9
:20025C00813931311A107E6551A061B02772B0C018693F6401C122C1426401C1C2C04264F5
:20027C00151A3C64359110B153828564C012B09032B000703F6472C281C0426422C111C177
:20029C00426402C011C1426462C031C3426462C311C1426402C311C1426453825339856482
:2002BC00E2C347641122404142C281C8426452C211C1426472C2E1CE426402C281C8426463
:2002DC0002C201C84264B0C0546900703F6442C201C8426452C211C0426472C2E1C0426416
:2002FC0002C001C1426462C001C3426422C101C1426462C301C1426402C301C14264538252
:20031C008564007061B000711214231C7A4D339110B10070329110B17269007061B0007174
:20033C001318321C8649329110B10070339110B17E690070C2C047641510C2C012164764E2
:20035C0041311514C0C0803105145410A07804040070E6C0863101CC161467106182F0C347
:20037C00010417140070067305720B720E7250B00071818060B050A092804122C3458080E5
:20039C00F1C11004301601110114016CD661D761D861D961DA61DB61DC61DE61E061E26148
:2003BC00E461366339639180F2C0210421318280422A1214321601112114016CEE610B6221
:2003DC00F4613963EE610B62F4613963E661E661E661E661E661E6619464E661F964E661D6
:2003FC002A65E6615665E6614667E6611012B0900E720673057210123090A761F0CF3C67F7
:20041C00D4C103C0C0C3546440785091507810926078209270783092807840929078609232
:20043C003078909110824039F00601101031101400924267E661BCA0E2A054A0F08050222A
:20045C001546408000222B470D6240A02D828D318D391082F1C0100409101A824A391A04A2
:20047C001082803910040E10AB10BC10C21063642972E0CF3C6713B003B0C86653B050B02F
:20049C0054B064B013B0A5661082E0223846AE660071418001222B47F08010224B46F02228
:2004BC00184764B03122384263B0CE661082E02238467066386264B06F818F318F3DD0DFD8
:2004DC00FF923C670071418001222B4764B0F0805022654263B01182C1226046CE66056799
:2004FC001182D122524670665262618172818131813D8231823DC0EFF19202933C670B62AA
:20051C00B081C091D381978290A2D3187F4EF30B1316E31CA44AC391E3813B149062BA1C03
:20053C008B46231E8B4AE31C8B4E90B207228B4290A21B1A9662E31CA44AC391E3813B1851
:20055C00AB1CA04E9B1CA24ABC1CA442B2101082D0229D42F0801022A4466364A566A462E0
:20057C00AB1094629B10946200703082F1C0100463B00071A86ABC10E0B00070B281C2913E
:20059C00D281018212185181121841828131813D121CBF4AE2B032B0B0DFF2923C67F1C7F7
:2005BC002114C34E12C86291729131B0E1B0007008C006C000C86091709100700182B081BB
:2005DC00C091D0811018518110180614E18042828231823D201CE44AE2B02122E84632B03B
:2005FC000510A0DFF5923C672122E842E2A032B031824139F0C00104011EF642181610C019
:20061C001030081C04476010103C0610F1C76114FA4E16C8669171818131813D161C014B13
:20063C00769131B006C008C0007061818131813D408280390118F11C174B0114B080C0223C
:20065C001747BCB033B090EFF1920F933C67007003A063B064B0EFB05665007140800022A3
:20067C002B4764B02A65EFA00071408000222B4764B003B03862018262818231823D80EF4D
:20069C00F19202933C6703A05665E661A2806364E66150B00071E661E092D08200223D478C
:2006BC00C0B20070A080F022594330B002C1623101C0A080001E5243F0225343A0F56031D6
:2006DC00603953632010101A136F236E11161216546B0070AD040021490400217D040021E2
:2006FC0081040021110500219105002141060021F8B51047F8B50E4600210125AD0430476E
:20071C000A48037800F00FF89B070BD0124C2078FF2807D0FF2121700E490F2424022043C4
:20073C006031C882F8BDF8B5014800476B020021E54C0000094801E00848000C064C0549E3
:20075C002278FF2A01D1CA7A22706031C8827046801C004700620840A4060021070F080803
:20077C00F0B4084770B503461546012906D0002906D0114A2846FFF7BBFF70BD0F4800E0C5
:20079C000F480524834203D84008641E002CF9DCE340012040031818820B012907D00649BE
:2007BC00002380312846FFF7A5FFE0B270BD0249044B6C31F6E70000835C0000A0BC86238A
:2007DC0000830D2374060021F8B51A4E0546716B1948CC09E401002D11D01849097802293D
:2007FC000FD0007B044372B60120154F4002B847114820380088C109C90704D016E0C07A77
:20081C00F0E7407BEEE70F497463CC61400AC0070CD001208003316B002D01D0014300E0AA
:20083C008143084631630749403948630020B84762B6F8BD80020021880000219B0200218C
:20085C007B3F00004040044010B5224A0021516121498968C90009D42149204BCA0598427B
:20087C004B6B01D8134300E093434B631D49FFF777FF10BD38B51A4D287F002827D11A48F7
:20089C000088C009C00722D1124C606900281ED1684600F045F868460078012817D1684633
:2008BC004078102813D208206061686A4009400120600E4A0021D1620D4A022111600121C9
:2008DC0008432060032108436862206038BD0948804738BD0040044018000021000093081E
:2008FC0080020021CF680000680000210011044080E200E0C33B00000749002800D0042078
:20091C00064A72B60978C90701D0105800E0802062B640B2704700006B02002158600440EE
:20093C0003B40148019001BDA56F000000000000010003000A001F005900EB003902EA049E
:20095C00F9099712EB1FA132784A0A66FA828C9E63B617C964D6EDDEC1E3E0E5FF000000B5
:20097C00002020202020202020202828282828202020202020202020202020202020202053
:20099C002088101010101010101010101010101010444444444444444444441010101010AB
:2009BC00101041414141414101010101010101010101010101010101010101011010101021
:2009DC001010424242424242020202020202020202020202020202020202020210101010E7
:2009FC002000000000000000000000000000000000000000000000000000000000000000BB
:200A1C000000000000000000000000000000000000000000000000000000000000000000BA
:200A3C0000000000000000000000000000000000000000000000000000000000000000009A
:200A5C0000000000000000000000000000000000000000000000000000000000000000007A
:200A7C0000C08F0000008F0001008F0002008F000300900000018F00010190000002900014
:200A9C0000038F0001048F0000058F0008048F0000048A000006510000007F0001003F0041
:200ABC0004003F0002003F0001007F000200DBDC7B756E6B6E6F776E2D696E7374616E63B5
:200ADC00652D6E616D657D007B656D7074792D696E7374616E63652D6E616D657D00C046CD
:200AFC007B7374617469632D696E7374616E63652D6E616D657D00C0000000000800000042
:200B1C0000000000200000004000000060000000000000000600000002000000860000006B
:200B3C008200000000000000080000001000000018000000200000000000004017FF000071
:200B5C0000000000040000000800000010000000050708FF000000000080004018FF000073
:200B7C0000000000050000000000010000000200FFFFFFFF00000000000000000100000054
:200B9C00018000C0018000D50180000C0180005D018000CC018000DD00000000020000008A
:200BBC00010000000300000010000000200000007BC80110C5BC0110D9B2011033C201105D
:200BDC00BDAD0110C1B1011095B900006DBA011065BB01101DC00110D1BF0000B180000095
:200BFC00E59A0000BDBD0000D9550000755D0000D7C10000E18D0000D5620000DDC1000005
:200C1C003D8100000C0D0000682D0020540B00000C0D0000442E0020740B000000000000A3
:200C3C00000000000000000000000000FFFFFFFFFFFFFFFF0000000000000000010101019C
:200C5C0000C20100030000000000000000000000FFFFFFFF000000000000000040420F0025
:200C7C00080000000000000000000000001000400600000015000000FF00000000000000E6
:200C9C000201FFFFA837002020000000014000800200C0800908C080054000800740008038
:200CBC0008400080FE000000557D0000D98B0000CBC1000061C1000095580000416E0000D2
:200CDC00C40C00007C3300203C0D0000000000000000000000000000000000009967000010
:200CFC00C19C0000000000000000000101010000A19F0000E57D000083C00000515C0000E6
:200D1C00DD3A0000B1660000F80B0000202F0020880C000000000000000000000000000083
:200D3C00002000400700000011000000FF0000000000000004030000010000000000000018
:200D5C000000000000000000010000000000DBDD00000000000000000000000000000000BE
:200D7C00C8370020A80D0000000000000000000041B5011095A6011015B80110FF00000053
:200D9C00000000000000000001000000000002400A29FF0001020101D1C0011061AD0110FC
:1B0DBC0000001C00000000000A00000060450020A5BD000071540000270000E3
:201000003C000000000000000000000034100000000000000000000001000000000000004F
:1C10200000000000000000000000000001000000000000000800000000000000AB
:20103C003400000000000000000000006810000000000000000000000100000000000000E7
:14105C00010000000000000000000000080000000000000077
:2010700030000000000000000000000098100000040000000000000001000000FFFFFFFF87
:10109000FF00000001000000080000000000000048
:2010A0002C0000000000000000000000C4100000040000000000000001000000FFFFFFFF2F
:0C10C000FFFFFFFF080000000000000020
:2010CC0038140000E410000095A1011091A70110A1C2011009B2011041B80110A5BC011078
:0810EC0085BC01103300000077
:2010F400280000000000000000000000141100000000000000000000FFFFFFFF0000000093
:081114000800000000000000CB
:20111C00341400003011000065C2011069C101101BC2011091BA011005BC0110E5BB0110EA
:04113C00310000007E
:20114000341400005411000071C20110A5B6011099BF011045B60110B5BA011025BC01104B
:041160003200000059
:201164002400000000000000000000008011000000000000000000000000000008000000AE
:041184000000000067
:20118800240000000000000000000000A41100000000000000000000000000000800000066
:0411A8000000000043
:2011AC00240000000000000000000000C8110000000000000100000000000000080000001D
:0411CC00000000001F
:2011D0000000000010460020040000000000000000000000200000007010000030000000B5
:2011F0001C110000184600200400000000000000000000000C0000003013000018000000C9
:2012100040110000204600200400000000000000000000002400000048130000180000004C
:20123000000000002846002004000000000000000000000010000000A01000002C00000020
:20125000CC100000304600200400000000000000000000002000000064110000240000004F
:20127000FFFFFFFF38460020040000000000000000000000280000008811000024000000DB
:20129000FFFFFFFF40460020040000000000000000000000580000003C10000034000000C0
:2012B000FFFFFFFF48460020040000000000000000000000100000006013000018000000D5
:2012D000FFFFFFFF504600200400000000000000000000001C000000AC110000240000004B
:2012F000FFFFFFFF5846002004000000000000000000000038000000F410000028000000BC
:20131000FFFFFFFF6046002004000000000000000000000054000000001000003C00000057
:1813300018000000000000000000000040130000080000000000000032
:1813480018000000000000000000000058130000080000000000000002
:18136000180000000000000000000000701300000800000000000000D2
:0813780001000000CC0D000093
:041384000100000064
:0413880000000E0053
:04138C0000000F004E
:041390003200000027
:041394000100000054
:04139800A04500204C
:04139C00000200004B
:0413A0000000000049
:0413A400FDC901106E
:0413A8000000000041
:0413AC00000000003D
:0413B0000800000031
:0413B4000000230012
:0413B800C844002005
:0413BC00010000002C
:0413C000B84500200C
:0413C400080000001D
:0413C8000000000021
:0413CC00000000001D
:0413D0000000000019
:0413D400080000000D
:0413D8000000000011
:0413DC00000000000D
:0413E0000100000008
:0413E4003045002070
:0413E80006000000FB
:0413EC0001000000FC
:0413F000F0430020A6
:0413F40000000000F5
:0413F80000000000F1
:0413FC0000020000EB
:0414000000000000E8
:021406002A00BA
:021408000100E1
:02140A002400BC
:02140C003100AD
:02140E003200AA
:021410003300A7
:021412000100D7
:0114140001D6
:08141800030000008C0D000030
:081420000000000000000000C4
:0414280000000100BF
:04142C0000000300B9
:0414300083C4011060
:041434003C14000064
:041438003C14000060
:04143C0000000000AC
:041440009000000018
:041444009000000014
:0414480000000000A0
:04144C00B84500207F
:04145000E3BF0000F6
:041454002000000074
:04145800540D00002F
:04145C00CC0B0000B5
:0414600009C30110AB
:04146400FF8A0000FB
:0414680053A000008D
:04146C0095C801100E
:0414700097C8011008
:041474000000000074
:04147800D60D00008D
:04147C00E40A00007E
:04148000FC0A000062
:04148400CC0A00008E
:0214880008005A
:02148A00090057
:02148C0001005D
:02148E0000005C
:01149000015A
:041494000000000054
:041498000000000050
:04149C00000000004C
:0414A0000000000048
:0414A40037C200004B
:0414A80085AF00000C
:0414AC0071B9000012
:0414B00005B3000080
:0414B4006DB3000014
:0414B80095AB0000F0
:0414BC003D89000066
:0414C0009FC00000C9
:0414C400459F000040
:0414C80029BB00003C
:0414CC0055C1000006
:0414D0000800000010
:0414D40024000000F0
:0414D80018000000F8
:0414DC0028000000E4
:0414E00020000000E8
:0414E4003C000000C8
:0414E8000C000000F4
:0414EC0034000000C8
:2014F0002DE9F843089C582B804617460CBFBEA5C2A5002908BFB8F1000F05D12068411E47
:201510002160302707702AE04FEAE7793E460246083E13D0083E0DD0002908BFB2F1FF3FE0
:2015300004D94B463A4603F0C3F80BE0B2FBF7F0002107E008071209090902E04807D20831
:20155000C9081043226800FB1783561E0029EB5C26608046137008BFB8F1000FD6D12068D7
:201570000AF008FD401EBDE8F8837CB51446002806460D460094B8BF404264230A22C11774
:20159000FFF7AEFF702D0BD0502D09D00A2E09DA16F10A0F04DD2068411E21603023037080
:2015B000002E01D42B2100E02D212068421E226001702068411E216005707CBDF8B51D469D
:2015D00017460E4604460AF0D5FC324603460021002A284603DD9342A4BFA118491E27B1AB
:2015F00005686E1E06602E272F70934208DAD71A30251A4603685E1E06607F1E1D70F9D1EA
:20161000002A0CDD8C420FD80F1B7F1C026811F80139541E04607F1E1370F7D1F8BD0168A4
:201630004A1E026030270F70F8BD2DE9F04F04461646B068ADF16C0D0028199302D003D59D
:20165000062000E00120B060884630210FF2083B8DF800109BE80C00471C2046414606F076
:20167000BFFEA14638BF88F00048002412E0302008705AE09AE80C0004F0A2FE641E884675
:20169000814611E09AE80C00484604F0A5F9641C88468146CAA20CCA414606F0E4FE0FF21D
:2016B000183AEFD300201A909BE80C00484606F097FE09D01A9DC4A20CCA484606F090FEB6
:2016D00038BF0125002DD5D1484608F0C3FF83460DF1010108F015FE0DEB000524188742EC
:2016F00005F1010519DD3F1A584609F011FF0B4602464146484603F08DFB9AE80C0004F03D
:201710005FFE8846814608F0A5FF83460BF130007F1E05F8010BE7D102E00DEB07056D1C69
:2017300015F8010D35280ADB294611F8010D401CC2B23A2A08709ADA6F468F4204D01A988A
:201750000DF10107287003E01A98641C05F8010C14F1030F08DBB068A04214DA022C03DBCE
:201770001A98641E001905E0002C05DC1A98C4F10104001B1A900124307B199A801EC1B255
:201790001A98FFF7F2FE38460AF0F4FB0025401E844219DC021B521C002803D4395C302984
:2017B00001D004E0302115B933681B0908D3DDF864C0DCF800305D1ECCF800500125197070
:2017D000521EA0F10100E7D13068002200F00800284318BF0122199B21463846FFF7EEFEAD
:2017F0001BB0BDE8F08FC0463031323334353637383941424344454600C046C030313233B6
:2018100034353637383961626364656600C02DE9FE4F0D99441C9946924601900FF2381B57
:2018300000940C9F029130210170194610469BE80C0006F0D5FD38BF89F00049002512E028
:201850003020087054E098E80C0004F0B9FD6D1E8946824610E098E80C00504604F0BCF86A
:201870006D1C8946824656A20CCA494606F0FBFD0FF24418EFD37F1C9BE80C00504606F018
:20189000AFFD0AD050A20CCA504606F0A9FD4FF0000638BF0126002ED5D1504608F0DAFE1B
:2018B0000646214608F02DFD2418291802987F19002F016017DD304609F02AFE0B460246E0
:2018D0004946504603F0A6FA98E80C0004F078FD8946824608F0BEFE064606F130007F1EF0
:2018F00004F8010BE7D114F8010D352810DB214611F8010D401CC2B23A2A0870A0DA019879
:20191000884205D10299019A08680092401C0860002100982170BDE8FE8FF8B51D46174632
:201930000E4604460AF026FB3A4631462B468918491E521E0FD4521C002903D48842C8BF5C
:20195000665C00DC30261D686F1E521E1F60A1F101012E70F0D1F8BD0000000000000000DA
:20197000F0B51546AF681C460246ADF5FE7D002FADF1100D44BF0627AF60266802A8009781
:201990000B46019003A8FFF742FFAA68029923460746FFF7C2FF20680122B04203D1286858
:2019B000000938BF0022029938462346FFF706FE7FB004B0F0BDC04600000000000024407F
:2019D0000000C0FFFFFFDF41000000000000F03F2DE9F0471646B4689A4688460746ADF18D
:2019F000700D002C44BF0624B4600FF2E82999E80C0006F038FD4FF000050DD90FF2DC29F3
:201A100099E80C00384606F0EBFC05D9B5A20CCA06F0E6FC12D11FE099E880010EE099E898
:201A30000C00384603F0D8FF6D1C07460FE099E80C0004F0C5FC6D1E88460746ABA20CCA72
:201A50004146384606F0CCFC0FF2A829EFD399E80C0006F008FDE2D9009402A80B463A46CD
:201A7000019003A8FFF7D3FE04460298022809D1401E029020460AF07DFA6D1C00210019E1
:201A900000F8011C317B28465246FFF76EFDB268029920465346FFF740FF20460AF06AFA61
:201AB00002990122884203D13068000938BF002220465346FFF782FD1CB0BDE8F0872DE98E
:201AD000F04F074616460020ADF17C0D1B9381A4009094E80C00384606F0C5FC88460FF2D8
:201AF00004290CD97DA494E80C00384606F078FC05D999E80C0006F073FC02D109E094E82B
:201B10008001414638466A4608F0E6F90098401E0090307BB5680024A0F14101B5F1FF3F7F
:201B30001D9108BF0124A24641280CBF754876481E9030208DF8080099E80C004146384647
:201B500006F04EFC38BF88F0004899E80C00414606F046FC0CD0384601AA08F0BDF9019AE4
:201B700041463846C2F1010205F034F888460746384608F06FFD83460DF1090108F0C1FBF7
:201B90000446584609F0C4FC0B4602464146384603F040F90FF2641B0DEB04021C9407464F
:201BB000BAF1000F02F1090453D16D1C15D09BE80C0004F005FC8846814608F04BFD1E99B9
:201BD000095C04F8011B09F0A3FC0B4602464146484603F01FF96D1EE9D11D9F641E002F75
:201BF00014BF494D474D217828460AF079F9401B082833DB27464FF000081D987F1E00289E
:201C100014BF414D3F4D397828460AF069F9401B401C1028B4BF295C3021102839701DDB3B
:201C300087F80080E9E79BE80C00384604F0C8FB0D46074608F00EFD1E99095C04F8011B2A
:201C500009F066FC0B4602462946384603F0E2F8074699E80C0006F0C3FBE4D10025307BB3
:201C70002570412814BF702150211B9A0098FFF77CFCB068B0F1FF3F05D10DF109000AF0F8
:201C900079F9401EB0601C991B9B0DF1090402462046FFF742FE3168B0682A4601F00801DF
:201CB000084318BF01221C991B9B2046FFF786FC307B412814BF782158211B980268531EFF
:201CD00003601170016830274A1E02601FB00F70BDE8F08F000000000000F07F00000000A5
:201CF0000000F0FF0000000000000000000000000000F03F00000000000024400000000052
:201D100000003040F81700000C1800002DE9F04F0646ADF5FE7DADF1680DA29835688D904B
:201D30003068984617468B460AF024F90146CDF8308228468B974919002581428E9140F2EF
:201D50004B84899594952C468A942F469597BB49979196914FF0FF330393899901910F46C9
:201D70008DF810703C4602940778252F08BF271C0FD0002F00F0308431688C9A491C3160F2
:201D900000788B999047306807786D1C252FF0D1019F31685C46491C316011E047F01007FB
:201DB0000AE047F0010707E047F0020704E047F0080701E047F0040701973068401C30605A
:201DD00030680178B1F12000F4D0C01EEFD00838EAD0801EE5D0C01EE0D02A291CD0959977
:201DF00086A80A2206F041FC3068017830290BDB86AA3A2908DA0146401C3060097802F8D3
:201E1000011B01783029F4DA9DF81872AFB186A808F068FB029010E0E41C24F00304241D10
:201E300054F8041C002903D547F001070197494202913168A346491C3160306801782E2950
:201E500031D1401C306000782A2820D0959986A80A2206F00AFC3068017830290BDB86AAC6
:201E70003A2908DA0146401C3060097802F8011B01783029F4DA9DF81872002F08BF8A986C
:201E900002D086A808F02EFB0146306809E03068E41C24F00304401C241D54F8041C3060FD
:201EB000A34603910178019F4C391FD01C3911D0091F21D13068401C306001786C2903D053
:201ED00047F04007019717E0306847F48077401C3060F7E73068401C30600178682918BFEC
:201EF00047F02007EED147F4007701E047F0800701973068401C30603168491C3160007841
:201F10006E288DF8100000F03583732800F0E7820DF21520DDF80880059020214FF4FF72CF
:201F300006A806F0A2FB05988A9901700F46909791910DF5057C92910DEB0803939103F1C0
:201F50001800CDF814C09DF810708F90642F15DC642F23D0B7F1250000F0B6821C3800F049
:201F70000E81001F022840F20A81133816D0093800F00581801E00F0F78174E1A7F165007C
:201F9000022840F2FC80001F08D0801F012805D9801F18BFB0F1030040F0658103990029C7
:201FB00004D4019820F01000019002E0012003900146B7F1580007D0173807D0401E03D0E4
:201FD000083818BF0A2202D1102200E00822702F79D0DDF854920198CA4600F4EC602038BB
:201FF00053D0203843D0C0382AD0B0F580700DD0B7F1580067D00C385CD0401F5AD0801F10
:2020100061D0801F5FD0C01E5DD066E0B7F158000AD00C384ED0401F4CD0801F04D0801F97
:2020300018BFB0F1030058D1E41C24F00304241D14F8049C4FF0000A4EE0C046FFFF0F005A
:20205000B7F158000AD00C3808D0401F06D0801F04D0801F18BFB0F103003ED1E41D24F094
:2020700007040834A4F1080090E8000634E0B7F1580028D00C381DD0401F1BD0801F22D0D6
:20209000801F20D0C01E28D11DE0B7F158000AD00C380FD0401F0DD0801F04D0801F18BFAB
:2020B000B0F1030019D1E41C24F00304241D34F8040C0EE0E41C24F00304241D54F8040C44
:2020D0004FEAE07A07E0E41C24F00304241D54F8040C4FF0000A8146A346CB1748465446BB
:2020F0000143234308BF002903D101990B09C0F05181642F18BF692F08D1002C06DA012327
:2021100040424FF00001919361EB040405A900913B462146FFF7E4F90399401C814227DABF
:202130009DF81070782F03D0582F18BF702F11D1019908090FD3702F08BF7827059807707B
:202150000598401E05903021017005989DF81070401E059001996F2F40F01C810809C0F0B2
:20217000198105984278302A00F014813021F6E0059930220A700599491E0591CCE7384622
:20219000A0F16101192998BF2038DDF85482B84208BF4FF00108E01D20F007000830834682
:2021B000083803C847F6F07347F6F07E03EA11439E4510D1969C0A46002312001343002285
:2021D0001C4040EA02024FF0FF3303EA020208BF002A40F0A780949C002C40F0A380734653
:2021F0000FF2C02C03EA11439E450FD1979C0A4600231200134300221C4040EA02024FF0E5
:20221000FF3303EA020208BF002A33D0959C002C30D19CE80C0006F0E3F803D2012281F06F
:2022300000419292B7F141021FD0121F15D0521E0ED0521E07D01A3A17D0121F0DD0521EEB
:2022500006D0521E0FD101AA05ABFFF7EEF908E001AA05ABFFF784FB03E001AA05ABFFF724
:20227000B7FB9DF81070019994E001AA05ABFFF726FC2CE09CE80C0006F0B2F829D3B8F125
:20229000000F14BF4621662105988DF81412B8F1000FA0F10100059014BF4E216E210170F5
:2022B0000599B8F1000FA0F10100A1F10101059114BF49216921017005992B27491E0591D7
:2022D000032400F8017C05989294401E059001995EE0B8F1000F14BF4621662105988DF829
:2022F0001412B8F1000FA0F10100059014BF4E216E2101700599B8F1000FA0F10100A1F10D
:202310000101059114BF49216921017005992D27491E0591042400F8017C0199DDF814C00E
:20233000929432E0B8F1000F14BF4E216E2160468DF81412401EB8F1000F059014BF41219B
:20235000612101700599B8F1000FA0F10100A1F10101059114BF4E216E21022292920170DE
:202370000598401E05907CE7E41C24F00304241D14F8043C0F46A34603B901278DF81432C5
:202390000199939721F0020101916046401E05909DF810700598752F00F101022AD06F2F48
:2023B00028D0782F26D0582F24D0702F22D0929F1FB17F1E1ED10123919301F00203919F71
:2023D00090931FB98B0808D32B2100E02D21017005980199521E401E0590909C274309D18F
:2023F000C80807D305982021017005980199521E401E059048080ED2059C0298ADEB040132
:2024100001F21521884206DB8F9F06A8241AE419A4F5FE7400E006AC1146959A20464FF4F5
:20243000FF7309F024FC939F059027B18A9901700598401C05908F99814209D30A46121AFD
:202450002021401E521C06F010F98F988A990170019840092AD306A8A0422ED006A8221A4E
:20247000302106A806F001F99DF81000782810D058280ED070280CD0909F9198074302D1F1
:202490000198C00819D320788DF818003027277013E00198000910D360788DF81900302777
:2024B00067700AE0000000000000000006A8241A2021224606A806F0D8F806A809F05AFD44
:2024D000939F0246D21904E046A00188012206AF39808D9B8B9906A898472D1877E0E01C32
:2024F000039C20F00300001D50F8048C8346B8F1000F3AD0DDF80890002C06D4404609F0A8
:2025100039FDA04288BF201C02D8404609F032FD04464C45A8BF81464D44A1450BDD7808A0
:2025300009D2A9EB0407002F05DD8C9A8B99202090477F1EF9D1002C07DD274618F8010B9F
:202550008C9A8B9990477F1EF8D10198A1453EDD40083CD3A9EB0407002F38DD8C9A8B99C6
:20257000202090477F1EF9D131E08C9A95988B9990472CE007F4EC67B7F120001FD0E03845
:2025900012D0B0F5807007D0E41C24F00304241D54F8040C056019E0E41C24F00304241D6B
:2025B00054F8040C057011E0E41C24F00304241D54F8042C2846E91782E8030006E0E41CB0
:2025D00024F00304241D54F8040C0580A34630688E9981423FF6BEAB7FB028461AB0BDE899
:2025F000F08FC046250070472DE9F04F80464FF0000BADF1140D03A88DF80CB008F0AAFDBB
:20261000B34D0446B8F1010F0ED0B8F1020F0BD0B8F1030F08D0B8F1040F05D0B8F1070F51
:2026300018BFB8F1080F17D19DF80C00022813D1012004F065FA07462869014601208847D3
:20265000584607F0B9F8064628690146012088473F1978B2361874B2B8F1000F05D0B8F1E4
:20267000050F18BFB8F1060F0DD19DF80C0050B901F010FF064605F11000006801460120F7
:202690008847361974B2DFF890A3B8F1080F00F22F83DFE818F089020102C3011F01FB003C
:2026B000B900770047000900112009F073F807462869014601208847152009F06BF8064603
:2026D0002869014601208847584606F0EBFD04462869014601208847F61970B2241864B211
:2026F000584606F06FFF064628690146012088470A2005F0F3FF8046286901460120884715
:202710000A2006F001FE07462869014601208847504607F01BFD0546DE4807F0EBFC361932
:2027300074B276E1112009F035F80746286901461E208847152009F02DF80646286901460C
:202750001E208847584606F0ADFD04462869014601208847F61970B2241864B2584606F0F5
:2027700031FF06462869014601208847092005F0B5FF80462869014601208847092006F086
:20279000C3FD38E1112009F005F88046286901461E208847152008F0FDFF04462869014633
:2027B0001E208847584606F07DFD07462869014601208847022006F005FF06462869014699
:2027D00001208847444460B23F1878B2361874B2062005F083FF814628690146012088473E
:2027F000062006F091FD80462869014601208847504607F0ABFC0746A64807F07BFC064668
:20281000684608F01DFA68E2112008F0C3FF8046286901461E208847152008F0BBFF0746D7
:20283000286901461E208847022006F03BFD06462869014601208847022006F0C3FE04461C
:202850002869014601208847474478B2361870B2241864B20C2005F041FF064628690146A4
:20287000012088470C2006F04FFD80462869014601208847504607F069FC0746854807F059
:2028900039FC0546684608F0DBF948E7122008F081FF0446286901461E208847142008F0FA
:2028B00079FF8046286901461E208847584606F0F9FC07462869014601208847062006F02B
:2028D00023FD0646286901460120884730469CE034380020112008F05DFF80462869014613
:2028F0001E208847022006F0DDFC07462869014601208847022006F065FE06462869014616
:2029100001208847082005F0E9FE04462869014601208847474478B2361870B2241864B22A
:20293000082006F0F1FC814628690146012088475846012102F0DEFC8046286901460120A2
:2029500088470120014602F0D5FC074628690146012088470220012102F0CCFC064628697D
:2029700001460120884709EB040040B2404440B23F1878B2361874B25846012104F030FCDB
:20299000814628690146012088470120014604F027FC804628690146012088470220012147
:2029B00004F01EFC07462869014601208847042006F06CFE0646286901460120884709EB58
:2029D000040040B2404440B23F1878B2361874B2022006F0BFFE064628690146012088479D
:2029F000584606F021FE80462869014601208847584606F07DFE0746286901460120884762
:202A1000504607F0A3FB361974B20546214807F071FB21462E4663E1BA380020112008F095
:202A3000B9FE0646286901461E208847152008F0B1FE0746286901461E208847022006F078
:202A500031FC04462869014601208847BF1978B2241864B2022006F0B5FD064628690146E5
:202A700001208847082005F039FE80462869014601208847082006F047FC074628690146EE
:202A900001208847504607F061FB361974B206461CE7C046B4380020112008F07BFE80460F
:202AB000286901461E208847152008F073FE8146286901461E208847022006F0F3FB074684
:202AD0002869014601208847022006F07BFD06462869014601208847082005F0FFFD044617
:202AF000286901460120884709EB080040B23F1878B2361870B2241864B2082006F004FCAF
:202B10008246286901460120884706F099FB8146012006F08FFC8046286901460120884794
:202B3000012006F023FC07462869014601208847012006F04DFC06462869014601208847C6
:202B50000AEB040040B2484440B2404440B23F1878B2361874B2012006F002FD064628699E
:202B7000014601208847012006F0C8FC814628690146012088475846012105F073F98046BD
:202B900028690146012088470120014605F06AF907462869014601208847022008F00EFE62
:202BB000361974B2064694E0112008F0F3FD0746286901461E208847152008F0EBFD064624
:202BD000286901461E208847022006F06BFB04462869014601208847F61970B2241864B2ED
:202BF000022006F0EFFC81462869014601208847082005F073FD8046286901460120884718
:202C1000082006F081FB0746286901460120884706F016FB0646286901460120884709EBE6
:202C3000040040B2404440B23F1878B2361874B2012006F0FFFB8246286901460120884782
:202C5000012006F029FC81462869014601208847012006F08BFB804628690146012088476E
:202C7000012006F0B5FB0746012006F079FC064628690146012088470AEB040040B2484419
:202C900040B2404440B23F1878B2361874B2012006F034FC81462869014601208847584653
:202CB000012105F0DFF8804628690146012088470120014605F0D6F8074628690146012017
:202CD0008847022008F07AFD064628690146012088474FF4806000F00FF809EB040149B262
:202CF000414449B27F1879B2751869B2401844B2204605B0BDE8F08F2DE9F04FCA4C074695
:202D1000ADF11C0D2046009708F0D0FD0190381C00F0D381002702970397049720788C28B0
:202D300012DC8C2800F03481403800F0BC81001F00F0A8813C3800F09B81001F00F07681D9
:202D5000001F00F06281B8E1903800F0E280001F00F08F80001F76D0001F40F0AE81009825
:202D70007F1C07F114084045C0F0A781641CE179A0796378227894F8039094F802B0677992
:202D9000267940EA0120851042EA0320294600B2C01006F051F80499CA4B4BEA092B4A00C0
:202DB00002EB810202EB030A2946AAF800000FFA8BF3D81006F074F846EA0726AAF80200B6
:202DD000294630B2401006F0CFFF029BBF49627A277ADDF80CC05E0047EA022E06EB830682
:202DF0007618B94FA17AAAF8040065466A0002EB8502D219E07CE57A677BA2F800E041EAB6
:202E1000052E257BA2F802E045EA0721A57BE77B918045EA0721227C677C31805D1C42EA3B
:202E30000721EBB271806746A17C02937A1CD2B20392143441EA00210498B180401CC0B28F
:202E50000490474635E100987F1C0E37B842C0F03481049903989B4A4D004600431C05EB55
:202E7000810506EB8006AD18D8B2974A0390B61815E000987F1C0E37B842C0F01E81029864
:202E9000049A904E914B01465500401C05EB8205C0B2AD1902904E0006EB8106F618641C3D
:202EB000A07894F803B00590E17963782278A07994F8059094F804A040EA01204FEAA008B1
:202ED00042EA0320414600B2C01005F0B5FF28800598414640EA0B2000B2C01005F0E0FF6A
:202EF0004AEA092A688041460FFA8AF0401006F03BFFA880617A207A40EA01203080A07A37
:202F1000E17A40EA01207080607B217BB8460E3490E700987F1C0837B842C0F0CE80641CF3
:202F3000E379A17962782078E57894F8029094F805A094F804B041EA032140EA02208E1074
:202F500000B23146C01005F077FFDDF810805D4B49EA05294246510001EB82010FFA89F2C3
:202F7000CD18D21028803146104605F099FF4BEA0A2B0FFA8BF168804A103146104606F084
:202F9000F3FE4246521CD1B204910834A88090E000997F1CB81D8142C0F08F80601CDDF872
:202FB0000CC041780378484EC5788478624643EA0123510001EB820189190B8044EA0522F7
:202FD00046790379C57984794A8043EA06228A80029E3E4A037A44EA0521750005EB860559
:202FF000AD18427A298043EA02216980C37A817A0C3700F10C04721C664641EA0320D3B2D5
:20301000711C0293C9B20391C0E700987F1CBF1DB84252D303992C4A48004E1C00EB81006A
:20303000F1B28018039110E0E838002000987F1CBF1DB84241D30299244E0A465000491C52
:2030500000EB8200C9B202918019641C6278217841EA02210180A178E27841EA0221418008
:203070002179627941EA0221A41D8180B846E8E600987F1C7F1CB8421FD314F8016FE6B91A
:20309000641CF3E700987F1CFF1CB84215D3641CA278607821780E4E40EA0220E41C41EAB8
:2030B00000213160E2E700987F1C7F1CB84204D3A41C0098B8423FF631AE019807B0BDE88B
:2030D000F08FC046F82300208C200020201D00200C4600202DE9F04F00211022ADF1140D1E
:2030F000684605F0C2FA5D2008F07CFBE34D064628680069014601208847042001226946D3
:2031100008F034FB044628680069014601208847DB4F9DF90000A41966B238705E2008F04B
:2031300061FB8346286800690146012088470DF101010420012208F019FB82462868006916
:203150000146012088479DF901007870642008F049FB8146286800690146012088470DF1F4
:2031700002010420012208F001FB8046286800690146012088479DF90200B870652008F0CE
:2031900031FB0446286800690146012088470BEB060040B20DF10301504440B2484440B285
:2031B000404440B2241866B20420012208F0DEFA8346286800690146012088479DF903008C
:2031D000F870712008F00EFB82462868006901460120884701A90420012208F0C7FA81467C
:2031F000286800690146012088479DF804003873702008F0F7FA80462868006901460120AB
:2032100088470DF105010420012208F0AFFA0446286800690146012088479DF905000BEBD8
:20323000060149B25144787349B2494449B2414449B2641866B26A2008F0D4FA83462868BC
:2032500000690146012088470DF106010420012208F08CFA824628680069014601208847FC
:203270006B2008F0BFFA8146286800690146012088470DF107010420012208F077FA80468F
:20329000286800690146012088479DF807109DF8060040EA0120B880682008F0A3FA0446BD
:2032B000286800690146012088470BEB060040B202A9504440B2484440B2404440B224187F
:2032D00066B20420012208F051FA834628680069014601208847692008F084FA82462868EC
:2032F00000690146012088470DF109010420012208F03CFA814628680069014601208847AA
:203310009DF909109DF8080040EA0120F8806E2008F068FA804628680069014601208847B0
:203330000DF10A010420012208F020FA0446286800690146012088470BEB060040B250441F
:2033500040B2484440B2404440B2241866B26F2008F048FA83462868006901460120884761
:203370000DF10B010420012208F000FA8246286800690146012088479DF90B109DF80A00B2
:2033900040EA01203881622008F02CFA81462868006901460120884703A90420012208F097
:2033B000E5F9804628680069014601208847632008F018FA04462868006901460120884722
:2033D0000BEB060040B20DF10D01504440B2484440B2404440B2241866B20420012208F0D6
:2033F000C5F98346286800690146012088479DF90D109DF80C0040EA012078816C2008F0EA
:20341000F1F98246286800690146012088470DF10E010420012208F0A9F98146286800690C
:203430000146012088476D2008F0DCF98046286800690146012088470DF10F0104200122A0
:2034500008F094F90446286800690146012088479DF80F209DF80E100BEB060040B2504464
:2034700041EA022140B2F981484440B2404440B2241805B060B2BDE8F08FC04664270020B6
:203490005C3800202DE9F04F09AFADF13C0D08900A92388809911E46ADF81800101C08BFD2
:2034B000002000F08481002700F101094FF0FF3A4FF0010BB8466CE1252940F063811078CD
:2034D000521C0A922D2818BFADF8068005D15846551CADF8060010780A9530281CBF424609
:2034F000434605D10A9908785A465B46491C0A912A28CDF80080554616D1306804930A990E
:20351000CDF808A0C01C4B1C20F00300001D306050F8044C0A93002C0878009418D5ADF824
:2035300006B06442009413E044460AE0610001EBC4010918A1F130040A9908780094491C0F
:203550000A91302801DB3A28F0DBCDF808A004932E282BD10A9908782A2801F101010A9105
:2035700011D13068CDF80880C01C20F00300001D306050F8045C002D48BF454608782B4680
:20359000491C0A9111E0454643460AE0690001EBC5010918A1F130050A9908782B46491C30
:2035B0000A91302801DB3A28F0DB02930AB1224604926C2804D04C2818BFADF8048005D1FF
:2035D0000A990878ADF804B0491C0A910BA9CDF80C800FAB07916428059300F08B80692858
:2035F00000F08880BDF818C0752872D078286ED06F286AD0702850D063283DD073281ED0CF
:2036100009980A990128A1F101010A9115D96B490C68B5F1FF3F03D0A84288BF6D1C00D89F
:20363000099D029508A80AA932466B46A0473F180A99039801F1010974E040462AE03068BD
:203650000A99C01C20F00300001D306050F8040CBCF1000F01F10109014608B955A00146C7
:20367000079108F087FC0390B5F1FF3F5BD0A842C4BF281C039056E03068C01C20F0030084
:20369000001D306010F8040C5D468DF82C000A990395584601F1010945E0082035680490AE
:2036B000E81C20F00300001D306050F8041C082210230FA805F0E4F9401E07904021017021
:2036D0000A99079801F1010929E0082302E0102300E00A230A99306801F10109C01C20F023
:2036F0000300001D306050F8041CAA42BCBF2A1C049210E00A99306801F10109C01C20F04C
:203710000300001D306050F8041CAA42BCBF2A1C04926FF009030FA805F0B2F90790059D43
:20373000281A0390009C241ABDF8065000945DB906E008A8202109AA07F0B2FF009C7F1CAC
:20375000641E0094F5D503980546401E039075B9BDF80600E8B10098401E009019D408A8FD
:20377000202109AA07F09CFF00987F1CF4E70798411C0791017809AA08A807F091FF039813
:203790007F1CE1E708A809AA07F08AFF7F1C09F101094A460A9812F8011C401C00290A90BC
:2037B0007FF48AAE089808B14146017038460FB0BDE8F08F286E756C6C2900C0D00D0000F3
:2037D000BA482DE9F84F0025B94CB749056094F8E200002800F06381012800F02F81B54EB5
:2037F00002283CD0032840F05A8151F8250CD4F8B8100029A0F5C060C4F8D400B8BF4942CF
:203810000028B8BF4042814226DA4FF08057D7F8A4014568B4F8BC0030214FF47F42082395
:2038300000903046A847D7F8A4014568B4F8C00004214FF4F802122300903046A847D7F89B
:20385000A401B4F8D070456820214FF440620A2330460097A847012584F8D8501AE151F8BD
:20387000258C08F021FC2F4600B901273946924F38680028FCD0B146012609F10409D9F832
:203890002CA03E6009B108F015FCCAF30720C4F8BC0008F009FCAA4600B9B2463B68002B23
:2038B000FCD0D9F800B0BAF1000F3E6001D008F001FCCBF38440C4F8C00008F0F5FBAA46B7
:2038D00000B9B2463B68002BFCD0D9F81C90BAF1000F3E6001D008F0EDFBC9F38120C4F8EE
:2038F000D000B8F5C061C4F8B81000F09C8094F8D80068B9C4F8D410D4F8C000C4F8C80055
:20391000D4F8BC70C4F8C470D4F8D030C4F8CC30D4F8D410D4F8BC30002954BF02206FF006
:20393000010004F1C802176801EB41014018411000EB917107EBA1001060D4F8C810C4F811
:20395000C43000291CDD1E293CDDD4F8CC0030B93429B4BF15391E21C4F8C81025E02A2917
:20397000BABFD4F8C8000B381E20C4F8C800D4F8C4003F28B4BF401C3F20C4F8C4001FE081
:20399000D4F8CC00032812D011F10B0FC6BFD4F8C8000B30301CC4F8C800D4F8C40000287A
:2039B000C4BF401E051CC4F8C450032508E011F1150FC6BFD4F8C8001530301CC4F8C800C1
:2039D000C4F8CC504FF08057D7F8A401B4F8C43030214FF47F424568364800930823A847A8
:2039F000D7F8A40104214FF400321123456831480096A847B4F8C860D7F8A40104214FF41A
:203A1000F802122345682B480096A847D7F8A40120214FF440620A23B4F8CC604568254809
:203A30000096A84701E084F8D85040F2FF50404502D8801C40452DD208202EE051F8251CAC
:203A50001E4F4BF2F5204843060A3868C0F3814001280AD107F03AFE07F030F908F030FB72
:203A70003111C010484306EBE03694F8E50030B91348006820F07F408019460801E084F862
:203A9000E5501048310C0660012741600E4D8760287808B90B2000E0052084F8E40001F0F9
:203AB00061FBBDE8F88FC0462D400C402C500C40FC3D002000A00C4000800C40B43F005093
:203AD000102009403C600C40090D00002DE9F04FD0F804A0ADF1140D029080688B46039001
:203AF000DBF80000002800F0588108F080FBDAF8881029B108F074FC03208BF810004CE1F0
:203B100001218BF81010CAF888B008F069FC9AF8A40038B19AF88D20A249DAF89C0011436E
:203B300007F0CAFADBF8047008F061FB04469AF8D80078B917F0704F06D12FB1042007F0A2
:203B500057FC062007F054FC022007F051FC01208AF8D800204608F043FC0398D0F8008034
:203B7000D8F8040040F00200C8F804009AF80070002F019778D1DDF80CC0DBF80050DCF8C1
:203B90001C00A84272D9DBF8086064460EB90AF1A606DBF8047037B9E0890AF1A607AAF887
:203BB000A600DBF80050DAF8140009282CBF4FF002094FF0010975B3DFF8EC81DAF8140045
:203BD00009280FD3D8F800004268398820689047D8F80000C268206869469047BDF800006B
:203BF00030800EE0D8F800004268397820689047D8F80000C2682068694690479DF80000F0
:203C10003070DBF8083003B14E44DBF8043003B14F446D1ED2D120460168486820F0020096
:203C30004860DBF8047008F0E2FA04469AF8D80078B117F0704F06D12FB1062007F056FAEA
:203C5000042007F053FA022007F050FA00208AF8D800204608F0C4FBDAF8881000200874EC
:203C7000CAF88800012099E0DBF80050DDF808C0DCF80830DCF804401F6894F88C00A9B272
:203C9000B7F1804F01FA00F11FFA81F914BF474E474EDBF80870474957B994F88C004FEAE5
:203CB000800C084600EB0C018A6904F1A6010AE094F88C004FEA800C084600EB0C010A6913
:203CD00009EB0701491EB2607160014618682A0108303060B56843F6F07E103A0EEA0202CA
:203CF0001543B5601E68B6F1804F14BF324D334DDBF80470C7B96144D8898F69A4F8A60072
:203D100004F1A606AF60039A2E60D2F80080DBF800101E689AF8007072460901019706F1B2
:203D3000080010390A4006E061448968A96009EB0701491E29606860A8680243AA6059697E
:203D5000D4F8A0701869014378680068019D8162706A40F003007062D8F81400002D40F0C9
:203D70000100C8F814007FF47DAFDAF804100AF16C00044608F01BF900283FF473AFDAF8CD
:203D90008800017C012904BF03210174029802F087FC2046002108F00AF9002005B0BDE87D
:203DB000F08FC04600000680C40100100005002030040020940B0000100500204004002062
:203DD0002DE9F04F9E4E3078ADF5FE7DADF1380D06F01CFC06A808F0FFFA9348934A00681D
:203DF00009A908F0F5FADFF848A20025092448B1BDF8241050460902405C0A2802D103F0F0
:203E10003FFDB3E028460AA904F056FD8D4E8549306804F0E9FB07468648006807F06AFD61
:203E30000146384603F044FF07F030FA8B9006F011FA08F0C9FADFF800B2DFF80082DBF8CA
:203E5000000009A94FF0FF3208F0C2FABDF824708AA807F065F90AEB072700286FD104A875
:203E700006F048F9002864D1DDF81C9008F0ACFABDF81410009101940295B0FBF9F00390C2
:203E9000BDF81020BDF812303AA1384605F0B2FEFA2C43DBDDF81C9008F096FAB0FBF9F453
:203EB0003068089407F02EF88DE803006448007823464A463CA10290384605F09BFE012070
:203ED00008A98DF8280009680DF12904216031680DF12D03284619600AA904F03BFC28465D
:203EF0004AA904F0E9FC0DF127044FF480700DF2271314F8011F13F8012F91420AD1401EDE
:203F1000F7D1384608F036F832A12A46C01905F071FE6D1C08F058FA092417E004A90A688F
:203F30000DEB0400A41D283089880260E4B281800CE0424638462BA105F05CFE06E09DF8CA
:203F50002832424638462FA105F054FE384608F011F8ADF82600D8F8000009A94FF0FF329E
:203F700008F02EFA8B9808F027FA68E77FB00EB0BDE8F08F424D4931363020783D25642088
:203F9000793D2564207A3D256420636F756E743D256420706167653D25642074696D653DD4
:203FB00025640D0A00C046C0424D4931363020667265712E6C6F3D2564206E6F773D256445
:203FD00020666163746F723D256420473D25640D0A00C046434845434B20706167653D25A5
:203FF000640D0A00424D49313630207265743D2564206572726F722072656164696E670D45
:204010000A00C046424D49313630207265743D256420643D2564206E6F74207265616479F0
:204030000D0A00C000247449E03800208096980020050020C40D0000C4380020E438002064
:204050006C460020684600202DE9F047DFF80CA20746AAF13500DFF8F8810068800880F011
:20407000E78007F033FB814908310B6800261A17990D02F101020AD2C0F13E0110F10A0F55
:204090004FEAE101D8BF08218A42B8BF0A1CDFF8C4C1990E0FD2590E0DD36446143C21681E
:2040B000C1F304211629A8BF20392468C4F30464162C0EDB0CE0634CD4F87C11C1F3046135
:2040D0001629A8BF20392468C4F30444162C00DB203C5118A146162905DA11F10A0FB8BFCD
:2040F0006FF0090100E01521574C584D01F01F0242F4F85222802A6812F0030F18BF012611
:20411000D20828BF46F002060FB146F00406424692F90740041B052C04DA9479B44208BF3E
:20413000918865D00F28A0F10F0827DB08EB0014A4F1F0084FEA282EBEF1070F88BF4FF0D2
:20415000070E7546062D88BF06255CF82570042404EB850465462C59E41B04F0FF05F7082B
:2041700024BFC4F307273D44B70824BFC4F307473D44770828BF05EB146501E00025AE46F5
:204190005CF82EC0F7080CF0FF0424BFCCF307273C44B70824BFCCF307473C44770828BFEA
:2041B00004EB1C64ADB2A8EB0E27B9EB010105FB07F505F1800504EB1524D8BF012103F068
:2041D000FF0334254D435D434FF6FF73B5FBF4F18B4238BF191C802889B2918005DA10F12B
:2041F000800FB8BF6FF07F0000E07F20D0719671194800681F2910604FF0000008D340F237
:20421000FF128A4206D24908401C8A42FBD301E01F219180124F0F39090940EAC10047EA89
:204230000001CAF8FB1F0026CAF8FF6FBDE8F0870C490D4F424608200F60921D1070BDE87B
:20425000F087C0463C1100506E620840242208409C3800209C1300500820094035000940AC
:2042700000E7A48030100940FDFDA400AC3F005001282DE9FE4F40F0EE80DFF810B2DBF82B
:20429000DC00012840F0E4800220CBF8DC0007F0E3FB012006F08CFA5FEA000805D00120FB
:2042B000CBF8DC0007F0E8FBD7E007F0B0FF6C49029000200860012007F06EF9012818BFCA
:2042D000002003D1002005F071FB0120654900900020654F08603868112007F003FF0028CC
:2042F0000CBF00240124102007F0FCFE08B144F002040F2007F0F6FE08B144F004040B204C
:2043100007F0F0FE30B1624814300068574E016B308888470A2007F0E5FE002600B10126D7
:204330004FF0805A0AF5DC75301C04D02868504E016B308888474F48012606602868816925
:2043500044F0200088474C48066007F0C5FE00F001010191400814D2484807F083FE8146F5
:20437000B9F1040FF8D0B9F1010F05D1DAF8D80142684248032190474149086820F0030031
:2043900008600020FFF760FE2B683868986B8047019801280DD0B9F1010F05D1DAF8D8015A
:2043B00042683648314690473549086840F0030008602C48066028684169204688470B207A
:2043D00007F090FE20B12868284BC16A188888470A2007F087FE20B12868254BC16A188898
:2043F00088472448032206602349CBF8DC2000230B602868416B204688470128F9D138682A
:20441000042006F0D5F9044615481E490660386808688009FCD30098012802D1304605F0C9
:20443000C5FA07F047FE082006F0C2F907460298CBF8DC6007F0BCFF1348008804F060FCCD
:2044500007F01AFB57EA040018BF4FF0FF3804E06FF0040801E06FF001084046BDE8FE8F5E
:204470000C400940000222432C200940AC0A0000A80A000028200860800104430040034038
:204490002422084014100940040D0000FC3D0020A40100102DE9F84F00208DF800008DF86B
:2044B0000100112007F076F97F4D28680069014601208847192007F06DF90746286800697C
:2044D0000146012088470DF1010006F077FE372007F060F906462868006901460120884708
:2044F0009A2007F057F9044628680069014601208847F61970B2241866B2C02007F04AF992
:20451000804628680069014601208847012005F01BFA0746286800690146012088470DF1EF
:20453000010006F099FE012005F0AAF90446286800690146012088470DF1010006F058FE5F
:20455000684606F06FFE2868006901460120884708EB060040B23F1878B2241866B29DF8B5
:20457000000040F003008DF800009DF8000005F0B9F9814628680069014601208847002020
:2045900005F0E2F98046286800690146012088470DF1010006F060FE132005F013FC07466E
:2045B00028680069014601208847012005F0C2FA04462868006901460120884709EB060075
:2045D00040B2404440B23F1878B2241866B20DF1010006F0D9FD022005F0EEF8834628686D
:2045F00000690146012088470DF1010006F0B2FD04F0B4FA8246062007F01CF981464C2098
:2046100007F004F98046FEF765FD284F044601203870022000F046F90BEB060149B2514411
:2046300049B2494449B2414449B2641861B20024401846B23C70022007F0FCF882464C2077
:2046500007F0E4F88146052005F0E8F8804628680069014601208847422007F0C3F807465F
:2046700028680069014601208847204605F062FA0446286800690146012088470DF10100CA
:2046900006F082FD286800690146012088470AEB060040B2484440B2404440B23F1878B203
:2046B000241860B2BDE8F88F64270020084600202DE9F0411C4615468C4208BF854282BFB6
:2046D00000230022E5E0002C08BF002D0AD100290EBF00286FF000006FF0000100F0E1F81F
:2046F000BDE8F0815FF000085FF0000E002C08BF8D429CBF2C1C0025070C47EA01470E0CB0
:20471000B44208BFBD429EBF5FEA044444EA15445FEA0545070A47EA01670E0AB44208BF46
:20473000BD429EBF5FEA042444EA15645FEA0525470847EAC1774E08B44208BFBD4200F2C6
:204750009380870847EA81778E08B44208BFBD427CD8C70847EA4177CE08B44208BFBD428E
:2047700066D8070947EA01770E09B44208BFBD4250D8470947EAC1674E09B44208BFBD427B
:204790003AD8870947EA81678E09B44208BFBD4224D8C70947EA4167CE09B44208BFBD42C3
:2047B0000DD8E60146EA5566EF01B14208BFB84201D3C01BB14158EB08085EEB0E0EA6018E
:2047D00046EA95664FEA8517B14208BFB84201D3C01BB14158EB08084EEB0E0E660146EA35
:2047F000D5666F01B14208BFB84201D3C01BB14158EB08084EEB0E0E260146EA15762F01EF
:20481000B14208BFB84201D3C01BB14158EB08085EEB0E0EE60046EA5576EF00B14208BFF1
:20483000B84201D3C01BB14158EB08084EEB0E0EA60046EA9576AF00B14208BFB84201D30D
:20485000C01BB14158EB08084EEB0E0E660046EAD5766F00B14208BFB84201D3C01BB1412E
:2048700058EB08085EEB0E0EA14208BFA84201D3401BA14158EB08085EEB0E0EA34208BF67
:20489000AA423EBF2D0A45EA0465240A89D3734642461E4617460B46024631463846BDE891
:2048B000F08170472DE9F041784C074620688078012802D0012005F03DF93846401E73D082
:2048D000401E51D0401E25D0401E18BF6FF0010740F0AB80072006F0ADFF074620680069F8
:2048F000014601208847512006F090FF0646206800690146012088471A2006F09BFF0546F2
:2049100020680069014601208847F61970B22D186FB268E0172006F08DFF07462068006989
:20493000014601208847512006F070FF064620680069014601208847522006F07BFF0546B9
:2049500020680069014601208847F61970B22D186FB2522006F05AFF8046206800690146C9
:20497000012088472A2048E0042006F063FF074620680069014601208847512006F046FF28
:204990000646206800690146012088470E2006F051FF054620680069014601208847F6199D
:2049B00070B22D186FB21EE0012006F043FF074620680069014601208847512006F026FF07
:2049D000064620680069014601208847022006F031FF054620680069014601208847F61989
:2049F00070B22D186FB2522006F010FF804620680069014601208847022006F01BFF06463C
:204A1000206800690146012088474C2006F0FEFE05462068006901460120884708EB070093
:204A300040B2361870B22D186FB21948007848BB022006F0FFFE804620680069014601208E
:204A500088474C2006F0E2FE064620680069014605208847422006F0C5FE05462068006966
:204A70000146012088472068817808EB070460B23618012970B205446FB203D1002005F071
:204A900059F807463846BDE8F081C0466427002008460020F8B584460F1C5BD06848674988
:204AB00008605578167885B1622D4FF0010003D09178622918BF00202B2D4FF0010406D04E
:204AD00091782B2918BF002401E000200446002144B9722E08BF102205D0772E14BF612E90
:204AF000202200D00A46612E0CBF80230B1C1A43002814BF4FF480730B1C002C43EA02020E
:204B100014BF40230B1C13437B6108B14FF40041613E10D0113E02D0761F04D012E00CB101
:204B300041F002010EE0002C14BF02200120014341F4C06106E0002C14BF022001200143FB
:204B500041F4027160464FF4DB7202F0EBFA0028386001D50020F8BD3846F8BD70B5394D47
:204B7000284602F0C1FF384C206802280BDB012655F8181F002903D4284602F0B5FF2068A2
:204B9000761C8642F4DB70BD70B505462F48006814460E468047204602F0A6FF2846324608
:204BB0002146FFF777FF0446294800688047204670BD2DE9F8438146244800688846804714
:204BD0002449204A0F6857B901234FF0FF34072702F148000B607F1E40F8184BFBD11A4996
:204BF0000868002300280BDD14460546183C54F8186FB6F1FF3F03D06D1E03F10103F6D134
:204C10000A2B0ED0DC00984204EB0314144404BF401C086000211822204603F026FD214698
:204C300000E0002148464246FFF734FF04460848006880472046BDE8F883C046E04500208A
:204C50006D4B0000103F0020D0450020F8450020FC450020704600202DE9F04FADF1240D30
:204C7000079001F00DF96148007806F091FB604D0024012808D90A380FD0801E04D0401E27
:204C90000ED0401E09D006E007F018F8022804BF01210C1C06D0696805E005211F2401E0F5
:204CB000032107246960534A1068C0F38150012806D152F80C0C0127020E07FA02F004435F
:204CD00007F0B0F9524AFF230818401E471C28607F1E02F8013BFBD1079A1268002702F02A
:204CF000FF03FE2B20D0DDF81CC096463B4601260EF0FF02FF2A10D0904205D3914203D8F4
:204D100006FA02F2144201D002206CE017430EF0FF02DFF8FCE00EF802305CF804EF5B1CF8
:204D30000EF0FF02FE2AE5D1092002F0B5FA07980121A86005F1280006F070FC05F19806DF
:204D5000A8464FF0010A4FF0040B0025A9460AFA05F0044216D1074204BF05F0FF0141F44D
:204D7000C04104D02A480799405D51F82010224801F07CFDE8B24FF0FF3106F025FFC6F871
:204D9000009001E0C6F800B0D8F800006D1C361D8542DCD904A807F025F9184C184A2078DD
:204DB000102104AB059008F10C0005F00BFF684607F040F9CDF80C906A46606811490290C7
:204DD00008F1640005F098FF0F4951F80D0C20F4F85040F4005041F80D0C0C4FC1F8FFAF2C
:204DF0004846C7F800A009B0BDE8F08F7B380020E83C0020B43F0050007FC767980D00002D
:204E1000F5BB0000D5A900000D300940080009402C3D00202DE9FC4F83F0004301E02DE9E6
:204E3000FC4F1F03FF0847EAD2574FEA42284FEA43095FEA595906D147EA080A1CBF00215B
:204E50000020BDE8FC8F57F000575FF4E06E1EF1FF0EF14505D14FF00000190D0905BDE873
:204E7000FC8F002B05D55FF0000AD8F100086AEB07070C03E40844EAD0544FEA40254FEAE1
:204E90004106760D08D144EA050A19BF00210020191C101CBDE8FC8F44F00054764504D160
:204EB0000020090D0905BDE8FC8F002904D55FF0000A6D426AEB0404B6EB090E08D5A2468A
:204ED0003C465746AA464546D046CEF1000E4E46BEF1360F5CBF4FF0000B23E0BEF1000F97
:204EF00004BF4FF0000B1AE0CEF1390ABAF120092EBF08FA09FB07FA0AFB4BEA080BDEF1B5
:204F1000200A07FA0AFA38BFBA4647FA0EF72DBF28FA0EF8AEF1200E4AFA0EF8D04415EBD6
:204F300008057C4154EA050A02BF00210020BDE8FC8F002C58BF4FF0000A06D55FF0010A57
:204F50005FF0000E6D426EEB0404A6F101066D006441FAD515F4806E11D005F480794BEA56
:204F7000090B15F5806554F1000428BF761C0BD205F400795BEA090B08BF25F4006525F456
:204F9000E0656D0044EB0404B61CDEBF00210020BDE8FC8F5FF4E06E1EF1FF0E76450AD3E3
:204FB0004FF0000013F00043FF21C900C91D09051943BDE8FC8F270547EA1530210B41EAFA
:204FD000065141EACA71BDE8FC8F7047F0B5064600220C2104201346ADF14C0D07F0E4F995
:204FF0005C4900221346086004200C2107F0DCF94B490860684606F0E5FE4FF0FF30029079
:20501000019000248DF816408DF8154001258DF814404FF4E1308DF8174024220690414882
:205030008DF80150082303903F488DF800502146049009A807F0B4F9204609A98DF83C50F7
:20505000024607F0A9F9394924220823086009A8214607F0A5F9204609A98DF83C500246E6
:2050700007F09AF93C4924220823086009A8214607F096F98DF83C50284609A9224607F00A
:205090008BF9364A0146F0B21160694605F01AFD3349274D3C22082308602146284607F03A
:2050B00077F90420A8614FF400762E62224F2F61204BEB6110A006F0E7FD2048204923467E
:2050D0002A4607F061F91F4D21463C220823284607F05EF90320A8612E622F611A4BEB61EA
:2050F0000AA006F0D1FD1948194923462A4607F04BF913B0F0BDC0467561727420747820FD
:205110007461736B20696E69740A00C075617274207278207461736B20696E69740A00C0F7
:20513000E038002025C1000031C100006C3800202C370020682B002040420F00143600205A
:20515000F1770000F036002068290020C4350020356A0000E4380020703800207438002058
:205170008C4600202DE9F843614C5A4D5A4EDFF870815E4F94F8E4100846401E0B2864D8D0
:20519000DFE800F07B2C43062343062343067664042907D001220A2945F8212C14BF0220CD
:2051B000032004E0202045F8210C0120024684F8E200002045F8390C0827C5F8FF7FC5F89E
:2051D000F37F45F8392CBDE8F883052914BF09200620002784F8E400376075E094F8E170EB
:2051F000383D0120002FC5F81B0004BF0620002102D00021F160032084F8E400032045F8D1
:20521000010C3160306880085ED294F8E4103348012703290ED00068456800216022052383
:2052300000914046A84794F8E400062814BF0A200720CFE7006845680021602205230220DE
:2052500000904046A8470420C4E7FEE72548264F0026012506600E203D6001F049FE0220CC
:2052700005F044FF84F8E45084F8E360BDE8F883002038600C25786024E04FF08059D9F8A9
:20529000A0010168202088472C3D0F2045F8010C41F61D56C5F80360D9F8A40146680021F4
:2052B0004FF4C0720723022540460095B047D9F8A401C66800214FF4C07207234046B04725
:2052D0000120386084F8E45004F1780006F089FFBDE8F88339400C4038600C40A4010010EC
:2052F00000A00C402C500C4004800C4034600C40FC3D00202DE9FC41584D884600212F6863
:205310008DF80010002F08BF6FF07E0000F0A480002800F08B80401E71D0401E51D0801E22
:205330003DD0401E29D0401E15D0401E40F09180B96878786A4601230C465021A047041C68
:2053500040F089809DF8002008F0010802F07F0242EAC81246E0B96878786A4601230C4678
:205370005021A047041C76D19DF8002008F0010802F0BF0242EA881252E0B96878786A463C
:2053900001230C465021A047041C64D19DF8002008F0010802F0DF0242EA481240E0B9688A
:2053B00078786A4601230C465021A047041C52D19DF8002008F0010802F0EF0242EA08124D
:2053D0002EE0B96878786A4601230C465021A047041C40D19DF8002008F0010802F0FB024A
:2053F00042EA88028DF800202868416840780D466A4601235021A847001944B22BE0B9688F
:2054100078786A4601230C465021A047041C22D19DF8002008F0010802F0FD0242EA4802DE
:205430002868416840788DF80020E0E7B96878786A4601230C465021A047041C0BD19DF8DF
:20545000002008F0010302F0FE0213438DF80030CAE76FF001042046BDE8FC8164270020DB
:205470002DE9F84F804692460868DAF80050067800271C46BB46421C242E0A6026D110F86E
:20549000016F521C532E0A6020D1ED1C25F003052D1D55F8040CE061CAF80050208B0090E7
:2054B000A168E269D8F800005346FDF7EBFF8346D8F8000010B15844C8F80000DAF8005069
:2054D0002068E7600127A0EB0B002060662E05D0002F64D1E16901200E705FE0208B40B916
:2054F000ED1D25F007050835A5F1080090E8000309E0ED1C25F003052D1D55F8040C05F070
:2055100001FD894680462AA20CCA4946404602F067FF28BF002705D2206989F00049012781
:20553000401E206124A20CCA4946404602F09BFF31D3404605F08EF8064605F0E9FF0B46C0
:20555000024649464046FFF765FC1DA20CCA00F037FF05F04FF90146606904220A2303F039
:205570008FFA401EE0612E21017063692269E06931461B1AE360D21A0A2303F081FA002FEE
:2055900008BFE06104D0401EE0612D210170E0696169081A02E004A0E0610720E060CAF89C
:2055B00000505846BDE8F88F286572726F72290000000000000000000000C0FFFFFFDF4169
:2055D000000000000088C3402DE9FF4104466668A7680D4606F00BFE3178012903D106F0C4
:2055F000FFFE002091E00121317006F0F9FE287870706878B07068687060A868B060E868CD
:20561000F06028693061287D3075687D7075A87DB075A869B061287F3077687F7077A87F45
:20563000B0774FF00008C6F82080C6F83080454675627563B562B56386F82C50102386F80C
:205650003C3086F82D5086F83D50786801F024FE204601F0ABFC204602F0FAF970B92C48EF
:205670000068C16838688847786801F041FC06F0BEFD357006F0B4FE2C4645E0684606F0D3
:20569000B1FC0094387B234A0190B9686B4606F1800005F097FA684606F0CCFC00941E49D2
:2056B00038696A46029006F19C0005F025FBB07830B906F1D000294605F0B0FF1748306174
:2056D000707830B906F1EC00294605F0A7FF1448F060684606F06EFD01958DF8005011497C
:2056F000029406F584700A226B4604F047FFB969FA6906F1400006F051FC0B4A06F16C0047
:205710000421234605F0F6FF20460090BDE8FF81D0010010A55F00006DAE0000BDC1000068
:20573000ADC100005582000065C00000B0B5456884684F48297BADF1180D012916D0217E44
:20575000627E4C4B2F7E0143009143EA02010191494937F0010718BF081CA27E10430290BD
:2057700095F88D000322FF2811D00DE0677E217E3843A37E019041F00041009143F00040BE
:205790003E49029095F88D00014304220391FE204DF82200694605F1900002F00DF9C5F859
:2057B0009C00002808BF00205FD0287B344951F8200001282BD02068B0F1804F14BF222243
:2057D0000A22217ED5F89C0005F012FF2068B0F1804F14BF21220922617ED5F89C0005F009
:2057F00007FF2068B0F1804F14BF24220C22A17ED5F89C0005F0FCFE95F88D10FF2933D088
:205810002068B0F1804F14BF23220B2228E02068B0F1804F14BF21220922217ED5F89C00F2
:2058300005F0E6FE2068B0F1804F14BF22220A22617ED5F89C0005F0DBFE2068B0F1804F36
:2058500014BF24220C22A17ED5F89C0005F0D0FE2068B0F1804F14BF23220B2295F88D103F
:20587000D5F89C0005F0C4FE012006B0B0BDC046000480A0004000800004C0A000200080C6
:20589000940B00002DE9F04704466568A6680F46ADF1200D06F0ABFC95F8DC10012903D1B3
:2058B00006F09EFD002085E04FF0010A85F8DCA006F096FD3878287078686860387AE8600C
:2058D000706801F0E9FC204604F0E6FDF868676828B9A06890F8149090F8158003E090F801
:2058F000009090F80180B9F1FF0F15D0B8F1FF0F12D0324840EA09010491FE23069340EAA2
:20591000080004A9059007F1980002F055F8C7F8A400D7F8A40070B9294800240460294FEE
:205930003C60706801F0E4FA06F061FC85F8DC4006F056FD3DE049460D2205F059FED7F8E9
:20595000A40041460E2205F053FE684606F04AFB307B00946B46B1681B4A019005F11000A8
:2059700005F030F9684606F065FB306900946A461649029005F12C0005F0BEF905F1600003
:20599000514605F04BFE287830B905F17C00002105F044FE0E48686000202872C5F8BC007E
:2059B0000C4AC5F8C0000421234605F1C80005F0A1FE204608B0BDE8F087C0460020008440
:2059D0000428004010040542B9600000FB9F00009DC1000055C000002DE9FC4191EA0308F1
:2059F0004CBF4FF000484FF000084FEA03354FEA153556006D414FEA43075FEA575711BF7C
:205A100045F4001500210020BDE8FC814FF4E06E1EF1FF0E77456FD04FEA01334FEA133331
:205A300042005B414FEA4104640D11BF43F4001300210020BDE8FC8174455DD0E41B002106
:205A500000205FF0360EAB4200D1B24205D340414941921B63EB050301E040414941BEF150
:205A7000010E05D053EA020702D052005B41EAE7BEF1200F09D2BEF1160F0CD3CEF1200709
:205A900020FA07F100FA0EF00FE0AEF1200E00FA0EF1002009E001FA0EF1CEF1200720FA34
:205AB00007F741EA070100FA0EF011F4001F02D140004941641E401C51F1000111F4800F37
:205AD0001ABF641C21F4800121F400114FF44077FF37E419DEBF00210020BDE8FC8107F578
:205AF0008067BC4208D249084FEA300041EA045141EA0801BDE8FC810020FF214FEAC1010C
:205B1000C91D4FEA015141EA0801BDE8FC81FEE72DE9F041424C464D8046C8F38140401EC1
:205B300002D0401E2AD025E0284620300168880C20D24FF4804020603A48D0F802204B0A35
:205B5000C1F3033703F0800322F08F02134347EA0302C0F80220D0F801300E1266F3030350
:205B7000C0F80130026801F0E70722F0E70247EA020102E04FF00041204601602F4E301DC1
:205B90000068C0F3C0070FB94020A0624FF40070206406F037FA40F0300084F8C800C8F32C
:205BB000815040B3401E03D0401E1FD002211EE0012005F0F1FC07460420394603F05AFF33
:205BD000042005F0E9FC8742FAD1361F366826F07F4005F0F5FB14480068036807214FF0E0
:205BF0006022300E98474FF4806020600321042003F040FF06E00420012103F03BFF0B482D
:205C100005F0DEFB284600680A4947F6180700F03F0084F8CB0F084E0F803068BDE8F08109
:205C300040A00C400A600840B4010010BD3786006C13005070B00C402C200940AC3F00502C
:205C50002DE9F04304466568A7680E46ADF1140D06F0CDFA95F8D910012903D106F0C0FBD0
:205C7000002072E04FF0010985F8D99006F0B8FB4FF00008C5F888803069286170696861FA
:205C9000307E2876307B287330782870706885F8A480686070694146092828BF494685F85D
:205CB0008C10387B01F0F8FA204604F0F7F9F87E85F88D002046FFF739FD50B9387B01F099
:205CD00017F906F094FA85F8D98006F089FB44463AE0684606F086F9009478791C4A01908D
:205CF00039796B4605F11C0004F06CFF684606F0A1F900941749B8686A46029005F13800FE
:205D100004F0FAFF287830B905F16C00414605F085FC114800E0B068A86003F0F7FFC5F89F
:205D3000A000287B012808D1D5F89C000B4906F0CDF9D5F89C0000B18460094A05F1C4008A
:205D50000421234605F0D6FC204605B0BDE8F08361750000BDA20000A5C1000039A7000030
:205D70000DC100002DE9FC4705466E68D5F80880B76B002F18BF4FF0FF307BD131630024DC
:205D9000F477171C74631BD006F1400906F02FFA82466946484604F034FF00281ED4504658
:205DB00006F01EFB9DF80000316B0870306B736B7F1E00F10100306303F101007063E5D102
:205DD0007078726B316B0128A1EB0201316303D1F36828469847726B14464AE0B763504679
:205DF00006F0FEFA06F003FA234D0746287820B9022005F0FDFA01202870384606F0F0FA57
:205E10001E49086840F400700860D8F80010886B40F4FA608863707808BB716806F1EC07D5
:205E3000384606F0C4F8B8B1B4633846214606F0BEF888B106F0DBF90746287818B1022036
:205E500005F054F92C70384606F0CAFA1027716B306BF777401A3063706BBDE8FC8796F882
:205E70002D0030B1706B20B1B46306F19C0006F0D4F92046BDE8FC8779380020301000400C
:205E90002DE9FF47424C94F8E70000286ED10127384D84F8E770E87C84F8E6006E68C4F856
:205EB0001061684606F086F9002604F10C0001966B468DF8006030490296324604F05EFB14
:205ED0002E4904F130006B46324604F057FB2C4904F154006B468146324604F04FFBA968AA
:205EF00038468847DFF8A48026482A7D08F104030078254D1868C0F3815A22B1BAF1030FAD
:205F100004D184F8E170BAF1030F15D0BAF1020F12D0BAF1010F0CD0022005F069FA04205A
:205F300005F03AFB012804D028683221B1FBF0F10DE004F0FFFE12E0022005F059FABAF1D5
:205F5000030F0CBF4FF47A7142F210712868B1FBF0F1484606F043F9484606F042F940464F
:205F70000068C00802D2304605F042FA00200090BDE8FF87F40C0000F7250000AD7600004C
:205F9000818F00007B380020C0380020B03F0050FC3D00202DE9F8438146D9F8087038685D
:205FB000066CD9F8045046646A6CAB6CA86B16F4F06F0146A2EB03082ED1F00919D27009EC
:205FD00061D389B195F83C40641EA14298BF0C1C4846214604F07AFFA86B001BA86352D198
:205FF00005F19C0006F019F94846414605F060FA49E00029F8D0484604F068FF95F82D10C6
:20601000A86311B900283ED101E00020A86305F19C0006F002F936E0F20A19D24FF0000891
:20603000444602E0A86B401EA86340B34846012104F04CFF3868446814F00F04C0F80480E7
:20605000F0D0286B401E2863686B401E686316E0386844680022202904F00F044260CCBF17
:2060700020270F1C4846394604F030FFC7F12007B845C8BFB8464846414605F019FAEC778D
:20609000484602F0A5FEB0090BD3A96A49B10F46484604F08BFFA86218B94846391D04F015
:2060B000D3F9BDE8F8837047B0B53F494468096880684968006888473E4D012205F1180394
:2060D0001A6050B1217AFF2907D0FF214009217264D2042043F8180C45E0207A00285DD0D2
:2060F000324B3349401E1AD0401E02D0FD3855D051E01D68D4F8B4000570D4F8B870D4F85A
:20611000B400401CC4F8B400781EC4F8B800D4F8B87027B3012F3BD9092202201BE0D4F8BF
:20613000B000401EC4F8B000D4F8B070EFB9D4F8B870A7B10220D4F8A8202072127C2D1FD3
:20615000012F4FEA420242F001022A609CBF0321696001D90B220A6006F032F8B0BD00205D
:20617000207204220A600220F6E7D4F8AC0000781860D4F8AC00022F00F10100C4F8AC0083
:20619000F0D2D4F8B870002FECD100202072052243F8042CE7E7FF202072B0BD04F12C00FC
:2061B00006F03BF8B0BDC046AC0100100828004004280040042800402DE9F84F404C2168BC
:2061D00038B3401E74D18878012808BF4FF0FF3508D0012003F0AEFC0546206800690146A5
:2061F00001208847002005F025FB0746206800690146012088474B2005F008FB06462068BE
:2062100000697F197DB2014605208847761975B250E08878012807D0012003F08BFC2068FA
:20623000006901460120884702F098FC8246022005F000FB8146206800690146012088475F
:206250004C2005F0E3FA8046206800690146052088471A4D012702202F70FEF723FB06464F
:20627000206800690146384688474FF0000B422085F800B005F0B6FA054620680069014688
:20629000384688472068807809EB0A0149B2414449B2761871B201280D446DB20AD15846E4
:2062B00003F048FC06462068006901463846ACE76FF001052846BDE8F88FC046084600208F
:2062D000642700202DE9F04707467D68D7F8089090460E4605F08BFF8246A86A002864D13D
:2062F00005F5847005F07FFF0024EC772E6250466C6206F075F805F07AFF2F4E33788246F1
:2063100023B9022005F074F801203070504606F067F82A49086840F48070086038464146EE
:2063300004F044FEA862C0B93846414604F08CF8A878D0B9A96805F1D00005F038FEE8B1D3
:20635000AC621020E8774946284602F03FFA05F04EFF8246307840B323E0D9F80010886BEC
:2063700040F020008863A87810B12046BDE8F087A96805F1D00005F01AFE10B9686ABDE84B
:20639000F0873846414604F05FF81020AC624946E877284602F01AFA05F029FF82463078F9
:2063B00018B1022004F0A2FE3470504606F018F84FF0FF30BDE8F0877A3800203010004032
:2063D0002DE9FC4191EA03084CBF4FF000484FF000084FEAC32545EA52554FEAC2264FEAAA
:2063F00043077F0D11BF45F0004500210020BDE8FC815FF4E06E1EF1FF0E774555D04FEA33
:20641000C12343EA50534FEAC0224FEA4104640D11BF43F0004300210020BDE8FC8174454C
:2064300043D0E419A3FB0501A3FB06E7A2FB06631EEB030E57F1000751F10001A2FB056356
:206450001EEB060E57F1000751F10001FF1851F10001C01951F100014CBF4FF4806E4FF488
:20647000007E10EB0E0051F1000148BF641C01D4400049415FF44077FF37E41BDEBF00211F
:206490000020BDE8FC8117F58067BC420DD24FEAD02040EA41504FEA41014FEA113141EAD5
:2064B000045141EA0801BDE8FC810020FF21C900C91D090551EA0801BDE8FC812DE9F84F61
:2064D0003A48DFF8D4C0DFF8E0E0DFF8D0A0DFF8D090DFF8D080032700F118010CF110063C
:2064F0000EF124020AF1280509F1180408F120039CE800471036A6F1100080E80047DFF8CF
:206510009CE0BEE8000F2835A5F12800A0E8000FBEE80007A0E800079EE8004380E80043D8
:20653000DFF87CE0BEE800071834A4F11800A0E800079EE8004380E80043DFF868E0BEE8AA
:20655000000F2033A3F12000A0E8000F9EE8004780E80047DFF850E0BEE800072432A2F165
:206570002400A0E80007BEE80007A0E800079EE8004380E80043DFF834E0BEE800071831C7
:20659000A1F11800A0E800079EE800437F1E80E80043ADD1BDE8F88F8844002000400020AB
:2065B0008842002030410020A0400020284200207CB50546084602F06FFB364E024618219B
:2065D000304604F0D3FF05F0F1FA3449103909684C6840F2FF32002380B22C210090304699
:2065F000A04705F017FD1C210246304604F0BEFF05F0CEFA02461421304604F0B7FF05F0A0
:206610008DFB02461021304604F0B0FF284602F00FFB02460C21304604F0A8FF284605F0FD
:2066300065FB1D4C400040F020002070284605F069FB40F010002070284605F0FDF9024629
:206650002821304604F092FF284605F073FB400040F06000E070284605F078FBC00040F02F
:20667000800004F8080C284605F07CFB800040F47C40A4F89300284604F0A4FF024608218B
:20669000304604F073FF4FF48000A4F2091108607CBDC04600A00C4049A10C40B40100100D
:2066B0002DE9F84306467468B56805F0A0FDD4F8881000295FD00F4605F092FE29684868CB
:2066D00020F0020048602968486A20F0030048626869D4F8A0302969084359680968C1F8BB
:2066F00004052968486920F00100486128684FF00108C0F82080304605F010F87E6805F007
:2067100076FD814694F8D80078B116F0704F06D12EB1062004F0EAFC042004F0E7FC02200A
:2067300004F0E4FC002084F8D800484605F058FE387C012804BF022038742969D4F8A0308C
:2067500068694646084306FA00F158680068C1622868B0F1804F14BF09480A483E68806841
:206770008104A6EB9150401E386004F1380005F054FDBDE8F88305F033FEBDE8F883C0463D
:206790000005002030040020F8B505F08DFC02F0EBFA05F0A1FC054605F00C000C2853D039
:2067B000E80826D204F066FF2A4E376804460120014605F0D0F931686143884219D22649A0
:2067D000F020B0FBF7F0241A887C18B1C868A04238BF041C214D2146284605F0D1FD28465F
:2067F00005F0CAFD0120FDF743FD284605F084F92CE0280928D21A4805F034FC0428FAD0E4
:20681000184A690905D220B11168104621F0010103E01046016841F0010101609832106892
:206830004FF0805540F003001060D5F8B8018169202088470C4CD5F8B8712068B86B804752
:2068500001202060206801E005F0C3FC05F032FCF8BDC046C40D0000F40C0000083E002055
:20687000004003408C2108402C2009402DE9F0470D4606465FFA85FA280824BF2E48454029
:206890002E494FEA8A03C85885EA00023240C2F300672B4A06EA0504B043224006F4E024CB
:2068B0000243B4F5E02F01D1500E14D306F4E020074310D002F4E027B7F5A02707D0B7F59D
:2068D000803704BF22F4003242F4A02203E022F4803242F4C022DFF86C80CA5008F1D0077E
:2068F00039680122002002FA0AF40C4218BF101C5FEA000906D1F00D04D34146C5F380504D
:2069100001F80A00300E0BD305F071FC290E34BF0021211C3A68A2431143396005F060FD98
:20693000B9F1000F06D0F00D04D34046C5F3805100F80A10BDE8F087006000A0001008404F
:20695000007F077F002002402DE9F843DFF8C4900446D9F800001F4616460D468047DFF877
:20697000B8802068B0F1FF3F02D0042E03D017B9464630682EE0636873B16069010903D3F7
