:20000000004D00207D810000FDC90110FDC90110FDC90110FDC90110FDC90110FDC901106B
:1C002000FDC90110FDC90110FDC90110FDC90110FDC90110FDC901103BCA0110A4
:20003C00A36100007F1407134D00F1242E1F133FB00A3F0007FF00003040004001400340BF
:20005C0007400F404F40CF40CF41CF43CF47CF4FCF3FCF2FCF1FCF0F000000000F0008000B
:20007C0000003F00000040003F000000040068000E00DC00060043001A00050000000000E8
:20009C00020000003F00000000000400C00000000400C0000000070050C00091007070C033
:2000BC000091007082312100319110B10070018101B100A18231329110B1019111104181DB
:2000DC0041224F40F106007051C0019130181039833108D01831416F3100319110B18314A7
:2000FC0014165B680070251050C00091F4C3C0C02014036F3110410422C0823121003191D6
:20011C0010B163393110410482C082312100319110B163393110A2C082312100319110B1B1
:20013C00501015310514059200703F6452C0311031066131C102426412C1311021397106D0
:20015C005131E102426400708A65996588C0208250398039001E9F4041C001301814181A62
:20017C0089C0308260398039001EA94041C001301914191A3C64369110B1349110B154B0CB
:20019C00007154A064B0F0800022AF404012B09032B053825339533985643F6411C122C1A7
:2001BC00426470C1C26811C1C2C0426470C1C76850C000912772989215161416421053105A
:2001DC00F0C12182313131398139313151B070B272652772999270B262107310F0C331828C
:2001FC002131213981391B107265E2C08231608280318039020061B00071329110B151A0E1
:20021C0061B0277230C2F36800008012B09032B0007050C000912772999262107310F0C39A
:20023C00318221312139813951B070B27E652772989270B242105310F0C1218231313139C9
:20025C00813931311A107E6551A061B02772B0C018693F6401C122C1426401C1C2C04264F5
:20027C00151A3C64359110B153828564C012B09032B000703F6472C281C0426422C111C177
:20029C00426402C011C1426462C031C3426462C311C1426402C311C1426453825339856482
:2002BC00E2C347641122404142C281C8426452C211C1426472C2E1CE426402C281C8426463
:2002DC0002C201C84264B0C0546900703F6442C201C8426452C211C0426472C2E1C0426416
:2002FC0002C001C1426462C001C3426422C101C1426462C301C1426402C301C14264538252
:20031C008564007061B000711214231C7A4D339110B10070329110B17269007061B0007174
:20033C001318321C8649329110B10070339110B17E690070C2C047641510C2C012164764E2
:20035C0041311514C0C0803105145410A07804040070E6C0863101CC161467106182F0C347
:20037C00010417140070067305720B720E7250B00071818060B050A092804122C3458080E5
:20039C00F1C11004301601110114016CD661D761D861D961DA61DB61DC61DE61E061E26148
:2003BC00E461366339639180F2C0210421318280422A1214321601112114016CEE610B6221
:2003DC00F4613963EE610B62F4613963E661E661E661E661E661E6619464E661F964E661D6
:2003FC002A65E6615665E6614667E6611012B0900E720673057210123090A761F0CF3C67F7
:20041C00D4C103C0C0C3546440785091507810926078209270783092807840929078609232
:20043C003078909110824039F00601101031101400924267E661BCA0E2A054A0F08050222A
:20045C001546408000222B470D6240A02D828D318D391082F1C0100409101A824A391A04A2
:20047C001082803910040E10AB10BC10C21063642972E0CF3C6713B003B0C86653B050B02F
:20049C0054B064B013B0A5661082E0223846AE660071418001222B47F08010224B46F02228
:2004BC00184764B03122384263B0CE661082E02238467066386264B06F818F318F3DD0DFD8
:2004DC00FF923C670071418001222B4764B0F0805022654263B01182C1226046CE66056799
:2004FC001182D122524670665262618172818131813D8231823DC0EFF19202933C670B62AA
:20051C00B081C091D381978290A2D3187F4EF30B1316E31CA44AC391E3813B149062BA1C03
:20053C008B46231E8B4AE31C8B4E90B207228B4290A21B1A9662E31CA44AC391E3813B1851
:20055C00AB1CA04E9B1CA24ABC1CA442B2101082D0229D42F0801022A4466364A566A462E0
:20057C00AB1094629B10946200703082F1C0100463B00071A86ABC10E0B00070B281C2913E
:20059C00D281018212185181121841828131813D121CBF4AE2B032B0B0DFF2923C67F1C7F7
:2005BC002114C34E12C86291729131B0E1B0007008C006C000C86091709100700182B081BB
:2005DC00C091D0811018518110180614E18042828231823D201CE44AE2B02122E84632B03B
:2005FC000510A0DFF5923C672122E842E2A032B031824139F0C00104011EF642181610C019
:20061C001030081C04476010103C0610F1C76114FA4E16C8669171818131813D161C014B13
:20063C00769131B006C008C0007061818131813D408280390118F11C174B0114B080C0223C
:20065C001747BCB033B090EFF1920F933C67007003A063B064B0EFB05665007140800022A3
:20067C002B4764B02A65EFA00071408000222B4764B003B03862018262818231823D80EF4D
:20069C00F19202933C6703A05665E661A2806364E66150B00071E661E092D08200223D478C
:2006BC00C0B20070A080F022594330B002C1623101C0A080001E5243F0225343A0F56031D6
:2006DC00603953632010101A136F236E11161216546B0070AD040021490400217D040021E2
:2006FC0081040021110500219105002141060021F8B51047F8B50E4600210125AD0430476E
:20071C000A48037800F00FF89B070BD0124C2078FF2807D0FF2121700E490F2424022043C4
:20073C006031C882F8BDF8B5014800476B020021E54C0000094801E00848000C064C0549E3
:20075C002278FF2A01D1CA7A22706031C8827046801C004700620840A4060021070F080803
:20077C00F0B4084770B503461546012906D0002906D0114A2846FFF7BBFF70BD0F4800E0C5
:20079C000F480524834203D84008641E002CF9DCE340012040031818820B012907D00649BE
:2007BC00002380312846FFF7A5FFE0B270BD0249044B6C31F6E70000835C0000A0BC86238A
:2007DC0000830D2374060021F8B51A4E0546716B1948CC09E401002D11D01849097802293D
:2007FC000FD0007B044372B60120154F4002B847114820380088C109C90704D016E0C07A77
:20081C00F0E7407BEEE70F497463CC61400AC0070CD001208003316B002D01D0014300E0AA
:20083C008143084631630749403948630020B84762B6F8BD80020021880000219B0200218C
:20085C007B3F00004040044010B5224A0021516121498968C90009D42149204BCA0598427B
:20087C004B6B01D8134300E093434B631D49FFF777FF10BD38B51A4D287F002827D11A48F7
:20089C000088C009C00722D1124C606900281ED1684600F045F868460078012817D1684633
:2008BC004078102813D208206061686A4009400120600E4A0021D1620D4A022111600121C9
:2008DC0008432060032108436862206038BD0948804738BD0040044018000021000093081E
:2008FC0080020021CF680000680000210011044080E200E0C33B00000749002800D0042078
:20091C00064A72B60978C90701D0105800E0802062B640B2704700006B02002158600440EE
:20093C0003B40148019001BDA56F000000000000010003000A001F005900EB003902EA049E
:20095C00F9099712EB1FA132784A0A66FA828C9E63B617C964D6EDDEC1E3E0E5FF000000B5
:20097C00002020202020202020202828282828202020202020202020202020202020202053
:20099C002088101010101010101010101010101010444444444444444444441010101010AB
:2009BC00101041414141414101010101010101010101010101010101010101011010101021
:2009DC001010424242424242020202020202020202020202020202020202020210101010E7
:2009FC002000000000000000000000000000000000000000000000000000000000000000BB
:200A1C000000000000000000000000000000000000000000000000000000000000000000BA
:200A3C0000000000000000000000000000000000000000000000000000000000000000009A
:200A5C0000000000000000000000000000000000000000000000000000000000000000007A
:200A7C0000DBDCC0017B000081550000CF93000099420000395D0000694F00009726000049
:200A9C00000000000100000000000000020000000100000003000000100000002000000003
:200ABC00018000C0018000D50180000C0180005D018000CC018000DD8F3F00008F3F0100D0
:200ADC008F3F02008F3F0300903F00018F3F0101903F0002903F00038F3F01048F3F000570
:200AFC008F1208048F3F00048F3F0006513F00007F3F01003F3F04003F3F02003F3F0100B7
:200B1C007F3F02007B756E6B6E6F776E2D696E7374616E63652D6E616D657D007B656D70E4
:200B3C0074792D696E7374616E63652D6E616D657D00C0467B7374617469632D696E7374EB
:200B5C00616E63652D6E616D657D00C0000000002000000040000000600000000000000017
:200B7C00080000000000000006000000020000008600000082000000000000000800000039
:200B9C001000000018000000200000000000004017FF00000000000004000000080000008F
:200BBC0010000000050708FF0080004018FF00000000000005000000000001000000020017
:200BDC00FFFFFFFF7BC80110C5BC0110D9B2011033C20110BDAD0110C1B10110AD8D00003D
:200BFC006DBA011065BB01101DC001102B930000E96C0000D175000055910000513B0000B7
:200C1C00754700000F950000C5710000A149000015950000BD680000800A00002027002078
:200C3C00A80B0000800A0000FC270020C40B00000000000000000000000000000000000049
:200C5C00FFFFFFFFFFFFFFFF00000000000000000101010100C201000300000000000000B6
:200C7C00F5650000A57400000395000095940000994B00008959000000000000010000005D
:200C9C0000000000FFFFFFFF000000000000000040420F00080000000000000000000000A3
:200CBC00001000400600000015000000FF000000000000000201FFFF0000000000000000AD
:200CDC00014000800200C0800908C080054000800740008008400080FE0000007C0C0000CA
:200CFC00242B0020280D00000000000000000000000000000C0C0000D8280020BC0C000034
:200D1C00000000000000000000000000002000400700000011000000FF0000000000000040
:200D3C000403000001000000000000000000000000000000010000000000DBDD00000000D6
:200D5C00D95300005971000001010100DC3000209C0D0000000000000000000000000000A9
:200D7C0000000000000000000000000041B5011095A6011015B80110FF0000000000000027
:200D9C00000002400A29FF0000001C00000000000A000000403900203D910000853E000073
:030DBC002800000C
:201000003C000000000000000000000034100000000000000000000001000000000000004F
:1C10200000000000000000000000000001000000000000000800000000000000AB
:20103C003400000000000000000000006810000000000000000000000100000000000000E7
:14105C00010000000000000000000000080000000000000077
:2010700030000000000000000000000098100000040000000000000001000000FFFFFFFF87
:10109000FF00000001000000080000000000000048
:2010A0002C0000000000000000000000C4100000040000000000000001000000FFFFFFFF2F
:0C10C000FFFFFFFF080000000000000020
:2010CC0038140000E410000095A1011091A70110A1C2011009B2011041B80110A5BC011078
:0810EC0085BC01103400000076
:2010F400280000000000000000000000141100000000000000000000FFFFFFFF0000000093
:081114000800000000000000CB
:20111C00341400003011000065C2011069C101101BC2011091BA011005BC0110E5BB0110EA
:04113C00320000007D
:20114000341400005411000071C20110A5B6011099BF011045B60110B5BA011025BC01104B
:041160003300000058
:201164002400000000000000000000008011000000000000000000000000000008000000AE
:041184000000000067
:20118800240000000000000000000000A41100000000000000000000000000000800000066
:0411A8000000000043
:2011AC00240000000000000000000000C8110000000000000100000000000000080000001D
:0411CC00000000001F
:2011D00000000000D039002004000000000000000000000020000000701000003000000002
:2011F0001C110000D83900200400000000000000000000000C000000301300001800000016
:2012100040110000E039002004000000000000000000000024000000481300001800000099
:2012300000000000E839002004000000000000000000000010000000A01000002C0000006D
:20125000CC100000F03900200400000000000000000000002000000064110000240000009C
:20127000FFFFFFFFF839002004000000000000000000000028000000881100002400000028
:20129000FFFFFFFF003A0020040000000000000000000000580000003C100000340000000C
:2012B000FFFFFFFF083A002004000000000000000000000010000000601300001800000021
:2012D000FFFFFFFF103A00200400000000000000000000001C000000AC1100002400000097
:2012F000FFFFFFFF183A002004000000000000000000000038000000F41000002800000008
:20131000FFFFFFFF203A002004000000000000000000000054000000001000003C000000A3
:1813300018000000000000000000000040130000080000000000000032
:1813480018000000000000000000000058130000080000000000000002
:18136000180000000000000000000000701300000800000000000000D2
:0813780001000000B40D0000AB
:041384000100000064
:0413880000000E0053
:04138C0000000F004E
:041390003200000027
:041394000100000054
:041398006039002098
:04139C00000200004B
:0413A0000000000049
:0413A400FDC901106E
:0413A8000000000041
:0413AC00000000003D
:0413B0000800000031
:0413B4000000230012
:0413B800A838002031
:0413BC00010000002C
:0413C0007839002058
:0413C400080000001D
:0413C8000000000021
:0413CC00000000001D
:0413D0000000000019
:0413D400080000000D
:0413D8000000000011
:0413DC00000000000D
:0413E0000100000008
:0413E400103900209C
:0413E80006000000FB
:0413EC0001000000FC
:0413F000D0370020D2
:0413F40000000000F5
:0413F80000000000F1
:0413FC0000020000EB
:0414000000000000E8
:021406002B00B9
:021408000100E1
:02140A002500BB
:02140C003200AC
:02140E003300A9
:021410003400A6
:021412000100D7
:0114140001D6
:0814180003000000880D000034
:081420000000000000000000C4
:0414280000000100BF
:04142C0000000300B9
:0414300083C4011060
:041434003C14000064
:041438003C14000060
:04143C0000000000AC
:041440009000000018
:041444009000000014
:0414480000000000A0
:04144C0078390020CB
:041450003D930000C8
:041454002000000074
:04145800400D000043
:04145C00E00B0000A1
:0414600009C30110AB
:04146400B37B000056
:041468007B81000084
:04146C0095C801100E
:0414700097C8011008
:041474000000000074
:04147800BE0D0000A5
:04147C00380B000029
:04148000500B00000D
:04148400200B000039
:0214880008005A
:02148A00090057
:02148C0001005D
:02148E0000005C
:01149000015A
:041494000000000054
:041498000000000050
:04149C00000000004C
:0414A0000000000048
:0414A4002F95000080
:0414A8008986000031
:0414AC00898D000026
:0414B000358800007B
:0414B4009D8800000F
:0414B800218A000085
:0414BC00496E000075
:0414C000EB930000AA
:0414C400A57A000005
:0414C800DD8E0000B5
:0414CC0089940000FF
:0414D0000800000010
:0414D40024000000F0
:0414D80018000000F8
:0414DC0028000000E4
:0414E00020000000E8
:0414E4003C000000C8
:0414E8000C000000F4
:0414EC0034000000C8
:2014F0002DE9F843089C582B804617460CBFB9A5BDA5002908BFB8F1000F05D12068411E51
:201510002160302707702AE04FEAE7793E460246083E13D0083E0DD0002908BFB2F1FF3FE0
:2015300004D94B463A4601F0ABFD0BE0B2FBF7F0002107E008071209090902E04807D20846
:20155000C9081043226800FB1783561E0029EB5C26608046137008BFB8F1000FD6D12068D7
:2015700007F0BEFE401EBDE8F8837CB51446002806460D460094B8BF404264230A22C117C0
:20159000FFF7AEFF702D0BD0502D09D00A2E09DA16F10A0F04DD2068411E21603023037080
:2015B000002E01D42B2100E02D212068421E226001702068411E216005707CBDF8B51D469D
:2015D00017460E46044607F08BFE324603460021002A284603DD9342A4BF1119491E27B185
:2015F00005686E1E06602E272F70934208DAD71A30251A4603685E1E06607F1E1D70F9D1EA
:20161000002A0CDD8C420FD80F1B7F1C026811F80139541E04607F1E1370F7D1F8BD0168A4
:201630004A1E026030270F70F8BD2DE9F04F04461546A868ADF16C0D00281A9302D003D5A5
:20165000062000E00120A86089463021BAA68DF8001096E80C00471C2046494605F03AFA2B
:20167000A24638BF89F00049002412E03020087054E09BE80C0003F009FA641E8946824609
:2016900011E09BE80C00504602F0A2FE641C89468246C3A20CCA494605F05FFA0FF2F82B3F
:2016B000EFD34FF0000896E80C00504605F012FA05D0CFA20CCA504605F00CFAD9D3504601
:2016D00006F0E8FC0DF10101199006F043FB00EB0D060419874206F1010618DD3F1A199862
:2016F00007F0C5F90B4602464946504602F07CF89BE80C0003F0CAF98946824606F0CAFC69
:20171000199030307F1E06F8010BE8D101E06F447E1C16F8010D35280ADB314611F8010D36
:20173000401CC2B23A2A0870A0DA6F468F4204D040460DF10107307002E0641C06F8018C00
:2017500014F1030F07DBA868A04212DA022CA4BF641EA04405DA002C04DCC4F10104A8EB73
:2017700004080124287B1A9A801EC1B24046FFF7FCFE384607F0B4FD0026401E844219DCE5
:20179000021B521C002803D4395C302901D004E0302116B92B681B0908D3DDF868C0DCF889
:2017B00000305E1ECCF8006001261970521EA0F10100E7D12868002200F00800304318BFEB
:2017D00001221A9B21463846FFF7F8FE1BB0BDE8F08FC046303132333435363738394142CB
:2017F0004344454600C046C03031323334353637383961626364656600C02DE9FE4F8046B6
:2018100008F101043020924699461946DDF834B001940C9F88F80000104647A20CCA05F0D1
:2018300059F938BF89F00049002612E0302008704DE095E80C0003F029F9761E89468246B7
:201850000FE095E80C00504602F0C2FD761C8946824653A20CCA494605F07FF94EA5F0D313
:201870007F1C35A20CCA504605F034F905D060A20CCA504605F02EF9DBD3504606F00AFCB9
:201890002146009006F066FAF71981190419002FCBF8001016DD009807F0E9F80B46024626
:2018B0004946504601F0A0FF95E80C0003F0EEF88946824606F0EEFB009030307F1E04F802
:2018D000010BE8D114F8010D352810DB214611F8010D401CC2B23A2A0870A7DA884506D182
:2018F000DBF80000CDF80480401CCBF80000002101982170BDE8FE8FF8B51D4617460E465F
:20191000044607F0EDFC3A4631462B465118491E521E0FD4521C002903D48842C8BF665C81
:2019300000DC30261D686F1E521E1F60A1F101012E70F0D1F8BDC0460000000000000000B6
:20195000F0B51546AF681C460246ADF5FE7D002FADF1100D44BF0627AF60266802A80097A1
:201970000B46019003A8FFF748FFAA68029923460746FFF7C1FF20680122B04203D1286873
:20199000000938BF0022029938462346FFF716FE7FB004B0F0BDC04600000000000024408F
:2019B0000000C0FFFFFFDF412DE9F04F164688460746ADF1740DB4681C93002C44BF06242B
:2019D000B4600FF21C3A9AE80C0005F0C6F84FF000050FF21C3932D90FF20C3B9BE80C00CF
:2019F000384605F077F80FF2183A11D904E0C046000000000000F03FBFA20CCA05F06AF811
:201A10002ED09AE80C00384605F064F802D310E09BE8800199E80C004146384603F036F8DF
:201A30009AE80C0005F056F8A5F1010588460746F0D399E80C0005F090F802D910E09AE8F4
:201A5000800199E80C004146384602F0C1FC99E80C00074605F081F805F101058846F0D9D9
:201A7000009402A80B463A46019003A8FFF7C5FE04460298022809D1401E0290204607F01D
:201A90002FFC6D1C0021201800F8011C28461C9D317B2A46FFF769FDB268029920462B46E9
:201AB000FFF72AFF204607F01BFC02990122884203D13068000938BF002220462B46FFF7A0
:201AD0007DFD1DB0BDE8F08F2DE9F04F074616460020ADF17C0D1B9381A4009094E80C005B
:201AF000384605F03AF888460FF20C290CD97EA494E80C00384604F0EDFF05D999E80C00D5
:201B100004F0E8FF02D109E094E88001414638466A4605F091FF0098401E0090307BB56899
:201B30000024A0F14101B5F1FF3F1D9108BF0124A24641280CBF764876481E9030208DF805
:201B5000080099E80C004146384604F0C3FF38BF88F0004899E80C00414604F0BBFF0CD0D0
:201B7000384601AA05F068FF019A41463846C2F1010203F067FD88460746384606F08AFA10
:201B900083460DF1090106F0E5F80446584606F06EFF0B4602464146384601F025FE0FF293
:201BB000681B04EB0D021C940746BAF1000F02F1090453D16D1C15D09BE80C0002F066FF65
:201BD0008846814606F066FA1E99095C04F8011B06F04DFF0B4602464146484601F004FEF3
:201BF0006D1EE9D11D9F641E002F14BF494D484D2178284607F035FB401B082833DB2746F1
:201C10004FF000081D987F1E002814BF414D404D3978284607F025FB401B401C1028B4BF6D
:201C3000295C3021102839701DDB87F80080E9E79BE80C00384602F029FF0D46074606F059
:201C500029FA1E99095C04F8011B06F010FF0B4602462946384601F0C7FD074699E80C0003
:201C700004F038FFE4D10025307B2570412814BF702150211B9A0098FFF777FCB068B0F162
:201C9000FF3F05D10DF1090007F02AFB401EB0601C991B9B0DF1090402462046FFF72CFE4B
:201CB0003168B0682A4601F00801084318BF01221C991B9B2046FFF781FC307B412814BF89
:201CD000782158211B980268531E03601170016830274A1E02601FB00F70BDE8F08FC0466E
:201CF000000000000000F07F000000000000F0FF0000000000002440000000000000000012
:201D1000000000000000F03F0000000000003040E4170000F81700002DE9F04F0646ADF5C7
:201D3000FE7DADF1580D9E9835688A903068984617468B4607F0D4FA01462846CDF824829F
:201D50006D188B958B9988970025814240F29484869591952C4687942F469297BE499491C1
:201D700093914FF0FF338393869981910F468DF810723C4682940778252F08BF271C0FD0C7
:201D9000002F00F079843168899A0078491C316088999047306807786D1C252FF0D1819F20
:201DB00031685C46491C316011E047F010070AE047F0010707E047F0020704E047F0080729
:201DD00001E047F0040781973068401C306030680178B1F12000F4D0C01EEFD00838EAD006
:201DF000801EE5D0C01EE0D02A291CD0929901A80A2204F037FF3068017830290BDB01AA8E
:201E10003A2908DA0146401C3060097802F8011B01783029F4DA9DF80470AFB101A806F0FB
:201E300013F8829010E0E41C24F00304241D54F8041C002903D547F00107819749428291C7
:201E50003168A346491C3160316808782E2830D1491C316008782A281FD0929901A80A22D3
:201E700004F000FF3068017830290BDB01AA3A2908DA0146401C3060097802F8011B0178DC
:201E90003029F4DA9DF80470002F08BF879802D001A805F0D9FF316809E03168E41C24F076
:201EB0000304491C241D54F8040C3160A34683900878819F4C382CD01C3814D0801E25D091
:201ED000801E04D008381ED0801F19D027E03168491C087831606C2818BF47F040070AD1F0
:201EF00047F4807717E03168491C08783160682803D047F02007819711E047F400770AE034
:201F100047F4805707E047F4005704E047F4006701E047F0800781973168491C31600978D9
:201F300030686E298DF8101200F10100306000F06E83732900F020830DF20120DDF80882AA
:201F5000859020214FF4FF7201A804F08BFE8598879901700F468D970DF5007C8E9108EB8A
:201F70000D038F910A469092181DCDF814C29DF810728C90642F15DC642F23D0B7F12500D5
:201F900000F0EF821C3800F04A81001F022840F24681133816D0093800F04181801E00F0CD
:201FB0003282AFE1A7F16500022840F23881001F08D0801F012805D9801F18BFB0F1030004
:201FD00040F0A0818399002904D4819820F01000819002E0012083900146B7F1580007D005
:201FF000173807D0401E03D0083818BF0A2202D1102200E00822702F00F0B580DDF84892B5
:20201000819843F66073CA461840203800F08D8020387CD0C03863D0B0F5807049D0B0F5AC
:20203000C06038D0B0F5006027D0B0F5805015D0B7F1580000F097800C3800F08B80401F6D
:2020500000F08880801F00F08E80801F00F08B80C01E00F0888090E0FFFF0F00B7F15800EE
:2020700000F081800C3875D0401F73D0801F7AD0801F78D0C01E76D07FE0B7F1580072D09F
:202090000C3867D0401F65D0801F6CD0801F6AD0C01E68D071E0B7F158002FD00C382DD0C6
:2020B000401F2BD0801F29D0801F27D0C01E25D063E0B7F158000AD00C384BD0401F49D0C1
:2020D000801F04D0801F18BFB0F1030055D1E41C24F00304241D14F8049C4FF0000A4BE0C1
:2020F000B7F158000AD00C3808D0401F06D0801F04D0801F18BFB0F103003ED1E41D24F0F4
:2021100007040834A4F1080090E8000634E0B7F1580028D00C381DD0401F1BD0801F22D035
:20213000801F20D0C01E28D11DE0B7F158000AD00C380FD0401F0DD0801F04D0801F18BF0A
:20215000B0F1030019D1E41C24F00304241D34F8040C0EE0E41C24F00304241D54F8040CA3
:202170004FEAE07A07E0E41C24F00304241D54F8040C4FF0000A8146A346CB17484654461A
:202190000143234308BF002903D181990B09C0F04F81642F18BF692F08D1002C06DA012308
:2021B00040424FF000018E9361EB040485A900913B462146FFF794F98399401C814227DA72
:2021D0009DF81072782F03D0582F18BF702F11D1819908090FD3702F08BF782785980770D9
:2021F0008598401E85903021017085989DF81072401E859081996F2F40F01A810809C0F092
:20221000178185984278302A00F012813021F5E0859930220A708599491E8591CCE7384686
:20223000A0F16101192998BF20389046B84208BF4FF00108E01D20F0070008308346083876
:2022500003C847F6F07347F6F07E03EA11439E4510D1939C0A4600231200134300221C40CB
:2022700040EA02024FF0FF3303EA020208BF002A40F0A780919C002C40F0A38073460FF210
:20229000C02C03EA11439E450FD1949C0A4600231200134300221C4040EA02024FF0FF3316
:2022B00003EA020208BF002A33D0929C002C30D19CE80C0004F00EFC03D2012281F0004196
:2022D0008F92B7F141021FD0121F15D0521E0ED0521E07D01A3A17D0121F0DD0521E06D0B9
:2022F000521E0FD181AA85ABFFF79FF908E081AA85ABFFF725FB03E081AA85ABFFF754FBB9
:202310009DF81072819993E081AA85ABFFF7DCFB2CE09CE80C0004F0DDFB29D3B8F1000FC5
:2023300014BF4621662185988DF80012B8F1000FA0F10100859014BF4E216E210170859959
:20235000B8F1000FA0F10100A1F10101859114BF49216921017085992B27491E859103242D
:2023700000F8017C85988F94401E859081995DE0B8F1000F14BF4621662185988DF80012A1
:20239000B8F1000FA0F10100859014BF4E216E2101708599B8F1000FA0F10100A1F1010190
:2023B000859114BF49216921017085992D27491E8591042400F8017C8199DDF814C28F944B
:2023D00031E0B8F1000F14BF4E216E2160468DF80012401EB8F1000F859014BF4121612134
:2023F00001708599B8F1000FA0F10100A1F10101859114BF4E216E2102228F9201708598A6
:20241000401E85907CE7E41C24F00304241D14F8047CA34607B90122909281998DF80072EF
:2024300021F0020181916046401E85909DF810728598752F00F101022AD06F2F28D0782F4A
:2024500026D0582F24D0702F22D08F9F1FB17F1E1ED101238E9301F002038E9F8D931FB980
:202470008B0808D32B2100E02D21017085988199521E401E85908D9C274309D1C80807D3C2
:2024900085982021017085988199521E401E859048080ED285988299ADEB000303F2012327
:2024B000994206DB8C9C01A9401A2418A4F5FE7400E001AC1146929A20464FF4FF7306F0BC
:2024D000A2FD909A859022B1879901708598401C85908C99814209D30A46121A2021401E3D
:2024F000521C04F0BFFB8C9887990170819840092AD301A8A0422ED001A8221A302101A834
:2025100004F0B0FB9DF81002782810D058280ED070280CD08D9F8E98074302D18198C008C3
:2025300019D320788DF804003027277013E08198000910D360788DF80500302767700AE01E
:20255000000000000000000001A8241A2021224601A804F087FB01A806F0C2FE909A121809
:2025700004E048A00188012201AF39808A9B889901A8984745197AE0E01C839C20F00300B6
:20259000001D50F8048C8346B8F1000F3AD0DDF80892002C06D4404606F0A2FEA04288BFF1
:2025B000201C02D8404606F09BFE04464C45A8BF81464D44A1450BDD780809D2A9EB04077E
:2025D000002F05DD899A8899202090477F1EF9D1002C07DD274618F8010B899A8899904764
:2025F0007F1EF8D18198A14541DD40083FD3A9EB0407002F3BDD899A8899202090477F1E10
:20261000F9D134E0899A9298889990472FE043F660703840203822D0E0380DD0B0F5807023
:2026300015D0B0F5C06007D0E41C24F00304241D54F8040C056019E0E41C24F00304241D97
:2026500054F8042C2846E91782E803000EE0E41C24F00304241D54F8040C057006E0E41C12
:2026700024F00304241D54F8040C0580A34630688B9981423FF675AB7FB0284616B0BDE848
:20269000F08FC046250070472DE9F04F09AFADF13C0D08900A92388809911E46ADF8180026
:2026B000101C08BF002000F08481002700F101094FF0FF3A4FF0010BB8466CE1252940F054
:2026D00063811078521C0A922D2818BFADF8068005D15846551CADF8060010780A9530280E
:2026F0001CBF4246434605D10A9908785A465B46491C0A912A28CDF80080554616D13068F3
:2027100004930A99CDF808A0C01C4B1C20F00300001D306050F8044C0A93002C087800948A
:2027300018D5ADF806B06442009413E044460AE0610001EBC40140180A99A0F1300408784E
:202750000094491C0A91302801DB3A28F0DBCDF808A004932E282BD10A9908782A2801F1B7
:2027700001010A9111D13068CDF80880C01C20F00300001D306050F8045C002D48BF4546E2
:2027900008782B46491C0A9111E0454643460AE0690001EBC50140180A99A0F130050878ED
:2027B0002B46491C0A91302801DB3A28F0DB02930AB1224604926C2804D04C2818BFADF891
:2027D000048005D10A990878ADF804B0491C0A910BA9CDF80C800FAB07916428059300F0A8
:2027F0008B80692800F08880BDF818C0752872D078286ED06F286AD0702850D063283DD0CA
:2028100073281ED009980A990128A1F101010A9115D96B490C68B5F1FF3F03D0A84288BF85
:202830006D1C00D8099D029508A80AA932466B46A047C7190A99039801F1010974E0404683
:202850002AE030680A99C01C20F00300001D306050F8040CBCF1000F01F10109014608B96F
:2028700055A00146079106F03BFD0390B5F1FF3F5BD0A842C4BF281C039056E03068C01CB6
:2028900020F00300001D306010F8040C5D468DF82C000A990395584601F1010945E00820DA
:2028B00035680490E81C20F00300001D306050F8041C082210230FA804F0A2FB401E079011
:2028D000402101700A99079801F1010929E0082302E0102300E00A230A99306801F101094B
:2028F000C01C20F00300001D306050F8041CAA42BCBF2A1C049210E00A99306801F101095A
:20291000C01C20F00300001D306050F8041CAA42BCBF2A1C04926FF009030FA804F070FBDF
:202930000790059D281A0390009C241ABDF8065000945DB906E008A8202109AA06F032F93F
:20295000009C7F1C641E0094F5D503980546401E039075B9BDF80600E8B10098401E009071
:2029700019D408A8202109AA06F01CF900987F1CF4E70798411C0791017809AA08A806F037
:2029900011F903987F1CE1E708A809AA06F00AF97F1C09F101094A460A9812F8011C401C6F
:2029B00000290A907FF48AAE089808B14146017038460FB0BDE8F08F286E756C6C2900C01B
:2029D000B80D00002DE9F04F924898490068924E4FF4967240F6C413ADF15C0D01244FF007
:2029F00000084FF0020A4FF0F30B8900B2FBF0F21492B3FBF0F21592B1FBF0F01690874841
:202A100000680FA94FF0FF3206F066FEBDF83C70149806F05DFE11AD10A80B9015980C95FF
:202A300006F056FE8DF841808DF842808DF843809F208DF8400003200A9006F0A1FC7948D2
:202A500000680AA906F02DFD814606F091FC744D05EB0725284606F043FC9DF845109DF8E2
:202A7000463055A74A4628180091394604F0CCFE9DF846209DF845304946384606F0D0FA64
:202A900076208DF81C0003AF049413A90694D023059112AA8DF8483030680392394606F06B
:202AB000F6FC8146284606F01BFC9DF84C304AA128184A4604F0A8FEF2208DF848008DF808
:202AD0004940CDF810A013A9CDF8188012AB059130680393394606F0DAFCF4208DF8480022
:202AF000CDF810A013A9CDF818802723059112AA8DF8493030680392394606F0C8FC12A87E
:202B100003908DF848B0049413AA069403A93068059206F0BCFC9DF84C00C008EFD2F7209C
:202B30008DF848000821049412AF069101AA03973068059203A906F0AAFC0DF104090827A9
:202B5000284606F0CDFB19F8012B28A1281804F05BFE7F1EF4D168208DF81C008DF84880CE
:202B700012AF049413AA069403A903973068059206F08DFC0746284606F0B2FB9DF84C3032
:202B90001CA128183A4604F03FFE284606F0A8FB1FA1281804F038FE284606F0A1FBADF8A1
:202BB0003E00214800680FA94FF0FF3206F08CFD169806F08DFD22E7737069207265743D24
:202BD000256420726561642D69643D2530327820253032780D0A00C07265743D25642069DA
:202BF000643D3078253032780D0A00C0253032782000C046424D49313630207265743D2545
:202C1000642069643D3078253032780D0A00C0460D0A00C0AC0D0000BC310020B8310020AC
:202C300020050020D4310020DC31002040420F002DE9F047DFF80CA20746AAF13500DFF896
:202C5000F8810068800880F0E78005F0C1FF814908310B6800261A17990D02F101020AD22A
:202C7000C0F13E0110F10A0F4FEAE101D8BF08218A42B8BF0A1CDFF8C4C1990E0FD2590EAB
:202C90000DD36446143C2168C1F304211629A8BF20392468C4F30464162C0EDB0CE0634C78
:202CB000D4F87C11C1F304611629A8BF20392468C4F30444162C00DB203C5118A146162900
:202CD00005DA11F10A0FB8BF6FF0090100E01521574C584D01F01F0242F4F85222802A68E6
:202CF00012F0030F18BF0126D20828BF46F002060FB146F00406424692F90740041B052C09
:202D100004DA9479B44208BF918865D00F28A0F10F0827DB08EB0014A4F1F0084FEA282EA9
:202D3000BEF1070F88BF4FF0070E7546062D88BF06255CF82570042404EB850465462C590A
:202D5000E41B04F0FF05F70824BFC4F307273D44B70824BFC4F307473D44770828BF05EBA6
:202D7000146501E00025AE465CF82EC0F7080CF0FF0424BFCCF307273C44B70824BFCCF3DF
:202D900007473C44770828BF04EB1C64ADB2A8EB0E27B9EB010105FB07F505F1800504EB4D
:202DB0001524D8BF012103F0FF0334254D435D434FF6FF73B5FBF4F18B4238BF191C8028A6
:202DD00089B2918005DA10F1800FB8BF6FF07F0000E07F20D0719671194800681F2910608B
:202DF0004FF0000008D340F2FF128A4206D24908401C8A42FBD301E01F219180124F0F39A0
:202E1000090940EAC10047EA0001CAF8FB1F0026CAF8FF6FBDE8F0870C490D4F42460820C4
:202E30000F60921D1070BDE8F087C0463C1100506E62084024220840983100209C13005097
:202E5000082009403500094000E7A48030100940FDFDA400AC3F00502DE9F04F0128ADF1EA
:202E7000140D40F0F280DFF81492D9F8DC00012840F0E9800220C9F8DC0006F021FC02902F
:202E9000012005F0E3F820B101210646C9F8DC10D5E006F011FC03906E484FF00008C0F845
:202EB0000080012005F010FE012818BFCDF8008004D1404604F024FF0120009066486E4C8E
:202ED000C0F800801934D4F8FF0F112006F0A4FA00280CBF46460126102006F09DFA08B1A2
:202EF00046F002060F2006F097FA08B146F004060B2006F091FA30B1584800685849006B34
:202F10000246088890470A2006F086FA0028404618BF01204FF0805B0BF5DC7528B12868D8
:202F30005049006B0246088890474F480127076028688069014646F0200088474B480760C9
:202F500006F064FA00F001010191400815D2484806F02EFA8246BAF1040FF8D0BAF1010FA3
:202F700006D1DBF8D801406802464148032190474049086820F0030008604046FFF758FE04
:202F90002868D4F8FF1F806B8047019801280ED0BAF1010F06D1DBF8D801406802463448AB
:202FB000394690473349086840F0030008602A480760286840690146304688470B2006F065
:202FD0002BFA28B128682649C06A0246088890470A2006F021FA28B128682249C06A02468A
:202FF00008889047204807600322C9F8DC201F4BC3F800802868406B014630468847012814
:20301000F8D1042005F022F8124807601A48D4F8FF1F01688909FCD30098012802D13846BB
:2030300004F06EFE06F0E6F9082005F00FF806460398C9F8DC7006F03BFB04F045FC029838
:2030500006F032FB02E0042600E00126304605B0BDE8F08F0C40094000022243B801001016
:20307000020B0000FE0A00002820086080010443004003402422084014100940E031002004
:203090002DE9F0411C4615468C4208BF854282BF00230022E5E0002C08BF002D0AD1002951
:2030B0000EBF00286FF000006FF0000100F0E1F8BDE8F0815FF000085FF0000E002C08BFC6
:2030D0008D429CBF2C1C0025070C47EA01470E0CB44208BFBD429EBF5FEA044444EA154472
:2030F0005FEA0545070A47EA01670E0AB44208BFBD429EBF5FEA042444EA15645FEA0525C7
:20311000470847EAC1774E08B44208BFBD4200F29380870847EA81778E08B44208BFBD42C6
:203130007CD8C70847EA4177CE08B44208BFBD4266D8070947EA01770E09B44208BFBD4217
:2031500050D8470947EAC1674E09B44208BFBD423AD8870947EA81678E09B44208BFBD426D
:2031700024D8C70947EA4167CE09B44208BFBD420DD8E60146EA5566EF01B14208BFB842AC
:2031900001D3C01BB14158EB08085EEB0E0EA60146EA95664FEA8517B14208BFB84201D397
:2031B000C01BB14158EB08084EEB0E0E660146EAD5666F01B14208BFB84201D3C01BB141F3
:2031D00058EB08084EEB0E0E260146EA15762F01B14208BFB84201D3C01BB14158EB08087D
:2031F0005EEB0E0EE60046EA5576EF00B14208BFB84201D3C01BB14158EB08084EEB0E0E8D
:20321000A60046EA9576AF00B14208BFB84201D3C01BB14158EB08084EEB0E0E660046EA7B
:20323000D5766F00B14208BFB84201D3C01BB14158EB08085EEB0E0EA14208BFA84201D34F
:20325000401BA14158EB08085EEB0E0EA34208BFAA423EBF2D0A45EA0465240A89D37346C2
:2032700042461E4617460B46024631463846BDE8F08170472DE9F843814606F0B5F80021BE
:2032900000B90121724E30680028FCD0734D01242D1DEF6A346009B106F0ACF8DFF8B4817B
:2032B000C7F3072008F1BC01086006F09DF8002100B9214630680028FCD02F68346009B1C2
:2032D00006F098F8C7F38440C8F8C00006F08CF80146002001B92046014630680028FCD086
:2032F000ED69346009B106F085F8C5F38120C8F8D000B9F5C061C8F8B81000F0A48098F8C3
:20331000D80068B9C8F8D410D8F8C000C8F8C800D8F8BC70C8F8C470D8F8D060C8F8CC600C
:20333000D8F8D410D8F8BC60002954BF02206FF00100454605F1C8031A6801EB41014018CB
:20335000411000EB917002EBA0021A60D5F8C810C5F8C46000291CDD1E293DDDD5F8CC0075
:2033700030B93429B4BF15391E21C5F8C81025E02A29BABFD5F8C8000B381E20C5F8C800F6
:20339000D5F8C4003F28B4BF401C3F20C5F8C4001FE0D5F8CC00032812D011F10B0FC6BF30
:2033B000D5F8C8000B30201CC5F8C800D5F8C4000028CCBF401E0020C5F8C400032009E01D
:2033D00011F1150FC6BFD5F8C8001530201CC5F8C8000020C5F8CC004FF08058D8F8A40162
:2033F000B5F8C4101C4E40684FF47F4208230746009130463021B847D8F8A4014068042115
:203410004FF400321123074600943046B847D8F8A401B5F8C81040684FF4F802122304463F
:20343000009130460421A047D8F8A401B5F8CC1040684FF440620A2304460091202130461F
:20345000A047BDE8F883002088F8D800BDE8F88300800C40E031002000A00C4000A00C40E8
:203470002DE9F04FADF1840D209001F0E5F804F081FD0024012804D105F0ECFD022808BFD7
:20349000012459490868C0F38150012805D151F80C1C0120090E884004435448007805F0A1
:2034B00023FCDFF84C81DFF84CA1C8F8000030B15246FF2107467F1E02F8011BFBD1209997
:2034D0000968002501F0FF02FE2A1BD0DDF880C052462B46012701F0FF06FF2E0BD0B0420B
:2034F00003D907FA06F6344201D0022079E001F0FF01354353545CF8041F5B1C01F0FF062D
:20351000FE2EEAD1092002F007F93B49209824220823086001A8002106F0C2F84FF00109C1
:2035300001AA3E488DF81C90494606F0B5F8D8F800303BB33A4E00274FF0040BBA4609FAF9
:2035500007F0044218D1054204BF07F0FF0141F4C04104D027482099C05D51F820102748FD
:2035700001F0E6FDF8B24FF0FF3105F0F9FCD8F80030C6F800A001E0C6F800B07F1C361DC9
:203590009F42DCD30AA800213022082306F080F81B4D1D4A2878002410210AAB1290194851
:2035B000009406F071F816A828220823214606F067F8686816AA16491C9014481D94234608
:2035D00006F05AF8134A52F80D0C494620F4F85040F4005042F80D0C0F4BC2F8FF1F204679
:2035F000196021B0BDE8F08FB43F005071310020B4310020BC300020C4310020007FC76775
:20361000940D0000FC3000208D8F000068300020158000000D300940080009401831002004
:203630006C2D0020F8B584460F1C5BD05578684866491678086085B1622D4FF0010003D0FA
:203650009178622918BF00202B2D4FF0010406D091782B2918BF002401E000200446002199
:2036700044B9722E08BF102205D0772E14BF612E202200D00A46612E0CBF80230B1C1A43E5
:20369000002814BF4FF480730B1C002C43EA020214BF40230B1C13437B6108B14FF4004199
:2036B000613E10D0113E02D0761F04D012E00CB141F002010EE0002C14BF0220012001439A
:2036D00041F4C06106E0002C14BF02200120014341F4027160464FF4DB7202F06DFA0028B9
:2036F000386001D50020F8BD3846F8BD70B5394D284602F0FFFD384C206802280BDB0126FA
:2037100055F8181F002903D4284602F0F3FD2068761C8642F4DB70BD70B505462F48006898
:2037300014460E468047204602F0E4FD284632462146FFF777FF04462948006880472046C2
:2037500070BD2DE9F843814624480068884680472449204C0F6857B901224FF0FF33072789
:2037700004F148000A607F1E40F8183BFBD11A490868002300280BDD0546A4F1180252F854
:20379000186FB6F1FF3F03D06D1E03F10103F6D10A2B0ED0DA00984202EB0312144404BFAC
:2037B000401C086000211822204603F05BFA214600E0002148464246FFF734FF04460848EB
:2037D000006880472046BDE8F883C046A0390020FD360000F032002090390020B8390020B6
:2037F000BC390020383A00202DE9FC4F83F0004301E02DE9FC4F1F03FF0847EAD2574FEAFD
:2038100042284FEA43095FEA595906D147EA080A1CBF00210020BDE8FC8F57F000575FF457
:20383000E06E1EF1FF0EF14505D14FF00000190D0905BDE8FC8F002B05D55FF0000AD8F138
:2038500000086AEB07070C03E40844EAD0544FEA40254FEA4106760D08D144EA050A19BF11
:2038700000210020191C101CBDE8FC8F44F00054764504D10020090D0905BDE8FC8F0029B1
:2038900004D55FF0000A6D426AEB0404B6EB090E08D5A2463C465746AA464546D046CEF1EE
:2038B000000E4E46BEF1360F5CBF4FF0000B23E0BEF1000F04BF4FF0000B1AE0CEF1390A33
:2038D000BAF120092EBF08FA09FB07FA0AFB4BEA080BDEF1200A07FA0AFA38BFBA4647FA8D
:2038F0000EF72DBF28FA0EF8AEF1200E4AFA0EF8D04415EB08057C4154EA050A02BF00217B
:203910000020BDE8FC8F002C58BF4FF0000A06D55FF0010A5FF0000E6D426EEB0404A6F182
:2039300001066D006441FAD515F4806E11D005F480794BEA090B15F5806554F1000428BF5D
:20395000761C0BD205F400795BEA090B08BF25F4006525F4E0656D0044EB0404B61CDEBF67
:2039700000210020BDE8FC8F5FF4E06E1EF1FF0E76450AD34FF0000013F00043FF21C90003
:20399000C91D09051943BDE8FC8F270547EA1530210B41EA065141EACA71BDE8FC8F7047FA
:2039B0002DE9FC41654C5E4D5E4EDFF88081624F94F8E410481E0B2866D8DFE800F0802C59
:2039D00043062343062343067B69042907D001220A2945F8212C14BF0220032004E02021B1
:2039F000012045F8211C024684F8E200002045F8390C0827C5F8FF7FC5F8F37F45F8392C99
:203A1000BDE8FC81052914BF09200620002584F8E40035607DE094F8E1700120383D002F0B
:203A3000C5F81B0004BF0620002102D00021F160032084F8E400032045F8010C3160306837
:203A5000800866D294F8E4103748012503290FD00068406800216022052307460091404627
:203A7000B84794F8E400062814BF0A200720CEE7006840680221602205230746009140467F
:203A90000021B8470420C2E705F0F2FDBDE8FC812749002627480E60012505600E2001F006
:203AB000FDFC022004F03CFF84F8E45084F8E360BDE8FC81002038600C25786027E04FF014
:203AD0008056D6F8A00100680146202088472C3D0F2045F8010C41F61D53C5F80330D6F88C
:203AF000A401406800214FF4C07202250723844640460095E047D6F8A401C06800214FF477
:203B1000C072072306464046B0470120386084F8E45004F1780005F0A7FDBDE8FC81C046D9
:203B300039400C4038600C40A401001000A00C402C500C4004800C4034600C40E031002082
:203B50002DE9F0478046D8F80460D8F808700C46ADF1380D05F084FD3178012903D105F07F
:203B70007BFD0020ABE04FF0010986F8009005F073FD207870706078B07060687060A06846
:203B9000B060E068F06020693061207D3075607D7075A07DB075A069B061207F3077607FCE
:203BB00000257077A07F35623563102186F83C10B0772C4674627463B462B46386F82C4043
:203BD00086F82D4086F83D40786801F0A5FD404601F00AFE404602F023FE78B9394800684A
:203BF000C068014638688847786801F057FC05F037FD347005F030FDA0465FE001A821468F
:203C10003022082305F044FDCDF818803A7B0992A246CDF800A02C4AB96806F1800001AB2D
:203C300005F032FD01A828220823294605F028FD396907912549CDF8148006F19C0001AA6A
:203C50002B4605F019FD01A824220823294605F027FDB5788DF81C903DB906F1D0002146B4
:203C700001AA05F019FD1A483061707838B906F1EC00214601AA05F00FFD1648F06001A865
:203C900021462422082305F0E3FC0694ADF8144006F584701049CDF81C800A2201AB05F05F
:203CB000D3FCB969FA6906F1400005F02DFB0B4A06F16C000421434604F09EFF40460EB011
:203CD000BDE8F087D00100109148000085840000FB940000EB94000061650000B1930000DD
:203CF000F0B5064600220C2104201346ADF14C0D05F0A6FC5B4900221346086004200C2191
:203D100005F09EFC4A490860684605F027FA4FF0FF300290019000248DF816408DF81540DB
:203D300001258DF814404FF4E1308DF817402422069040488DF80150082303903E488DF841
:203D500000502146049009A805F0AAFC204609A98DF83C50024605F06FFC384924220823F9
:203D7000086009A8214605F09BFC204609A98DF83C50024605F060FC3B4924220823086008
:203D900009A8214605F08CFC8DF83C50284609A9224605F051FC354908603046694604F0A4
:203DB00007FE3349264D3C22082308602146284605F03EFC0420A8614FF400762E62224F23
:203DD0002F61204BEB6110A005F02AF91F48204923462A4605F028FC1E4D21463C220823A7
:203DF000284605F025FC0320A8612E622F611A4BEB610AA005F014F91848194923462A46EB
:203E100005F012FC13B0F0BD75617274207478207461736B20696E69740A00C0756172742A
:203E3000207278207461736B20696E69740A00C0D831002059940000659400006431002033
:203E50002C3000202025002040420F00382E0020C9610000F02F002020230020E82D002059
:203E7000FD520000DC310020683100206C310020503A00202DE9F84F804692460868DAF859
:203E90000050067800271C46BB46421C242E0A6026D110F8016F521C532E0A6020D1ED1CDE
:203EB00025F003052D1D55F8040CE061CAF80050208B0090A168E269D8F800005346FEF7EE
:203ED000E3FB8346D8F8000010B15844C8F80000DAF800502068E7600127A0EB0B0020600F
:203EF000662E05D0002F64D1E16901200E705FE0208B40B9ED1D25F007050835A5F1080013
:203F100090E8000309E0ED1C25F003052D1D55F8040C04F095FB894680462AA20CCA494616
:203F3000404602F0D7FD28BF002705D2206989F000490127401E206124A20CCA494640463D
:203F500002F00BFE31D3404604F0A4F8064604F08EFD0B46024649464046FFF745FC1DA2CD
:203F70000CCA00F093FD04F023F90146606904220A2303F045F8401EE0612E21017063690D
:203F90002269E06931461B1AE360D21A0A2303F037F8002F08BFE06104D0401EE0612D211B
:203FB0000170E0696169081A02E004A0E0610720E060CAF800505846BDE8F88F28657272D0
:203FD0006F72290000000000000000000000C0FFFFFFDF41000000000088C340B0B545684D
:203FF00084685148297BADF1180D01291AD001462F7E227E637E4D4837F0010741EA020249
:2040100040EA030001904A48009218BF011CA27E1143029195F88D200323FF2A13D0014600
:2040300010460DE0A17E627E237E41F00041024343F00043029195F88D0000933D49019207
:20405000014304230391FE2105F190004DF82310694602F033FAC5F89C00002808BF0020FE
:204070005FD0287B344951F8200001282BD02068B0F1804F14BF22220A22217ED5F89C0011
:2040900004F04EFD2068B0F1804F14BF21220922617ED5F89C0004F043FD2068B0F1804F24
:2040B00014BF24220C22A17ED5F89C0004F038FD95F88D10FF2933D02068B0F1804F14BFD8
:2040D00023220B2228E02068B0F1804F14BF21220922217ED5F89C0004F022FD2068B0F1D9
:2040F000804F14BF22220A22617ED5F89C0004F017FD2068B0F1804F14BF24220C22A17EF0
:20411000D5F89C0004F00CFD2068B0F1804F14BF23220B2295F88D10D5F89C0004F000FD68
:20413000012006B0B0BDC046000480A0004000800004C0A0002000809C0A00004748484977
:204150002DE9F041ADF1280D02F0B8F94C49086010B924A005F064FA00276846242208236F
:204170008DF81870394605F09BFA69463846024605F062FA3B4C69463A466060104605F092
:204190005BFA012160600A461FA004F049FF364C3C2208233946204605F04AFA4FF40076AB
:2041B00001250220DFF8C8803049A0613B462662224625612F48E161414605F035FA2E483D
:2041D0003B4626624146A5612246E0612B48256105F02AFA2B48017817A004F021FF0AB00D
:2041F000BDE8F0814572726F7220696E697469616C697A696E6720626F617264204C454447
:204210002070696E730A00C04C45445320636F6E73747275637465642073656D6170686FE7
:2042300072657320666F72206C6564732025642C2025640A00C046C04C45445320696E691F
:204250007469616C20626C696E6B20636F756E746572203D2025640A00C046C074310020B9
:20427000C83900208C310020782F0020201F002085660000D82E0020201D0020882E0020C6
:20429000B0310020563A00202DE9F04305466E68AF680C46ADF1340D05F0E2F996F8D91064
:2042B000012903D105F0D8F9002084E04FF0010886F8D98005F0D0F94FF00009C6F88890AB
:2042D0002069306160697061207E3076207B307320783070606886F8A490706060694946BE
:2042F000092828BF414686F88C10387B01F014FA284603F029FAF87E86F88D002846FFF7DA
:204310006DFE50B9387B01F0C9F805F0A9F986F8D99005F0A1F94D464CE001A8494630225E
:20433000082305F0B5F906957A790992CDF80090224A397906F11C0001AB05F0A5F901A808
:2043500028220823494605F09BF9B96807911C49059506F1380001AA4B4605F08DF930787A
:2043700078B901A849462422082305F099F906F16C008DF81C80494601AA05F08DF911483A
:2043900000E0A068B06003F0FBFA317BC6F8A000012908D1D6F89C000B4905F031F8D6F876
:2043B0009C0000B18560094A06F1C40004212B4604F022FC28460DB0BDE8F08385600000DD
:2043D000BD7C0000E394000049840000419400002DE9FC4191EA03084CBF4FF000484FF0D1
:2043F00000084FEA03354FEA153556006D414FEA43075FEA575711BF45F4001500210020D4
:20441000BDE8FC814FF4E06E1EF1FF0E77456FD04FEA01334FEA133342005B414FEA41047A
:20443000640D11BF43F4001300210020BDE8FC8174455DD0E41B002100205FF0360EAB42D8
:2044500000D1B24205D340414941921B63EB050301E040414941BEF1010E05D053EA0207DC
:2044700002D052005B41EAE7BEF1200F09D2BEF1160F0CD3CEF1200720FA07F100FA0EF03F
:204490000FE0AEF1200E00FA0EF1002009E001FA0EF1CEF1200720FA07F741EA070100FA29
:2044B0000EF011F4001F02D140004941641E401C51F1000111F4800F1ABF641C21F4800189
:2044D00021F400114FF44077FF37E419DEBF00210020BDE8FC8107F58067BC4208D249086D
:2044F0004FEA300041EA045141EA0801BDE8FC810020FF214FEAC101C91D4FEA015141EA96
:204510000801BDE8FC8170472DE9F041424C464D8046C8F38140401E02D0401E2AD025E072
:20453000284620300168880C20D24FF4804020603A48D0F802204B0AC1F3033703F0800316
:2045500022F08F02134347EA0302C0F80220D0F801300E1266F30303C0F80130026801F086
:20457000E70722F0E70247EA020102E04FF00041204601602F4E301D0068C0F3C0070FB971
:204590004020A0624FF40070206404F0E1FE40F0300084F8C800C8F3815040B3401E03D04B
:2045B000401E1FD002211EE0012004F08DFA07460420394603F068F8042004F085FA87423E
:2045D000FAD1361F366826F07F4004F091F914480068036807214FF06022300E98474FF442
:2045F000806020600321042003F04EF806E00420012103F049F80B4804F07AF928460068DA
:204610000A4947F6180700F03F0084F8CB0F084E0F803068BDE8F08140A00C400A600840E5
:20463000B4010010BD3786006C13005070B00C402C200940AC3F00502DE9F043484C94F8B7
:20465000E700ADF12C0D002877D13D4F387B01250021242284F8E7507E6884F8E60008232A
:20467000C4F80C6101A804F0F3FF002604F10C00069601ABADF8146032490796324604F066
:20469000E3FF314904F1300001AB324604F0DCFF2E4904F1540001AB324604F0D5FFB868CA
:2046B000014628468847DFF8AC8029487B7B0078D8F80410C1F381571BB1032F03D184F8C6
:2046D000E150032F1ED0022F1CD0012F2ED14FF08059D9F8A401204C406803214FF0405296
:2046F0001C230746009131462046B847D9F8A401406831464FF400720923074600952046F3
:20471000B84713E0022004F023F9032F0CBF4FF47A7142F21071114800685434B1FBF0F1AF
:20473000204604F079FF204604F09EFFD8F80000C00802D2304604F00BF90BB0BDE8F083F3
:20475000580D0000AF390000156700004969000071310020B03F005000A00C40AC0D000028
:20477000E03100202DE9FC410746BE6833687D68986B20F4FA609863A86B40B13268916BAC
:204790004FF0FF3041F4FA619163BDE8FC81AA6329630024EC776C630CE09DF80000296BF1
:2047B00008702A6B696BA86B521C2A63491C6963401EA863A86BA0B93168886B40F4FA60DA
:2047D00088636A6B286B69780129A0EB0200286305D1E868296B0346384698476A6B1446C4
:2047F00046E005F14000694603F08CFD0028D4D504F036FF204F8046387820B9022004F054
:20481000A7F801203870404604F026FF1B49086840F4007008603168886B40F4FA6088639C
:204830006878D8B9696805F1EC0004F0F1FE90B9AC6304F015FF0646387818B1022004F026
:204850006FF83C70304604F007FF1022696B286BEA77401A2863686BBDE8FC8195F82D0037
:2048700030B1686B20B1AC6305F19C0004F0CCFE2046BDE8FC81C046723100203010004073
:204890002DE9F8438146D9F808703868066CD9F804504664AA6CA96B686C16F4F06FA0EBD4
:2048B00002082BD1F00910D270095FD309B395F83C40641EA14298BF0C1C4846214603F0CB
:2048D000A3FEA86B001BA86308E091B1484603F09BFE014695F82D00A96318B9A86B002891
:2048F00044D101E00020A86305F19C0004F08CFE3CE04846414603F061FF37E0F00A1AD2F6
:204910004FF00008444603E0A86B401EA863A96B41B34846012103F077FE3868446814F0E7
:204930000F04C0F80480EFD0296B686B491E2963401E686316E0386844680022202904F035
:204950000F044260CCBF20270F1C4846394603F05BFEC7F12007B845C8BFB84648464146C6
:2049700003F02CFFEC77484602F024FCB0090DD3AF6A5FB14846394603F09AFEA862A86A90
:20499000394618B94846091D03F0AAFABDE8F8832DE9F04707467D68D7F8089090460C463E
:2049B00004F05EFEAE6A8246002E64D105F5847004F07CFA2C620024EC7750466C6204F08F
:2049D0004BFE04F04DFE2F4E3378824623B9022003F0BEFF01203070504604F03DFE2A4AA7
:2049F0001068414640F480701060384603F060FEA862C0B93846414603F072FAA878D0B9B5
:204A1000A96805F1D00004F003FEE8B9AC621020E8774946284602F049FA04F021FE82466F
:204A3000307840B323E0D9F80010886B40F020008863A87810B12046BDE8F087A96805F14F
:204A5000D00004F0E5FD10B1686ABDE8F0873846414603F045FA1020AC624946E877284620
:204A700002F024FA04F0FCFD8246307818B1022003F056FF3470504604F0EEFD4FF0FF30FF
:204A9000BDE8F08773310020301000402DE9FC4191EA03084CBF4FF000484FF000084FEABB
:204AB000C32545EA52554FEAC2264FEA43077F0D11BF45F0004500210020BDE8FC815FF4F8
:204AD000E06E1EF1FF0E774555D04FEAC12343EA50534FEAC0224FEA4104640D11BF43F081
:204AF000004300210020BDE8FC81744543D0E419A3FB0501A3FB06E7A2FB06631EEB030EE8
:204B100057F1000751F10001A2FB05631EEB060E57F1000751F10001FF1851F10001C0190C
:204B300051F100014CBF4FF4806E4FF4007E10EB0E0051F1000148BF641C01D440004941B3
:204B50005FF44077FF37E41BDEBF00210020BDE8FC8117F58067BC420DD24FEAD02040EAE3
:204B700041504FEA41014FEA113141EA045141EA0801BDE8FC810020FF21C900C91D0905CB
:204B900051EA0801BDE8FC812DE9F04104466668A7680D46ADF1380D04F062FD96F8DC102E
:204BB000012903D104F058FD00205EE04FF0010886F8DC8004F050FDE968204602F09CFC9C
:204BD0000028F1D12878307068687060287A002130220823F06001A804F05AFD06943A7B28
:204BF000099200250095224AB96806F1100001AB04F04AFD01A828220823294604F040FD17
:204C1000396907911B49059406F12C0001AA2B4604F032FD01A824220823294604F040FD31
:204C300006F160008DF81C80414601AA04F034FD307838B906F17C00294601AA04F02CFD52
:204C50000D4870603572C6F8BC50C6F8C050786800F062FD204603F069F9084A06F1C800E5
:204C70000421234603F0C8FF20460EB0BDE8F081595000005B7B0000DB940000A193000080
:204C90002DE9F8434468836808681D6894F88C6082B2B5F1804F02FA06F21FFA82FE14BFA6
:204CB0002D4D2E4DDFF8B8808A683AB994F88C604246B600975904F1A60206E094F88C605A
:204CD000284FB600BF597244521EAF606A601A6808322A60AF68000143F6F07C10380CEA3F
:204CF00000000743AF601F68B7F1804F14BF1E4D1E4DD1F80490B9F1000F12D1D8894246C2
:204D1000A4F8A6009759AF6004F1A6062E6008681F686646010107F10802103906EA010032
:204D300006E0134989590EEB0906A960761E2E606A60A9680843A860D4F8A0005E69426801
:204D50001969126846EA01009062786A40F003007862BDE8F883C046000500203004002096
:204D7000CC0A0000C40A00001005002040040020BC0A00002DE9F84F3A48DFF8D4C0DFF8FF
:204D9000E0E0DFF8D0A0DFF8D090DFF8D080032700F118010CF110060EF124020AF128050A
:204DB00009F1180408F120039CE800471036A6F1100080E80047DFF89CE0BEE8000F2835E5
:204DD000A5F12800A0E8000FBEE80007A0E800079EE8004380E80043DFF87CE0BEE80007DE
:204DF0001834A4F11800A0E800079EE8004380E80043DFF868E0BEE8000F2033A3F12000CC
:204E1000A0E8000F9EE8004780E80047DFF850E0BEE800072432A2F12400A0E80007BEE879
:204E30000007A0E800079EE8004380E80043DFF834E0BEE800071831A1F11800A0E800073E
:204E50009EE800437F1E80E80043ADD1BDE8F88F68380020E0330020683600201035002071
:204E700080340020083600207CB50546084602F00DFA364E02461821304603F00FFE04F0BE
:204E900061F83449103909684C6840F2FF32002380B22C2100903046A04704F061FA1C2140
:204EB0000246304603F0FAFD04F03EF802461421304603F0F3FD04F0FDF802461021304662
:204ED00003F0ECFD284602F0D3F802460C21304603F0E4FD284604F0D5F81D4C400040F0F4
:204EF00020002070284604F0D9F840F010002070284603F09BFF02462821304603F0CEFD2F
:204F1000284604F0E3F8400040F06000E070284604F0E8F8C00040F0800004F8080C2846F4
:204F300004F0ECF8800040F47C40A4F89300284603F0E0FD02460821304603F0AFFD4FF4E3
:204F50008000A4F2091108607CBDC04600A00C4049A10C40B40100102DE9F843064674680A
:204F7000B56804F07DFBD4F88810002964D004F073FB2968486820F0020048602968486A37
:204F900020F003004862D4F8A0006F6941682A69096847EA0200C1F804052968486920F00C
:204FB0000100486128684FF00108C0F82080304603F036FED4F88800476804F051FB814660
:204FD00094F8D80060B117F0704F03D117B1042003F0A6FC022003F0A3FC002084F8D80009
:204FF000484604F039FBD4F88810087C042803D003200874D4F88810D4F8A00043682A6957
:2050100068691B68474610438740DF622868B0F1804F14BF0A480B48826808689204A0EB51
:205030009250401E0860A06800230246C4F8883030469047BDE8F88304F00EFBBDE8F88347
:20505000000500203004002098B53749826844680968106849688847344B01229A6140B16D
:20507000217AFF2905D0FF214009217257D204224DE0207A002852D0401E19D0401E02D0B5
:20509000FD384CD048E05968D4F8B4000170D4F8B800D4F8B410401E491CC4F8B800D4F8BE
:2050B000B870C4F8B410F7B1012F88BF09222EE0D4F8B000401EC4F8B000D4F8B070A7B94E
:2050D000D4F8B8707FB10220D4F8A8102072097C012F4FEA410141F0010143F8041C94BF53
:2050F00003220B2214E004220FE0D4F8AC0000785860D4F8AC00022F00F10100C4F8AC009A
:2051100005D2D4F8B87017B905220020207202201A6004F0F1F998BDFF20207298BD04F141
:205130002C0004F071FA98BDAC010010042800402DE9F8430C460546E6B2200824BF30484D
:205150004440DFF8C0C0B2002F485CF8021005F4E02E05EA0407BEF5E02F00EA070084EAB3
:20517000010305EA030321EA0501C3F3006740EA010001D1410E14D305F4E0210F4310D099
:2051900000F4E027B7F5A02707D0B7F5803704BF20F4003040F4A02003E020F4803040F481
:2051B000C0206146DFF86480885008F1D0073868F04010F0010905D1E80D03D34046C4F33D
:2051D00080518155280E10D304F04AFA210E03D201210023B14002E00121B1400B463A68A5
:2051F0008A4313433B6004F037FAB9F1000F05D0E80D03D34046C4F380518155BDE8F8835F
:20521000006000A000100840007F077F002002402DE9F843DFF8C4900446D9F800001F46C3
:2052300016460D468047DFF8B8802068B0F1FF3F02D0042E03D017B9464630682EE06368CE
:2052500073B16069010903D3581E03F09FFF606900216160A160E16020F00800216100E003
:20527000606906B9012620F00700012F46EA0006666108BF0025B7F5807F88BF4FF4807713
:20529000B5B97F1C384603F0DBFB4646054630684DB96169656041F48061616180474FF0CC
:2052B000FF30BDE8F883616941F00801616101E0464630686D1C656025617F19A5607F1EB6
:2052D000E7608047D9F8000080470749054A3068116080470020BDE8F883C046B839002052
:2052F000BC390020A0390020FD3600002DE9FE4F314C20680DF10501012203F0D9F89DF875
:205310000500C028F5D12D4EDFF8B480DFF8B4A04FF0DB094FF0C00B08E0DAF80000ADF88D
:20533000027069464FF0FF3204F0CEF9D8F8000069464FF0FF3204F0CFF900273D4631E0AB
:2053500020680DF10501012203F0B2F89DF80530BDF80010C03B20D01B3B16D1206801A908
:20537000012203F0A5F89DF80400BDF80010DD2805D107EB01207F1C06F80090BFB29DF8EF
:205390000400DC280AD1584601E09DF8050007EB01217F1C7054BFB200E00125B7F5807F6C
:2053B00008BFFF27002DCBD0002F18BFFF2FB4D1D8F80000B5E7C046503A0020200500200E
:2053D000B8310020D8310020F8B504F00DF801F091FF04F01BF8044604F00C000C284FD0C0
:2053F000E0081ED203F0C8FB274E376805460120014603F08AFD31686943884211D2234C6D
:205410008220B0FBF7F0291A204604F005F9204604F02AF90120FDF71FFD204603F046FD63
:205430002FE020092CD21A4803F0C2FF0428FAD01849620906D228B10A460846016821F085
:20545000010104E00A460846016841F001010160D2F898004FF0805440F00300C2F89800C1
:20547000D4F8B8018069014620208847D4F8B801094C806B2168804701202060206800E03A
:2054900030BF03F0B7FFF8BDAC0D0000EC310020004003408C2108402C2009402DE9F8435B
:2054B000044604F0DDF881462D48021992F8ED10491ECFB2002F82F8ED704BD12B4D05EB79
:2054D00084052E78698836F07F0788461AD1F10911D24FF08054D4F8B8018069014640460C
:2054F000884704F5DC742068406B0146404688470228F8D121E000EB8800D0F80011002055
:2055100088471AE04FF08054D4F8B801006A014640468847D4F8B801806A01464046884709
:20553000D4F8B801006B01464046884701210D4A0D48116001688908FCD306F03F003F282B
:2055500001D0FFF7ABFF687800F03F003F2801D0FFF7A4FF484604F07FF8BDE8F883C046CB
:20557000E03100202820086028200840D40A0000F8B587684568324C084620383ED0401EF3
:205590004CD0401E47D1287B1678012814BF2A492A49FF2E41EA060125D0D5F89C0001F0A8
:2055B0009DFD70BB3868B0F1804F14BF23220B22D5F89C00314603F0B3FAD5F89C0095F84B
:2055D0008D1002F0AFF9287B85F88D60012813D195F8A40001280FD1D5F89C0021463143EC
:2055F00002F0A2FF08E0D5F89C0095F88D1002F099F9FF2085F88D0000241BE0287B0128F5
:2056100002D04FF0FF3415E095F88D20214601200024114308E06FF001040BE095F88D10A6
:205630000020044641F0004185F8A400D5F89C0002F07AFF2046F8BD0004C0A0002000806A
:205650000000068070B5144602460E46C1F30A50B0B921F0004352EA030024D0104622A281
:205670000CCAFFF713FA2A4B02460E46C1F30A50A342A0F1360003DD10461DA20CCA20E0AB
:2056900040F2FF75854204D110460B46FEF7B1F870BD20186D1E85421ADB002805DD6FF35B
:2056B0001E5141EA0051104670BD10F1360F0BDD36306FF31E5112A641EA0051104696E8FF
:2056D0000C00FFF7E3F970BD4CF25030A04201DA09A000E00CA00F4B2221196003C83346A5
:2056F00003F0FFFE70BDC046000000000000504359F3F8C21F6EA501000000000000F07F3C
:20571000000000000000903C0000000000000000B03CFFFF343A00202DE9F041064603F0AF
:205730009FFF2D4D8046A91991F8ED00421C002881F8ED204AD1294C04EB8604277807F098
:205750003F003F2801D0FFF7E7FF607800F03F003F2801D0FFF7E0FF668837F07F001AD153
:20577000F80911D24FF08054D4F8B801406901463046884704F5DC742068406B014630462F
:2057900088470128F8D121E005EB8605D5F80011012088471AE04FF08054D4F8B801C06933
:2057B000014630468847D4F8B801406A014630468847D4F8B801C06A014630468847012135
:2057D000074A0848116001688908FCD3404603F043FFBDE8F081C046E0310020D40A0000F8
:2057F00028200860282008402B4AF0B538CAADF11C0D02A938C10CCA4FF0805681E80C0072
:2058100084684568D6F8D0112068C9688847216822488A6B10408863206840F2F2714164C3
:2058300095F83C0095F83D202168C0100DEB8000806810434863684603F0E2FE1A4FDFF82D
:2058500064E0D6F8D0112B7FDFF854C06A7FA87F496857F823705EF82260AA695CF820307E
:205870000D46206801993E433343A8470F490A1F106840F010001060086840F0010008600B
:20589000A07DFF2806D0E07DFF2803D0086840F44040086007B0F0BD940B00000DF8FFFFF5
:2058B000800B0000780B0000680B00003010004038B504462568B5F1FF3F12D06369002061
:2058D000990909D3616839B1A268914204D0521A284603F0E1F96369002805D543F4806347
:2058F00063614FF0FF3038BD60682061A060D80924BF23F030036361002038BD2DE9F047F8
:205910000746194CDFF86C8020680FBB8047174A10680025002820DD1549A1462E46924635
:20593000A1F1180454F8181FB1F1FF3F0CD0D9F8000080472046FFF7BBFF0746D8F800009F
:205950008047DAF800003D43761C8642EADB04E080473846FFF7ACFF054640460068804735
:205970002846BDE8F087C046B839002090390020F0320020BC3900202DE9F8430D46064646
:2059900068687468D6F80890002710B9E868002850D02078012814D103F062FED4F8BC10CC
:2059B00049B1D4F8C0108D61C4F8C05003F054FE0120BDE8F883C4F8BC50C4F8C05003F07A
:2059D0004BFE022002F0C4FF04F160084FF0FF31404603F01DFED9F8080003F00DFE3046EA
:2059F000294600F0D7FE0546D9F8080003F000FE207888B9B5F1FF3F08D004F17C004FF009
:205A1000FF3103F005FE207A48B110E003202072022002F085FF0AE0B5F1FF3F01D00127B9
:205A300005E00320207204F12C0003F0EDFD404603F0DAFD3846BDE8F883FEE7264A2DE965
:205A5000F04180460125254815600768002FFCD0234CC02024492060081F03689B0806D284
:205A700050F8040C1F4B000C40F0F0001870002010630E68304600F059FA40463146FFF7EB
:205A9000F3F91A48816D40F21E226FF31F418A4213D901680068C1F30367C0F3034007B131
:205AB0007F1E072805D006280EBF0720801C00F00F000F4947EA001008703046FEF724FDDB
:205AD0000C480068C16802208847402020600A4F3D60BDE8F081C04610100940940222438A
:205AF00000600C4056620840B43F0050BC12005002600840A00100109404604230B517A058
:205B1000ADF12C0D03F08CFA00212422082301A803F0C6FD214D002101AA284603F0BCFDE0
:205B3000214C20481E4A2146006815604FF0FF3203F0D2FD218810A003F072FA88200090B2
:205B50001B491A482022022300F03CFF18B91949FF20088000E0FEE70BB030BD5258207458
:205B700061736B206372656174696E672073656D6170686F72650A004372656174696E674E
:205B900020717565756520726561647920627566666572203D2025640A00C0463431002046
:205BB000C8310020B8310020D0310020A03100209C300020C03100202DE9FC47294C8A4606
:205BD0002168009088472849284D086848B901232846072700220B6018307F1E40F8082BD9
:205BF000FBD12846214600F1180400E00834DFF8809000F15002A24206D14C462068804705
:205C10004FF0FF30BDE8FC872268002AEED108688047684601F0D1F906467089641BE21015
:205C30009046400806D2F0680346009851469847074601E04FF0FF374C462068002F48BFBC
:205C5000B84609D405EBC8052E6071896F608A083CBF41F0010171818047206880474046F7
:205C7000BDE8FC87B83900203C3A002080370020BC39002008B5FEF7DFFC2A48FDF7F0FB7B
:205C900010B110A003F0CCFC02F086FCFEF756FA12A003F0C5F902F09BFCFFF72FFF1BA044
:205CB00003F0BEF9FFF766F80020FEF719F802F057FC00F08DF902F0E1FA03F091FC002088
:205CD00008BDC0464572726F7220776974682050494E5F696E69740A00C046C02A2A2A4259
:205CF00055494C442054494D4520444154452031333A31343A32392044656320203620321D
:205D1000303137202A2A2A0A00C046C0676F696E6720746F20726164696F207365747570D6
:205D30000A00C046DC0C00002DE9F0470F46054638686C68D5F8089000284AD003F090FCD4
:205D5000D4F8881021B103F087FC0320387440E001263E74C4F8887003F07EFCD7F804804B
:205D700003F07EFC824694F8D80068B918F0704F05D1B8F1000F02D0042002F0E9FD022014
:205D900002F0E6FD84F8D860504603F065FCD9F80010486840F00200486028463946FEF733
:205DB0006FFFD9F80010486940F001004861207828B961686C34204603F02AFC10B1304661
:205DD000BDE8F0872846FFF7C7F82046002103F01FFC0020BDE8F08798B504462068B0F1E3
:205DF000FF3F05D06269500904D342F480626261002098BD100A05D320460021022201F0A7
:205E100011FC626990094FF0000104D2D00924BF42F02002626167684FB9D00807D202F09E
:205E3000070220464FF48073FFF7F2F90146E2680020226101B9012098BD80B50168B1F128
:205E5000FF3F05D04269910904D342F480624261002080BD53094FF0000104D2D30924BFBA
:205E700042F010024261476847B9D30806D202F007024FF48073FFF7CBF90146002001B9BD
:205E9000012080BD264838B560300468B4F1FF3F08BF002403F0DAF92248234B002501218A
:205EB0001038056003F15C0001601448016001F07BFF1348006820B1124800682046FFF79A
:205ED000BDFD114811490560114C0A686FF35B4244EA020008600F490868C0F301300128A5
:205EF00006D10A680C48104040F400320A6008600A4908680028FCD138BDC0460822044349
:205F100080012843000120438C210840482003400000390104000940FFFFFCFC0C0068424E
:205F3000BC1200509404604200600C4070B5234C234D0646B00E11D2700E0FD380202074C8
:205F50004FF6D801A4F85110207000F001FFD0352868C0F30420162806DB04E02868C0F3E4
:205F70000460162800DB203800EB2670401C162805DA10F10A0FB8BF6FF0090000E0152034
:205F9000104D00F01F0040F4F850A4F859002868800803D20C490020086001E046F040668D
:205FB0000A49F00EB50E80F0010000F00100086085F0010000F00100886070BD15620840B8
:205FD000B81200500000094094042A430000204310B5ADF1300D08A803F0B2F9002408A923
:205FF00020468DF8204002F06BFC2149086010B911A003F015F81B481B4900F05FFA184930
:206010000860684603F058F98DF80C4049F640408DF800400323049008228DF81830694661
:206030000592204602F0ACFC1049086010B907A002F0F6FF0CB010BD4932432064696420E9
:206050006E6F74206F70656E00C046C053504920646964206E6F74206F70656E00C046C001
:20607000303A002080310020C0390020D4310020BC310020B0B501468B681C68E26948684C
:206090002262520824D2D0F8A01049680A685D69D2F80415294206D01C68616A21F0020134
:2060B0006162C2F80455D2F8042519690A4231D01A68516A21F001015162D0F8A01049680C
:2060D0001A6909683830C1F8042503F09DFAB0BD1C68626922F001026261D0F88870B7B924
:2060F000626822F0020262601C68626A22F003026262D0F8A0005F6944681A69236847EAA8
:206110000200C3F80405084602F08AFDB0BD0846FEF722FFB0BD7047F0B520480127F8427E
:2061300001D001F0B7FE204D204F214EBD4206D203CD0478A4003459401CA047F6E71D48B4
:20615000002800D08047164D164FBD4202D210CDA047FAE7F0BD03251BE0416808300A1C59
:206170002A400BD11A1C2A40AB4305D0046804300C600431043BF9D1131C05D0047801306B
:206190000C700131013BF9D1021C2A4001D0A84304300368002BE0D17047C046FFFFFFFFC3
:2061B0000000000000000000209A0000A09A0000BC99000055C501102DE9FC471E4E1F4F28
:2061D0001F4DDFF880A0DFF88090DFF88880D9F8000069464FF0FF3203F07EFA2868514604
:2061F000012202F083F9002415E0BDF8001004EB01217B5CB3F1C002337006D01B3A1CBF29
:20621000311C012203D1114900E01149022202F06DF9641CA4B2BDF802102868A142E4DC4A
:206230005146012202F062F9D8F8000069464FF0FF3203F049FACAE770310020200500206B
:20625000503A00207F0A0000DC310020560D00007D0A0000B8310020002A4AD05FEA000C42
:206270008B071CD1830722D1102A08D370B4103A78C978C0103AFBD270BC103238D0042A5B
:206290002CD3082A05D30C2A24BF08C908C008C908C008C908C092072AD0920F22E00B7848
:2062B0000370491C401C521E22D08B07F7D1C30714D18307D8D0121F12D308C903801B0C6C
:2062D0004380001D121FF8D20AE008C903701B0A43701B0A83701B0AC370001D121FF4D249
:2062F000121D05D00B780370491C401C521EF9D160467047F8B5044625686769B5F1FF3F04
:2063100007F4805702D0FFF7D3FA10B14FF0FF30F8BD6069000907D36068401E02F036FF29
:20633000606920F00800606100206060A060E060206801F053FB06464FF0FF30206057B182
:206350000F48006880470F4800EB051002F0FEFB0D48006880473046F8BD38B5084C05462A
:2063700020688047206880472846FFF7C3FF064C05462068804720688047284638BDC046A5
:20639000B8390020CC2C0020BC390020F8B50546214800680C4680472046FFF71DFD1F4EEA
:2063B000002830D0606900F00700042819D0A068E168814204D82046FFF77AFAF8B9A06857
:2063D000411CA160EFB207706069800805D30A2D03D12046FFF76CFA88B930688047384623
:2063F000F8BD20688DF800506946012202F054FCB0F1FF3F03D030688047E8B2F8BD61693D
:2064100041F480616161306880474FF0FF30F8BD0349FFF7BBBFC046B8390020BC3900202A
:20643000083300202DE9F8432020EFF3118780F31188214CA068012103F0CEF84FF0010941
:206450004FF0000865692168A4F81C906A1A2168A4F81E80461B401A904227D387F3118865
:2064700040464519361A4846294603F0B1F8B042F7D92021EFF3118781F31188E18B01291F
:2064900003D14046294603F0A3F8B0F1FF3F06D0A169801B814238BF081C411901E0A06919
:2064B000291803F091F8A4F820902560A4F81C8087F31188BDE8F883780100202DE9F843E9
:2064D000DFF87C900F4604464FF0FF31484603F09FF8DFF870801D4800210AE0FF2A07D06C
:2064F0000368934202D958F822600EB1002421E0491C1FB117F82120FE2AEFD100202060AE
:20651000012660600546A0600EE0FF290BD0636806FA01F048F8214018430B496060126802
:20653000204602F031F96D1C27B107EB85021178FE29EAD1484603F057F82046BDE8F8832E
:20655000183100206C2D0020007FC767B43100202DE9F04107467C68BE6804F5847002F0DA
:20657000A5FC1D49306809688069000923D203F077F81A4D8046287820B1022002F0D0F937
:2065900000202870404603F067F832681449906B20F020009063086820F480700860206AE0
:2065B000616A2569626A401A2062216A2B4638469847BDE8F0814FF4FA70B0FBF1F10129F7
:2065D00098BF012104F58474204603F025F8204603F04AF8BDE8F081AC0D0000733100209D
:2065F000301000402DE9F04107467D68D5F8BC00C8B303F035F81D4E00248046F4600420A1
:206610003060022002F078FF6868D5F8A8102246034638469847022002F082F90CE0806988
:20663000C5F8BC006868D5F8BC102246034638469847022002F074F9D5F8BC00D5F8C010B3
:206650008142ECD12C722046C5F8A800C5F8BC00C5F8C000064B346038461C6001F066FC19
:20667000404602F0F9FFBDE8F081C04604280040100405422DE9F0415FFA80F84046401EBB
:20669000012828D81B481C4A006846F2A8134146B3FBF0F6B2FBF0F510A02B46324602F065
:2066B000BFFC174C154F04EB880420684FF0FF3102F0AEFF38680021012201F09FFE30464F
:2066D00003F006F8386800210A4601F097FE284602F0FEFFE9E7BDE8F081C0464C454453B1
:2066F000202564206F6E202564206F66662025640A00C046AC0D0000E0930400B0310020F6
:206710008C3100202DE9984302F0AAFF1F4CDFF87880814604F1E000007850B94446A06817
:206730000146022088470746102001F08FFC2FB320E000F013FF002820460FD114490968F8
:206750003222B2FBF1F101B9012100F13004204602F062FF204602F087FF0FE04446002213
:20677000A16880F8E020022088470746102001F06DFC1FB1A068014603208847484602F02F
:206790006BFFBDE89883C046580D0000E0310020AC0D000080B54268C2F8A8100868C2F8EF
:2067B000AC004868C2F8B000D2F8B0708868C2F8B400C8681949C2F8B80097B9D2F8A800F5
:2067D000007C400040F0010041F8040C022010720B68DB0917D2D2F8B820022A17D30B22AA
:2067F00016E0D2F8A800007C0123400041F8040CD2F8AC001372431CC2F8AC3000784860E8
:206810000868C00902D34FF0FF3080BD022003220A6002F071FE002080BDC04604280040CE
:20683000F0B58468204A637DA17D257DADF1140D022643F00043FF2942EA050700934568B0
:20685000019708D0E07DFF2805D041F000410243029104260392FE2105F158004DF826106E
:206870006946FFF72BFE6866686E002808BF002018D0617D0F2202F053F9686E217D1022AC
:2068900002F04EF9A17DFF290BD0E07DFF2808D0686E112202F044F9686EE17D122202F0A0
:2068B0003FF9012005B0F0BD0000C0A02DE9F04107467E68BD6802F0D3FEB16A39B92968AD
:2068D0008969090903D202F0C7FEBDE8F0810024B46202F0C1FEA87DFF2806D0E87DFF2869
:2068F00003D03046294600F0E1FA2A681049906B20F020009063086820F48070086002F02E
:20691000AFFE0C4D8046287818B1022002F008F82C70404602F0A0FE716A306A3569726A7D
:20693000401A3062316A2B4638469847BDE8F08130100040733100207CB5042002F0C4F895
:20695000022818D0032816D01A480068C0F38150032814BF41F288324FF47A721748184CD9
:20697000016854342046B2FBF1F102F055FE204602F07AFE7CBD4FF08056D6F8A4010E4DF0
:20699000406803214FF040521C230446009100212846A047D6F8A40101214FF40072092344
