:20000000004D002065800000FDC90110FDC90110FDC90110FDC90110FDC90110FDC9011084
:1C002000FDC90110FDC90110FDC90110FDC90110FDC90110FDC901103BCA0110A4
:20003C00A36100007F1407134D00F1242E1F133FB00A3F0007FF00003040004001400340BF
:20005C0007400F404F40CF40CF41CF43CF47CF4FCF3FCF2FCF1FCF0F000000000F0008000B
:20007C0000003F00000040003F000000040068000E00DC00060043001A00050000000000E8
:20009C00020000003F00000000000400C00000000400C0000000070050C00091007070C033
:2000BC000091007082312100319110B10070018101B100A18231329110B1019111104181DB
:2000DC0041224F40F106007051C0019130181039833108D01831416F3100319110B18314A7
:2000FC0014165B680070251050C00091F4C3C0C02014036F3110410422C0823121003191D6
:20011C0010B163393110410482C082312100319110B163393110A2C082312100319110B1B1
:20013C00501015310514059200703F6452C0311031066131C102426412C1311021397106D0
:20015C005131E102426400708A65996588C0208250398039001E9F4041C001301814181A62
:20017C0089C0308260398039001EA94041C001301914191A3C64369110B1349110B154B0CB
:20019C00007154A064B0F0800022AF404012B09032B053825339533985643F6411C122C1A7
:2001BC00426470C1C26811C1C2C0426470C1C76850C000912772989215161416421053105A
:2001DC00F0C12182313131398139313151B070B272652772999270B262107310F0C331828C
:2001FC002131213981391B107265E2C08231608280318039020061B00071329110B151A0E1
:20021C0061B0277230C2F36800008012B09032B0007050C000912772999262107310F0C39A
:20023C00318221312139813951B070B27E652772989270B242105310F0C1218231313139C9
:20025C00813931311A107E6551A061B02772B0C018693F6401C122C1426401C1C2C04264F5
:20027C00151A3C64359110B153828564C012B09032B000703F6472C281C0426422C111C177
:20029C00426402C011C1426462C031C3426462C311C1426402C311C1426453825339856482
:2002BC00E2C347641122404142C281C8426452C211C1426472C2E1CE426402C281C8426463
:2002DC0002C201C84264B0C0546900703F6442C201C8426452C211C0426472C2E1C0426416
:2002FC0002C001C1426462C001C3426422C101C1426462C301C1426402C301C14264538252
:20031C008564007061B000711214231C7A4D339110B10070329110B17269007061B0007174
:20033C001318321C8649329110B10070339110B17E690070C2C047641510C2C012164764E2
:20035C0041311514C0C0803105145410A07804040070E6C0863101CC161467106182F0C347
:20037C00010417140070067305720B720E7250B00071818060B050A092804122C3458080E5
:20039C00F1C11004301601110114016CD661D761D861D961DA61DB61DC61DE61E061E26148
:2003BC00E461366339639180F2C0210421318280422A1214321601112114016CEE610B6221
:2003DC00F4613963EE610B62F4613963E661E661E661E661E661E6619464E661F964E661D6
:2003FC002A65E6615665E6614667E6611012B0900E720673057210123090A761F0CF3C67F7
:20041C00D4C103C0C0C3546440785091507810926078209270783092807840929078609232
:20043C003078909110824039F00601101031101400924267E661BCA0E2A054A0F08050222A
:20045C001546408000222B470D6240A02D828D318D391082F1C0100409101A824A391A04A2
:20047C001082803910040E10AB10BC10C21063642972E0CF3C6713B003B0C86653B050B02F
:20049C0054B064B013B0A5661082E0223846AE660071418001222B47F08010224B46F02228
:2004BC00184764B03122384263B0CE661082E02238467066386264B06F818F318F3DD0DFD8
:2004DC00FF923C670071418001222B4764B0F0805022654263B01182C1226046CE66056799
:2004FC001182D122524670665262618172818131813D8231823DC0EFF19202933C670B62AA
:20051C00B081C091D381978290A2D3187F4EF30B1316E31CA44AC391E3813B149062BA1C03
:20053C008B46231E8B4AE31C8B4E90B207228B4290A21B1A9662E31CA44AC391E3813B1851
:20055C00AB1CA04E9B1CA24ABC1CA442B2101082D0229D42F0801022A4466364A566A462E0
:20057C00AB1094629B10946200703082F1C0100463B00071A86ABC10E0B00070B281C2913E
:20059C00D281018212185181121841828131813D121CBF4AE2B032B0B0DFF2923C67F1C7F7
:2005BC002114C34E12C86291729131B0E1B0007008C006C000C86091709100700182B081BB
:2005DC00C091D0811018518110180614E18042828231823D201CE44AE2B02122E84632B03B
:2005FC000510A0DFF5923C672122E842E2A032B031824139F0C00104011EF642181610C019
:20061C001030081C04476010103C0610F1C76114FA4E16C8669171818131813D161C014B13
:20063C00769131B006C008C0007061818131813D408280390118F11C174B0114B080C0223C
:20065C001747BCB033B090EFF1920F933C67007003A063B064B0EFB05665007140800022A3
:20067C002B4764B02A65EFA00071408000222B4764B003B03862018262818231823D80EF4D
:20069C00F19202933C6703A05665E661A2806364E66150B00071E661E092D08200223D478C
:2006BC00C0B20070A080F022594330B002C1623101C0A080001E5243F0225343A0F56031D6
:2006DC00603953632010101A136F236E11161216546B0070AD040021490400217D040021E2
:2006FC0081040021110500219105002141060021F8B51047F8B50E4600210125AD0430476E
:20071C000A48037800F00FF89B070BD0124C2078FF2807D0FF2121700E490F2424022043C4
:20073C006031C882F8BDF8B5014800476B020021E54C0000094801E00848000C064C0549E3
:20075C002278FF2A01D1CA7A22706031C8827046801C004700620840A4060021070F080803
:20077C00F0B4084770B503461546012906D0002906D0114A2846FFF7BBFF70BD0F4800E0C5
:20079C000F480524834203D84008641E002CF9DCE340012040031818820B012907D00649BE
:2007BC00002380312846FFF7A5FFE0B270BD0249044B6C31F6E70000835C0000A0BC86238A
:2007DC0000830D2374060021F8B51A4E0546716B1948CC09E401002D11D01849097802293D
:2007FC000FD0007B044372B60120154F4002B847114820380088C109C90704D016E0C07A77
:20081C00F0E7407BEEE70F497463CC61400AC0070CD001208003316B002D01D0014300E0AA
:20083C008143084631630749403948630020B84762B6F8BD80020021880000219B0200218C
:20085C007B3F00004040044010B5224A0021516121498968C90009D42149204BCA0598427B
:20087C004B6B01D8134300E093434B631D49FFF777FF10BD38B51A4D287F002827D11A48F7
:20089C000088C009C00722D1124C606900281ED1684600F045F868460078012817D1684633
:2008BC004078102813D208206061686A4009400120600E4A0021D1620D4A022111600121C9
:2008DC0008432060032108436862206038BD0948804738BD0040044018000021000093081E
:2008FC0080020021CF680000680000210011044080E200E0C33B00000749002800D0042078
:20091C00064A72B60978C90701D0105800E0802062B640B2704700006B02002158600440EE
:20093C0003B40148019001BDA56F000000000000010003000A001F005900EB003902EA049E
:20095C00F9099712EB1FA132784A0A66FA828C9E63B617C964D6EDDEC1E3E0E5FF000000B5
:20097C00002020202020202020202828282828202020202020202020202020202020202053
:20099C002088101010101010101010101010101010444444444444444444441010101010AB
:2009BC00101041414141414101010101010101010101010101010101010101011010101021
:2009DC001010424242424242020202020202020202020202020202020202020210101010E7
:2009FC002000000000000000000000000000000000000000000000000000000000000000BB
:200A1C000000000000000000000000000000000000000000000000000000000000000000BA
:200A3C0000000000000000000000000000000000000000000000000000000000000000009A
:200A5C0000000000000000000000000000000000000000000000000000000000000000007A
:200A7C0000C08F0000008F0001008F0002008F000300900000018F00010190000002900014
:200A9C0000038F0001048F0000058F0008048F0000048A000006510000007F0001003F0041
:200ABC0004003F0002003F0001007F000200DBDC7B756E6B6E6F776E2D696E7374616E63B5
:200ADC00652D6E616D657D007B656D7074792D696E7374616E63652D6E616D657D00C046CD
:200AFC007B7374617469632D696E7374616E63652D6E616D657D00C0000000000800000042
:200B1C0000000000200000004000000060000000000000000600000002000000860000006B
:200B3C008200000000000000080000001000000018000000200000000000004017FF000071
:200B5C0000000000040000000800000010000000050708FF000000000080004018FF000073
:200B7C0000000000050000000000010000000200FFFFFFFF00000000000000000100000054
:200B9C00018000C0018000D50180000C0180005D018000CC018000DD00000000020000008A
:200BBC00010000000300000010000000200000007BC80110C5BC0110D9B2011033C201105D
:200BDC00BDAD0110C1B101103D8E00006DBA011065BB01101DC001107D9400009D690000C2
:200BFC00E176000065920000A9410000914A0000B396000081720000E54E0000B996000008
:200C1C00296A00000C0D000020270020540B00000C0D0000FC270020740B0000000000006B
:200C3C00000000000000000000000000FFFFFFFFFFFFFFFF0000000000000000010101019C
:200C5C0000C20100030000000000000000000000FFFFFFFF000000000000000040420F0025
:200C7C00080000000000000000000000001000400600000015000000FF00000000000000E6
:200C9C000201FFFF0C30002020000000014000800200C0800908C0800540008007400080DB
:200CBC0008400080FE0000006167000079700000A79600003D96000065440000415A00004D
:200CDC00C40C0000242B00203C0D000000000000000000000000000000000000A953000074
:200CFC005D780000000000000000000101010000297A0000F16700004F9500006D4900006B
:200D1C00412C0000C1520000F80B0000D8280020880C000000000000000000000000000080
:200D3C00002000400700000011000000FF0000000000000004030000010000000000000018
:200D5C000000000000000000010000000000DBDD00000000000000000000000000000000BE
:200D7C002C300020A80D0000000000000000000041B5011095A6011015B80110FF000000F6
:200D9C00000000000000000001000000000002400A29FF0001020101D1C0011061AD0110FC
:1B0DBC0000001C00000000000A000000783900204D920000414000002700009E
:201000003C000000000000000000000034100000000000000000000001000000000000004F
:1C10200000000000000000000000000001000000000000000800000000000000AB
:20103C003400000000000000000000006810000000000000000000000100000000000000E7
:14105C00010000000000000000000000080000000000000077
:2010700030000000000000000000000098100000040000000000000001000000FFFFFFFF87
:10109000FF00000001000000080000000000000048
:2010A0002C0000000000000000000000C4100000040000000000000001000000FFFFFFFF2F
:0C10C000FFFFFFFF080000000000000020
:2010CC0038140000E410000095A1011091A70110A1C2011009B2011041B80110A5BC011078
:0810EC0085BC01103300000077
:2010F400280000000000000000000000141100000000000000000000FFFFFFFF0000000093
:081114000800000000000000CB
:20111C00341400003011000065C2011069C101101BC2011091BA011005BC0110E5BB0110EA
:04113C00310000007E
:20114000341400005411000071C20110A5B6011099BF011045B60110B5BA011025BC01104B
:041160003200000059
:201164002400000000000000000000008011000000000000000000000000000008000000AE
:041184000000000067
:20118800240000000000000000000000A41100000000000000000000000000000800000066
:0411A8000000000043
:2011AC00240000000000000000000000C8110000000000000100000000000000080000001D
:0411CC00000000001F
:2011D00000000000283A0020040000000000000000000000200000007010000030000000A9
:2011F0001C110000303A00200400000000000000000000000C0000003013000018000000BD
:2012100040110000383A002004000000000000000000000024000000481300001800000040
:2012300000000000403A002004000000000000000000000010000000A01000002C00000014
:20125000CC100000483A002004000000000000000000000020000000641100002400000043
:20127000FFFFFFFF503A0020040000000000000000000000280000008811000024000000CF
:20129000FFFFFFFF583A0020040000000000000000000000580000003C10000034000000B4
:2012B000FFFFFFFF603A0020040000000000000000000000100000006013000018000000C9
:2012D000FFFFFFFF683A00200400000000000000000000001C000000AC110000240000003F
:2012F000FFFFFFFF703A002004000000000000000000000038000000F410000028000000B0
:20131000FFFFFFFF783A002004000000000000000000000054000000001000003C0000004B
:1813300018000000000000000000000040130000080000000000000032
:1813480018000000000000000000000058130000080000000000000002
:18136000180000000000000000000000701300000800000000000000D2
:0813780001000000CC0D000093
:041384000100000064
:0413880000000E0053
:04138C0000000F004E
:041390003200000027
:041394000100000054
:04139800B839002040
:04139C00000200004B
:0413A0000000000049
:0413A400FDC901106E
:0413A8000000000041
:0413AC00000000003D
:0413B0000800000031
:0413B4000000230012
:0413B800E0380020F9
:0413BC00010000002C
:0413C000D039002000
:0413C400080000001D
:0413C8000000000021
:0413CC00000000001D
:0413D0000000000019
:0413D400080000000D
:0413D8000000000011
:0413DC00000000000D
:0413E0000100000008
:0413E4004839002064
:0413E80006000000FB
:0413EC0001000000FC
:0413F0000838002099
:0413F40000000000F5
:0413F80000000000F1
:0413FC0000020000EB
:0414000000000000E8
:021406002A00BA
:021408000100E1
:02140A002400BC
:02140C003100AD
:02140E003200AA
:021410003300A7
:021412000100D7
:0114140001D6
:08141800030000008C0D000030
:081420000000000000000000C4
:0414280000000100BF
:04142C0000000300B9
:0414300083C4011060
:041434003C14000064
:041438003C14000060
:04143C0000000000AC
:041440009000000018
:041444009000000014
:0414480000000000A0
:04144C00D039002073
:041450008F94000075
:041454002000000074
:04145800540D00002F
:04145C00CC0B0000B5
:0414600009C30110AB
:041464000B70000009
:04146800DB7A00002B
:04146C0095C801100E
:0414700097C8011008
:041474000000000074
:04147800D60D00008D
:04147C00E40A00007E
:04148000FC0A000062
:04148400CC0A00008E
:0214880008005A
:02148A00090057
:02148C0001005D
:02148E0000005C
:01149000015A
:041494000000000054
:041498000000000050
:04149C00000000004C
:0414A0000000000048
:0414A400139700009A
:0414A800B987000000
:0414AC00198E000095
:0414B0009989000016
:0414B400018A0000A9
:0414B800418400006B
:0414BC00B96E000005
:0414C000799500001A
:0414C400CD790000DE
:0414C800D18F0000C0
:0414CC003196000055
:0414D0000800000010
:0414D40024000000F0
:0414D80018000000F8
:0414DC0028000000E4
:0414E00020000000E8
:0414E4003C000000C8
:0414E8000C000000F4
:0414EC0034000000C8
:2014F0002DE9F843089C582B804617460CBFBEA5C2A5002908BFB8F1000F05D12068411E47
:201510002160302707702AE04FEAE7793E460246083E13D0083E0DD0002908BFB2F1FF3FE0
:2015300004D94B463A4602F059F80BE0B2FBF7F0002107E008071209090902E04807D2089C
:20155000C9081043226800FB1783561E0029EB5C26608046137008BFB8F1000FD6D12068D7
:2015700007F05EFF401EBDE8F8837CB51446002806460D460094B8BF404264230A22C1171F
:20159000FFF7AEFF702D0BD0502D09D00A2E09DA16F10A0F04DD2068411E21603023037080
:2015B000002E01D42B2100E02D212068421E226001702068411E216005707CBDF8B51D469D
:2015D00017460E46044607F02BFF324603460021002A284603DD9342A4BFA118491E27B155
:2015F00005686E1E06602E272F70934208DAD71A30251A4603685E1E06607F1E1D70F9D1EA
:20161000002A0CDD8C420FD80F1B7F1C026811F80139541E04607F1E1370F7D1F8BD0168A4
:201630004A1E026030270F70F8BD2DE9F04F04461646B068ADF16C0D0028199302D003D59D
:20165000062000E00120B060884630210FF2083B8DF800109BE80C00471C2046414605F077
:20167000ABFAA14638BF88F00048002412E0302008705AE09AE80C0003F0AAFC641E884688
:20169000814611E09AE80C00484603F033F8641C88468146CAA20CCA414605F0D0FA0FF2AA
:2016B000183AEFD300201A909BE80C00484605F083FA09D01A9DC4A20CCA484605F07CFAE8
:2016D00038BF0125002DD5D1484606F037FC83460DF1010106F0D5FA0DEB000524188742C3
:2016F00005F1010519DD3F1A584607F013FA0B4602464146484602F02BFA9AE80C0003F0A7
:2017100067FC8846814606F019FC83460BF130007F1E05F8010BE7D102E00DEB07056D1CF4
:2017300015F8010D35280ADB294611F8010D401CC2B23A2A08709ADA6F468F4204D01A988A
:201750000DF10107287003E01A98641C05F8010C14F1030F08DBB068A04214DA022C03DBCE
:201770001A98641E001905E0002C05DC1A98C4F10104001B1A900124307B199A801EC1B255
:201790001A98FFF7F2FE384607F04AFE0025401E844219DC021B521C002803D4395C30292E
:2017B00001D004E0302115B933681B0908D3DDF864C0DCF800305D1ECCF800500125197070
:2017D000521EA0F10100E7D13068002200F00800284318BF0122199B21463846FFF7EEFEAD
:2017F0001BB0BDE8F08FC0463031323334353637383941424344454600C046C030313233B6
:2018100034353637383961626364656600C02DE9FE4F0D99441C9946924601900FF2381B57
:2018300000940C9F029130210170194610469BE80C0005F0C1F938BF89F00049002512E041
:201850003020087054E098E80C0003F0C1FB6D1E8946824610E098E80C00504602F04AFFD2
:201870006D1C8946824656A20CCA494605F0E7F90FF24418EFD37F1C9BE80C00504605F032
:201890009BF90AD050A20CCA504605F095F94FF0000638BF0126002ED5D1504606F04EFBDD
:2018B0000646214606F0EDF92418291802987F19002F016017DD304607F02CF90B4602462B
:2018D0004946504602F044F998E80C0003F080FB8946824606F032FB064606F130007F1EE0
:2018F00004F8010BE7D114F8010D352810DB214611F8010D401CC2B23A2A0870A0DA019879
:20191000884205D10299019A08680092401C0860002100982170BDE8FE8FF8B51D46174632
:201930000E46044607F07CFD3A4631462B468918491E521E0FD4521C002903D48842C8BF07
:20195000665C00DC30261D686F1E521E1F60A1F101012E70F0D1F8BD0000000000000000DA
:20197000F0B51546AF681C460246ADF5FE7D002FADF1100D44BF0627AF60266802A8009781
:201990000B46019003A8FFF742FFAA68029923460746FFF7C2FF20680122B04203D1286858
:2019B000000938BF0022029938462346FFF706FE7FB004B0F0BDC04600000000000024407F
:2019D0000000C0FFFFFFDF41000000000000F03F2DE9F0471646B4689A4688460746ADF18D
:2019F000700D002C44BF0624B4600FF2E82999E80C0005F024F94FF000050DD90FF2DC290C
:201A100099E80C00384605F0D7F805D9B5A20CCA05F0D2F812D11FE099E880010EE099E8CA
:201A30000C00384602F066FE6D1C07460FE099E80C0003F0CDFA6D1E88460746ABA20CCAE1
:201A50004146384605F0B8F80FF2A829EFD399E80C0005F0F4F8E2D9009402A80B463A4600
:201A7000019003A8FFF7D3FE04460298022809D1401E0290204607F0D3FC6D1C002100198C
:201A900000F8011C317B28465246FFF76EFDB268029920465346FFF740FF204607F0C0FC0C
:201AB00002990122884203D13068000938BF002220465346FFF782FD1CB0BDE8F0872DE98E
:201AD000F04F074616460020ADF17C0D1B9381A4009094E80C00384605F0B1F888460FF2F1
:201AF00004290CD97DA494E80C00384605F064F805D999E80C0005F05FF802D109E094E85D
:201B10008001414638466A4605F02AFF0098401E0090307BB5680024A0F14101B5F1FF3F38
:201B30001D9108BF0124A24641280CBF754876481E9030208DF8080099E80C004146384647
:201B500005F03AF838BF88F0004899E80C00414605F032F80CD0384601AA05F001FF019ACF
:201B700041463846C2F1010203F0D2FD88460746384606F0E3F983460DF1090106F081F82D
:201B90000446584606F0C6FF0B4602464146384601F0DEFF0FF2641B0DEB04021C940746AB
:201BB000BAF1000F02F1090453D16D1C15D09BE80C0003F00DFA8846814606F0BFF91E9946
:201BD000095C04F8011B06F0A5FF0B4602464146484601F0BDFF6D1EE9D11D9F641E002FD1
:201BF00014BF494D474D2178284607F0D9FB401B082833DB27464FF000081D987F1E00283F
:201C100014BF414D3F4D3978284607F0C9FB401B401C1028B4BF295C3021102839701DDBDC
:201C300087F80080E9E79BE80C00384603F0D0F90D46074606F082F91E99095C04F8011BB7
:201C500006F068FF0B4602462946384601F080FF074699E80C0004F0AFFFE4D10025307B20
:201C70002570412814BF702150211B9A0098FFF77CFCB068B0F1FF3F05D10DF1090007F0FB
:201C9000CFFB401EB0601C991B9B0DF1090402462046FFF742FE3168B0682A4601F0080187
:201CB000084318BF01221C991B9B2046FFF786FC307B412814BF782158211B980268531EFF
:201CD00003601170016830274A1E02601FB00F70BDE8F08F000000000000F07F00000000A5
:201CF0000000F0FF0000000000000000000000000000F03F00000000000024400000000052
:201D100000003040F81700000C1800002DE9F04F0646ADF5FE7DADF1680DA29835688D904B
:201D30003068984617468B4607F07AFB0146CDF8308228468B974919002581428E9140F29A
:201D50004B84899594952C468A942F469597BB49979196914FF0FF330393899901910F46C9
:201D70008DF810703C4602940778252F08BF271C0FD0002F00F0308431688C9A491C3160F2
:201D900000788B999047306807786D1C252FF0D1019F31685C46491C316011E047F01007FB
:201DB0000AE047F0010707E047F0020704E047F0080701E047F0040701973068401C30605A
:201DD00030680178B1F12000F4D0C01EEFD00838EAD0801EE5D0C01EE0D02A291CD0959977
:201DF00086A80A2204F0B0FF3068017830290BDB86AA3A2908DA0146401C3060097802F863
:201E1000011B01783029F4DA9DF81872AFB186A806F000F8029010E0E41C24F00304241D7D
:201E300054F8041C002903D547F001070197494202913168A346491C3160306801782E2950
:201E500031D1401C306000782A2820D0959986A80A2204F079FF3068017830290BDB86AA56
:201E70003A2908DA0146401C3060097802F8011B01783029F4DA9DF81872002F08BF8A986C
:201E900002D086A805F0C6FF0146306809E03068E41C24F00304401C241D54F8041C306064
:201EB000A34603910178019F4C391FD01C3911D0091F21D13068401C306001786C2903D053
:201ED00047F04007019717E0306847F48077401C3060F7E73068401C30600178682918BFEC
:201EF00047F02007EED147F4007701E047F0800701973068401C30603168491C3160007841
:201F10006E288DF8100000F03583732800F0E7820DF21520DDF80880059020214FF4FF72CF
:201F300006A804F011FF05988A9901700F46909791910DF5057C92910DEB0803939103F14F
:201F50001800CDF814C09DF810708F90642F15DC642F23D0B7F1250000F0B6821C3800F049
:201F70000E81001F022840F20A81133816D0093800F00581801E00F0F78174E1A7F165007C
:201F9000022840F2FC80001F08D0801F012805D9801F18BFB0F1030040F0658103990029C7
:201FB00004D4019820F01000019002E0012003900146B7F1580007D0173807D0401E03D0E4
:201FD000083818BF0A2202D1102200E00822702F79D0DDF854920198CA4600F4EC602038BB
:201FF00053D0203843D0C0382AD0B0F580700DD0B7F1580067D00C385CD0401F5AD0801F10
:2020100061D0801F5FD0C01E5DD066E0B7F158000AD00C384ED0401F4CD0801F04D0801F97
:2020300018BFB0F1030058D1E41C24F00304241D14F8049C4FF0000A4EE0C046FFFF0F005A
:20205000B7F158000AD00C3808D0401F06D0801F04D0801F18BFB0F103003ED1E41D24F094
:2020700007040834A4F1080090E8000634E0B7F1580028D00C381DD0401F1BD0801F22D0D6
:20209000801F20D0C01E28D11DE0B7F158000AD00C380FD0401F0DD0801F04D0801F18BFAB
:2020B000B0F1030019D1E41C24F00304241D34F8040C0EE0E41C24F00304241D54F8040C44
:2020D0004FEAE07A07E0E41C24F00304241D54F8040C4FF0000A8146A346CB1748465446BB
:2020F0000143234308BF002903D101990B09C0F05181642F18BF692F08D1002C06DA012327
:2021100040424FF00001919361EB040405A900913B462146FFF7E4F90399401C814227DABF
:202130009DF81070782F03D0582F18BF702F11D1019908090FD3702F08BF7827059807707B
:202150000598401E05903021017005989DF81070401E059001996F2F40F01C810809C0F0B2
:20217000198105984278302A00F014813021F6E0059930220A700599491E0591CCE7384622
:20219000A0F16101192998BF2038DDF85482B84208BF4FF00108E01D20F007000830834682
:2021B000083803C847F6F07347F6F07E03EA11439E4510D1969C0A46002312001343002285
:2021D0001C4040EA02024FF0FF3303EA020208BF002A40F0A780949C002C40F0A380734653
:2021F0000FF2C02C03EA11439E450FD1979C0A4600231200134300221C4040EA02024FF0E5
:20221000FF3303EA020208BF002A33D0959C002C30D19CE80C0004F0CFFC03D2012281F081
:2022300000419292B7F141021FD0121F15D0521E0ED0521E07D01A3A17D0121F0DD0521EEB
:2022500006D0521E0FD101AA05ABFFF7EEF908E001AA05ABFFF784FB03E001AA05ABFFF724
:20227000B7FB9DF81070019994E001AA05ABFFF726FC2CE09CE80C0004F09EFC29D3B8F137
:20229000000F14BF4621662105988DF81412B8F1000FA0F10100059014BF4E216E210170F5
:2022B0000599B8F1000FA0F10100A1F10101059114BF49216921017005992B27491E0591D7
:2022D000032400F8017C05989294401E059001995EE0B8F1000F14BF4621662105988DF829
:2022F0001412B8F1000FA0F10100059014BF4E216E2101700599B8F1000FA0F10100A1F10D
:202310000101059114BF49216921017005992D27491E0591042400F8017C0199DDF814C00E
:20233000929432E0B8F1000F14BF4E216E2160468DF81412401EB8F1000F059014BF41219B
:20235000612101700599B8F1000FA0F10100A1F10101059114BF4E216E21022292920170DE
:202370000598401E05907CE7E41C24F00304241D14F8043C0F46A34603B901278DF81432C5
:202390000199939721F0020101916046401E05909DF810700598752F00F101022AD06F2F48
:2023B00028D0782F26D0582F24D0702F22D0929F1FB17F1E1ED10123919301F00203919F71
:2023D00090931FB98B0808D32B2100E02D21017005980199521E401E0590909C274309D18F
:2023F000C80807D305982021017005980199521E401E059048080ED2059C0298ADEB040132
:2024100001F21521884206DB8F9F06A8241AE419A4F5FE7400E006AC1146959A20464FF4F5
:20243000FF7306F078FE939F059027B18A9901700598401C05908F99814209D30A46121AAA
:202450002021401E521C04F07FFC8F988A990170019840092AD306A8A0422ED006A8221ADE
:20247000302106A804F070FC9DF81000782810D058280ED070280CD0909F9198074302D181
:202490000198C00819D320788DF818003027277013E00198000910D360788DF81900302777
:2024B00067700AE0000000000000000006A8241A2021224606A804F047FC06A806F0B0FF7E
:2024D000939F0246D21904E046A00188012206AF39808D9B8B9906A898472D1877E0E01C32
:2024F000039C20F00300001D50F8048C8346B8F1000F3AD0DDF80890002C06D4404606F0AB
:202510008FFFA04288BF201C02D8404606F088FF04464C45A8BF81464D44A1450BDD7808F3
:2025300009D2A9EB0407002F05DD8C9A8B99202090477F1EF9D1002C07DD274618F8010B9F
:202550008C9A8B9990477F1EF8D10198A1453EDD40083CD3A9EB0407002F38DD8C9A8B99C6
:20257000202090477F1EF9D131E08C9A95988B9990472CE007F4EC67B7F120001FD0E03845
:2025900012D0B0F5807007D0E41C24F00304241D54F8040C056019E0E41C24F00304241D6B
:2025B00054F8040C057011E0E41C24F00304241D54F8042C2846E91782E8030006E0E41CB0
:2025D00024F00304241D54F8040C0580A34630688E9981423FF6BEAB7FB028461AB0BDE899
:2025F000F08FC046250070472DE9F04F09AFADF13C0D08900A92388809911E46ADF81800C7
:20261000101C08BF002000F08481002700F101094FF0FF3A4FF0010BB8466CE1252940F0F4
:2026300063811078521C0A922D2818BFADF8068005D15846551CADF8060010780A953028AE
:202650001CBF4246434605D10A9908785A465B46491C0A912A28CDF80080554616D1306893
:2026700004930A99CDF808A0C01C4B1C20F00300001D306050F8044C0A93002C087800942B
:2026900018D5ADF806B06442009413E044460AE0610001EBC4010918A1F130040A99087825
:2026B0000094491C0A91302801DB3A28F0DBCDF808A004932E282BD10A9908782A2801F158
:2026D00001010A9111D13068CDF80880C01C20F00300001D306050F8045C002D48BF454683
:2026F00008782B46491C0A9111E0454643460AE0690001EBC5010918A1F130050A990878C4
:202710002B46491C0A91302801DB3A28F0DB02930AB1224604926C2804D04C2818BFADF831
:20273000048005D10A990878ADF804B0491C0A910BA9CDF80C800FAB07916428059300F048
:202750008B80692800F08880BDF818C0752872D078286ED06F286AD0702850D063283DD06A
:2027700073281ED009980A990128A1F101010A9115D96B490C68B5F1FF3F03D0A84288BF26
:202790006D1C00D8099D029508A80AA932466B46A0473F180A99039801F1010974E04046AD
:2027B0002AE030680A99C01C20F00300001D306050F8040CBCF1000F01F10109014608B910
:2027D00055A00146079106F02BFE0390B5F1FF3F5BD0A842C4BF281C039056E03068C01C66
:2027F00020F00300001D306010F8040C5D468DF82C000A990395584601F1010945E008207B
:2028100035680490E81C20F00300001D306050F8041C082210230FA804F0B8FB401E07909B
:20283000402101700A99079801F1010929E0082302E0102300E00A230A99306801F10109EB
:20285000C01C20F00300001D306050F8041CAA42BCBF2A1C049210E00A99306801F10109FA
:20287000C01C20F00300001D306050F8041CAA42BCBF2A1C04926FF009030FA804F086FB6A
:202890000790059D281A0390009C241ABDF8065000945DB906E008A8202109AA06F002FA0F
:2028B000009C7F1C641E0094F5D503980546401E039075B9BDF80600E8B10098401E009012
:2028D00019D408A8202109AA06F0ECF900987F1CF4E70798411C0791017809AA08A806F008
:2028F000E1F903987F1CE1E708A809AA06F0DAF97F1C09F101094A460A9812F8011C401C70
:2029100000290A907FF48AAE089808B14146017038460FB0BDE8F08F286E756C6C2900C0BB
:20293000D00D0000BA482DE9F84F0025B94CB749056094F8E200002800F06381012800F039
:202950002F81B54E02283CD0032840F05A8151F8250CD4F8B8100029A0F5C060C4F8D400CC
:20297000B8BF49420028B8BF4042814226DA4FF08057D7F8A4014568B4F8BC0030214FF42E
:202990007F42082300903046A847D7F8A4014568B4F8C00004214FF4F8021223009030461C
:2029B000A847D7F8A401B4F8D070456820214FF440620A2330460097A847012584F8D850F2
:2029D0001AE151F8258C06F0DCFD2F4600B901273946924F38680028FCD0B146012609F1C1
:2029F0000409D9F82CA03E6009B106F0D0FDCAF30720C4F8BC0006F0C4FDAA4600B9B2464E
:202A10003B68002BFCD0D9F800B0BAF1000F3E6001D006F0BCFDCBF38440C4F8C00006F0BF
:202A3000B0FDAA4600B9B2463B68002BFCD0D9F81C90BAF1000F3E6001D006F0A8FDC9F3A1
:202A50008120C4F8D000B8F5C061C4F8B81000F09C8094F8D80068B9C4F8D410D4F8C0002A
:202A7000C4F8C800D4F8BC70C4F8C470D4F8D030C4F8CC30D4F8D410D4F8BC30002954BFB2
:202A900002206FF0010004F1C802176801EB41014018411000EB917107EBA1001060D4F8D3
:202AB000C810C4F8C43000291CDD1E293CDDD4F8CC0030B93429B4BF15391E21C4F8C8108A
:202AD00025E02A29BABFD4F8C8000B381E20C4F8C800D4F8C4003F28B4BF401C3F20C4F89B
:202AF000C4001FE0D4F8CC00032812D011F10B0FC6BFD4F8C8000B30301CC4F8C800D4F852
:202B1000C4000028C4BF401E051CC4F8C450032508E011F1150FC6BFD4F8C8001530301C07
:202B3000C4F8C800C4F8CC504FF08057D7F8A401B4F8C43030214FF47F42456836480093EC
:202B50000823A847D7F8A40104214FF400321123456831480096A847B4F8C860D7F8A40116
:202B700004214FF4F802122345682B480096A847D7F8A40120214FF440620A23B4F8CC606A
:202B9000456825480096A84701E084F8D85040F2FF50404502D8801C40452DD208202EE0CB
:202BB00051F8251C1E4F4BF2F5204843060A3868C0F3814001280AD106F08AF805F0B4FCEC
:202BD00006F0EBFC3111C010484306EBE03694F8E50030B91348006820F07F408019460891
:202BF00001E084F8E5501048310C0660012741600E4D8760287808B90B2000E0052084F820
:202C1000E40001F04DF9BDE8F88FC0462D400C402C500C401432002000A00C4000800C40B8
:202C3000B43F0050102009403C600C40090D00002DE9F04FD0F804A0ADF1140D02908068D0
:202C50008B460390DBF80000002800F0588106F03CFDDAF8881029B106F028FE03208BF807
:202C700010004CE101218BF81010CAF888B006F01DFE9AF8A40038B19AF88D20A249DAF81C
:202C90009C00114305F032FEDBF8047006F01DFD04469AF8D80078B917F0704F06D12FB156
:202CB000042005F0EFFE062005F0ECFE022005F0E9FE01208AF8D800204606F0F7FD039895
:202CD000D0F80080D8F8040040F00200C8F804009AF80070002F019778D1DDF80CC0DBF84C
:202CF0000050DCF81C00A84272D9DBF8086064460EB90AF1A606DBF8047037B9E0890AF161
:202D1000A607AAF8A600DBF80050DAF8140009282CBF4FF002094FF0010975B3DFF8EC818A
:202D3000DAF8140009280FD3D8F800004268398820689047D8F80000C268206869469047E8
:202D5000BDF8000030800EE0D8F800004268397820689047D8F80000C2682068694690477E
:202D70009DF800003070DBF8083003B14E44DBF8043003B14F446D1ED2D1204601684868C2
:202D900020F002004860DBF8047006F09EFC04469AF8D80078B117F0704F06D12FB1062012
:202DB00005F0BEFD042005F0BBFD022005F0B8FD00208AF8D800204606F078FDDAF8881001
:202DD00000200874CAF88800012099E0DBF80050DDF808C0DCF80830DCF804401F6894F86C
:202DF0008C00A9B2B7F1804F01FA00F11FFA81F914BF474E474EDBF80870474957B994F872
:202E10008C004FEA800C084600EB0C018A6904F1A6010AE094F88C004FEA800C084600EB7C
:202E30000C010A6909EB0701491EB2607160014618682A0108303060B56843F6F07E103AF4
:202E50000EEA02021543B5601E68B6F1804F14BF324D334DDBF80470C7B96144D8898F6966
:202E7000A4F8A60004F1A606AF60039A2E60D2F80080DBF800101E689AF8007072460901AE
:202E9000019706F1080010390A4006E061448968A96009EB0701491E29606860A86802436A
:202EB000AA605969D4F8A0701869014378680068019D8162706A40F003007062D8F8140009
:202ED000002D40F00100C8F814007FF47DAFDAF804100AF16C00044606F0BFFA00283FF470
:202EF00073AFDAF88800017C012904BF03210174029802F0DDF92046002106F0AEFA00209C
:202F100005B0BDE8F08FC04600000680C40100100005002030040020940B0000100500201A
:202F3000400400202DE9F04F924898490068924E4FF4967240F6C413ADF15C0D01244FF002
:202F500000084FF0020A4FF0F30B8900B2FBF0F21492B3FBF0F21592B1FBF0F016908748DB
:202F700000680FA94FF0FF3206F09CFCBDF83C70149806F093FC11AD10A80B9015980C9532
:202F900006F08CFC8DF841808DF842808DF843809F208DF8400003200A9006F0B1FA79482B
:202FB00000680AA906F04CFB814606F0A1FA744D05EB0725284606F033FA9DF845109DF864
:202FD000463055A74A4640190091394604F0E0FB9DF846209DF845304946384606F0A8F8FF
:202FF00076208DF81C0003AF049413A90694D023059112AA8DF8483030680392394606F006
:203010001AFB8146284606F00BFA9DF84C304AA140194A4604F0BCFBF2208DF848008DF867
:203030004940CDF810A013A9CDF8188012AB059130680393394606F0FEFAF4208DF848009A
:20305000CDF810A013A9CDF818802723059112AA8DF8493030680392394606F0ECFA12A8F6
:2030700003908DF848B0049413AA069403A93068059206F0E0FA9DF84C00C008EFD2F72015
:203090008DF848000821049412AF069101AA03973068059203A906F0CEFA0DF10409082722
:2030B000284606F0BDF919F8012B28A1401904F06FFB7F1EF4D168208DF81C008DF8488051
:2030D00012AF049413AA069403A903973068059206F0B1FA0746284606F0A2F99DF84C30BD
:2030F0001CA140193A4604F053FB284606F098F91FA1401904F04CFB284606F091F9ADF80C
:203110003E00214800680FA94FF0FF3206F0C2FB169806F0C3FB22E7737069207265743D56
:20313000256420726561642D69643D2530327820253032780D0A00C07265743D2564206974
:20315000643D3078253032780D0A00C0253032782000C046424D49313630207265743D25DF
:20317000642069643D3078253032780D0A00C0460D0A00C0C40D0000DC300020D8300020F1
:2031900020050020F0300020F830002040420F002DE9F047DFF80CA20746AAF13500DFF8FB
:2031B000F8810068800880F0E78005F091FD814908310B6800261A17990D02F101020AD2F7
:2031D000C0F13E0110F10A0F4FEAE101D8BF08218A42B8BF0A1CDFF8C4C1990E0FD2590E46
:2031F0000DD36446143C2168C1F304211629A8BF20392468C4F30464162C0EDB0CE0634C13
:20321000D4F87C11C1F304611629A8BF20392468C4F30444162C00DB203C5118A14616299A
:2032300005DA11F10A0FB8BF6FF0090100E01521574C584D01F01F0242F4F85222802A6880
:2032500012F0030F18BF0126D20828BF46F002060FB146F00406424692F90740041B052CA3
:2032700004DA9479B44208BF918865D00F28A0F10F0827DB08EB0014A4F1F0084FEA282E44
:20329000BEF1070F88BF4FF0070E7546062D88BF06255CF82570042404EB850465462C59A5
:2032B000E41B04F0FF05F70824BFC4F307273D44B70824BFC4F307473D44770828BF05EB41
:2032D000146501E00025AE465CF82EC0F7080CF0FF0424BFCCF307273C44B70824BFCCF37A
:2032F00007473C44770828BF04EB1C64ADB2A8EB0E27B9EB010105FB07F505F1800504EBE8
:203310001524D8BF012103F0FF0334254D435D434FF6FF73B5FBF4F18B4238BF191C802840
:2033300089B2918005DA10F1800FB8BF6FF07F0000E07F20D0719671194800681F29106025
:203350004FF0000008D340F2FF128A4206D24908401C8A42FBD301E01F219180124F0F393A
:20337000090940EAC10047EA0001CAF8FB1F0026CAF8FF6FBDE8F0870C490D4F424608205F
:203390000F60921D1070BDE8F087C0463C1100506E62084024220840B83000209C13005013
:2033B000082009403500094000E7A48030100940FDFDA400AC3F005001282DE9FE4F40F0E5
:2033D000EE80DFF810B2DBF8DC00012840F0E4800220CBF8DC0005F093FD012004F05CFEB5
:2033F0005FEA000805D00120CBF8DC0005F098FDD7E006F07AF96C4902900020086001203D
:2034100005F0CCFB012818BF002003D1002004F0CBF80120654900900020654F08603868DA
:20343000112006F0CDF800280CBF00240124102006F0C6F808B144F002040F2006F0C0F8A0
:2034500008B144F004040B2006F0BAF830B1624814300068574E016B308888470A2006F0A5
:20347000AFF8002600B101264FF0805A0AF5DC75301C04D02868504E016B308888474F4856
:20349000012606602868816944F0200088474C48066006F08FF800F001010191400814D2C9
:2034B000484806F045F88146B9F1040FF8D0B9F1010F05D1DAF8D801426842480321904783
:2034D0004149086820F0030008600020FFF760FE2B683868986B8047019801280DD0B9F1AD
:2034F000010F05D1DAF8D80142683648314690473549086840F0030008602C4806602868C2
:203510004169204688470B2006F05AF820B12868284BC16A188888470A2006F051F820B1A1
:203530002868254BC16A188888472448032206602349CBF8DC2000230B602868416B20468F
:2035500088470128F9D13868042004F0A5FD044615481E490660386808688009FCD30098CB
:20357000012802D1304604F01FF806F010F8082004F092FD07460298CBF8DC6006F086F9BA
:203590001348008803F00CFE05F0CAFC57EA040018BF4FF0FF3804E06FF0040801E06FF05F
:2035B00001084046BDE8FE8F0C400940000222432C200940AC0A0000A80A00002820086091
:2035D00080010443004003402422084014100940040D000014320020A40100102DE9F04122
:2035F0001C4615468C4208BF854282BF00230022E5E0002C08BF002D0AD100290EBF00283E
:203610006FF000006FF0000100F0E1F8BDE8F0815FF000085FF0000E002C08BF8D429CBF2B
:203630002C1C0025070C47EA01470E0CB44208BFBD429EBF5FEA044444EA15445FEA0545A3
:20365000070A47EA01670E0AB44208BFBD429EBF5FEA042444EA15645FEA0525470847EA74
:20367000C1774E08B44208BFBD4200F29380870847EA81778E08B44208BFBD427CD8C708BE
:2036900047EA4177CE08B44208BFBD4266D8070947EA01770E09B44208BFBD4250D847095D
:2036B00047EAC1674E09B44208BFBD423AD8870947EA81678E09B44208BFBD4224D8C709B4
:2036D00047EA4167CE09B44208BFBD420DD8E60146EA5566EF01B14208BFB84201D3C01B64
:2036F000B14158EB08085EEB0E0EA60146EA95664FEA8517B14208BFB84201D3C01BB14114
:2037100058EB08084EEB0E0E660146EAD5666F01B14208BFB84201D3C01BB14158EB080807
:203730004EEB0E0E260146EA15762F01B14208BFB84201D3C01BB14158EB08085EEB0E0E05
:20375000E60046EA5576EF00B14208BFB84201D3C01BB14158EB08084EEB0E0EA60046EAB6
:203770009576AF00B14208BFB84201D3C01BB14158EB08084EEB0E0E660046EAD5766F0032
:20379000B14208BFB84201D3C01BB14158EB08085EEB0E0EA14208BFA84201D3401BA14167
:2037B00058EB08085EEB0E0EA34208BFAA423EBF2D0A45EA0465240A89D3734642461E46AE
:2037D00017460B46024631463846BDE8F0817047F8B584460F1C5BD06848674908605578BF
:2037F000167885B1622D4FF0010003D09178622918BF00202B2D4FF0010406D091782B29F9
:2038100018BF002401E000200446002144B9722E08BF102205D0772E14BF612E202200D0AD
:203830000A46612E0CBF80230B1C1A43002814BF4FF480730B1C002C43EA020214BF4023BC
:203850000B1C13437B6108B14FF40041613E10D0113E02D0761F04D012E00CB141F00201D6
:203870000EE0002C14BF02200120014341F4C06106E0002C14BF02200120014341F402715A
:2038900060464FF4DB7202F04DFA0028386001D50020F8BD3846F8BD70B5394D284602F000
:2038B00073FE384C206802280BDB012655F8181F002903D4284602F067FE2068761C864219
:2038D000F4DB70BD70B505462F48006814460E468047204602F058FE284632462146FFF727
:2038F00077FF0446294800688047204670BD2DE9F843814624480068884680472449204A6D
:203910000F6857B901234FF0FF34072702F148000B607F1E40F8184BFBD11A4908680023AC
:2039300000280BDD14460546183C54F8186FB6F1FF3F03D06D1E03F10103F6D10A2B0ED086
:20395000DC00984204EB0314144404BF401C086000211822204603F0F7F9214600E00021B0
:2039700048464246FFF734FF04460848006880472046BDE8F883C046F8390020A938000071
:2039900028330020E8390020103A0020143A0020843A00202DE9F04FADF1240D079001F0F9
:2039B000FDF86148007805F03DF8604D0024012808D90A380FD0801E04D0401E0ED0401EAF
:2039D00009D006E005F0CEFB022804BF01210C1C06D0696805E005211F2401E003210724FE
:2039F0006960534A1068C0F38150012806D152F80C0C0127020E07FA02F0044305F068FD27
:203A1000524AFF230818401E471C28607F1E02F8013BFBD1079A1268002702F0FF03FE2B71
:203A300020D0DDF81CC096463B4601260EF0FF02FF2A10D0904205D3914203D806FA02F2FD
:203A5000144201D002206CE017430EF0FF02DFF8FCE00EF802305CF804EF5B1C0EF0FF02C0
:203A7000FE2AE5D1092002F0BBF907980121A86005F1280005F0D4F805F19806A8464FF020
:203A9000010A4FF0040B0025A9460AFA05F0044216D1074204BF05F0FF0141F4C04104D078
:203AB0002A480799405D51F82010224801F0E6FCE8B24FF0FF3105F0DBFAC6F8009001E08F
:203AD000C6F800B0D8F800006D1C361D8542DCD904A805F0DDFC184C184A2078102104AB88
:203AF000059008F10C0004F0C3FC684605F0F8FCCDF80C906A4660681149029008F16400B0
:203B100004F030FD0F4951F80D0C20F4F85040F4005041F80D0C0C4FC1F8FFAF4846C7F879
:203B300000A009B0BDE8F08F8B30002000310020B43F0050007FC767980D00009D9000000A
:203B5000C18200000D30094008000940443100202DE9FC4F83F0004301E02DE9FC4F1F032B
:203B7000FF0847EAD2574FEA42284FEA43095FEA595906D147EA080A1CBF00210020BDE8D6
:203B9000FC8F57F000575FF4E06E1EF1FF0EF14505D14FF00000190D0905BDE8FC8F002B55
:203BB00005D55FF0000AD8F100086AEB07070C03E40844EAD0544FEA40254FEA4106760DA0
:203BD00008D144EA050A19BF00210020191C101CBDE8FC8F44F00054764504D10020090DC7
:203BF0000905BDE8FC8F002904D55FF0000A6D426AEB0404B6EB090E08D5A2463C46574674
:203C1000AA464546D046CEF1000E4E46BEF1360F5CBF4FF0000B23E0BEF1000F04BF4FF086
:203C3000000B1AE0CEF1390ABAF120092EBF08FA09FB07FA0AFB4BEA080BDEF1200A07FA5E
:203C50000AFA38BFBA4647FA0EF72DBF28FA0EF8AEF1200E4AFA0EF8D04415EB08057C410A
:203C700054EA050A02BF00210020BDE8FC8F002C58BF4FF0000A06D55FF0010A5FF0000E97
:203C90006D426EEB0404A6F101066D006441FAD515F4806E11D005F480794BEA090B15F568
:203CB000806554F1000428BF761C0BD205F400795BEA090B08BF25F4006525F4E0656D0095
:203CD00044EB0404B61CDEBF00210020BDE8FC8F5FF4E06E1EF1FF0E76450AD34FF0000029
:203CF00013F00043FF21C900C91D09051943BDE8FC8F270547EA1530210B41EA065141EA8A
:203D1000CA71BDE8FC8F7047F0B5064600220C2104201346ADF14C0D05F0B4FD5C49002250
:203D30001346086004200C2105F0ACFD4B490860684605F09BFA4FF0FF30029001900024DA
:203D50008DF816408DF8154001258DF814404FF4E1308DF817402422069041488DF8015034
:203D7000082303903F488DF800502146049009A805F084FD204609A98DF83C50024605F091
:203D900079FD394924220823086009A8214605F075FD204609A98DF83C50024605F06AFDF6
:203DB0003C4924220823086009A8214605F066FD8DF83C50284609A9224605F05BFD364ABF
:203DD0000146F0B21160694604F0F2FA3349274D3C22082308602146284605F047FD0420D7
:203DF000A8614FF400762E62224F2F61204BEB6110A005F09DF92048204923462A4605F0CF
:203E100031FD1F4D21463C220823284605F02EFD0320A8612E622F611A4BEB610AA005F0DE
:203E300087F91948194923462A4605F01BFD13B0F0BDC04675617274207478207461736B38
:203E500020696E69740A00C075617274207278207461736B20696E69740A00C0F430002039
:203E7000019600000D9600007C300020B02F00202025002040420F00BC2D00202D6300009E
:203E9000742F0020202300206C2D002045560000F830002080300020843000209C3A0020B6
:203EB0002DE9F843614C5A4D5A4EDFF870815E4F94F8E4100846401E0B2864D8DFE800F0DE
:203ED0007B2C43062343062343067664042907D001220A2945F8212C14BF0220032004E050
:203EF000202045F8210C0120024684F8E200002045F8390C0827C5F8FF7FC5F8F37F45F8C9
:203F1000392CBDE8F883052914BF09200620002784F8E400376075E094F8E170383D0120D6
:203F3000002FC5F81B0004BF0620002102D00021F160032084F8E400032045F8010C31609B
:203F5000306880085ED294F8E4103348012703290ED00068456800216022052300914046DD
:203F7000A84794F8E400062814BF0A200720CFE700684568002160220523022000904046B2
:203F9000A8470420C4E7FEE72548264F0026012506600E203D6001F0ABFD022004F0C0FCA4
:203FB00084F8E45084F8E360BDE8F883002038600C25786024E04FF08059D9F8A0010168AA
:203FD000202088472C3D0F2045F8010C41F61D56C5F80360D9F8A401466800214FF4C0725C
:203FF0000723022540460095B047D9F8A401C66800214FF4C07207234046B04701203860B4
:2040100084F8E45004F1780005F059FBBDE8F88339400C4038600C40A401001000A00C40C0
:204030002C500C4004800C4034600C40143200202DE9F84F804692460868DAF80050067887
:2040500000271C46BB46421C242E0A6026D110F8016F521C532E0A6020D1ED1C25F00305CD
:204070002D1D55F8040CE061CAF80050208B0090A168E269D8F800005346FEF7B5FA8346D1
:20409000D8F8000010B15844C8F80000DAF800502068E7600127A0EB0B002060662E05D08B
:2040B000002F64D1E16901200E705FE0208B40B9ED1D25F007050835A5F1080090E800033F
:2040D00009E0ED1C25F003052D1D55F8040C04F04FFB894680462AA20CCA4946404602F09E
:2040F0006BFD28BF002705D2206989F000490127401E206124A20CCA4946404602F09FFDD2
:2041100031D3404603F01AFF064604F003FD0B46024649464046FFF71BFD1DA20CCA00F078
:2041300057FF03F0DBFF0146606904220A2302F02DFF401EE0612E21017063692269E069CC
:2041500031461B1AE360D21A0A2302F01FFF002F08BFE06104D0401EE0612D210170E06985
:204170006169081A02E004A0E0610720E060CAF800505846BDE8F88F286572726F722900BE
:2041900000000000000000000000C0FFFFFFDF41000000000088C3402DE9FF410446666839
:2041B000A7680D4605F091FA3178012903D105F07DFB002091E00121317005F077FB28789E
:2041D00070706878B07068687060A868B060E868F06028693061287D3075687D7075A87D34
:2041F000B075A869B061287F3077687F7077A87FB0774FF00008C6F82080C6F83080454660
:2042100075627563B562B56386F82C50102386F83C3086F82D5086F83D50786801F0E0FDE5
:20423000204601F0C3FC204602F062F970B92C480068C16838688847786801F059FC05F0ED
:2042500044FA357005F032FB2C4645E0684605F01FF90094387B234A0190B9686B4606F1E9
:20427000800004F005F9684605F03AF900941E4938696A46029006F19C0004F073F9B078ED
:2042900030B906F1D000294604F0CAFC17483061707830B906F1EC00294604F0C1FC144815
:2042B000F060684605F0F4F901958DF800501149029406F584700A226B4603F0F7FDB969DE
:2042D000FA6906F1400005F0BFF80B4A06F16C000421234604F010FD20460090BDE8FF8126
:2042F000D0010010C14C0000D98600009996000089960000B56A000031950000B0B545681C
:2043100084684F48297BADF1180D012916D0217E627E4C4B2F7E0143009143EA0201019139
:20433000494937F0010718BF081CA27E1043029095F88D000322FF2811D00DE0677E217EF4
:204350003843A37E019041F00041009143F000403E49029095F88D00014304220391FE205B
:204370004DF82200694605F1900002F075F8C5F89C00002808BF00205FD0287B344951F832
:20439000200001282BD02068B0F1804F14BF22220A22217ED5F89C0004F02CFC2068B0F141
:2043B000804F14BF21220922617ED5F89C0004F021FC2068B0F1804F14BF24220C22A17E26
:2043D000D5F89C0004F016FC95F88D10FF2933D02068B0F1804F14BF23220B2228E020683C
:2043F000B0F1804F14BF21220922217ED5F89C0004F000FC2068B0F1804F14BF22220A22C9
:20441000617ED5F89C0004F0F5FB2068B0F1804F14BF24220C22A17ED5F89C0004F0EAFBC0
:204430002068B0F1804F14BF23220B2295F88D10D5F89C0004F0DEFB012006B0B0BDC04685
:20445000000480A0004000800004C0A000200080940B00002DE9F04704466568A6680F46FE
:20447000ADF1200D05F031F995F8DC10012903D105F01CFA002085E04FF0010A85F8DCA0F8
:2044900005F014FA3878287078686860387AE860706801F0A5FC204603F096FCF86867689B
:2044B00028B9A06890F8149090F8158003E090F8009090F80180B9F1FF0F15D0B8F1FF0F62
:2044D00012D0324840EA09010491FE23069340EA080004A9059007F1980001F0BDFFC7F87D
:2044F000A400D7F8A40070B9294800240460294F3C60706801F0FCFA05F0E7F885F8DC4033
:2045100005F0D4F93DE049460D2204F073FBD7F8A40041460E2204F06DFB684604F0B8FFAD
:20453000307B00946B46B1681B4A019005F1100003F09EFF684604F0D3FF306900946A4685
:204550001649029005F12C0004F00CF805F16000514604F065FB287830B905F17C000021E3
:2045700004F05EFB0E48686000202872C5F8BC000C4AC5F8C0000421234605F1C80004F07A
:20459000BBFB204608B0BDE8F087C046002000840428004010040542D54D0000837A00008B
:2045B0007996000021950000474848492DE9F041ADF1280D01F050FF4C49086010B924A022
:2045D00005F04CF900276846242208238DF81870394605F053F969463846024605F04AF9D1
:2045F0003B4C69463A466060104605F043F9012160600A461FA004F09BFD364C3C22082326
:204610003946204605F032F94FF4007601250220DFF8C8803049A0613B46266222462561F4
:204630002F48E161414605F01DF92E483B4626624146A5612246E0612B48256105F012F971
:204650002B48017817A004F073FD0AB0BDE8F0814572726F7220696E697469616C697A6913
:204670006E6720626F617264204C45442070696E730A00C04C45445320636F6E737472753E
:20469000637465642073656D6170686F72657320666F72206C6564732025642C2025640A5C
:2046B00000C046C04C45445320696E697469616C20626C696E6B20636F756E746572203D45
:2046D0002025640A00C046C08C300020203A0020A4300020FC2E0020201F00208168000075
:2046F0005C2E0020201D00200C2E0020D0300020A53A00202DE9FC4191EA03084CBF4FF007
:2047100000484FF000084FEA03354FEA153556006D414FEA43075FEA575711BF45F400156A
:2047300000210020BDE8FC814FF4E06E1EF1FF0E77456FD04FEA01334FEA133342005B4194
:204750004FEA4104640D11BF43F4001300210020BDE8FC8174455DD0E41B002100205FF068
:20477000360EAB4200D1B24205D340414941921B63EB050301E040414941BEF1010E05D0CE
:2047900053EA020702D052005B41EAE7BEF1200F09D2BEF1160F0CD3CEF1200720FA07F1CE
:2047B00000FA0EF00FE0AEF1200E00FA0EF1002009E001FA0EF1CEF1200720FA07F741EA10
:2047D000070100FA0EF011F4001F02D140004941641E401C51F1000111F4800F1ABF641CFA
:2047F00021F4800121F400114FF44077FF37E419DEBF00210020BDE8FC8107F58067BC42DF
:2048100008D249084FEA300041EA045141EA0801BDE8FC810020FF214FEAC101C91D4FEAC4
:20483000015141EA0801BDE8FC81FEE72DE9F041424C464D8046C8F38140401E02D0401EA3
:204850002AD025E0284620300168880C20D24FF4804020603A48D0F802204B0AC1F303376A
:2048700003F0800322F08F02134347EA0302C0F80220D0F801300E1266F30303C0F8013048
:20489000026801F0E70722F0E70247EA020102E04FF00041204601602F4E301D0068C0F382
:2048B000C0070FB94020A0624FF40070206404F0FFFD40F0300084F8C800C8F3815040B3AD
:2048D000401E03D0401E1FD002211EE0012004F065F907460420394602F0CAFE042004F0F4
:2048F0005DF98742FAD1361F366826F07F4004F0B1F814480068036807214FF06022300E03
:2049100098474FF4806020600321042002F0B0FE06E00420012102F0ABFE0B4804F09AF87D
:20493000284600680A4947F6180700F03F0084F8CB0F084E0F803068BDE8F08140A00C409E
:204950000A600840B4010010BD3786006C13005070B00C402C200940AC3F00502DE9F04302
:2049700004466568A7680E46ADF1140D04F0ADFE95F8D910012903D104F098FF002072E0DE
:204990004FF0010985F8D99004F090FF4FF00008C5F888803069286170696861307E287639
:2049B000307B287330782870706885F8A480686070694146092828BF494685F88C10387B4D
:2049D00001F00EFA204603F0ADF8F87E85F88D002046FFF793FC50B9387B01F089F804F043
:2049F00074FE85F8D98004F061FF44463AE0684604F04EFD009478791C4A019039796B469B
:204A100005F11C0003F034FD684604F069FD00941749B8686A46029005F1380003F0A2FD32
:204A3000287830B905F16C00414604F0F9F8114800E0B068A86002F037FFC5F8A000287B8E
:204A5000012808D1D5F89C000B4904F0ACFDD5F89C0000B18460094A05F1C4000421234651
:204A700004F04AF9204605B0BDE8F083F95F00003D7C00008196000021800000E995000075
:204A90002DE9FC4705466E68D5F80880B76B002F18BF4FF0FF307BD131630024F477171CFF
:204AB00074631BD006F1400904F00FFE82466946484603F0FCFC00281ED4504604F0F6FE5B
:204AD0009DF80000316B0870306B736B7F1E00F10100306303F101007063E5D17078726B3F
:204AF000316B0128A1EB0201316303D1F36828469847726B14464AE0B763504604F0D6FE69
:204B100004F0E3FD234D0746287820B9022003F0B9FF01202870384604F0C8FE1E490868E6
:204B300040F400700860D8F80010886B40F4FA608863707808BB716806F1EC07384604F02D
:204B50008CFCB8B1B4633846214604F086FC88B104F0BBFD0746287818B1022003F0E0FE54
:204B70002C70384604F0A2FE1027716B306BF777401A3063706BBDE8FC8796F82D0030B1CF
:204B9000706B20B1B46306F19C0004F0B4FD2046BDE8FC8789300020301000402DE9FF47C7
:204BB000424C94F8E70000286ED10127384D84F8E770E87C84F8E6006E68C4F81061684686
:204BD00004F066FD002604F10C0001966B468DF8006030490296324603F068F92E4904F1D1
:204BF00030006B46324603F061F92C4904F154006B468146324603F059F9A96838468847AE
:204C1000DFF8A48026482A7D08F104030078254D1868C0F3815A22B1BAF1030F04D184F89B
:204C3000E170BAF1030F15D0BAF1020F12D0BAF1010F0CD0022003F025FF042003F0AEFF3F
:204C5000012804D028683221B1FBF0F10DE003F0A7FC12E0022003F015FFBAF1030F0CBFB1
:204C70004FF47A7142F210712868B1FBF0F1484604F023FD484604F022FD40460068C0082B
:204C900002D2304603F0FEFE00200090BDE8FF87F40C0000F7250000E961000051730000C6
:204CB0008B300020D4300020B03F0050143200202DE9F8438146D9F808703868066CD9F8FC
:204CD000045046646A6CAB6CA86B16F4F06F0146A2EB03082ED1F00919D2700961D389B1B4
:204CF00095F83C40641EA14298BF0C1C4846214603F022FDA86B001BA86352D105F19C00C2
:204D100004F0F9FC4846414603F0D4FE49E00029F8D0484603F010FD95F82D10A86311B979
:204D300000283ED101E00020A86305F19C0004F0E2FC36E0F20A19D24FF00008444602E00C
:204D5000A86B401EA86340B34846012103F0F4FC3868446814F00F04C0F80480F0D0286B4F
:204D7000401E2863686B401E686316E0386844680022202904F00F044260CCBF20270F1CEB
:204D90004846394603F0D8FCC7F12007B845C8BFB8464846414603F08DFEEC77484602F058
:204DB00067FAB0090BD3A96A49B10F46484603F017FDA86218B94846391D02F0DDFFBDE8C2
:204DD000F8837047B0B53F494468096880684968006888473E4D012205F118031A6050B17D
:204DF000217AFF2907D0FF214009217264D2042043F8180C45E0207A00285DD0324B334947
:204E1000401E1AD0401E02D0FD3855D051E01D68D4F8B4000570D4F8B870D4F8B400401C35
:204E3000C4F8B400781EC4F8B800D4F8B87027B3012F3BD9092202201BE0D4F8B000401EB4
:204E5000C4F8B000D4F8B070EFB9D4F8B870A7B10220D4F8A8202072127C2D1F012F4FEA6B
:204E7000420242F001022A609CBF0321696001D90B220A6004F012FCB0BD0020207204221F
:204E90000A600220F6E7D4F8AC0000781860D4F8AC00022F00F10100C4F8AC00F0D2D4F8A0
:204EB000B870002FECD100202072052243F8042CE7E7FF202072B0BD04F12C0004F01BFC72
:204ED000B0BDC046AC0100100828004004280040042800402DE9F04707467D68D7F8089064
:204EF00090460E4604F0F1FB8246A86A002864D105F5847004F0E5FB0024EC772E625046F2
:204F10006C6204F0D3FC04F0E0FB2F4E3378824623B9022003F0B6FD01203070504604F042
:204F3000C5FC2A49086840F4807008603846414603F056FCA862C0B93846414602F01CFF52
:204F5000A878D0B9A96805F1D00004F086FAE8B1AC621020E8774946284601F02EFF04F008
:204F7000B4FB8246307840B323E0D9F80010886B40F020008863A87810B12046BDE8F0879A
:204F9000A96805F1D00004F068FA10B9686ABDE8F0873846414602F0EFFE1020AC6249466C
:204FB000E877284601F009FF04F08FFB8246307818B1022003F0B4FC3470504604F076FCFF
:204FD0004FF0FF30BDE8F0878A300020301000402DE9FC4191EA03084CBF4FF000484FF033
:204FF00000084FEAC32545EA52554FEAC2264FEA43077F0D11BF45F0004500210020BDE842
:20501000FC815FF4E06E1EF1FF0E774555D04FEAC12343EA50534FEAC0224FEA4104640D6E
:2050300011BF43F0004300210020BDE8FC81744543D0E419A3FB0501A3FB06E7A2FB0663B9
:205050001EEB030E57F1000751F10001A2FB05631EEB060E57F1000751F10001FF1851F187
:205070000001C01951F100014CBF4FF4806E4FF4007E10EB0E0051F1000148BF641C01D45E
:20509000400049415FF44077FF37E41BDEBF00210020BDE8FC8117F58067BC420DD24FEAEE
:2050B000D02040EA41504FEA41014FEA113141EA045141EA0801BDE8FC810020FF21C90060
:2050D000C91D090551EA0801BDE8FC812DE9F84F3A48DFF8D4C0DFF8E0E0DFF8D0A0DFF867
:2050F000D090DFF8D080032700F118010CF110060EF124020AF1280509F1180408F1200353
:205110009CE800471036A6F1100080E80047DFF89CE0BEE8000F2835A5F12800A0E8000F5E
:20513000BEE80007A0E800079EE8004380E80043DFF87CE0BEE800071834A4F11800A0E84E
:2051500000079EE8004380E80043DFF868E0BEE8000F2033A3F12000A0E8000F9EE8004785
:2051700080E80047DFF850E0BEE800072432A2F12400A0E80007BEE80007A0E800079EE85E
:20519000004380E80043DFF834E0BEE800071831A1F11800A0E800079EE800437F1E80E829
:2051B0000043ADD1BDE8F88FA038002018340020A036002048350020B83400204036002059
:2051D0007CB50546084601F0B7FF364E02461821304603F0CDFC03F03DFF344910390968B1
:2051F0004C6840F2FF32002380B22C2100903046A04704F065F91C210246304603F0B8FC05
:2052100003F01AFF02461421304603F0B1FC03F0D9FF02461021304603F0AAFC284601F02D
:2052300057FF02460C21304603F0A2FC284603F0B1FF1D4C400040F020002070284603F091
:20525000B5FF40F010002070284603F049FE02462821304603F08CFC284603F0BFFF400031
:2052700040F06000E070284603F0C4FFC00040F0800004F8080C284603F0C8FF800040F4BE
:205290007C40A4F89300284603F09EFC02460821304603F06DFC4FF48000A4F209110860FA
:2052B0007CBDC04600A00C4049A10C40B40100102DE9F84306467468B56804F006FAD4F862
:2052D000881000295FD00F4604F0F0FA2968486820F0020048602968486A20F003004862A0
:2052F0006869D4F8A0302969084359680968C1F804052968486920F00100486128684FF095
:205310000108C0F82080304603F00AFD7E6804F0DCF9814694F8D80078B116F0704F06D10D
:205330002EB1062003F0FCFA042003F0F9FA022003F0F6FA002084F8D800484604F0B6FABA
:20535000387C012804BF022038742969D4F8A03068694646084306FA00F158680068C162BD
:205370002868B0F1804F14BF09480A483E6880688104A6EB9150401E386004F1380004F00B
:20539000BAF9BDE8F88304F091FABDE8F883C0460005002030040020F8B504F0F2F801F090
:2053B00033FF04F007F9054605F00C000C2853D0E80826D203F060FC2A4E3768044601205B
:2053D000014603F01CFE31686143884219D22649F020B0FBF7F0241A887C18B1C868A04249
:2053F00038BF041C214D2146284604F033FA284604F02CFA0120FDF7DFFF284603F0D0FD79
:205410002CE0280928D21A4804F092F80428FAD0184A690905D220B11168104621F0010111
:2054300003E01046016841F001010160983210684FF0805540F003001060D5F8B8018169BD
:20545000202088470C4CD5F8B8712068B86B804701202060206801E004F029F904F097F8CA
:20547000F8BDC046C40D0000F40C000020320020004003408C2108402C2009402DE9F047C4
:205490000D4606465FFA85FA280824BF2E4845402E494FEA8A03C85885EA00023240C2F382
:2054B00000672B4A06EA0504B043224006F4E0240243B4F5E02F01D1500E14D306F4E020A6
:2054D000074310D002F4E027B7F5A02707D0B7F5803704BF22F4003242F4A02203E022F4EC
:2054F000803242F4C022DFF86C80CA5008F1D00739680122002002FA0AF40C4218BF101CF6
:205510005FEA000906D1F00D04D34146C5F3805001F80A00300E0BD304F0D7F8290E34BF63
:205530000021211C3A68A2431143396004F0BEF9B9F1000F06D0F00D04D34046C5F380516C
:2055500000F80A10BDE8F087006000A000100840007F077F002002402DE9F843DFF8C490D2
:205570000446D9F800001F4616460D468047DFF8B8802068B0F1FF3F02D0042E03D017B908
:20559000464630682EE0636873B16069010903D3581E03F0B3FD606900216160A160E1602B
:2055B00020F00800216100E0606906B9012620F00700012F46EA0006666108BF0025B7F5D6
:2055D000807F88BF4FF48077B5B97F1C384603F0B8FA4646054630684DB96169656041F4D6
:2055F0008061616180474FF0FF30BDE8F883616941F00801616101E0464630686D1C65608A
:205610002561E919A560491EE1608047D9F8000080470749054A3068116080470020BDE8B2
:20563000F883C046103A0020143A0020F8390020A93800002DE9FE4F314C20680DF1050163
:20565000012202F0E9FF9DF80500C028F5D12D4EDFF8B480DFF8B4A04FF0DB094FF0C00B17
:2056700008E0DAF80000ADF8027069464FF0FF3204F010F9D8F8000069464FF0FF3204F04A
:2056900011F900273D4631E020680DF10501012202F0C2FF9DF80530BDF80010C03B20D059
:2056B0001B3B16D1206801A9012202F0B5FF9DF80400BDF80010DD2805D107EB01207F1CBB
:2056D00006F80090BFB29DF80400DC280AD1584601E09DF8050007EB01217F1C7054BFB246
:2056F00000E00125B7F5807F08BFFF27002DCBD0002F18BFFF2FB4D1D8F80000B5E7C04609
:205710009C3A002020050020D8300020F4300020F8B5144602460F46C1F30A5028A590B90A
:2057300021F0004352EA030020D0104622A20CCAFFF74EFC284B02460F46C1F30A50A342A3
:20575000A0F136001DDC40F2FF76864204D110460B46FEF702FAF8BD0019761E864216DB82
:20577000002805DD6FF31E5141EA00511046F8BD10F1360F07DD36306FF31E5114A541EA72
:205790000051104612E04CF25030A04209DA134922200DA6086096E803003B4603F070FFC0
:2057B000F8BD95E803003B4603F06AFF95E80C00FFF70EFCF8BDC0460000000000005043F0
:2057D00059F3F8C21F6EA501000000000000F07F000000000000903CB03CFFFF803A002081
:2057F00038B504462568B5F1FF3F12D063690020990909D3616839B1A268914204D0521AD5
:20581000284603F0C9FA6369002805D543F4806363614FF0FF3038BD60682061A060D8091B
:2058300024BF23F030036361002038BD2DE9F0470746194CDFF86C8020680FBB8047174A1A
:2058500010680025002820DD1549A1462E469246A1F1180454F8181FB1F1FF3F0CD0D9F827
:20587000000080472046FFF7BBFF0746D8F800008047DAF800003D43761C8642EADB04E002
:2058900080473846FFF7ACFF05464046006880472846BDE8F087C046103A0020E8390020D7
:2058B00028330020143A0020274A2DE9F04180460125264815600768002FFCD0244CC020AE
:2058D00025492060081F03689B0806D250F8040C204B000C40F0F0001870002010630E683D
:2058F000304600F0D5FB40463146FFF769FC1B49886D40F21E226FF31F40824215D908685C
:20591000020E12F00F0F02F00F01C0F3034018BF491E072805D006280EBF0720801C00F05F
:205930000F0041EA00110E4801703046FEF77EFF0C480068C16802208847402020600A4F4E
:205950003D60BDE8F081C046101009409402224300600C4056620840B43F0050BC1200500D
:2059700002600840A00100109404604208B5FFF715F92E48FEF70EF810B114A003F06EFF7B
:2059900002F0F6FCFEF710FE16A003F0D1FB02F0B7FE00F069F91FA003F0CAFBFFF796FBA4
:2059B0000020FEF7B1F902F0A3FC00F0C3FBFEF7FBFD012003F072FC012003F06FFC02F0F9
:2059D000F3FB03F03FFF002008BDC0464572726F7220776974682050494E5F696E69740AA3
:2059F00000C046C02A2A2A4255494C442054494D4520444154452031333A35303A31332075
:205A10004465632032352032303137202A2A2A0A00C046C0676F696E6720746F207261641D
:205A3000696F2073657475700A00C046A80C00002DE9F8430D46064668687468B7684FF06F
:205A5000000810B9E86800284FD02078012814D103F03BFED4F8BC1049B1D4F8C0108D61E0
:205A7000C4F8C05003F022FF0120BDE8F883C4F8BC50C4F8C05003F019FF022003F002F847
:205A900004F160004FF0FF31814603F0E6FCB86803F01DFE3046294600F032FF0546B868F7
:205AB00003F017FE207888B9B5F1FF3F08D004F17C004FF0FF3103F0D0FC207A48B111E016
:205AD00003202072022002F02BFF0BE0B5F1FF3F02D04FF0010805E00320207204F12C001F
:205AF00003F009FE484603F0FCFD4046BDE8F8832DE9B043044603F0E8FD81462748021900
:205B100092F8EF10491ECFB2002F82F8EF703FD1254901EB84014A880C78904634F07F0737
:205B300018D1E1090FD24FF0805000F5DC75D0F8B8018169104688472868416B404688472B
:205B50000228F9D11EE000EB8800D0F804110020884717E04FF08055D5F8B801016A1046B2
:205B70008847D5F8B801816A40468847D5F8B801016B404688470A4901200860094908689B
:205B90008008FCD304F03F003F2801D0FFF7B0FF484603F08BFE0020BDE8B0831432002026
:205BB00028200860282008407E0A0000F0B52B4D05F12C0158C9ADF11C0D02AA58C20AC94C
:205BD0004FF0805682E80A0047688468D6F8D001C16820688847216821488A6B1040886350
:205BF000206840F2F271416497F83C0097F83D10C0100DEB800080680843216848636846CF
:205C100003F059FDD6F8D001397F466805EB8101BA698B68797F206855F821101943BB7F0A
:205C300005EB8305AB690B430199B0470D490A1F106840F010001060086840F00100086039
:205C5000A07D0027FF2802D0E07DFF2800D11FB1086840F44040086007B0F0BD140B0000C3
:205C70000DF8FFFF3010004030B517A0ADF12C0D03F05EFA00212422082301A803F0FEFDAA
:205C9000214D002101AA284603F0D8FD214C20481E4A2146006815604FF0FF3203F002FEA0
:205CB000218810A003F044FA882000901B491A482022022300F03CFF18B91949FF200880E0
:205CD00000E0FEE70BB030BD5258207461736B206372656174696E672073656D6170686F50
:205CF00072650A004372656174696E67207175657565207265616479206275666665722052
:205D10003D2025640A00C0464C300020E4300020D8300020EC300020C0300020EC2F0020FE
:205D3000E03000202DE9FC47294C8A462168009088472849284D086848B901232846072786
:205D500000220B6018307F1E40F8082BFBD12846214600F1180400E00834DFF8809000F1B4
:205D70005002A24206D14C46206880474FF0FF30BDE8FC872268002AEED108688047684637
:205D900001F0E1F806467089641BE2109046400806D2F0680346009851469847074601E0A0
:205DB0004FF0FF374C462068002F48BFB84609D405EBC8052E6071896F608A083CBF41F061
:205DD000010171818047206880474046BDE8FC87103A0020883A0020B8370020143A002032
:205DF000F8B5064603F071FC264D0746A91991F8EF00421C002881F8EF203ED1224C04EBC6
:205E10008604267806F03F003F2801D0FFF7E8FF648836F07F0018D1F0090FD24FF080509D
:205E300000F5DC75D0F8B8014169204688472868416B204688470128F9D11EE005EB8405D1
:205E5000D5F804110120884717E04FF08055D5F8B801C16920468847D5F8B801416A2046D9
:205E70008847D5F8B801C16A20468847074901200860074908688008FCD3384603F016FDE9
:205E90000020F8BD143200207E0A0000282008602820084098B504462068B0F1FF3F05D01C
:205EB0006269500904D342F480626261002098BD100A05D320460021022201F0A7FB62698C
:205ED00090094FF0000104D2D00924BF42F02002626167684FB9D00807D202F00702204647
:205EF0004FF48073FFF738FB0146E2680020226101B9012098BD80B50168B1F1FF3F05D07C
:205F10004269910904D342F480624261002080BD53094FF0000104D2D30924BF42F01002C8
:205F30004261476847B9D30806D202F007024FF48073FFF711FB0146002001B9012080BD9A
:205F5000264838B560300468B4F1FF3F08BF002403F01BFA2248234B002501211038056038
:205F700003F15C0001601448016001F0B5FE1348006820B1124800682046FFF795FC114863
:205F900011490560114C0A686FF35B4244EA020008600F490868C0F30130012806D10A68AE
:205FB0000C48104040F400320A6008600A4908680028FCD138BDC0460822044380012843E5
:205FD000000120438C210840482003400000390104000940FFFFFCFC0C006842BC1200505C
:205FF0009404604200600C40B0B501468B681C68E26948682262520827D2D0F8A01049688D
:206010000A685D69D2F80415294206D01C68616A21F002016162C2F80455D2F804151C6973
:20603000214233D01B68596A21F001015962C2F80445D0F8887027B1397C012904BF002178
:206050003974383003F057FBB0BD1C68626922F001026261D0F88870AFB9626822F002023A
:2060700062601C68626A22F003026262D0F8A0005A6940681C6900682243C0F804250846CF
:2060900002F04EFEB0BD0846FFF712F9B0BD704770B5234C234D0646B00E11D2700E0FD381
:2060B000802020744FF6D801A4F85110207000F0C1FED0352868C0F30420162806DB04E0D3
:2060D0002868C0F30460162800DB203800EB2670401C162805DA10F10A0FB8BF6FF00900A5
:2060F00000E01520104D00F01F0040F4F850A4F859002868800803D20C490020086001E0F3
:2061100046F040660A49F00EB50E80F0010000F00100086085F0010000F00100886070BD39
:2061300015620840B81200500000094094042A430000204310B5ADF1300D08A803F0B0F9D9
:20615000002408A920468DF8204002F071F82149086010B911A002F0EBFF1B481B4900F0D5
:206170007BF918490860684603F046F98DF80C4049F640408DF800400323049008228DF834
:20619000183069460592204602F0D2F81049086010B907A002F0CCFF0CB010BD49324320EA
:2061B000646964206E6F74206F70656E00C046C053504920646964206E6F74206F70656E15
:2061D00000C046C05438002098300020183A0020F0300020DC3000202DE9F04103F075FACE
:2061F000254D214E804605F1E000007848B93446A168022088470746102001F04DFF6FB349
:206210001AE003F0D7F9C0091AD218480068C4681748342101220023A04788B101F060F9A4
:2062300034460020A16885F8E000022088470746102001F031FF8FB1A168032088470DE097
:206250000C4800683221B1FBF0F101B901213035284603F032FA284603F031FA404603F0BF
:2062700025FBBDE8F081C046F40C0000A401001000A00C40D430002014320020F0B520489A
:206290000127F84201D001F0EBFD204D204F214EBD4206D203CD0478A4003459401CA04700
:2062B000F6E71D48002800D08047164D164FBD4202D210CDA047FAE7F0BD03251BE0416814
:2062D00008300A1C2A400BD11A1C2A40AB4305D0046804300C600431043BF9D1131C05D059
:2062F000047801300C700131013BF9D1021C2A4001D0A84304300368002BE0D17047C046B1
:20631000FFFFFFFF0000000000000000E89B0000689C0000889B000055C501102DE9FC4743
:206330001E4E1F4F1F4DDFF880A0DFF88090DFF88880D9F8000069464FF0FF3203F0B2FABB
:2063500028685146012202F085F9002415E0BDF8001004EB01217B5CB3F1C002337006D0CE
:206370001B3A1CBF311C012203D1114900E01149022202F06FF9641CA4B2BDF8021028685A
:20639000A142E4DC5146012202F064F9D8F8000069464FF0FF3203F07DFACAE7883000205F
:2063B000200500209C3A00207D0A0000F83000206A0D0000CA0A0000D8300020002A4AD00C
:2063D0005FEA000C8B071CD1830722D1102A08D370B4103A78C978C0103AFBD270BC1032DB
:2063F00038D0042A2CD3082A05D30C2A24BF08C908C008C908C008C908C092072AD0920F36
:2064100022E00B780370491C401C521E22D08B07F7D1C30714D18307D8D0121F12D308C92F
:2064300003801B0C4380001D121FF8D20AE008C903701B0A43701B0A83701B0AC370001D34
:20645000121FF4D2121D05D00B780370491C401C521EF9D1604670472DE9F843234D884654
:2064700006464FF0FF3105F12800814602F0F5FF00200CE0FF2909D02A688A4204D305EB54
:206490008101D1F898700FB1002627E0401CB8F1000F03D018F82010FE29EBD100243460EA
:2064B00074600127B46011E0FF280ED005EB80000B787268C0F8986007FA03F01043706032
:2064D0000A680949304602F0F7F9641CB8F1000F04D008EB84010878FE28E5D1484603F02F
:2064F00000F93046BDE8F883007FC76700310020B0B5456884682349607DA27DADF1180DD6
:2065100040F000400090207D0027FF2A41EA000001904FF0020002D0E27DFF2A00D13FB166
:20653000E37DA07D1943039140F0004002900420FE214DF8201005F158006946FFF78CFFA6
:206550006866002808BF381C1AD0617D0F2202F051FB686E217D102202F04CFBA17D384668
:20657000FF2902D0E27DFF2A00D140B1686E112202F040FB686EE17D122202F03BFB0120E0
:2065900006B0B0BD0000C0A0F8B5044625686769B5F1FF3F07F4805702D0FFF721F910B1BB
:2065B0004FF0FF30F8BD6069000907D36068401E02F0A4FD606920F00800606100206060C1
:2065D000A060E060206801F09DF906464FF0FF30206057B10F48006880470F4800EB05103D
:2065F00002F034FB0D48006880473046F8BD38B5084C054620688047206880472846FFF72D
:20661000C3FF064C05462068804720688047284638BDC046103A0020CC2C0020143A002014
:20663000F8B50546214800680C4680472046FFF731FC1F4E002830D0606900F0070004285E
:2066500019D0A068E168814204D82046FFF7C8F8F8B9A068411CA160EFB2077060698008B5
:2066700005D30A2D03D12046FFF7BAF888B9306880473846F8BD20688DF800506946012217
:2066900002F08AFBB0F1FF3F03D030688047E8B2F8BD616941F480616161306880474FF0D3
:2066B000FF30F8BD0349FFF7BBBFC046103A0020143A0020403300202DE9F8432020EFF346
:2066D000118780F31188214CA068012103F0B2F84FF001094FF0000865692168A4F81C90A3
:2066F0006A1A2168A4F81E80461B401A904227D387F3118840462D18361A4846294603F09E
:2067100095F8B042F7D92021EFF3118781F31188E18B012903D14046294603F087F8B0F1E0
:20673000FF3F06D0A169801B814238BF081C291801E0A069411903F075F8A4F820902560FC
:20675000A4F81C8087F31188BDE8F883780100202DE9F04107467E68D6F8BC00C8B302F0B4
:20677000B4FF1D4D00248046042305F10C00046002202B6002F092FF7368D6F8A810384666
:2067900022469847022002F0CBF80BE08069C6F8BC007368D6F8BC10224638469847022021
:2067B00002F0BEF8D6F8BC00D6F8C0108142EDD134722046C6F8A800C6F8BC00C6F8C0000E
:2067D000064B2C6038461C6001F0FEFA404603F06DF8BDE8F081C046042800401004054228
:2067F000F8B50F4601468E684D683846203829D0401E33D0401E2ED1287B1478012814BFDD
:2068100019491A49FF2C41EA040119D0D5F89C0000F098FEC8B93068B0F1804F14BF2322CF
:206830000B22D5F89C00214602F0E4F9D5F89C0095F88D1001F04AF985F88D400020F8BD96
:20685000FF24F3E7287B012802D04FF0FF30F8BD0121002004E06FF00100F8BD00210846C0
:2068700085F8A410F8BDC0460004C0A0002000802DE9F0415FFA80F84046401E012828D8F3
:206890001B481C4A006846F2A8134146B3FBF0F6B2FBF0F510A02B46324602F049FC174CE4
:2068B000154F04EB880420684FF0FF3102F0B6FF38680021012201F0EBFE304602F0EEFF38
:2068D000386800210A4601F0E3FE284602F0E6FFE9E7BDE8F081C0464C45445320256420A3
:2068F0006F6E202564206F66662025640A00C046C40D0000E0930400D0300020A430002092
:2069100098B54368C3F8A8100868C3F8AC004868C3F8B0008868D3F8B070C3F8B400C86890
:206930001949C3F8B80017488FB9D3F8A820127C520042F001020260022018720A68D209C8
:2069500016D2D3F8B820022A16D30B2215E0D3F8A820127C012752000260D3F8AC201F7240
:20697000541CC3F8AC40127882600868C00902D34FF0FF3098BD022003220A6002F08EFE84
