:20000000004D0020B1890000FDC90110FDC90110FDC90110FDC90110FDC90110FDC901102F
:1C002000FDC90110FDC90110FDC90110FDC90110FDC90110FDC901103BCA0110A4
:2000400000C500000FDD030100750085200F05C99FFF0000457D00005FA452221F081204E0
:20006000F8247922254002258F01ED2426CF99010738134921030FFF0080002405A00008EF
:20008000FF00D338543D002064AF0300800533CF690209FA1EFFE8DE510B9380AABBB41D12
:2000A0005F0D3EDF480312FA2808457080F845B10971119F5D00317F0000FF058B0000192E
:2000C0008300007D710030A97B00004900F0FB117C227F418100008960F701401A548039EF
:2000E000400140FD3A55002040007F6440FF4000A38406004101FF04C007B133058305FF88
:20010000480A0306B87A0304FF0102638410004302FFB00402009F840200FF44C78460F154
:20012000358388FF0300A388FB008860FF0E1F0200F90CAC527F330F08514800FF0000C11C
:200140000314D13C062790413F3E2EBA181E5E1B3F3E9C3C00200031A4003455AC0034B402
:200160000034BC0034C4003455CC0034D40034DC0034E40034F5EC0034F4003490103400CD
:20018000FF8E0D3300F00A3200FF48083100CC063000FF82052F0024042E00FF66032D0044
:2001A000BC022C00FF12022B00AE012A00FF5E01290004012800FFDC002700B4002600DFCF
:2001C000820025006E49905800F72300424B9037002100F72D00201C5100078600CF003805
:2001E00040371C721D3503050F07B123051CF71C351D791CB1EE1D3188601A5070DF7D5C34
:20020000F7503C071DB10200F80CF61CF10718057F2F418C6013B18205B123312231003BA0
:200220000B4200E000715E3200F0583F027EFF16503E00E920003163390436270018299ED0
:2002400006F307C20110663F06017F0AC5EDA78793B9A16997444000D1200175027D0179E5
:20026000636934E173F68BDF20401170BD01003C3F930020003101BF025801B0003160AAC6
:200280000034680034700034780034806A0034880034900034456C9617E062F11A439757C4
:2002A00002F19832E00100A3FFEF00301CB19940E83E54FF4700FFC09A30003134B30134A3
:2002C000B01800307C717C29FB7702F403D29D5F08FF96001E003B010E00FFB1010A006437
:2002E0000305006D9300300005452BE99B5CF0CA07B214A1E2CC1E105D0108163026345D0A
:20030000D05E014881603810300030C190007086397FFD8776A700642F9700200CA7809F21
:200320001FB00031002F08C080FEA888CC2070003155D40034DC0034E40034EC0034B5F43D
:200340000034FC0034044100330C0A00341400341C00342E3F02AFF2FFF0007D000000382B
:200360004100202C00305930007000F1004D00700300927F200101000030310174000044C9
:20038000FFF000F30100000700B99C3C0020EC01A8025234410133340100052000313C0069
:2003A00034FFF0009D0000016CDC02007200C044EF3F00200300C4C193001F0029A100006A
:2003C000FFF000FD000004A03E0020903F47002001010000310029E80170000031FFF00024
:2003E0007B0100000F00603F0020016100FFF000717A0000E7A2000081A30000003D00008D
:2004000000A03E0020FFF000020000002A340000000F08000000FFF00001000000FFF00099
:2004200001000004FFF00001000004FFF000000040000000383600205A0300004401002044
:200440008203000000010020A3030000A4010020C203000078010020DF030000C801002062
:20046000FC030000E40100200804000008020020100400000002002018040000EC010020E3
:100480001F040000F001002026040000F8010020F5
:201000003C000000000000000000000034100000000000000000000001000000000000004F
:1C10200000000000000000000000000001000000000000000800000000000000AB
:20103C003400000000000000000000006810000000000000000000000100000000000000E7
:14105C00010000000000000000000000080000000000000077
:2010700030000000000000000000000098100000040000000000000001000000FFFFFFFF87
:10109000FF00000001000000080000000000000048
:2010A0002C0000000000000000000000C4100000040000000000000001000000FFFFFFFF2F
:0C10C000FFFFFFFF080000000000000020
:2010CC0038140000E410000095A1011091A70110A1C2011009B2011041B80110A5BC011078
:0810EC0085BC01103300000077
:2010F400280000000000000000000000141100000000000000000000FFFFFFFF0000000093
:081114000800000000000000CB
:20111C00341400003011000065C2011069C101101BC2011091BA011005BC0110E5BB0110EA
:04113C00310000007E
:20114000341400005411000071C20110A5B6011099BF011045B60110B5BA011025BC01104B
:041160003200000059
:201164002400000000000000000000008011000000000000000000000000000008000000AE
:041184000000000067
:20118800240000000000000000000000A41100000000000000000000000000000800000066
:0411A8000000000043
:2011AC00240000000000000000000000C8110000000000000100000000000000080000001D
:0411CC00000000001F
:2011D00000000000CC400020040000000000000000000000200000007010000030000000FF
:2011F0001C110000D44000200400000000000000000000000C000000301300001800000013
:2012100040110000DC40002004000000000000000000000024000000481300001800000096
:2012300000000000E440002004000000000000000000000010000000A01000002C0000006A
:20125000CC100000EC40002004000000000000000000000020000000641100002400000099
:20127000FFFFFFFFF440002004000000000000000000000028000000881100002400000025
:20129000FFFFFFFFFC400020040000000000000000000000580000003C100000340000000A
:2012B000FFFFFFFF044100200400000000000000000000001000000060130000180000001E
:2012D000FFFFFFFF0C4100200400000000000000000000001C000000AC1100002400000094
:2012F000FFFFFFFF1441002004000000000000000000000038000000F41000002800000005
:20131000FFFFFFFF1C41002004000000000000000000000054000000001000003C000000A0
:1813300018000000000000000000000040130000080000000000000032
:1813480018000000000000000000000058130000080000000000000002
:18136000180000000000000000000000701300000800000000000000D2
:081378000100000094B900001F
:041384000100000064
:0413880000000E0053
:04138C0000000F004E
:041390003200000027
:041394000100000054
:0413980044400020AD
:04139C00000200004B
:0413A0000000000049
:0413A400FDC901106E
:0413A8000000000041
:0413AC00000000003D
:0413B0000800000031
:0413B4000000230012
:0413B800283F0020AA
:0413BC00010000002C
:0413C0005C4000206D
:0413C400080000001D
:0413C8000000000021
:0413CC00000000001D
:0413D0000000000019
:0413D400080000000D
:0413D8000000000011
:0413DC00000000000D
:0413E0000100000008
:0413E400903F002016
:0413E80006000000FB
:0413EC0001000000FC
:0413F000503E00204B
:0413F40000000000F5
:0413F80000000000F1
:0413FC0000020000EB
:0414000000000000E8
:021406002A00BA
:021408000100E1
:02140A002400BC
:02140C003100AD
:02140E003200AA
:021410003300A7
:021412000100D7
:0114140001D6
:081418000300000060B90000B0
:081420000000000000000000C4
:0414280000000100BF
:04142C0000000300B9
:0414300083C4011060
:041434003C14000064
:041438003C14000060
:04143C0000000000AC
:041440009000000018
:041444009000000014
:0414480000000000A0
:04144C005C400020E0
:0414500015A20000E1
:041454002000000074
:0414580048B900008F
:04145C0034B80000A0
:0414600009C30110AB
:04146400DF8800001D
:0414680027890000D0
:04146C0095C801100E
:0414700097C8011008
:041474000000000074
:041478005EB9000059
:04147C00C4B70000F1
:04148000DCB70000D5
:04148400ACB7000001
:0214880008005A
:02148A00090057
:02148C0001005D
:02148E0000005C
:01149000015A
:041494000000000054
:041498000000000050
:04149C00000000004C
:0414A0000000000048
:0414A4006BA4000035
:0414A800719100003E
:0414AC00F1990000B2
:0414B000F5930000B0
:0414B4005D94000043
:0414B800D58C0000CF
:0414BC00397600007D
:0414C00011A3000074
:0414C4005D81000046
:0414C800499C00003B
:0414CC00C9A30000B0
:0414D0000800000010
:0414D40024000000F0
:0414D80018000000F8
:0414DC0028000000E4
:0414E00020000000E8
:0414E4003C000000C8
:0414E8000C000000F4
:0414EC0034000000C8
:2014F0002DE9F04FD14E3188CCA0ADF1740D08F096FC04A808F030FE64250495CC480790FB
:2015100002A809F08FF8CB4800684FF0000B0E905C460F945A4611921A921B924FF0FF30DF
:20153000109058461890199016901790129013901490DFF80483159011E2119F67B1109A6E
:20155000824203D14F78002F00F0A680D748006803F082FD98F90000D349D54FC20002EB5E
:20157000401204AB521807EB0011D248A2F802B001F0B8FC0146CD4ECF48DFF82CC3036838
:2015900098F900005F783160C20002EB401237F07F0702EB0C056746A5F802B03A4405D146
:2015B000D58A4FF6BF7C0CEA050506E0C20002EB40126244D58A45F04005D5825A78D209D2
:2015D0001AD307F05DFDC0F38005DCA0294608F026FC98F900003946C20002EB4012521805
:2015F000D18A4FF6BF7CAB01374603F040030CEA01010B433968D382AB4E5B465A46C70064
:201610008DE80C0007EB40125B460846921911461A4607F097FF98F9002033461046C100D6
:2016300001EB4011C9184988B1F5505F0AD0C100374601EB4011C9194988D5A008F0EFFBF7
:2016500098F90000D14F994EC1005B4601EB0011C919A1F802B05A468DE80C0030685A46FD
:20167000134607F06FFF98F900003D460146CA0002EB011252195288B2F5806F09D0C10002
:2016900001EB0011C9194988C6A008F0C8FB98F9000010900127119706F0E2FE0F9F064698
:2016B0001FB90127DA480F9734183046214608F020FEB442054609D242F21070A84205D282
:2016D0000E99281AB0FBF1F008F0A8FF7A4801680F7842F21076AE4228BF04277348534E1C
:2016F00098F900C00268308863467F1E00F0E6807F1E00F0A3807F1E03D07F1E00F0248179
:2017100026E1C24E4FF47A619F0001FB00491D4607EB431189193746BE4BA1F802B0A900DB
:201730000BAE01EB45116425C9190D75087B0E6200F07000CB6140F0020008738C60C87B56
:201750008F7BCE7D4EF660255B46641940F00300C87307F0B90040F04400887306F0F000CA
:2017700040F00200C87510468C615C4622468DE81800134607F0E6FE98F90010A34F8800C1
:2017900000EB4110C0194088B0F500603DD0B0F5305003D0401E00F08180CCE007F008F860
:2017B0009948DFF860C2008867460202B81841786646CB1CDBB29B18F2181CF803A09578DC
:2017D000D4785678801C00F02FF993488E4900684FF0FF3208F01EFF0D9800908B4F98F9EC
:2017F0000010BDF82C30880000EB4110C01941884AEA062A4AEA054A4AEA046A52466DA024
:2018100008F00DFB012001464AE00848048806F027FE4FF47A6101FB04093FE07065726939
:201830006F64203D2025640A00C046C0D03F0020C74800008CB900003136002070480E8996
:2018500000EB4313A3F802B04F681E82187BDF6100F0700040F00200187359469C6058466A
:201870008DE8030019466D4B10465A4607F06AFE6B4898F90010624F058807EB41104788D0
:20189000B7F5006651D0B6F5305649D04FF47A6000FB054950A0394608F0C1FA02210120EF
:2018B00007F040FB54E0C04650390020C8350020E83E002068300020243600204F4F0E7A48
:2018D000D80000EB0310C319A3F802B04D68DE731F7B5D6107F0700040F0020018735946D8
:2018F0009C6058468DE8030010465A461946134607F028FE4A4898F90010404E0588C800E5
:2019100000EB011080194788B7F500660DD0B6F5305605D04FF47A6000FB054933A0BAE784
:201930004FF47A6000FB05496CE706F099FD4FF47A6101FB05090321B1E7C0462A2A2A20CA
:201950002564202A2A2A0A004FF47A6101FB004908F05CFE01F0BAF908F058FE4C4608F015
:2019700043FA98F90000B0F1FF3F05D02D4909680A78042A7FF4E1AD2948058801F0A6F9AF
:201990004FF47A6000FB0544EBE7C046DC3B0020434D445F53455455503E20253034780A9A
:2019B00000C046C0434D445F46533E20253034780A00C04672786F75742073746174757310
:2019D0003D253034782074733D256C7520256420256C750A00C046C0434D445F54585F4151
:2019F00044563E20253034780A00C046434D445F54583E20253034780A00C0463C3C0020E8
:201A1000803A0020080200200C360020F039002000093D00CC35002008360020699B00003E
:201A3000D03F0020243600202DE9F04F054608460024ADF1140D0028049000F04E81DFF8CA
:201A5000A4A2A046A146285D641C4FF6FF77411100F01F02A4B2DFE801F01A1816141210B4
:201A70000D042E5D601C80B2295C46EA0126401C84B20DE02E5D2046F9E7082608E006269E
:201A900006E0042604E0022602E0012600E000261E2AB8BF171C1E2A02D12F5D641CA4B29C
:201AB0001F2A07D12F5D601C80B2295C401C84B247EA012739468CA00A4608F0B0F9384631
:201AD000652819DC652800F0BD80401E52D0401E00F0FA80401E39D0801E00F0EE80401EB1
:201AF00000F0DD80801E00F0CF80401E00F0C1805B3800F0B58056E0663800F09780401E2C
:201B10000BD0113800F08A80401E7FD0093872D0401E58D0401E4CD045E02819314607F093
:201B30003DFA804689460096504603C802AA4B4682E8030070A0424608F071F94946404619
:201B500007F030FD002800F0C280C6E072A008F066F99AE80300894508BF804540F0B780A2
:201B70002819314608F058F807F008F8002840F0AE80B2E02819314607F010FA89468046F8
:201B900000969AE8030002AA4B4682E8030064A0424608F044F99AE80300894508BF8045D0
:201BB00000F0958099E066A03946324608F037F98DE06CA008F033F92819314608F02CF801
:201BD00008F0DCFB83E06DA008F029F905EB040B3146584608F020F807463146584608F01E
:201BF0001BF84FF4FA5102464FF47A705143784305F06CF86BE066A008F011F9281931460C
:201C100008F00AF8C0B207F0B9FB60E063A008F006F92819401C06F0F1F858E064A008F0B3
:201C3000FEF82819401C06F0C7FB50E064A0314608F0F5F829194878B21E92B2891C05F009
:201C500091F844E064A008F0EAF866A0314608F0E6F82819B11E401C89B201F0A5FE36E045
:201C700068A0314608F0DBF82819314603F0F0FA2DE06AA008F0D3F82819314607F0CCFF21
:201C9000C0B205F001F922E066A008F0C8F82819314607F0C1FFC0B207F07EFF17E064A0C3
:201CB00008F0BDF806F09EFE2819314607F0B4FFC1B2012007F036F909E02819314607F021
:201CD000ABFF07F07BFE02E05CA008F0A8F80498A419A4B2A0423FF7B6AE204605B0BDE879
:201CF000F08FC046C83F002056444820636F64652025642025780A004445465F494420251B
:201D10006C64206C656E6774682025642074616769642025640A00C05345514E4F0A00C0AC
:201D300044455354494420256C64206C656E6774682025642074616769642025640A00C0DA
:201D500056444820636F646520256420286E6F2068616E646C657229206C656E677468201F
:201D700025640A0056444820564F4C5441474520544852455348204445460A0056444820C3
:201D90005741544348444F47204445460A00C046424C494E4B204354524C0A0054524947DE
:201DB000474552204E4F2057414B4555500A00C0545249474745522057414B4555500A00B6
:201DD00041544C415320434F4445206C656E6774682025640A00C046434F4E4620534348C4
:201DF00045440A0056444820636F6E66696775726174696F6E206C656E6774682025640A71
:201E100000C046C0524144494F205345545550206C656E6774682025640A00C057414B458F
:201E300055500A00474F544F20434F4E460A00C0424C494E4B204E4F570A00C0544147531D
:201E5000544154450A0070472DE9F041B44C0F460646F80B80F0B481A07AB90F80F04681DA
:201E7000B80880F03781F80A80F01081E07939096DD2B80B59D2780B0FD2380CC0F0C58101
:201E9000206C806840880028FAD0206C806840880128F5D027F4004743E007F055FA38B126
:201EB000B56930466FF4807100224FF00073A847D24904F17000002208F0B1FAB1680025E4
:201ED0004FF0010840F602022572088884F8038082420AD0B0F5C15F07D00A8B4FF61F60B7
:201EF000104040F43470088306E00A8A4FF61F60104040F4347008827574266E08F018F9A9
:201F1000D4F85411E26804F5AA73914208BFA84626B1801B03EB8806010BB160256627F4E7
:201F30008057192008F079FA6FE104F1440008F07EFA061C08D0706830B17568F068B6F986
:201F50002C1000222023A84727F400575DE1012800F09780206C002840F0958000254FF0A4
:201F70000108E570AD4884F8058008F0D1F9284607F0A2FDAA4904F170002A4608F04FFA2E
:201F9000A66D08F0D5F8A178801B000B012906D1667826B994F86810B0EBC12F39D9A14E4C
:201FB00084F80280A6F1150109686570090A30D3606640F60900A08294F8210000F0F00056
:201FD00040F0010084F8210094F8200000F0F00084F82000A56108F01CFA06F6FF72116801
:201FF0006FF0020321F00201116004F11401C6F8FB3F8D4AC6F8EB1F11688908FCD3C6F8B0
:20201000FB3FD6F8FF1F41F00201C6F8FF1F08F0F9FA2E4604F1580080E86000666606F044
:20203000EBFE207818B9E068403008F004FA7F480660022007F054F9112003F01DFFE06875
:20205000007C10B90E2003F017FF607A18B16572052007F045F9764965710878A57128B11C
:202070000D7004F1EC00042108F0EDF9B4F95000B4F95210884214BF0220072004F024FBEA
:2020900001E00020E07127F00807BEE008F0C1F9054604F13C0008F0CAF9061C15D0E068E2
:2020B00010B1783008F0B1F9F068E060284608F0A9FA08F03DF820665E4808F029F94FF4AE
:2020D000006104F1EC0008F0BEF9002027F48067E0719AE002F024F804F14C0008F0A7F92B
:2020F00027F0020708B147F002078EE020B1042007F0F6F80020A07208F08BF9B1688046E2
:20211000088840F6020282420CD0B0F5C15F09D00A8B4FF61F60104040F43470088308E0B3
:20213000082200200A8A4FF61F60104040F43470088204F1580090E80C00002B08BF002A4E
:202150001AD0042007F0A2FAB0B1A56D07F0F0FFF168401B728AF060000BF06080188842B8
:20217000F06002D209184808F06040F6C41181422CBFB0F5FA7FF160404608F043FA07F090
:20219000E3F898B1B56930466FF4807100224FF00073A84704F13C0008F049F9002808BF06
:2021B00047F0020702D0192008F037F97569002130464FF080630A46A84727F0005724E054
:2021D00008F027F9014604F1440008F030F9061C16D0356AA80813D225EA05003062084606
:2021F00008F010FA706870B16DB12A46F068B6F92C1075680023A84705E0C04619450000CB
:20221000084608F0FFF927F4804727B104F1EC00394608F018F9BDE8F081C046694F000079
:20223000617300001500044010100440000004602B360020D14300002DE9F04F09AFADF159
:202250003C0D08900A92388809911E46ADF81800101C08BF002000F08481002700F101094C
:202270004FF0FF3A4FF0010BB8466CE1252940F063811078521C0A922D2818BFADF80680F5
:2022900005D15846551CADF8060010780A9530281CBF4246434605D10A9908785A465B46F9
:2022B000491C0A912A28CDF80080554616D1306804930A99CDF808A0C01C4B1C20F0030060
:2022D000001D306050F8044C0A93002C0878009418D5ADF806B06442009413E044460AE0E3
:2022F000610001EBC4010918A1F130040A9908780094491C0A91302801DB3A28F0DBCDF8F8
:2023100008A004932E282BD10A9908782A2801F101010A9111D13068CDF80880C01C20F065
:202330000300001D306050F8045C002D48BF454608782B46491C0A9111E0454643460AE096
:20235000690001EBC5010918A1F130050A9908782B46491C0A91302801DB3A28F0DB0293E0
:202370000AB1224604926C2804D04C2818BFADF8048005D10A990878ADF804B0491C0A9166
:202390000BA9CDF80C800FAB07916428059300F08B80692800F08880BDF818C0752872D0C2
:2023B00078286ED06F286AD0702850D063283DD073281ED009980A990128A1F101010A91E9
:2023D00015D96B490C68B5F1FF3F03D0A84288BF6D1C00D8099D029508A80AA932466B46C5
:2023F000A0473F180A99039801F1010974E040462AE030680A99C01C20F00300001D30609A
:2024100050F8040CBCF1000F01F10109014608B955A00146079107F0BDFE0390B5F1FF3F97
:202430005BD0A842C4BF281C039056E03068C01C20F00300001D306010F8040C5D468DF873
:202450002C000A990395584601F1010945E0082035680490E81C20F00300001D306050F8E1
:20247000041C082210230FA805F088F9401E0790402101700A99079801F1010929E0082369
:2024900002E0102300E00A230A99306801F10109C01C20F00300001D306050F8041CAA42E3
:2024B000BCBF2A1C049210E00A99306801F10109C01C20F00300001D306050F8041CAA429E
:2024D000BCBF2A1C04926FF009030FA805F056F90790059D281A0390009C241ABDF806503C
:2024F00000945DB906E008A8202109AA07F093F9009C7F1C641E0094F5D503980546401EBA
:20251000039075B9BDF80600E8B10098401E009019D408A8202109AA07F07DF900987F1CDF
:20253000F4E70798411C0791017809AA08A807F072F903987F1CE1E708A809AA07F06BF922
:202550007F1C09F101094A460A9812F8011C401C00290A907FF48AAE089808B14146017058
:2025700038460FB0BDE8F08F286E756C6C2900C098B90000BA482DE9F84F0025B94CB74944
:20259000056094F8E200002800F06381012800F02F81B54E02283CD0032840F05A8151F8DB
:2025B000250CD4F8B8100029A0F5C060C4F8D400B8BF49420028B8BF4042814226DA4FF0B3
:2025D0008057D7F8A4014568B4F8BC0030214FF47F42082300903046A847D7F8A4014568F5
:2025F000B4F8C00004214FF4F802122300903046A847D7F8A401B4F8D070456820214FF442
:2026100040620A2330460097A847012584F8D8501AE151F8258C07F087FE2F4600B901274E
:202630003946924F38680028FCD0B146012609F10409D9F82CA03E6009B107F07BFECAF34F
:202650000720C4F8BC0007F06FFEAA4600B9B2463B68002BFCD0D9F800B0BAF1000F3E6053
:2026700001D007F067FECBF38440C4F8C00007F05BFEAA4600B9B2463B68002BFCD0D9F8C3
:202690001C90BAF1000F3E6001D007F053FEC9F38120C4F8D000B8F5C061C4F8B81000F0E2
:2026B0009C8094F8D80068B9C4F8D410D4F8C000C4F8C800D4F8BC70C4F8C470D4F8D03005
:2026D000C4F8CC30D4F8D410D4F8BC30002954BF02206FF0010004F1C802176801EB4101A0
:2026F0004018411000EB917107EBA1001060D4F8C810C4F8C43000291CDD1E293CDDD4F88F
:20271000CC0030B93429B4BF15391E21C4F8C81025E02A29BABFD4F8C8000B381E20C4F861
:20273000C800D4F8C4003F28B4BF401C3F20C4F8C4001FE0D4F8CC00032812D011F10B0F5C
:20275000C6BFD4F8C8000B30301CC4F8C800D4F8C4000028C4BF401E051CC4F8C450032593
:2027700008E011F1150FC6BFD4F8C8001530301CC4F8C800C4F8CC504FF08057D7F8A401AB
:20279000B4F8C43030214FF47F424568364800930823A847D7F8A40104214FF4003211231A
:2027B000456831480096A847B4F8C860D7F8A40104214FF4F802122345682B480096A847DA
:2027D000D7F8A40120214FF440620A23B4F8CC60456825480096A84701E084F8D85040F2F4
:2027F000FF50404502D8801C40452DD208202EE051F8251C1E4F4BF2F5204843060A386841
:20281000C0F3814001280AD107F01AF806F0D6FA07F096FD3111C010484306EBE03694F8A7
:20283000E50030B91348006820F07F408019460801E084F8E5501048310C066001274160EB
:202850000E4D8760287808B90B2000E0052084F8E40001F073F9BDE8F88FC0462D400C40ED
:202870002C500C404C37002000A00C4000800C40B43F0050102009403C600C4015B90000B3
:202890002DE9F047DFF80CA20746AAF13500DFF8F8810068800880F0E78006F0D1FF814992
:2028B00008310B6800261A17990D02F101020AD2C0F13E0110F10A0F4FEAE101D8BF0821A8
:2028D0008A42B8BF0A1CDFF8C4C1990E0FD2590E0DD36446143C2168C1F304211629A8BF52
:2028F00020392468C4F30464162C0EDB0CE0634CD4F87C11C1F304611629A8BF2039246801
:20291000C4F30444162C00DB203C5118A146162905DA11F10A0FB8BF6FF0090100E01521B0
:20293000574C584D01F01F0242F4F85222802A6812F0030F18BF0126D20828BF46F0020668
:202950000FB146F00406424692F90740041B052C04DA9479B44208BF918865D00F28A0F1FF
:202970000F0827DB08EB0014A4F1F0084FEA282EBEF1070F88BF4FF0070E7546062D88BF76
:2029900006255CF82570042404EB850465462C59E41B04F0FF05F70824BFC4F307273D4404
:2029B000B70824BFC4F307473D44770828BF05EB146501E00025AE465CF82EC0F7080CF0D9
:2029D000FF0424BFCCF307273C44B70824BFCCF307473C44770828BF04EB1C64ADB2A8EB9E
:2029F0000E27B9EB010105FB07F505F1800504EB1524D8BF012103F0FF0334254D435D4316
:202A10004FF6FF73B5FBF4F18B4238BF191C802889B2918005DA10F1800FB8BF6FF07F00A9
:202A300000E07F20D0719671194800681F2910604FF0000008D340F2FF128A4206D24908EC
:202A5000401C8A42FBD301E01F219180124F0F39090940EAC10047EA0001CAF8FB1F002664
:202A7000CAF8FF6FBDE8F0870C490D4F424608200F60921D1070BDE8F087C0463C1100503C
:202A90006E62084024220840BC3500209C130050082009403500094000E7A48030100940ED
:202AB000FDFDA400AC3F005001282DE9FE4F40F0EE80DFF810B2DBF8DC00012840F0E480FE
:202AD0000220CBF8DC0007F017F8012005F0ACFF5FEA000805D00120CBF8DC0007F01CF86D
:202AF000D7E007F0ACFC6C49029000200860012006F0CCFD012818BF002003D1002005F0B8
:202B100019F90120654900900020654F08603868112007F021FC00280CBF002401241020A7
:202B300007F01AFC08B144F002040F2007F014FC08B144F004040B2007F00EFC30B16248A3
:202B500014300068574E016B308888470A2007F003FC002600B101264FF0805A0AF5DC759A
:202B7000301C04D02868504E016B308888474F48012606602868816944F0200088474C48AF
:202B9000066007F0E3FB00F001010191400814D2484807F099FB8146B9F1040FF8D0B9F127
:202BB000010F05D1DAF8D80142684248032190474149086820F0030008600020FFF760FE5C
:202BD0002B683868986B8047019801280DD0B9F1010F05D1DAF8D801426836483146904798
:202BF0003549086840F0030008602C48066028684169204688470B2007F0AEFB20B12868C7
:202C1000284BC16A188888470A2007F0A5FB20B12868254BC16A1888884724480322066074
:202C30002349CBF8DC2000230B602868416B204688470128F9D13868042005F0F5FE044671
:202C500015481E490660386808688009FCD30098012802D1304605F06DF807F06BFB0820E9
:202C700005F0E2FE07460298CBF8DC6007F0C6FC1348008804F058FE06F04EFF57EA04001B
:202C900018BF4FF0FF3804E06FF0040801E06FF001084046BDE8FE8F0C400940000222438B
:202CB0002C2009408EB700008AB700002820086080010443004003402422084014100940F3
:202CD00010B900004C370020A40100102DE9F047DFF8D88198F900102A2048437249714D57
:202CF000085A2988401E8842CCBF00270127704E96F90000B0F1FF3F0CD004F0CFFC4FF0A9
:202D1000FF3096F90010307088F8001053A007F086F80127674C2078B0B106F005FA664AC4
:202D3000664912680968801A81420DD264494FF0FF300022307091F9001022704AA088F83A
:202D5000001007F06CF801275E4898F900C05E4E5E4CDFF8809190F900E00FBB2A88BEF107
:202D7000000F17D4704641008B1918887746401C18807800335A205A984206DD4846544BF4
:202D9000445AC85E0019C85204E051484FF0FF3120F81E105048521C92B201782A8021E08C
:202DB00034A0614607F03BF800224B4898F900C001782A8011B33C48DFF814A12A23A64628
:202DD0000F4603FB0C00083830F80A3F2AF8023B448826F8022B838829F8024B7F1E2EF821
:202DF000023BF1D151B13A480024801E30F9023F93420DD0491E04F10104F7D131484FF081
:202E1000FF33614603701EA007F009F8BDE8F0872C4863B2614604701EA007F000F82948C2
:202E30002E4A90F900100846105C401E02280AD9C01F08D008380ED198F800002A88C9B2B9
:202E500004F0C2F905E098F800002A88C9B203F02DF923490860BDE8F087C0467775702D79
:202E70003E2564210A00C04677646E2D3E2564210A00C0466E663A202564210A00C046C034
:202E90006F6F70732063256420732564207225640A00C04663256420732564207225640AE1
:202EB00000C046C02C360020F8310020D23F0020DA3F0020D93F0020D43F00201036002036
:202ED000D83F002031360020E4350020EC350020D4350020F4350020303600201836002044
:202EF000243600202DE9F04705466E48164602681F46ADF1380DB9B1B6B108784FF0010853
:202F100008FA00F002420FD069603046002102F0FDFBAE6007F07DFA634C8146207802288E
:202F300004DB484607F06EFB0020B8E0002870D101F078FE5D49086840F0020008600AA8CA
:202F500007F09AF9DFF868A15A499AF802000AAA0C9004F1EC0005F08BFF0AA807F063F90B
:202F7000002619210AAB8DF830609AF80000524A0B9004F1700005F0C5FE0AA807F07CF913
:202F90009AF803004D490AAA0C9004F5907005F06FFF0AA807F047F99AF801008DF8308099
:202FB0001A210AAB464A0B9004F18C0005F0AAFE4449324604F1C800134605F08DFB4248A6
:202FD00007F0A6F9414A3346042104F1280006F04BFC4FF6FF70A4F8C40084F8C760A670FB
:202FF00026716671A671E67126720523667204F15802A672314684F86830304682E8030078
:203010004FF4FA71C4F85C11314AC4F860112078167004EB8001401CC1F85451C0B22070D7
:20303000484607F0EFFA44461FB903AF384607F093F8386828607868E860387C2874B8693D
:203050006C742862788A6882224EAE61EE616E61F86800B1A861786900B1E861B86800B1A7
:2030700068610021A02205F1280004F0F3F905F14000002106F062FB684607F0ABF9164944
:20309000029505F1780000226B4605F025FB134905F19C0000226B4605F01EFB28460EB038
:2030B000BDE8F087D4210840082200200020094078B9000041A0000061730000AD680000F9
:2030D000C575000079970000694F0000518600002A360020571E00006D9D0000F7A300006E
:2030F0002DE9F0411C4615468C4208BF854282BF00230022E5E0002C08BF002D0AD10029F1
:203110000EBF00286FF000006FF0000100F0E1F8BDE8F0815FF000085FF0000E002C08BF65
:203130008D429CBF2C1C0025070C47EA01470E0CB44208BFBD429EBF5FEA044444EA154411
:203150005FEA0545070A47EA01670E0AB44208BFBD429EBF5FEA042444EA15645FEA052566
:20317000470847EAC1774E08B44208BFBD4200F29380870847EA81778E08B44208BFBD4266
:203190007CD8C70847EA4177CE08B44208BFBD4266D8070947EA01770E09B44208BFBD42B7
:2031B00050D8470947EAC1674E09B44208BFBD423AD8870947EA81678E09B44208BFBD420D
:2031D00024D8C70947EA4167CE09B44208BFBD420DD8E60146EA5566EF01B14208BFB8424C
:2031F00001D3C01BB14158EB08085EEB0E0EA60146EA95664FEA8517B14208BFB84201D337
:20321000C01BB14158EB08084EEB0E0E660146EAD5666F01B14208BFB84201D3C01BB14192
:2032300058EB08084EEB0E0E260146EA15762F01B14208BFB84201D3C01BB14158EB08081C
:203250005EEB0E0EE60046EA5576EF00B14208BFB84201D3C01BB14158EB08084EEB0E0E2C
:20327000A60046EA9576AF00B14208BFB84201D3C01BB14158EB08084EEB0E0E660046EA1B
:20329000D5766F00B14208BFB84201D3C01BB14158EB08085EEB0E0EA14208BFA84201D3EF
:2032B000401BA14158EB08085EEB0E0EA34208BFAA423EBF2D0A45EA0465240A89D3734662
:2032D00042461E4617460B46024631463846BDE8F0817047F8B584460F1C5BD0684867490D
:2032F00008605578167885B1622D4FF0010003D09178622918BF00202B2D4FF0010406D026
:2033100091782B2918BF002401E000200446002144B9722E08BF102205D0772E14BF612E67
:20333000202200D00A46612E0CBF80230B1C1A43002814BF4FF480730B1C002C43EA0202E5
:2033500014BF40230B1C13437B6108B14FF40041613E10D0113E02D0761F04D012E00CB1D9
:2033700041F002010EE0002C14BF02200120014341F4C06106E0002C14BF022001200143D3
:2033900041F4027160464FF4DB7202F031FE0028386001D50020F8BD3846F8BD70B5394DD5
:2033B000284603F0AFFB384C206802280BDB012655F8181F002903D4284603F0A3FB2068A4
:2033D000761C8642F4DB70BD70B505462F48006814460E468047204603F094FB28463246F5
:2033F0002146FFF777FF0446294800688047204670BD2DE9F84381462448006888468047EC
:203410002449204A0F6857B901234FF0FF34072702F148000B607F1E40F8184BFBD11A496D
:203430000868002300280BDD14460546183C54F8186FB6F1FF3F03D06D1E03F10103F6D10B
:203450000A2B0ED0DC00984204EB0314144404BF401C086000211822204603F0FBFF214699
:2034700000E0002148464246FFF734FF04460848006880472046BDE8F883C04684400020C3
:20349000AD3300006038002074400020B4400020B84000209C3E00202DE9F04FADF1240D66
:2034B000079001F0BFFB6148007806F003F8604D0024012808D90A380FD0801E04D0401EDC
:2034D0000ED0401E09D006E006F0CEFC022804BF01210C1C06D0696805E005211F2401E014
:2034F000032107246960534A1068C0F38150012806D152F80C0C0127020E07FA02F0044337
:2035100006F0B2FE524AFF230818401E471C28607F1E02F8013BFBD1079A1268002702F0FB
:20353000FF03FE2B20D0DDF81CC096463B4601260EF0FF02FF2A10D0904205D3914203D8CB
:2035500006FA02F2144201D002206CE017430EF0FF02DFF8FCE00EF802305CF804EF5B1CD0
:203570000EF0FF02FE2AE5D1092002F0B5FE07980121A86005F1280006F0E0F805F1980647
:20359000A8464FF0010A4FF0040B0025A9460AFA05F0044216D1074204BF05F0FF0141F425
:2035B000C04104D02A480799405D51F82010224802F01AF9E8B24FF0FF3106F0A5FBC6F832
:2035D000009001E0C6F800B0D8F800006D1C361D8542DCD904A806F026FE184C184A2078B0
:2035F000102104AB059008F10C0005F08BFB684606F042FECDF80C906A466068114902901D
:2036100008F1640005F034FC0F4951F80D0C20F4F85040F4005041F80D0C0C4FC1F8FFAF6A
:203630004846C7F800A009B0BDE8F08F2F36002038360020B43F0050007FC7676CB9000088
:20365000359D0000158C00000D300940080009407C3600202DE9FC4F83F0004301E02DE930
:20367000FC4F1F03FF0847EAD2574FEA42284FEA43095FEA595906D147EA080A1CBF002133
:203690000020BDE8FC8F57F000575FF4E06E1EF1FF0EF14505D14FF00000190D0905BDE84B
:2036B000FC8F002B05D55FF0000AD8F100086AEB07070C03E40844EAD0544FEA40254FEAB9
:2036D0004106760D08D144EA050A19BF00210020191C101CBDE8FC8F44F00054764504D138
:2036F0000020090D0905BDE8FC8F002904D55FF0000A6D426AEB0404B6EB090E08D5A24662
:203710003C465746AA464546D046CEF1000E4E46BEF1360F5CBF4FF0000B23E0BEF1000F6E
:2037300004BF4FF0000B1AE0CEF1390ABAF120092EBF08FA09FB07FA0AFB4BEA080BDEF18C
:20375000200A07FA0AFA38BFBA4647FA0EF72DBF28FA0EF8AEF1200E4AFA0EF8D04415EBAE
:2037700008057C4154EA050A02BF00210020BDE8FC8F002C58BF4FF0000A06D55FF0010A2F
:203790005FF0000E6D426EEB0404A6F101066D006441FAD515F4806E11D005F480794BEA2E
:2037B000090B15F5806554F1000428BF761C0BD205F400795BEA090B08BF25F4006525F42E
:2037D000E0656D0044EB0404B61CDEBF00210020BDE8FC8F5FF4E06E1EF1FF0E76450AD3BB
:2037F0004FF0000013F00043FF21C900C91D09051943BDE8FC8F270547EA1530210B41EAD2
:20381000065141EACA71BDE8FC8F70472DE9F04F0746880FADF1140DC0F0B980002004F0FF
:20383000EFFC60485B4E4FF0000900F11008C8F80090012048F81C6C06F03EF9564806F0F1
:2038500067FD564DBC68CB4640F60A0605F1140095F82010AA7895F82130A5F81690824604
:20387000C5F818B001F0F0010680012A85F8201003F0F000A4F8029040F0010085F8210093
:2038900001D17B7CABB1B8680088A6F10801814208D0B0F5C15F05D0218B4FF60F400840EE
:2038B000208304E0218A4FF60F400840208287F81190B868694602F0DFF8684606F0BCFC34
:2038D0003346D91F4A1C00E03446666836B13088834203D0814218BF8242F5D1C4F804A01E
:2038F000607B00F0F000607305F13C0006F09FFD8068008881421FD082421DD03E8D06B30F
:2039100097F8340097F83560C7F82CB000F0F00087F8340006F0F00040F0010087F83500B7
:2039300007F12803AB619AF80D00A7F82A9000F0F0008AF80D0004E0DA4605F1580080E827
:203950000006B9680A8A4FF6FF3010400882D8F800000028FBD0687AC8F8009070B901200F
:2039700005F094FE01280FD0607B00F0F00040F0010060730A4806F0CBFC05E005F05AFAAC
:203990000028FBD006F051FDB86848F81C0C05B0BDE8F08F01010E04591E000008220020AA
:2039B000D97A00000C1004402DE9FE4FDFF87CB1044600220D465C488BF8002021880180AD
:2039D00032A006F02CFADFF86881DFF868A198F800C02846002140101FFA80FEBEF1020FC3
:2039F00018DB0CEB8C0201234FF02A09521C002034F8137009FB01F5461C5B1C05EB400564
:203A1000F0B29BB282422AF80570F1DC491C9E45C9B2ECDCD94628A0624689F8001006F0DE
:203A3000FEF956462A27002501E06D1CEDB299F80000A8420ADC40494FF6FF700880FFF748
:203A500045F923A006F0EBF9BDE8FE8F07FB05F0325A294624A006F0E2F9002498F800000E
:203A7000A042E2DD600000EBC40007FB0500301801890091418901918288C38841881FA0E3
:203A900006F0CDF9641CA4B2E8E7C04674616720706572696F643D2564206D7320696E69AA
:203AB0007469616C20636F6E66696775726174696F6E2025640A00C023636F6E663D2564B2
:203AD00020237365747570733D25640A00C046C07363686564756C6520696E697420656E45
:203AF0006465640A00C046C02564206672616D65206C656E3D25640A00C046C020207374E9
:203B10006172743D256420737465703D2564206C696D69743D25642064626D3D2564206F39
:203B30007074733D25780A00D03F00202E36002030360020F83100202C3600202DE9F843E5
:203B5000614C5A4D5A4EDFF870815E4F94F8E4100846401E0B2864D8DFE800F07B2C4306A2
:203B70002343062343067664042907D001220A2945F8212C14BF0220032004E0202045F826
:203B9000210C0120024684F8E200002045F8390C0827C5F8FF7FC5F8F37F45F8392CBDE89F
:203BB000F883052914BF09200620002784F8E400376075E094F8E170383D0120002FC5F858
:203BD0001B0004BF0620002102D00021F160032084F8E400032045F8010C316030688008CB
:203BF0005ED294F8E4103348012703290ED00068456800216022052300914046A84794F8E6
:203C1000E400062814BF0A200720CFE700684568002160220523022000904046A84704207D
:203C3000C4E7FEE72548264F0026012506600E203D6002F021F9022005F052FB84F8E45065
:203C500084F8E360BDE8F883002038600C25786024E04FF08059D9F8A001016820208847AE
:203C70002C3D0F2045F8010C41F61D56C5F80360D9F8A401466800214FF4C072072302257D
:203C900040460095B047D9F8A401C66800214FF4C07207234046B0470120386084F8E450B8
:203CB00004F1780006F0AFFBBDE8F88339400C4038600C40A401001000A00C402C500C40B5
:203CD00004800C4034600C404C3700202DE9FE4F5F4C0C9F8C461646FA21C500B3FBF1F229
:203CF00005EB4015D2040CF0070141EA124188B2C2102919C881194639A0634606F08FF822
:203D10004CF250386419B04505D24E48B04234BF0525062500E00F25304605F02DFF45A222
:203D30000CCA01F013FB82468946284605F06AFC0B4602464946504601F008FB0FF2FC0A85
:203D50009AE80C0000F01CFD04F0B2FE814605F013FF9AE80C0001F0F9FA83468A46280512
:203D700005F050FC0B4602465146584600F008FD2B468DE803004A4621A0314606F04FF841
:203D90005FEA59500AD121692F4805F00F054FEAC9230840054345EAD30525612B4D4FF43F
:203DB0007A7100E02D1DA8884843B842FAD22A886B881BA0394606F032F8A9784046B042C5
:203DD000217505D3607D00F0C00040F0050004E0607D00F0C00040F008006075BDE8FE8FF3
:203DF000646576696174696F6E202564203D202564202A20323530206D6F642025640A002D
:203E100073796D626F6C7261746520256420703D256420723D2564203D3D3E2025660A006C
:203E300072786277202564203E3D20256420282564290A000000000000003041000000004D
:203E500060E3764120A10700F00000E0FC3C0020503900202DE9F84F804692460868DAF882
:203E70000050067800271C46BB46421C242E0A6026D110F8016F521C532E0A6020D1ED1CFE
:203E900025F003052D1D55F8040CE061CAF80050208B0090A168E269D8F800005346FEF70E
:203EB000CBF98346D8F8000010B15844C8F80000DAF800502068E7600127A0EB0B00206049
:203ED000662E05D0002F64D1E16901200E705FE0208B40B9ED1D25F007050835A5F1080033
:203EF00090E8000309E0ED1C25F003052D1D55F8040C05F0FDF8894680462AA20CCA4946D1
:203F1000404603F0DBF828BF002705D2206989F000490127401E206124A20CCA494640465D
:203F300003F00FF931D3404604F066FC064605F069FB0B46024649464046FFF78BFB1DA208
:203F50000CCA01F003FA04F0B3FD0146606904220A2303F013FC401EE0612E210170636959
:203F70002269E06931461B1AE360D21A0A2303F005FC002F08BFE06104D0401EE0612D2169
:203F90000170E0696169081A02E004A0E0610720E060CAF800505846BDE8F88F28657272F0
:203FB0006F72290000000000000000000000C0FFFFFFDF41000000000088C3402DE9FF4129
:203FD00004466668A7680D4606F023FA3178012903D106F017FB002091E00121317006F04B
:203FF00011FB287870706878B07068687060A868B060E868F06028693061287D3075687D74
:204010007075A87DB075A869B061287F3077687F7077A87FB0774FF00008C6F82080C6F872
:204030003080454675627563B562B56386F82C50102386F83C3086F82D5086F83D5078685A
:2040500002F04AF9204601F075FF204602F00EFD70B92C480068C16838688847786801F07F
:204070000BFF06F0D6F9357006F0CCFA2C4645E0684606F0D8F80094387B234A0190B9688F
:204090006B4606F1800004F03DFE684606F0F4F800941E4938696A46029006F19C0004F0C4
:2040B000E7FEB07830B906F1D000294605F046FB17483061707830B906F1EC00294605F086
:2040D0003DFB1448F060684606F084F901958DF800501149029406F584700A226B4604F0B0
:2040F000FBFAB969FA6906F1400006F067F80B4A06F16C000421234605F0B6FB20460090C8
:20411000BDE8FF81D0010010494D000021900000DDA30000D5A3000041700000C9A200002E
:204130002DE9F041514C04F14C08404606F07FF9071C00F09980B86840F603022026531C12
:2041500002E04068761EF6B260B15EB101888A4218BF8B42F5D1F9682CC828312CC149C8FE
:2041700081E849003A6A00263E627D6835B397F82F0000F00700401E0BD0401E06D0801E86
:2041900018BF002308D14FF0805304E04FF0804301E04FF00053324697F82F00000908D3B7
:2041B00097F82F0010F0070F03D04FF08070324303437D68F868B7F92C10A84706F029F926
:2041D0000546B4F95200401C6FF31F30A4F85200E06C80F82F60404605F0D6FE284606F084
:2041F00011FAB4F95000B4F9521088423CD1F86890F8C20000280CBF0520072002F064FA88
:2042100004F5AA742568F868854208BF656890F8C240002C0CBF0468341C80F8C2604DB15A
:2042300095F8C23023B92868A04228BF041C01E085F8C260ACB10E480068B4F1FF3F13D039
:20425000B4FBF0F101298CBFB4FBF0F10121F868783006F0D6F8F868783006F0D4F8BDE85C
:20427000F081012004F058FBBDE8F0810822002004360020474848492DE9F041ADF1280D61
:2042900002F0A8FB4C49086010B924A006F0B2F900276846242208238DF81870394606F086
:2042B000A5F969463846024606F09CF93B4C69463A466060104606F095F9012160600A46CE
:2042D0001FA005F0ACFD364C3C2208233946204606F084F94FF4007601250220DFF8C880EE
:2042F0003049A0613B462662224625612F48E161414606F06FF92E483B4626624146A56193
:204310002246E0612B48256106F064F92B48017817A005F084FD0AB0BDE8F0814572726F17
:204330007220696E697469616C697A696E6720626F617264204C45442070696E730A00C00F
:204350004C45445320636F6E73747275637465642073656D6170686F72657320666F722079
:204370006C6564732025642C2025640A00C046C04C45445320696E697469616C20626C69AE
:204390006E6B20636F756E746572203D2025640A00C046C088350020BC400020A035002050
:2043B0008034002018270020096E0000903300201825002040330020643000203B41002020
:2043D0002DE9FF410646080BC0F08E80484C00250127E068E570016A2772C90803D3C36905
:2043F00004212A4698474349A0462A4608F1700006F015F8404805F08BFFD8F80C0041685F
:204410003F4C886808B9C86820B1A4F11C00C5613A490160384603F0F3FE2560394844F8F0
:204430001C0CB1684D80B068028840F60200904208D0B2F5C15F05D00B8B4FF60F421A40B8
:204450000A8304E00B8A4FF60F421A400A8200F1080C7774ACF10702531C00E039464F68AF
:2044700037B13888844503D0824218BF8342F5D12F464F60487B00F0F00040F0010048730F
:2044900008F13C0005F0D3FF8068008882421BD0834219D0308DC8B196F83400758596F8C3
:2044B0003530F76200F0F00086F8340003F0F00040F0010086F8350006F128024A60487B47
:2044D00000F0F000487301E0C8F86050B068694601F0D2FA684605F0AFFE20680028FCD090
:2044F0002560B06844F81C0C0090BDE8FF81C04608220020899D0000591E000051000706AB
:204510001C10044001010E042DE9F04105F0C4FC4A4C276C002F00F08D80010924D281082D
:2045300001D3A66C06B307F1100292E86000002105400E4008BF002D7CD03A693E6A07F1B1
:20455000180510403043386295E80C00676407F118061943104386E8030004F1EC004FF423
:20457000804105F070FF65E039693E6A07F1180541F00A0108403043386295E80C00002127
:2045900000262F4D266419431043103D07F1180383E8030005F108033A691868904307F173
:2045B0001002186092E803002868091C324688433946286004F14C00804604F0D5F804F128
:2045D000EC00022105F03FFFA06C98B3A06CF968C06888422ED1A06C90F82F1097F82F0043
:2045F000084310F0070016D000F0010100F002070F4304D1A16C2F310A78104304E0A16C2E
:204610002F31087840F001000870A16C3246404604F0AAF80DE0A06C2064A968A06C00695D
:204630000843A860A06C2F68103003C8081C38432860A66401F098FDBDE8F0810822002052
:204650001C1004402DE9FE4F054648480C46B4FBF0F18AB24849EE00804606EB051676189F
:2046700008FB1240F28105F087FA3CA20CCA00F087F80FF2F00999E80C0000F067FE04F0F9
:2046900017FA87B23782F689304605F075FA83468A46384605F070FA99E80C0000F070F853
:2046B0000B46024651465846FEF7D9FF3A468DE803001BA0314605F0B2FB2D48A0422CD927
:2046D0002C4F00224FF0FF3110463E460DE008FB1343002B48BF5B42B1F1FF3F01D0994243
:2046F00001DD19460246361D401C3388002BEED1960007EB0608BA5BB8F802300FA021462E
:2047100005F08DFB1D49BA5BE80000EB45104018028498F8024080F82440BDE8FE8FC046A5
:20473000663D25642066756C6C2025642066726163203D3D3E20252E36660A007375622D9D
:204750003147487A20663D25642062616E64202564206469762025640A00C0460000000049
:2047700080842E4100000000E0FFEF4040420F0000CA9A3B28400020DC3B00205039002010
:204790002DE9FC4191EA03084CBF4FF000484FF000084FEA03354FEA153556006D414FEA26
:2047B00043075FEA575711BF45F4001500210020BDE8FC814FF4E06E1EF1FF0E77456FD07F
:2047D0004FEA01334FEA133342005B414FEA4104640D11BF43F4001300210020BDE8FC8193
:2047F00074455DD0E41B002100205FF0360EAB4200D1B24205D340414941921B63EB050358
:2048100001E040414941BEF1010E05D053EA020702D052005B41EAE7BEF1200F09D2BEF1CA
:20483000160F0CD3CEF1200720FA07F100FA0EF00FE0AEF1200E00FA0EF1002009E001FABB
:204850000EF1CEF1200720FA07F741EA070100FA0EF011F4001F02D140004941641E401C81
:2048700051F1000111F4800F1ABF641C21F4800121F400114FF44077FF37E419DEBF002151
:204890000020BDE8FC8107F58067BC4208D249084FEA300041EA045141EA0801BDE8FC817B
:2048B0000020FF214FEAC101C91D4FEA015141EA0801BDE8FC8170472DE9F041424C464DC7
:2048D0008046C8F38140401E02D0401E2AD025E0284620300168880C20D24FF480402060C9
:2048F0003A48D0F802204B0AC1F3033703F0800322F08F02134347EA0302C0F80220D0F8B2
:2049100001300E1266F30303C0F80130026801F0E70722F0E70247EA020102E04FF0004114
:20493000204601602F4E301D0068C0F3C0070FB94020A0624FF40070206405F085FC40F0ED
:20495000300084F8C800C8F3815040B3401E03D0401E1FD002211EE0012004F097FE0746BE
:204970000420394603F07CFA042004F08FFE8742FAD1361F366826F07F4004F0B3FD14481A
:204990000068036807214FF06022300E98474FF4806020600321042003F062FA06E00420EA
:2049B000012103F05DFA0B4804F09CFD284600680A4947F6180700F03F0084F8CB0F084E3B
:2049D0000F803068BDE8F08140A00C400A600840B4010010BD3786006C13005070B00C4032
:2049F0002C200940AC3F005038B505F0B5FAB0B1801E0ED0801E0CD0801E012804D91AA091
:204A100005F00DFA04210EE023A005F008FA022109E029A005F003FA0120014604E02DA0DD
:204A300005F0FDF90321012004F07CFA344833490068B1FBF0F5284605F0F0FD314C02E02C
:204A5000206805F0C3FD206805F0C0FD284605F0E5FD206805F005FD0028F1DD23A005F05D
:204A7000DEF905F083FB38BD524553455420534F555243452077616B6575702066726F6DF2
:204A90002073687574646F776E20286F72206F74686572290A00C046524553455420534F81
:204AB000555243452073797374656D2F7761726D2072657365740A00524553455420534F7A
:204AD000555243452056444428522F5329206C6F73730A00524553455420534F5552434515
:204AF00020706F776572206F6E0A00C05741544348444F472072657365740A008096980046
:204B10008CB90000003600202DE9FC4705466E68D5F80880B76B002F18BF4FF0FF307BD139
:204B300031630024F477171C74631BD006F1400905F06FFC82466946484604F002F9002891
:204B50001ED4504605F05EFD9DF80000316B0870306B736B7F1E00F10100306303F1010034
:204B70007063E5D17078726B316B0128A1EB0201316303D1F36828469847726B14464AE012
:204B9000B763504605F03EFD05F043FC234D0746287820B9022004F0BDFC012028703846B5
:204BB00005F030FD1E49086840F400700860D8F80010886B40F4FA608863707808BB716810
:204BD00006F1EC07384605F002FBB8B1B4633846214605F0FCFA88B105F01BFC07462878E9
:204BF00018B1022004F07CFB2C70384605F00AFD1027716B306BF777401A3063706BBDE8B0
:204C1000FC8796F82D0030B1706B20B1B46306F19C0005F01AFC2046BDE8FC8728360020F8
:204C3000301000402DE9FF47424C94F8E70000286ED10127384D84F8E770E87C84F8E600DA
:204C50006E68C4F81061684605F0C4FB002604F10C0001966B468DF8006030490296324602
:204C700003F03AFD2E4904F130006B46324603F033FD2C4904F154006B468146324603F071
:204C90002BFDA96838468847DFF8A48026482A7D08F104030078254D1868C0F3815A22B1A3
:204CB000BAF1030F04D184F8E170BAF1030F15D0BAF1020F12D0BAF1010F0CD0022004F098
:204CD00029FC042004F0E2FC012804D028683221B1FBF0F10DE004F0E9F812E0022004F072
:204CF00019FCBAF1030F0CBF4FF47A7142F210712868B1FBF0F1484605F083FB484605F083
:204D100082FB40460068C00802D2304604F002FC00200090BDE8FF8700B900001B3800002D
:204D300095650000417B00002F36002004360020B03F00504C3700202DE9F8438146D9F803
:204D500008703868066CD9F8045046646A6CAB6CA86B16F4F06F0146A2EB03082ED1F009AA
:204D700019D2700961D389B195F83C40641EA14298BF0C1C4846214604F09EF9A86B001BB6
:204D9000A86352D105F19C0005F05FFB4846414604F0F0FB49E00029F8D0484604F08CF9DF
:204DB00095F82D10A86311B900283ED101E00020A86305F19C0005F048FB36E0F20A19D23A
:204DD0004FF00008444602E0A86B401EA86340B34846012104F070F93868446814F00F0431
:204DF000C0F80480F0D0286B401E2863686B401E686316E0386844680022202904F00F047B
:204E10004260CCBF20270F1C4846394604F054F9C7F12007B845C8BFB8464846414604F02B
:204E3000A9FBEC77484602F0E7FDB0090BD3A96A49B10F46484604F0AFF9A86218B948466B
:204E5000391D03F0ADFBBDE8F883704738B54FF4F03001884FF6FF700C46A0420FD01EA01C
:204E700004F0DDFF35482146FCF7DEFD05F00CFA03F0E2F8FF2808D004F08EFE05E0012053
:204E900005F0A6F81BA005F0B5FB324C94E8030004F05EFD94E80300294C00232246FEF74F
:204EB0001FF91EA0114604F0BAFF264D00213C220823284605F092FB4FF480600723286224
:204ED00023492148AB612A46E86120482C61002305F080FB38BDC046636F6E666967757248
:204EF0006174696F6E206C656E6774682025640A00C046C0636F6E66696775726174696F62
:204F10006E2064617461206D697373696E672C2068616C74696E670A00C046C074616720E0
:204F30002564207374617274696E6720286C6F77657220646967697473290A0002E0010021
:204F500040420F00BC340020081E0020E0330020F1140000C83F0020F8B5384C0D46A808C7
:204F70004ED2E80869D301250420A57204F0D2FA05F0DEF804F1580282E8030004F13C00FC
:204F900005F055FAE16868B1C068064641B18E4206D0316AC90803D3C369042100229847BB
:204FB0003146E1604868264900780860022004F0B1FA112001F090F9E1682571087C10B19A
:204FD000A078012803D00E2001F086F9E16849681C488F680FB9CF681FB10021C1611A4F3F
:204FF00007601A4A40F2FF7111600027876118494161184805F08CF9192005F00CFAF8BDEE
:20501000FFF78EF804F14C0005F011FA25F0020504F13C0158B9E80803D2084605F007FA5B
:2050300058B104F1C80005F0F0F9042101E045F0020104F1EC0005F006FAF8BD08220020A9
:20505000D02108400010044051000706000004600A0000401D3800002DE9F0413C4C054638
:205070002078002871D0B4F95200B4F95010884213D0284604F04EF9021C06D1216C2846CD
:2050900005F00AF900B1226C3AB1B2F92C1028464FF0E043002200F04FFA05F0BAF980465E
:2050B00004F5AA700168A94219BF00264660002606602078401EC0B2207090BBE078E56069
:2050D00088B1012003F028FC022003F025FC404605F098FA05F140004FF0FF3105F077F803
:2050F00005F097F9804604F1EC0005F0A6F904F1700005F08CF904F5907005F09EF904F187
:205110008C0005F084F904F1C80005F074F904F1280004F011FD287C012802D10E2000F085
:20513000ABFEE06805F14007854208BFE660404605F068FA384605F07CF905F1780005F035
:205150005AF905F19C0005F056F9BDE8F081C046082200202DE9F04707467D68D7F80890CA
:2051700090460E4605F055F98246A86A002864D105F5847005F049F90024EC772E625046A9
:205190006C6205F03FFA05F044F92F4E3378824623B9022004F0BEF901203070504605F0EC
:2051B00031FA2A49086840F4807008603846414603F0F2FFA862C0B93846414603F0F0F9F8
:2051D000A878D0B9A96805F1D00005F000F8E8B1AC621020E8774946284602F074F905F0CB
:2051F00018F98246307840B323E0D9F80010886B40F020008863A87810B12046BDE8F087B6
:20521000A96805F1D00004F0E2FF10B9686ABDE8F0873846414603F0C3F91020AC6249469A
:20523000E877284602F04FF905F0F3F88246307818B1022004F054F83470504605F0E2F9D2
:205250004FF0FF30BDE8F08729360020301000402DE9F04F3B4D0F46002104462970ADF1E1
:20527000340D0994002F0A9752D014F8016B14F8013B14F8010B14F8019B54F8042B54F807
:2052900004CB54F8047B54F804BB54F8048BCDF830C04FEAA31CCDF82CC00097CDF804B010
:2052B000CDF8088003F03F030396203BCDF810C05FFA83FACDF814A0C311069300F03F03E5
:2052D0000793CDF820900C9B13A004F0A8FDCDF800800B9928785A463B46FEF7F7FC28788A
:2052F0004FFA8AF103F0C2FB28784FFA89F100F097FC28780C99FFF7A5F928781249099FC8
:205310000A9B0E54E21B401CC1B293422970ACDC0DB0BDE8F08FC04625643E3E202530381B
:2053300078202564202564202564202564202D2D202564202564202564202564202564205A
:2053500025640A0030360020183600202DE9FC4191EA03084CBF4FF000484FF000084FEACB
:20537000C32545EA52554FEAC2264FEA43077F0D11BF45F0004500210020BDE8FC815FF42F
:20539000E06E1EF1FF0E774555D04FEAC12343EA50534FEAC0224FEA4104640D11BF43F0B8
:2053B000004300210020BDE8FC81744543D0E419A3FB0501A3FB06E7A2FB06631EEB030E1F
:2053D00057F1000751F10001A2FB05631EEB060E57F1000751F10001FF1851F10001C01944
:2053F00051F100014CBF4FF4806E4FF4007E10EB0E0051F1000148BF641C01D440004941EB
:205410005FF44077FF37E41BDEBF00210020BDE8FC8117F58067BC420DD24FEAD02040EA1A
:2054300041504FEA41014FEA113141EA045141EA0801BDE8FC810020FF21C900C91D090502
:2054500051EA0801BDE8FC817CB50546084602F037FA364E02461821304604F001F904F08C
:2054700045FC3449103909684C6840F2FF32002380B22C2100903046A04704F0EDFE1C21E2
:205490000246304604F0ECF804F022FC02461421304604F0E5F804F02FFD02461021304681
:2054B00004F0DEF8284602F0D7F902460C21304604F0D6F8284604F007FD1D4C400040F0F6
:2054D00020002070284604F00BFD40F010002070284604F001FB02462821304604F0C0F8C1
:2054F000284604F015FD400040F06000E070284604F01AFDC00040F0800004F8080C2846A1
:2055100004F01EFD800040F47C40A4F89300284604F0E8F802460821304604F0A1F84FF4D4
:205530008000A4F2091108607CBDC04600A00C4049A10C40B40100102DE9F8439946904697
:2055500004460E1C44BF0020011C68D404F077FF054631468022204603F0C6FC071C04D06B
:2055700097F82F0030F07F0003D1284605F046F853E097F82F0010F00F0F46D100200A21D8
:2055900007F1180640EA090941EA080896E8030008EA000019EA010608BF002820D02846A4
:2055B00005F02CF807F1180003C804F1700604F1700508EA000809EA010986E8000395E82D
:2055D0000C0007F1180696E8030007F118059943904385E80300703494E80300BDE8F883A1
:2055F00010487968884202D07968A166786004F1600080E80003284605F000F804F14000B6
:205610004FF0FF3104F0E3FDE5E7284604F0F6FF97F82F0010F00F0FFAD102200021BDE885
:20563000F883C04601810000F8B504F07DFE02F0AFF904F08BFE054605F00C000C2853D081
:20565000E80826D204F0BCF82A4E376804460120014604F010FB31686143884219D2264981
:20567000F020B0FBF7F0241A887C18B1C868A04238BF041C214D2146284604F0A3FF2846FD
:2056900004F09CFF0120FDF70FFA284604F0B4FA2CE0280928D21A4804F016FE0428FAD0A6
:2056B000184A690905D220B11168104621F0010103E01046016841F0010101609832106804
:2056D0004FF0805540F003001060D5F8B8018169202088470C4CD5F8B8712068B86B8047C4
:2056F00001202060206801E004F083FE04F022FEF8BDC0468CB9000000B90000583700209F
:20571000004003408C2108402C200940E0B501880025A1F6020159B143F20402891A04D0D3
:20573000491E19D190F8246000E00226C76901E0C67B476987B13F1F052044F2380357F877
:20575000041F0A04120C934203D0401EF7D13F1D01E0C1F303450DB90120E0BD3046401F8A
:2057700019D01F4A401E11D01B4B001F0CD0801E07D0C01E06D00F381ABF1A4A60320832AE
:2057900005E01A46121D02E01A4600E0083A1068C0F3834003E011480068C0F303200F2882
:2057B00006D0A84216D921F4702141EA004110E0761F0AD0761F08D0761F06D00F3E1CBFB9
:2057D00021F4702141F4802103D121F4002141F4E02139600020E0BDFC10005020130050C8
:2057F00000110050201300502DE9F0470D4606465FFA85FA280824BF2E4845402E494FEA33
:205810008A03C85885EA00023240C2F300672B4A06EA0504B043224006F4E0240243B4F51D
:20583000E02F01D1500E14D306F4E020074310D002F4E027B7F5A02707D0B7F5803704BFA1
:2058500022F4003242F4A02203E022F4803242F4C022DFF86C80CA5008F1D00739680122C4
:20587000002002FA0AF40C4218BF101C5FEA000906D1F00D04D34146C5F3805001F80A009E
:20589000300E0BD304F0C5FD290E34BF0021211C3A68A2431143396004F0B4FEB9F1000FCB
:2058B00006D0F00D04D34046C5F3805100F80A10BDE8F087006000A000100840007F077F94
:2058D000002002402DE9F843DFF8C4900446D9F800001F4616460D468047DFF8B88020684D
:2058F000B0F1FF3F02D0042E03D017B9464630682EE0636873B16069010903D3581E04F0DE
:2059100081FA606900216160A160E16020F00800216100E0606906B9012620F00700012F9F
:2059300046EA0006666108BF0025B7F5807F88BF4FF48077B5B97F1C384603F07AFE4646C4
:20595000054630684DB96169656041F48061616180474FF0FF30BDE8F883616941F008018E
:20597000616101E0464630686D1C65602561E919A560491EE1608047D9F80000804707491E
:20599000054A3068116080470020BDE8F883C046B4400020B840002084400020AD330000A2
:2059B000F8B505462F4890F900200E4602F003002843C1B20F4621A004F031FA2A4C2B4979
:2059D00000224FF48073204604F0E4FCF82239463346204602F00CFE254A0CCA00212046E5
:2059F00000F01EFC15F4E06F0BD0C5F3022617A0314604F014FA20460921F317324600F048
:205A10000FFC280B0AD320460521042200F094FF03F08AFB0146204603F032FDA80B0CD34D
:205A300020460A21042200F087FF03F07DFB11490968411A204603F023FDF8BD666C6167D0
:205A50007320253032782025640A00C0626561636F6E696E672077616B6575702025640A2B
:205A700000C046C0D23F002094350020642F0020C83F0020D43F002080B50288A2F60207C9
:205A90003FB143F20502BF1A14BF002090F8240000E0C07B2C4AD2F88832401F0B6048D05B
:205AB000401E3CD0001F30D0801E24D0C01E18D00F380CD0D2F890024860D2F89402886086
:205AD000D2F8BC0220F0784040F080503AE050694860D06A8860506C20F0784040F0704065
:205AF00030E010694860906A8860106C20F0784040F0F04026E0D0684860506A8860D06B1C
:205B100020F0784040F0C0401CE090684860106A8860906B20F0784040F0A04012E0506802
:205B30004860D0698860506B20F0784040F0405008E01068486090698860106B20F078401D
:205B500040F02050C86080BDC41000502DE9F84F984691468A46054604F05BFC834603F0D8
:205B7000E5FE0AAF061C2ED005F1780004F04DFC294CC6F808A0B4F9500086F82E90401C3E
:205B90006FF31F30A4F85000C6F80480B4F85000B0852248F56097E80C00202100271940DA
:205BB0001040B84606F110036A4683E8030006F11803314686F82F7004F13C0083E880019C
:205BD00002F0D2FD30B9584604F01CFD6FF00100BDE8F88FB08D85F8C2709DF80030A5F886
:205BF000C00096F82F0040F0800086F82F0033B1A07920B1E07810B1A7710120E0715846AC
:205C100004F000FD9DF8000008B101F061FBB6F92C00BDE8F88FC04608220020FDEFFF9F07
:205C3000F8B5294F2A4E04460846801E1FD0401E06D01BA004F0F3F8244D2749002205E0DC
:205C50001AA004F0ECF80021244D254ADFF884C0E0003B4600EB4410C018C78A33464FF203
:205C7000FF0603EB04139A603E40644613E013A004F0D5F81B4DE0003346002100EB441060
:205C90004FF6FF0603EB0413C019174CC28A9960164046F40066C682C5615C60D960F8BD16
:205CB000656E6320706C61696E0A00C0656E6320666173746C726D0A00C046C0656E63202B
:205CD0006C726D0A00C046C050390020AC3D0020E83E002063A40000E1730000783B002073
:205CF0005D720000543D002067A4000038B504462568B5F1FF3F12D063690020990909D315
:205D1000616839B1A268914204D0521A284603F0E7FD6369002805D543F4806363614FF073
:205D3000FF3038BD60682061A060D80924BF23F030036361002038BD2DE9F0470746194C04
:205D5000DFF86C8020680FBB8047174A10680025002820DD1549A1462E469246A1F11804F5
:205D700054F8181FB1F1FF3F0CD0D9F8000080472046FFF7BBFF0746D8F800008047DAF870
:205D900000003D43761C8642EADB04E080473846FFF7ACFF05464046006880472846BDE877
:205DB000F087C046B44000207440002060380020B8400020274A2DE9F0418046012526488C
:205DD00015600768002FFCD0244CC02025492060081F03689B0806D250F8040C204B000CBA
:205DF00040F0F0001870002010630E68304600F077FB40463146FFF727FB1B49886D40F26A
:205E10001E226FF31F40824215D90868020E12F00F0F02F00F01C0F3034018BF491E0728BA
:205E300005D006280EBF0720801C00F00F0041EA00110E4801703046FEF73EFD0C4800685B
:205E5000C16802208847402020600A4F3D60BDE8F081C046101009409402224300600C4016
:205E700056620840B43F0050BC12005002600840A0010010940460422DE9B043044604F0D5
:205E9000C8FA81462748021992F8EF10491ECFB2002F82F8EF703FD1254901EB84014A88A5
:205EB0000C78904634F07F0718D1E1090FD24FF0805000F5DC75D0F8B80181691046884735
:205ED0002868416B404688470228F9D11EE000EB8800D0F804110020884717E04FF08055E5
:205EF000D5F8B801016A10468847D5F8B801816A40468847D5F8B801016B404688470A491C
:205F100001200860094908688008FCD304F03F003F2801D0FFF7B0FF484604F073FB0020AF
:205F3000BDE8B0834C370020282008602820084060B70000F0B52B4D05F12C0158C9ADF180
:205F50001C0D02AA58C20AC94FF0805682E80A0047688468D6F8D001C168206888472168A3
:205F700021488A6B10408863206840F2F271416497F83C0097F83D10C0100DEB80008068DF
:205F9000084321684863684604F037FAD6F8D001397F466805EB8101BA698B68797F206892
:205FB00055F821101943BB7F05EB8305AB690B430199B0470D490A1F106840F010001060AB
:205FD000086840F001000860A07D0027FF2802D0E07DFF2800D11FB1086840F440400860BA
:205FF00007B0F0BDF4B700000DF8FFFF301000402DE9FC47294C8A46216800908847284908
:20601000284D086848B901232846072700220B6018307F1E40F8082BFBD12846214600F15B
:20603000180400E00834DFF8809000F15002A24206D14C46206880474FF0FF30BDE8FC87BC
:206050002268002AEED108688047684601F073FB06467089641BE2109046400806D2F06875
:206070000346009851469847074601E04FF0FF374C462068002F48BFB84609D405EBC8052E
:206090002E6071896F608A083CBF41F0010171818047206880474046BDE8FC87B44000200F
:2060B00024410020003E0020B84000202DE9F04705462A4B28481F88DFF8A4804C002A261A
:2060D00004EBC10106FB05F40D46214664194D1924182D186688A3886D896489921B03FB40
:2060F00007F61FFA86FA92FBF3F707F001076A0813D2DFF87090E20B12D22FB104F0400170
:2061100004F08000084308D120465146FFF748FC49460A884046028118E00321404616E0DE
:20613000455A02F0ADFF90FBF5F16943401A0028C8BF0421F2DC07A003F071FE20465146F3
:20615000FFF72EFC494609884046018101210170BDE8F087210A00C0F8310020D03F0020D5
:20617000A840002098350020F8B52C4C04F13C05284604F05CF90746012002F099F9206C8A
:20619000002847D1002F40D0E068F968884239D1B86802F061F8061C13D0A06C88B9012015
:2061B00002F0BAFB832835D1E068783004F02DF9C8343146204604F024F9204604F023F90D
:2061D000F8BD15493869A1F10802136807F110061843106096E80C0051F8102C181C104375
:2061F00041F8100C00260E60B86841F81C0C0F68002FFCD0284603F0C7FE2064304602F0A1
:2062100057F9F8BD4FF4806100E0022104F1EC0004F019F9F8BDC0461C10044008220020E6
:20623000F8B505460F461C46164625A0211C03F0F6FD3946002C08BFFF2E38D94FF6FF70F7
:20625000C217944208BF864228D9002C08BFB6F1FF3F1AD9FF204FF0FF32844208BF964230
:2062700009D92846082200F067FB28462346324602F02EFBF8BD2846062200F05DFB2846D7
:206290002346324602F000FBF8BD2846042200F053FB2846314603F0F3F8F8BD284602228F
:2062B00000F04AFBB1B2284602F0AEFFF8BD2846012200F041FBF1B2284602F0C1FFF8BD3F
:2062D0007061636B696E6720696E74202538783A253038780A00FEE7F8B5064604F099F8C5
:2062F000264D0746A91991F8EF00421C002881F8EF203ED1224C04EB8604267806F03F00BD
:206310003F2801D0FFF7E8FF648836F07F0018D1F0090FD24FF0805000F5DC75D0F8B8012E
:206330004169204688472868416B204688470128F9D11EE005EB8405D5F8041101208847C1
:2063500017E04FF08055D5F8B801C16920468847D5F8B801416A20468847D5F8B801C16A26
:2063700020468847074901200860074908688008FCD3384604F046F90020F8BD4C370020BF
:2063900060B70000282008602820084098B504462068B0F1FF3F05D06269500904D342F492
:2063B00080626261002098BD100A05D320460021022201F0F1FC626990094FF0000104D2BE
:2063D000D00924BF42F02002626167684FB9D00807D202F0070220464FF48073FFF772FA59
:2063F0000146E2680020226101B9012098BD80B50168B1F1FF3F05D04269910904D342F484
:2064100080624261002080BD53094FF0000104D2D30924BF42F010024261476847B9D308E8
:2064300006D202F007024FF48073FFF74BFA0146002001B9012080BD264838B56030046832
:20645000B4F1FF3F08BF002403F045FE2248234B002501211038056003F15C00016014484F
:20647000016001F0D5FF1348006820B1124800682046FFF79FFC114811490560114C0A68B2
:206490006FF35B4244EA020008600F490868C0F30130012806D10A680C48104040F400322D
:2064B0000A6008600A4908680028FCD138BDC0460822044380012843000120438C21084091
:2064D000482003400000390104000940FFFFFCFC0C006842BC1200509404604200600C40CA
:2064F00070B5234C234D0646B00E11D2700E0FD3802020744FF6D801A4F85110207001F06B
:206510001FF8D0352868C0F30420162806DB04E02868C0F30460162800DB203800EB26704C
:20653000401C162805DA10F10A0FB8BF6FF0090000E01520104D00F01F0040F4F850A4F840
:2065500059002868800803D20C490020086001E046F040660A49F00EB50E80F0010000F0D6
:206570000100086085F0010000F00100886070BD15620840B81200500000094094042A43FF
:20659000000020432DE9F04103F043FF254D214E804605F1E000007848B93446A168022071
:2065B00088470746102002F03FFA6FB31AE003F0CDFEC0091AD218480068C468174834211D
:2065D00001220023A04788B101F082FB34460020A16885F8E000022088470746102002F077
:2065F00023FA8FB1A168032088470DE00C4800683221B1FBF0F101B901213035284603F008
:2066100000FF284603F0FFFE404603F0FBFFBDE8F081C04600B90000A401001000A00C4024
:20663000043600204C370020F0B520480127F84201D002F02BF8204D204F214EBD4206D2D6
:2066500003CD0478A4003459401CA047F6E71D48002800D08047164D164FBD4202D210CDF1
:20667000A047FAE7F0BD03251BE0416808300A1C2A400BD11A1C2A40AB4305D00468043022
:206690000C600431043BF9D1131C05D0047801300C700131013BF9D1021C2A4001D0A84397
:2066B00004300368002BE0D17047C046FFFFFFFF00000000000000003004000090040000CE
:2066D000F003000055C50110F8B5044603F0A1FE234D064605F5C4710878A04305F5AA749D
:2066F00008702068002808BF002706D020689C3003F091FD002700B10127606838B19C304C
:2067100003F089FD0024384318BF0124274695F8880100BB012F1ED0D5F87C01F0B1016AA3
:2067300089080BD24469304603F06CFFD5F87C0100214FF400030A46A04708E0C4693046E7
:2067500003F060FFD5F87C0102210022A0470020C5F87C01F8BD304603F054FFF8BDC046DB
:206770000822002008B5FEF75DFA2448FCF794FE10B10AA003F03EFF02F064FAFDF77AFD6F
:206790000CA003F04CFB02F05FFC16A003F047FBFEF75CFB03F00EFF002008BD4572726F02
:2067B0007220776974682050494E5F696E69740A00C046C02A2A2A4255494C442054494D99
:2067D0004520444154452031303A35393A3536204A616E2020342032303138202A2A2A0A18
:2067F00000C046C0676F696E6720746F20726164696F2073657475700A00C046C8B800009C
:20681000002A4AD05FEA000C8B071CD1830722D1102A08D370B4103A78C978C0103AFBD2C0
:2068300070BC103238D0042A2CD3082A05D30C2A24BF08C908C008C908C008C908C092071E
:206850002AD0920F22E00B780370491C401C521E22D08B07F7D1C30714D18307D8D0121F06
:2068700012D308C903801B0C4380001D121FF8D20AE008C903701B0A43701B0A83701B0A8A
:20689000C370001D121FF4D2121D05D00B780370491C401C521EF9D160467047F8B503F0AF
:2068B000B8FD234C0746D4F8C00010F4602F33D0D4F8C000400CC6B2700807D2B00803D207
:2068D000F00828BF022602E0012600E00026751D002168B201F0ECFCD4F8C03006F1110127
:2068F0000120884023EA00013846C4F8C01003F089FEB00004F1A8010A18D7682FB108581E
:2069100000224FF000632946B8470A48006830B9022002F001F802E0384603F073FED4F8F5
:20693000C00020B104F59070002103F08CFDF8BD082200200C1004402DE9F041044690465A
:206950000F46101C19D0401E15D0401E11D0801E0DD0801E09D0801E05D0B8F5807FB4BFB7
:20697000062507250AE0052508E0042506E0032504E0022502E0012500E00025B7F5807FBA
:206990000E4602DA1E2F04DB1E26B7F5807FA8BF1F2646EA4510C1B2204602F051FC062D20
:2069B00004D15FFA88F1204602F04AFC072D03D14146204602F028FC1E2E03D1F9B2204646
:2069D00002F03EFC1F2E03D13946204602F01CFCBDE8F0812DE9F843234D884606464FF03B
:2069F000FF3105F12800814603F0F1FB00200CE0FF2909D02A688A4204D305EB8101D1F816
:206A100098700FB1002627E0401CB8F1000F03D018F82010FE29EBD10024346074600127B3
:206A3000B46011E0FF280ED005EB80000B787268C0F8986007FA03F0104370600A680949E4
:206A5000304602F033FC641CB8F1000F04D008EB84010878FE28E5D1484603F0ECFC3046D0
:206A7000BDE8F883007FC76738360020B0B5456884682349607DA27DADF1180D40F0004012
:206A90000090207D0027FF2A41EA000001904FF0020002D0E27DFF2A00D13FB1E37DA07DD4
:206AB0001943039140F0004002900420FE214DF8201005F158006946FFF78CFF68660028A8
:206AD00008BF381C1AD0617D0F2202F021FE686E217D102202F01CFEA17D3846FF2902D039
:206AF000E27DFF2A00D140B1686E112202F010FE686EE17D122202F00BFE012006B0B0BD8C
:206B10000000C0A0F8B5044625686769B5F1FF3F07F4805702D0FFF7E9F810B14FF0FF3023
:206B3000F8BD6069000907D36068401E03F06AF9606920F00800606100206060A060E060A6
:206B5000206801F0A7FA06464FF0FF30206057B10F48006880470F4800EB051002F01AFEE2
:206B70000D48006880473046F8BD38B5084C054620688047206880472846FFF7C3FF064CB4
:206B900005462068804720688047284638BDC046B4400020A0320020B8400020F8B505467D
:206BB000214800680C4680472046FFF7EFFB1F4E002830D0606900F00700042819D0A06823
:206BD000E168814204D82046FFF790F8F8B9A068411CA160EFB207706069800805D30A2D4A
:206BF00003D12046FFF782F888B9306880473846F8BD20688DF800506946012202F070FE79
:206C1000B0F1FF3F03D030688047E8B2F8BD616941F480616161306880474FF0FF30F8BDE0
:206C30000349FFF7BBBFC046B4400020B8400020783800202DE9F8432020EFF3118780F308
:206C50001188214CA068012103F0B0FC4FF001094FF0000865692168A4F81C906A1A216819
:206C7000A4F81E80461B401A904227D387F3118840462D18361A4846294603F093FCB042A4
:206C9000F7D92021EFF3118781F31188E18B012903D14046294603F085FCB0F1FF3F06D0C4
:206CB000A169801B814238BF081C291801E0A069411903F073FCA4F820902560A4F81C8051
:206CD00087F31188BDE8F8837801002070B505460A460C4617A0ADF1280D294603F09FF843
:206CF0001E48012124228DF81810082301700021684603F07BFC00206946024603F072FCBC
:206D10001749124E3C22082308600021304603F065FC4FF400703062002307200E49B061D0
:206D30000B4835613246F0610A48746103F052FC0AB070BD5741544348444F4720696E6991
:206D5000742025642025640A00C046C0F8340020182B002030340020F94900003C4100207B
:206D7000003600202DE9F0411F4C2388884607461646C3F50063934238BF1E1C002E16D4A0
:206D900013460CA03946324603F049F8174D2088414632464019FFF733FD164A2088144BC2
:206DB00022F81760811921802D1843F82750BDE8F081C04673657474696E672061746C6124
:206DD0007320636F646520256420746F206C656E67746820256420287265717565737465C8
:206DF00064202564290A00C0DC3F0020080E002068350020B43500202DE9F0415FFA80F834
:206E10004046401E012828D81B481C4A006846F2A8134146B3FBF0F6B2FBF0F510A02B4663
:206E3000324602F0FCFF174C154F04EB880420684FF0FF3103F0AEFB38680021012202F032
:206E5000CBF8304603F0EAFB386800210A4602F0C3F8284603F0E2FBE9E7BDE8F081C04629
:206E70004C454453202564206F6E202564206F66662025640A00C0468CB90000E0930400BB
:206E900064300020A035002098B5044602F04CF9194A1E4992F900200860B2F1FF3F02D0DB
:206EB0001649012008701A481549077891F90010C7B1144A174892F90020001F10F8043FA7
:206ED000994205D143789A4202D1C3789C4202D07F1EF3D198BD80780B4A41B2107002A084
:206EF00002F09DFF98BDC04677616B7570202D3E2025640A00C046C0D83F0020D93F0020FE
:206F1000D23F002031360020DA3F0020D43F0020D33F00207835002070B506467468B568D4
:206F3000606E02F099FE29681C488A6B10408863304600F037F8304600F05EFD2968C86AAC
:206F500020F01000C862296815480A6B104008636868FEF791FF04F1800003F058FA04F1B5
:206F70009C0003F06AFAA07818B904F1D00003F060FA607818B904F1EC0003F05AFA04F549
:206F9000847003F038FA03F044FA0021217003F039FB04F16C0002F0CFFD70BD0DF8FFFF6F
:206FB000FEFCFFFF2DE9F04106467568B46803F030FAA96A39B921688969090903D203F0C6
:206FD00021FBBDE8F0810027AF6203F01BFBA17D3846FF2902D0E17DFF2900D118B128460A
:206FF000214600F070FA2168886B20F0200088630D49086820F48070086003F00AFA0B4CA9
:207010008046207818B1022002F06AF92770404603F0F8FA686A296A091A29622B696A6A45
:2070300030469847BDE8F08130100040293600202DE9F04107461E49BE687C6830680968C8
:207050008069C0F3C00008BB03F0E3F9194D8046287820B1022002F043F900202870404607
:2070700003F0D0FA3168144D886B20F020008863286820F480702860606A216A091A216224
:207090002369626A38469847BDE8F0814FF4FA70B0FBF1F1012998BF012104F584742046E1
:2070B00003F0AFF9204603F0AEF9BDE8F081C04604360020293600203010004010B5994210
:2070D00001D1904233D050EA020404D141EA03046400002C2BD050EA410401D19C4226E0F2
:2070F0004C006415641C07D15C006415641C03D1DC0FB4EBD1741AE0002B0CD4002916D453
:20711000994214D190EA020401D490420FE0002A0DD101240BE0002909DC8B4207D190EA44
:20713000020401D4824202E0002800D10124EFF3008454BF44F0005424F0005484F3008838
:2071500010BD10B58B4201D1824233D052EA000404D143EA01046400002C2BD052EA4304D2
:2071700001D18C4226E05C006415641C07D14C006415641C03D1CC0FB4EBD3741AE000292F
:207190000CD4002B16D48B4214D192EA000401D482420FE000280DD101240BE0002B09DC0A
:2071B000994207D192EA000401D4904202E0002A00D10124EFF3008454BF44F0005424F0CE
:2071D000005484F3008810BD1CB51C4B4A002A2402EBC10204FB0020185A1A4C184BC1B232
:2071F00021F00F0200F00F0001F00F0153F820006270154B606033F81110218100910192EE
:2072100042788378017802A002F009FE20461CBD61746C617320636F646520253032782047
:20723000253032782025303278206C656E202564206F70747320253032780A0002320020B5
:207250006835002090400020B43500201E491F4880B52A2751F8043B51F8042B40F8043B9D
:2072700051F8043B40F8042B51F8042B40F8043B51F8043B40F8042B51F8042B40F8043B42
:2072900051F8043B40F8042B51F8042B40F8043B7F1E40F8042BDDD151F8042B51F8043B4E
:2072B00040F8042B51F8042B40F8043B51F8043B40F8042B51F8042B40F8043B40F8042B23
:2072D0000968016080BDC046F0AC00000080002138B51E4C206C002831D1E06B002831D0CB
