:20000000004D00205D880000FDC90110FDC90110FDC90110FDC90110FDC90110FDC9011084
:1C002000FDC90110FDC90110FDC90110FDC90110FDC90110FDC901103BCA0110A4
:20004000000909DC00010907000101091A00AD9900007D8100006F9D091A001200000001F6
:2000600009130022000000020913002409AB0096001E003B010E00B1010A00640305009393
:20008000030500000503090D00010204070C141D28333E474E5457595A0907000101030648
:2000A0000B121D2B3B4B5B69747B808384090700010204080E1827394E647A8C9AA4ABAF26
:2000C000B007110000384035002D400140028460005D40014000F80118A38405000904FFF0
:2000E000090400739D000011730906000308090B000193030908000138090B0001181E33D2
:200100003C3C330904000338090B0001280800000080090400333C3C330904000C390020CA
:200120000C3900201439002014390020090800B997000003000000FF0014090700C04609EA
:200140000800403900204039002048390020483900201C11000054390020543900205C3907
:2001600000205C39002064390020643900206C3900206C390020CC100000080000000816A4
:200180000020090500080000080000008C3900208C3900209C0100209C01002001000000DC
:2001A00001090B00537A090600B4390020B4390020BC390020BC390020C4390020C43900F0
:2001C00020CC390020CC390020D4390020D4390020DC390020DC390020F43E0020479D09B2
:2001E0000A00443A0020090400443A002001000000443A00200209450002009D290000896C
:200200002A00005129000035280000EF29000081280000F3280952000738090B000121032E
:200220000F0080002405A0000800D338483E00206403008005097B000238090B00011EE8E8
:20024000DE510B9380AABB010978000338090B0001280800000080090400DE510B93096423
:200260000007810000896001401A000000394001403A0000002040007F64404000A38406CE
:2002800000410104C007B133058305480A0306B87A03040102638410004302B00402009FB8
:2002A00084020044C78460F13583880300A388FB0088600E1F0200F90CAC52330F08514872
:2002C000000904FF0308090B000164030950000138090B0001181EDE510B93094C00903DBF
:2002E0000020903D0020983D0020983D0020A03D0020A03D0020A83D0020A83D0020B03D16
:200300000020B03D0020B83D0020B83D0020C03D0020C03D0020C83D0020C83D0020D03DF5
:200320000020D03D0020D83D0020D83D0020E03D0020E03D0020E83D0020E83D0020901062
:2003400034008E0D3300F00A320048083100CC06300082052F0024042E0066032D00BC028C
:200360002C0012022B00AE012A005E01290004012800DC002700B4002600820025006E0092
:2003800024005800230042002200370021002D002000000020000786000038403700A38432
:2003A00006002040007F64404000030507B1230533058305480A0306B87A02009F84020018
:2003C00044C703040102638410004302B004838803008460F13588601A000200DF7D5C50F4
:2003E0003C07A388FB000200F80C0904FF0718000038403700A38406002040007F644040C4
:2004000000030507B1230533058305480A0306B87A02009F84020044C70304010263841074
:20042000004302B004838803008460F13588601A418C6013820200DF7DA388FB000904FF57
:20044000F43E0020F43E002009040001090700040908000200000826002009040007C2019E
:20046000100910000109130001090B00C5A7090600859B09080001001C390020C5A7090E7C
:2004800000C5A7090600C5A7090A00739D09060015740932000904FF090400E8030906006C
:2004A000FF00FFC00000C04602090B0001000000402D00200C090400C046C0090800401193
:2004C000090A0001090500010018400020184000204011090A000109050001003440002001
:2004E000344000203C4000203C40002044400020444000204C4000204C40002054400020DC
:20050000544000205C4000205C40002064400020644000206C4000206C4000202D6A090AE5
:20052000000500000020090F006440002009040003000000383700205037002068370020B5
:200540000904000109080008C080FE090400FF00006B9B00006B9B0912000904FF090A00E4
:200560000900000000000000000202040034390020383900203C3900200205004D00200043
:20058000030205002001010000402E0020020C000200000000000000000201020B0001027E
:2005A0000B00903D0020021000E439002002040034010020340100203C0100203C0100208A
:2005C00002000000000000000002020800403F00206C4000200100000001020F00943900C2
:2005E0002094390020020000000000000000000000010105006CDC0201080020400020030F
:20060000010700D58E0000F79A000001000000000002010213003C40002002040002000021
:2006200000000000000000000001010400403F002001000000000000539D00004D9C00003B
:20064000CD9C00000000000000010800000001000000000000000000000101040001000020
:20066000000000000000000000010108000100000000000000000000000101080001000064
:200680000000000000000000020000001F34000002000000C800000040000000283600207D
:2006A00068050000440100209805000000010020C805000078010020F0050000A40100208A
:2006C00010060000C801002028060000E4010020480600000002002058060000EC0100200D
:2006E00068060000F001002078060000F80100208806000008020020900600000000002076
:201000003C000000000000000000000034100000000000000000000001000000000000004F
:1C10200000000000000000000000000001000000000000000800000000000000AB
:20103C003400000000000000000000006810000000000000000000000100000000000000E7
:14105C00010000000000000000000000080000000000000077
:2010700030000000000000000000000098100000040000000000000001000000FFFFFFFF87
:10109000FF00000001000000080000000000000048
:2010A0002C0000000000000000000000C4100000040000000000000001000000FFFFFFFF2F
:0C10C000FFFFFFFF080000000000000020
:2010CC0038140000E410000095A1011091A70110A1C2011009B2011041B80110A5BC011078
:0810EC0085BC01103400000076
:2010F400280000000000000000000000141100000000000000000000FFFFFFFF0000000093
:081114000800000000000000CB
:20111C00341400003011000065C2011069C101101BC2011091BA011005BC0110E5BB0110EA
:04113C00320000007D
:20114000341400005411000071C20110A5B6011099BF011045B60110B5BA011025BC01104B
:041160003300000058
:201164002400000000000000000000008011000000000000000000000000000008000000AE
:041184000000000067
:20118800240000000000000000000000A41100000000000000000000000000000800000066
:0411A8000000000043
:2011AC00240000000000000000000000C8110000000000000100000000000000080000001D
:0411CC00000000001F
:2011D0000000000014390020040000000000000000000000200000007010000030000000BE
:2011F0001C110000483900200400000000000000000000000C0000003013000018000000A6
:20121000401100005439002004000000000000000000000024000000481300001800000025
:20123000000000005C39002004000000000000000000000010000000A01000002C000000F9
:20125000CC1000006C39002004000000000000000000000020000000641100002400000020
:20127000FFFFFFFF8C39002004000000000000000000000028000000881100002400000094
:20129000FFFFFFFFBC390020040000000000000000000000580000003C1000003400000051
:2012B000FFFFFFFFC439002004000000000000000000000010000000601300001800000066
:2012D000FFFFFFFFCC3900200400000000000000000000001C000000AC11000024000000DC
:2012F000FFFFFFFFD439002004000000000000000000000038000000F4100000280000004D
:20131000FFFFFFFFDC39002004000000000000000000000054000000001000003C000000E8
:1813300018000000000000000000000040130000080000000000000032
:1813480018000000000000000000000058130000080000000000000002
:18136000180000000000000000000000701300000800000000000000D2
:08137800010000006CB200004E
:041384000100000064
:0413880000000E0053
:04138C0000000F004E
:041390003200000027
:041394000100000054
:041398001C390020DC
:04139C00000200004B
:0413A0000000000049
:0413A400FDC901106E
:0413A8000000000041
:0413AC00000000003D
:0413B0000800000031
:0413B4000000230012
:0413B80004400020CD
:0413BC00010000002C
:0413C000743900205C
:0413C400080000001D
:0413C8000000000021
:0413CC00000000001D
:0413D0000000000019
:0413D400080000000D
:0413D8000000000011
:0413DC00000000000D
:0413E0000100000008
:0413E4006C40002039
:0413E80006000000FB
:0413EC0001000000FC
:0413F000F43E0020A7
:0413F40000000000F5
:0413F80000000000F1
:0413FC0000020000EB
:0414000000000000E8
:021406002B00B9
:021408000100E1
:02140A002500BB
:02140C003200AC
:02140E003300A9
:021410003400A6
:021412000100D7
:0114140001D6
:081418000300000044B20000D3
:081420000000000000000000C4
:0414280000000100BF
:04142C0000000300B9
:0414300083C4011060
:041434003C14000064
:041438003C14000060
:04143C0000000000AC
:041440009000000018
:041444009000000014
:0414480000000000A0
:04144C0074390020CF
:04145000BD9B000040
:041454002000000074
:0414580008B20000D6
:04145C0048B1000093
:0414600009C30110AB
:0414640013880000E9
:041468005B8800009D
:04146C0095C801100E
:0414700097C8011008
:041474000000000074
:0414780074B200004A
:04147C00D8B00000E4
:04148000F0B00000C8
:04148400C0B00000F4
:0214880008005A
:02148A00090057
:02148C0001005D
:02148E0000005C
:01149000015A
:041494000000000054
:041498000000000050
:04149C00000000004C
:0414A0000000000048
:0414A4007B9D00002C
:0414A800ED8C0000C7
:0414AC00AD930000FC
:0414B000F5900000B3
:0414B4003D8F000068
:0414B800259100007A
:0414BC00857D00002A
:0414C000779C000015
:0414C400C17F0000E4
:0414C800CD960000BD
:0414CC00159D00006A
:0414D0000800000010
:0414D40024000000F0
:0414D80018000000F8
:0414DC0028000000E4
:0414E00020000000E8
:0414E4003C000000C8
:0414E8000C000000F4
:0414EC0034000000C8
:2014F0002DE9F04FCE4E3188C9A0ADF1640D08F0A0F902A808F016FB642508A8029508F02E
:201510001BFDC84909680D9100240E942746179700211891169114911091A24612915146C9
:20153000159113914FF0FF3B0F91DFF86C8311910BE2BAF1000F0BD0834503D14F78002FBC
:2015500000F0A780D348006803F098FC98F90000CF4AD24FC100002601EB401102AB521854
:2015700007EB0011CE48568004F0F4FC0246C84DDFF820C3CB482E46036898F900005F7817
:20159000CCF80020C10037F07F0701EB40114FF000070D446F80314405D1CD8A4FF6BF7C04
:2015B0000CEA050507E0C100B44601EB40116144CD8A45F04005CD825978C9091AD307F0F0
:2015D0001DFBC0F38005D8A0294608F032F998F90000B04F3246C10001EB40115118CA8ADE
:2015F0004FF6BF7CAB0103F040030CEA02021343CB823A68DDF83CA0DDF840B08DE8000C43
:20161000179BC100374601EB401110460122791807F020F898F900203B461046C10001EB3F
:20163000401159184988B1F5505F09D0C10001EB401178184188D1A008F0FBF898F9000095
:20165000119ACD4F129B934DC10001EB0011164679184E808DE80C0028680122334606F00A
:20167000F9FF98F900000146CA0002EB0112BA185288B2F5806F09D0C10001EB0011781857
:201690004188C3A008F0D5F898F9000083464FF0010A06F03FFA0E9F02461FB90127D74C5E
:2016B0000E97A418214608F0D7FA9442054609D242F21070A84205D20D99281AB0FBF1F0A4
:2016D00008F036FC77480068077842F21071A94228BF0427524A6F4998F900301588096855
:2016F0007F1E8C461A4600F0DF807F1E00F09C807F1E03D07F1E00F01D811FE1BE499000E1
:2017100000279E0000EB421008180A46478006EB43101118087B3A46642700F07000149B76
:201730000F7540F002000873B54F8C60C87B8E7BCF610AAF40F00300C87306F0B90040F0F6
:2017500044008873C87D0F624EF6602600F0F00040F00200C875301988618DE80C00179B06
:201770006046012206F076FF98F90010A24E880000EB4110301840884FF47A6707FB05494C
:20179000B0F500603CD0B0F5305002D0401E7AD0C8E006F0A7FF9748DFF854C20088674644
:2017B0000302D81941786646CA1CD2B29B189A191CF80340D57857789678801C00F02AF9BE
:2017D00090488C4900684FF0FF3208F0ADFB0C980090894A98F90010BDF82830880000EBAC
:2017F00041101018418844EA072444EA064444EA056422466AA008F01CF80120014644E025
:201810000748048806F086F9394601FB04093AE0706572696F64203D2025640A00C046C06D
:20183000D03F002064B2000070490789002601EB42114E8045680F820A7BCD6102F0700282
:2018500042F002020A73169B8C6032468DE80C006D4B6046012206F0FDFE98F90010634871
:201870006A4E00EB411035884788B7F5006653D0B6F530564BD04FF47A6000FB054951A000
:20189000394607F0D6FF0221012007F025F955E0BC3A00200836002023360020883F00208B
:2018B000503000200C360020DDF85CE04E4F067AD10001EB021175467918189B4D8047689D
:2018D000CE730A7B4F6102F0700242F002020A7360468C602A468DE80C0001222B4606F05E
:2018F000B9FE4A4B98F900103F4E1D88C80000EB011030184788B7F500660DD0B6F53056BE
:2019100005D04FF47A6000FB054933A0B8E74FF47A6000FB054970E706F0FCF84FF47A6145
:2019300001FB05090321AFE72A2A2A202564202A2A2A0A004FF47A6000FB054908F0F0FABC
:2019500001F006FB08F0ECFA4C4607F057FF98F90000B0F1FF3F05D02D4909680A78042AEC
:201970007FF4E7AD2948058801F0F2FA4FF47A6000FB0544EBE7C046D03C0020434D445FDD
:2019900053455455503E20253034780A00C046C0434D445F46533E20253034780A00C0463C
:2019B00072786F7574207374617475733D253034782074733D256C7520256420256C750AB0
:2019D00000C046C0434D445F54585F4144563E20253034780A00C046434D445F54583E206C
:2019F000253034780A00C046303D0020EC3B002008020020D43500205C3B002000093D00A2
:201A100094350020D03500204D960000D03F00200C3600202DE9F04F05460846ADF1140D87
:201A30000028049000F06381DFF8C8924FF0000800274446285D641C4FF6FF7A411100F0D8
:201A50001F02A4B2DFE801F01A18161412100D042E5D601C80B2295C46EA0126401C84B211
:201A70000DE02E5D2046F9E7082608E0062606E0042604E0022602E0012600E000261E2AE3
:201A9000B8BF92461E2A03D115F804A0641CA4B21F2A07D1295D601C80B22A5C401C41EAE2
:201AB000022A84B2514694A00A4607F0C2FE5046652819DC652800F0CF80401E58D0401E1A
:201AD00000F00C81401E3FD0801E00F00081401E00F0EF80801E00F0E180401E00F0D380B0
:201AF0005B3800F0C7805CE0663800F0A980401E11D0113800F09C80401E00F091800938E5
:201B100000F08380401E67D0401E5BD04FF66551401A4CD045E06019314607F019F8804650
:201B30000F460096484603C802AA3B4682E8030075A0424607F07DFE3946404607F0A2FA10
:201B5000002800F0CE80D2E077A007F072FE99E803008F4208BF804540F0C380601931469B
:201B700007F043FC06F0FAFE002840F0BA80BEE06019314606F0ECFF0F468046009699E8FE
:201B9000030002AA3B4682E8030069A0424607F050FE99E803008F4208BF804500F0A180D0
:201BB000A5E06BA05146324607F043FE99E071A007F03FFE6019314607F017FCC0B207F01D
:201BD000D9FB8EE06EA007F034FE6019314607F00CFC08F079F884E06FA007F02AFE04EBA3
:201BF000050B3146584607F000FC82463146584607F0FBFB4FF4FA5102464FF47A7051435C
:201C100000FB0AF004F056FF6BE068A007F011FE6019314607F0E9FBC0B207F039F960E077
:201C300065A007F006FE6019401C06F071F858E066A007F0FEFD6019401C06F06BFA50E0D0
:201C500066A0314607F0F5FD61194878B21E92B2891C04F0C5FF44E066A007F0EAFD68A053
:201C7000314607F0E6FD6019B11E401C89B202F0B1F836E06AA0314607F0DBFD6019314633
:201C900003F080FA2DE06CA007F0D3FD6019314607F0ABFBC0B205F0C7F822E068A007F033
:201CB000C8FD6019314607F0A0FBC0B206F032FF17E066A007F0BDFD06F0EAFD60193146B9
:201CD00007F093FBC1B2012006F006FF09E06019314607F08AFB07F007FC02E05EA007F0BA
:201CF000A8FD04983619B4B2A0423FF7A3AE05B0BDE8F08FC83F002056444820636F6465D8
:201D10002025642025780A004445465F494420256C64206C656E67746820256420746167CC
:201D300069642025640A00C05345514E4F0A00C044455354494420256C64206C656E6774F7
:201D5000682025642074616769642025640A00C056444820636F646520256420286E6F203B
:201D700068616E646C657229206C656E6774682025640A00474F544F2053455455500A0003
:201D900056444820564F4C5441474520544852455348204445460A00564448205741544307
:201DB00048444F47204445460A00C046424C494E4B204354524C0A005452494747455220EF
:201DD0004E4F2057414B4555500A00C0545249474745522057414B4555500A0041544C4172
:201DF0005320434F4445206C656E6774682025640A00C046434F4E462053434845440A0033
:201E100056444820636F6E66696775726174696F6E206C656E6774682025640A00C046C01D
:201E3000524144494F205345545550206C656E6774682025640A00C057414B4555500A0086
:201E5000474F544F20434F4E460A00C0424C494E4B204E4F570A00C054414753544154457E
:201E70000A00FEE72DE9FE4FB84C0F460646F80B80F04781B80880F0D480B54DDFF8D89259
:201E9000DFF8E0B2DFF8E882DFF8F4A22C68B80F67D2B0480678002E47D1380947D3AF4879
:201EB00001264946067000240C70204607F076FBAB4807F0DFFEAC492246584607F044FF7C
:201ED000AA48017801291CD141460B78CBB9A94E306880B107F012FE2B68A8493668A64D06
:201EF0000A68C01A000B82182860B2EBC61F28BF0C6007D20A60A4484FF0005107F0BAFD17
:201F10002CE00670504640F609010180417B01F0F00141F0010141734480017B01F0F00131
:201F300001734460974E306018E0390914D2B80BC0F004819D48001D07F00FFF061C08D0EB
:201F5000706830B17468F068B6F91C1098A20CCAA04727F40057F1E00021017027F00807B7
:201F7000ECE0ECB1042007F031F9C8B107F0C6FD864A29681060814226BF401A401E401AE5
:201F9000000BF060F06800F58D70F060F16840F6C410884203D340F2EE228A4200D9F06002
:201FB0000024D6F818C02C60BCF1000F10D050460D30007810F00F0F0AD1708C40F609019F
:201FD000814205D17CA20CCA30466FF48071E0476F495846224607F0B7FE4546287850B1DD
:201FF0000220ADF80000684607F0E8FA2C70BDF808006849088049460120674A674B087066
:2020100010781C70401C1070192007F0F9FD756925B16BA20CCA30462146A84727F00057C9
:202030008CE004F10C0A504607F097FE061C5FD006F08CFE7368B2690025B561E3B1F37FEF
:2020500042F002024FF00009904603F007035B1E07D05B1E03D09B1E06D15BA002E05CA01A
:2020700000E05DA090E800037268F068B6F91C104B4694464246E04707F04EFF8046B4F91A
:202090001200401C6FF31F306082E0681F30017801F07F010170504607F068FC404607F0CF
:2020B00037FFF068B0F99410B4F9122091421FD13B49097801291BD090F896409CB904685A
:2020D0008CB1384909680968B1F1FF3F10D0364909687030B4FBF1F107F016FFF06870306B
:2020F00007F00EFF04E080F89650284605F0ACFD504607F032FE27F0020708B147F00207A8
:202110001CE007F009FF01462046083007F025FE0646B469084607F0FBFEA0080CD25EB179
:202130007068B169A143B16130B17568F068B6F91C1000232246A84727F480471FB1124830
:20215000394607F097FCBDE8FE8FC04618350020DC3500201D360020193600201736002041
:20217000F9750000B0340020699400001B36002016360020CC350020E4350020C83500208C
:202190002C350020001004408C330020E0350020754D0000543400202036002018360020F8
:2021B000E8400020EC35002064B200001835002000000000200000000000000000000002E1
:2021D00000000000000000040000000000000010000000000000004000000000000000207B
:2021F0002DE9F04F09AFADF13C0D00900292388801911E46ADF83400101C08BF002000F025
:20221000828100274FF0010B00F10109B846DA466BE1252940F062811078521C02922D2894
:2022300018BFADF8228004D11078ADF822B0521C029230281CBF4246434605D111460878A9
:202250005B465A46491C02912A284FF0FF3516D128460B93346809900299CDF81C80E01C50
:202270004B1C20F00300001D306050F8044C08780293002C44BFADF822A0644212E04446C2
:2022900009E0610001EBC40140180299A0F130040878491C0291302801DB3A28F1DB0B9303
:2022B000294609912E282BD10299087843462A2801F10101029111D1099330680794C01CA9
:2022D00020F00300001D306050F8045C002D48BF454608780995491C029112E045460AE04A
:2022F000690001EBC50140180299A0F1300508782B46491C0291302801DB3A28F0DB099314
:2023100007940AB122460B926C2804D04C2818BFADF8208005D102990878ADF820A0491C9F
:20233000029103A9CDF8288007AB0E9164280C9300F08B80692800F08880BDF834C075289B
:2023500072D078286ED06F286AD0702850D063283DD073281ED0019802990128A1F10101B2
:20237000029115D96B490C68B5F1FF3F03D0A84288BF6D1C00D8019D0995684602A932464E
:2023900007ABA047C71902990A9801F1010974E040462AE030680299C01C20F00300001D58
:2023B000306050F8040CBCF1000F01F10109014608B956A001460E9107F0D2FB0A90B5F185
:2023D000FF3F5BD0A842C4BF281C0A9056E03068C01C20F00300001D306010F8040C5D4614
:2023F0008DF80C0002990A95584601F1010945E0082035680B90E81C20F00300001D30601F
:2024100050F8041C0822102307A805F041FA401E0E904021017002990E9801F1010929E0F4
:20243000082302E0102300E00A230299306801F10109C01C20F00300001D306050F8041C0C
:20245000AA42BCBF2A1C0B9210E00299306801F10109C01C20F00300001D306050F8041CFF
:20247000AA42BCBF2A1C0B926FF0090307A805F00FFA0E900C9D281A0A90079CBDF82250FD
:20249000241A65B906E06846202101AA06F00CFF079C7F1C641E0794F5D50A9800E007940D
:2024B0000546401E0A9075B9BDF82200E8B10798401E079019D46846202101AA06F0F4FE28
:2024D00007987F1CF4E70E98411C0E91017801AA684606F0E9FE0A987F1CE1E7684601AA28
:2024F00006F0E2FE7F1C09F101094A46029812F8011C401C002902907FF48BAE009808B1F2
:202510004146017038460FB0BDE8F08F286E756C6C2900C070B20000002810B50BD40A2866
:2025300009DABB4BC40018591B1920B1186884695868A04710BD4FF0FF3010BD70B50646DB
:20255000307870B1B24C502578342046314607F061FA002808BF201C04D0283D2834282D3F
:20257000F3D2002070BDBFB5044620683A2107F0A4FA071C14D02168781A7D1A0828C8BF93
:20259000082568462A4606F065FD002005F80D006846FFF7D3FF00281CBF7F1C276001D1F1
:2025B0009B4850300090BFBD9A491CB50968009088476846FFF7D7FF006A01460098884786
:2025D000044695480068804720461CBD3EB5914A009112680190904701A8FFF7C4FF054668
:2025F0006846FFF7C0FF8C4CA84204D0206880474FF0FF303EBD686A0246009901989047F7
:2026100005462068804728463EBD10B504468148006880472046FFF791FF7F49096820B1AA
:20263000002404708847204610BD88474FF0FF3010BD002810B50BD40A2809DA744BC40082
:2026500018591B1920B1186844695868A04710BD4FF0FF3010BD2DE9F8436E4E89463168A3
:20267000009088476D4847684FB9012300F120010727002243607F1E41F8082BFBD100F190
:20269000080500F12004583000E00834DFF88881A04205D021680029F7D13168A04206D101
:2026B0004146086880474FF0FF30BDE8F88388476846FFF758FF06467089641BE4104008F4
:2026D00007D2F06803460098494622469847074601E04FF0FF3741460868002F48BF3C1CDA
:2026F00009D4E2007189AE50AD186F608A083CBF41F0010171818047D8F800008047204609
:20271000BDE8F883002810B50BD40A2809DA404BC40018591B1920B11868C4695868A0478F
:2027300010BD4FF0FF3010BD70B5051C0CD40A2D0ADA384800688047E900354C364D6058EC
:20275000641820B9286880474FF0FF3070BD206800690146606888470646B6F1FF3F07D04B
:20277000216800234FF6FE704A8923601040488128688047304670BD2DE9F04782462548FF
:202790000068994690460F468047244C266856B9012304F18001002250202360283801F8DB
:2027B000282B2828FAD21C4E35685046FFF7C6FE18B1A8470120BDE8F0871948803400E059
:2027D0002834A04204D021780029F9D1A04204D1A8474FF0FF30BDE8F087204651460822F4
:2027F00006F038FC002525726781C4F80C80C4F81090089860610998A0610A98E0610B98CE
:2028100020620C993068616280472846BDE8F087F4390020C4400020C8400020EC390020F7
:20283000BC3A002070B50446B048006815460E4680472B463246B3F5807F88BF4FF4807320
:20285000AB4D201268702C701E0AAB702946EE70F32005F093F90021284605F0A8F9A54814
:202870006E782C780068804704EB062420B270BD38B505469D4800688047284607F070F95D
:202890009B4C431C2A46F520214605F077F90021204605F08CF99748657800682478804709
:2028B00004EB052420B238BD9048F8B5006880478F4D0022F8201346294605F05FF9002129
:2028D000284605F074F98B48AF782C78EE7800686D78804704EB074000EB066000EB052069
:2028F000F8BD70B50446814800680D46ADF1680D80476846214607F0EBF8204607F030F9D1
:20291000461C294606EB0D0007F0E2F8284607F027F9774C80196A46401C21460346F72053
:2029300005F02CF90021204605F041F97148657800682478804704EB052420B21AB070BD75
:20295000F8B504466948006816460D468047B6F5807F88BF4FF48076654F002220127870C7
:2029700013463C703946BE70F220340AFC7005F005F92946384605F01AF95E487D783C78A2
:202990000068804704EB052420B2F8BDF8B506465648006814460F468047554D2112697036
:2029B0003846A8702C70010A3046E97007F0D8F8431C32462946F02005F0E0F80021284682
:2029D00005F0F5F84B486E7800682D78804705EB062528B2002848BF041C2046F8BDF8B5AC
:2029F00007464248006816460C468047404D3846002228700012AC701346AE712946687061
:202A1000200AE870200C2871200E68713012E871F42005F0B3F80021284605F0C8F8354848
:202A3000EF78AE782C7800686D78804704EB076000EB064000EB0520F8BD70B504462B4813
:202A500000680D468047204607F08AF8284E431C2246F620314605F091F82946304605F0E3
:202A7000A6F8244800688047284607F079F8002814BF281C002070BD38B505461B480068A8
:202A900080471B4C002228121346607021462570F12005F073F80021204605F088F81548AD
:202AB000657800682478804704EB052420B238BD0E48F8B5006880470D4D0022F92013465F
:202AD000294605F05BF80021284605F070F80948AF782C78EE7800686D78804704EB074077
:202AF00000EB066000EB0520F8BDC046C4400020A4350020C84000202DE9F84F8246854873
:202B1000DFF8049235380068800880F0EE8006F0E1FB064683480830D0F8008000254FEA36
:202B30002874641C5FEA98500AD2C6F13E0016F10A0F4FEAE000D8BF08208442B8BF041C12
:202B50006E485FEA98610FD25FEA58610CD38346DBF80000C0F3042007F062F80746DBF8C7
:202B70000000C0F304600CE083465BF8D00CC0F3046007F055F80746ABF513700068C0F364
:202B9000044007F04DF8E7198346162F05DA17F10A0FB8BF6FF0090700E01527584A594852
:202BB00007F01F0141F4F8511180006810F0030F18BF0125C00828BF45F00205BAF1000FC3
:202BD00018BF45F00405494691F90700301A052804DA8879A84208BF888865D0DFF82CC1A0
:202BF0000F2EA6F10F0E26DB0EEB0610A0F1F00E4FEA2E20072888BF07200446062C88BF4E
:202C100006245CF824900422634602EB84029A58EC08A2EB090202F0FF0324BFC2F30724FB
:202C30002344AC0824BFC2F3074423446C0828BF03EB126301E0002318465CF820C0EC08D7
:202C50000CF0FF0224BFCCF307242244AC0824BFCCF3074422446C0828BF02EB1C629BB21A
:202C7000AEEB00246343BBEB070003F1800302EB1322D8BF012008F0FF07342343437B434A
:202C9000B3FBF2F04FF6FF72824238BF101C802E80B2888005DA16F1800FB8BF6FF07F063F
:202CB00000E07F26CE718D71194A12681F280A604FF0000208D340F2FF11814206D2400873
:202CD000521C8142FBD301E01F208880124F11490F38000942EAC00247EA0200C1F8FB0FCE
:202CF0000026C1F8FF6FBDE8F88F0D4F0B4E494608203760891D0870BDE8F88F8813005013
:202D10006E62084024220840843500209C130050082009403500094000E7A48030100940A2
:202D3000FDFDA400AC3F00502DE9F04F0128ADF1140D40F0F280DFF81492D9F8DC00012878
:202D500040F0E9800220C9F8DC0007F0D5F80290012005F0A3FC20B101210646C9F8DC1014
:202D7000D5E007F0C5F803906E484FF00008C0F80080012006F02AFA012818BFCDF8008092
:202D900004D1404605F0F2F90120009066486E4CC0F800801934D4F8FF0F112006F082FFC8
:202DB00000280CBF46460126102006F07BFF08B146F002060F2006F075FF08B146F0040634
:202DD0000B2006F06FFF30B1584800685849006B0246088890470A2006F064FF002840467F
:202DF00018BF01204FF0805B0BF5DC7528B128685049006B0246088890474F48012707601E
:202E100028688069014646F0200088474B48076006F042FF00F001010191400815D2484849
:202E300006F005FF8246BAF1040FF8D0BAF1010F06D1DBF8D8014068024641480321904788
:202E50004049086820F0030008604046FFF754FE2868D4F8FF1F806B8047019801280ED054
:202E7000BAF1010F06D1DBF8D801406802463448394690473349086840F0030008602A4849
:202E90000760286840690146304688470B2006F009FF28B128682649C06A0246088890471C
:202EB0000A2006F0FFFE28B128682249C06A024608889047204807600322C9F8DC201F4B1D
:202ED000C3F800802868406B0146304688470128F8D1042005F0E2FB124807601A48D4F809
:202EF000FF1F01688909FCD30098012802D1384605F03CF906F0CAFE082005F0CFFB0646AD
:202F10000398C9F8DC7006F0EFFF04F0F5FF029806F0E6FF02E0042600E00126304605B07A
:202F3000BDE8F08F0C40094000022243B8010010A2B000009EB00000282008608001044380
:202F5000004003402422084014100940283600202DE9F84FDFF8D48198F900102A20484366
:202F70007149704D085A2988401E8842CCBF002701276F4E96F90010B1F1FF3F08D088F821
:202F900000104FF0FF30307054A006F052FC0127684C2078B0B105F085FE674A67491268A3
:202FB0000968801A81420DD265494FF0FF300022307091F9001022704BA088F8001006F0D9
:202FD00038FC01275F4898F900C05F4CDFF87C91DFF87CB1DFF880A190F90060FFB92A88AF
:202FF000002E16D47100631818887700401C18804B46E45BD85BA04206DD5B465548CC5E82
:20301000405A0019C85204E05B464FF0FF3023F81600521C504692B201782A8023E035A06C
:20303000614606F006FC5046002298F900C001782A8021B3CE463C48DFF818912A23264610
:20305000DA460F4603FB0C00083830F80A3F2AF8023B448826F8022B838829F8024B7F1EA4
:203070002EF8023BF1D151B15B4600209B1E33F9024F94420DD0491E00F10100F7D13148D5
:203090004FF0FF33614603701DA006F0D2FBBDE8F88F2C4943B208701EA0614606F0C9FBE8
:2030B00028482E4A90F900100846105C401E02280AD9C01F08D008380ED198F800002A8842
:2030D000C9B204F0DBF805E098F800002A88C9B203F078F922490860BDE8F88F7775702D10
:2030F0003E2564210A00C04677646E2D3E2564210A00C0466E663A202564210A00C046C0B2
:203110006F6F70732063256420732564207225640A00C04663256420732564207225640A5E
:2031300000C046C014360020082F0020D23F0020DA3F0020D93F0020D43F0020E8350020E6
:20315000D83F002023360020AC350020B43500209C350020BC35002022360020FC350020DA
:203170000C3600202DE9F0411C4615468C4208BF854282BF00230022E5E0002C08BF002D12
:203190000AD100290EBF00286FF000006FF0000100F0E1F8BDE8F0815FF000085FF0000ED4
:2031B000002C08BF8D429CBF2C1C0025070C47EA01470E0CB44208BFBD429EBF5FEA044425
:2031D00044EA15445FEA0545070A47EA01670E0AB44208BFBD429EBF5FEA042444EA1564D2
:2031F0005FEA0525470847EAC1774E08B44208BFBD4200F29380870847EA81778E08B44239
:2032100008BFBD427CD8C70847EA4177CE08B44208BFBD4266D8070947EA01770E09B44236
:2032300008BFBD4250D8470947EAC1674E09B44208BFBD423AD8870947EA81678E09B4428C
:2032500008BFBD4224D8C70947EA4167CE09B44208BFBD420DD8E60146EA5566EF01B142C6
:2032700008BFB84201D3C01BB14158EB08085EEB0E0EA60146EA95664FEA8517B14208BFC3
:20329000B84201D3C01BB14158EB08084EEB0E0E660146EAD5666F01B14208BFB84201D311
:2032B000C01BB14158EB08084EEB0E0E260146EA15762F01B14208BFB84201D3C01BB14122
:2032D00058EB08085EEB0E0EE60046EA5576EF00B14208BFB84201D3C01BB14158EB0808AE
:2032F0004EEB0E0EA60046EA9576AF00B14208BFB84201D3C01BB14158EB08084EEB0E0EDC
:20331000660046EAD5766F00B14208BFB84201D3C01BB14158EB08085EEB0E0EA14208BF96
:20333000A84201D3401BA14158EB08085EEB0E0EA34208BFAA423EBF2D0A45EA0465240A38
:2033500089D3734642461E4617460B46024631463846BDE8F08170472DE9F843814606F096
:203370008FFC002100B90121724E30680028FCD0734D01242D1DEF6A346009B106F086FC1C
:20339000DFF8B481C7F3072008F1BC01086006F077FC002100B9214630680028FCD02F6845
:2033B000346009B106F072FCC7F38440C8F8C00006F066FC0146002001B92046014630688F
:2033D0000028FCD0ED69346009B106F05FFCC5F38120C8F8D000B9F5C061C8F8B81000F0C4
:2033F000A48098F8D80068B9C8F8D410D8F8C000C8F8C800D8F8BC70C8F8C470D8F8D06064
:20341000C8F8CC60D8F8D410D8F8BC60002954BF02206FF00100454605F1C8031A6801EB98
:2034300041014018411000EB917002EBA0021A60D5F8C810C5F8C46000291CDD1E293DDD93
:20345000D5F8CC0030B93429B4BF15391E21C5F8C81025E02A29BABFD5F8C8000B381E2001
:20347000C5F8C800D5F8C4003F28B4BF401C3F20C5F8C4001FE0D5F8CC00032812D011F169
:203490000B0FC6BFD5F8C8000B30201CC5F8C800D5F8C4000028CCBF401E0020C5F8C400A9
:2034B000032009E011F1150FC6BFD5F8C8001530201CC5F8C8000020C5F8CC004FF08058EA
:2034D000D8F8A401B5F8C4101C4E40684FF47F4208230746009130463021B847D8F8A4018C
:2034F000406804214FF400321123074600943046B847D8F8A401B5F8C81040684FF4F80211
:2035100012230446009130460421A047D8F8A401B5F8CC1040684FF440620A230446009176
:2035300020213046A047BDE8F883002088F8D800BDE8F88300800C402836002000A00C40EF
:2035500000A00C402DE9F04FADF1840D209001F0C3F905F013F80024012804D106F082F9FB
:20357000022808BF012459490868C0F38150012805D151F80C1C0120090E8840044354483C
:20359000007805F045FFDFF84C81DFF84CA1C8F8000030B15246FF2107467F1E02F8011BA9
:2035B000FBD120990968002501F0FF02FE2A1BD0DDF880C052462B46012701F0FF06FF2E72
:2035D0000BD0B04203D907FA06F6344201D0022079E001F0FF01354353545CF8041F5B1C75
:2035F00001F0FF06FE2EEAD1092002F0B5FA3B49209824220823086001A8002106F06CFCD7
:203610004FF0010901AA3E488DF81C90494606F05FFCD8F800303BB33A4E00274FF0040B24
:20363000BA4609FA07F0044218D1054204BF07F0FF0141F4C04104D027482099C05D51F8B8
:203650002010274802F062FEF8B24FF0FF3106F08FF8D8F80030C6F800A001E0C6F800B026
:203670007F1C361D9F42DCD30AA800213022082306F02AFC1B4D1D4A2878002410210AABD7
:2036900012901948009406F01BFC16A828220823214606F011FC686816AA16491C901448E2
:2036B0001D94234606F004FC134A52F80D0C494620F4F85040F4005042F80D0C0F4BC2F854
:2036D000FF1F2046196021B0BDE8F08FB43F00501F3600203C2C002018340020F4350020F3
:2036F000007FC76750B20000783400209D970000583300201D8600000D30094008000940E6
:2037100094340020E8300020F8B584460F1C5BD06848674908605578167885B1622D4FF085
:20373000010003D09178622918BF00202B2D4FF0010406D091782B2918BF002401E000204F
:203750000446002144B9722E08BF102205D0772E14BF612E202200D00A46612E0CBF80231D
:203770000B1C1A43002814BF4FF480730B1C002C43EA020214BF40230B1C13437B6108B1B8
:203790004FF40041613E10D0113E02D0761F04D012E00CB141F002010EE0002C14BF02209A
:2037B0000120014341F4C06106E0002C14BF02200120014341F4027160464FF4DB72FEF7FF
:2037D0004AFF0028386001D50020F8BD3846F8BD70B5394D284603F089F8384C206802282F
:2037F0000BDB012655F8181F002903D4284603F07DF82068761C8642F4DB70BD70B5054604
:203810002F48006814460E468047204603F06EF8284632462146FFF777FF044629480068A9
:203830008047204670BD2DE9F843804624480068894680472449204C0F6857B901224FF0DB
:20385000FF33072704F148000A607F1E40F8183BFBD11A4A1068002100280BDD0546A4F170
:20387000180353F8186FB6F1FF3F03D06D1E01F10101F6D10A290ED0CB00884203EB0113A5
:203890001C4404BF401C106018220021204603F0FBFD214600E0002140464A46FFF734FFD6
:2038B00004460848006880472046BDE8F883C046CC400020E1370000383700209C400020D4
:2038D000C4400020C8400020E04000202DE9FC4F83F0004301E02DE9FC4F1F03FF0847EA99
:2038F000D2574FEA42284FEA43095FEA595906D147EA080A1CBF00210020BDE8FC8F57F0BF
:2039100000575FF4E06E1EF1FF0EF14505D14FF00000190D0905BDE8FC8F002B05D55FF080
:20393000000AD8F100086AEB07070C03E40844EAD0544FEA40254FEA4106760D08D144EA44
:20395000050A19BF00210020191C101CBDE8FC8F44F00054764504D10020090D0905BDE89D
:20397000FC8F002904D55FF0000A6D426AEB0404B6EB090E08D5A2463C465746AA4645462E
:20399000D046CEF1000E4E46BEF1360F5CBF4FF0000B23E0BEF1000F04BF4FF0000B1AE07F
:2039B000CEF1390ABAF120092EBF08FA09FB07FA0AFB4BEA080BDEF1200A07FA0AFA38BFEB
:2039D000BA4647FA0EF72DBF28FA0EF8AEF1200E4AFA0EF8D04415EB08057C4154EA050A3B
:2039F00002BF00210020BDE8FC8F002C58BF4FF0000A06D55FF0010A5FF0000E6D426EEB5F
:203A10000404A6F101066D006441FAD515F4806E11D005F480794BEA090B15F5806554F1C8
:203A3000000428BF761C0BD205F400795BEA090B08BF25F4006525F4E0656D0044EB04040A
:203A5000B61CDEBF00210020BDE8FC8F5FF4E06E1EF1FF0E76450AD34FF0000013F000439C
:203A7000FF21C900C91D09051943BDE8FC8F270547EA1530210B41EA065141EACA71BDE872
:203A9000FC8F70472DE9F84F9A4693460D46044606F042FADFF85C810AAFB8F91220B8F9EE
:203AB0001010009040F6F870891A0840082880F29280B8F91000401C6FF31F30A8F810008B
:203AD000B8F9109005F0AAFD064604F1700005F0E5FDB56086F81EB0C6F804A0F460A6F8AC
:203AF0001C9097E80C0051A003C800251040F577D8F8002006F11007194087E80300002AEF
:203B10005CD14046314605F0A9F900285BD0A4F894904448F17F0778DFF8DCA041F0800141
:203B3000F17784F8965067B151460F784FB1344A3449324B0570012015700A781870521C6A
:203B50000A70009806F0E4F9D8F8040000284ED15146087800282DD12B480078012846D0EE
:203B700006F0DAF9054629480078F8B9B06804F027FB284B2C4A26491B681268086038B9AB
:203B9000284606F0C5F92448042105F073FF2EE0D0680968214C091AB1FBF3F1204606F0C8
:203BB000B3F9204606F0ACF928461EE01C4901200870F9E7192006F023F818E040463146BF
:203BD00005F04CF950B9B8F9100000F6FF706FF31F30A8F810006FF0010905E0A4F89490FD
:203BF000F07F40F08000F077009806F091F94846BDE8F88F18350020193600201D3600200E
:203C100016360020203600201836002017360020CC35002064B200008C330020F43300207A
:203C30001A3600201C360020EC350020F1EFFF9F200000002DE9FC41654C5E4D5E4EDFF881
:203C50008081624F94F8E410481E0B2866D8DFE800F0802C43062343062343067B690429B6
:203C700007D001220A2945F8212C14BF0220032004E02021012045F8211C024684F8E200FF
:203C9000002045F8390C0827C5F8FF7FC5F8F37F45F8392CBDE8FC81052914BF09200620C5
:203CB000002584F8E40035607DE094F8E1700120383D002FC5F81B0004BF0620002102D027
:203CD0000021F160032084F8E400032045F8010C31603068800866D294F8E4103748012564
:203CF00003290FD000684068002160220523074600914046B84794F8E400062814BF0A20D0
:203D10000720CEE7006840680221602205230746009140460021B8470420C2E706F0C4F8D7
:203D3000BDE8FC812749002627480E60012505600E2001F0A7FE022005F044F984F8E4508B
:203D500084F8E360BDE8FC81002038600C25786027E04FF08056D6F8A00100680146202037
:203D700088472C3D0F2045F8010C41F61D53C5F80330D6F8A401406800214FF4C072022513
:203D90000723844640460095E047D6F8A401C06800214FF4C072072306464046B047012098
:203DB000386084F8E45004F1780006F0A9F8BDE8FC81C04639400C4038600C40A401001021
:203DD00000A00C402C500C4004800C4034600C40283600202DE9FE4FDFF87CA180460022B2
:203DF0000C465C488AF80020B8F80010018032A005F01FFDDFF864B1DFF864919BF800208C
:203E10002046002140101FFA80FCBCF1020F18DB02EB820501234FF02A0E6D1C002038F88D
:203E300013700EFB01F4461C5B1C04EB4004F0B29BB2854229F80470F1DC491C9C45C9B20C
:203E5000ECDC8AF8001027A005F0F3FC4E462A270025D84601E06D1CEDB29AF80000A842A0
:203E70000ADC40494FF6FF700880FFF771F823A005F0DFFCBDE8FE8F07FB05F0325A294671
:203E900024A005F0D6FC002498F80000A042E2DD600000EBC40007FB0500301801890091B9
:203EB000418901918288C38841881FA005F0C1FC641CA4B2E8E7C046746167207065726950
:203ED0006F643D2564206D7320696E697469616C20636F6E66696775726174696F6E202552
:203EF000640A00C023636F6E663D256420237365747570733D25640A00C046C073636865D5
:203F100064756C6520696E697420656E6465640A00C046C02564206672616D65206C656E10
:203F30003D25640A00C046C0202073746172743D256420737465703D2564206C696D6974C6
:203F50003D25642064626D3D2564206F7074733D25780A00D03F00201E360020223600208D
:203F7000082F0020143600202DE9F0438046D8F80460D8F808700C46ADF1340D05F0CCFFF4
:203F90003178012903D105F0C3FF0020A3E04FF0010986F8009005F0BBFF207870706078BA
:203FB000B07060687060A068B060E068F06020693061207D3075607D7075A07DB075A06920
:203FD000B061207F3077607F00257077A07F35623563102186F83C10B0772C467462746300
:203FF000B462B46386F82C4086F82D4086F83D40786801F0B1FD404601F0E4FE404602F064
:20401000A1FF78B935480068C068014638688847786801F037FD05F07FFF347005F078FF74
:20403000A04657E001A821463022082305F04CFFCDF818803A7B09920095294AB96806F1B9
:20405000680001AB05F03CFF01A828220823214605F032FF396907912249CDF8148006F16C
:20407000840001AA234605F023FF01A824220823214605F031FFB0788DF81C9038B906F19A
:20409000B800214601AA05F023FF17483061707838B906F1D400214601AA05F019FF134821
:2040B000F06001A821462422082305F0F9FE0694ADF8144006F1F0000D49CDF81C800A22D6
:2040D00001AB05F0E9FE0B4A06F154000421434605F014F940460DB0BDE8F083D0010010BC
:2040F000715500005D840000339D00002B9D0000856C0000219C00002DE9FE4F5F4E0C9F08
:204110008C461546FA21C400B3FBF1F204EB4014D2040CF0070141EA124188B2C210311901
:20413000C881194639A0634605F083FB4CF25038A419A84505D24E48A84234BF05260626C1
:2041500000E00F26284605F089FA45A20CCA01F097F882468946304605F00BF80B46024679
:204170004946504601F08CF80FF2FC0A9AE80C0000F07EFA04F0D0FB814605F06FFA9AE832
:204190000C0001F07DF8834630058A4604F0F1FF0B4602465146584600F06AFA33468DE8DB
:2041B00003004A4621A0294605F043FB5FEA59500AD121692F4806F00F064FEAC9230840B3
:2041D000064346EAD30626612B4E4FF47A7100E0361DB0884843B842FAD2328873881BA023
:2041F000394605F026FBB1784046A842217505D3607D00F0C00040F0050004E0607D00F0A0
:20421000C00040F008006075BDE8FE8F646576696174696F6E202564203D202564202A20B3
:20423000323530206D6F642025640A0073796D626F6C7261746520256420703D25642072F1
:204250003D2564203D3D3E2025660A0072786277202564203E3D20256420282564290A0047
:2042700000000000000030410000000060E3764120A10700F00000E0F03D0020BC3A0020C8
:204290002DE9F84F804692460868DAF80050067800271C46BB46421C242E0A6026D110F860
:2042B000016F521C532E0A6020D1ED1C25F003052D1D55F8040CE061CAF80050208B0090D9
:2042D000A168E269D8F800005346FDF789FF8346D8F8000010B15844C8F80000DAF80050BD
:2042F0002068E7600127A0EB0B002060662E05D0002F64D1E16901200E705FE0208B40B908
:20431000ED1D25F007050835A5F1080090E8000309E0ED1C25F003052D1D55F8040C04F062
:20433000A5FC894680462AA20CCA4946404602F01FFF28BF002705D2206989F00049012718
:20435000401E206124A20CCA4946404602F053FF31D3404604F0EAF9064604F00AFF0B467E
:20437000024649464046FFF7B1FA1DA20CCA00F087FF04F0D1FA0146606904220A2303F00F
:2043900087FA401EE0612E21017063692269E06931461B1AE360D21A0A2303F079FA002FF0
:2043B00008BFE06104D0401EE0612D210170E0696169081A02E004A0E0610720E060CAF88E
:2043D00000505846BDE8F88F286572726F72290000000000000000000000C0FFFFFFDF415B
:2043F000000000000088C340474848492DE9F041ADF1280D02F0AAFB4C49086010B924A0C7
:2044100005F046FD00276846242208238DF81870394605F061FD69463846024605F034FD94
:204430003B4C69463A466060104605F02DFD012160600A461FA005F0FCF9364C3C2208239B
:204450003946204605F01CFD4FF4007601250220DFF8C8803049A0613B46266222462561C8
:204470002F48E161414605F007FD2E483B4626624146A5612246E0612B48256105F0FCFC58
:204490002B48017817A005F0D4F90AB0BDE8F0814572726F7220696E697469616C697A6977
:2044B0006E6720626F617264204C45442070696E730A00C04C45445320636F6E7374727500
:2044D000637465642073656D6170686F72657320666F72206C6564732025642C2025640A1E
:2044F00000C046C04C45445320696E697469616C20626C696E6B20636F756E746572203D07
:204510002025640A00C046C060350020B84000206C350020A432002008240020196D0000BC
:20453000B43100200822002064310020D8350020C04000202DE9FE4F054648484A4E0C46F2
:20455000B4FBF0F180468AB2E90001EB051108FB12407618F28105F081F83CA20CCA00F066
:2045700087F80FF2F00999E80C0000F089FE04F0D3F987B23782F689304605F06FF88346E2
:204590008A46384605F06AF899E80C0000F070F80B46024651465846FFF79DF93A468DE832
:2045B00003001BA0314605F044F92D48A0422CD92C4F00224FF0FF3110463E460DE008FB52
:2045D0001343002B48BF5B42B1F1FF3F01D0994201DD19460246361D401C3388002BEED141
:2045F000960006EB0708BA5BB8F802300FA0214605F01FF91D49BA5BE80000EB4510091837
:204610000A8498F8024081F82440BDE8FE8FC046663D25642066756C6C2025642066726114
:2046300063203D3D3E20252E36660A007375622D3147487A20663D25642062616E6420251F
:2046500064206469762025640A00C0460000000080842E4100000000E0FFEF4040420F00B8
:2046700000CA9A3B28380020D03C0020BC3A00202DE9FC4191EA03084CBF4FF000484FF01F
:2046900000084FEA03354FEA153556006D414FEA43075FEA575711BF45F400150021002031
:2046B000BDE8FC814FF4E06E1EF1FF0E77456FD04FEA01334FEA133342005B414FEA4104D8
:2046D000640D11BF43F4001300210020BDE8FC8174455DD0E41B002100205FF0360EAB4236
:2046F00000D1B24205D340414941921B63EB050301E040414941BEF1010E05D053EA02073A
:2047100002D052005B41EAE7BEF1200F09D2BEF1160F0CD3CEF1200720FA07F100FA0EF09C
:204730000FE0AEF1200E00FA0EF1002009E001FA0EF1CEF1200720FA07F741EA070100FA86
:204750000EF011F4001F02D140004941641E401C51F1000111F4800F1ABF641C21F48001E6
:2047700021F400114FF44077FF37E419DEBF00210020BDE8FC8107F58067BC4208D24908CA
:204790004FEA300041EA045141EA0801BDE8FC810020FF214FEAC101C91D4FEA015141EAF3
:2047B0000801BDE8FC8170472DE9F041424C474D8046C8F38140401E02D0401E2AD025E0CF
:2047D000284620300168880C20D24FF4804020603A48D0F802204B0AC1F3033703F0800374
:2047F00022F08F02134347EA0302C0F80220D0F801300E1266F30303C0F80130026801F0E4
:20481000E70722F0E70247EA020102E04FF00041204601602A4E06F108000068C0F3C007E9
:204830000FB94020A0624FF40070206405F0D8F940F0300084F8C800C8F3815038B3401EC8
:2048500003D0401E1ED002211DE0012004F0BEFC07460420394603F0BFFA042004F0B6FCD4
:204870008742FAD1366826F07F4004F093FB15480068036807214FF06022300E98474FF426
:20489000806020600321042003F0A6FA06E00420012103F0A1FA0C4804F07CFB284600687E
:2048B0000B4947F6180700F03F0084F8CB0F094E0F803068BDE8F08140A00C400A60084041
:2048D000A83F0050B4010010BD3786006C13005070B00C402C2009402DE9F043484C94F819
:2048F000E700ADF12C0D002877D13D4F387B01250021242284F8E7507E6884F8E600082388
:20491000C4F80C6101A805F0CBFA002604F10C00069601ABADF8146032490796324605F0EE
:20493000BBFA314904F1300001AB324605F0B4FA2E4904F1540001AB324605F0ADFAB868AC
:20495000014628468847DFF8AC8029487B7B0078D8F80410C1F381571BB1032F03D184F823
:20497000E150032F1ED0022F1CD0012F2ED14FF08059D9F8A401204C406803214FF04052F3
:204990001C230746009131462046B847D9F8A401406831464FF40072092307460095204650
:2049B000B84713E0022004F025FB032F0CBF4FF47A7142F21071114800685434B1FBF0F109
:2049D000204605F0A1FA204605F09AFAD8F80000C00802D2304604F00DFB0BB0BDE8F08331
:2049F00034B20000933A0000A96D00006D7000001F360020B03F005000A00C4064B200004B
:204A10002836002070B5ADF1380DFFF765FF324908682822082340F00200086001A80021E2
:204A300005F04AFA2D4EB0782E4907902C48002301AA05F03DFA00213022082301A805F0D2
:204A500043FA002519213078284AADF81C5001AB09902548009505F033FA2822082301A8F8
:204A7000294605F029FAF07822490790204801AA2B4605F01DFA3022082301A8294605F01B
:204A900023FA01241A2170781C4AADF81C4001AB09901948009505F013FA194819492A46CA
:204AB000134605F0F9F9184805F0E4F81849194E0C70164835704FF6FF728283C577164BD6
:204AD0001D70164C257016490D70174E3560154A15700EB070BDC0460020094058B2000024
:204AF0008C3300203D9A0000B034002069940000C033002039650000CC3400202582000077
:204B1000F4330020359000001158000038340020163600201B3600201836002017360020CC
:204B30001C3600201D360020DC35002038B504F005FFA8B1801E02280CD9001F012804D93F
:204B50001AA004F076FE04210EE024A004F071FE022109E029A004F06CFE0120014604E06A
:204B70002DA004F066FE0321012003F0B5FF354833490068B1FBF0F5284605F0D9F9324C6F
:204B900002E0206805F074F9206805F071F9284605F0CEF9206805F0EAF80028F1DD24A00F
:204BB00004F047FE04F0C8FF38BDC046524553455420534F555243452077616B65757020B5
:204BD00066726F6D2073687574646F776E20286F72206F74686572290A00C04652455345A2
:204BF0005420534F555243452073797374656D2F7761726D2072657365740A005245534539
:204C10005420534F555243452056444428522F5329206C6F73730A00524553455420534FEC
:204C30005552434520706F776572206F6E0A00C05741544348444F472072657365740A0083
:204C50008096980064B20000103600202DE9F0430746880FADF1140D75D303F01DFC404D4D
:204C700000261C352E60394845F81C0C012004F095FC374804F0FEFFBC68B14640F60A01C7
:204C9000344A6680537B118090465680107BC2F8049003F0F00300F0F000107343F001033C
:204CB000537300E01C46636813B118888142F9D1C4F80480607B00F0F0006073264805F0EF
:204CD0004CF880680088C91F81421DD0491C81421AD03B8CC3B197F82C107E8497F82D00A2
:204CF000C7F8249001F0F00100F0F00087F82C1040F0010087F82D0007F12003C8F80430C8
:204D1000507B00F0F0005073B868694600F050FE684604F05DFFB86800F006FD286800283F
:204D3000FCD02E60012004F051FA012808D0607B00F0F00040F001006073084804F09AFF0C
:204D5000B86845F81C0C05B0BDE8F08301010E04751E00002C35002018350020CD8000000F
:204D7000001004402DE9F04104F094FD3F4D3E4EDFF8FC800446A00820D330464168E9B1FA
:204D9000002242608B690A690F6922401A4342F0020205F108038A611A68BA4301F11007F7
:204DB0001A6097E80C002A680C301B1C9A432A6004F054F84046022104F05CFE7068A108BA
:204DD00015D200F1100191E80C00002702EA04013B40002B08BF002909D081691440B06080
:204DF0000C4384614FF48041404604F043FE7068002837D1304604F0B0FF071C32D01E4804
:204E1000F9680068884228D1B86803F0D9F919490860E8B905F1080138690A6810430860D9
:204E30002B6807F1100494E80300081C1843286000222A61B86845F80C0C05F110000068AD
:204E50000028FAD0304604F091FD7760BDE8F081086802F0F9FEBDE8F08140464FF4805162
:204E700004F008FEBDE8F081183500200C1004408C330020CC350020EC350020F8B5344DD6
:204E900006462878002861D0324CB4F91200B4F9101088420ED0214604F044FA18B96168D8
:204EB00001B1606830B1B0F91C1034A20CCA304602F068FA05F030F8274A2E4F117800297F
:204ED00035D0491EC9B20029117030D105F020F82248002400782C7040B1204602F0B4FE86
:204EF00006F138004FF0FF3104F0BEFF06F1380004F0B6FF06F1700004F0AEFF184804F01F
:204F1000A7FF184804F0A0FF174804F0A1FF174804F09AFF164804F09FFF17483C60357C6D
:204F30000470012D12D10E2000F0ACFDF8BD04F0EFFF3868864204BF0020386006F138006C
:204F500004F08EFF06F1700004F086FFF8BDC046E940002018350020213600201936002089
:204F70008C330020B0340020C0330020CC340020F4330020EC350020E84000200200000039
:204F90000000007010B54FF4F03001884FF6FF700C46A04207D01AA004F04BFC314821464C
:204FB000FCF738FD05E0012004F010FD1BA004F06FFF324C94E8030004F060FA94E80300CB
:204FD0002FA20CCAFEF7CEF81EA0114604F031FC254C00213C220823204604F051FF07233A
:204FF0004FF48060A361214A20622349E261204B204823612246002304F03EFF10BDC046F8
:20501000636F6E66696775726174696F6E206C656E6774682025640A00C046C0636F6E6647
:20503000696775726174696F6E2064617461206D697373696E672C2068616C74696E670A7D
:2050500000C046C0746167202564207374617274696E6720286C6F77657220646967697467
:2050700073290A0002E00100E0320020081E002040420F0004320020F1140000C83F00200C
:2050900040420F00000000002DE9F04707467D68D7F8089090460C4604F03EFFAE6A824650
:2050B000002E64D105F1F00004F0F8FA2C620024EC7750466C6204F02BFF04F02DFF2F4E7D
:2050D0003378824623B9022003F094FF01203070504604F01DFF2A4A1068414640F48070CB
:2050F0001060384603F016FEA862C0B93846414603F01EFAA878D0B9A96805F1B80004F0BC
:20511000B3FEE8B9AC621020E8774946284602F0A5FA04F001FF8246307840B323E0D9F8D7
:205130000010886B40F020008863A87810B12046BDE8F087A96805F1B80004F095FE10B1B7
:20515000686ABDE8F0873846414603F0F1F91020AC624946E877284602F080FA04F0DCFE9B
:205170008246307818B1022003F02CFF3470504604F0CEFE4FF0FF30BDE8F08725360020A7
:20519000301000402DE9F04F3B4D0F46002104462970ADF1340D0994002F0A9752D014F8CF
:2051B000016B14F8013B14F8010B14F8019B54F8042B54F804CB54F8047B54F804BB54F8B3
:2051D000048BCDF830C04FEAA31CCDF82CC00097CDF804B0CDF8088003F03F030396203B4C
:2051F000CDF810C05FFA83FACDF814A0C311069300F03F030793CDF820900C9B13A004F0BF
:2052100018FBCDF800800B9928785A463B46FEF773FF28784FFA8AF103F05CFB28784FFAC3
:2052300089F100F001FD28780C99FFF783F928781249099F0A9B0E54E21B401CC1B29342F4
:205250002970ACDC0DB0BDE8F08FC04625643E3E20253038782025642025642025642025CC
:2052700064202D2D2025642025642025642025642025642025640A0022360020FC35002077
:205290002DE9FC4191EA03084CBF4FF000484FF000084FEAC32545EA52554FEAC2264FEAFB
:2052B00043077F0D11BF45F0004500210020BDE8FC815FF4E06E1EF1FF0E774555D04FEA84
:2052D000C12343EA50534FEAC0224FEA4104640D11BF43F0004300210020BDE8FC8174459E
:2052F00043D0E419A3FB0501A3FB06E7A2FB06631EEB030E57F1000751F10001A2FB0563A8
:205310001EEB060E57F1000751F10001FF1851F10001C01951F100014CBF4FF4806E4FF4D9
:20533000007E10EB0E0051F1000148BF641C01D4400049415FF44077FF37E41BDEBF002170
:205350000020BDE8FC8117F58067BC420DD24FEAD02040EA41504FEA41014FEA113141EA26
:20537000045141EA0801BDE8FC810020FF21C900C91D090551EA0801BDE8FC812DE9F84FB2
:205390003648DFF8DCE0DFF8DC80DFF8DC90DFF8DCA0DFF8DCB0032700F1100184460EF1CB
:2053B000280208F1180309F120040AF124050BF118069CE800471031A1F1100080E80047E6
:2053D000DFF89CE0BEE8000F2832A2F12800A0E8000FBEE80007A0E800079EE8004380E89C
:2053F0000043DFF880E0BEE800071833A3F11800A0E800079EE8004380E80043DFF868E05D
:20541000BEE8000F2034A4F12000A0E8000F9EE8004780E80047DFF854E0BEE8000724359A
:20543000A5F12400A0E80007BEE80007A0E800079EE8004380E80043DFF834E0BEE80007CB
:205450001836A6F11800A0E800079EE800437F1E80E80043ADD1BDE8F88FC046883F002008
:20547000BC3A0020303D0020EC3B00205C3B0020D03C00207CB50546084602F0E3FA354E33
:2054900002461821304603F08BFE04F063F9324909684C6840F2FF32002380B22C21009004
:2054B0003046A04704F0A4FB1C210246304603F077FE04F041F902461421304603F070FE07
:2054D00004F00CFA02461021304603F069FE284602F016FA02460C21304603F061FE28465E
:2054F00004F0E4F91D4C400040F020002070284604F0E8F940F010002070284604F06EF867
:2055100002462821304603F04BFE284604F0F2F9400040F06000E070284604F0F7F9C000B9
:2055300040F0800004F8080C284604F0FBF9800040F47C40A4F89300284603F05DFE0246A2
:205550000821304603F02CFE4FF48000A4F2091108607CBD00A00C40A401001049A10C4094
:205570002DE9F8430746D7F80880D8F800007D68066C16F4F06F466426D1F00910D27009A1
:2055900052D395F83C00AC6B401E844288BF041C3846214603F04EFBA86B001BA86308E029
:2055B000A96B384603F046FB014695F82D00A96318B9A86B002837D101E00020A86305F1F2
:2055D000840004F03DFC2FE0F00A0ED3D8F80000002144684160A96B04F00F04202988BF37
:2055F0002021384603F026FB1AE04FF000094C4602E0A86B401EA863A86B88B138460121AA
:2056100003F018FBD8F80000446814F00F04C0F80490EED0296B686B491E2963401E686354
:20563000EC77384602F0C4F8B0090DD3AE6A5EB13846314603F06EFBA862A86A314618B956
:205650003846091D02F074FFBDE8F8832DE9F843DFF8C4900446D9F800001F4615460E4666
:205670008047DFF8B8802068B0F1FF3F02D0042D03D017B9454628682EE0636873B1606956
:20569000010903D3581E04F095F9606900216160A160E16020F00800216100E0606905B934
:2056B000012520F00700012F45EA0005656108BF0026B7F5807F88BF4FF48077B6B97F1C50
:2056D000384603F03FFD4546064628684EB96169666041F48061616180474FF0FF30BDE85D
:2056F000F883616941F00801616101E045462868761C66602661BF19A6607F1EE7608047F5
:20571000D9F8000080470749054A2868116080470020BDE8F883C046C4400020C8400020E8
:20573000CC400020E1370000E0B501880025A1F6020159B143F20402891A04D0491E57D1ED
:2057500090F8246000E00226C76901E0C67B4769002F4DD03F1F052044F2380357F8041F71
:205770000A04120C934203D0401EF7D13F1D01E0C1F30345002D3BD01F4B3046401F18D087
:205790001C4A401E10D0001F0CD0801E0DD0C01E06D00F3819BF1A1C6032184A443204E088
:2057B000121D02E0121F00E0083A1068C0F3834003E01A461068C0F303200F2806D0A842FF
:2057D00016D921F4702141EA004110E0761F0AD0761F08D0761F06D00F3E1CBF21F47021B3
:2057F00041F4802103D121F4002141F4E0213960E0BDC0460011005020130050C41000503F
:20581000042998B54CD1274804F0A7FA264C48B9264800F11F010978490838BF206803D3C4
:20583000406800E0C06820604168214A09781160416812680978914206D0876927B124A247
:205850000CCA6FF0FF01B847022003F0D3FB112000F082F901222168164B087C1A7018B1A1
:2058700015480078012803D00E2000F075F92168496812488F680FB9CF681FB10021C1611E
:205890000F4F07600F4A40F2FF711160002787610D4941610D4804F0EDF9192004F0CCFA9E
:2058B00098BDC04618350020EC35002038340020D0210840183600201B36002000100440D7
:2058D0005100070600000460020000405D4C00000000000000000002F8B505462F4890F911
:2058F00000200E4602F003002843C1B20F4621A003F09FFF2A4C2B4900224FF48073204602
:2059100004F0EEF9F82239463346204602F076FD254A0CCA0021204600F07EFB15F4E06F32
:205930000BD0C5F3022617A0314603F082FF20460921F317324600F06FFB280B0AD3204618
:205950000521042200F084FF03F0ACF90146204603F006FBA80B0CD320460A21042200F006
:2059700077FF03F09FF911490968411A204603F0F7FAF8BD666C6167732025303278202580
:20599000640A00C0626561636F6E696E672077616B6575702025640A00C046C0D23F0020CC
:2059B00078350020402D0020C83F0020D43F002080B50288A2F602073FB143F20502BF1ABE
:2059D00014BF002090F8240000E0C07B2C4AD2F88832401F0B6048D0401E3CD0001F30D098
:2059F000801E24D0C01E18D00F380CD0D2F890024860D2F894028860D2F8BC0220F0784080
:205A100040F080503AE050694860D06A8860506C20F0784040F0704030E010694860906A4A
:205A30008860106C20F0784040F0F04026E0D0684860506A8860D06B20F0784040F0C0400F
:205A50001CE090684860106A8860906B20F0784040F0A04012E050684860D0698860506B37
:205A700020F0784040F0405008E01068486090698860106B20F0784040F02050C86080BD5D
:205A9000C41000502DE9F843044604F045FA81462D48021992F8ED10491ECFB2002F82F895
:205AB000ED704BD12B4D05EB84052E78698836F07F0788461AD1F10911D24FF08054D4F8B4
:205AD000B801806901464046884704F5DC742068406B0146404688470228F8D121E000EB81
:205AF0008800D0F80011002088471AE04FF08054D4F8B801006A014640468847D4F8B80129
:205B1000806A014640468847D4F8B801006B01464046884701210D4A0D481160016889082A
:205B3000FCD306F03F003F2801D0FFF7ABFF687800F03F003F2801D0FFF7A4FF484604F017
:205B5000E7F9BDE8F883C04628360020282008602820084074B000002DE9F041064604F0C6
:205B7000DBF92D4D8046A91991F8ED00421C002881F8ED204AD1294C04EB8604277807F01E
:205B90003F003F2801D0FFF7E7FF607800F03F003F2801D0FFF7E0FF668837F07F001AD10F
:205BB000F80911D24FF08054D4F8B801406901463046884704F5DC742068406B01463046EB
:205BD00088470128F8D121E005EB8605D5F80011012088471AE04FF08054D4F8B801C069EF
:205BF000014630468847D4F8B801406A014630468847D4F8B801C06A0146304688470121F1
:205C1000074A0848116001688908FCD3404604F07FF9BDE8F081C0462836002074B00000E9
:205C30002820086028200840F8B52A4F2B4E04460846801E1FD0401E06D01CA003F0F9FD77
:205C5000254D2849002205E01BA003F0F2FD0021254D264ADFF888C0E300384603EB4413E5
:205C7000C018C78A33464FF2FF0603EB04139A603E40644615E014A003F0DBFDE100334637
:205C900001EB441103EB0413194D1A4C38464FF6FF0740180021C28A996007EA020646F428
:205CB0000066C682C5615C60D960F8BD656E6320706C61696E0A00C0656E6320666173741E
:205CD0006C726D0A00C046C0656E63206C726D0A00C046C0BC3A0020A03E0020883F00202D
:205CF000739D0000157400006C3C002011730000483E0020779D0000294A2DE9F041804675
:205D10000125284815600768002FFCD0284C2949C020443C206001F1080003689B0806D258
:205D300050F8040C204B000C40F0F000187000200C3110630E68304600F09CFC404631469B
:205D5000FFF798FB1C48B038816D40F21E226FF31F418A4214D901680068C1F30367C0F3E1
:205D7000034007B17F1E072805D006280EBF0720801C00F00F00114947EA00100839087066
:205D90003046FEF711FD0E4814380068C1680220884740202060054F3D60BDE8F081C04669
:205DB0001010094094022243566208409404604244600C40A83F00506C1300500A6008408D
:205DD000B40100102B4AF0B538CAADF11C0D02A938C10CCA4FF0805681E80C00846845686E
:205DF000D6F8D0112068C9688847216822488A6B10408863206840F2F271416495F83C00AE
:205E100095F83D202168C0100DEB8000806810434863684604F00CF81A4FDFF864E0D6F8D9
:205E3000D0112B7FDFF854C06A7FA87F496857F823705EF82260AA695CF820300D462068CF
:205E500001993E433343A8470F490A1F106840F010001060086840F001000860A07DFF28BC
:205E700006D0E07DFF2803D0086840F44040086007B0F0BD34B100000DF8FFFF20B100003C
:205E900018B1000008B100003010004038B504462568B5F1FF3F12D063690020990909D3FC
:205EB000616839B1A268914204D0521A2846FCF733FB6369002805D543F4806363614FF088
:205ED000FF3038BD60682061A060D80924BF23F030036361002038BD2DE9F0470746194C63
:205EF000DFF86C8020680FBB8047174A10680025002820DD1549A1462E469246A1F1180454
:205F100054F8181FB1F1FF3F0CD0D9F8000080472046FFF7BBFF0746D8F800008047DAF8CE
:205F300000003D43761C8642EADB04E080473846FFF7ACFF05464046006880472846BDE8D5
:205F5000F087C046C44000209C40002038370020C84000202DE9F041DFF8B080044698F8B5
:205F700000001F4615460E46ADF1380D012804D0FEF748FD4046012101704EB166603DB117
:205F9000A56003F0C9FF224A117819B103F0C0FF002038E0491CC9B2117003F0B9FF012556
:205FB0001FB9684603F0BEFD6F46386820607868E060387A2074F8686061386900B1A061EE
:205FD0000021782204F1200001F05EFA05A800212422082303F080FF04F138008DF82C50B9
:205FF000002105AA03F074FF05A800212422082303F056FF04F1700006490B94002205ABAF
:2060100003F04AFF20460EB0BDE8F081E9400020213600204D9D0000F8B505460F461C46A1
:20603000164625A0211C03F004FC3946002C08BFFF2E38D94FF6FF70C217944208BF86425D
:2060500028D9002C08BFB6F1FF3F1AD920A090E80C009C4208BF964209D92846082200F039
:20607000F7FB28462346324602F0CCFBF8BD2846062200F0EDFB28462346324602F09EFB19
:20609000F8BD2846042200F0E3FB2846314602F067FFF8BD2846022200F0DAFBB1B22846BF
:2060B00002F070FEF8BD2846012200F0D1FBF1B2284602F083FEF8BD7061636B696E672038
:2060D000696E74202538783A253038780A00C046FFFFFFFFFF000000F8B503F0D1FD03F0C5
:2060F000DBFD044604F00C000C2845D0E0081ED203F0C4F8234E376805460120014603F0E8
:20611000FCFA31686943884211D21F4C8220B0FBF7F0291A204603F0F7FE204603F0F0FE10
:206130000120FCF701FE204603F0B8FA25E0200922D21648610939BF016821F0010101686A
:2061500041F0010102460160D2F898004FF0805440F00300C2F89800D4F8B80180690146A4
:2061700020208847D4F8B801094C806B2168804701202060206800E030BF03F087FD01F08B
:2061900095FCF8BD64B20000343600208C2108402C2009402DE9F0414568876816460C46EE
:2061B00003F0BAFE0346A86B3246214630B1184603F0AEFE4FF0FF30BDE8F081AA632963EE
:2061D0000024EC7718466C6303F0A2FE03F0A4FE1D4E8046307820B9022002F00BFF0120E2
:2061F0003070404603F094FE1849086840F4007008603968886B40F4FA60886368780028F2
:2062100018BF201C1ED1696805F1D40003F02CFEB8B9AC633968886B20F4FA60886303F054
:206230007BFE0746307818B1022002F0CBFE3470384603F06DFE1022696B286BEA77401A66
:206250002863686BBDE8F081243600203010004030B517A0ADF12C0D03F0EBFA002124220E
:20627000082301A803F038FE214D002101AA284603F02EFE214C20481E4A214600681560C9
:206290004FF0FF3203F0D0FD218810A003F0D1FA882000901B491A482022022300F00CFE48
:2062B00018B91949FF20088000E0FEE70BB030BD5258207461736B206372656174696E679D
:2062D0002073656D6170686F72650A004372656174696E6720717565756520726561647919
:2062F00020627566666572203D2025640A00C046E8340020F8350020D035002004360020D6
:206310009435002058340020D4350020F8B50D46EEB2290824BF27494D40274BB400DFF801
:206330009CC0195900EA05020CEA020200F4E02C85EA0107BCF5E02F00EA070721EA000159
:20635000C7F3006742EA010201D1510E14D300F4E0210F4310D002F4E027B7F5A02707D057
:20637000B7F5803704BF22F4003242F4A02203E022F4803242F4C0221A51114CC10D04D377
:20639000C5F38052A4F1D0018A55000E10D303F0C3FD290E03D201220021B24002E0012233
:2063B000B2401146236893431943216003F0B0FDF8BDC046006000A000100840007F077F8E
:2063D000D02002402DE9F0470546294B2748DFF8A4804C002A2604EBC1046E432546314622
:2063F000AC1904191E8867886D184519A3886D896489D21B5E4392FBF3F71FFA86FA07F090
:2064100001076A0813D2DFF87090E20B12D22FB104F0400104F08000084308D120465146BB
:20643000FFF75AFA49460A884046028118E00321404616E0455A02F0E1FB90FBF5F16943B6
:20645000401A0028C8BF0421F2DC07A003F0F1F920465146FFF740FA494609884046018157
:2064700001210170BDE8F087210A00C0082F0020D03F0020EC3F00207C35002098B5044639
:206490002068B0F1FF3F05D06269500904D342F480626261002098BD100A05D320460021EC
:2064B000022201F003FC626990094FF0000104D2D00924BF42F02002626167684FB9D008BC
:2064D00007D202F0070220464FF48073FFF7BEF80146E2680020226101B9012098BD80B5F7
:2064F0000168B1F1FF3F05D04269910904D342F480624261002080BD53094FF0000104D2C8
:20651000D30924BF42F010024261476847B9D30806D202F007024FF48073FFF797F8014666
:20653000002001B9012080BDF8B503F0F5FC224C0746A06910F4602F25D0A069400CC6B269
:20655000700807D2B00803D2F00828BF022602E0012600E00026751D68B201F085FEA1690D
:2065700006F111020120904081433846A16103F0CFFC04EB8600876847B1606810A20CCA62
:206590002946B84702E0384603F0C2FCA06918B10A48002103F06EFAE07F80080BD3676937
:2065B0002FB1606808A20CCA6FF00101B847E07F00F0FD00E077F8BD38340020C03300204C
:2065D00000000000000000080000000000000080264838B550380468B4F1FF3F08BF002406
:2065F00003F060FA22481749002510380560012008601549086001F061FE1448006820B16E
:20661000134800682046FFF777FB124812490560124C0A686FF35B4244EA020008601049FF
:206630000868C0F30130012806D10A680D48104040F400320A6008600B4908680028FCD1EE
:2066500038BDC0465C600C400822044380012843000120438C21084048200340000039018C
:2066700004000940FFFFFCFC0C0068426C1300509404604270B5224C224D0646B00E0FD21B
:20669000700E0DD3802020744FF6D801A4F85110207001F055F8D0352868C0F3042002E021
:2066B0002868C0F3046003F0BBFA00EB2670401C162805DA10F10A0FB8BF6FF0090000E0A8
:2066D0001520114D00F01F0040F4F850A4F859002868800803D20D490020086001E046F0B5
:2066F00040660B48F10EB50E81F00101983801F00101016085F0010101F00101816070BDC0
:2067100015620840B81200500000094094042A4398002043F0B520480127F84201D001F016
:20673000E1FE204D204F214EBD4206D203CD0478A4003459401CA047F6E71D48002800D04E
:206750008047164D164FBD4202D210CDA047FAE7F0BD03251BE0416808300A1C2A400BD105
:206770001A1C2A40AB4305D0046804300C600431043BF9D1131C05D0047801300C700131FD
:20679000013BF9D1021C2A4001D0A84304300368002BE0D17047C046FFFFFFFF000000006B
:2067B0000000000098060000000700003806000055C50110002A4AD05FEA000C8B071CD1A3
:2067D000830722D1102A08D370B4103A78C978C0103AFBD270BC103238D0042A2CD3082A44
:2067F00005D30C2A24BF08C908C008C908C008C908C092072AD0920F22E00B780370491C3C
:20681000401C521E22D08B07F7D1C30714D18307D8D0121F12D308C903801B0C4380001DFE
:20683000121FF8D20AE008C903701B0A43701B0A83701B0AC370001D121FF4D2121D05D0BF
:206850000B780370491C401C521EF9D1604670472DE9F041044690460F46101C19D0401EAB
:2068700015D0401E11D0801E0DD0801E09D0801E05D0B8F5807FB4BF062507250AE00525F5
:2068900008E0042506E0032504E0022502E0012500E00025B7F5807F0E4602DA1E2F04DBAA
:2068B0001E26B7F5807FA8BF1F2646EA4510C1B2204602F083FA062D04D15FFA88F1204620
:2068D00002F07CFA072D03D14146204602F05AFA1E2E03D1F9B2204602F070FA1F2E03D157
:2068F0003946204602F04EFABDE8F081F8B5044625686769B5F1FF3F07F4805702D0FFF781
:20691000C5FA10B14FF0FF30F8BD6069000907D36068401E03F04EF8606920F00800606117
:2069300000206060A060E0602068FBF7FDFE06464FF0FF30206057B10F48006880470F4893
:2069500000EB0510FBF730FE0D48006880473046F8BD38B5084C054620688047206880472E
:206970002846FFF7C3FF064C05462068804720688047284638BDC046C4400020B02F00201A
:20699000C8400020F8B50546214800680C4680472046FFF773FD1F4E002830D0606900F0C3
:2069B0000700042819D0A068E168814204D82046FFF76CFAF8B9A068411CA160EFB20770CA
:2069D0006069800805D30A2D03D12046FFF75EFA88B9306880473846F8BD20688DF800508F
:2069F00069460122FBF798FDB0F1FF3F03D030688047E8B2F8BD616941F480616161306894
:206A100080474FF0FF30F8BD0349FFF7BBBFC046C4400020C8400020503700202DE9F84376
:206A30002020EFF3118780F31188214CA068012103F0F6F94FF001094FF000086569216820
:206A5000A4F81C906A1A2168A4F81E80461B401A904227D387F3118840464519361A48463B
:206A7000294603F0D9F9B042F7D92021EFF3118781F31188E18B012903D14046294603F0F6
:206A9000CBF9B0F1FF3F06D0A169801B814238BF081C411901E0A069291803F0B9F9A4F824
:206AB00020902560A4F81C8087F31188BDE8F8837801002070B505460A460C4617A0ADF126
:206AD000280D294602F0B5FE1E48012124228DF81810082301700021684603F0FDF900206E
:206AF0006946024603F0D0F91749124E3C22082308600021304603F0C3F94FF40070306297
:206B1000002307200E49B0610B4835613246F0610A48746103F0B0F90AB070BD5741544328
:206B300048444F4720696E69742025642025640A00C046C01C3300200828002054320020C8
:206B50003D4B0000C3400020103600202DE9F843DFF87C900F4604464FF0FF31484603F051
:206B700083F9DFF870801D4800210AE0FF2A07D00368934202D958F822600EB1002421E081
:206B9000491C1FB117F82120FE2AEFD100202060012660600546A0600EE0FF290BD06368EA
:206BB00006FA01F048F8214018430B4960601268204602F039F96D1C27B107EB850211785D
:206BD000FE29EAD1484603F053F92046BDE8F88394340020E8300020007FC7673C2C00201B
:206BF0002DE9F0411F4C2388884605461646C3F50063934238BF1E1C002E16D413460CA075
:206C10002946324602F015FE174F2088414632463818FFF7CFFD164A2088144B22F8156063
:206C300031182180C01943F82500BDE8F081C04673657474696E672061746C617320636FE0
:206C5000646520256420746F206C656E6774682025642028726571756573746564202564A1
:206C7000290A00C0DC3F0020080E0020403500208C3500202DE9F04107467C68BE6804F197
:206C9000F00002F00BFD1D49306809688069000923D203F041F91A4D8046287820B10220B7
:206CB00002F090F900202870404603F031F932681449906B20F020009063086820F4807065
:206CD0000860206A616A2569626A401A2062216A2B4638469847BDE8F0814FF4FA70B0FBEA
:206CF000F1F1012998BF0121F034204603F00CF9204603F005F9BDE8F081C04664B20000F4
:206D100025360020301000402DE9F0415FFA80F84046401E012828D81B481C4A006846F2DA
:206D3000A8134146B3FBF0F5B2FBF0F610A033462A4602F07EFD174C154F04EB880420680B
:206D50004FF0FF3103F090F838680021012201F0A5FE284603F0ECF8386800210A4601F07A
:206D70009DFE304603F0E4F8E9E7BDE8F081C0464C454453202564206F6E202564206F66CB
:206D9000662025640A00C04664B20000E0930400D83500206C3500202DE9984303F0BCF8B1
:206DB0001F4CDFF87880814604F1E000007850B94446A0680146022088470746102001F034
:206DD0006DFC2FB320E000F00DFF002820460FD1144909683222B2FBF1F101B9012100F170
:206DF0003004204603F090F8204603F089F80FE044460022A16880F8E0200220884707463A
:206E1000102001F04BFC1FB1A068014603208847484603F07DF8BDE89883C04634B2000047
:206E30002836002064B2000098B5044601F03AFF194A1E4992F900200860B2F1FF3F02D05D
:206E50001649012008701A481549077891F90010C7B1144A174892F90020001F10F8043F07
:206E7000994205D143789A4202D1C3789C4202D07F1EF3D198BD80780B4A41B2107002A0E4
:206E900002F0D7FC98BDC04677616B7570202D3E2025640A00C046C0D83F0020D93F002027
:206EB000D23F002023360020DA3F0020D43F0020D33F0020503500202DE9F84FB2EB031FB9
:206ED000804638BF012034D30E464BB3DFF868A0DFF868900D464FF0000B1F4605F11004B1
:206EF000DAF8000069464FF0FF3202F09DFF2946BDF8002081F804B07F1E05F11005487929
:206F1000CA6000F0F00040F00600487109EB02230C604FF480708B6004F11004C880DFD1C4
:206F30000E600020C8F80060054AC8F8040011460E60BDE8F88FC046D0350020080200203A
:206F500000360020F0B58468204A637DA17D257DADF1140D022643F00043FF2942EA050773
:206F700000934568019708D0E07DFF2805D041F000410243029104260392FE2105F140009A
:206F90004DF826106946FFF7E1FDE864E86C002808BF002018D0617D0F2202F043F9E86CBB
:206FB000217D102202F03EF9A17DFF290BD0E07DFF2808D0E86C112202F034F9E86CE17DF3
:206FD000122202F02FF9012005B0F0BD0000C0A02DE9F04107467E68BD6802F09DFFB16A28
:206FF00039B929688969090903D202F091FFBDE8F0810024B46202F08BFFA87DFF2806D0B5
:20701000E87DFF2803D03046294600F027FB2A681049906B20F020009063086820F480708D
:20703000086002F079FF0C4D8046287818B1022001F0C8FF2C70404602F06AFF716A306A1A
:207050003569726A401A3062316A2B4638469847BDE8F08130100040253600207CB50420EB
