:20000000004D002041890000FDC90110FDC90110FDC90110FDC90110FDC90110FDC901109F
:1C002000FDC90110FDC90110FDC90110FDC90110FDC90110FDC901103BCA0110A4
:200040000009090001F000010907000101091E00599F0000D57C0000EDA3091A0012000055
:20006000000109130022000000020913002409AB000738090B000121030F0080002405A07B
:20008000000800D338A43800206403008005097B000238090B00011EE8DE510B9380AABBDA
:2000A000010978000338090B0001280800000080090400DE510B93096E000200C17E00002C
:2000C000958A0000A982000001830000397B0000D98A0000A17B0952000781000089600152
:2000E000401A000000394001403A0000002040007F64404000A3840600410104C007B133D1
:20010000058305480A0306B87A03040102638410004302B00402009F84020044C78460F1C4
:200120003583880300A388FB0088600E1F0200F90CAC52330F085148000904FF0308090B2E
:20014000000164030950000138090B0001181EDE510B93094C00EC370020EC370020F43787
:200160000020F4370020FC370020FC37002004380020043800200C3800200C3800201438A2
:200180000020143800201C3800201C38002024380020243800202C3800202C38002034387F
:2001A0000020343800203C3800203C3800204438002044380020901034008E0D3300F00A97
:2001C000320048083100CC06300082052F0024042E0066032D00BC022C0012022B00AE01F0
:2001E0002A005E01290004012800DC002700B4002600820025006E0024005800230042004D
:200200002200370021002D002000000020000786000038403700A38406002040007F64400B
:200220004000030507B1230533058305480A0306B87A02009F84020044C703040102638426
:2002400010004302B004838803008460F13588601A000200DF7D5C503C07A388FB00020006
:20026000F80C0904FF0718000038403700A38406002040007F64404000030507B123053395
:20028000058305480A0306B87A02009F84020044C703040102638410004302B0048388030A
:2002A000008460F13588601A418C6013820200DF7DA388FB000904FF5036002009040050DD
:2002C000360020010000005036002002093B00A0390020A0390020090400010907000409BE
:2002E00008000200001825002009040007C201100910000109170001090B00C5A7090600E6
:200300005DA10908000100943B0020C5A7090E00C5A7090600C5A7090A00F1A30906006D51
:20032000730932004011090A000109050001008C3A00208C3A00204011090A00010905005C
:200340000100A83A0020A83A0020B03A0020B03A0020B83A0020B83A0020C03A0020C03A4C
:200360000020C83A0020C83A0020D03A0020D03A0020D83A0020D83A0020E03A0020E03A0D
:200380000020D56B090A000500000020090F00D83A0020090500E00100FFEF01000904FF91
:2003A000090400E803090600FF00FFC0000000C00908009C0100209C01002001000000012B
:2003C000090B005F78090600FFFF091E0096001E003B010E00B1010A00640305009303053D
:2003E00000000503090D00999B000003000000FF0014090500CC1000000800000008160085
:20040000200905000800000800000003000000B0330020C8330020E0330020090800010038
:20042000000002090F000109070001000000642B00200C00000043A1000043A1090A0014E6
:200440003C0020143C00201C3C00201C3C0020243C0020243C00202C3C00202C3C0020349C
:200460003C0020343C00203C3C00203C3C0020443C0020443C00204C3C00204C3C0020547C
:200480003C0020543C00205C3C00205C3C0020643C0020643C0020091000A039002000004E
:2004A00000FF0009000000000002020400803C0020743C0020783C00200205004D00200038
:2004C000030205002001010000302D0020020C000200000000000000000201020B00010250
:2004E0000B00EC3700200210007C3C002002040034010020340100203C0100203C0100205A
:2005000002000000000000000002020800F0390020E03A00200100000001020F00383B00C4
:2005200020383B0020020000000000000000000000010105006CDC02010800943A002003BB
:2005400001070019930000CFA000000100000000000201021300B03A00200204000200004D
:2005600000000000000000000001010400F039002001000000000000000101002F7E00017B
:2005800000000000000000000001080000000100000000000000000000010104000100004A
:2005A000000000000000000000010108000100000000000000000000000101080001000025
:2005C0000000000085A300008BA200004000000088310020A804000044010020D8040000C0
:2005E00000010020080500007801002030050000A401002050050000C8010020680500008F
:20060000E40100207805000008020020880500000002002098050000EC010020A805000028
:0C062000F0010020B8050000F8010020E7
:201000003C000000000000000000000034100000000000000000000001000000000000004F
:1C10200000000000000000000000000001000000000000000800000000000000AB
:20103C003400000000000000000000006810000000000000000000000100000000000000E7
:14105C00010000000000000000000000080000000000000077
:2010700030000000000000000000000098100000040000000000000001000000FFFFFFFF87
:10109000FF00000001000000080000000000000048
:2010A0002C0000000000000000000000C4100000040000000000000001000000FFFFFFFF2F
:0C10C000FFFFFFFF080000000000000020
:2010CC0038140000E410000095A1011091A70110A1C2011009B2011041B80110A5BC011078
:0810EC0085BC01103300000077
:2010F400280000000000000000000000141100000000000000000000FFFFFFFF0000000093
:081114000800000000000000CB
:20111C00341400003011000065C2011069C101101BC2011091BA011005BC0110E5BB0110EA
:04113C00310000007E
:20114000341400005411000071C20110A5B6011099BF011045B60110B5BA011025BC01104B
:041160003200000059
:201164002400000000000000000000008011000000000000000000000000000008000000AE
:041184000000000067
:20118800240000000000000000000000A41100000000000000000000000000000800000066
:0411A8000000000043
:2011AC00240000000000000000000000C8110000000000000100000000000000080000001D
:0411CC00000000001F
:2011D00000000000143C0020040000000000000000000000200000007010000030000000BB
:2011F0001C1100001C3C00200400000000000000000000000C0000003013000018000000CF
:2012100040110000243C002004000000000000000000000024000000481300001800000052
:20123000000000002C3C002004000000000000000000000010000000A01000002C00000026
:20125000CC100000343C002004000000000000000000000020000000641100002400000055
:20127000FFFFFFFF3C3C0020040000000000000000000000280000008811000024000000E1
:20129000FFFFFFFF443C0020040000000000000000000000580000003C10000034000000C6
:2012B000FFFFFFFF4C3C0020040000000000000000000000100000006013000018000000DB
:2012D000FFFFFFFF543C00200400000000000000000000001C000000AC1100002400000051
:2012F000FFFFFFFF5C3C002004000000000000000000000038000000F410000028000000C2
:20131000FFFFFFFF643C002004000000000000000000000054000000001000003C0000005D
:1813300018000000000000000000000040130000080000000000000032
:1813480018000000000000000000000058130000080000000000000002
:18136000180000000000000000000000701300000800000000000000D2
:081378000100000044B900006F
:041384000100000064
:0413880000000E0053
:04138C0000000F004E
:041390003200000027
:041394000100000054
:04139800943B002062
:04139C00000200004B
:0413A0000000000049
:0413A400FDC901106E
:0413A8000000000041
:0413AC00000000003D
:0413B0000800000031
:0413B4000000230012
:0413B800783A00205F
:0413BC00010000002C
:0413C000AC3B002022
:0413C400080000001D
:0413C8000000000021
:0413CC00000000001D
:0413D0000000000019
:0413D400080000000D
:0413D8000000000011
:0413DC00000000000D
:0413E0000100000008
:0413E400E03A0020CB
:0413E80006000000FB
:0413EC0001000000FC
:0413F000A039002000
:0413F40000000000F5
:0413F80000000000F1
:0413FC0000020000EB
:0414000000000000E8
:021406002A00BA
:021408000100E1
:02140A002400BC
:02140C003100AD
:02140E003200AA
:021410003300A7
:021412000100D7
:0114140001D6
:081418000300000010B9000000
:081420000000000000000000C4
:0414280000000100BF
:04142C0000000300B9
:0414300083C4011060
:041434003C14000064
:041438003C14000060
:04143C0000000000AC
:041440009000000018
:041444009000000014
:0414480000000000A0
:04144C00AC3B002095
:04145000B9A100003E
:041454002000000074
:04145800F8B80000E0
:04145C0000B80000D4
:0414600009C30110AB
:041464006F8800008D
:04146800B788000041
:04146C0095C801100E
:0414700097C8011008
:041474000000000074
:041478000EB90000A9
:04147C0050B7000065
:0414800068B7000049
:0414840038B7000075
:0214880008005A
:02148A00090057
:02148C0001005D
:02148E0000005C
:01149000015A
:041494000000000054
:041498000000000050
:04149C00000000004C
:0414A0000000000048
:0414A400F9A30000A8
:0414A80001910000AE
:0414AC00A199000002
:0414B0004D93000058
:0414B400B5930000EC
:0414B800658C00003F
:0414BC00C5750000F2
:0414C000A7A20000DF
:0414C400ED800000B7
:0414C800D99B0000AC
:0414CC0051A3000028
:0414D0000800000010
:0414D40024000000F0
:0414D80018000000F8
:0414DC0028000000E4
:0414E00020000000E8
:0414E4003C000000C8
:0414E8000C000000F4
:0414EC0034000000C8
:2014F0002DE9F04FD24E3188CDA0ADF1740D08F05EFC02A808F002FE64250295CD48059064
:201510000AA809F055F8CC4909680F910024109427461A9700211B914FF0FF3111911B9925
:20153000199117911391A34615915946189116911291DFF80883149115E2BBF1000F0CD0EF
:20155000119A824203D14F78002F00F0A680D648006803F0E7FC98F90000D249D34FC20040
:20157000002602EB401202AB521807EB0011D048568001F0BFFC0246CB4ECE48DFF824C30D
:20159000036898F900005F7832606646C10037F07F0701EB40114FF0000701EB0C056F804D
:2015B000314405D1CD8A4FF6BF7C0CEA050506E0C10001EB40116144CD8A45F04005CD8250
:2015D0005978C9091AD307F023FDC0F38005DDA0294608F0ECFB98F90000B34F3246C10085
:2015F00001EB40118918CA8A4FF6BF7CAB0103F040030CEA02021343CB823A68DDF848A04B
:20161000DDF84CB08DE8000C1A9BC100374601EB40111046C9191A4607F040FF98F90020B9
:201630003B461046C10001EB4011C9184988B1F5505F09D0C10001EB4011C9194988D6A0BE
:2016500008F0B5FB98F90000149AD24F159B964DC10001EB00111646C9194E808DE80C0094
:2016700028683346324607F019FF98F900000146CA0002EB0112D2195288B2F5806F09D0F4
:20169000C10001EB0011C9194988C8A008F08FFB98F9000011904FF0010B06F0A9FE109F16
:2016B00006461FB90127DC48109734183046214608F0EAFDB442054609D242F21070A84241
:2016D00005D20F99281AB0FBF1F008F06DFF79480068077842F21071A94228BF0427544A51
:2016F000714998F90030158809687F1E8C461A4600F0E2807F1E00F0A3807F1E03D07F1E73
:2017100000F0268128E1C349900000279E0000EB42100A464018478006EB43118918087BA3
:201730003A46642700F070000F7540F00200179B0873BA4F8C60C87B8E7BCF610CAF40F0EF
:201750000300C87306F0B90040F044008873C87D0F624EF6602600F0F00040F00200C8754E
:20177000A01988618DE80C001A9A6046134607F095FE98F90010A74E880000EB4110801906
:2017900040884FF47A6707FB0549B0F500603DD0B0F5305003D0401E3FD0032134E006F058
:2017B000CFFF9B48DFF864C2008867460202B81841786646CB1CDBB29B18F2181CF803A015
:2017D0009578D4785678801C00F032F99448904900684FF0FF3208F0E3FE0E9800908D4FA3
:2017F00098F90010BDF83030880000EB4110C01941884AEA062A4AEA054A4AEA046A52469C
:201810006EA008F0D4FA0121022097E00848048806F0EEFD394601FB0409022084E0C04658
:20183000706572696F64203D2025640A00C046C0203B00208B4700003CB900008531002027
:2018500071490789002601EB42114E8045680F820A7BCD6102F0700242F002020A73199B3F
:201870008C6032468DE80C006E4B6046324607F015FE98F9001064486B4E00EB4110358893
:201890004788B7F5006651D0B6F5305647D04FF47A6000FB054952A0394608F088FA02217A
:2018B0004BE0C046A03400201C310020383A0020682C002078310020DDF86890514F067A8A
:2018D000DDF86CA0D10001EB02114D46C9194B464D804768CE730A7B4F6102F0700242F0B9
:2018F00002020A7360468C602A468DE8000607F0D5FD4D4B98F90010424E1D88C80000EBF0
:20191000011080194788B7F500660FD0B6F5305605D04FF47A6000FB054936A0BCE74FF425
:201930007A6000FB05490120014607E006F060FD4FF47A6101FB05090321012007F0BAFABA
:201950000AE0C0462A2A2A202564202A2A2A0A004FF47A6000FB054908F01EFE01F0BEF996
:2019700008F01AFE4C4608F007FA98F90000B0F1FF3F05D02D4909680A78042A7FF4DDADE3
:201990002948058801F0AAF94FF47A6000FB0544EBE7C0462C370020434D445F5345545575
:2019B000503E20253034780A00C046C0434D445F46533E20253034780A00C04672786F758F
:2019D00074207374617475733D253034782074733D256C7520256420256C750A00C046C098
:2019F000434D445F54585F4144563E20253034780A00C046434D445F54583E202530347811
:201A10000A00C0468C370020D035002008020020603100204035002000093D002031002077
:201A30005C310020199B0000203B0020783100202DE9F04F054608460024ADF11C0D0028F0
:201A5000049000F05381DFF8AC92A0460027CDF81480285D641C4FF6FF7A411100F01F027D
:201A7000A4B2DFE801F01A18161412100D042E5D601C80B2295C46EA0126401C84B20DE025
:201A90002E5D2046F9E7082608E0062606E0042604E0022602E0012600E0059E1E2AB8BFBC
:201AB00092461E2A03D115F804A0641CA4B21F2A07D1295D601C80B22A5C401C41EA022A0D
:201AD00084B251468CA00A4608F071F95046652819DC652800F0BF80401E53D0401E00F0A8
:201AF000FC80401E3AD0801E00F0F080401E00F0DF80801E00F0D180401E00F0C3805B3844
:201B100000F0B78057E0663800F09980401E0CD0113800F08C80401E00F08180093873D05E
:201B3000401E58D0401E4CD045E02819314607F0FDF980460F460096484603C802AA3B4694
:201B500082E8030070A0424608F031F93946404607F0ECFC002800F0C380C7E072A008F05E
:201B700026F999E803008F4208BF804540F0B8802819314607F08CFE06F0C8FF002840F09F
:201B9000AF80B3E02819314607F0D0F90F468046009699E8030002AA3B4682E8030064A028
:201BB000424608F004F999E803008F4208BF804500F096809AE066A05146324608F0F7F83B
:201BD0008EE06CA008F0F3F82819314607F060FE08F098FB84E06DA008F0E9F805EB040BB7
:201BF0003146584607F054FE82463146584607F04FFE4FF4FA5102464FF47A70514300FBC4
:201C10000AF005F02BF86BE065A008F0D0F82819314607F03DFEC0B207F05CFB60E063A0A5
:201C300008F0C5F82819401C06F0B0F858E064A008F0BDF82819401C06F086FB50E064A073
:201C5000314608F0B4F829194878B21E92B2891C05F050F844E064A008F0A9F865A0314624
:201C700008F0A5F82819B11E401C89B201F0A4FE36E068A0314608F09AF82819314603F0BB
:201C90004DFA2DE069A008F092F82819314607F0FFFDC0B205F078F822E066A008F087F854
:201CB0002819314607F0F4FDC0B207F04DFF17E063A008F07CF806F05DFE2819314607F059
:201CD000E7FDC1B2012007F0F5F809E02819314607F0DEFD07F04AFE02E05CA008F067F8B1
:201CF0000498A419A4B2A0423FF7B3AE204607B0BDE8F08F183B002056444820636F64655B
:201D10002025642025780A004445465F494420256C64206C656E67746820256420746167CC
:201D300069642025640A00C05345514E4F0A00C044455354494420256C64206C656E6774F7
:201D5000682025642074616769642025640A00C056444820636F646520256420286E6F203B
:201D700068616E646C657229206C656E6774682025640A0056444820564F4C5441474520C3
:201D9000544852455348204445460A00564448205741544348444F47204445460A00C0461A
:201DB000424C494E4B204354524C0A0054524947474552204E4F2057414B4555500A00C0BC
:201DD000545249474745522057414B4555500A0041544C415320434F4445206C656E6774FE
:201DF000682025640A00C046434F4E462053434845440A0056444820636F6E66696775729C
:201E10006174696F6E206C656E6774682025640A00C046C0524144494F205345545550203C
:201E30006C656E6774682025640A00C057414B4555500A00474F544F20434F4E460A00C07D
:201E5000424C494E4B204E4F570A00C054414753544154450A0070472DE9F041B44C0F466A
:201E70000646F80B80F0B481A07AB90F80F04681B80880F03781F80A80F01081E0793909BF
:201E90006DD2B80B59D2780B0FD2380CC0F0C581206C806840880028FAD0206C80684088FD
:201EB0000128F5D027F4004743E007F0F9F938B1B56930466FF4807100224FF00073A84722
:201ED000D24904F17000002208F070FAB16800254FF0010840F602022572088884F8038008
:201EF00082420AD0B0F5C15F07D00A8B4FF61F60104040F43470088306E00A8A4FF61F604E
:201F1000104040F4347008827574266E08F0E2F8D4F85411E26804F5AA73914208BFA84697
:201F300026B1801B03EB8806010BB160256627F48057192008F038FA6FE104F1440008F025
:201F50003DFA061C08D0706830B17568F068B6F92C1000222023A84727F400575DE101283A
:201F700000F09780206C002840F0958000254FF00108E570AD4884F8058008F093F92846A7
:201F900007F072FDAA4904F170002A4608F00EFAA66D08F09FF8A178801B000B012906D1A1
:201FB000667826B994F86810B0EBC12F39D9A14E84F80280A6F1150109686570090A30D3BD
:201FD000606640F60900A08294F8210000F0F00040F0010084F8210094F8200000F0F000E3
:201FF00084F82000A56108F0DBF906F6FF7211686FF0020321F00201116004F11401C6F8CC
:20201000FB3F8D4AC6F8EB1F11688908FCD3C6F8FB3FD6F8FF1F41F00201C6F8FF1F08F012
:20203000B7FA2E4604F1580080E86000666606F0ABFE207818B9E068403008F0C3F97F484F
:202050000660022007F0F8F8112003F0DBFEE068007C10B90E2003F0D5FE607A18B1657209
:20207000052007F0E9F8764965710878A57128B10D7004F1EC00042108F0ACF9B4F9500032
:20209000B4F95210884214BF0220072004F0E4FA01E00020E07127F00807BEE008F080F9E2
:2020B000054604F13C0008F089F9061C15D0E06810B1783008F070F9F068E060284608F003
:2020D00067FA08F007F820665E4808F0EBF84FF4006104F1EC0008F07DF9002027F480677C
:2020F000E0719AE002F024F804F14C0008F066F927F0020708B147F002078EE020B10420E3
:2021100007F09AF80020A07208F04AF9B1688046088840F6020282420CD0B0F5C15F09D0D2
:202130000A8B4FF61F60104040F43470088308E0082200200A8A4FF61F60104040F43470D1
:20215000088204F1580090E80C00002B08BF002A1AD0042007F05EFAB0B1A56D07F0BAFF78
:20217000F168401B728AF060000BF06080188842F06002D209184808F06040F6C4118142DF
:202190002CBFB0F5FA7FF160404608F001FA07F087F898B1B56930466FF4807100224FF054
:2021B0000073A84704F13C0008F008F9002808BF47F0020702D0192008F0F6F87569002164
:2021D00030464FF080630A46A84727F0005724E008F0E6F8014604F1440008F0EFF8061C4F
:2021F00016D0356AA80813D225EA05003062084608F0CEF9706870B16DB12A46F068B6F974
:202210002C1075680023A84705E0C046DD430000084608F0BDF927F4804727B104F1EC00E1
:20223000394608F0D7F8BDE8F081C046354E0000ED72000015000440101004400000046029
:202250007F310020954200002DE9F04F09AFADF13C0D08900A92388809911E46ADF8180024
:20227000101C08BF002000F08481002700F101094FF0FF3A4FF0010BB8466CE1252940F098
:2022900063811078521C0A922D2818BFADF8068005D15846551CADF8060010780A95302852
:2022B0001CBF4246434605D10A9908785A465B46491C0A912A28CDF80080554616D1306837
:2022D00004930A99CDF808A0C01C4B1C20F00300001D306050F8044C0A93002C08780094CF
:2022F00018D5ADF806B06442009413E044460AE0610001EBC4010918A1F130040A990878C9
:202310000094491C0A91302801DB3A28F0DBCDF808A004932E282BD10A9908782A2801F1FB
:2023300001010A9111D13068CDF80880C01C20F00300001D306050F8045C002D48BF454626
:2023500008782B46491C0A9111E0454643460AE0690001EBC5010918A1F130050A99087867
:202370002B46491C0A91302801DB3A28F0DB02930AB1224604926C2804D04C2818BFADF8D5
:20239000048005D10A990878ADF804B0491C0A910BA9CDF80C800FAB07916428059300F0EC
:2023B0008B80692800F08880BDF818C0752872D078286ED06F286AD0702850D063283DD00E
:2023D00073281ED009980A990128A1F101010A9115D96B490C68B5F1FF3F03D0A84288BFCA
:2023F0006D1C00D8099D029508A80AA932466B46A0473F180A99039801F1010974E0404651
:202410002AE030680A99C01C20F00300001D306050F8040CBCF1000F01F10109014608B9B3
:2024300055A00146079107F087FE0390B5F1FF3F5BD0A842C4BF281C039056E03068C01CAC
:2024500020F00300001D306010F8040C5D468DF82C000A990395584601F1010945E008201E
:2024700035680490E81C20F00300001D306050F8041C082210230FA805F046F9401E0790B2
:20249000402101700A99079801F1010929E0082302E0102300E00A230A99306801F101098F
:2024B000C01C20F00300001D306050F8041CAA42BCBF2A1C049210E00A99306801F101099E
:2024D000C01C20F00300001D306050F8041CAA42BCBF2A1C04926FF009030FA805F014F981
:2024F0000790059D281A0390009C241ABDF8065000945DB906E008A8202109AA07F04FF966
:20251000009C7F1C641E0094F5D503980546401E039075B9BDF80600E8B10098401E0090B5
:2025300019D408A8202109AA07F039F900987F1CF4E70798411C0791017809AA08A807F05C
:202550002EF903987F1CE1E708A809AA07F027F97F1C09F101094A460A9812F8011C401C78
:2025700000290A907FF48AAE089808B14146017038460FB0BDE8F08F286E756C6C2900C05F
:2025900048B90000BA482DE9F84F0025B94CB749056094F8E200002800F06381012800F0B9
:2025B0002F81B54E02283CD0032840F05A8151F8250CD4F8B8100029A0F5C060C4F8D40070
:2025D000B8BF49420028B8BF4042814226DA4FF08057D7F8A4014568B4F8BC0030214FF4D2
:2025F0007F42082300903046A847D7F8A4014568B4F8C00004214FF4F802122300903046C0
:20261000A847D7F8A401B4F8D070456820214FF440620A2330460097A847012584F8D85095
:202630001AE151F8258C07F049FE2F4600B901273946924F38680028FCD0B146012609F1F5
:202650000409D9F82CA03E6009B107F03DFECAF30720C4F8BC0007F031FEAA4600B9B24613
:202670003B68002BFCD0D9F800B0BAF1000F3E6001D007F029FECBF38440C4F8C00007F0F3
:202690001DFEAA4600B9B2463B68002BFCD0D9F81C90BAF1000F3E6001D007F015FEC9F368
:2026B0008120C4F8D000B8F5C061C4F8B81000F09C8094F8D80068B9C4F8D410D4F8C000CE
:2026D000C4F8C800D4F8BC70C4F8C470D4F8D030C4F8CC30D4F8D410D4F8BC30002954BF56
:2026F00002206FF0010004F1C802176801EB41014018411000EB917107EBA1001060D4F877
:20271000C810C4F8C43000291CDD1E293CDDD4F8CC0030B93429B4BF15391E21C4F8C8102D
:2027300025E02A29BABFD4F8C8000B381E20C4F8C800D4F8C4003F28B4BF401C3F20C4F83E
:20275000C4001FE0D4F8CC00032812D011F10B0FC6BFD4F8C8000B30301CC4F8C800D4F8F5
:20277000C4000028C4BF401E051CC4F8C450032508E011F1150FC6BFD4F8C8001530301CAB
:20279000C4F8C800C4F8CC504FF08057D7F8A401B4F8C43030214FF47F4245683648009390
:2027B0000823A847D7F8A40104214FF400321123456831480096A847B4F8C860D7F8A401BA
:2027D00004214FF4F802122345682B480096A847D7F8A40120214FF440620A23B4F8CC600E
:2027F000456825480096A84701E084F8D85040F2FF50404502D8801C40452DD208202EE06F
:2028100051F8251C1E4F4BF2F5204843060A3868C0F3814001280AD106F0D6FF06F096FA5B
:2028300007F058FD3111C010484306EBE03694F8E50030B91348006820F07F4080194608C5
:2028500001E084F8E5501048310C0660012741600E4D8760287808B90B2000E0052084F8C3
:20287000E40001F073F9BDE8F88FC0462D400C402C500C409C32002000A00C4000800C40AE
:20289000B43F0050102009403C600C40C5B800002DE9F047DFF80CA20746AAF13500DFF841
:2028B000F8810068800880F0E78006F08DFF814908310B6800261A17990D02F101020AD201
:2028D000C0F13E0110F10A0F4FEAE101D8BF08218A42B8BF0A1CDFF8C4C1990E0FD2590E4F
:2028F0000DD36446143C2168C1F304211629A8BF20392468C4F30464162C0EDB0CE0634C1C
:20291000D4F87C11C1F304611629A8BF20392468C4F30444162C00DB203C5118A1461629A3
:2029300005DA11F10A0FB8BF6FF0090100E01521574C584D01F01F0242F4F85222802A6889
:2029500012F0030F18BF0126D20828BF46F002060FB146F00406424692F90740041B052CAC
:2029700004DA9479B44208BF918865D00F28A0F10F0827DB08EB0014A4F1F0084FEA282E4D
:20299000BEF1070F88BF4FF0070E7546062D88BF06255CF82570042404EB850465462C59AE
:2029B000E41B04F0FF05F70824BFC4F307273D44B70824BFC4F307473D44770828BF05EB4A
:2029D000146501E00025AE465CF82EC0F7080CF0FF0424BFCCF307273C44B70824BFCCF383
:2029F00007473C44770828BF04EB1C64ADB2A8EB0E27B9EB010105FB07F505F1800504EBF1
:202A10001524D8BF012103F0FF0334254D435D434FF6FF73B5FBF4F18B4238BF191C802849
:202A300089B2918005DA10F1800FB8BF6FF07F0000E07F20D0719671194800681F2910602E
:202A50004FF0000008D340F2FF128A4206D24908401C8A42FBD301E01F219180124F0F3943
:202A7000090940EAC10047EA0001CAF8FB1F0026CAF8FF6FBDE8F0870C490D4F4246082068
:202A90000F60921D1070BDE8F087C0463C1100506E62084024220840103100209C130050C3
:202AB000082009403500094000E7A48030100940FDFDA400AC3F005001282DE9FE4F40F0EE
:202AD000EE80DFF810B2DBF8DC00012840F0E4800220CBF8DC0006F0E7FF012005F06CFF55
:202AF0005FEA000805D00120CBF8DC0006F0ECFFD7E007F06BFC6C490290002008600120FA
:202B100006F088FD012818BF002003D1002005F0D9F80120654900900020654F0860386815
:202B3000112007F0E3FB00280CBF00240124102007F0DCFB08B144F002040F2007F0D6FB5B
:202B500008B144F004040B2007F0D0FB30B1624814300068574E016B308888470A2007F093
:202B7000C5FB002600B101264FF0805A0AF5DC75301C04D02868504E016B308888474F4846
:202B9000012606602868816944F0200088474C48066007F0A5FB00F001010191400814D2B8
:202BB000484807F063FB8146B9F1040FF8D0B9F1010F05D1DAF8D80142684248032190476A
:202BD0004149086820F0030008600020FFF760FE2B683868986B8047019801280DD0B9F1B6
:202BF000010F05D1DAF8D80142683648314690473549086840F0030008602C4806602868CB
:202C10004169204688470B2007F070FB20B12868284BC16A188888470A2007F067FB20B176
:202C30002868254BC16A188888472448032206602349CBF8DC2000230B602868416B204698
:202C500088470128F9D13868042005F0B5FE044615481E490660386808688009FCD30098C2
:202C7000012802D1304605F02DF807F02DFB082005F0A2FE07460298CBF8DC6007F084FC7F
:202C90001348008804F04CFE06F01EFF57EA040018BF4FF0FF3804E06FF0040801E06FF0CF
:202CB00001084046BDE8FE8F0C400940000222432C2009401AB7000016B700002820086064
:202CD00080010443004003402422084014100940C0B800009C320020A40100102DE9F04736
:202CF000DFF8D88198F900102A2048437249714D085A2988401E8842CCBF00270127704ED2
:202D100096F90000B0F1FF3F0CD004F08DFC4FF0FF3096F90010307088F8001053A007F0B5
:202D300046F80127674C2078B0B106F0C5F9664A664912680968801A81420DD264494FF04B
:202D5000FF300022307091F9001022704AA088F8001007F02CF801275E4898F900C05E4EE6
:202D70005E4CDFF8809190F900E00FBB2A88BEF1000F17D4704641008B1918887746401CCF
:202D900018807800335A205A984206DD4846544B445AC85E0019C85204E051484FF0FF313F
:202DB00020F81E105048521C92B201782A8021E034A0614606F0FBFF00224B4898F900C0DE
:202DD00001782A8011B33C48DFF814A12A23A6460F4603FB0C00083830F80A3F2AF8023B44
:202DF000448826F8022B838829F8024B7F1E2EF8023BF1D151B13A480024801E30F9023FC1
:202E100093420DD0491E04F10104F7D131484FF0FF33614603701EA006F0C9FFBDE8F0872B
:202E30002C4863B2614604701EA006F0C0FF29482E4A90F900100846105C401E02280AD9C4
:202E5000C01F08D008380ED198F800002A88C9B204F080F905E098F800002A88C9B203F0CD
:202E700049F923490860BDE8F087C0467775702D3E2564210A00C04677646E2D3E2564212B
:202E90000A00C0466E663A202564210A00C046C06F6F707320632564207325642072256466
:202EB0000A00C04663256420732564207225640A00C046C080310020F82D0020223B00206C
:202ED0002A3B0020293B0020243B002064310020283B002085310020383100204031002032
:202EF0002831002048310020843100206C310020783100202DE9F04705466E481646026841
:202F10001F46ADF1380DB9B1B6B108784FF0010808FA00F002420FD069603046002102F059
:202F30005BFBAE6007F03CFA634C81462078022804DB484607F02CFB0020B8E0002870D10C
:202F500001F0D2FD5D49086840F0020008600AA807F064F9DFF868A15A499AF802000AAA20
:202F70000C9004F1EC0005F04BFF0AA807F02DF9002619210AAB8DF830609AF80000524A5E
:202F90000B9004F1700005F085FE0AA807F046F99AF803004D490AAA0C9004F5907005F058
:202FB0002FFF0AA807F011F99AF801008DF830801A210AAB464A0B9004F18C0005F06AFE5F
:202FD0004449324604F1C800134605F04DFB424807F068F9414A3346042104F1280006F06B
:202FF00007FC4FF6FF70A4F8C40084F8C760A67026716671A671E67126720523667204F188
:203010005802A672314684F86830304682E803004FF4FA71C4F85C11314AC4F860112078A9
:20303000167004EB8001401CC1F85451C0B22070484607F0ADFA44461FB903AF384607F019
:203050005DF8386828607868E860387C2874B8696C742862788A6882224EAE61EE616E6157
:20307000F86800B1A861786900B1E861B86800B168610021A02205F1280004F0B1F905F11C
:203090004000002106F01EFB684607F067F91649029505F1780000226B4605F0E5FA134944
:2030B00005F19C0000226B4605F0DEFA28460EB0BDE8F087D4210840082200200020094096
:2030D00028B90000D19F0000ED7200003D6800005175000001970000354E0000E185000044
:2030F0007E310020671E0000FD9C00007FA300002DE9F0411C4615468C4208BF854282BF10
:2031100000230022E5E0002C08BF002D0AD100290EBF00286FF000006FF0000100F0E1F8F4
:20313000BDE8F0815FF000085FF0000E002C08BF8D429CBF2C1C0025070C47EA01470E0C85
:20315000B44208BFBD429EBF5FEA044444EA15445FEA0545070A47EA01670E0AB44208BF1C
:20317000BD429EBF5FEA042444EA15645FEA0525470847EAC1774E08B44208BFBD4200F29C
:203190009380870847EA81778E08B44208BFBD427CD8C70847EA4177CE08B44208BFBD4264
:2031B00066D8070947EA01770E09B44208BFBD4250D8470947EAC1674E09B44208BFBD4251
:2031D0003AD8870947EA81678E09B44208BFBD4224D8C70947EA4167CE09B44208BFBD4299
:2031F0000DD8E60146EA5566EF01B14208BFB84201D3C01BB14158EB08085EEB0E0EA60164
:2032100046EA95664FEA8517B14208BFB84201D3C01BB14158EB08084EEB0E0E660146EA0A
:20323000D5666F01B14208BFB84201D3C01BB14158EB08084EEB0E0E260146EA15762F01C4
:20325000B14208BFB84201D3C01BB14158EB08085EEB0E0EE60046EA5576EF00B14208BFC7
:20327000B84201D3C01BB14158EB08084EEB0E0EA60046EA9576AF00B14208BFB84201D3E3
:20329000C01BB14158EB08084EEB0E0E660046EAD5766F00B14208BFB84201D3C01BB14104
:2032B00058EB08085EEB0E0EA14208BFA84201D3401BA14158EB08085EEB0E0EA34208BF3D
:2032D000AA423EBF2D0A45EA0465240A89D3734642461E4617460B46024631463846BDE867
:2032F000F0817047F8B584460F1C5BD06848674908605578167885B1622D4FF0010003D0CE
:203310009178622918BF00202B2D4FF0010406D091782B2918BF002401E0002004460021DC
:2033300044B9722E08BF102205D0772E14BF612E202200D00A46612E0CBF80230B1C1A4328
:20335000002814BF4FF480730B1C002C43EA020214BF40230B1C13437B6108B14FF40041DC
:20337000613E10D0113E02D0761F04D012E00CB141F002010EE0002C14BF022001200143DD
:2033900041F4C06106E0002C14BF02200120014341F4027160464FF4DB7202F04DFE002818
:2033B000386001D50020F8BD3846F8BD70B5394D284603F06FFB384C206802280BDB0126CE
:2033D00055F8181F002903D4284603F063FB2068761C8642F4DB70BD70B505462F4800686D
:2033F00014460E468047204603F054FB284632462146FFF777FF0446294800688047204697
:2034100070BD2DE9F84380462448006889468047244A204B176857B901214FF0FF340727C4
:2034300003F1480011607F1E40F8184BFBD11A4A1068002500280BDD19460446183951F877
:20345000186FB6F1FF3F03D0641E05F10105F6D10A2D0ED0EC00A84204EB05141C4404BFC2
:20347000401C106000211822204603F0B9FF214600E0002140464A46FFF734FF04460848C3
:20349000006880472046BDE8F883C046D43B0020BD330000B0330020C43B0020043C0020C0
:2034B000083C0020EC3900202DE9F04FADF1240D079001F019FB6148007805F0A7FF604D2A
:2034D0000024012808D90A380FD0801E04D0401E0ED0401E09D006E006F08EFC022804BF55
:2034F00001210C1C06D0696805E005211F2401E0032107246960534A1068C0F381500128C2
:2035100006D152F80C0C0127020E07FA02F0044306F07CFE524AFF230818401E471C286059
:203530007F1E02F8013BFBD1079A1268002702F0FF03FE2B20D0DDF81CC096463B46012658
:203550000EF0FF02FF2A10D0904205D3914203D806FA02F2144201D002206CE017430EF01A
:20357000FF02DFF8FCE00EF802305CF804EF5B1C0EF0FF02FE2AE5D1092002F075FE079887
:203590000121A86005F1280006F09CF805F19806A8464FF0010A4FF0040B0025A9460AFA17
:2035B00005F0044216D1074204BF05F0FF0141F4C04104D02A480799405D51F8201022483C
:2035D00002F078F8E8B24FF0FF3106F065FBC6F8009001E0C6F800B0D8F800006D1C361DD1
:2035F0008542DCD904A806F0F0FD184C184A2078102104AB059008F10C0005F04BFB6846EF
:2036100006F00CFECDF80C906A4660681149029008F1640005F0F4FB0F4951F80D0C20F4C6
:20363000F85040F4005041F80D0C0C4FC1F8FFAF4846C7F800A009B0BDE8F08F83310020FC
:2036500088310020B43F0050007FC7671CB90000C59C0000A58B00000D3009400800094054
:20367000CC3100202DE9FC4F83F0004301E02DE9FC4F1F03FF0847EAD2574FEA42284FEA65
:2036900043095FEA595906D147EA080A1CBF00210020BDE8FC8F57F000575FF4E06E1EF11F
:2036B000FF0EF14505D14FF00000190D0905BDE8FC8F002B05D55FF0000AD8F100086AEBBA
:2036D00007070C03E40844EAD0544FEA40254FEA4106760D08D144EA050A19BF00210020AF
:2036F000191C101CBDE8FC8F44F00054764504D10020090D0905BDE8FC8F002904D55FF04C
:20371000000A6D426AEB0404B6EB090E08D5A2463C465746AA464546D046CEF1000E4E46F5
:20373000BEF1360F5CBF4FF0000B23E0BEF1000F04BF4FF0000B1AE0CEF1390ABAF1200982
:203750002EBF08FA09FB07FA0AFB4BEA080BDEF1200A07FA0AFA38BFBA4647FA0EF72DBFF1
:2037700028FA0EF8AEF1200E4AFA0EF8D04415EB08057C4154EA050A02BF00210020BDE828
:20379000FC8F002C58BF4FF0000A06D55FF0010A5FF0000E6D426EEB0404A6F101066D0055
:2037B0006441FAD515F4806E11D005F480794BEA090B15F5806554F1000428BF761C0BD2E4
:2037D00005F400795BEA090B08BF25F4006525F4E0656D0044EB0404B61CDEBF0021002017
:2037F000BDE8FC8F5FF4E06E1EF1FF0E76450AD34FF0000013F00043FF21C900C91D0905D2
:203810001943BDE8FC8F270547EA1530210B41EA065141EACA71BDE8FC8F70472DE9F04F1A
:203830000746880FADF1140DC0F0B980002004F0AFFC60485B4E4FF0000900F11008C8F8CB
:203850000090012048F81C6C06F00EF9564806F029FD564DBC68CB4640F60A0605F1140000
:2038700095F82010AA7895F82130A5F816908246C5F818B001F0F0010680012A85F82010AB
:2038900003F0F000A4F8029040F0010085F8210001D17B7CABB1B8680088A6F10801814208
:2038B00008D0B0F5C15F05D0218B4FF60F400840208304E0218A4FF60F400840208287F8CF
:2038D0001190B868694602F03DF8684606F086FC3346D91F4A1C00E03446666836B130887D
:2038F000834203D0814218BF8242F5D1C4F804A0607B00F0F000607305F13C0006F05EFD8B
:203910008068008881421FD082421DD03E8D06B397F8340097F83560C7F82CB000F0F000DE
:2039300087F8340006F0F00040F0010087F8350007F12803AB619AF80D00A7F82A9000F0E2
:20395000F0008AF80D0004E0DA4605F1580080E80006B9680A8A4FF6FF3010400882D8F845
:2039700000000028FBD0687AC8F8009070B9012005F050FE01280FD0607B00F0F00040F092
:20399000010060730A4806F08DFC05E005F01AFA0028FBD006F010FDB86848F81C0C05B051
:2039B000BDE8F08F01010E04691E000008220020697A00000C1004402DE9FE4FDFF87CA154
:2039D000804600220C465C488AF80020B8F80010018032A006F0EBF9DFF864B1DFF86491B2
:2039F0009BF800202046002140101FFA80FCBCF1020F18DB02EB820501234FF02A0E6D1C4F
:203A1000002038F813700EFB01F4461C5B1C04EB4004F0B29BB2854229F80470F1DC491C3C
:203A30009C45C9B2ECDC8AF8001027A006F0BFF94E462A270025D84601E06D1CEDB29AF888
:203A50000000A8420ADC40494FF6FF700880FFF745F923A006F0ABF9BDE8FE8F07FB05F007
:203A7000325A294624A006F0A2F9002498F80000A042E2DD600000EBC40007FB0500301833
:203A900001890091418901918288C38841881FA006F08DF9641CA4B2E8E7C046746167203F
:203AB000706572696F643D2564206D7320696E697469616C20636F6E6669677572617469E8
:203AD0006F6E2025640A00C023636F6E663D256420237365747570733D25640A00C046C07A
:203AF0007363686564756C6520696E697420656E6465640A00C046C02564206672616D65F1
:203B1000206C656E3D25640A00C046C0202073746172743D256420737465703D2564206C3E
:203B3000696D69743D25642064626D3D2564206F7074733D25780A00203B002082310020CB
:203B500084310020F82D0020803100202DE9F843614C5A4D5A4EDFF870815E4F94F8E41028
:203B70000846401E0B2864D8DFE800F07B2C43062343062343067664042907D001220A2967
:203B900045F8212C14BF0220032004E0202045F8210C0120024684F8E200002045F8390C7C
:203BB0000827C5F8FF7FC5F8F37F45F8392CBDE8F883052914BF09200620002784F8E400C3
:203BD000376075E094F8E170383D0120002FC5F81B0004BF0620002102D00021F1600320FE
:203BF00084F8E400032045F8010C3160306880085ED294F8E4103348012703290ED0006872
:203C1000456800216022052300914046A84794F8E400062814BF0A200720CFE70068456889
:203C3000002160220523022000904046A8470420C4E7FEE72548264F0026012506600E200C
:203C50003D6002F0DFF8022005F0F6FA84F8E45084F8E360BDE8F883002038600C25786097
:203C700024E04FF08059D9F8A0010168202088472C3D0F2045F8010C41F61D56C5F8036082
:203C9000D9F8A401466800214FF4C0720723022540460095B047D9F8A401C66800214FF4EF
:203CB000C07207234046B0470120386084F8E45004F1780006F06EFBBDE8F88339400C4001
:203CD00038600C40A401001000A00C402C500C4004800C4034600C409C3200202DE9FE4F86
:203CF0005F4C0C9F8C461546FA21C600B3FBF1F206EB4016D2040CF0070141EA124188B2E6
:203D1000C2103119C881194639A0634606F04FF84CF25038A419A84505D24E48A84234BF56
:203D30000526062600E00F26284605F0FDFE45A20CCA01F071FA82468946304605F026FC6C
:203D50000B4602464946504601F066FA0FF2FC0A9AE80C0000F076FC04F072FE814605F02D
:203D7000E3FE9AE80C0001F057FA83468A46300505F00CFC0B4602465146584600F062FC9B
:203D900033468DE803004A4621A0294606F00FF85FEA59500AD121692F4806F00F064FEA53
:203DB000C9230840064346EAD30626612B4E4FF47A7100E0361DB0884843B842FAD23288C9
:203DD00073881BA0394605F0F2FFB1784046A842217505D3607D00F0C00040F0050004E00B
:203DF000607D00F0C00040F008006075BDE8FE8F646576696174696F6E202564203D2025D9
:203E100064202A20323530206D6F642025640A0073796D626F6C7261746520256420703D62
:203E3000256420723D2564203D3D3E2025660A0072786277202564203E3D202564202825E7
:203E500064290A0000000000000030410000000060E3764120A10700F00000E04C38002014
:203E7000A03400202DE9F84F804692460868DAF80050067800271C46BB46421C242E0A608F
:203E900026D110F8016F521C532E0A6020D1ED1C25F003052D1D55F8040CE061CAF8005039
:203EB000208B0090A168E269D8F800005346FEF7CBF98346D8F8000010B15844C8F800008B
:203ED000DAF800502068E7600127A0EB0B002060662E05D0002F64D1E16901200E705FE0AE
:203EF000208B40B9ED1D25F007050835A5F1080090E8000309E0ED1C25F003052D1D55F8E7
:203F1000040C05F0BDF8894680462AA20CCA4946404603F099F828BF002705D2206989F020
:203F300000490127401E206124A20CCA4946404603F0CDF831D3404604F026FC064605F0D7
:203F500025FB0B46024649464046FFF78BFB1DA20CCA01F061F904F073FD0146606904228D
:203F70000A2303F0D1FB401EE0612E21017063692269E06931461B1AE360D21A0A2303F04B
:203F9000C3FB002F08BFE06104D0401EE0612D210170E0696169081A02E004A0E0610720C7
:203FB000E060CAF800505846BDE8F88F286572726F72290000000000000000000000C0FF9B
:203FD000FFFFDF41000000000088C3402DE9FF4104466668A7680D4606F0E2F931780129B4
:203FF00003D106F0D5FA002091E00121317006F0CFFA287870706878B07068687060A868D5
:20401000B060E868F06028693061287D3075687D7075A87DB075A869B061287F3077687F09
:204030007077A87FB0774FF00008C6F82080C6F83080454675627563B562B56386F82C50C5
:20405000102386F83C3086F82D5086F83D50786802F00AF9204601F033FF204602F0CEFCAD
:2040700070B92C480068C16838688847786801F0C9FE06F095F9357006F08AFA2C4645E0C1
:20409000684606F0A2F80094387B234A0190B9686B4606F1800004F0FDFD684606F0BEF8FC
:2040B00000941E4938696A46029006F19C0004F0A7FEB07830B906F1D000294605F002FBAD
:2040D00017483061707830B906F1EC00294605F0F9FA1448F060684606F040F901958DF831
:2040F00000501149029406F584700A226B4604F0BBFAB969FA6906F1400006F031F80B4ACB
:2041100006F16C000421234605F072FB20460090BDE8FF81D0010010214D0000B18F000092
:2041300065A300005DA30000CD6F00006DA200002DE9F041514C04F14C08404606F03EF93C
:20415000071C00F09980B86840F603022026531C02E04068761EF6B260B15EB101888A42D8
:2041700018BF8B42F5D1F9682CC828312CC149C881E849003A6A00263E627D6835B397F8A1
:204190002F0000F00700401E0BD0401E06D0801E18BF002308D14FF0805304E04FF0804313
:2041B00001E04FF00053324697F82F00000908D397F82F0010F0070F03D04FF08070324317
:2041D00003437D68F868B7F92C10A84706F0E8F80546B4F95200401C6FF31F30A4F852004E
:2041F000E06C80F82F60404605F096FE284606F0CFF9B4F95000B4F9521088423CD1F868DE
:2042100090F8C20000280CBF0520072002F024FA04F5AA742568F868854208BF656890F80E
:20423000C240002C0CBF0468341C80F8C2604DB195F8C23023B92868A04228BF041C01E06C
:2042500085F8C260ACB10E480068B4F1FF3F13D0B4FBF0F101298CBFB4FBF0F10121F868B7
:20427000783006F095F8F868783006F093F8BDE8F081012004F018FBBDE8F08108220020DC
:20429000583100202DE9FF410646080BC0F08E80484C00250127E068E570016A2772C9089F
:2042B00003D3C36904212A4698474349A0462A4608F1700006F07AF8404805F0F3FFD8F886
:2042D0000C0041683F4C886808B9C86820B1A4F11C00C5613A490160384603F059FF2560D3
:2042F000394844F81C0CB1684D80B068028840F60200904208D0B2F5C15F05D00B8B4FF6E8
:204310000F421A400A8304E00B8A4FF60F421A400A8200F1080C7774ACF10702531C00E07B
:2043300039464F6837B13888844503D0824218BF8342F5D12F464F60487B00F0F00040F0D6
:204350000100487308F13C0006F038F88068008882421BD0834219D0308DC8B196F8340071
:20437000758596F83530F76200F0F00086F8340003F0F00040F0010086F8350006F128026D
:204390004A60487B00F0F000487301E0C8F86050B068694601F0D6FA684605F01FFF2068E3
:2043B0000028FCD02560B06844F81C0C0090BDE8FF81C04608220020199D0000691E0000B6
:2043D000510007061C10044001010E042DE9F04105F02AFD4A4C276C002F00F08D80010929
:2043F00024D2810801D3A66C06B307F1100292E86000002105400E4008BF002D7CD03A6914
:204410003E6A07F1180510403043386295E80C00676407F118061943104386E8030004F1F3
:20443000EC004FF4804105F0D5FF65E039693E6A07F1180541F00A0108403043386295E801
:204450000C00002100262F4D266419431043103D07F1180383E8030005F108033A69186852
:20447000904307F11002186092E803002868091C324688433946286004F14C00804604F060
:204490003BF904F1EC00022105F0A4FFA06C98B3A06CF968C06888422ED1A06C90F82F10B4
:2044B00097F82F00084310F0070016D000F0010100F002070F4304D1A16C2F310A781043A2
:2044D00004E0A16C2F31087840F001000870A16C3246404604F010F90DE0A06C2064A968BC
:2044F000A06C00690843A860A06C2F68103003C8081C38432860A66401F05AFEBDE8F081A6
:20451000082200201C1004402DE9FE4F054648480C46B4FBF0F18AB24849EE00804606EB3F
:204530000516761808FB1240F28105F0FDFA3CA20CCA00F087F80FF2F00999E80C0000F074
:204550006BFE04F07DFA87B23782F689304605F0EBFA83468A46384605F0E6FA99E80C003D
:2045700000F070F80B46024651465846FFF77FF83A468DE803001BA0314605F018FC2D48F0
:20459000A0422CD92C4F00224FF0FF3110463E460DE008FB1343002B48BF5B42B1F1FF3F49
:2045B00001D0994201DD19460246361D401C3388002BEED1960007EB0608BA5BB8F80230D9
:2045D0000FA0214605F0F3FB1D49BA5BE80000EB45104018028498F8024080F82440BDE8FE
:2045F000FE8FC046663D25642066756C6C2025642066726163203D3D3E20252E36660A00C3
:204610007375622D3147487A20663D25642062616E64202564206469762025640A00C04613
:204630000000000080842E4100000000E0FFEF4040420F0000CA9A3B783B00202C37002063
:20465000A03400202DE9FC4191EA03084CBF4FF000484FF000084FEA03354FEA153556005A
:204670006D414FEA43075FEA575711BF45F4001500210020BDE8FC814FF4E06E1EF1FF0ED4
:2046900077456FD04FEA01334FEA133342005B414FEA4104640D11BF43F4001300210020FB
:2046B000BDE8FC8174455DD0E41B002100205FF0360EAB4200D1B24205D340414941921BCD
:2046D00063EB050301E040414941BEF1010E05D053EA020702D052005B41EAE7BEF1200F40
:2046F00009D2BEF1160F0CD3CEF1200720FA07F100FA0EF00FE0AEF1200E00FA0EF1002057
:2047100009E001FA0EF1CEF1200720FA07F741EA070100FA0EF011F4001F02D140004941BC
:20473000641E401C51F1000111F4800F1ABF641C21F4800121F400114FF44077FF37E41972
:20475000DEBF00210020BDE8FC8107F58067BC4208D249084FEA300041EA045141EA080120
:20477000BDE8FC810020FF214FEAC101C91D4FEA015141EA0801BDE8FC8170472DE9F04107
:20479000424C464D8046C8F38140401E02D0401E2AD025E0284620300168880C20D24FF429
:2047B000804020603A48D0F802204B0AC1F3033703F0800322F08F02134347EA0302C0F89D
:2047D0000220D0F801300E1266F30303C0F80130026801F0E70722F0E70247EA020102E0EC
:2047F0004FF00041204601602F4E301D0068C0F3C0070FB94020A0624FF40070206405F060
:20481000F5FC40F0300084F8C800C8F3815040B3401E03D0401E1FD002211EE0012004F0C0
:20483000F9FE07460420394603F0E2FA042004F0F1FE8742FAD1361F366826F07F4004F05B
:20485000FDFD14480068036807214FF06022300E98474FF4806020600321042003F0C8FA79
:2048700006E00420012103F0C3FA0B4804F0E6FD284600680A4947F6180700F03F0084F8F2
:20489000CB0F084E0F803068BDE8F08140A00C400A600840B4010010BD3786006C130050AF
:2048B00070B00C402C200940AC3F005038B505F01BFBB0B1801E0ED0801E0CD0801E012896
:2048D00004D91AA005F073FA04210EE023A005F06EFA022109E029A005F069FA0120014607
:2048F00004E02DA005F063FA0321012004F0E2FA344833490068B1FBF0F5284605F054FEEA
:20491000314C02E0206805F03BFE206805F038FE284605F049FE206805F06AFD0028F1DD3B
:2049300023A005F044FA05F0F3FB38BD524553455420534F555243452077616B6575702058
:2049500066726F6D2073687574646F776E20286F72206F74686572290A00C0465245534524
:204970005420534F555243452073797374656D2F7761726D2072657365740A0052455345BB
:204990005420534F555243452056444428522F5329206C6F73730A00524553455420534F6F
:2049B0005552434520706F776572206F6E0A00C05741544348444F472072657365740A0006
:2049D000809698003CB90000543100202DE9FC4705466E68D5F80880B76B002F18BF4FF049
:2049F000FF307BD131630024F477171C74631BD006F1400905F0D4FC82466946484604F016
:204A100068F900281ED4504605F0C2FD9DF80000316B0870306B736B7F1E00F1010030637D
:204A300003F101007063E5D17078726B316B0128A1EB0201316303D1F36828469847726BE2
:204A500014464AE0B763504605F0A2FD05F0A8FC234D0746287820B9022004F007FD012074
:204A70002870384605F094FD1E49086840F400700860D8F80010886B40F4FA608863707873
:204A900008BB716806F1EC07384605F072FBB8B1B4633846214605F06CFB88B105F080FC35
:204AB0000746287818B1022004F0C6FB2C70384605F06EFD1027716B306BF777401A3063D6
:204AD000706BBDE8FC8796F82D0030B1706B20B1B46306F19C0005F07FFC2046BDE8FC87D3
:204AF0007C310020301000402DE9FF47424C94F8E70000286ED10127384D84F8E770E87CB1
:204B100084F8E6006E68C4F81061684605F026FC002604F10C0001966B468DF8006030498E
:204B30000296324603F0A0FD2E4904F130006B46324603F099FD2C4904F154006B46814641
:204B5000324603F091FDA96838468847DFF8A48026482A7D08F104030078254D1868C0F3C1
:204B7000815A22B1BAF1030F04D184F8E170BAF1030F15D0BAF1020F12D0BAF1010F0CD041
:204B9000022004F073FC042004F044FD012804D028683221B1FBF0F10DE004F04FF912E09F
:204BB000022004F063FCBAF1030F0CBF4FF47A7142F210712868B1FBF0F1484605F0E8FB82
:204BD000484605F0E7FB40460068C00802D2304604F04CFC00200090BDE8FF87B0B80000E1
:204BF0002B38000025650000D17A00008331002058310020B03F00509C32002010B54FF4BB
:204C1000F03001884FF6FF700C46A0420FD01EA005F0CDF835482146FCF70AFF05F006FBC6
:204C300003F0D2F9FF2808D004F08EFF05E0012005F096F91BA005F09FFC324C94E8030054
:204C500004F05EFE94E803002FA20CCAFEF750FA1EA0114605F0ABF8254C00213C220823C7
:204C7000204605F085FC07234FF48060A361214A20622349E261204B204823612246002379
:204C900005F072FC10BDC046636F6E66696775726174696F6E206C656E6774682025640A01
:204CB00000C046C0636F6E66696775726174696F6E2064617461206D697373696E672C2086
:204CD00068616C74696E670A00C046C0746167202564207374617274696E6720286C6F7702
:204CF000657220646967697473290A0002E00100E02F0020081E002040420F00402F00207E
:204D1000F1140000183B002040420F00000000002DE9F8438146D9F808703868066CD9F836
:204D3000045046646A6CAB6CA86B16F4F06F0146A2EB03082ED1F00919D2700961D389B153
:204D500095F83C40641EA14298BF0C1C4846214604F07AF9A86B001BA86352D105F19C000C
:204D700005F03AFB4846414604F0B0FB49E00029F8D0484604F068F995F82D10A86311B9A9
:204D900000283ED101E00020A86305F19C0005F023FB36E0F20A19D24FF00008444602E06B
:204DB000A86B401EA86340B34846012104F04CF93868446814F00F04C0F80480F0D0286B99
:204DD000401E2863686B401E686316E0386844680022202904F00F044260CCBF20270F1C8B
:204DF0004846394604F030F9C7F12007B845C8BFB8464846414604F069FBEC77484602F0C8
:204E1000F7FDB0090BD3A96A49B10F46484604F08BF9A86218B94846391D03F089FBBDE8B4
:204E3000F8837047F8B5384C0D46A8084ED2E80869D301250420A57204F018FB05F04AF910
:204E500004F1580282E8030004F13C0005F0B6FAE16868B1C068064641B18E4206D0316AA7
:204E7000C90803D3C3690421002298473146E1604868264900780860022004F0F7FA11203A
:204E900001F0F2F9E1682571087C10B1A078012803D00E2001F0E8F9E16849681C488F6899
:204EB0000FB9CF681FB10021C1611A4F07601A4A40F2FF7111600027876118494161184817
:204ED00005F0F0F9192005F06DFAF8BDFFF730F904F14C0005F072FA25F0020504F13C018B
:204EF00058B9E80803D2084605F068FA58B104F1C80005F051FA042101E045F0020104F1EE
:204F1000EC0005F067FAF8BD08220020D02108400010044051000706000004600A000040A7
:204F30002D3800002DE9F0413C4C05462078002871D0B4F95200B4F95010884213D02846BA
:204F500004F094F9021C06D1216C284605F076F900B1226C3AB1B2F92C1028464FF0E0438B
:204F7000002200F04FFA05F01BFA804604F5AA700168A94219BF00264660002606602078C7
:204F9000401EC0B2207090BBE078E56088B1012003F08AFC022003F087FC404605F0F8FAE1
:204FB00005F140004FF0FF3105F0E3F805F0F8F9804604F1EC0005F007FA04F1700005F08F
:204FD000EDF904F5907005F0FFF904F18C0005F0E5F904F1C80005F0D5F904F1280004F010
:204FF00083FD287C012802D10E2000F00BFFE06805F14007854208BFE660404605F0C8FAC3
:20501000384605F0DDF905F1780005F0BBF905F19C0005F0B7F9BDE8F081C0460822002083
:205030002DE9F04707467D68D7F8089090460E4605F0B6F98246A86A002864D105F5847087
:2050500005F0AAF90024EC772E6250466C6205F09FFA05F0A5F92F4E3378824623B902201E
:2050700004F004FA01203070504605F091FA2A49086840F4807008603846414604F054F8A3
:20509000A862C0B93846414603F052FAA878D0B9A96805F1D00005F06CF8E8B1AC62102089
:2050B000E8774946284602F0D4F905F079F98246307840B323E0D9F80010886B40F02000D4
:2050D0008863A87810B12046BDE8F087A96805F1D00005F04EF810B9686ABDE8F08738462B
:2050F000414603F025FA1020AC624946E877284602F0AFF905F054F98246307818B1022036
:2051100004F09AF83470504605F042FA4FF0FF30BDE8F0877D310020301000402DE9F04F61
:205130003B4D0F46002104462970ADF1340D0994002F0A9752D014F8016B14F8013B14F844
:20515000010B14F8019B54F8042B54F804CB54F8047B54F804BB54F8048BCDF830C04FEA56
:20517000A31CCDF82CC00097CDF804B0CDF8088003F03F030396203BCDF810C05FFA83FABE
:20519000CDF814A0C311069300F03F030793CDF820900C9B13A004F00AFECDF800800B9999
:2051B00028785A463B46FEF799FD28784FFA8AF103F024FC28784FFA89F100F097FC287896
:2051D0000C99FFF7A1F928781249099F0A9B0E54E21B401CC1B293422970ACDC0DB0BDE8BC
:2051F000F08FC04625643E3E2025303878202564202564202564202564202D2D2025642009
:2052100025642025642025642025642025640A00843100206C3100202DE9FC4191EA0308DC
:205230004CBF4FF000484FF000084FEAC32545EA52554FEAC2264FEA43077F0D11BF45F059
:20525000004500210020BDE8FC815FF4E06E1EF1FF0E774555D04FEAC12343EA50534FEAD2
:20527000C0224FEA4104640D11BF43F0004300210020BDE8FC81744543D0E419A3FB050137
:20529000A3FB06E7A2FB06631EEB030E57F1000751F10001A2FB05631EEB060E57F1000750
:2052B00051F10001FF1851F10001C01951F100014CBF4FF4806E4FF4007E10EB0E0051F1DD
:2052D000000148BF641C01D4400049415FF44077FF37E41BDEBF00210020BDE8FC8117F54C
:2052F0008067BC420DD24FEAD02040EA41504FEA41014FEA113141EA045141EA0801BDE8A7
:20531000FC810020FF21C900C91D090551EA0801BDE8FC817CB50546084602F0CDFA364E96
:2053300002461821304604F05FF904F0A7FC3449103909684C6840F2FF32002380B22C2193
:2053500000903046A04704F059FF1C210246304604F04AF904F084FC02461421304604F077
:2053700043F904F091FD02461021304604F03CF9284602F06DFA02460C21304604F034F974
:20539000284604F069FD1D4C400040F020002070284604F06DFD40F010002070284604F0AE
:2053B00073FB02462821304604F01EF9284604F077FD400040F06000E070284604F07CFD8C
:2053D000C00040F0800004F8080C284604F080FD800040F47C40A4F89300284604F046F91E
:2053F00002460821304604F0FFF84FF48000A4F2091108607CBDC04600A00C4049A10C408F
:20541000B40100102DE9F8439946904604460E1C44BF0020011C68D404F0D8FF0546314634
:205430008022204603F028FD071C04D097F82F0030F07F0003D1284605F0A6F853E097F851
:205450002F0010F00F0F46D100200A2107F1180640EA090941EA080896E8030008EA00008D
:2054700019EA010608BF002820D0284605F08CF807F1180003C804F1700604F1700508EAAA
:20549000000809EA010986E8000395E80C0007F1180696E8030007F118059943904385E835
:2054B0000300703494E80300BDE8F88310487968884202D07968A166786004F1600080E844
:2054D0000003284605F060F804F140004FF0FF3104F04FFEE5E7284605F056F897F82F00DE
:2054F00010F00F0FFAD102200021BDE8F883C04691800000F8B504F0E1FE02F045FA04F094
:20551000EFFE054605F00C000C2853D0E80826D204F01AF92A4E376804460120014604F03F
:2055300072FB31686143884219D22649F020B0FBF7F0241A887C18B1C868A04238BF041CB7
:20555000214D2146284605F00BF8284605F004F80120FDF7B1FA284604F026FB2CE0280921
:2055700028D21A4804F082FE0428FAD0184A690905D220B11168104621F0010103E01046BE
:20559000016841F001010160983210684FF0805540F003001060D5F8B80181692020884786
:2055B0000C4CD5F8B8712068B86B804701202060206801E004F0E4FE04F086FEF8BDC04608
:2055D0003CB90000B0B80000A8320020004003408C2108402C200940E0B501880025A1F67D
:2055F000020159B143F20402891A04D0491E19D190F8246000E00226C76901E0C67B476975
:2056100087B13F1F052044F2380357F8041F0A04120C934203D0401EF7D13F1D01E0C1F3F1
:2056300003450DB90120E0BD3046401F19D01F4A401E11D01B4B001F0CD0801E07D0C01E74
:2056500006D00F381ABF1A4A6032083205E01A46121D02E01A4600E0083A1068C0F383404E
:2056700003E011480068C0F303200F2806D0A84216D921F4702141EA004110E0761F0AD049
:20569000761F08D0761F06D00F3E1CBF21F4702141F4802103D121F4002141F4E0213960A5
:2056B0000020E0BDFC1000502013005000110050201300502DE9F0470D4606465FFA85FA96
:2056D000280824BF2E4845402E494FEA8A03C85885EA00023240C2F300672B4A06EA0504E2
:2056F000B043224006F4E0240243B4F5E02F01D1500E14D306F4E020074310D002F4E02712
:20571000B7F5A02707D0B7F5803704BF22F4003242F4A02203E022F4803242F4C022DFF82F
:205730006C80CA5008F1D00739680122002002FA0AF40C4218BF101C5FEA000906D1F00D2E
:2057500004D34146C5F3805001F80A00300E0BD304F026FE290E34BF0021211C3A68A2430D
:205770001143396004F014FFB9F1000F06D0F00D04D34046C5F3805100F80A10BDE8F08785
:20579000006000A000100840007F077F002002402DE9F843DFF8C4900446D9F800001F463E
:2057B00015460E468047DFF8B8802068B0F1FF3F02D0042D03D017B9454628682EE0636853
:2057D00073B16069010903D3581E04F0E3FA606900216160A160E16020F00800216100E03E
:2057F000606905B9012520F00700012F45EA0005656108BF0026B7F5807F88BF4FF4807792
:20581000B6B97F1C384603F0D8FE4546064628684EB96169666041F48061616180474FF04B
:20583000FF30BDE8F883616941F00801616101E045462868761C66602661F119A660491EF1
:20585000E1608047D9F8000080470749054A2868116080470020BDE8F883C046043C00208B
:20587000083C0020D43B0020BD330000F8B505462F4890F900200E4602F003002843C1B256
:205890000F4621A004F093FA2A4C2B4900224FF48073204604F042FDF8223946334620460E
:2058B00002F06EFE254A0CCA0021204600F04AFA15F4E06F0BD0C5F3022617A0314604F045
:2058D00076FA20460921F317324600F03BFA280B0AD320460521042200F0F6FF03F0ECFB90
:2058F0000146204603F078FDA80B0CD320460A21042200F0E9FF03F0DFFB11490968411A6F
:20591000204603F069FDF8BD666C61677320253032782025640A00C0626561636F6E696E25
:20593000672077616B6575702025640A00C046C0223B0020E8300020642B0020183B0020F3
:20595000243B002080B50288A2F602073FB143F20502BF1A14BF002090F8240000E0C07B99
:205970002C4AD2F88832401F0B6048D0401E3CD0001F30D0801E24D0C01E18D00F380CD037
:20599000D2F890024860D2F894028860D2F8BC0220F0784040F080503AE050694860D06AA6
:2059B0008860506C20F0784040F0704030E010694860906A8860106C20F0784040F0F040D4
:2059D00026E0D0684860506A8860D06B20F0784040F0C0401CE090684860106A8860906B03
:2059F00020F0784040F0A04012E050684860D0698860506B20F0784040F0405008E01068A9
:205A1000486090698860106B20F0784040F02050C86080BDC41000502DE9F84F984691466F
:205A30008A46054604F0BCFC834603F057FF0AAF061C2ED005F1780004F0AEFC294CC6F865
:205A500008A0B4F9500086F82E90401C6FF31F30A4F85000C6F80480B4F85000B08522487F
:205A7000F56097E80C002021002719401040B84606F110036A4683E8030006F11803314676
:205A900086F82F7004F13C0083E8800102F034FE30B9584604F07CFD6FF00100BDE8F88F18
:205AB000B08D85F8C2709DF80030A5F8C00096F82F0040F0800086F82F0033B1A07920B1E0
:205AD000E07810B1A7710120E071584604F060FD9DF8000008B101F0C1FBB6F92C00BDE8A9
:205AF000F88FC04608220020FDEFFF9FF8B5294F2A4E04460846801E1FD0401E06D01BA084
:205B100004F055F9244D2749002205E01AA004F04EF90021244D254ADFF884C0E0003B46D9
:205B300000EB4410C018C78A33464FF2FF0603EB04139A603E40644613E013A004F037F93D
:205B50001B4DE0003346002100EB44104FF6FF0603EB0413C019174CC28A9960164046F4B4
:205B70000066C682C5615C60D960F8BD656E6320706C61696E0A00C0656E6320666173745F
:205B90006C726D0A00C046C0656E63206C726D0A00C046C0A0340020FC380020383A00208F
:205BB000F1A300006D730000C8360020E9710000A4380020F5A3000038B504462568B5F1EB
:205BD000FF3F12D063690020990909D3616839B1A268914204D0521A284603F045FE6369EB
:205BF000002805D543F4806363614FF0FF3038BD60682061A060D80924BF23F0300363613B
:205C1000002038BD2DE9F0470746194CDFF86C8020680FBB8047174A10680025002820DD61
:205C30001549A1462E469246A1F1180454F8181FB1F1FF3F0CD0D9F8000080472046FFF7E2
:205C5000BBFF0746D8F800008047DAF800003D43761C8642EADB04E080473846FFF7ACFF5B
:205C700005464046006880472846BDE8F087C046043C0020C43B0020B0330020083C00209E
:205C9000274A2DE9F04180460125264815600768002FFCD0244CC02025492060081F036833
:205CB0009B0806D250F8040C204B000C40F0F0001870002010630E68304600F0D9FB404619
:205CD0003146FFF727FB1B49886D40F21E226FF31F40824215D90868020E12F00F0F02F055
:205CF0000F01C0F3034018BF491E072805D006280EBF0720801C00F00F0041EA00110E48FD
:205D100001703046FEF73AFD0C480068C16802208847402020600A4F3D60BDE8F081C04698
:205D3000101009409402224300600C4056620840B43F0050BC12005002600840A001001087
:205D500094046042F8B505460F461C46164625A0211C04F02CF83946002C08BFFF2E38D924
:205D70004FF6FF70C217944208BF864228D9002C08BFB6F1FF3F1AD920A090E80C009C4233
:205D900008BF964209D92846082200F09DFD28462346324602F064FDF8BD2846062200F073
:205DB00093FD28462346324602F036FDF8BD2846042200F089FD2846314603F00DFBF8BD7B
:205DD0002846022200F080FDB1B2284603F0C8F9F8BD2846012200F077FDF1B2284603F081
:205DF000DBF9F8BD7061636B696E6720696E74202538783A253038780A00C046FFFFFFFF82
:205E1000FF0000002DE9B043044604F0C9FA81462748021992F8EF10491ECFB2002F82F8FE
:205E3000EF703FD1254901EB84014A880C78904634F07F0718D1E1090FD24FF0805000F576
:205E5000DC75D0F8B8018169104688472868416B404688470228F9D11EE000EB8800D0F893
:205E700004110020884717E04FF08055D5F8B801016A10468847D5F8B801816A4046884727
:205E9000D5F8B801016B404688470A4901200860094908688008FCD304F03F003F2801D04B
:205EB000FFF7B0FF484604F073FB0020BDE8B0839C3200202820086028200840ECB6000075
:205ED000F0B52B4D05F12C0158C9ADF11C0D02AA58C20AC94FF0805682E80A0047688468CD
:205EF000D6F8D001C16820688847216821488A6B10408863206840F2F271416497F83C00C4
:205F100097F83D10C0100DEB80008068084321684863684604F038FAD6F8D001397F46680D
:205F300005EB8101BA698B68797F206855F821101943BB7F05EB8305AB690B430199B047CA
:205F50000D490A1F106840F010001060086840F001000860A07D0027FF2802D0E07DFF28C0
:205F700000D11FB1086840F44040086007B0F0BD80B700000DF8FFFF3010004030B517A02A
:205F9000ADF12C0D03F013FF00212422082301A804F0DEFA214D002101AA284604F0D4FAA4
:205FB000214C20481E4A2146006815604FF0FF3204F0C6FA218810A003F0F9FE88200090B1
:205FD0001B491A482022022300F026FF18B91949FF20088000E0FEE70BB030BD52582074EA
:205FF00061736B206372656174696E672073656D6170686F72650A004372656174696E67CA
:2060100020717565756520726561647920627566666572203D2025640A00C046983000205E
:20603000683100205C310020743100202031002058300020603100202DE9FC47294C8A46BD
:206050002168009088472849284D086848B901232846072700220B6018307F1E40F8082B54
:20607000FBD12846214600F1180400E00834DFF8809000F15002A24206D14C462068804780
:206090004FF0FF30BDE8FC872268002AEED108688047684601F015FB06467089641BE2104B
:2060B0009046400806D2F0680346009851469847074601E04FF0FF374C462068002F48BF38
:2060D000B84609D405EBC8052E6071896F608A083CBF41F001017181804720688047404673
:2060F000BDE8FC87043C00206C3C002050390020083C00202DE9F04705462A4B28481F880F
:20611000DFF8A4804C002A2604EBC10106FB05F40D46214664194D1924182D186688A388F6
:206130006D896489921B03FB07F61FFA86FA92FBF3F707F001076A0813D2DFF87090E20B9A
:2061500012D22FB104F0400104F08000084308D120465146FFF78AFB49460A8840460281FC
:2061700018E00321404616E0455A02F051FF90FBF5F16943401A0028C8BF0421F2DC07A0D6
:2061900003F015FE20465146FFF770FB494609884046018101210170BDE8F087210A00C0C9
:2061B000F82D0020203B0020F83B0020EC300020F8B52C4C04F13C05284604F0FFF807467F
:2061D000012002F03DF9206C002847D1002F40D0E068F968884239D1B86802F005F8061CAD
:2061F00013D0A06C88B9012002F05EFB832835D1E068783004F0D0F8C8343146204604F0C9
:20621000C7F8204604F0C6F8F8BD15493869A1F10802136807F110061843106096E80C0069
:2062300051F8102C181C104341F8100C00260E60B86841F81C0C0F68002FFCD0284603F005
:206250006BFE2064304602F0FBF8F8BD4FF4806100E0022104F1EC0004F0BCF8F8BDC046C6
:206270001C10044008220020F8B5064604F098F8264D0746A91991F8EF00421C002881F8DE
:20629000EF203ED1224C04EB8604267806F03F003F2801D0FFF7E8FF648836F07F0018D187
:2062B000F0090FD24FF0805000F5DC75D0F8B8014169204688472868416B204688470128A5
:2062D000F9D11EE005EB8405D5F804110120884717E04FF08055D5F8B801C16920468847AB
:2062F000D5F8B801416A20468847D5F8B801C16A2046884707490120086007490868800821
:20631000FCD3384604F044F90020F8BD9C320020ECB60000282008602820084098B50446B3
:206330002068B0F1FF3F05D06269500904D342F480626261002098BD100A05D3204600214D
:20635000022201F0F1FC626990094FF0000104D2D00924BF42F02002626167684FB9D0082F
:2063700007D202F0070220464FF48073FFF710FA0146E2680020226101B9012098BD80B504
:206390000168B1F1FF3F05D04269910904D342F480624261002080BD53094FF0000104D229
:2063B000D30924BF42F010024261476847B9D30806D202F007024FF48073FFF7E9F9014675
:2063D000002001B9012080BD264838B560300468B4F1FF3F08BF002403F045FE2248234B42
:2063F000002501211038056003F15C0001601448016001F0D5FF1348006820B11248006810
:206410002046FFF73DFC114811490560114C0A686FF35B4244EA020008600F490868C0F3DE
:206430000130012806D10A680C48104040F400320A6008600A4908680028FCD138BDC0461A
:206450000822044380012843000120438C210840482003400000390104000940FFFFFCFC4E
:206470000C006842BC1200509404604200600C4070B5234C234D0646B00E11D2700E0FD301
:20649000802020744FF6D801A4F85110207001F01DF8D0352868C0F30420162806DB04E098
:2064B0002868C0F30460162800DB203800EB2670401C162805DA10F10A0FB8BF6FF00900C1
:2064D00000E01520104D00F01F0040F4F850A4F859002868800803D20C490020086001E00F
:2064F00046F040660A49F00EB50E80F0010000F00100086085F0010000F00100886070BD56
:2065100015620840B81200500000094094042A43000020432DE9F04103F042FF254D214E85
:20653000804605F1E000007848B93446A168022088470746102002F03FFA6FB31AE003F00B
:20655000CFFEC0091AD218480068C4681748342101220023A04788B101F082FB3446002093
:20657000A16885F8E000022088470746102002F023FA8FB1A168032088470DE00C48006844
:206590003221B1FBF0F101B901213035284603F0FFFE284603F0FEFE404603F0F9FFBDE8F9
:2065B000F081C046B0B80000A401001000A00C40583100209C320020F0B520480127F84245
:2065D00001D002F02BF8204D204F214EBD4206D203CD0478A4003459401CA047F6E71D48A1
:2065F000002800D08047164D164FBD4202D210CDA047FAE7F0BD03251BE0416808300A1CB5
:206610002A400BD11A1C2A40AB4305D0046804300C600431043BF9D1131C05D004780130C6
:206630000C700131013BF9D1021C2A4001D0A84304300368002BE0D17047C046FFFFFFFF1E
:206650000000000000000000CC0500002C060000C405000055C50110F8B5044603F0A0FEAB
:20667000234D064605F5C4710878A04305F5AA7408702068002808BF002706D020689C3064
:2066900003F09BFD002700B10127606838B19C3003F093FD0024384318BF0124274695F8CA
:2066B000880100BB012F1ED0D5F87C01F0B1016A89080BD24469304603F06AFFD5F87C01DB
:2066D00000214FF400030A46A04708E0C469304603F05EFFD5F87C0102210022A04700209B
:2066F000C5F87C01F8BD304603F052FFF8BDC0460822002008B5FEF7F7F92448FCF7D4FE09
:2067100010B10AA003F038FF02F064FA0DA003F04EFB02F061FCFFF731FC16A003F047FB3E
:20673000FEF76CFA03F008FF002008BD4572726F7220776974682050494E5F696E69740A05
:2067500000C046C02A2A2A4255494C442054494D4520444154452031313A32323A30362008
:206770004665622032372032303138202A2A2A0A00C046C0676F696E6720746F20726164AC
:20679000696F2073657475700A00C046C0B70000002A4AD05FEA000C8B071CD1830722D1A4
:2067B000102A08D370B4103A78C978C0103AFBD270BC103238D0042A2CD3082A05D30C2AD3
:2067D00024BF08C908C008C908C008C908C092072AD0920F22E00B780370491C401C521E9E
:2067F00022D08B07F7D1C30714D18307D8D0121F12D308C903801B0C4380001D121FF8D2F0
:206810000AE008C903701B0A43701B0A83701B0AC370001D121FF4D2121D05D00B780370E4
:20683000491C401C521EF9D160467047F8B503F0B7FD234C0746D4F8C00010F4602F33D0BE
:20685000D4F8C000400CC6B2700807D2B00803D2F00828BF022602E0012600E00026751D52
:20687000002168B201F0ECFCD4F8C03006F111010120884023EA00013846C4F8C01003F03B
:2068900087FEB00004F1A8010A18D7682FB1085800224FF000632946B8470A48006830B99F
:2068B000022002F001F802E0384603F071FED4F8C00020B104F59070002103F08BFDF8BD52
:2068D000082200200C1004402DE9F041044690460F46101C19D0401E15D0401E11D0801E0D
:2068F0000DD0801E09D0801E05D0B8F5807FB4BF062507250AE0052508E0042506E0032518
:2069100004E0022502E0012500E00025B7F5807F0E4602DA1E2F04DB1E26B7F5807FA8BFF2
:206930001F2646EA4510C1B2204602F035FC062D04D15FFA88F1204602F02EFC072D03D11D
:206950004146204602F00CFC1E2E03D1F9B2204602F022FC1F2E03D13946204602F000FC0B
:20697000BDE8F0812DE9F843234D884606464FF0FF3105F12800814603F0FBFB00200CE0CD
:20699000FF2909D02A688A4204D305EB8101D1F898700FB1002627E0401CB8F1000F03D09A
:2069B00018F82010FE29EBD10024346074600127B46011E0FF280ED005EB80000B78726819
:2069D000C0F8986007FA03F0104370600A680949304602F017FC641CB8F1000F04D008EBA2
:2069F00084010878FE28E5D1484603F0EBFC3046BDE8F883007FC76788310020B0B5456810
:206A100084682349607DA27DADF1180D40F000400090207D0027FF2A41EA000001904FF067
:206A3000020002D0E27DFF2A00D13FB1E37DA07D1943039140F0004002900420FE214DF832
:206A5000201005F158006946FFF78CFF6866002808BF381C1AD0617D0F2202F01DFE686E8B
:206A7000217D102202F018FEA17D3846FF2902D0E27DFF2A00D140B1686E112202F00CFE49
:206A9000686EE17D122202F007FE012006B0B0BD0000C0A0F8B5044625686769B5F1FF3FAB
:206AB00007F4805702D0FFF787F810B14FF0FF30F8BD6069000907D36068401E03F06AF9A1
:206AD000606920F00800606100206060A060E060206801F0A7FA06464FF0FF30206057B188
:206AF0000F48006880470F4800EB051002F016FE0D48006880473046F8BD38B5084C054668
:206B100020688047206880472846FFF7C3FF064C05462068804720688047284638BDC046FD
:206B3000043C0020A02E0020083C0020F8B50546214800680C4680472046FFF7EFFB1F4EFE
:206B5000002830D0606900F00700042819D0A068E168814204D82046FFF72EF8F8B9A068FD
:206B7000411CA160EFB207706069800805D30A2D03D12046FFF720F888B9306880473846C9
:206B9000F8BD20688DF800506946012202F06CFEB0F1FF3F03D030688047E8B2F8BD61697B
:206BB00041F480616161306880474FF0FF30F8BD0349FFF7BBBFC046043C0020083C0020E5
:206BD000C83300202DE9F8432020EFF3118780F31188214CA068012103F0AAFC4FF00109FA
:206BF0004FF0000865692168A4F81C906A1A2168A4F81E80461B401A904227D387F31188BE
:206C100040462D18361A4846294603F08DFCB042F7D92021EFF3118781F31188E18B0129B0
:206C300003D14046294603F07FFCB0F1FF3F06D0A169801B814238BF081C291801E0A069AA
:206C5000411903F06DFCA4F820902560A4F81C8087F31188BDE8F8837801002070B5054629
:206C70000A460C4617A0ADF1280D294603F09FF81E48012124228DF81810082301700021A7
:206C9000684603F065FC00206946024603F044FC1749124E3C22082308600021304603F05D
:206CB00067FC4FF400703062002307200E49B0610B4835613246F0610A48746103F054FC4E
:206CD0000AB070BD5741544348444F4720696E69742025642025640A00C046C01C3000200A
:206CF00018270020902F0020BD480000843C0020543100202DE9F0411F4C23888846074644
:206D10001646C3F50063934238BF1E1C002E16D413460CA03946324603F049F8174D208892
:206D3000414632464019FFF733FD164A2088144B22F81760811921802D1843F82750BDE8F6
:206D5000F081C04673657474696E672061746C617320636F646520256420746F206C656EB3
:206D70006774682025642028726571756573746564202564290A00C02C3B0020080E0020A4
:206D9000C83000200831002098B5044602F094F9194A1E4992F900200860B2F1FF3F02D0CC
:206DB0001649012008701A481549077891F90010C7B1144A174892F90020001F10F8043FA8
:206DD000994205D143789A4202D1C3789C4202D07F1EF3D198BD80780B4A41B2107002A085
:206DF00002F0E5FF98BDC04677616B7570202D3E2025640A00C046C0283B0020293B00201F
:206E1000223B0020853100202A3B0020243B0020233B0020D83000202DE9F84FB2EB031F49
:206E3000804638BF012034D30E464BB3DFF868A0DFF868900D464FF0000B1F4605F1100451
:206E5000DAF8000069464FF0FF3203F079FB2946BDF8002081F804B07F1E05F110054879F0
:206E7000CA6000F0F00040F00600487109EB02230C604FF480708B6004F11004C880DFD165
:206E90000E600020C8F80060054AC8F8040011460E60BDE8F88FC0465C3100200802002053
:206EB0007031002070B506467468B568606E02F09BFE29681C488A6B10408863304600F0B3
:206ED00037F8304600F094FD2968C86A20F01000C862296815480A6B104008636868FEF78C
:206EF00091FF04F1800003F059FA04F19C0003F06BFAA07818B904F1D00003F061FA60787A
:206F100018B904F1EC0003F05BFA04F5847003F039FA03F045FA0021217003F039FB04F154
:206F30006C0002F0E1FD70BD0DF8FFFFFEFCFFFF2DE9F04106467568B46803F031FAA96A20
:206F500039B921688969090903D203F021FBBDE8F0810027AF6203F01BFBA17D3846FF29A3
:206F700002D0E17DFF2900D118B12846214600F070FA2168886B20F0200088630D49086883
:206F900020F48070086003F00BFA0B4C8046207818B1022002F050F92770404603F0F8FAA0
:206FB000686A296A091A29622B696A6A30469847BDE8F081301000407D3100202DE9F04146
:206FD00007461E49BE687C68306809688069C0F3C00008BB03F0E4F9194D8046287820B14E
:206FF000022002F029F900202870404603F0D0FA3168144D886B20F020008863286820F4A4
:2070100080702860606A216A091A21622369626A38469847BDE8F0814FF4FA70B0FBF1F1E8
:20703000012998BF012104F58474204603F0B0F9204603F0AFF9BDE8F081C04658310020E4
:207050007D3100203010004010B5994201D1904233D050EA020404D141EA03046400002CB4
:207070002BD050EA410401D19C4226E04C006415641C07D15C006415641C03D1DC0FB4EB00
:20709000D1741AE0002B0CD4002916D4994214D190EA020401D490420FE0002A0DD1012480
:2070B0000BE0002909DC8B4207D190EA020401D4824202E0002800D10124EFF3008454BF90
:2070D00044F0005424F0005484F3008810BD10B58B4201D1824233D052EA000404D143EA77
:2070F00001046400002C2BD052EA430401D18C4226E05C006415641C07D14C006415641C55
:2071100003D1CC0FB4EBD3741AE000290CD4002B16D48B4214D192EA000401D482420FE0F8
:2071300000280DD101240BE0002B09DC994207D192EA000401D4904202E0002A00D101243D
