:20000000004D002089810000FDC90110FDC90110FDC90110FDC90110FDC90110FDC901105F
:1C002000FDC90110FDC90110FDC90110FDC90110FDC90110FDC901103BCA0110A4
:20003C00A36100007F1407134D00F1242E1F133FB00A3F0007FF00003040004001400340BF
:20005C0007400F404F40CF40CF41CF43CF47CF4FCF3FCF2FCF1FCF0F000000000F0008000B
:20007C0000003F00000040003F000000040068000E00DC00060043001A00050000000000E8
:20009C00020000003F00000000000400C00000000400C0000000070050C00091007070C033
:2000BC000091007082312100319110B10070018101B100A18231329110B1019111104181DB
:2000DC0041224F40F106007051C0019130181039833108D01831416F3100319110B18314A7
:2000FC0014165B680070251050C00091F4C3C0C02014036F3110410422C0823121003191D6
:20011C0010B163393110410482C082312100319110B163393110A2C082312100319110B1B1
:20013C00501015310514059200703F6452C0311031066131C102426412C1311021397106D0
:20015C005131E102426400708A65996588C0208250398039001E9F4041C001301814181A62
:20017C0089C0308260398039001EA94041C001301914191A3C64369110B1349110B154B0CB
:20019C00007154A064B0F0800022AF404012B09032B053825339533985643F6411C122C1A7
:2001BC00426470C1C26811C1C2C0426470C1C76850C000912772989215161416421053105A
:2001DC00F0C12182313131398139313151B070B272652772999270B262107310F0C331828C
:2001FC002131213981391B107265E2C08231608280318039020061B00071329110B151A0E1
:20021C0061B0277230C2F36800008012B09032B0007050C000912772999262107310F0C39A
:20023C00318221312139813951B070B27E652772989270B242105310F0C1218231313139C9
:20025C00813931311A107E6551A061B02772B0C018693F6401C122C1426401C1C2C04264F5
:20027C00151A3C64359110B153828564C012B09032B000703F6472C281C0426422C111C177
:20029C00426402C011C1426462C031C3426462C311C1426402C311C1426453825339856482
:2002BC00E2C347641122404142C281C8426452C211C1426472C2E1CE426402C281C8426463
:2002DC0002C201C84264B0C0546900703F6442C201C8426452C211C0426472C2E1C0426416
:2002FC0002C001C1426462C001C3426422C101C1426462C301C1426402C301C14264538252
:20031C008564007061B000711214231C7A4D339110B10070329110B17269007061B0007174
:20033C001318321C8649329110B10070339110B17E690070C2C047641510C2C012164764E2
:20035C0041311514C0C0803105145410A07804040070E6C0863101CC161467106182F0C347
:20037C00010417140070067305720B720E7250B00071818060B050A092804122C3458080E5
:20039C00F1C11004301601110114016CD661D761D861D961DA61DB61DC61DE61E061E26148
:2003BC00E461366339639180F2C0210421318280422A1214321601112114016CEE610B6221
:2003DC00F4613963EE610B62F4613963E661E661E661E661E661E6619464E661F964E661D6
:2003FC002A65E6615665E6614667E6611012B0900E720673057210123090A761F0CF3C67F7
:20041C00D4C103C0C0C3546440785091507810926078209270783092807840929078609232
:20043C003078909110824039F00601101031101400924267E661BCA0E2A054A0F08050222A
:20045C001546408000222B470D6240A02D828D318D391082F1C0100409101A824A391A04A2
:20047C001082803910040E10AB10BC10C21063642972E0CF3C6713B003B0C86653B050B02F
:20049C0054B064B013B0A5661082E0223846AE660071418001222B47F08010224B46F02228
:2004BC00184764B03122384263B0CE661082E02238467066386264B06F818F318F3DD0DFD8
:2004DC00FF923C670071418001222B4764B0F0805022654263B01182C1226046CE66056799
:2004FC001182D122524670665262618172818131813D8231823DC0EFF19202933C670B62AA
:20051C00B081C091D381978290A2D3187F4EF30B1316E31CA44AC391E3813B149062BA1C03
:20053C008B46231E8B4AE31C8B4E90B207228B4290A21B1A9662E31CA44AC391E3813B1851
:20055C00AB1CA04E9B1CA24ABC1CA442B2101082D0229D42F0801022A4466364A566A462E0
:20057C00AB1094629B10946200703082F1C0100463B00071A86ABC10E0B00070B281C2913E
:20059C00D281018212185181121841828131813D121CBF4AE2B032B0B0DFF2923C67F1C7F7
:2005BC002114C34E12C86291729131B0E1B0007008C006C000C86091709100700182B081BB
:2005DC00C091D0811018518110180614E18042828231823D201CE44AE2B02122E84632B03B
:2005FC000510A0DFF5923C672122E842E2A032B031824139F0C00104011EF642181610C019
:20061C001030081C04476010103C0610F1C76114FA4E16C8669171818131813D161C014B13
:20063C00769131B006C008C0007061818131813D408280390118F11C174B0114B080C0223C
:20065C001747BCB033B090EFF1920F933C67007003A063B064B0EFB05665007140800022A3
:20067C002B4764B02A65EFA00071408000222B4764B003B03862018262818231823D80EF4D
:20069C00F19202933C6703A05665E661A2806364E66150B00071E661E092D08200223D478C
:2006BC00C0B20070A080F022594330B002C1623101C0A080001E5243F0225343A0F56031D6
:2006DC00603953632010101A136F236E11161216546B0070AD040021490400217D040021E2
:2006FC0081040021110500219105002141060021F8B51047F8B50E4600210125AD0430476E
:20071C000A48037800F00FF89B070BD0124C2078FF2807D0FF2121700E490F2424022043C4
:20073C006031C882F8BDF8B5014800476B020021E54C0000094801E00848000C064C0549E3
:20075C002278FF2A01D1CA7A22706031C8827046801C004700620840A4060021070F080803
:20077C00F0B4084770B503461546012906D0002906D0114A2846FFF7BBFF70BD0F4800E0C5
:20079C000F480524834203D84008641E002CF9DCE340012040031818820B012907D00649BE
:2007BC00002380312846FFF7A5FFE0B270BD0249044B6C31F6E70000835C0000A0BC86238A
:2007DC0000830D2374060021F8B51A4E0546716B1948CC09E401002D11D01849097802293D
:2007FC000FD0007B044372B60120154F4002B847114820380088C109C90704D016E0C07A77
:20081C00F0E7407BEEE70F497463CC61400AC0070CD001208003316B002D01D0014300E0AA
:20083C008143084631630749403948630020B84762B6F8BD80020021880000219B0200218C
:20085C007B3F00004040044010B5224A0021516121498968C90009D42149204BCA0598427B
:20087C004B6B01D8134300E093434B631D49FFF777FF10BD38B51A4D287F002827D11A48F7
:20089C000088C009C00722D1124C606900281ED1684600F045F868460078012817D1684633
:2008BC004078102813D208206061686A4009400120600E4A0021D1620D4A022111600121C9
:2008DC0008432060032108436862206038BD0948804738BD0040044018000021000093081E
:2008FC0080020021CF680000680000210011044080E200E0C33B00000749002800D0042078
:20091C00064A72B60978C90701D0105800E0802062B640B2704700006B02002158600440EE
:20093C0003B40148019001BDA56F000000000000010003000A001F005900EB003902EA049E
:20095C00F9099712EB1FA132784A0A66FA828C9E63B617C964D6EDDEC1E3E0E5FF000000B5
:20097C00002020202020202020202828282828202020202020202020202020202020202053
:20099C002088101010101010101010101010101010444444444444444444441010101010AB
:2009BC00101041414141414101010101010101010101010101010101010101011010101021
:2009DC001010424242424242020202020202020202020202020202020202020210101010E7
:2009FC002000000000000000000000000000000000000000000000000000000000000000BB
:200A1C000000000000000000000000000000000000000000000000000000000000000000BA
:200A3C0000000000000000000000000000000000000000000000000000000000000000009A
:200A5C0000000000000000000000000000000000000000000000000000000000000000007A
:200A7C0000002800157B0000296A000039930000F9440000295A0000DD5000008B250000A6
:200A9C00000000000100000000000000020000000100000003000000100000002000000003
:200ABC00018000C0018000D50180000C0180005D018000CC018000DD8F3F00008F3F0100D0
:200ADC008F3F02008F3F0300903F00018F3F0101903F0002903F00038F3F01048F3F000570
:200AFC008F1208048F3F00048F3F0006513F00007F3F01003F3F04003F3F02003F3F0100B7
:200B1C007F3F02007B756E6B6E6F776E2D696E7374616E63652D6E616D657D007B656D70E4
:200B3C0074792D696E7374616E63652D6E616D657D00C0467B7374617469632D696E7374EB
:200B5C00616E63652D6E616D657D00C0024000800300C0801408C0800940008008400080E5
:200B7C000A400080070880800D2007C00E2007C01400C08009400080084000800A400080E8
:200B9C001E08C08001200080FE000000000000002000000040000000600000000000000074
:200BBC000800000000000000060000000200000086000000820000000000000008000000F9
:200BDC001000000018000000200000000000004017FF00000000000004000000080000004F
:200BFC001000000009080AFF0080004018FF000000000000050000000000010000000200D0
:200C1C00FFFFFFFF7BC80110C5BC0110D9B2011033C20110BDAD0110C1B10110FD8C0000AD
:200C3C006DBA011065BB01101DC0011089920000616F0000217C0000C5900000513F0000D4
:200C5C00295D000069940000A1710000094C00006F940000416B0000800A000020270020EE
:200C7C00E80B0000800A0000FC270020040C00000000000000000000000000000000000088
:200C9C00FFFFFFFFFFFFFFFF00000000000000000101010100C20100030000000000000076
:200CBC00F1670000D17500005D94000001940000014E0000ED5A000000000000010000005D
:200CDC0000000000FFFFFFFF000000000000000040420F0008000000000000000000000063
:200CFC00BC0C00000C2B00202C0D00000000000000000000000000004C0C0000F8290020E7
:200D1C00440D0000000000000000000000000000002000400700000011000000FF000000EF
:200D3C000000000005040000001000400600000015000000FF000000000000000302FFFF21
:200D5C00010000000000000000000000000000000100000000000000000000006D5C0000AC
:200D7C005973000001010100C4300020B80D000000000000000000000000000000000000AF
:200D9C00000000000000000041B5011095A6011015B80110FF0000000000000000000240C5
:200DBC000A29FF00C0DBDCDBDD00000000001C00000000000A00000050340020AD900000AF
:040DDC00E1400000F2
:201000003C000000000000000000000034100000000000000000000001000000000000004F
:1C10200000000000000000000000000001000000000000000800000000000000AB
:20103C003400000000000000000000006810000000000000000000000100000000000000E7
:14105C00010000000000000000000000080000000000000077
:2010700030000000000000000000000098100000040000000000000001000000FFFFFFFF87
:10109000FF00000001000000080000000000000048
:2010A0002C0000000000000000000000C4100000040000000000000001000000FFFFFFFF2F
:0C10C000FFFFFFFF080000000000000020
:2010CC0038140000E410000095A1011091A70110A1C2011009B2011041B80110A5BC011078
:0810EC0085BC01103400000076
:2010F400280000000000000000000000141100000000000000000000FFFFFFFF0000000093
:081114000800000000000000CB
:20111C00341400003011000065C2011069C101101BC2011091BA011005BC0110E5BB0110EA
:04113C00320000007D
:20114000341400005411000071C20110A5B6011099BF011045B60110B5BA011025BC01104B
:041160003300000058
:201164002400000000000000000000008011000000000000000000000000000008000000AE
:041184000000000067
:20118800240000000000000000000000A41100000000000000000000000000000800000066
:0411A8000000000043
:2011AC00240000000000000000000000C8110000000000000100000000000000080000001D
:0411CC00000000001F
:2011D00000000000D033002004000000000000000000000020000000701000003000000008
:2011F0001C110000043400200400000000000000000000000C0000003013000018000000EF
:2012100040110000103400200400000000000000000000002400000048130000180000006E
:20123000000000001834002004000000000000000000000010000000A01000002C00000042
:20125000CC1000002834002004000000000000000000000020000000641100002400000069
:20127000FFFFFFFF48340020040000000000000000000000280000008811000024000000DD
:20129000FFFFFFFF78340020040000000000000000000000580000003C100000340000009A
:2012B000FFFFFFFF80340020040000000000000000000000100000006013000018000000AF
:2012D000FFFFFFFF883400200400000000000000000000001C000000AC1100002400000025
:2012F000FFFFFFFF9034002004000000000000000000000038000000F41000002800000096
:20131000FFFFFFFF9834002004000000000000000000000054000000001000003C00000031
:1813300018000000000000000000000040130000080000000000000032
:1813480018000000000000000000000058130000080000000000000002
:18136000180000000000000000000000701300000800000000000000D2
:0813780001000000D80D000087
:041384000100000064
:0413880000000E0053
:04138C0000000F004E
:041390003200000027
:041394000100000054
:04139800D833002026
:04139C00000200004B
:0413A0000000000049
:0413A400FDC901106E
:0413A8000000000041
:0413AC00000000003D
:0413B0000800000031
:0413B4000000230012
:0413B800A83A00202F
:0413BC00010000002C
:0413C00030340020A5
:0413C400080000001D
:0413C8000000000021
:0413CC00000000001D
:0413D0000000000019
:0413D400080000000D
:0413D8000000000011
:0413DC00000000000D
:0413E0000100000008
:0413E400103B00209A
:0413E80006000000FB
:0413EC0001000000FC
:0413F000D0390020D0
:0413F40000000000F5
:0413F80000000000F1
:0413FC0000020000EB
:0414000000000000E8
:021406002B00B9
:021408000100E1
:02140A002500BB
:02140C003200AC
:02140E003300A9
:021410003400A6
:021412000100D7
:0114140001D6
:0814180003000000A40D000018
:081420000000000000000000C4
:0414280000000100BF
:04142C0000000300B9
:0414300083C4011060
:041434003C14000064
:041438003C14000060
:04143C0000000000AC
:041440009000000018
:041444009000000014
:0414480000000000A0
:04144C003034002018
:041450009B9200006B
:041454002000000074
:041458005C0D000027
:04145C00200C000060
:0414600009C30110AB
:04146400CF75000040
:04146800C77B00003E
:04146C0095C801100E
:0414700097C8011008
:041474000000000074
:041478007D0A0000E9
:04147C00380B000029
:04148000500B00000D
:04148400200B000039
:0214880008005A
:02148A00090057
:02148C0001005D
:02148E0000005C
:01149000015A
:041494000000000054
:041498000000000050
:04149C00000000004C
:0414A0000000000048
:0414A400959400001B
:0414A800D1850000EA
:0414AC001D8C000093
:0414B000618900004E
:0414B4007D87000030
:0414B8009189000016
:0414BC006177000054
:0414C0005593000040
:0414C400B97A0000F1
:0414C800318E000061
:0414CC00F593000094
:0414D0000800000010
:0414D40024000000F0
:0414D80018000000F8
:0414DC0028000000E4
:0414E00020000000E8
:0414E4003C000000C8
:0414E8000C000000F4
:0414EC0034000000C8
:2014F0002DE9F843089C582B804617460CBFA7A5ABA5002908BFB8F1000F05D12068411E75
:201510002160302707702AE04FEAE7793E460246083E13D0083E0DD0002908BFB2F1FF3FE0
:2015300004D94B463A4601F0E1FE0BE0B2FBF7F0002107E008071209090902E04807D2080F
:20155000C9081043226800FB1783561E0029EB5C26608046137008BFB8F1000FD6D12068D7
:2015700007F076FE401EBDE8F883F8B50546A8688C461446002804D4286820F01000286006
:2015900001E00120A8602F7BB7F1580007D0173807D0401E03D0083818BF0A2202D1102211
:2015B00000E00822702F73D02E680020002106F4EC66203E4CD0203E3DD0C03E25D0B6F589
:2015D00080760CD0583F64D00C3F57D07F1F55D0BF1F5ED0BF1F5CD0FF1E62D159E0583FF3
:2015F0000AD00C3F4AD07F1F48D0BF1F04D0BF1F18BFB7F1030754D11868C01C20F0030039
:20161000001D186010F8040C4BE0583F0AD00C3F08D07F1F06D0BF1F04D0BF1F18BFB7F1CB
:2016300003073ED11868C01D20F0070008301860083803C835E0583F2BD00C3F1ED07F1FD4
:201650001CD0BF1F25D0BF1F23D0FF1E29D120E0583F0AD00C3F11D07F1F0FD0BF1F04D007
:20167000BF1F18BFB7F103071BD11868C01C20F00300001D186030F8040C12E01868C01C7D
:2016900020F00300001D186050F8040CC11708E000211868C01C20F00300001D186050F80D
:2016B000040CAB68DE1741EA0607002F40EA030308BF002B02D12B681B093DD32B7B642BAA
:2016D00018BF692B09D1002907DA012700234042CCF8007063EB01012B7B0094FFF700FF2B
:2016F000302103E02268531E23601170AA68401C8242F7DA287B782803D0582818BF70289F
:201710000ED12A6812090BD3702808BF78202268531E236010702068421E22600170287BDC
:201730006F2809D12868000906D320684278302A02D0421E22600170F8BD7CB5054614466A
:201750000E46002DD8BF684264230A22C1170094FFF7C6FE702E0BD0502E09D00A2D09DAF4
:2017700015F10A0F04DD2068411E216030230370002D01D42B2100E02D212068421E226045
:2017900001702068411E216006707CBD3031323334353637383941424344454600C046C049
:2017B0003031323334353637383961626364656600C0F8B51D4617460E46044607F048FDB0
:2017D000324603460021002A284603DD9342A4BF1119491E27B105686E1E06602E272F70AB
:2017F000934208DAD71A30251A4603685E1E06607F1E1D70F9D1002A0CDD8C420FD80F1B49
:201810007F1C026811F80139541E04607F1E1370F7D1F8BD01684A1E026030270F70F8BD3F
:201830002DE9F04F8246ADF16C0D884690681A920028199302D004D5062000E001201146F5
:2018500088603021C7A68DF8001096E80C00471C5046414605F03CFA38BF88F0004800242D
:2018700012E03020087059E099E80C0003F042FA641E8846824611E099E80C00504602F08B
:20189000D7FE641C88468246BAA20CCA414605F062FA0FF2D829EFD34FF0000B96E80C00AB
:2018B000504605F015FA09D0B4A20CCA504605F00FFA5D4638BF0125002DD5D1504606F0C6
:2018D000EFFB05460DF1010106F0CEF900EB0D060419874206F1010619DD3F1A284607F070
:2018F0007EF80B4602464146504602F0B3F899E80C0003F0FFF98846824606F0D1FB0546F4
:2019100005F130007F1E06F8010BE7D101E06F447E1C16F8010D35280ADB314611F8010D18
:20193000401CC2B23A2A08709BDA6D468D4204D058460DF10105307002E0641C06F801BCC1
:2019500014F1030F08DB1A988068A04213DA022CA4BF641EA34405DA002C04DCC4F1010475
:20197000ABEB040B01241A98199A007B801EC1B25846FFF7E2FE284607F06AFC0027401ED8
:20199000844217DC021B521C002803D4295C302901D005E030211FB91A9B1B681B0905D303
:2019B000199F3B685E1E3E6001271970521EA0F10100E9D11A980068002200F00800384386
:2019D00018BF0122199B21462846FFF7F2FE1BB0BDE8F08F2DE9FE4F0D99441C994692467F
:2019F00001900FF2801B02940C9F009130210170194610469BE80C0005F06AF938BF89F00A
:201A10000049002512E03020087053E098E80C0003F070F96D1E8946824610E098E80C00D5
:201A3000504602F005FE6D1C8946824651A20CCA494605F090F90FF23418EFD37F1C9BE8E8
:201A50000C00504605F044F90AD04CA20CCA504605F03EF94FF0000638BF0126002ED5D10B
:201A7000504606F01DFB0646214606F0FDF8041941190098EF19016017DD304606F0AFFF8E
:201A90000B4602464946504601F0E4FF98E80C0003F030F98946824606F002FB064606F12F
:201AB00030007F1E04F8010BE7D114F8010D352810DB214611F8010D401CC2B23A2A0870FD
:201AD000A1DA0198884205D10099019A08680292401C0860002102982170BDE8FE8F2DE9B2
:201AF000F0431646B5681C46ADF5FE7D0246ADF1100D002D44BF0625B560D4F8009002A832
:201B100000950B46019003A8FFF764FF029FB568804607F09DFBE9196A1EA1F1010110D425
:201B3000521C002904D48842C8BF18F8015000DC302523685F1E521E2760A1F101011D7023
:201B5000EFD120680122484503D13068000938BF0022029940462346FFF72BFE7FB004B063
:201B7000BDE8F083000000000000000000000000000024400000C0FFFFFFDF4100000000FC
:201B90000000F03F2DE9F0471646B468994688460746ADF1700D002C44BF0624B4600FF2BE
:201BB000702A9AE80C0005F0D6F84FF000050DD90FF2443A9AE80C00384605F089F805D921
:201BD000CFA20CCA05F084F812D11FE09AE880010EE09AE80C00384602F02AFD6D1C07466F
:201BF0000FE09AE80C0003F085F86D1E88460746C5A20CCA4146384605F06AF80FF2103A5E
:201C1000EFD39AE80C0005F0A6F8E2D9009402A80B463A46019003A8FFF7DCFE0446029817
:201C3000022809D1401E0290204607F011FB6D1C0021201800F8011C317B28464A46FFF7A0
:201C50007CFD029FB568204607F002FBE9196A1EA1F1010111D4521C002903D48842C8BF21
:201C7000655C00DC3025D9F800305F1E521EC9F80070A1F101011D70EED1204607F0E8FA24
:201C900002990122884203D13068000938BF002220464B46FFF78DFD1CB0BDE8F0872DE9A9
:201CB000F04F0746ADF1840D1E4600201E9258A4019094E80C00384605F04DF888460FF289
:201CD00040290CD98CA494E80C00384605F000F805D999E80C0004F0FBFF02D109E094E8F2
:201CF00080014146384601AA07F048F80198401E01901E988568007BB5F1FF3F4FF000049F
:201D10001B9008BF01241B9A834B84482093A2461F90412A18BF181C1C9030208DF8080084
:201D300099E80C004146384604F0D2FF38BF88F0004899E80C00414604F0CAFF0CD038465A
:201D50006A4607F01BF8009A41463846C2F1010206F0EEF988460746384606F0A1F9834695
:201D70000DF1090105F080FF0446584606F037FE0B4602464146384601F06CFE0FF20C3B83
:201D900004EB0D021D940746BAF1000F02F1090458D16D1C15D09BE80C0002F0ABFF0F4666
:201DB000804606F07DF91C99095C04F8011B06F016FE0B4602463946404601F04BFE6D1E42
:201DD000E9D11B98641E224641280CBF1F9D209D1178284607F0FDF9401B082837DB274601
:201DF0004FF000081B987F1E41280CBF1F9D209D3978284607F0EDF9401B401C1028B4BF31
:201E1000295C30211028397021DB87F80080E9E7000000000000F07F9BE80C00384602F0C2
:201E300069FF0D46074606F03BF91C99095C04F8011B06F0D4FD0B4602462946384601F0F0
:201E500009FE074699E80C0004F042FFE4D11E980025007B2570412814BF702150210198E5
:201E70003246FFF76AFC1E988468B4F1FF3F06D10DF1090007F0ECF9441E1E9884600DF145
:201E9000090007F0E5F91D99002C2144A1F1010110DD002905D48842C4BF01EB0D02527A76
:201EB00000DC302233685F1E641E3760A1F101011A70EED11E99086889682A4600F0080056
:201ED00001430DF1090018BF01221D993346FFF770FC1E98007B412814BF78215821306805
:201EF000421E3260017030683027411E316021B00770BDE8F08FC046000000000000F0FF2F
:201F10000000000000000000000000000000F03F0000000000002440B01700009C170000A4
:201F30002DE9F8430D460646317B14460F460846613F192F98BF20380027884208BF012781
:201F50001868C01D20F0070008301860A0F1080191E80003083803C806F0DEFD022879D0E8
:201F70004946404606F0D8FDC0A201283AD00CCA4946404604F0ACFE03D2012089F000499B
:201F90002860307B413825D0001F1BD0401E11D0401E07D01A381DD0001F13D0401E09D09A
:201FB000401E71D14946404632462346FFF738FCBDE8F8834946404632462346FFF78FFDB9
:201FD000BDE8F8834946404632462346FFF7DAFDBDE8F8834946404632462346FFF75FFEA5
:201FF000BDE8F8830CCA4946404604F071FE16D3002F14BF462166212068421E2260002FF1
:20201000017014BF4E216E212068421E2260002F017014BF4920692003222B2115E0002F0A
:2020300014BF462166212068421E2260002F017014BF4E216E212068421E2260002F0170EA
:2020500014BF4920692004222D2123685E1E2660187014E0002F14BF4E216E212068421E46
:202070002260002F017014BF412161212068421E2260002F017014BF4E216E2102222068F0
:20209000431E236001702A60BDE8F88300000000000030402DE9FF479046044600220D46D0
:2020B00004F2FD1792460192202102976E68CDF800A04FF4FF7204F011FF029880F800A01C
:2020D0002A7BD146A6194346C84604F5FE70642A029010DC642A21D0B2F1250119D01C39E5
:2020F00022D0091F02291FD9133917D009391BD0891E1FD034E0A2F16500022814D9001F5B
:202110000CD0801F012809D9801F07D0C01E05D026E055A0018801202180A2E0284601A920
:2021300002AAFFF722FA1AE02846694602AAFFF7F7FE14E01968C91C21F00301091D196015
:2021500011F8043C494603B90121A0F1010C03702A68CDF808C0884622F002022A602A7B76
:20217000752A28D06F2A26D0782A24D0582A22D0702A20D0009B1BB15B1E1CD10120019016
:20219000019B286800F002091BB9800806D32B2000E02D2002994A1E02920870019850B9AA
:2021B000B9F1000F07D12868C00804D30298411E0291202303702868400808D202986968F0
:2021D0003A1A914203DBC01B37187F1C00E027460299384652464FF4FF73491C06F0CBFE4E
:2021F000B8F1000F029003D0411C029180F800A00298864207D3321A2021401E521C04F021
:202210006DFE86F800A02868400921D3BC4224D03A1B2046302104F061FE287B78280FD0E5
:2022300058280DD070280BD0019859EA000002D12868C00811D33878207030263E700CE0A3
:202250002868000909D37878607030267E7004E03A1B2046202104F041FE204606F0F8FF8F
:2022700040440090BDE8FF872500C04600000000000000002DE9F04F0546ADF5FE7DADF189
:20229000300D0091949889902C6828689846164606F0DEFF014620468A96611800248142BD
:2022B000889140F26581A346CDF804B08DF810B0CDF808B04FF0FF3103910778252F08BF1C
:2022D0005B460ED0002F00F053812968491C296000788A99C04728680778641C252FF1D1B6
:2022F000019B29680098491C296011E043F010030AE043F0010307E043F0020304E043F08D
:20231000080301E043F0040301932968491C296029680A78B2F12001F4D0C91EEFD00839F2
:20233000EAD0891EE5D0C91EE0D02A2A1ED085A859460A2204F0D2FD2868017830290BDB9B
:2023500085AA3A2908DA0146401C2860097802F8011B01783029F4DA9DF8140218B185A8F6
:2023700005F078FD02900098296810E0C01C20F00300001D50F8041C0090002903D543F000
:2023900001030193494202912968491C29600A782E2A33D12968491C296009782A2921D0D6
:2023B00085A859460A2204F099FD2868017830290BDB85AA3A2908DA0146401C2860097823
:2023D00002F8011B01783029F4DA9DF81402002808BF584602D085A805F03CFD02462968F9
:2023F000009809E02968C01C20F00300001D491C009050F8042C296003920A78019F4C3A7C
:202410001FD01C3A11D0121F21D12968491C29600A786C2A03D047F04007019717E029685B
:2024300047F48077491C2960F7E72968491C29600A78682A18BF47F02007EED147F4007755
:2024500001E047F0800701972968491C29602A68521C2A6009786E298DF8101054D09DF8B6
:202470001010732944D1039EC01C20F00300001D009050F804ACBAF1000F35D0DDF808901A
:20249000002E06D4504606F0E3FEB04288BF301C02D8504606F0DCFE06464E45A8BF8146E5
:2024B0004C44B14509DD780807D2B9EB060704DD8A992020C0477F1EFAD1002E06DD374655
:2024D0001AF8010B8A99C0477F1EF9D10198B14549DD400847D3B9EB060744DD8A992020F1
:2024F000C0477F1EFAD13EE08A995846C0473AE005A801A96A46FFF7CDFD899B8A99024607
:2025100005A8984704192EE007F4EC67203F22D0E03F14D0B7F5807708D0C01C20F00300E8
:20253000001D009050F8040C04601CE0C01C20F00300001D009050F8040C047013E0C01CEF
:2025500020F00300001D009050F8040C2146E21780E8060007E0C01C20F00300001D009002
:2025700050F8040C04802868889981423FF69CAE7FB020460CB0BDE8F08F70472DE9F04FFB
:2025900009AFADF13C0D00900292388801911E46ADF83400101C08BF002000F082810027AC
:2025B0004FF0010B00F10109B846DA466BE1252940F062811078521C02922D2818BFADF89F
:2025D000228004D11078ADF822B0521C029230281CBF4246434605D1114608785B465A4641
:2025F000491C02912A284FF0FF3516D128460B93346809900299CDF81C80E01C4B1C20F077
:202610000300001D306050F8044C08780293002C44BFADF822A0644212E0444609E061004B
:2026300001EBC40140180299A0F130040878491C0291302801DB3A28F1DB0B9329460991A0
:202650002E282BD10299087843462A2801F10101029111D1099330680794C01C20F00300FB
:20267000001D306050F8045C002D48BF454608780995491C029112E045460AE0690001EB64
:20269000C50140180299A0F1300508782B46491C0291302801DB3A28F0DB099307940AB16F
:2026B00022460B926C2804D04C2818BFADF8208005D102990878ADF820A0491C029103A913
:2026D000CDF8288007AB0E9164280C9300F08B80692800F08880BDF834C0752872D0782855
:2026F0006ED06F286AD0702850D063283DD073281ED0019802990128A1F10101029115D970
:202710006B490C68B5F1FF3F03D0A84288BF6D1C00D8019D0995684602A9324607ABA04792
:20273000C71902990A9801F1010974E040462AE030680299C01C20F00300001D306050F875
:20275000040CBCF1000F01F10109014608B956A001460E9106F07CFD0A90B5F1FF3F5BD0A5
:20277000A842C4BF281C0A9056E03068C01C20F00300001D306010F8040C5D468DF80C0048
:2027900002990A95584601F1010945E0082035680B90E81C20F00300001D306050F8041CA4
:2027B0000822102307A804F02BFD401E0E904021017002990E9801F1010929E0082302E0C0
:2027D000102300E00A230299306801F10109C01C20F00300001D306050F8041CAA42BCBF0F
:2027F0002A1C0B9210E00299306801F10109C01C20F00300001D306050F8041CAA42BCBF5C
:202810002A1C0B926FF0090307A804F0F9FC0E900C9D281A0A90079CBDF82250241A65B979
:2028300006E06846202101AA06F08BF9079C7F1C641E0794F5D50A9800E007940546401EA3
:202850000A9075B9BDF82200E8B10798401E079019D46846202101AA06F073F907987F1C79
:20287000F4E70E98411C0E91017801AA684606F068F90A987F1CE1E7684601AA06F061F9F4
:202890007F1C09F101094A46029812F8011C401C002902907FF48BAE009808B1414601702C
:2028B00038460FB0BDE8F08F286E756C6C2900C0DC0D0000002810B50BD40A2809DABB4B0B
:2028D000C40018591B1920B1186884695868A04710BD4FF0FF3010BD70B50646307870B158
:2028F000B24C502578342046314606F02BFC002808BF201C04D0283D2834282DF3D20020B5
:2029100070BDBFB5044620683A2106F062FC071C14D02168781A7D1A0828C8BF082568463A
:202930002A4605F0CDFF002005F80D006846FFF7D3FF00281CBF7F1C276001D19B4850305C
:202950000090BFBD9A491CB50968009088476846FFF7D7FF006A014600988847044695481E
:202970000068804720461CBD3EB5914A009112680190904701A8FFF7C4FF05466846FFF747
:20299000C0FF8C4CA84204D0206880474FF0FF303EBD686A02460099019890470546206824
:2029B000804728463EBD10B504468148006880472046FFF791FF7F49096820B10024047042
:2029D0008847204610BD88474FF0FF3010BD002810B50BD40A2809DA744BC40018591B19D2
:2029F00020B1186844695868A04710BD4FF0FF3010BD2DE9F8436E4E894631680090884746
:202A10006D4847684FB9012300F120010727002243607F1E41F8082BFBD100F1080500F14D
:202A30002004583000E00834DFF88881A04205D021680029F7D13168A04206D14146086864
:202A500080474FF0FF30BDE8F88388476846FFF758FF06467089641BE410400807D2F06816
:202A700003460098494622469847074601E04FF0FF3741460868002F48BF3C1C09D4E200A8
:202A90007189AE50AD186F608A083CBF41F0010171818047D8F8000080472046BDE8F88304
:202AB000002810B50BD40A2809DA404BC40018591B1920B11868C4695868A04710BD4FF000
:202AD000FF3010BD70B5051C0CD40A2D0ADA384800688047E900354C364D6058641820B900
:202AF000286880474FF0FF3070BD206800690146606888470646B6F1FF3F07D02168002351
:202B10004FF6FE704A8923601040488128688047304670BD2DE9F0478246254800689946C0
:202B300090460F468047244C266856B9012304F18001002250202360283801F8282B2828DB
:202B5000FAD21C4E35685046FFF7C6FE18B1A8470120BDE8F0871948803400E02834A0421A
:202B700004D021780029F9D1A04204D1A8474FF0FF30BDE8F08720465146082205F0A0FEFB
:202B9000002525726781C4F80C80C4F81090089860610998A0610A98E0610B9820620C992D
:202BB0003068616280472846BDE8F087B0340020743B0020783B0020A834002078350020EA
:202BD00070B50446B048006815460E4680472B463246B3F5807F88BF4FF48073AB4D201269
:202BF00068702C701E0AAB702946EE70F32004F07FFC0021284604F094FCA5486E782C7835
:202C10000068804704EB062420B270BD38B505469D4800688047284606F01AFB9B4C431C52
:202C30002A46F520214604F063FC0021204604F078FC9748657800682478804704EB0524B7
:202C500020B238BD9048F8B5006880478F4D0022F8201346294604F04BFC0021284604F04D
:202C700060FC8B48AF782C78EE7800686D78804704EB074000EB066000EB0520F8BD70B55F
:202C90000446814800680D46ADF1680D80476846214606F0A9FA204606F0DAFA461C2946CD
:202CB00006EB0D0006F0A0FA284606F0D1FA774C80196A46401C21460346F72004F018FC10
:202CD0000021204604F02DFC7148657800682478804704EB052420B21AB070BDF8B5044607
:202CF0006948006816460D468047B6F5807F88BF4FF48076654F00222012787013463C7016
:202D10003946BE70F220340AFC7004F0F1FB2946384604F006FC5E487D783C7800688047F9
:202D300004EB052420B2F8BDF8B506465648006814460F468047554D211269703846A8702B
:202D50002C70010A3046E97006F082FA431C32462946F02004F0CCFB0021284604F0E1FB0B
:202D70004B486E7800682D78804705EB062528B2002848BF041C2046F8BDF8B50746424813
:202D9000006816460C468047404D3846002228700012AC701346AE7129466870200AE87012
:202DB000200C2871200E68713012E871F42004F09FFB0021284604F0B4FB3548EF78AE78BE
:202DD0002C7800686D78804704EB076000EB064000EB0520F8BD70B504462B4800680D4642
:202DF0008047204606F034FA284E431C2246F620314604F07DFB2946304604F092FB24486A
:202E100000688047284606F023FA002814BF281C002070BD38B505461B48006880471B4C35
:202E3000002228121346607021462570F12004F05FFB0021204604F074FB15486578006816
:202E50002478804704EB052420B238BD0E48F8B5006880470D4D0022F9201346294604F09D
:202E700047FB0021284604F05CFB0948AF782C78EE7800686D78804704EB074000EB066009
:202E900000EB0520F8BDC046743B002080310020783B00202DE9F84F82468548DFF8049285
:202EB00035380068800880F0EE8005F05FFE064683480830D0F8008000254FEA2874641C64
:202ED0005FEA98500AD2C6F13E0016F10A0F4FEAE000D8BF08208442B8BF041C6E485FEA8C
:202EF00098610FD25FEA58610CD38346DBF80000C0F3042006F00AFA0746DBF80000C0F3C7
:202F100004600CE083465BF8D00CC0F3046006F0FDF90746ABF513700068C0F3044006F091
:202F3000F5F9E7198346162F05DA17F10A0FB8BF6FF0090700E01527584A594807F01F0129
:202F500041F4F8511180006810F0030F18BF0125C00828BF45F00205BAF1000F18BF45F02A
:202F70000405494691F90700301A052804DA8879A84208BF888865D0DFF82CC10F2EA6F134
:202F90000F0E26DB0EEB0610A0F1F00E4FEA2E20072888BF07200446062C88BF06245CF800
:202FB00024900422634602EB84029A58EC08A2EB090202F0FF0324BFC2F307242344AC08BB
:202FD00024BFC2F3074423446C0828BF03EB126301E0002318465CF820C0EC080CF0FF0252
:202FF00024BFCCF307242244AC0824BFCCF3074422446C0828BF02EB1C629BB2AEEB0024B7
:203010006343BBEB070003F1800302EB1322D8BF012008F0FF07342343437B43B3FBF2F0D3
:203030004FF6FF72824238BF101C802E80B2888005DA16F1800FB8BF6FF07F0600E07F26A6
:20305000CE718D71194A12681F280A604FF0000208D340F2FF11814206D24008521C814223
:20307000FBD301E01F208880124F11490F38000942EAC00247EA0200C1F8FB0F0026C1F87C
:20309000FF6FBDE8F88F0D4F0B4E494608203760891D0870BDE8F88F881300506E62084036
:2030B00024220840703100209C130050082009403500094000E7A48030100940FDFDA40091
:2030D000AC3F00502DE9F04F0128ADF1140D40F0F280DFF81492D9F8DC00012840F0E980DA
:2030F0000220C9F8DC0006F0A9FA0290012004F0B3FF20B101210646C9F8DC10D5E006F078
:2031100099FA03906E484FF00008C0F80080012005F0AAFC012818BFCDF8008004D14046E8
:2031300004F0CEFD0120009066486E4CC0F800801934D4F8FF0F112006F024F900280CBF11
:2031500046460126102006F01DF908B146F002060F2006F017F908B146F004060B2006F02A
:2031700011F930B1584800685849006B0246088890470A2006F006F90028404618BF0120CC
:203190004FF0805B0BF5DC7528B128685049006B0246088890474F480127076028688069F9
:2031B000014646F0200088474B48076006F0E4F800F001010191400815D2484806F0ADF8E9
:2031D0008246BAF1040FF8D0BAF1010F06D1DBF8D8014068024641480321904740490868E6
:2031F00020F0030008604046FFF754FE2868D4F8FF1F806B8047019801280ED0BAF1010FEF
:2032100006D1DBF8D801406802463448394690473349086840F0030008602A480760286869
:2032300040690146304688470B2006F0ABF828B128682649C06A0246088890470A2006F0B4
:20325000A1F828B128682249C06A024608889047204807600322C9F8DC201F4BC3F80080C2
:203270002868406B0146304688470128F8D1042004F0F2FE124807601A48D4F8FF1F016807
:203290008909FCD30098012802D1384604F018FD06F065F8082004F0DFFE06460398C9F8AE
:2032B000DC7006F0C3F904F075FB029806F0BAF902E0042600E00126304605B0BDE8F08FF7
:2032D0000C40094000022243B8010010020B0000FE0A000028200860800104430040034009
:2032F0002422084014100940C83100202DE9F0411C4615468C4208BF854282BF00230022C4
:20331000E5E0002C08BF002D0AD100290EBF00286FF000006FF0000100F0E1F8BDE8F08121
:203330005FF000085FF0000E002C08BF8D429CBF2C1C0025070C47EA01470E0CB44208BFDC
:20335000BD429EBF5FEA044444EA15445FEA0545070A47EA01670E0AB44208BFBD429EBF7B
:203370005FEA042444EA15645FEA0525470847EAC1774E08B44208BFBD4200F29380870854
:2033900047EA81778E08B44208BFBD427CD8C70847EA4177CE08B44208BFBD4266D80709B6
:2033B00047EA01770E09B44208BFBD4250D8470947EAC1674E09B44208BFBD423AD88709FB
:2033D00047EA81678E09B44208BFBD4224D8C70947EA4167CE09B44208BFBD420DD8E6016D
:2033F00046EA5566EF01B14208BFB84201D3C01BB14158EB08085EEB0E0EA60146EA956603
:203410004FEA8517B14208BFB84201D3C01BB14158EB08084EEB0E0E660146EAD5666F0188
:20343000B14208BFB84201D3C01BB14158EB08084EEB0E0E260146EA15762F01B14208BFB3
:20345000B84201D3C01BB14158EB08085EEB0E0EE60046EA5576EF00B14208BFB84201D3B1
:20347000C01BB14158EB08084EEB0E0EA60046EA9576AF00B14208BFB84201D3C01BB141E2
:2034900058EB08084EEB0E0E660046EAD5766F00B14208BFB84201D3C01BB14158EB08087C
:2034B0005EEB0E0EA14208BFA84201D3401BA14158EB08085EEB0E0EA34208BFAA423EBFA5
:2034D0002D0A45EA0465240A89D3734642461E4617460B46024631463846BDE8F081704726
:2034F0002DE9F843814605F034FF002100B90121724E30680028FCD0734D01242D1DEF6AAC
:20351000346009B105F02BFFDFF8B481C7F3072008F1BC01086005F01CFF002100B92146D2
:2035300030680028FCD02F68346009B105F017FFC7F38440C8F8C00005F00BFF014600209B
:2035500001B92046014630680028FCD0ED69346009B105F004FFC5F38120C8F8D000B9F535
:20357000C061C8F8B81000F0A48098F8D80068B9C8F8D410D8F8C000C8F8C800D8F8BC703D
:20359000C8F8C470D8F8D060C8F8CC60D8F8D410D8F8BC60002954BF02206FF00100454652
:2035B00005F1C8031A6801EB41014018411000EB917002EBA0021A60D5F8C810C5F8C46066
:2035D00000291CDD1E293DDDD5F8CC0030B93429B4BF15391E21C5F8C81025E02A29BABF13
:2035F000D5F8C8000B381E20C5F8C800D5F8C4003F28B4BF401C3F20C5F8C4001FE0D5F8AD
:20361000CC00032812D011F10B0FC6BFD5F8C8000B30201CC5F8C800D5F8C4000028CCBF4B
:20363000401E0020C5F8C400032009E011F1150FC6BFD5F8C8001530201CC5F8C800002009
:20365000C5F8CC004FF08058D8F8A401B5F8C4101C4E40684FF47F4208230746009130462F
:203670003021B847D8F8A401406804214FF400321123074600943046B847D8F8A401B5F887
:20369000C81040684FF4F80212230446009130460421A047D8F8A401B5F8CC1040684FF4E2
:2036B00040620A230446009120213046A047BDE8F883002088F8D800BDE8F88300800C402E
:2036D000C831002000A00C4000A00C402DE9F04FADF1840D209001F0DFF804F051FC002488
:2036F000012804D105F06EFC022808BF012459490868C0F38150012805D151F80C1C012020
:20371000090E884004435448007805F0A7FADFF84C81DFF84CA1C8F8000030B15246FF2108
:2037300007467F1E02F8011BFBD120990968002501F0FF02FE2A1BD0DDF880C052462B463B
:20375000012701F0FF06FF2E0BD0B04203D907FA06F6344201D0022079E001F0FF0135433D
:2037700053545CF8041F5B1C01F0FF06FE2EEAD1092001F0BBFF3B492098242208230860DE
:2037900001A8002105F04AFF4FF0010901AA3E488DF81C90494605F03DFFD8F800303BB3B8
:2037B0003A4E00274FF0040BBA4609FA07F0044218D1054204BF07F0FF0141F4C04104D0C8
:2037D00027482099C05D51F82010274802F060FBF8B24FF0FF3105F06DFBD8F80030C6F82B
:2037F00000A001E0C6F800B07F1C361D9F42DCD30AA800213022082305F008FF1B4D1D4A31
:203810002878002410210AAB12901948009405F0F9FE16A828220823214605F0EFFE68681F
:2038300016AA16491C9014481D94234605F0E2FE134A52F80D0C494620F4F85040F4005033
:2038500042F80D0C0F4BC2F8FF1F2046196021B0BDE8F08FB43F0050C431002088310020CE
:20387000843000209C310020007FC767B00D0000E4300020E18E0000503000202180000029
:203890000D3009400800094000310020542D0020F8B584460F1C5BD06848674908605578ED
:2038B000167885B1622D4FF0010003D09178622918BF00202B2D4FF0010406D091782B2938
:2038D00018BF002401E000200446002144B9722E08BF102205D0772E14BF612E202200D0ED
:2038F0000A46612E0CBF80230B1C1A43002814BF4FF480730B1C002C43EA020214BF4023FC
:203910000B1C13437B6108B14FF40041613E10D0113E02D0761F04D012E00CB141F0020115
:203930000EE0002C14BF02200120014341F4C06106E0002C14BF02200120014341F4027199
:2039500060464FF4DB72FFF754F80028386001D50020F8BD3846F8BD70B5394D284602F036
:203970007DFD384C206802280BDB012655F8181F002903D4284602F071FD2068761C864246
:20399000F4DB70BD70B505462F48006814460E468047204602F062FD284632462146FFF75D
:2039B00077FF0446294800688047204670BD2DE9F843804624480068894680472449204CAA
:2039D0000F6857B901224FF0FF33072704F148000A607F1E40F8183BFBD11A4A10680021F6
:2039F00000280BDD0546A4F1180353F8186FB6F1FF3F03D06D1E01F10101F6D10A290ED0CB
:203A1000CB00884203EB01131C4404BF401C106018220021204603F061FA214600E0002199
:203A300040464A46FFF734FF04460848006880472046BDE8F883C0467C3B00206939000069
:203A5000D8320020403B0020743B0020783B0020983B00202DE9FC4F83F0004301E02DE9EE
:203A7000FC4F1F03FF0847EAD2574FEA42284FEA43095FEA595906D147EA080A1CBF00212F
:203A90000020BDE8FC8F57F000575FF4E06E1EF1FF0EF14505D14FF00000190D0905BDE847
:203AB000FC8F002B05D55FF0000AD8F100086AEB07070C03E40844EAD0544FEA40254FEAB5
:203AD0004106760D08D144EA050A19BF00210020191C101CBDE8FC8F44F00054764504D134
:203AF0000020090D0905BDE8FC8F002904D55FF0000A6D426AEB0404B6EB090E08D5A2465E
:203B10003C465746AA464546D046CEF1000E4E46BEF1360F5CBF4FF0000B23E0BEF1000F6A
:203B300004BF4FF0000B1AE0CEF1390ABAF120092EBF08FA09FB07FA0AFB4BEA080BDEF188
:203B5000200A07FA0AFA38BFBA4647FA0EF72DBF28FA0EF8AEF1200E4AFA0EF8D04415EBAA
:203B700008057C4154EA050A02BF00210020BDE8FC8F002C58BF4FF0000A06D55FF0010A2B
:203B90005FF0000E6D426EEB0404A6F101066D006441FAD515F4806E11D005F480794BEA2A
:203BB000090B15F5806554F1000428BF761C0BD205F400795BEA090B08BF25F4006525F42A
:203BD000E0656D0044EB0404B61CDEBF00210020BDE8FC8F5FF4E06E1EF1FF0E76450AD3B7
:203BF0004FF0000013F00043FF21C900C91D09051943BDE8FC8F270547EA1530210B41EACE
:203C1000065141EACA71BDE8FC8F70472DE9FC41654C5E4D5E4EDFF88081624F94F8E4108C
:203C3000481E0B2866D8DFE800F0802C43062343062343067B69042907D001220A2945F89E
:203C5000212C14BF0220032004E02021012045F8211C024684F8E200002045F8390C0827B8
:203C7000C5F8FF7FC5F8F37F45F8392CBDE8FC81052914BF09200620002584F8E40035609C
:203C90007DE094F8E1700120383D002FC5F81B0004BF0620002102D00021F160032084F850
:203CB000E400032045F8010C31603068800866D294F8E4103748012503290FD0006840687A
:203CD000002160220523074600914046B84794F8E400062814BF0A200720CEE7006840681F
:203CF0000221602205230746009140460021B8470420C2E705F07AFCBDE8FC812749002673
:203D100027480E60012505600E2001F01BFC022004F076FD84F8E45084F8E360BDE8FC81DB
:203D3000002038600C25786027E04FF08056D6F8A00100680146202088472C3D0F2045F894
:203D5000010C41F61D53C5F80330D6F8A401406800214FF4C07202250723844640460095C8
:203D7000E047D6F8A401C06800214FF4C072072306464046B0470120386084F8E45004F18A
:203D9000780005F02FFCBDE8FC81C04639400C4038600C40A401001000A00C402C500C4041
:203DB00004800C4034600C40C8310020F0B5064600220C2104201346ADF14C0D05F00EFC77
:203DD0005B4900221346086004200C2105F006FC4A490860684605F079F94FF0FF300290F4
:203DF000019000248DF816408DF8154001258DF814404FF4E1308DF81740242206904048B6
:203E10008DF80150082303903E488DF800502146049009A805F002FC204609A98DF83C50DB
:203E3000024605F0D7FB384924220823086009A8214605F0F3FB204609A98DF83C5002469D
:203E500005F0C8FB3B4924220823086009A8214605F0E4FB09A9284622468DF83C5005F0C3
:203E7000B9FB354908603046694604F011FD33493C220823254D08602146284605F0A6FB27
:203E90000420A8614FF400762E62224F2F61204BEB6110A005F07CF81F4820492A46234622
:203EB00005F090FB1E4D21463C220823284605F08DFB0320A8612E622F611A4BEB610AA085
:203ED00005F066F81848194923462A4605F07AFB13B0F0BD75617274207478207461736B6F
:203EF00020696E69740A00C075617274207278207461736B20696E69740A00C0B4310020D8
:203F1000C5930000D1930000B8310020143000202025002040420F00102F0020316300007F
:203F3000D82F002020230020C02E002079540000BC310020C0310020B0310020A03B0020F2
:203F50002DE9F0438046D8F80460D8F808700C46ADF1340D05F032FB3178012903D105F0D7
:203F700029FB0020A3E04FF0010986F8009005F021FB207870706078B07060687060A068F2
:203F9000B060E068F06020693061207D3075607D7075A07DB075A069B061207F3077607FCA
:203FB00000257077A07F35623563102186F83C10B0772C4674627463B462B46386F82C403F
:203FD00086F82D4086F83D40786801F08FFB404601F05AFC404602F065FD78B935480068D3
:203FF000C068014638688847786801F0ABFA05F0E5FA347005F0DEFAA04657E001A82146EB
:204010003022082305F002FBCDF818803A7B09920095294AB96806F1680001AB05F0F2FA5F
:2040300001A828220823214605F0E8FA396907912249CDF8148006F1840001AA234605F092
:20405000D9FA01A824220823214605F0E7FAB0788DF81C9038B906F1B800214601AA05F026
:20407000D9FA17483061707838B906F1D400214601AA05F0CFFA1348F06001A821462422F8
:20409000082305F093FA0694ADF8144006F1F0000D49CDF81C800A2201AB05F083FA0B4A93
:2040B00006F154000421434604F074FD40460DB0BDE8F083D0010010C9510000197E0000A5
:2040D000559400004D9400005D6700000D9300002DE9F84F804692460868DAF80050067897
:2040F00000271C46BB46421C242E0A6026D110F8016F521C532E0A6020D1ED1C25F003052D
:204110002D1D55F8040CE061CAF80050208B0090A168E269D8F800005346FEF72FFA8346B6
:20413000D8F8000010B15844C8F80000DAF800502068E7600127A0EB0B002060662E05D0EA
:20415000002F64D1E16901200E705FE0208B40B9ED1D25F007050835A5F1080090E800039E
:2041700009E0ED1C25F003052D1D55F8040C04F00BFA894680462AA20CCA4946404602F042
:20419000A7FD28BF002705D2206989F000490127401E206124A20CCA4946404602F0DBFDB9
:2041B00031D3404603F07CFF064604F018FC0B46024649464046FFF74DFC1DA20CCA00F031
:2041D00099FD03F0FBFF0146606904220A2303F017F8401EE0612E21017063692269E069E8
:2041F00031461B1AE360D21A0A2303F009F8002F08BFE06104D0401EE0612D210170E06901
:204210006169081A02E004A0E0610720E060CAF800505846BDE8F88F286572726F7229001D
:2042300000000000000000000000C0FFFFFFDF41000000000088C340B0B54568846851486F
:20425000297BADF1180D01291AD001462F7E227E637E4D4837F0010741EA020240EA03003E
:2042700001904A48009218BF011CA27E1143029195F88D200323FF2A13D0014610460DE088
:20429000A17E627E237E41F00041024343F00043029195F88D0000933D490192014304237D
:2042B0000391FE2105F190004DF82310694602F0B9F9C5F89C00002808BF00205FD0287BB0
:2042D000344951F8200001282BD02068B0F1804F14BF22220A22217ED5F89C0004F0F0FBA2
:2042F0002068B0F1804F14BF21220922617ED5F89C0004F0E5FB2068B0F1804F14BF242248
:204310000C22A17ED5F89C0004F0DAFB95F88D10FF2933D02068B0F1804F14BF23220B227C
:2043300028E02068B0F1804F14BF21220922217ED5F89C0004F0C4FB2068B0F1804F14BFA6
:2043500022220A22617ED5F89C0004F0B9FB2068B0F1804F14BF24220C22A17ED5F89C0026
:2043700004F0AEFB2068B0F1804F14BF23220B2295F88D10D5F89C0004F0A2FB012006B058
:20439000B0BDC046000480A0004000800004C0A0002000809C0A0000484849492DE9F043A1
:2043B000ADF1240D02F03EF94D49086010B925A005F0F4F84FF000096846242208238DF89C
:2043D0001890494605F02AF969464846024605F001F93C4C69464A466060104605F0FAF846
:2043F00001210222A06020A004F0D2FD364C3C2208234946204605F0E9F84FF4007502272D
:2044100001263248DFF8C88025624B46A7612246E06130482661414605F0D4F82E484B46B5
:2044300025624146A6612246E0612C48276105F0C9F82C48017818A004F0AAFD09B0BDE85E
:20445000F083C0464572726F7220696E697469616C697A696E6720626F617264204C454481
:204470002070696E730A00C04C45445320636F6E73747275637465642073656D6170686F85
:2044900072657320666F72206C6564732025642C2025640A00C046C04C45445320696E69BD
:2044B0007469616C20626C696E6B20636F756E746572203D2025640A00C046C04C3100207F
:2044D000683B002058310020602F0020201F0020C9660000202E0020201D0020D02D00203B
:2044F00098310020703B00202DE9F04305466E68AF680C46ADF1340D05F060F896F8D91082
:20451000012903D105F056F8002084E04FF0010886F8D98005F04EF84FF00009C6F888904E
:204530002069306160697061207E3076207B307320783070606886F8A4907060606949465B
:20455000092828BF414686F88C10387B01F0CEF8284603F08FF9F87E86F88D002846FFF75A
:204570006BFE50B9387B00F0EDFF05F027F886F8D99005F01FF84D464CE001A849463022DA
:20459000082305F043F806957A790992CDF80090224A397906F11C0001AB05F033F801A88C
:2045B00028220823494605F029F8B96807911C49059506F1380001AA4B4605F01BF83078FE
:2045D00078B901A849462422082305F027F806F16C008DF81C80494601AA05F01BF81148BE
:2045F00000E0A068B06003F031FA317BC6F8A000012908D1D6F89C000B4904F0B6FED6F854
:204610009C0000B18560094A06F1C40004212B4604F0C0FA28460DB0BDE8F0834D61000015
:20463000257D000045940000CD830000AD9300002DE9FC4191EA03084CBF4FF000484FF0B5
:2046500000084FEA03354FEA153556006D414FEA43075FEA575711BF45F400150021002071
:20467000BDE8FC814FF4E06E1EF1FF0E77456FD04FEA01334FEA133342005B414FEA410418
:20469000640D11BF43F4001300210020BDE8FC8174455DD0E41B002100205FF0360EAB4276
:2046B00000D1B24205D340414941921B63EB050301E040414941BEF1010E05D053EA02077A
:2046D00002D052005B41EAE7BEF1200F09D2BEF1160F0CD3CEF1200720FA07F100FA0EF0DD
:2046F0000FE0AEF1200E00FA0EF1002009E001FA0EF1CEF1200720FA07F741EA070100FAC7
:204710000EF011F4001F02D140004941641E401C51F1000111F4800F1ABF641C21F4800126
:2047300021F400114FF44077FF37E419DEBF00210020BDE8FC8107F58067BC4208D249080A
:204750004FEA300041EA045141EA0801BDE8FC810020FF214FEAC101C91D4FEA015141EA33
:204770000801BDE8FC8170472DE9F041424C474D8046C8F38140401E02D0401E2AD025E00F
:20479000284620300168880C20D24FF4804020603A48D0F802204B0AC1F3033703F08003B4
:2047B00022F08F02134347EA0302C0F80220D0F801300E1266F30303C0F80130026801F024
:2047D000E70722F0E70247EA020102E04FF00041204601602A4E06F108000068C0F3C0072A
:2047F0000FB94020A0624FF40070206404F05EFD40F0300084F8C800C8F3815038B3401E80
:2048100003D0401E1ED002211DE0012004F02CF907460420394602F0CDFF042004F024F92C
:204830008742FAD1366826F07F4003F0D1FF15480068036807214FF06022300E98474FF425
:20485000806020600321042002F0B4FF06E00420012102F0AFFF0C4803F0BAFF2846006859
:204870000B4947F6180700F03F0084F8CB0F094E0F803068BDE8F08140A00C400A60084081
:20489000A83F0050B4010010BD3786006C13005070B00C402C2009402DE9F043484C94F859
:2048B000E700ADF12C0D002877D13D4F387B01250021242284F8E7507E6884F8E6000823C8
:2048D000C4F80C6101A804F071FE002604F10C00069601ABADF8146032490796324604F087
:2048F00061FE314904F1300001AB324604F05AFE2E4904F1540001AB324604F053FEB868F1
:20491000014628468847DFF8AC8029487B7B0078D8F80410C1F381571BB1032F03D184F863
:20493000E150032F1ED0022F1CD0012F2ED14FF08059D9F8A401204C406803214FF0405233
:204950001C230746009131462046B847D9F8A401406831464FF40072092307460095204690
:20497000B84713E0022003F063FF032F0CBF4FF47A7142F21071114800685434B1FBF0F108
:20499000204604F007FE204604F02CFED8F80000C00802D2304603F04BFF0BB0BDE8F08332
:2049B000740D00001B3C000081680000CD6B0000C4310020B03F005000A00C40D00D0000D1
:2049D000C83100202DE9F04F414846490068DFF804B1DFF804A1414F414E4FF4967240F631
:2049F000C413ADF1340D00258900B2FBF0F20B92B3FBF0F20A92B1FBF0F00990DBF80000F3
:204A10000DF118084FF0FF32414604F0BFFDBDF818400B9804F0B6FD07A808AB02900A98D4
:204A3000039304F0AFFD8DF81D508DF81E508DF81F509F208DF81C000320019004F04EFC05
:204A5000386801A904F0DEFC0C9004F03FFC0AEB0424204604F0FCFB9DF821109DF8223048
:204A70000C9A0FF2480920180091494602F032FF9DF821309DF822200C99484604F088FA4D
:204A9000204604F0E5FB11A1201802F023FF204604F0DEFBADF81A00306841464FF0FF324D
:204AB00004F06CFD099804F06DFDA7E7737069207265743D256420726561642D69643D2567
:204AD00030327820253032780D0A00C00D0A00C0D00D00008C31002020050020AC31002023
:204AF000BC31002040420F002DE9F0410446E08840F2FF760D46A71D0246C2F30A139E4257
:204B1000C0F30A1066D033B9204601F048F80028C8BF00216ADC3A884519AE424FDD002D80
:204B300005DD48F20F00104040EA051043E06D1E02F00F01D00B15F1340F41F010014FEA5C
:204B5000C030E18004DA0021A1806180218034E02FB217F1100F0FDC6388A288E1881D466A
:204B7000134610370A463FB2002117F1100FF6DDA28025806380E18079420FB2CFB1E388B7
:204B900061882588A288C7F1100643FA07F801FA06FE3D4102FA06FCA4F806804EEA05055C
:204BB00039413A41B34025804CEA010161801343A380E28810434FF0FF31E08016E00D49EE
:204BD000D00BC0030EBF03C903C981F0004184E8030008E012F00F0F07D1A08828B96088D0
:204BF00018B9208808B9012100E002210846BDE8F081C046083800202DE9F04707467D68FD
:204C1000D7F8089090460C4604F0D8FCAE6A8246002E64D105F1F00004F0F2F82C62002474
:204C3000EC7750466C6204F0C5FC04F0C7FC2F4E3378824623B9022003F0FAFD0120307098
:204C5000504604F0B7FC2A4A1068414640F480701060384603F0D0FCA862C0B9384641463B
:204C700003F044F9A878D0B9A96805F1B80004F081FCE8B9AC621020E8774946284602F0EE
:204C9000DDF904F09BFC8246307840B323E0D9F80010886B40F020008863A87810B12046E7
:204CB000BDE8F087A96805F1B80004F063FC10B1686ABDE8F0873846414603F017F91020CF
:204CD000AC624946E877284602F0B8F904F076FC8246307818B1022003F092FD347050463A
:204CF00004F068FC4FF0FF30BDE8F087C7310020301000402DE9FC4191EA03084CBF4FF007
:204D100000484FF000084FEAC32545EA52554FEAC2264FEA43077F0D11BF45F00045002162
:204D30000020BDE8FC815FF4E06E1EF1FF0E774555D04FEAC12343EA50534FEAC0224FEA42
:204D50004104640D11BF43F0004300210020BDE8FC81744543D0E419A3FB0501A3FB06E7EC
:204D7000A2FB06631EEB030E57F1000751F10001A2FB05631EEB060E57F1000751F10001BD
:204D9000FF1851F10001C01951F100014CBF4FF4806E4FF4007E10EB0E0051F1000148BF3D
:204DB000641C01D4400049415FF44077FF37E41BDEBF00210020BDE8FC8117F58067BC4294
:204DD0000DD24FEAD02040EA41504FEA41014FEA113141EA045141EA0801BDE8FC81002014
:204DF000FF21C900C91D090551EA0801BDE8FC812DE9F04104466668A7680D46ADF1380DBC
:204E100004F0DCFB96F8DC10012903D104F0D2FB00205EE04FF0010886F8DC8004F0CAFB45
:204E3000E968204602F0FEFB0028F1D12878307068687060287A002130220823F06001A8BD
:204E500004F0E4FB06943A7B099200250095224AB96806F1100001AB04F0D4FB01A82822D5
:204E70000823294604F0CAFB396907911B49059406F12C0001AA2B4604F0BCFB01A82422BF
:204E90000823294604F0CAFB06F160008DF81C80414601AA04F0BEFB307838B906F17C004C
:204EB000294601AA04F0B6FB0D4870603572C6F8BC50C6F8C050786800F018FC204603F082
:204ED0003BF8084A06F1C8000421234603F062FE20460EB0BDE8F081B55200006F7B000072
:204EF0003D940000FD9200002DE9F84F3648DFF8DCE0DFF8DC80DFF8DC90DFF8DCA0DFF834
:204F1000DCB0032700F1100184460EF1280208F1180309F120040AF124050BF118069CE8E2
:204F300000471031A1F1100080E80047DFF89CE0BEE8000F2832A2F12800A0E8000FBEE82E
:204F50000007A0E800079EE8004380E80043DFF880E0BEE800071833A3F11800A0E80007CD
:204F70009EE8004380E80043DFF868E0BEE8000F2034A4F12000A0E8000F9EE8004780E804
:204F90000047DFF854E0BEE800072435A5F12400A0E80007BEE80007A0E800079EE800435B
:204FB00080E80043DFF834E0BEE800071836A6F11800A0E800079EE800437F1E80E8004301
:204FD000ADD1BDE8F88FC046683A002028360020B838002058370020C83600205838002044
:204FF0007CB50546084602F01BFA354E02461821304603F023FD03F04FFF324909684C6862
:2050100040F2FF32002380B22C2100903046A04704F054F91C210246304603F00FFD03F060
:205030002DFF02461421304603F008FD03F0FAFF02461021304603F001FD284602F018F90C
:2050500002460C21304603F0F9FC284603F0D2FF1D4C400040F020002070284603F0D6FF7C
:2050700040F010002070284603F09AFE02462821304603F0E3FC284603F0E0FF400040F0CE
:205090006000E070284603F0E5FFC00040F0800004F8080C284603F0E9FF800040F47C40D2
:2050B000A4F89300284603F0F5FC02460821304603F0C4FC4FF48000A4F2091108607CBDB1
:2050D00000A00C40A401001049A10C402DE9F84307467C68BE6804F071FAD4F88810002955
:2050F00061D004F067FA3168486820F0020048603168486A20F003004862D4F8A0007569C5
:2051100041683269096845EA0200C1F804053168486920F001004861306801250562384630
:2051300003F04CFDD4F88800D0F8048004F046FA814694F8D80058B118F0704F02D104205D
:2051500003F05EFB022003F05BFB002084F8D800484604F02FFAD4F88810087C042803D082
:2051700003200874D4F88810D4F8A0004368326970691B6810438540DD623068B0F1804FAF
:2051900014BF0B480B48826808689204A0EB9250401E0860A06800230246C4F888303846FE
:2051B0009047BDE8F88304F005FABDE8F883C04600050020300400202DE9F8430746D7F8E9
:2051D0000880D8F800007D68066C16F4F06F466426D1F00910D2700952D395F83C00AC6BAD
:2051F000401E844288BF041C3846214603F0B0F9A86B001BA86308E0A96B384603F0A8F94C
:20521000014695F82D00A96318B9A86B002837D101E00020A86305F1840004F0A7F92FE034
:20523000F00A0ED3D8F80000002144684160A96B04F00F04202988BF2021384603F088F967
:205250001AE04FF000094C4602E0A86B401EA863A86B88B13846012103F07AF9D8F80000EA
:20527000446814F00F04C0F80490EED0296B686B491E2963401E6863EC77384601F088FF75
:20529000B0090DD3AE6A5EB13846314603F0B4F9A862A86A314618B93846091D02F026FE8B
:2052B000BDE8F88398B53749826844680968106849688847344B01229A6140B1217AFF29A1
:2052D00005D0FF214009217257D204224DE0207A002852D0401E19D0401E02D0FD384CD0C5
:2052F00048E05968D4F8B4000170D4F8B800D4F8B410401E491CC4F8B800D4F8B870C4F8C9
:20531000B410F7B1012F88BF09222EE0D4F8B000401EC4F8B000D4F8B070A7B9D4F8B870DB
:205330007FB10220D4F8A8102072097C012F4FEA410141F0010143F8041C94BF03220B2292
:2053500014E004220FE0D4F8AC0000785860D4F8AC00022F00F10100C4F8AC0005D2D4F8E6
:20537000B87017B905220020207202201A6004F070F898BDFF20207298BD04F12C0004F0E4
:20539000F5F898BDAC010010042800402DE9F843DFF8C4900446D9F800001F4615460E46E7
:2053B0008047DFF8B8802068B0F1FF3F02D0042D03D017B9454628682EE0636873B1606919
:2053D000010903D3581E03F099FE606900216160A160E16020F00800216100E0606905B9EF
:2053F000012520F00700012F45EA0005656108BF0026B7F5807F88BF4FF48077B6B97F1C13
:20541000384603F0D5FA4546064628684EB96169666041F48061616180474FF0FF30BDE88C
:20543000F883616941F00801616101E045462868761C66602661BF19A6607F1EE7608047B7
:20545000D9F8000080470749054A2868116080470020BDE8F883C046743B0020783B002055
:205470007C3B0020693900002DE9FE4F314C20680DF10101012202F0BFFF9DF80100C028EA
:20549000F5D12D4EDFF8B480DFF8B4A04FF0DB094FF0C00B08E0DAF80000ADF8067001A9D9
:2054B0004FF0FF3204F06AF8D8F8000001A94FF0FF3204F06BF800273D4631E020680DF194
:2054D0000101012202F098FF9DF80130BDF80410C03B20D01B3B16D120686946012202F00B
:2054F0008BFF9DF80000BDF80410DD2805D107EB01207F1C06F80090BFB29DF80000DC2893
:205510000AD1584601E09DF8010007EB01217F1C7054BFB200E00125B7F5807F08BFFF2709
:20553000002DCBD0002F18BFFF2FB4D1D8F80000B5E7C046A03B0020200500208C3100204B
:20555000B43100202DE9F843044604F037F881462D48021992F8ED10491ECFB2002F82F809
:20557000ED704BD12B4D05EB84052E78698836F07F0788461AD1F10911D24FF08054D4F8F9
:20559000B801806901464046884704F5DC742068406B0146404688470228F8D121E000EBC6
:2055B0008800D0F80011002088471AE04FF08054D4F8B801006A014640468847D4F8B8016E
:2055D000806A014640468847D4F8B801006B01464046884701210D4A0D4811600168890870
:2055F000FCD306F03F003F2801D0FFF7ABFF687800F03F003F2801D0FFF7A4FF484603F05E
:20561000D9FFBDE8F883C046C83100202820086028200840D40A00002DE9F0418468456865
:205630000F68226895F88C30B8B2B2F1804F00FA03F01FFA80FC14BF254B264BDFF898E0AF
:20565000886838B995F88C2070469600825905F1A60006E095F88C60204AB600925960444F
:20567000401E9A6058602068083018609A683F0143F6F078103F08EA07073A439A6023689E
:20569000B3F1804F14BF164A164A496821B971468E5904F10E0105E0DFF84CE05EF8066023
:2056B0006144491E966011605060906807439760D5F8A000216942686669126846EA010063
:2056D0009062586A40F003005862BDE8F081C0460005002030040020CC0A0000C40A0000E0
:2056F0001005002040040020BC0A00002DE9F041064603F063FF2D4D8046A91991F8ED00DB
:20571000421C002881F8ED204AD1294C04EB8604277807F03F003F2801D0FFF7E7FF6078A3
:2057300000F03F003F2801D0FFF7E0FF668837F07F001AD1F80911D24FF08054D4F8B80122
:20575000406901463046884704F5DC742068406B0146304688470128F8D121E005EB86058E
:20577000D5F80011012088471AE04FF08054D4F8B801C069014630468847D4F8B801406AD5
:20579000014630468847D4F8B801C06A0146304688470121074A0848116001688908FCD335
:2057B000404603F007FFBDE8F081C046C8310020D40A00002820086028200840294A2DE97E
:2057D000F04180460125284815600768002FFCD0284C2949C020443C206001F10800036822
:2057F0009B0806D250F8040C204B000C40F0F000187000200C3110630E68304600F0F0FC0F
:2058100040463146FFF7ECFB1C48B038816D40F21E226FF31F418A4214D901680068C1F3F2
:205830000367C0F3034007B17F1E072805D006280EBF0720801C00F00F00114947EA001047
:20585000083908703046FEF78FFF0E4814380068C1680220884740202060054F3D60BDE8EC
:20587000F081C0461010094094022243566208409404604244600C40A83F00506C1300500D
:205890000A600840B40100102B4AF0B538CAADF11C0D02A938C10CCA4FF0805681E80C009A
:2058B00084684568D6F8D0112068C9688847216822488A6B10408863206840F2F271416423
:2058D00095F83C0095F83D202168C0100DEB8000806810434863684603F044FE1A4FDFF82B
:2058F00064E0D6F8D0112B7FDFF854C06A7FA87F496857F823705EF82260AA695CF82030DE
:205910000D46206801993E433343A8470F490A1F106840F010001060086840F0010008606A
:20593000A07DFF2806D0E07DFF2803D0086840F44040086007B0F0BDD40B00000DF8FFFF14
:20595000C00B0000B80B0000A80B00003010004038B504462568B5F1FF3F12D06369002000
:20597000990909D3616839B1A268914204D0521A2846FCF79FFF6369002805D543F48063E2
:2059900063614FF0FF3038BD60682061A060D80924BF23F030036361002038BD2DE9F04757
:2059B0000746194CDFF86C8020680FBB8047174A10680025002820DD1549A1462E46924695
:2059D000A1F1180454F8181FB1F1FF3F0CD0D9F8000080472046FFF7BBFF0746D8F80000FF
:2059F0008047DAF800003D43761C8642EADB04E080473846FFF7ACFF054640460068804795
:205A10002846BDE8F087C046743B0020403B0020D8320020783B00202DE9F0470F46054692
:205A300038686C68D5F80880002852D003F0C6FDD4F8881021B103F0BDFD0320387448E0B3
:205A500001263E74C4F8887003F0B4FD94F8A40038B194F88D202049D4F89C00114302F09C
:205A700007FDD7F8049003F0A9FD824694F8D80050B919F0704F02D1042002F0D9FE022037
:205A900002F0D6FE84F8D860504603F093FDD8F80010486840F00200486028463946FFF716
:205AB000BBFDD8F80010486940F001004861207828B961686C34204603F05CFD10B13046E8
:205AD000BDE8F0872846FFF701FB2046002103F051FD0020BDE8F087000006802DE9F8435F
:205AF0000D46064668687468D6F80890002710B9E868002850D02078012814D103F05EFD69
:205B1000D4F8BC1049B1D4F8C0108D61C4F8C05003F050FD0120BDE8F883C4F8BC50C4F888
:205B3000C05003F047FD022002F082FE04F160084FF0FF31404603F01DFDD9F8080003F04F
:205B50000DFD3046294600F0DBFE0546D9F8080003F000FD207888B9B5F1FF3F08D004F1DF
:205B70007C004FF0FF3103F005FD207A48B110E003202072022002F043FE0AE0B5F1FF3FDA
:205B900001D0012705E00320207204F12C0003F0EDFC404603F0DAFC3846BDE8F883F8B5CB
:205BB000C188CA0B11F00F074FEAC23C4FF00101C78006D1878827B9478817B90788002FBE
:205BD00046D0002308E00288858803804488C5801039848009B24280C288002AF3D0102A2E
:205BF00018DA848845880688570063006A00491E43EAE53347EAE43742EAE63509B27600A8
:205C10009CB2BAB2ADB2B6B2102AEDDB068045808480C280202A17DB4688058887887B102F
:205C30006D107410491C43EAC23345EAC635521044EAC73409B2202AADB2A6B29FB2EEDA42
:205C5000C280878005804680C28802F00F02C280C2884CEA0202C2800846F8BDF8B503F0A8
:205C700078FB03F089FB044604F00C000C2845D0E0081ED202F03AFF234E37680546012018
:205C9000014603F0ECF831686943884211D21F4C8220B0FBF7F0291A204603F07BFC2046CC
:205CB00003F0A0FC0120FDF70DFA204603F0A8F825E0200922D21648610939BF016821F0D4
:205CD0000101016841F0010102460160D2F898004FF0805440F00300C2F89800D4F8B801EE
:205CF0008069014620208847D4F8B801094C806B2168804701202060206800E030BF03F055
:205D10002EFB01F0C1FBF8BDD00D0000D43100208C2108402C2009402DE9F0414568876879
:205D300016460C4603F04AFC0346A86B3246214630B1184603F03EFC4FF0FF30BDE8F08141
:205D5000AA6329630024EC7718466C6303F032FC03F034FC1D4E8046307820B9022002F0DC
:205D700067FD01203070404603F024FC1849086840F4007008603968886B40F4FA6088636B
:205D90006878002818BF201C1ED1696805F1D40003F0F0FBB8B9AC633968886B20F4FA60EE
:205DB000886303F00BFC0746307818B1022002F027FD3470384603F0FDFB1022696B286B52
:205DD000EA77401A2863686BBDE8F081C63100203010004030B517A0ADF12C0D03F0D8F8B7
:205DF00000212422082301A803F018FC214D002101AA284603F00EFC214C20481E4A214608
:205E1000006815604FF0FF3203F0C0FB218810A003F0BEF8882000901B491A482022022310
:205E300000F0B4FD18B91949FF20088000E0FEE70BB030BD5258207461736B206372656132
:205E500074696E672073656D6170686F72650A004372656174696E6720717565756520728E
:205E70006561647920627566666572203D2025640A00C0461C310020A03100208C31002084
:205E9000A831002078310020A430002094310020F8B50D46EEB2290824BF27494D40274B34
:205EB000B400DFF89CC0195900EA05020CEA020200F4E02C85EA0107BCF5E02F00EA07075F
:205ED00021EA0001C7F3006742EA010201D1510E14D300F4E0210F4310D002F4E027B7F56E
:205EF000A02707D0B7F5803704BF22F4003242F4A02203E022F4803242F4C0221A51114C03
:205F1000C10D04D3C5F38052A4F1D0018A55000E10D303F053FB290E03D201220021B24089
:205F300002E00122B2401146236893431943216003F040FBF8BDC046006000A00010084084
:205F5000007F077FD020024098B504462068B0F1FF3F05D06269500904D342F48062626151
:205F7000002098BD100A05D320460021022201F0BDFB626990094FF0000104D2D00924BF20
:205F900042F02002626167684FB9D00807D202F0070220464FF48073FFF7F8F90146E26843
:205FB0000020226101B9012098BD80B50168B1F1FF3F05D04269910904D342F480624261D4
:205FD000002080BD53094FF0000104D2D30924BF42F010024261476847B9D30806D202F0E8
:205FF00007024FF48073FFF7D1F90146002001B9012080BD264838B550380468B4F1FF3FE1
:2060100008BF002403F0DAF822481749002510380560012008601549086001F0A5FE1448E5
:20603000006820B1134800682046FFF7C7FB124812490560124C0A686FF35B4244EA02001D
:20605000086010490868C0F30130012806D10A680D48104040F400320A6008600B49086808
:206070000028FCD138BDC0465C600C400822044380012843000120438C21084048200340B7
:206090000000390104000940FFFFFCFC0C0068426C1300509404604210B5ADF1300D684666
:2060B00003F0FCF80024694620468DF8004002F077FB1F49086010B911A002F069FF1A4881
:2060D0001A4900F0AFFA1B49086004A803F0ACF88DF81C4049F640408DF810400323089072
:2060F00008228DF8283004A90992204602F0B8FB1149086010B907A002F04AFF0CB010BD40
:2061100049324320646964206E6F74206F70656E00C046C053504920646964206E6F742089
:206130006F70656E00C046C064310020543B002090310020503B0020AC310020B0B501463E
:206150008B681C68E26948682262520824D2D0F8A01049680A685D69D2F80415294206D064
:206170001C68616A21F002016162C2F80455D2F8042519690A4231D01A68516A21F00101C4
:206190005162D0F8A01049681A6909683830C1F8042503F0EBF9B0BD1C68626922F001022D
:2061B0006261D0F88870B7B9626822F0020262601C68626A22F003026262D0F8A0005F69DF
:2061D00044681A69236847EA0200C3F80405084602F0F4FCB0BD0846FEF778FFB0BDFEE755
:2061F00070B5224C224D0646B00E0FD2700E0DD3802020744FF6D801A4F85110207000F075
:206210008FFFD0352868C0F3042002E02868C0F3046003F07BF800EB2670401C162805DA8B
:2062300010F10A0FB8BF6FF0090000E01520114D00F01F0040F4F850A4F85900286880084A
:2062500003D20D490020086001E046F040660B48F10EB50E81F00101983801F00101016012
:2062700085F0010101F00101816070BD15620840B81200500000094094042A439800204374
:20629000F0B520480127F84201D001F009FE204D204F214EBD4206D203CD0478A400345917
:2062B000401CA047F6E71D48002800D08047164D164FBD4202D210CDA047FAE7F0BD032575
:2062D0001BE0416808300A1C2A400BD11A1C2A40AB4305D0046804300C600431043BF9D1B9
:2062F000131C05D0047801300C700131013BF9D1021C2A4001D0A84304300368002BE0D16A
:206310007047C046FFFFFFFF0000000000000000289B0000B09B0000A89A000055C5011039
:206330002DE9FC471E4E1F4F1F4DDFF880A0DFF88090DFF88880D9F8000069464FF0FF3201
:2063500003F024F928685146012202F073F8002415E0BDF8001004EB01217B5CB3F1C0024A
:20637000337006D01B3A1CBF311C012203D1114900E01149022202F05DF8641CA4B2BDF896
:2063900002102868A142E4DC5146012202F052F8D8F8000069464FF0FF3203F0EFF8CAE738
:2063B000C531002020050020A03B0020C00D0000BC310020C30D0000C10D00008C31002022
:2063D000002A4AD05FEA000C8B071CD1830722D1102A08D370B4103A78C978C0103AFBD205
:2063F00070BC103238D0042A2CD3082A05D30C2A24BF08C908C008C908C008C908C0920763
:206410002AD0920F22E00B780370491C401C521E22D08B07F7D1C30714D18307D8D0121F4A
:2064300012D308C903801B0C4380001D121FF8D20AE008C903701B0A43701B0A83701B0ACE
:20645000C370001D121FF4D2121D05D00B780370491C401C521EF9D160467047F8B504469C
:2064700025686769B5F1FF3F07F4805702D0FFF76FFA10B14FF0FF30F8BD6069000907D338
:206490006068401E02F03AFE606920F00800606100206060A060E0602068FCF713FB064605
:2064B0004FF0FF30206057B10F48006880470F4800EB0510FCF746FA0D48006880473046CC
:2064D000F8BD38B5084C054620688047206880472846FFF7C3FF064C054620688047206833
:2064F0008047284638BDC046743B0020B42C0020783B0020F8B50546214800680C468047D8
:206510002046FFF721FD1F4E002830D0606900F00700042819D0A068E168814204D8204631
:20653000FFF716FAF8B9A068411CA160EFB207706069800805D30A2D03D12046FFF708FA84
:2065500088B9306880473846F8BD20688DF8005069460122FCF7AEF9B0F1FF3F03D0306845
:206570008047E8B2F8BD616941F480616161306880474FF0FF30F8BD0349FFF7BBBFC0460F
:20659000743B0020783B0020F03200202DE9F8432020EFF3118780F31188214CA068012159
:2065B00002F0D0FF4FF001094FF0000865692168A4F81C906A1A2168A4F81E80461B401AD9
:2065D000904227D387F3118840464519361A4846294602F0B3FFB042F7D92021EFF311877A
:2065F00081F31188E18B012903D14046294602F0A5FFB0F1FF3F06D0A169801B814238BF75
:20661000081C411901E0A069291802F093FFA4F820902560A4F81C8087F31188BDE8F88301
:20663000780100202DE9F843DFF87C900F4604464FF0FF31484602F09DFFDFF870801D4827
:2066500000210AE0FF2A07D00368934202D958F822600EB1002421E0491C1FB117F82120C9
:20667000FE2AEFD100202060012660600546A0600EE0FF290BD0636806FA01F048F8214002
:2066900018430B4960601268204602F007F86D1C27B107EB85021178FE29EAD1484602F0E5
:2066B00055FF2046BDE8F88300310020542D0020007FC767883100202DE97043C4B22046D3
:2066D000401E03D0401E2BD1072600E006261B481B4A006846F2A8132146B3FBF0F8B2FB19
:2066F000F0F910A04B46424602F052FC154D164800EB840420684FF0FF3102F03BFF2868B2
:206710003146012201F03CFE404602F03BFF28683146002201F034FE484602F033FFE9E724
:20673000BDE870834C454453202564206F6E202564206F66662025640A00C046D00D000049
:20675000E093040098310020583100202DE9F04107467C68BE6804F1F00002F051FB1D49F9
:20677000306809688069000923D202F027FF1A4D8046287820B1022002F042F8002028705D
:20679000404602F017FF32681449906B20F020009063086820F480700860206A616A256987
:2067B000626A401A2062216A2B4638469847BDE8F0814FF4FA70B0FBF1F1012998BF0121D5
:2067D000F034204602F0E6FE204602F00BFFBDE8F081C046D00D0000C73100203010004056
:2067F0002DE9F04107467D68D5F8BC00C8B302F0E5FE1D4E00248046F460042030600220B8
:2068100002F027FE6868D5F8A8102246034638469847022001F0F4FF0CE08069C5F8BC009A
:206830006868D5F8BC102246034638469847022001F0E6FFD5F8BC00D5F8C0108142ECD133
:206850002C722046C5F8A800C5F8BC00C5F8C000064B346038461C6001F06EFB404602F018
:20687000A9FEBDE8F081C04604280040100405422DE9984302F0A2FE1F4CDFF878808146FA
:2068900004F1E000007850B94446A0680146022088470746102001F0DFFB2FB320E000F0AE
:2068B000F3FE002820460FD1144909683222B2FBF1F101B9012100F13004204602F06AFEF7
:2068D000204602F08FFE0FE044460022A16880F8E020022088470746102001F0BDFB1FB1C0
:2068F000A068014603208847484602F063FEBDE89883C046740D0000C8310020D00D000029
:2069100080B54268C2F8A8100868C2F8AC004868C2F8B000D2F8B0708868C2F8B400C868AE
:206930001949C2F8B80097B9D2F8A800007C400040F0010041F8040C022010720B68DB0980
:2069500017D2D2F8B820022A17D30B2216E0D2F8A800007C0123400041F8040CD2F8AC0052
:206970001372431CC2F8AC30007848600868C00902D34FF0FF3080BD022003220A6002F011
