:20000000004D0020998A0000FDC90110FDC90110FDC90110FDC90110FDC90110FDC9011046
:1C002000FDC90110FDC90110FDC90110FDC90110FDC90110FDC901103BCA0110A4
:20004000000909DC00010907000101091A000D9E0000B983000069A2091A00120000000154
:2000600009130022000000020913002409AB0096001E003B010E00B1010A00640305009393
:20008000030500000503090D00010204070C141D28333E474E5457595A0907000101030648
:2000A0000B121D2B3B4B5B69747B808384090700010204080E1827394E647A8C9AA4ABAF26
:2000C000B007110000384035002D400140028460005D40014000F80118A38405000904FFF0
:2000E0000904006DA2000029740906000308090B000193030908000138090B0001181E33BA
:200100003C3C330904000338090B0001280800000080090400333C3C330904008C3500204E
:200120008C3500209435002094350020090800199C000003000000FF0014090700C0460911
:200140000800C0350020C0350020C8350020C83500201C110000D4350020D4350020DC35A3
:200160000020DC350020E4350020E4350020EC350020EC350020CC10000008000000080E40
:200180000020090500080000080000000C3600200C3600209C0100209C01002001000000E2
:2001A00001090B00978609060034360020343600203C3600203C36002044360020443600B2
:2001C000204C3600204C36002054360020543600205C3600205C360020743B002017A20972
:2001E0000A00C4360020090400C436002001000000C4360020020945000200E9290000D560
:200200002A00009D290000812800003B2A0000CD2800003F290952000738090B00012103B0
:200220000F0080002405A0000800D338C83A00206403008005097B000238090B00011EE86C
:20024000DE510B9380AABB010978000338090B0001280800000080090400DE510B93096423
:200260000007810000896001401A000000394001403A0000002040007F64404000A38406CE
:2002800000410104C007B133058305480A0306B87A03040102638410004302B00402009FB8
:2002A00084020044C78460F13583880300A388FB0088600E1F0200F90CAC52330F08514872
:2002C000000904FF0308090B000164030950000138090B0001181EDE510B93094C00103A42
:2002E0000020103A0020183A0020183A0020203A0020203A0020283A0020283A0020303A2E
:200300000020303A0020383A0020383A0020403A0020403A0020483A0020483A0020503A0D
:200320000020503A0020583A0020583A0020603A0020603A0020683A0020683A00209010F7
:2003400034008E0D3300F00A320048083100CC06300082052F0024042E0066032D00BC028C
:200360002C0012022B00AE012A005E01290004012800DC002700B4002600820025006E0092
:2003800024005800230042002200370021002D002000000020000786000038403700A38432
:2003A00006002040007F64404000030507B1230533058305480A0306B87A02009F84020018
:2003C00044C703040102638410004302B004838803008460F13588601A000200DF7D5C50F4
:2003E0003C07A388FB000200F80C0904FF0718000038403700A38406002040007F644040C4
:2004000000030507B1230533058305480A0306B87A02009F84020044C70304010263841074
:20042000004302B004838803008460F13588601A418C6013820200DF7DA388FB000904FF57
:20044000743B0020743B002009040001090700040908000200000822002009040007C201A8
:20046000100910000109130001090B00C5A7090600F99F09080001009C350020C5A7090E88
:2004800000C5A7090600C5A7090A006DA20906002D750932000904FF090400E80309060054
:2004A000FF00FFC002090B0001000000402900200C090400C046C00908004011090A000189
:2004C0000905000100943C0020943C00204011090A00010905000100B03C0020B03C0020A1
:2004E000B83C0020B83C0020C03C0020C03C0020C83C0020C83C0020D03C0020D03C0020FC
:20050000D83C0020D83C0020E03C0020E03C0020E83C0020E83C0020D96B090A0005000017
:200520000020090F00E03C002009040003000000B8330020D0330020E8330020000000C00E
:20054000090C00010907000808C080FE090400FF0000CB9F0000CB9F0912000904FF090A0D
:2005600000090000000000000002020400B4350020B8350020BC3500200205004D002000CF
:20058000030205002001010000402A0020020C000200000000000000000201020B00010282
:2005A0000B00103A00200210006436002002040034010020340100203C0100203C01002090
:2005C00002000000000000000002020800C03B0020E83C00200100000001020F0014360051
:2005E0002014360020020000000000000000000000010105006CDC020108009C3C0020031A
:20060000010700BD920000579F00000100000000000201021300B83C002002040002000058
:2006200000000000000000000001010400C03B00200100000000000023A20000E1A0000052
:2006400061A100000000000000010800000001000000000000000000000101040001000087
:20066000000000000000000000010108000100000000000000000000000101080001000064
:200680000000000000000000020000009F30000002000000C800000040000000A832002085
:2006A00068050000440100209805000000010020C805000078010020F0050000A40100208A
:2006C00010060000C801002028060000E4010020480600000002002058060000EC0100200D
:2006E00068060000F001002078060000F80100208806000008020020900600000000002076
:201000003C000000000000000000000034100000000000000000000001000000000000004F
:1C10200000000000000000000000000001000000000000000800000000000000AB
:20103C003400000000000000000000006810000000000000000000000100000000000000E7
:14105C00010000000000000000000000080000000000000077
:2010700030000000000000000000000098100000040000000000000001000000FFFFFFFF87
:10109000FF00000001000000080000000000000048
:2010A0002C0000000000000000000000C4100000040000000000000001000000FFFFFFFF2F
:0C10C000FFFFFFFF080000000000000020
:2010CC0038140000E410000095A1011091A70110A1C2011009B2011041B80110A5BC011078
:0810EC0085BC01103400000076
:2010F400280000000000000000000000141100000000000000000000FFFFFFFF0000000093
:081114000800000000000000CB
:20111C00341400003011000065C2011069C101101BC2011091BA011005BC0110E5BB0110EA
:04113C00320000007D
:20114000341400005411000071C20110A5B6011099BF011045B60110B5BA011025BC01104B
:041160003300000058
:201164002400000000000000000000008011000000000000000000000000000008000000AE
:041184000000000067
:20118800240000000000000000000000A41100000000000000000000000000000800000066
:0411A8000000000043
:2011AC00240000000000000000000000C8110000000000000100000000000000080000001D
:0411CC00000000001F
:2011D000000000009435002004000000000000000000000020000000701000003000000042
:2011F0001C110000C83500200400000000000000000000000C00000030130000180000002A
:2012100040110000D4350020040000000000000000000000240000004813000018000000A9
:2012300000000000DC35002004000000000000000000000010000000A01000002C0000007D
:20125000CC100000EC350020040000000000000000000000200000006411000024000000A4
:20127000FFFFFFFF0C36002004000000000000000000000028000000881100002400000017
:20129000FFFFFFFF3C360020040000000000000000000000580000003C10000034000000D4
:2012B000FFFFFFFF44360020040000000000000000000000100000006013000018000000E9
:2012D000FFFFFFFF4C3600200400000000000000000000001C000000AC110000240000005F
:2012F000FFFFFFFF5436002004000000000000000000000038000000F410000028000000D0
:20131000FFFFFFFF5C36002004000000000000000000000054000000001000003C0000006B
:1813300018000000000000000000000040130000080000000000000032
:1813480018000000000000000000000058130000080000000000000002
:18136000180000000000000000000000701300000800000000000000D2
:08137800010000003CB9000077
:041384000100000064
:0413880000000E0053
:04138C0000000F004E
:041390003200000027
:041394000100000054
:041398009C35002060
:04139C00000200004B
:0413A0000000000049
:0413A400FDC901106E
:0413A8000000000041
:0413AC00000000003D
:0413B0000800000031
:0413B4000000230012
:0413B800803C002055
:0413BC00010000002C
:0413C000F4350020E0
:0413C400080000001D
:0413C8000000000021
:0413CC00000000001D
:0413D0000000000019
:0413D400080000000D
:0413D8000000000011
:0413DC00000000000D
:0413E0000100000008
:0413E400E83C0020C1
:0413E80006000000FB
:0413EC0001000000FC
:0413F000743B00202A
:0413F40000000000F5
:0413F80000000000F1
:0413FC0000020000EB
:0414000000000000E8
:021406002B00B9
:021408000100E1
:02140A002500BB
:02140C003200AC
:02140E003300A9
:021410003400A6
:021412000100D7
:0114140001D6
:081418000300000014B90000FC
:081420000000000000000000C4
:0414280000000100BF
:04142C0000000300B9
:0414300083C4011060
:041434003C14000064
:041438003C14000060
:04143C0000000000AC
:041440009000000018
:041444009000000014
:0414480000000000A0
:04144C00F435002053
:0414500031A00000C7
:041454002000000074
:04145800B8B8000020
:04145C00D4B7000001
:0414600009C30110AB
:04146400978A000063
:04146800138E0000DF
:04146C0095C801100E
:0414700097C8011008
:041474000000000074
:04147800CEB80000EA
:04147C0064B7000051
:041480007CB7000035
:041484004CB7000061
:0214880008005A
:02148A00090057
:02148C0001005D
:02148E0000005C
:01149000015A
:041494000000000054
:041498000000000050
:04149C00000000004C
:0414A0000000000048
:0414A40075A200002D
:0414A8009D8F000014
:0414AC00C5970000E0
:0414B0000D95000096
:0414B400259300007C
:0414B8003D9500005E
:0414BC00097F0000A4
:0414C0000BA100007C
:0414C400A5810000FE
:0414C8002D9B000058
:0414CC00E5A1000096
:0414D0000800000010
:0414D40024000000F0
:0414D80018000000F8
:0414DC0028000000E4
:0414E00020000000E8
:0414E4003C000000C8
:0414E8000C000000F4
:0414EC0034000000C8
:2014F0002DE9F04FCE4E3188C9A0ADF1640D08F0D0FB02A808F046FD642508A8029508F0CA
:2015100097FFC84909680D9100240E942746179700211891169114911091A246129151464B
:20153000159113914FF0FF3B0F91DFF86883119117E2BAF1000F0BD0834503D14F78002FB4
:2015500000F0A780D448006803F0BEFC98F90000CF4AD24FC100002601EB401102AB52182D
:2015700007EB0011CE48568004F01AFD0246C84DDFF824C3CB482E46036898F900005F78EC
:20159000CCF80020C10037F07F0701EB40114FF000070D446F80314405D1CD8A4FF6BF7C04
:2015B0000CEA050507E0C100B44601EB40116144CD8A45F04005CD825978C9091AD307F0F0
:2015D00059FCC0F38005D8A0294608F062FB98F90000B14F3246C10001EB40115118CA8A6E
:2015F0004FF6BF7CAB0103F040030CEA02021343CB823A68DDF83CA0DDF840B08DE8000C43
:20161000179BC100374601EB401110460122791807F03EF998F900203B461046C10001EB20
:20163000401159184988B1F5505F09D0C10001EB401178184188BFA008F02BFB98F9000074
:20165000119AC14F129B944DC10001EB0011164679184E808DE80C0028680122334607F014
:2016700017F998F900000146CA0002EB0112BA185288B2F5806F09D0C10001EB001178183F
:201690004188D4A008F005FB98F9000083464FF0010A06F0CDFA0E9F02461FB90127CC4C97
:2016B0000E97A418214608F021FD9442054609D242F21070A84205D20D99281AB0FBF1F057
:2016D00008F0B2FE77480068077842F21071A94228BF0427524A704998F9003015880968D6
:2016F0007F1E8C461A4600F0DF807F1E00F09C807F1E03D07F1E00F029812BE1D0499000B7
:2017100000279E0000EB421008180A46478006EB43101118087B3A46642700F07000149B76
:201730000F7540F002000873C64F8C60C87B8E7BCF610AAF40F00300C87306F0B90040F0E5
:2017500044008873C87D0F624EF6602600F0F00040F00200C875301988618DE80C00179B06
:201770006046012207F094F898F90010B44E880000EB4110301840884FF47A6707FB054922
:20179000B0F500603CD0B0F5305002D0401E7AD0C8E007F0C5F8A948DFF89CC200886746D2
:2017B0000302D81941786646CA1CD2B29B189A191CF80340D57857789678801C00F050F998
:2017D000A1489E4900684FF0FF3208F029FE0C9800909B4A98F90010BDF82830880000EBF8
:2017F00041101018418844EA072444EA064444EA056422467BA008F04CFA0120014644E0E2
:201810000748048806F014FA394601FB04093AE0706572696F64203D2025640A00C046C0DE
:20183000503C002034B9000082490789002601EB42114E8045680F820A7BCD6102F070021C
:2018500042F002020A73169B8C6032468DE80C007E4B6046012207F01BF898F90010754835
:201870007C4E00EB411035884788B7F5006653D0B6F530564BD04FF47A6000FB054962A0DD
:20189000394608F006FA0221012007F043FA61E03C370020A332002080320020083C00204A
:2018B000502C00208C320020DDF85CE0604F067AD10001EB021175467918189B4D80476813
:2018D000CE730A7B4F6102F0700242F002020A7360468C602A468DE80C0001222B4606F05E
:2018F000D7FF5C4B98F90010514E1D88C80000EB011030184788B7F500660DD0B6F530567B
:2019100005D04FF47A6000FB054944A0B8E74FF47A6000FB054970E706F08AF94FF47A61A5
:2019300001FB05090321AFE72A2A2A202564202A2A2A0A00434D445F53455455503E2025BD
:201950003034780A00C046C0503900204FF47A6000FB054908F060FD01F020FB08F05CFD0A
:201970004C463248006808F07FFC012819D12F481799006808F04CFDBAF1000F03D0364882
:20199000006803F0A1FA08F07DFB314800684FF0FF3108F03DFD08F075FBDDF85CA0574679
:2019B0000E9708F05BF998F90000B0F1FF3F05D02A4909680A78042A7FF4BBAD2548058878
:2019D00001F0ECFA4FF47A6000FB0544EBE7C04600093D00434D445F46533E202530347876
:2019F0000A00C04672786F7574207374617475733D253034782074733D256C752025642070
:201A1000256C750A00C046C0434D445F54585F4144563E20253034780A00C046434D445F25
:201A300054583E20253034780A00C04688320020B03900206C380020080200204C3200200C
:201A5000DC3700200C32002048320020AD9A000084320020503C0020803200208C320020D2
:201A70002DE9F04F05460846ADF1140D0028049000F06381DFF8C8924FF0000800274446F0
:201A9000285D641C4FF6FF7A411100F01F02A4B2DFE801F01A18161412100D042E5D601C6C
:201AB00080B2295C46EA0126401C84B20DE02E5D2046F9E7082608E0062606E0042604E082
:201AD000022602E0012600E000261E2AB8BF92461E2A03D115F804A0641CA4B21F2A07D164
:201AF000295D601C80B22A5C401C41EA022A84B2514694A00A4608F0CCF85046652819DC44
:201B1000652800F0CF80401E58D0401E00F00C81401E3FD0801E00F00081401E00F0EF804F
:201B3000801E00F0E180401E00F0D3805B3800F0C7805CE0663800F0A980401E11D01138C0
:201B500000F09C80401E00F09180093800F08380401E67D0401E5BD04FF66551401A4CD047
:201B700045E06019314607F02FF980460F460096484603C802AA3B4682E8030075A04246E0
:201B900008F087F83946404607F088FC002800F0CE80D2E077A008F07CF899E803008F424E
:201BB00008BF804540F0C3806019314607F029FE06F0F2FF002840F0BA80BEE06019314601
:201BD00007F002F90F468046009699E8030002AA3B4682E8030069A0424608F05AF899E8D8
:201BF00003008F4208BF804500F0A180A5E06BA05146324608F04DF899E071A008F049F8C5
:201C10006019314607F0FDFDC0B207F0BFFD8EE06EA008F03EF86019314607F0F2FD08F036
:201C3000BBFA84E06FA008F034F804EB050B3146584607F0E6FD82463146584607F0E1FDA8
:201C50004FF4FA5102464FF47A70514300FB0AF005F006F86BE068A008F01BF860193146A7
:201C700007F0CFFDC0B207F06BFA60E065A008F010F86019401C06F00DF958E066A008F077
:201C900008F86019401C06F063FB50E066A0314607F0FFFF61194878B21E92B2891C06F080
:201CB000BDF944E066A007F0F4FF68A0314607F0F0FF6019B11E401C89B202F0B1F836E055
:201CD0006AA0314607F0E5FF6019314603F080FA2DE06CA007F0DDFF6019314607F091FDDA
:201CF000C0B205F02DF922E068A007F0D2FF6019314607F086FDC0B207F048F817E066A065
:201D100007F0C7FF06F0E2FE6019314607F079FDC1B2012006F0FEFF09E06019314607F06C
:201D300070FD07F011FE02E05EA007F0B2FF04983619B4B2A0423FF7A3AE05B0BDE8F08F05
:201D5000483C002056444820636F64652025642025780A004445465F494420256C64206C66
:201D7000656E6774682025642074616769642025640A00C05345514E4F0A00C04445535478
:201D9000494420256C64206C656E6774682025642074616769642025640A00C056444820A8
:201DB000636F646520256420286E6F2068616E646C657229206C656E6774682025640A002E
:201DD000474F544F2053455455500A0056444820564F4C5441474520544852455348204499
:201DF00045460A00564448205741544348444F47204445460A00C046424C494E4B204354C5
:201E1000524C0A0054524947474552204E4F2057414B4555500A00C054524947474552204E
:201E300057414B4555500A0041544C415320434F4445206C656E6774682025640A00C046B0
:201E5000434F4E462053434845440A0056444820636F6E66696775726174696F6E206C6550
:201E70006E6774682025640A00C046C0524144494F205345545550206C656E677468202521
:201E9000640A00C057414B4555500A00474F544F20434F4E460A00C0424C494E4B204E4FB7
:201EB000570A00C054414753544154450A00FEE72DE9FE4FB84C0F460646F80B80F0478162
:201ED000B80880F0D480B54DDFF8D892DFF8E0B2DFF8E882DFF8F4A22C68B80F67D2B04888
:201EF0000678002E47D1380947D3AF4801264946067000240C70204607F080FDAB4808F02B
:201F100003F9AC492246584608F09BF9AA48017801291CD141460B78CBB9A94E306880B15E
:201F300008F01CF82B68A8493668A64D0A68C01A000B82182860B2EBC61F28BF0C6007D249
:201F50000A60A4484FF0005107F0C4FF2CE00670504640F609010180417B01F0F00141F029
:201F7000010141734480017B01F0F00101734460974E306018E0390914D2B80BC0F00481D4
:201F90009D48001D08F066F9061C08D0706830B17468F068B6F91C1098A20CCAA04727F404
:201FB0000057F1E00021017027F00807ECE0ECB1042007F017FBC8B107F0D0FF864A2968FB
:201FD0001060814226BF401A401E401A000BF060F06800F58D70F060F16840F6C4108842A5
:201FF00003D340F2EE228A4200D9F0600024D6F818C02C60BCF1000F10D050460D30007887
:2020100010F00F0F0AD1708C40F60901814205D17CA20CCA30466FF48071E0476F495846A7
:20203000224608F00EF94546287850B10220ADF80000684607F0F2FC2C70BDF80800684999
:20205000088049460120674A674B087010781C70401C1070192008F01DF8756925B16BA266
:202070000CCA30462146A84727F000578CE004F10C0A504608F0EEF8061C5FD006F0BEFF51
:202090007368B2690025B561E3B1F37F42F002024FF00009904603F007035B1E07D05B1EDF
:2020B00003D09B1E06D15BA002E05CA000E05DA090E800037268F068B6F91C104B46944604
:2020D0004246E04708F0A0F98046B4F91200401C6FF31F306082E0681F30017801F07F01BB
:2020F0000170504607F072FE404608F089F9F068B0F99410B4F9122091421FD13B49097816
:2021100001291BD090F896409CB904688CB1384909680968B1F1FF3F10D03649096870308B
:20213000B4FBF1F108F068F9F068703008F060F904E080F89650284605F048FE504608F0E3
:2021500089F827F0020708B147F002071CE008F05BF901462046083008F07CF80646B469D3
:20217000084608F04DF9A0080CD25EB17068B169A143B16130B17568F068B6F91C10002332
:202190002246A84727F480471FB11248394607F0A1FEBDE8FE8FC0469031002054320020F8
:2021B0009D320020993200209732002011770000D4300020819800009B32002096320020B2
:2021D000443200205C32002040320020A4310020001004408C2F002058320020C14D00003D
:2021F00078300020A032002098320020703D00206432002034B900009031002000000000DA
:20221000200000000000000000000002000000000000000400000000000000100000000078
:202230000000004000000000000000202DE9F04F09AFADF13C0D00900292388801911E4660
:20225000ADF83400101C08BF002000F0828100274FF0010B00F10109B846DA466BE125296A
:2022700040F062811078521C02922D2818BFADF8228004D11078ADF822B0521C0292302810
:202290001CBF4246434605D1114608785B465A46491C02912A284FF0FF3516D128460B93A4
:2022B000346809900299CDF81C80E01C4B1C20F00300001D306050F8044C08780293002CE1
:2022D00044BFADF822A0644212E0444609E0610001EBC40140180299A0F130040878491CCA
:2022F0000291302801DB3A28F1DB0B93294609912E282BD10299087843462A2801F10101F6
:20231000029111D1099330680794C01C20F00300001D306050F8045C002D48BF45460878E6
:202330000995491C029112E045460AE0690001EBC50140180299A0F1300508782B46491C66
:202350000291302801DB3A28F0DB099307940AB122460B926C2804D04C2818BFADF820808A
:2023700005D102990878ADF820A0491C029103A9CDF8288007AB0E9164280C9300F08B806F
:20239000692800F08880BDF834C0752872D078286ED06F286AD0702850D063283DD0732882
:2023B0001ED0019802990128A1F10101029115D96B490C68B5F1FF3F03D0A84288BF6D1C14
:2023D00000D8019D0995684602A9324607ABA047C71902990A9801F1010974E040462AE072
:2023F00030680299C01C20F00300001D306050F8040CBCF1000F01F10109014608B956A0F0
:2024100001460E9107F0DCFD0A90B5F1FF3F5BD0A842C4BF281C0A9056E03068C01C20F048
:202430000300001D306010F8040C5D468DF80C0002990A95584601F1010945E008203568D2
:202450000B90E81C20F00300001D306050F8041C0822102307A805F0A9FA401E0E904021A4
:20247000017002990E9801F1010929E0082302E0102300E00A230299306801F10109C01C3D
:2024900020F00300001D306050F8041CAA42BCBF2A1C0B9210E00299306801F10109C01CBF
:2024B00020F00300001D306050F8041CAA42BCBF2A1C0B926FF0090307A805F077FA0E907C
:2024D0000C9D281A0A90079CBDF82250241A65B906E06846202101AA07F0F2F8079C7F1CA2
:2024F000641E0794F5D50A9800E007940546401E0A9075B9BDF82200E8B10798401E079053
:2025100019D46846202101AA07F0DAF807987F1CF4E70E98411C0E91017801AA684607F0DB
:20253000CFF80A987F1CE1E7684601AA07F0C8F87F1C09F101094A46029812F8011C401C63
:20255000002902907FF48BAE009808B14146017038460FB0BDE8F08F286E756C6C2900C08E
:2025700040B90000002810B50BD40A2809DABB4BC40018591B1920B1186884695868A0471D
:2025900010BD4FF0FF3010BD70B50646307870B1B24C502578342046314607F06BFC002867
:2025B00008BF201C04D0283D2834282DF3D2002070BDBFB5044620683A2107F0AEFC071CA7
:2025D00014D02168781A7D1A0828C8BF082568462A4606F033FF002005F80D006846FFF75D
:2025F000D3FF00281CBF7F1C276001D19B4850300090BFBD9A491CB5096800908847684661
:20261000FFF7D7FF006A014600988847044695480068804720461CBD3EB5914A0091126858
:202630000190904701A8FFF7C4FF05466846FFF7C0FF8C4CA84204D0206880474FF0FF30BF
:202650003EBD686A024600990198904705462068804728463EBD10B5044681480068804742
:202670002046FFF791FF7F49096820B1002404708847204610BD88474FF0FF3010BD002888
:2026900010B50BD40A2809DA744BC40018591B1920B1186844695868A04710BD4FF0FF3069
:2026B00010BD2DE9F8436E4E89463168009088476D4847684FB9012300F120010727002277
:2026D00043607F1E41F8082BFBD100F1080500F12004583000E00834DFF88881A04205D024
:2026F00021680029F7D13168A04206D14146086880474FF0FF30BDE8F88388476846FFF73F
:2027100058FF06467089641BE410400807D2F06803460098494622469847074601E04FF0FD
:20273000FF3741460868002F48BF3C1C09D4E2007189AE50AD186F608A083CBF41F00101C3
:2027500071818047D8F8000080472046BDE8F883002810B50BD40A2809DA404BC4001859F2
:202770001B1920B11868C4695868A04710BD4FF0FF3010BD70B5051C0CD40A2D0ADA384827
:2027900000688047E900354C364D6058641820B9286880474FF0FF3070BD206800690146D6
:2027B000606888470646B6F1FF3F07D0216800234FF6FE704A892360104048812868804745
:2027D000304670BD2DE9F047824625480068994690460F468047244C266856B9012304F165
:2027F0008001002250202360283801F8282B2828FAD21C4E35685046FFF7C6FE18B1A8475C
:202810000120BDE8F0871948803400E02834A04204D021780029F9D1A04204D1A8474FF0F3
:20283000FF30BDE8F08720465146082206F006FE002525726781C4F80C80C4F81090089834
:2028500060610998A0610A98E0610B9820620C993068616280472846BDE8F08774360020E2
:202870004C3D0020503D00206C3600203C37002070B50446B048006815460E4680472B46E7
:202890003246B3F5807F88BF4FF48073AB4D201268702C701E0AAB702946EE70F32005F0D6
:2028B000FBF90021284605F010FAA5486E782C780068804704EB062420B270BD38B5054690
:2028D0009D4800688047284607F07AFB9B4C431C2A46F520214605F0DFF90021204605F07F
:2028F000F4F99748657800682478804704EB052420B238BD9048F8B5006880478F4D0022C3
:20291000F8201346294605F0C7F90021284605F0DCF98B48AF782C78EE7800686D788047A1
:2029300004EB074000EB066000EB0520F8BD70B50446814800680D46ADF1680D80476846C0
:20295000214607F0F5FA204607F03AFB461C294606EB0D0007F0ECFA284607F031FB774C88
:2029700080196A46401C21460346F72005F094F90021204605F0A9F97148657800682478A1
:20299000804704EB052420B21AB070BDF8B504466948006816460D468047B6F5807F88BF08
:2029B0004FF48076654F00222012787013463C703946BE70F220340AFC7005F06DF92946A6
:2029D000384605F082F95E487D783C780068804704EB052420B2F8BDF8B5064656480068DD
:2029F00014460F468047554D211269703846A8702C70010A3046E97007F0E2FA431C3246ED
:202A10002946F02005F048F90021284605F05DF94B486E7800682D78804705EB062528B2D5
:202A3000002848BF041C2046F8BDF8B507464248006816460C468047404D384600222870F6
:202A50000012AC701346AE7129466870200AE870200C2871200E68713012E871F42005F087
:202A70001BF90021284605F030F93548EF78AE782C7800686D78804704EB076000EB06403C
:202A900000EB0520F8BD70B504462B4800680D468047204607F094FA284E431C2246F620BF
:202AB000314605F0F9F82946304605F00EF9244800688047284607F083FA002814BF281C0C
:202AD000002070BD38B505461B48006880471B4C002228121346607021462570F12005F0E1
:202AF000DBF80021204605F0F0F81548657800682478804704EB052420B238BD0E48F8B5A8
:202B1000006880470D4D0022F9201346294605F0C3F80021284605F0D8F80948AF782C78F9
:202B3000EE7800686D78804704EB074000EB066000EB0520F8BDC0464C3D00201C320020A2
:202B5000503D00202DE9F84F82468548DFF8049235380068800880F0EE8006F0C7FD064618
:202B700083480830D0F8008000254FEA2874641C5FEA98500AD2C6F13E0016F10A0F4FEA25
:202B9000E000D8BF08208442B8BF041C6E485FEA98610FD25FEA58610CD38346DBF80000D3
:202BB000C0F3042007F086FA0746DBF80000C0F304600CE083465BF8D00CC0F3046007F08E
:202BD00079FA0746ABF513700068C0F3044007F071FAE7198346162F05DA17F10A0FB8BFBC
:202BF0006FF0090700E01527584A594807F01F0141F4F8511180006810F0030F18BF01255A
:202C1000C00828BF45F00205BAF1000F18BF45F00405494691F90700301A052804DA887974
:202C3000A84208BF888865D0DFF82CC10F2EA6F10F0E26DB0EEB0610A0F1F00E4FEA2E20B3
:202C5000072888BF07200446062C88BF06245CF824900422634602EB84029A58EC08A2EB1D
:202C7000090202F0FF0324BFC2F307242344AC0824BFC2F3074423446C0828BF03EB12635F
:202C900001E0002318465CF820C0EC080CF0FF0224BFCCF307242244AC0824BFCCF30744C9
:202CB00022446C0828BF02EB1C629BB2AEEB00246343BBEB070003F1800302EB1322D8BF4B
:202CD000012008F0FF07342343437B43B3FBF2F04FF6FF72824238BF101C802E80B2888015
:202CF00005DA16F1800FB8BF6FF07F0600E07F26CE718D71194A12681F280A604FF0000263
:202D100008D340F2FF11814206D24008521C8142FBD301E01F208880124F11490F38000971
:202D300042EAC00247EA0200C1F8FB0F0026C1F8FF6FBDE8F88F0D4F0B4E49460820376023
:202D5000891D0870BDE8F88F881300506E62084024220840FC3100209C13005008200940CB
:202D70003500094000E7A48030100940FDFDA400AC3F00502DE9F04F0128ADF1140D40F0EB
:202D9000F280DFF81492D9F8DC00012840F0E9800220C9F8DC0007F027FB0290012005F045
:202DB0009BFD20B101210646C9F8DC10D5E007F017FB03906E484FF00008C0F800800120D8
:202DD00006F010FC012818BFCDF8008004D1404605F0EAFA0120009066486E4CC0F8008017
:202DF0001934D4F8FF0F112007F0A6F900280CBF46460126102007F09FF908B146F0020679
:202E10000F2007F099F908B146F004060B2007F093F930B1584800685849006B0246088876
:202E300090470A2007F088F90028404618BF01204FF0805B0BF5DC7528B128685049006B8B
:202E50000246088890474F480127076028688069014646F0200088474B48076007F066F958
:202E700000F001010191400815D2484807F029F98246BAF1040FF8D0BAF1010F06D1DBF833
:202E9000D801406802464148032190474049086820F0030008604046FFF754FE2868D4F837
:202EB000FF1F806B8047019801280ED0BAF1010F06D1DBF8D8014068024634483946904792
:202ED0003349086840F0030008602A480760286840690146304688470B2007F02DF928B19C
:202EF00028682649C06A0246088890470A2007F023F928B128682249C06A02460888904700
:202F1000204807600322C9F8DC201F4BC3F800802868406B0146304688470128F8D104206E
:202F300005F0DAFC124807601A48D4F8FF1F01688909FCD30098012802D1384605F034FAAA
:202F500007F0EEF8082005F0C7FC06460398C9F8DC7007F041FA05F0C1F8029807F038FA0D
:202F700002E0042600E00126304605B0BDE8F08F0C40094000022243B80100102CB7000037
:202F900028B700002820086080010443004003402422084014100940A83200202DE9F84FF5
:202FB000DFF8D48198F900102A2048437149704D085A2988401E8842CCBF002701276F4E16
:202FD00096F90010B1F1FF3F08D088F800104FF0FF30307054A006F05CFE0127684C207834
:202FF000B0B105F0B7FF674A674912680968801A81420DD265494FF0FF300022307091F9C5
:20301000001022704BA088F8001006F042FE01275F4898F900C05F4CDFF87C91DFF87CB19A
:20303000DFF880A190F90060FFB92A88002E16D47100631818887700401C18804B46E45B56
:20305000D85BA04206DD5B465548CC5E405A0019C85204E05B464FF0FF3023F81600521CA1
:20307000504692B201782A8023E035A0614606F010FE5046002298F900C001782A8021B3C0
:20309000CE463C48DFF818912A232646DA460F4603FB0C00083830F80A3F2AF8023B4488F4
:2030B00026F8022B838829F8024B7F1E2EF8023BF1D151B15B4600209B1E33F9024F9442AB
:2030D0000DD0491E00F10100F7D131484FF0FF33614603701DA006F0DCFDBDE8F88F2C49B1
:2030F00043B208701EA0614606F0D3FD28482E4A90F900100846105C401E02280AD9C01FA3
:2031100008D008380ED198F800002A88C9B204F041F905E098F800002A88C9B203F0DAF955
:2031300022490860BDE8F88F7775702D3E2564210A00C04677646E2D3E2564210A00C04691
:203150006E663A202564210A00C046C06F6F70732063256420732564207225640A00C046A3
:2031700063256420732564207225640A00C046C094320020082B0020523C00205A3C0020AF
:20319000593C0020543C002060320020583C0020A3320020243200202C3200201432002005
:2031B00034320020A2320020743200208C3200202DE9F0411C4615468C4208BF854282BF40
:2031D00000230022E5E0002C08BF002D0AD100290EBF00286FF000006FF0000100F0E1F834
:2031F000BDE8F0815FF000085FF0000E002C08BF8D429CBF2C1C0025070C47EA01470E0CC5
:20321000B44208BFBD429EBF5FEA044444EA15445FEA0545070A47EA01670E0AB44208BF5B
:20323000BD429EBF5FEA042444EA15645FEA0525470847EAC1774E08B44208BFBD4200F2DB
:203250009380870847EA81778E08B44208BFBD427CD8C70847EA4177CE08B44208BFBD42A3
:2032700066D8070947EA01770E09B44208BFBD4250D8470947EAC1674E09B44208BFBD4290
:203290003AD8870947EA81678E09B44208BFBD4224D8C70947EA4167CE09B44208BFBD42D8
:2032B0000DD8E60146EA5566EF01B14208BFB84201D3C01BB14158EB08085EEB0E0EA601A3
:2032D00046EA95664FEA8517B14208BFB84201D3C01BB14158EB08084EEB0E0E660146EA4A
:2032F000D5666F01B14208BFB84201D3C01BB14158EB08084EEB0E0E260146EA15762F0104
:20331000B14208BFB84201D3C01BB14158EB08085EEB0E0EE60046EA5576EF00B14208BF06
:20333000B84201D3C01BB14158EB08084EEB0E0EA60046EA9576AF00B14208BFB84201D322
:20335000C01BB14158EB08084EEB0E0E660046EAD5766F00B14208BFB84201D3C01BB14143
:2033700058EB08085EEB0E0EA14208BFA84201D3401BA14158EB08085EEB0E0EA34208BF7C
:20339000AA423EBF2D0A45EA0465240A89D3734642461E4617460B46024631463846BDE8A6
:2033B000F08170472DE9F843814606F0B3FE002100B90121724E30680028FCD0734D0124E9
:2033D0002D1DEF6A346009B106F0AAFEDFF8B481C7F3072008F1BC01086006F09BFE002193
:2033F00000B9214630680028FCD02F68346009B106F096FEC7F38440C8F8C00006F08AFE26
:203410000146002001B92046014630680028FCD0ED69346009B106F083FEC5F38120C8F80E
:20343000D000B9F5C061C8F8B81000F0A48098F8D80068B9C8F8D410D8F8C000C8F8C800FC
:20345000D8F8BC70C8F8C470D8F8D060C8F8CC60D8F8D410D8F8BC60002954BF02206FF023
:203470000100454605F1C8031A6801EB41014018411000EB917002EBA0021A60D5F8C810FC
:20349000C5F8C46000291CDD1E293DDDD5F8CC0030B93429B4BF15391E21C5F8C81025E03F
:2034B0002A29BABFD5F8C8000B381E20C5F8C800D5F8C4003F28B4BF401C3F20C5F8C400EE
:2034D0001FE0D5F8CC00032812D011F10B0FC6BFD5F8C8000B30201CC5F8C800D5F8C40074
:2034F0000028CCBF401E0020C5F8C400032009E011F1150FC6BFD5F8C8001530201CC5F880
:20351000C8000020C5F8CC004FF08058D8F8A401B5F8C4101C4E40684FF47F42082307468F
:20353000009130463021B847D8F8A401406804214FF400321123074600943046B847D8F813
:20355000A401B5F8C81040684FF4F80212230446009130460421A047D8F8A401B5F8CC10BC
:2035700040684FF440620A230446009120213046A047BDE8F883002088F8D800BDE8F88350
:2035900000800C40A832002000A00C4000A00C402DE9F04FADF1840D209001F0C3F905F0A7
:2035B0000BF90024012804D106F08CFB022808BF012459490868C0F38150012805D151F864
:2035D0000C1C0120090E884004435448007806F02BF9DFF84C81DFF84CA1C8F8000030B135
:2035F0005246FF2107467F1E02F8011BFBD120990968002501F0FF02FE2A1BD0DDF880C0CE
:2036100052462B46012701F0FF06FF2E0BD0B04203D907FA06F6344201D0022079E001F0ED
:20363000FF01354353545CF8041F5B1C01F0FF06FE2EEAD1092002F0B5FA3B492098242244
:203650000823086001A8002106F0BEFE4FF0010901AA3E488DF81C90494606F0B1FED8F89C
:2036700000303BB33A4E00274FF0040BBA4609FA07F0044218D1054204BF07F0FF0141F4C0
:20369000C04104D027482099C05D51F82010274802F0C4FEF8B24FF0FF3106F099FAD8F8F2
:2036B0000030C6F800A001E0C6F800B07F1C361D9F42DCD30AA800213022082306F07CFEDF
:2036D0001B4D1D4A2878002410210AAB12901948009406F06DFE16A828220823214606F0D9
:2036F00063FE686816AA16491C9014481D94234606F056FE134A52F80D0C494620F4F85053
:2037100040F4005042F80D0C0F4BC2F8FF1F2046196021B0BDE8F08FB43F00509F32002088
:203730003C2800203C3000206C320020007FC76720B900009C300020FD9B0000582F0020FA
:20375000598800000D30094008000940B8300020E82C0020F8B584460F1C5BD06848674938
:2037700008605578167885B1622D4FF0010003D09178622918BF00202B2D4FF0010406D0A1
:2037900091782B2918BF002401E000200446002144B9722E08BF102205D0772E14BF612EE3
:2037B000202200D00A46612E0CBF80230B1C1A43002814BF4FF480730B1C002C43EA020261
:2037D00014BF40230B1C13437B6108B14FF40041613E10D0113E02D0761F04D012E00CB155
:2037F00041F002010EE0002C14BF02200120014341F4C06106E0002C14BF0220012001434F
:2038100041F4027160464FF4DB72FEF74AFF0028386001D50020F8BD3846F8BD70B5394D33
:20383000284603F039F9384C206802280BDB012655F8181F002903D4284603F02DF920680F
:20385000761C8642F4DB70BD70B505462F48006814460E468047204603F01EF928463246E8
:203870002146FFF777FF0446294800688047204670BD2DE9F8438046244800688946804767
:203890002449204C0F6857B901224FF0FF33072704F148000A607F1E40F8183BFBD11A4AF7
:2038B0001068002100280BDD0546A4F1180353F8186FB6F1FF3F03D06D1E01F10101F6D184
:2038D0000A290ED0CB00884203EB01131C4404BF401C106018220021204603F061FE2146C7
:2038F00000E0002140464A46FFF734FF04460848006880472046BDE8F883C046543D002072
:203910002D380000B8330020183D00204C3D0020503D0020683D00202DE9FC4F83F0004380
:2039300001E02DE9FC4F1F03FF0847EAD2574FEA42284FEA43095FEA595906D147EA080A75
:203950001CBF00210020BDE8FC8F57F000575FF4E06E1EF1FF0EF14505D14FF00000190D3F
:203970000905BDE8FC8F002B05D55FF0000AD8F100086AEB07070C03E40844EAD0544FEAE1
:2039900040254FEA4106760D08D144EA050A19BF00210020191C101CBDE8FC8F44F0005467
:2039B000764504D10020090D0905BDE8FC8F002904D55FF0000A6D426AEB0404B6EB090ED4
:2039D00008D5A2463C465746AA464546D046CEF1000E4E46BEF1360F5CBF4FF0000B23E0A5
:2039F000BEF1000F04BF4FF0000B1AE0CEF1390ABAF120092EBF08FA09FB07FA0AFB4BEAEE
:203A1000080BDEF1200A07FA0AFA38BFBA4647FA0EF72DBF28FA0EF8AEF1200E4AFA0EF81D
:203A3000D04415EB08057C4154EA050A02BF00210020BDE8FC8F002C58BF4FF0000A06D5B2
:203A50005FF0010A5FF0000E6D426EEB0404A6F101066D006441FAD515F4806E11D005F43F
:203A700080794BEA090B15F5806554F1000428BF761C0BD205F400795BEA090B08BF25F4BB
:203A9000006525F4E0656D0044EB0404B61CDEBF00210020BDE8FC8F5FF4E06E1EF1FF0E12
:203AB00076450AD34FF0000013F00043FF21C900C91D09051943BDE8FC8F270547EA1530CE
:203AD000210B41EA065141EACA71BDE8FC8F70472DE9F84F9A4693460D46044606F094FCA2
:203AF000DFF85C810AAFB8F91220B8F91010009040F6F870891A0840082880F29280B8F917
:203B10001000401C6FF31F30A8F81000B8F9109005F0B4FF064604F1700005F0EFFFB56026
:203B300086F81EB0C6F804A0F460A6F81C9097E80C0051A003C800251040F577D8F8002011
:203B500006F11007194087E80300002A5CD14046314605F0DBFA00285BD0A4F894904448BF
:203B7000F17F0778DFF8DCA041F08001F17784F8965067B151460F784FB1344A3449324BC9
:203B90000570012015700A781870521C0A70009806F036FCD8F8040000284ED15146087816
:203BB00000282DD12B480078012846D006F02CFC054629480078F8B9B06804F01FFC284B08
:203BD0002C4A26491B681268086038B9284606F017FC2448042106F07DF92EE0D06809686F
:203BF000214C091AB1FBF3F1204606F005FC204606F0FEFB28461EE01C4901200870F9E799
:203C1000192006F047FA18E04046314605F07EFA50B9B8F9100000F6FF706FF31F30A8F842
:203C300010006FF0010905E0A4F89490F07F40F08000F077009806F0E3FB4846BDE8F88FAA
:203C500090310020993200209D32002096320020A032002098320020973200204432002056
:203C700034B900008C2F0020F42F00209A3200209C32002064320020F1EFFF9F20000000FB
:203C90002DE9FC41654C5E4D5E4EDFF88081624F94F8E410481E0B2866D8DFE800F0802C76
:203CB00043062343062343067B69042907D001220A2945F8212C14BF0220032004E02021CE
:203CD000012045F8211C024684F8E200002045F8390C0827C5F8FF7FC5F8F37F45F8392CB6
:203CF000BDE8FC81052914BF09200620002584F8E40035607DE094F8E1700120383D002F29
:203D1000C5F81B0004BF0620002102D00021F160032084F8E400032045F8010C3160306854
:203D3000800866D294F8E4103748012503290FD00068406800216022052307460091404644
:203D5000B84794F8E400062814BF0A200720CEE7006840680221602205230746009140469C
:203D70000021B8470420C2E706F016FBBDE8FC812749002627480E60012505600E2001F000
:203D9000A7FE022005F012FB84F8E45084F8E360BDE8FC81002038600C25786027E04FF0B2
:203DB0008056D6F8A00100680146202088472C3D0F2045F8010C41F61D53C5F80330D6F8A9
:203DD000A401406800214FF4C07202250723844640460095E047D6F8A401C06800214FF494
:203DF000C072072306464046B0470120386084F8E45004F1780006F0FBFABDE8FC81C046A5
:203E100039400C4038600C40A401001000A00C402C500C4004800C4034600C40A8320020D6
:203E30002DE9FE4FDFF87CA1804600220C465C488AF80020B8F80010018032A005F029FF6B
:203E5000DFF864B1DFF864919BF800202046002140101FFA80FCBCF1020F18DB02EB820556
:203E700001234FF02A0E6D1C002038F813700EFB01F4461C5B1C04EB4004F0B29BB285427B
:203E900029F80470F1DC491C9C45C9B2ECDC8AF8001027A005F0FDFE4E462A270025D846B6
:203EB00001E06D1CEDB29AF80000A8420ADC40494FF6FF700880FFF771F823A005F0E9FEC4
:203ED000BDE8FE8F07FB05F0325A294624A005F0E0FE002498F80000A042E2DD600000EB77
:203EF000C40007FB0500301801890091418901918288C38841881FA005F0CBFE641CA4B2B7
:203F1000E8E7C04674616720706572696F643D2564206D7320696E697469616C20636F6EAD
:203F300066696775726174696F6E2025640A00C023636F6E663D2564202373657475707350
:203F50003D25640A00C046C07363686564756C6520696E697420656E6465640A00C046C0AA
:203F70002564206672616D65206C656E3D25640A00C046C0202073746172743D25642073C1
:203F90007465703D2564206C696D69743D25642064626D3D2564206F7074733D25780A001A
:203FB000503C00209E320020A2320020082B0020943200202DE9F0438046D8F80460D8F815
:203FD00008700C46ADF1340D06F01EFA3178012903D106F015FA0020A3E04FF0010986F804
:203FF000009006F00DFA207870706078B07060687060A068B060E068F06020693061207DB5
:204010003075607D7075A07DB075A069B061207F3077607F00257077A07F3562356310211D
:2040300086F83C10B0772C4674627463B462B46386F82C4086F82D4086F83D40786801F092
:20405000B1FD404601F0E4FE404603F007F878B935480068C068014638688847786801F00C
:2040700037FD06F0D1F9347006F0CAF9A04657E001A821463022082306F09EF9CDF818804B
:204090003A7B09920095294AB96806F1680001AB06F08EF901A828220823214606F084F917
:2040B000396907912249CDF8148006F1840001AA234606F075F901A824220823214606F088
:2040D00083F9B0788DF81C9038B906F1B800214601AA06F075F917483061707838B906F125
:2040F000D400214601AA06F06BF91348F06001A821462422082306F04BF90694ADF8144077
:2041100006F1F0000D49CDF81C800A2201AB06F03BF90B4A06F154000421434605F0FAFAB8
:2041300040460DB0BDE8F083D0010010BD5500009986000003A20000FBA100009D6D0000B7
:20415000B5A000002DE9FE4F5F4E0C9F8C461546FA21C400B3FBF1F204EB4014D2040CF08D
:20417000070141EA124188B2C2103119C881194639A0634605F08DFD4CF25038A419A8453A
:2041900005D24E48A84234BF0526062600E00F26284605F093FC45A20CCA01F097F8824662
:2041B0008946304605F0F1F90B4602464946504601F08CF80FF2FC0A9AE80C0000F07EFA9B
:2041D00004F0C8FC814605F079FC9AE80C0001F07DF8834630058A4605F0D7F90B460246C6
:2041F0005146584600F06AFA33468DE803004A4621A0294605F04DFD5FEA59500AD12169DF
:204210002F4806F00F064FEAC9230840064346EAD30626612B4E4FF47A7100E0361DB088B4
:204230004843B842FAD2328873881BA0394605F030FDB1784046A842217505D3607D00F038
:20425000C00040F0050004E0607D00F0C00040F008006075BDE8FE8F646576696174696F54
:204270006E202564203D202564202A20323530206D6F642025640A0073796D626F6C726194
:20429000746520256420703D256420723D2564203D3D3E2025660A007278627720256420C5
:2042B0003E3D20256420282564290A0000000000000030410000000060E3764120A1070093
:2042D000F00000E0703A00203C3700202DE9F84F804692460868DAF80050067800271C460D
:2042F000BB46421C242E0A6026D110F8016F521C532E0A6020D1ED1C25F003052D1D55F81D
:20431000040CE061CAF80050208B0090A168E269D8F800005346FDF789FF8346D8F800001D
:2043300010B15844C8F80000DAF800502068E7600127A0EB0B002060662E05D0002F64D154
:20435000E16901200E705FE0208B40B9ED1D25F007050835A5F1080090E8000309E0ED1C0E
:2043700025F003052D1D55F8040C04F0BBFD894680462AA20CCA4946404602F085FF28BF14
:20439000002705D2206989F000490127401E206124A20CCA4946404602F0B9FF31D34046D8
:2043B00004F0E2FA064605F0F0F80B46024649464046FFF7B1FA1DA20CCA00F087FF04F0A6
:2043D000C9FB0146606904220A2303F0EFFA401EE0612E21017063692269E06931461B1A1F
:2043F000E360D21A0A2303F0E1FA002F08BFE06104D0401EE0612D210170E0696169081AE5
:2044100002E004A0E0610720E060CAF800505846BDE8F88F286572726F7229000000000007
:20443000000000000000C0FFFFFFDF41000000000088C340474848492DE9F041ADF1280DCA
:2044500002F05AFC4C49086010B924A005F098FF00276846242208238DF81870394605F027
:20447000B3FF69463846024605F086FF3B4C69463A466060104605F07FFF012160600A461A
:204490001FA005F006FC364C3C2208233946204605F06EFF4FF4007601250220DFF8C880E4
:2044B0003049A0613B462662224625612F48E161414605F059FF2E483B4626624146A561E2
:2044D0002246E0612B48256105F04EFF2B48017817A005F0DEFB0AB0BDE8F0814572726F0F
:2044F0007220696E697469616C697A696E6720626F617264204C45442070696E730A00C04E
:204510004C45445320636F6E73747275637465642073656D6170686F72657320666F7220B7
:204530006C6564732025642C2025640A00C046C04C45445320696E697469616C20626C69EC
:204550006E6B20636F756E746572203D2025640A00C046C0D8310020403D0020E431002081
:20457000A42E002008200020316E0000B42D0020081E0020642D002050320020483D002013
:204590002DE9FE4F054648484A4E0C46B4FBF0F180468AB2E90001EB051108FB1240761883
:2045B000F28105F08BFA3CA20CCA00F087F80FF2F00999E80C0000F089FE04F0CBFA87B2EB
:2045D0003782F689304605F079FA83468A46384605F074FA99E80C0000F070F80B460246BD
:2045F00051465846FFF79DF93A468DE803001BA0314605F04EFB2D48A0422CD92C4F002289
:204610004FF0FF3110463E460DE008FB1343002B48BF5B42B1F1FF3F01D0994201DD194663
:204630000246361D401C3388002BEED1960006EB0708BA5BB8F802300FA0214605F029FB12
:204650001D49BA5BE80000EB451009180A8498F8024081F82440BDE8FE8FC046663D2564E5
:204670002066756C6C2025642066726163203D3D3E20252E36660A007375622D3147487A50
:2046900020663D25642062616E64202564206469762025640A00C0460000000080842E41D1
:2046B00000000000E0FFEF4040420F0000CA9A3BA8340020503900203C3700202DE9FC4121
:2046D00091EA03084CBF4FF000484FF000084FEA03354FEA153556006D414FEA43075FEAA7
:2046F000575711BF45F4001500210020BDE8FC814FF4E06E1EF1FF0E77456FD04FEA013366
:204710004FEA133342005B414FEA4104640D11BF43F4001300210020BDE8FC8174455DD0DA
:20473000E41B002100205FF0360EAB4200D1B24205D340414941921B63EB050301E040419C
:204750004941BEF1010E05D053EA020702D052005B41EAE7BEF1200F09D2BEF1160F0CD3E9
:20477000CEF1200720FA07F100FA0EF00FE0AEF1200E00FA0EF1002009E001FA0EF1CEF1C2
:20479000200720FA07F741EA070100FA0EF011F4001F02D140004941641E401C51F10001BD
:2047B00011F4800F1ABF641C21F4800121F400114FF44077FF37E419DEBF00210020BDE890
:2047D000FC8107F58067BC4208D249084FEA300041EA045141EA0801BDE8FC810020FF21C1
:2047F0004FEAC101C91D4FEA015141EA0801BDE8FC8170472DE9F041424C474D8046C8F346
:204810008140401E02D0401E2AD025E0284620300168880C20D24FF4804020603A48D0F8C0
:2048300002204B0AC1F3033703F0800322F08F02134347EA0302C0F80220D0F801300E126B
:2048500066F30303C0F80130026801F0E70722F0E70247EA020102E04FF00041204601605F
:204870002A4E06F108000068C0F3C0070FB94020A0624FF40070206405F0ECFB40F0300032
:2048900084F8C800C8F3815038B3401E03D0401E1ED002211DE0012004F0A4FE0746042088
:2048B000394603F05BFB042004F09CFE8742FAD1366826F07F4004F061FD154800680368E5
:2048D00007214FF06022300E98474FF4806020600321042003F042FB06E00420012103F088
:2048F0003DFB0C4804F04AFD284600680B4947F6180700F03F0084F8CB0F094E0F80306858
:20491000BDE8F08140A00C400A600840A83F0050B4010010BD3786006C13005070B00C40E2
:204930002C2009402DE9F043484C94F8E700ADF12C0D002877D13D4F387B0125002124226F
:2049500084F8E7507E6884F8E6000823C4F80C6101A805F01DFD002604F10C00069601ABD1
:20497000ADF8146032490796324605F00DFD314904F1300001AB324605F006FD2E4904F158
:20499000540001AB324605F0FFFCB868014628468847DFF8AC8029487B7B0078D8F8041035
:2049B000C1F381571BB1032F03D184F8E150032F1ED0022F1CD0012F2ED14FF08059D9F887
:2049D000A401204C406803214FF040521C230746009131462046B847D9F8A401406831468B
:2049F0004FF400720923074600952046B84713E0022004F0F3FC032F0CBF4FF47A7142F228
:204A10001071114800685434B1FBF0F1204605F0F3FC204605F0ECFCD8F80000C00802D236
:204A3000304604F0DBFC0BB0BDE8F083F4B80000DF3A0000C16E0000857100009F32002077
:204A5000B03F005000A00C4034B90000A832002070B5ADF1380DFFF765FF3249086828229D
:204A7000082340F00200086001A8002105F09CFC2D4EB0782E4907902C48002301AA05F022
:204A90008FFC00213022082301A805F095FC002519213078284AADF81C5001AB0990254872
:204AB000009505F085FC2822082301A8294605F07BFCF07822490790204801AA2B4605F0FF
:204AD0006FFC3022082301A8294605F075FC01241A2170781C4AADF81C4001AB099019480B
:204AF000009505F065FC194819492A46134605F04BFC184805F008FB1849194E0C701648F9
:204B100035704FF6FF728283C577164B1D70164C257016490D70174E3560154A15700EB08C
:204B300070BDC0460020094028B900008C2F00209D9E0000D430002081980000C02F002086
:204B5000496600000C31002061840000F42F00201D9400005D5800005C3000209632002017
:204B70009B32002098320020973200209C3200209D3200205432002038B505F00FF9A8B19F
:204B9000801E02280CD9001F012804D91AA005F080F804210EE024A005F07BF8022109E0C1
:204BB00029A005F076F80120014604E02DA005F070F80321012004F0ADF835483349006804
:204BD000B1FBF0F5284605F02FFC324C02E0206805F0C6FB206805F0C3FB284605F024FC4A
:204BF000206805F041FB0028F1DD24A005F051F805F0D2F938BDC046524553455420534FF4
:204C1000555243452077616B6575702066726F6D2073687574646F776E20286F72206F740C
:204C3000686572290A00C046524553455420534F555243452073797374656D2F7761726DCD
:204C50002072657365740A00524553455420534F555243452056444428522F5329206C6F65
:204C700073730A00524553455420534F5552434520706F776572206F6E0A00C0574154437D
:204C900048444F472072657365740A008096980034B90000903200202DE9F0430746880FEB
:204CB000ADF1140D75D303F015FD404D00261C352E60394845F81C0C012004F09FFE37482F
:204CD00005F022FABC68B14640F60A01344A6680537B118090465680107BC2F8049003F01C
:204CF000F00300F0F000107343F00103537300E01C46636813B118888142F9D1C4F8048013
:204D1000607B00F0F0006073264805F0A3FA80680088C91F81421DD0491C81421AD03B8C14
:204D3000C3B197F82C107E8497F82D00C7F8249001F0F00100F0F00087F82C1040F0010045
:204D500087F82D0007F12003C8F80430507B00F0F0005073B868694600F050FE684605F06A
:204D700071F9B86800F006FD28680028FCD02E60012004F037FC012808D0607B00F0F00090
:204D900040F001006073084805F0BEF9B86845F81C0C05B0BDE8F08301010E04C11E0000BE
:204DB000A431002090310020B1820000001004402DE9F04104F09EFF3F4D3E4EDFF8FC8043
:204DD0000446A00820D330464168E9B1002242608B690A690F6922401A4342F0020205F197
:204DF00008038A611A68BA4301F110071A6097E80C002A680C301B1C9A432A6004F086F941
:204E10004046022105F066F87068A10815D200F1100191E80C00002702EA04013B40002BD9
:204E300008BF002909D081691440B0600C4384614FF48041404605F04DF87068002837D14B
:204E5000304605F007FA071C32D01E48F9680068884228D1B86803F0D1FA19490860E8B976
:204E700005F1080138690A68104308602B6807F1100494E80300081C1843286000222A6183
:204E9000B86845F80C0C05F1100000680028FAD0304604F09BFF7760BDE8F081086802F0DA
:204EB00095FFBDE8F08140464FF4805105F012F8BDE8F081903100200C1004408C2F00206D
:204ED0004432002064320020F8B5344D06462878002861D0324CB4F91200B4F9101088422F
:204EF0000ED0214604F02AFC18B9616801B1606830B1B0F91C1034A20CCA304602F0CEFA9D
:204F100005F082FA274A2E4F1178002935D0491EC9B20029117030D105F072FA22480024EF
:204F300000782C7040B1204602F050FF06F138004FF0FF3105F06CFA06F1380005F00CFA92
:204F500006F1700005F004FA184805F0FDF9184805F0F6F9174805F0F7F9174805F0F0F9D7
:204F7000164805F0F5F917483C60357C0470012D12D10E2000F0ACFDF8BD05F041FA386863
:204F9000864204BF0020386006F1380005F0E4F906F1700005F0DCF9F8BDC046713D002003
:204FB00090310020A1320020993200208C2F0020D4300020C02F00200C310020F42F002074
:204FD00064320020703D0020020000000000007010B54FF4F03001884FF6FF700C46A04233
:204FF00007D01AA004F055FE31482146FCF738FD05E0012004F01AFF1BA005F0C1F9324CC6
:2050100094E8030004F06AFC94E803002FA20CCAFEF7CEF81EA0114604F03BFE254C0021F2
:205030003C220823204605F0A3F907234FF48060A361214A20622349E261204B204823619C
:205050002246002305F090F910BDC046636F6E66696775726174696F6E206C656E6774684A
:205070002025640A00C046C0636F6E66696775726174696F6E2064617461206D6973736930
:205090006E672C2068616C74696E670A00C046C0746167202564207374617274696E672097
:2050B000286C6F77657220646967697473290A0002E00100E02E0020081A002040420F00D4
:2050D000042E0020F1140000483C002040420F00000000002DE9F04707467D68D7F808904E
:2050F00090460C4605F090F9AE6A8246002E64D105F1F00004F002FD2C620024EC77504633
:205110006C6205F07DF905F07FF92F4E3378824623B9022004F062F901203070504605F050
:205130006FF92A4A1068414640F480701060384603F048FFA862C0B93846414603F016FBAC
:20515000A878D0B9A96805F1B80005F061F9E8B9AC621020E8774946284602F045FB05F026
:2051700053F98246307840B323E0D9F80010886B40F020008863A87810B12046BDE8F087FB
:20519000A96805F1B80005F043F910B1686ABDE8F0873846414603F0E9FA1020AC624946B8
:2051B000E877284602F020FB05F02EF98246307818B1022004F0FAF83470504605F020F960
:2051D0004FF0FF30BDE8F087A5320020301000402DE9F04F3B4D0F46002104462970ADF1EA
:2051F000340D0994002F0A9752D014F8016B14F8013B14F8010B14F8019B54F8042B54F888
:2052100004CB54F8047B54F804BB54F8048BCDF830C04FEAA31CCDF82CC00097CDF804B090
:20523000CDF8088003F03F030396203BCDF810C05FFA83FACDF814A0C311069300F03F0365
:205250000793CDF820900C9B13A004F022FDCDF800800B9928785A463B46FEF773FF287811
:205270004FFA8AF103F054FC28784FFA89F100F001FD28780C99FFF783F928781249099F6C
:205290000A9B0E54E21B401CC1B293422970ACDC0DB0BDE8F08FC04625643E3E202530389C
:2052B00078202564202564202564202564202D2D20256420256420256420256420256420DB
:2052D00025640A00A2320020743200202DE9FC4191EA03084CBF4FF000484FF000084FEA86
:2052F000C32545EA52554FEAC2264FEA43077F0D11BF45F0004500210020BDE8FC815FF4B0
:20531000E06E1EF1FF0E774555D04FEAC12343EA50534FEAC0224FEA4104640D11BF43F038
:20533000004300210020BDE8FC81744543D0E419A3FB0501A3FB06E7A2FB06631EEB030E9F
:2053500057F1000751F10001A2FB05631EEB060E57F1000751F10001FF1851F10001C019C4
:2053700051F100014CBF4FF4806E4FF4007E10EB0E0051F1000148BF641C01D4400049416B
:205390005FF44077FF37E41BDEBF00210020BDE8FC8117F58067BC420DD24FEAD02040EA9B
:2053B00041504FEA41014FEA113141EA045141EA0801BDE8FC810020FF21C900C91D090583
:2053D00051EA0801BDE8FC812DE9F84F3648DFF8DCE0DFF8DC80DFF8DC90DFF8DCA0DFF849
:2053F000DCB0032700F1100184460EF1280208F1180309F120040AF124050BF118069CE8FE
:2054100000471031A1F1100080E80047DFF89CE0BEE8000F2832A2F12800A0E8000FBEE849
:205430000007A0E800079EE8004380E80043DFF880E0BEE800071833A3F11800A0E80007E8
:205450009EE8004380E80043DFF868E0BEE8000F2034A4F12000A0E8000F9EE8004780E81F
:205470000047DFF854E0BEE800072435A5F12400A0E80007BEE80007A0E800079EE8004376
:2054900080E80043DFF834E0BEE800071836A6F11800A0E800079EE800437F1E80E800431C
:2054B000ADD1BDE8F88FC046083C00203C370020B03900206C380020DC370020503900208C
:2054D0007CB50546084602F04BFB354E02461821304604F071F804F06DFB324909684C68E7
:2054F00040F2FF32002380B22C2100903046A04704F0B8FD1C210246304604F05DF804F0C9
:205510004BFB02461421304604F056F804F016FC02461021304604F04FF8284602F07EFAF8
:2055300002460C21304604F047F8284604F0EEFB1D4C400040F020002070284604F0F2FB1A
:2055500040F010002070284604F078FA02462821304604F031F8284604F0FCFB400040F0AA
:205570006000E070284604F001FCC00040F0800004F8080C284604F005FC800040F47C40B9
:20559000A4F89300284604F043F802460821304604F012F84FF48000A4F2091108607CBD36
:2055B00000A00C40A401001049A10C402DE9F8430746D7F80880D8F800007D68066C16F4DE
:2055D000F06F466426D1F00910D2700952D395F83C00AC6B401E844288BF041C38462146F2
:2055F00003F064FCA86B001BA86308E0A96B384603F05CFC014695F82D00A96318B9A86B59
:20561000002837D101E00020A86305F1840004F093FE2FE0F00A0ED3D8F8000000214468B8
:205630004160A96B04F00F04202988BF2021384603F03CFC1AE04FF000094C4602E0A86B5B
:20565000401EA863A86B88B13846012103F02EFCD8F80000446814F00F04C0F80490EED02B
:20567000296B686B491E2963401E6863EC77384602F064F9B0090DD3AE6A5EB138463146B2
:2056900003F0A0FCA862A86A314618B93846091D03F06CF8BDE8F8832DE9F843DFF8C49070
:2056B0000446D9F800001F4615460E468047DFF8B8802068B0F1FF3F02D0042D03D017B9C8
:2056D000454628682EE0636873B16069010903D3581E04F09FFB606900216160A160E16008
:2056F00020F00800216100E0606905B9012520F00700012F45EA0005656108BF0026B7F599
:20571000807F88BF4FF48077B6B97F1C384603F025FF4546064628684EB96169666041F427
:205730008061616180474FF0FF30BDE8F883616941F00801616101E045462868761C666047
:205750002661BF19A6607F1EE7608047D9F8000080470749054A2868116080470020BDE865
:20577000F883C0464C3D0020503D0020543D00202D380000E0B501880025A1F6020159B145
:2057900043F20402891A04D0491E57D190F8246000E00226C76901E0C67B4769002F4DD056
:2057B0003F1F052044F2380357F8041F0A04120C934203D0401EF7D13F1D01E0C1F3034540
:2057D000002D3BD01F4B3046401F18D01C4A401E10D0001F0CD0801E0DD0C01E06D00F3845
:2057F00019BF1A1C6032184A443204E0121D02E0121F00E0083A1068C0F3834003E01A46A8
:205810001068C0F303200F2806D0A84216D921F4702141EA004110E0761F0AD0761F08D066
:20583000761F06D00F3E1CBF21F4702141F4802103D121F4002141F4E0213960E0BDC046CD
:205850000011005020130050C4100050042998B54CD1274804F0FEFC264C48B9264800F16A
:205870001F010978490838BF206803D3406800E0C06820604168214A097811604168126878
:205890000978914206D0876927B124A20CCA6FF0FF01B847022003F0A1FD112000F082F9BD
:2058B00001222168164B087C1A7018B115480078012803D00E2000F075F921684968124803
:2058D0008F680FB9CF681FB10021C1610F4F07600F4A40F2FF711160002787610D49416177
:2058F0000D4804F011FC192004F022FD98BDC04690310020643200205C300020D02108401F
:20591000983200209B32002000100440510007060000046002000040A94C00000000000053
:2059300000000002F8B505462F4890F900200E4602F003002843C1B20F4621A004F0A9F96A
:205950002A4C2B4900224FF48073204604F030FCF82239463346204602F06EFE254A0CCA54
:205970000021204600F0E0FB15F4E06F0BD0C5F3022617A0314604F08CF920460921F31771
:20599000324600F0D1FB280B0AD320460521042201F034F803F0DEFA0146204603F0D4FCA9
:2059B000A80B0CD320460A21042201F027F803F0D1FA11490968411A204603F0C5FCF8BDCB
:2059D000666C61677320253032782025640A00C0626561636F6E696E672077616B657570C5
:2059F0002025640A00C046C0523C0020F031002040290020483C0020543C002080B5028893
:205A1000A2F602073FB143F20502BF1A14BF002090F8240000E0C07B2C4AD2F88832401FBD
:205A30000B6048D0401E3CD0001F30D0801E24D0C01E18D00F380CD0D2F890024860D2F801
:205A500094028860D2F8BC0220F0784040F080503AE050694860D06A8860506C20F0784047
:205A700040F0704030E010694860906A8860106C20F0784040F0F04026E0D0684860506ADF
:205A90008860D06B20F0784040F0C0401CE090684860106A8860906B20F0784040F0A0400A
:205AB00012E050684860D0698860506B20F0784040F0405008E01068486090698860106BBC
:205AD00020F0784040F02050C86080BDC41000502DE9F843044604F097FC81462D4802194C
:205AF00092F8ED10491ECFB2002F82F8ED704BD12B4D05EB84052E78698836F07F07884603
:205B10001AD1F10911D24FF08054D4F8B801806901464046884704F5DC742068406B0146CD
:205B3000404688470228F8D121E000EB8800D0F80011002088471AE04FF08054D4F8B8013F
:205B5000006A014640468847D4F8B801806A014640468847D4F8B801006B01464046884798
:205B700001210D4A0D48116001688908FCD306F03F003F2801D0FFF7ABFF687800F03F00F1
:205B90003F2801D0FFF7A4FF484604F039FCBDE8F883C046A832002028200860282008400D
:205BB000FEB600002DE9F041064604F02DFC2D4D8046A91991F8ED00421C002881F8ED20ED
:205BD0004AD1294C04EB8604277807F03F003F2801D0FFF7E7FF607800F03F003F2801D084
:205BF000FFF7E0FF668837F07F001AD1F80911D24FF08054D4F8B801406901463046884790
:205C100004F5DC742068406B0146304688470128F8D121E005EB8605D5F800110120884730
:205C30001AE04FF08054D4F8B801C069014630468847D4F8B801406A014630468847D4F886
:205C5000B801C06A0146304688470121074A0848116001688908FCD3404604F0D1FBBDE8DD
:205C7000F081C046A8320020FEB600002820086028200840F8B52A4F2B4E04460846801EDA
:205C90001FD0401E06D01CA004F003F8254D2849002205E01BA003F0FCFF0021254D264A90
:205CB000DFF888C0E300384603EB4413C018C78A33464FF2FF0603EB04139A603E40644600
:205CD00015E014A003F0E5FFE100334601EB441103EB0413194D1A4C38464FF6FF074018A7
:205CF0000021C28A996007EA020646F40066C682C5615C60D960F8BD656E6320706C616981
:205D10006E0A00C0656E6320666173746C726D0A00C046C0656E63206C726D0A00C046C0AB
:205D30003C370020203B0020083C00206DA200002D750000EC38002029740000C83A00202D
:205D500071A20000294A2DE9F04180460125284815600768002FFCD0284C2949C020443CE5
:205D7000206001F1080003689B0806D250F8040C204B000C40F0F000187000200C3110636C
:205D90000E68304600F0FEFC40463146FFF798FB1C48B038816D40F21E226FF31F418A425D
:205DB00014D901680068C1F30367C0F3034007B17F1E072805D006280EBF0720801C00F0FA
:205DD0000F00114947EA0010083908703046FEF711FD0E4814380068C16802208847402053
:205DF0002060054F3D60BDE8F081C0461010094094022243566208409404604244600C4078
:205E1000A83F00506C1300500A600840B40100102B4AF0B538CAADF11C0D02A938C10CCA98
:205E30004FF0805681E80C0084684568D6F8D0112068C9688847216822488A6B10408863D5
:205E5000206840F2F271416495F83C0095F83D202168C0100DEB8000806810434863684658
:205E700004F062FA1A4FDFF864E0D6F8D0112B7FDFF854C06A7FA87F496857F823705EF801
:205E90002260AA695CF820300D46206801993E433343A8470F490A1F106840F010001060B5
:205EB000086840F001000860A07DFF2806D0E07DFF2803D0086840F44040086007B0F0BD68
:205ED000C0B700000DF8FFFFACB70000A4B7000094B700003010004038B504462568B5F145
:205EF000FF3F12D063690020990909D3616839B1A268914204D0521A2846FCF733FB6369DD
:205F1000002805D543F4806363614FF0FF3038BD60682061A060D80924BF23F03003636117
:205F3000002038BD2DE9F0470746194CDFF86C8020680FBB8047174A10680025002820DD3E
:205F50001549A1462E469246A1F1180454F8181FB1F1FF3F0CD0D9F8000080472046FFF7BF
:205F7000BBFF0746D8F800008047DAF800003D43761C8642EADB04E080473846FFF7ACFF38
:205F900005464046006880472846BDE8F087C0464C3D0020183D0020B8330020503D00208B
:205FB0002DE9F041DFF8B080044698F800001F4615460E46ADF1380D012804D0FEF748FD7B
:205FD0004046012101704EB166603DB1A56004F01BFA224A117819B104F012FA002038E0E0
:205FF000491CC9B2117004F00BFA01251FB9684603F0C8FF6F46386820607868E060387A2A
:206010002074F8686061386900B1A0610021782204F1200001F0C4FA05A8002124220823AA
:2060300004F0D2F904F138008DF82C50002105AA04F0C6F905A800212422082304F0A8F90C
:2060500004F1700006490B94002205AB04F09CF920460EB0BDE8F081713D0020A132002087
:206070001DA20000F8B5294E56F81D1CC90828BF02204AD2264F01462422384600F022FC22
:20609000244C0125FF20C4F8AB0F3969FA892248C4F8FF5F00F016FCF869804742F22B0192
:2060B00042F60B3044F8551C1C4944F8510C4FF480770F60002744F8217C44F83D5CC4F878
:2060D000B35FC4F8F35FD4F8F30F04F09DF956F81D1C134A41F0040146F81D1C116821F01D
:2060F000F05141F03451116004F08AF90D48006803F040F804F090F804F097F803F054F88B
:2061100004F08DF804F097F83846F8BD2D1009401830002055500C4000000E4000100E40B5
:20613000003009402C200940F8B505460F461C46164625A0211C03F0ACFD3946002C08BF26
:20615000FF2E38D94FF6FF70C217944208BF864228D9002C08BFB6F1FF3F1AD920A090E8FB
:206170000C009C4208BF964209D92846082200F045FC28462346324602F062FCF8BD284619
:20619000062200F03BFC28462346324602F034FCF8BD2846042200F031FC2846314603F0F1
:2061B000D3F8F8BD2846022200F028FCB1B2284602F040FFF8BD2846012200F01FFCF1B2B3
:2061D000284602F053FFF8BD7061636B696E6720696E74202538783A253038780A00C046BC
:2061F000FFFFFFFFFF000000F8B503F093FF03F09DFF044604F00C000C2845D0E0081ED268
:2062100003F048FA234E376805460120014603F0A4FC31686943884211D21F4C8220B0FB39
:20623000F7F0291A204604F0E7F8204604F0E0F80120FCF79FFD204603F060FC25E0200926
:2062500022D21648610939BF016821F00101016841F0010102460160D2F898004FF0805444
:2062700040F00300C2F89800D4F8B8018069014620208847D4F8B801094C806B21688047B0
:2062900001202060206800E030BF03F049FF01F09BFCF8BD34B90000B43200208C21084096
:2062B0002C2009402DE9F0414568876816460C4604F0AAF80346A86B3246214630B1184698
:2062D00004F09EF84FF0FF30BDE8F081AA6329630024EC7718466C6304F092F804F094F855
:2062F0001D4E8046307820B9022003F077F801203070404604F084F81849086840F400702C
:2063100008603968886B40F4FA6088636878002818BF201C1ED1696805F1D40004F078F8EF
:20633000B8B9AC633968886B20F4FA60886304F06BF80746307818B1022003F037F83470E3
:20635000384604F05DF81022696B286BEA77401A2863686BBDE8F081A43200203010004028
:2063700030B517A0ADF12C0D03F093FC00212422082301A804F028F8214D002101AA284621
:2063900004F01EF8214C20481E4A2146006815604FF0FF3203F0C4FF218810A003F079FC7B
:2063B000882000901B491A482022022300F010FE18B91949FF20088000E0FEE70BB030BD23
:2063D0005258207461736B206372656174696E672073656D6170686F72650A00437265615A
:2063F00074696E6720717565756520726561647920627566666572203D2025640A00C046B1
:206410004431002070320020483200207C3200200C3200207C3000204C320020F8B50D46E5
:20643000EEB2290824BF27494D40274BB400DFF89CC0195900EA05020CEA020200F4E02CE5
:2064500085EA0107BCF5E02F00EA070721EA0001C7F3006742EA010201D1510E14D300F495
:20647000E0210F4310D002F4E027B7F5A02707D0B7F5803704BF22F4003242F4A02203E049
:2064900022F4803242F4C0221A51114CC10D04D3C5F38052A4F1D0018A55000E10D303F0EC
:2064B000B3FF290E03D201220021B24002E00122B2401146236893431943216003F0A0FFBA
:2064D000F8BDC046006000A000100840007F077FD02002402DE9F0470546294B2748DFF810
:2064F000A4804C002A2604EBC1046E4325463146AC1904191E8867886D184519A3886D890A
:206510006489D21B5E4392FBF3F71FFA86FA07F001076A0813D2DFF87090E20B12D22FB102
:2065300004F0400104F08000084308D120465146FFF7F8F949460A884046028118E0032154
:20655000404616E0455A02F095FC90FBF5F16943401A0028C8BF0421F2DC07A003F099FB46
:2065700020465146FFF7DEF9494609884046018101210170BDE8F087210A00C0082B00202C
:20659000503C0020683C0020F431002098B504462068B0F1FF3F05D06269500904D342F432
:2065B00080626261002098BD100A05D320460021022201F03DFC626990094FF0000104D270
:2065D000D00924BF42F02002626167684FB9D00807D202F0070220464FF48073FFF75CF86F
:2065F0000146E2680020226101B9012098BD80B50168B1F1FF3F05D04269910904D342F482
:2066100080624261002080BD53094FF0000104D2D30924BF42F010024261476847B9D308E6
:2066300006D202F007024FF48073FFF735F80146002001B9012080BDF8B503F0E5FE224CAE
:206650000746A06910F4602F25D0A069400CC6B2700807D2B00803D2F00828BF022602E0B8
:20667000012600E00026751D68B201F01BFFA16906F111020120904081433846A16103F0EA
:20669000BFFE04EB8600876847B1606810A20CCA2946B84702E0384603F0B2FEA06918B13E
:2066B0000A48002103F016FCE07F80080BD367692FB1606808A20CCA6FF00101B847E07FD6
:2066D00000F0FD00E077F8BD5C300020C02F0020000000000000000800000000000000806E
:2066F000264838B550380468B4F1FF3F08BF002403F008FC224817490025103805600120B9
:2067100008601549086001F0F7FE1448006820B1134800682046FFF715FB12481249056077
:20673000124C0A686FF35B4244EA0200086010490868C0F30130012806D10A680D4810401E
:2067500040F400320A6008600B4908680028FCD138BDC0465C600C400822044380012843D8
:20677000000120438C210840482003400000390104000940FFFFFCFC0C0068426C13005003
:206790009404604270B5224C224D0646B00E0FD2700E0DD3802020744FF6D801A4F8511015
:2067B000207001F093F8D0352868C0F3042002E02868C0F3046003F07DFC00EB2670401C7F
:2067D000162805DA10F10A0FB8BF6FF0090000E01520114D00F01F0040F4F850A4F85900A0
:2067F0002868800803D20D490020086001E046F040660B48F10EB50E81F00101983801F0B8
:206810000101016085F0010101F00101816070BD15620840B81200500000094094042A4366
:2068300098002043F0B520480127F84201D001F077FF204D204F214EBD4206D203CD047838
:20685000A4003459401CA047F6E71D48002800D08047164D164FBD4202D210CDA047FAE773
:20687000F0BD03251BE0416808300A1C2A400BD11A1C2A40AB4305D0046804300C60043147
:20689000043BF9D1131C05D0047801300C700131013BF9D1021C2A4001D0A8430430036897
:2068B000002BE0D17047C046FFFFFFFF000000000000000098060000000700003806000050
:2068D00055C50110002A4AD05FEA000C8B071CD1830722D1102A08D370B4103A78C978C0EC
:2068F000103AFBD270BC103238D0042A2CD3082A05D30C2A24BF08C908C008C908C008C9A8
:2069100008C092072AD0920F22E00B780370491C401C521E22D08B07F7D1C30714D18307BD
:20693000D8D0121F12D308C903801B0C4380001D121FF8D20AE008C903701B0A43701B0A08
:2069500083701B0AC370001D121FF4D2121D05D00B780370491C401C521EF9D16046704776
:206970002DE9F8438946804602F0A6FF00284946404608BF012239D01E4F7A68BD894B0872
:2069900005D313882B43184218BF02222CD11A4C04F10C031E68760838BF012224D301260E
:2069B000E6631E687608FCD24B083CBF0023938004D340EA050390809BB2BB818B083ABFFA
:2069D0000023D380D080C90838BF0020108103F023FC03F02AFC206840F04000206020683D
:2069F000002220F04000206003F0C4FB1046BDE8F883C0461830002000500C402DE9F0411C
:206A1000044690460F46101C19D0401E15D0401E11D0801E0DD0801E09D0801E05D0B8F548
:206A3000807FB4BF062507250AE0052508E0042506E0032504E0022502E0012500E0002532
:206A5000B7F5807F0E4602DA1E2F04DB1E26B7F5807FA8BF1F2646EA4510C1B2204602F034
:206A700005FB062D04D15FFA88F1204602F0FEFA072D03D14146204602F0DCFA1E2E03D1FF
:206A9000F9B2204602F0F2FA1F2E03D13946204602F0D0FABDE8F081F8B5044625686769CB
:206AB000B5F1FF3F07F4805702D0FFF715FA10B14FF0FF30F8BD6069000907D36068401E83
:206AD00003F0A8F9606920F00800606100206060A060E0602068FBF74DFE06464FF0FF30D1
:206AF000206057B10F48006880470F4800EB0510FBF780FD0D48006880473046F8BD38B516
:206B1000084C054620688047206880472846FFF7C3FF064C05462068804720688047284659
:206B300038BDC0464C3D0020B02B0020503D0020F8B50546214800680C4680472046FFF7BB
:206B500025FD1F4E002830D0606900F00700042819D0A068E168814204D82046FFF7BCF998
:206B7000F8B9A068411CA160EFB207706069800805D30A2D03D12046FFF7AEF988B93068C6
:206B900080473846F8BD20688DF8005069460122FBF7E8FCB0F1FF3F03D030688047E8B23B
:206BB000F8BD616941F480616161306880474FF0FF30F8BD0349FFF7BBBFC0464C3D002081
:206BD000503D0020D03300202DE9F8432020EFF3118780F31188214CA068012103F09CFB9D
:206BF0004FF001094FF0000865692168A4F81C906A1A2168A4F81E80461B401A904227D388
:206C100087F3118840464519361A4846294603F07FFBB042F7D92021EFF3118781F3118829
:206C3000E18B012903D14046294603F071FBB0F1FF3F06D0A169801B814238BF081C4119F4
:206C500001E0A069291803F05FFBA4F820902560A4F81C8087F31188BDE8F88378010020D7
:206C700070B505460A460C4617A0ADF1280D294603F00FF81E48012124228DF81810082359
:206C900001700021684603F09FFB00206946024603F072FB1749124E3C22082308600021CE
:206CB000304603F065FB4FF400703062002307200E49B0610B4835613246F0610A4874612B
:206CD00003F052FB0AB070BD5741544348444F4720696E69742025642025640A00C046C036
:206CF0001C2F002008240020542E0020894B00004B3D0020903200202DE9F843DFF87C9099
:206D10000F4604464FF0FF31484603F081FBDFF870801D4800210AE0FF2A07D003689342E1
:206D300002D958F822600EB1002421E0491C1FB117F82120FE2AEFD10020206001266060BE
:206D50000546A0600EE0FF290BD0636806FA01F048F8214018430B4960601268204602F049
:206D7000BBF96D1C27B107EB85021178FE29EAD1484603F0F5FA2046BDE8F883B83000200C
:206D9000E82C0020007FC7673C2800202DE9F04107467C68BE6804F1F00002F0AFFE1D49F6
:206DB000306809688069000923D203F02DFB1A4D8046287820B1022002F0F8FA002028705C
:206DD000404603F01DFB32681449906B20F020009063086820F480700860206A616A25693E
:206DF000626A401A2062216A2B4638469847BDE8F0814FF4FA70B0FBF1F1012998BF01218F
:206E1000F034204603F0F8FA204603F0F1FABDE8F081C04634B90000A5320020301000402F
:206E30002DE9F0415FFA80F84046401E012828D81B481C4A006846F2A8134146B3FBF0F5DF
:206E5000B2FBF0F610A033462A4602F022FF174C154F04EB880420684FF0FF3103F0D8FAE5
:206E700038680821002201F037FF284603F0DCFA38680821012201F02FFF304603F0D4FA77
:206E9000E9E7BDE8F081C0464C454453202564206F6E202564206F66662025640A00C0466B
:206EB00034B90000E093040050320020E43100202DE9984303F0A8FA1F4CDFF87880814600
:206ED00004F1E000007850B94446A0680146022088470746102001F0FFFC2FB320E000F047
:206EF00043FF002820460FD1144909683222B2FBF1F101B9012100F13004204603F07CFA51
:206F1000204603F075FA0FE044460022A16880F8E020022088470746102001F0DDFC1FB175
:206F3000A068014603208847484603F069FABDE89883C046F4B80000A832002034B90000C3
:206F500098B5044602F006F8194A1E4992F900200860B2F1FF3F02D01649012008701A48B0
:206F70001549077891F90010C7B1144A174892F90020001F10F8043F994205D143789A42F8
:206F900002D1C3789C4202D07F1EF3D198BD80780B4A41B2107002A002F07BFE98BDC04645
:206FB00077616B7570202D3E2025640A00C046C0583C0020593C0020523C0020A332002089
:206FD0005A3C0020543C0020533C0020C83100202DE9F84FB2EB031F804638BF012034D372
:206FF0000E464BB3DFF868A0DFF868900D464FF0000B1F4605F11004DAF8000069464FF0B5
:20701000FF3203F08DF92946BDF8002081F804B07F1E05F110054879CA6000F0F00040F0A2
:207030000600487109EB02230C604FF480708B6004F11004C880DFD10E600020C8F800602F
:20705000054AC8F8040011460E60BDE8F88FC046483200200802002078320020F0B58468F7
