:20000000004D0020198C0000FDC90110FDC90110FDC90110FDC90110FDC90110FDC90110C4
:1C002000FDC90110FDC90110FDC90110FDC90110FDC90110FDC901103BCA0110A4
:2000400000C500000FDD030100750085200F0555A4BE00307F000085A9221F08125404F87E
:20006000247922254002258F012426CF9901FB0738134921030F0080FF002405A0000800D9
:20008000D3FF38D43D0020640300EB800533CF690209FA1EE8DE3F510B9380AABB1D5F0D5E
:2000A0003EDF482D0312FA280845708045B10971FE119F5D00418100006D8D7F00002985D6
:2000C00000008100305F517D0000B100F0B900707C227F3F06B0896001401A5480DF3940F6
:2000E00001403A55002040FF007F64404000A384FF0600410104C007B1FF33058305480A73
:200100000306FFB87A030401026384FF10004302B0040200FF9F84020044C78460FFF13572
:2001200083880300A388FFFB0088600E1F0200FFF90CAC52330F0851174800FF0000031463
:20014000D13C0627902C413F3E2EBA181E1B3F3E1C32F00031552400342C00343400343C15
:200160000034554400344C00345400345C0034D56400346C00347400349010FF34008E0DC3
:200180003300F00AFF320048083100CC06FF300082052F002404FF2E0066032D00BC02FF21
:2001A0002C0012022B00AE01FF2A005E0129000401FF2800DC002700B4007F260082002545
:2001C000006E4990DF58002300424B903700DF21002D00201C5100073F8600003840371CD9
:2001E000721D353F030507B123051CF71C35B81D791CB11D3188601A5070DFDF7D5C503C62
:20020000071DB10200DBF80C1CF10718057F2F418CC760138205B123312231803B820B42D9
:200220000000715E3100F1583F027EFF16D0A73E002000316339043627007B182906F307E2
:20024000C20110663F06B6017F0AC5A7879359A66997C4474000200175027D01798969345B
:20026000DB89758BDF20401170BD01004FBC3F0020003101BF02D801B0AA0031E00034E8DF
:200280000034F00034F8520034000BB0003108003410003403ED6D961762F11A4297480282
:2002A000F198321FE00100FFEF00303F0099313DE83E54FF00FFC09A3000311E9AA29C01F5
:2002C000002000317C717C29E3B78802F403D29D5F0896001EFF003B010E00B1010ABF00D2
:2002E00064030500930030004D05452B75A05CF007B214A1E219CC1E105D0108160BE45D81
:20030000D05E01664881E0381030003010390DA7E086317FFC0BF6883AA7C0642F00CB2040
:200320000CA8402B207000310808F7C080FEA94858410020AA00316000346800347000343F
:2003400078AA0034800034880034900034980A0034A00034A800342EFF02B0B2FFF0007D90
:20036000000000C4410020B8003059BC007000F1004D00700300927F2001010000303101A5
:2003800074000044FFF000F30100000700B91C3D0020EC01A80252C0410133340100052011
:2003A00000313C0034FFF0009D0000016CDC02007200C0C4EF3F00200300C4D597001F002F
:2003C000B5A50000FFF000FD000004203F0020104047002001010000310029680170000068
:2003E00031FFF0007B0100000F00E03F0020016100FFF000197C0000A7A7000041A80000F6
:20040000003D000000203F0020FFF0000000000002000000AA340000000F08000000FFF04B
:200420000001000000FFF00001000004FFF00001000004FFF000000040000000B836002096
:200440005E030000440100208603000000010020A7030000A4010020C6030000780100205B
:20046000E3030000C801002000040000E40100201004000008020020180400000002002028
:1804800020040000EC01002027040000F00100202E040000F8010020AC
:201000003C000000000000000000000034100000000000000000000001000000000000004F
:1C10200000000000000000000000000001000000000000000800000000000000AB
:20103C003400000000000000000000006810000000000000000000000100000000000000E7
:14105C00010000000000000000000000080000000000000077
:2010700030000000000000000000000098100000040000000000000001000000FFFFFFFF87
:10109000FF00000001000000080000000000000048
:2010A0002C0000000000000000000000C4100000040000000000000001000000FFFFFFFF2F
:0C10C000FFFFFFFF080000000000000020
:2010CC0038140000E410000095A1011091A70110A1C2011009B2011041B80110A5BC011078
:0810EC0085BC01103300000077
:2010F400280000000000000000000000141100000000000000000000FFFFFFFF0000000093
:081114000800000000000000CB
:20111C00341400003011000065C2011069C101101BC2011091BA011005BC0110E5BB0110EA
:04113C00310000007E
:20114000341400005411000071C20110A5B6011099BF011045B60110B5BA011025BC01104B
:041160003200000059
:201164002400000000000000000000008011000000000000000000000000000008000000AE
:041184000000000067
:20118800240000000000000000000000A41100000000000000000000000000000800000066
:0411A8000000000043
:2011AC00240000000000000000000000C8110000000000000100000000000000080000001D
:0411CC00000000001F
:2011D000000000005841002004000000000000000000000020000000701000003000000072
:2011F0001C110000604100200400000000000000000000000C000000301300001800000086
:20121000401100006841002004000000000000000000000024000000481300001800000009
:20123000000000007041002004000000000000000000000010000000A01000002C000000DD
:20125000CC100000784100200400000000000000000000002000000064110000240000000C
:20127000FFFFFFFF8041002004000000000000000000000028000000881100002400000098
:20129000FFFFFFFF88410020040000000000000000000000580000003C100000340000007D
:2012B000FFFFFFFF9041002004000000000000000000000010000000601300001800000092
:2012D000FFFFFFFF984100200400000000000000000000001C000000AC1100002400000008
:2012F000FFFFFFFFA041002004000000000000000000000038000000F41000002800000079
:20131000FFFFFFFFA841002004000000000000000000000054000000001000003C00000014
:1813300018000000000000000000000040130000080000000000000032
:1813480018000000000000000000000058130000080000000000000002
:18136000180000000000000000000000701300000800000000000000D2
:081378000100000090C000001C
:041384000100000064
:0413880000000E0053
:04138C0000000F004E
:041390003200000027
:041394000100000054
:04139800C44000202D
:04139C00000200004B
:0413A0000000000049
:0413A400FDC901106E
:0413A8000000000041
:0413AC00000000003D
:0413B0000800000031
:0413B4000000230012
:0413B800A83F00202A
:0413BC00010000002C
:0413C000DC400020ED
:0413C400080000001D
:0413C8000000000021
:0413CC00000000001D
:0413D0000000000019
:0413D400080000000D
:0413D8000000000011
:0413DC00000000000D
:0413E0000100000008
:0413E4001040002095
:0413E80006000000FB
:0413EC0001000000FC
:0413F000D03E0020CB
:0413F40000000000F5
:0413F80000000000F1
:0413FC0000020000EB
:0414000000000000E8
:021406002A00BA
:021408000100E1
:02140A002400BC
:02140C003100AD
:02140E003200AA
:021410003300A7
:021412000100D7
:0114140001D6
:08141800030000005CC00000AD
:081420000000000000000000C4
:0414280000000100BF
:04142C0000000300B9
:0414300083C4011060
:041434003C14000064
:041438003C14000060
:04143C0000000000AC
:041440009000000018
:041444009000000014
:0414480000000000A0
:04144C00DC40002060
:04145000B5A600003D
:041454002000000074
:0414580024C00000AC
:04145C00ECBE0000E2
:0414600009C30110AB
:041464008F8B00006A
:041468008B92000063
:04146C0095C801100E
:0414700097C8011008
:041474000000000074
:04147800A2BF00000F
:04147C007CBE000032
:0414800094BE000016
:0414840064BE000042
:0214880008005A
:02148A00090057
:02148C0001005D
:02148E0000005C
:01149000015A
:041494000000000054
:041498000000000050
:04149C00000000004C
:0414A0000000000048
:0414A40091A900000A
:0414A8004D9400005F
:0414AC007D9E000021
:0414B0000998000097
:0414B400719800002B
:0414B8003D8F000064
:0414BC00E1770000D4
:0414C000D1A70000B0
:0414C4006D83000034
:0414C800D5A00000AB
:0414CC00C5A80000AF
:0414D0000800000010
:0414D40024000000F0
:0414D80018000000F8
:0414DC0028000000E4
:0414E00020000000E8
:0414E4003C000000C8
:0414E8000C000000F4
:0414EC0034000000C8
:2014F0002DE9F04FD14E3188CCA0ADF1740D08F0DCFE04A809F076F864250495CC48079072
:2015100002A809F021FBCB4800684FF0000B0E905C460F945A4611921A921B924FF0FF304A
:20153000109058461890199016901790129013901490DFF8048315901DE2119F67B1109A62
:20155000824203D14F78002F00F0A680D748006803F0A6FD98F90000D349D54FC20002EB3A
:20157000401204AB521807EB0011D248A2F802B001F0DCFC0146CD4ECF48DFF82CC3036814
:2015900098F900005F783160C20002EB401237F07F0702EB0C056746A5F802B03A4405D146
:2015B000D58A4FF6BF7C0CEA050506E0C20002EB40126244D58A45F04005D5825A78D209D2
:2015D0001AD307F0AFFEC0F38005DCA0294608F06CFE98F900003946C20002EB401252186A
:2015F000D18A4FF6BF7CAB01374603F040030CEA01010B433968D382AB4E5B465A46C70064
:201610008DE80C0007EB40125B460846921911461A4608F0A1F998F9002033461046C100D1
:2016300001EB4011C9184988B1F5505F0AD0C100374601EB4011C9194988C3A008F035FEC0
:2016500098F90000C54F994EC1005B4601EB0011C919A1F802B05A468DE80C0030685A4609
:20167000134608F079F998F900003D460146CA0002EB011252195288B2F5806F09D0C100FD
:2016900001EB0011C9194988D6A008F00EFE98F9000010900127119707F016F80F9F064610
:2016B0001FB90127CE480F9734183046214609F080F8B442054609D242F21070A84205D233
:2016D0000E99281AB0FBF1F009F03AFA7A4801680F7842F21076AE4228BF04277348534E8E
:2016F00098F900C00268308863467F1E00F0E6807F1E00F0A3807F1E03D07F1E00F030816D
:2017100032E1D34E4FF47A619F0001FB00491D4607EB431189193746CE4BA1F802B0A900AE
:201730000BAE01EB45116425C9190D75087B0E6200F07000CB6140F0020008738C60C87B56
:201750008F7BCE7D4EF660255B46641940F00300C87307F0B90040F04400887306F0F000CA
:2017700040F00200C87510468C615C4622468DE81800134608F0F0F898F90010B44F8800AB
:2017900000EB4110C0194088B0F500603DD0B0F5305003D0401E00F08180CCE007F03CF92B
:2017B000AA48DFF8A4C2008867460202B81841786646CB1CDBB29B18F2181CF803A0957887
:2017D000D4785678801C00F053F9A3489F4900684FF0FF3209F0B0F90D9800909C4F98F909
:2017F0000010BDF82C30880000EB4110C01941884AEA062A4AEA054A4AEA046A52467DA014
:2018100008F053FD012001464AE00848048806F05BFF4FF47A6101FB04093FE070657269BC
:201830006F64203D2025640A00C046C0504000200F49000088C00000B136002081480E8938
:2018500000EB4313A3F802B04F681E82187BDF6100F0700040F00200187359469C6058466A
:201870008DE8030019467D4B10465A4608F074F87C4898F90010734F058807EB4110478899
:20189000B7F5006651D0B6F5305649D04FF47A6000FB054960A0394608F007FD0221012096
:2018B00007F074FC60E0C046D039002040360020683F002068300020A4360020604F0E7AFC
:2018D000D80000EB0310C319A3F802B04D68DE731F7B5D6107F0700040F0020018735946D8
:2018F0009C6058468DE8030010465A461946134608F032F85B4898F90010514E0588C800BE
:2019100000EB011080194788B7F500660DD0B6F5305605D04FF47A6000FB054943A0BAE774
:201930004FF47A6000FB05496CE706F0CDFE4FF47A6101FB05090321B1E7C0462A2A2A2095
:201950002564202A2A2A0A00434D445F53455455503E20253034780A00C046C05C3C00209B
:201970004FF47A6101FB004909F0E2F801F0D2F909F0DEF84C463148006809F005F8012804
:2019900017D12E480068594609F0CEF8119F1FB13548006803F084FB08F0DEFE3048006888
:2019B0004FF0FF3109F0C0F808F0D6FE5D4611950F9508F05FFC98F90000B0F1FF3F05D0A6
:2019D0002A4909680A78042A7FF4B7AD2548058801F0A0F94FF47A6000FB0544EBE7C046CF
:2019F00000093D00434D445F46533E20253034780A00C04672786F75742073746174757350
:201A10003D253034782074733D256C7520256420256C750A00C046C0434D445F54585F4110
:201A300044563E20253034780A00C046434D445F54583E20253034780A00C046A036002049
:201A5000BC3C0020003B00200802002084360020703A00204436002080360020F59F000031
:201A70009C3600205040002040360020A43600202DE9F04F054608460024ADF1140D00282B
:201A9000049000F04E81DFF8A4A2A046A146285D641C4FF6FF77411100F01F02A4B2DFE8B9
:201AB00001F01A18161412100D042E5D601C80B2295C46EA0126401C84B20DE02E5D204611
:201AD000F9E7082608E0062606E0042604E0022602E0012600E000261E2AB8BF171C1E2A6F
:201AF00002D12F5D641CA4B21F2A07D12F5D601C80B2295C401C84B247EA012739468CA02B
:201B10000A4608F0D2FB3846652819DC652800F0BD80401E52D0401E00F0FA80401E39D037
:201B3000801E00F0EE80401E00F0DD80801E00F0CF80401E00F0C1805B3800F0B58056E094
:201B5000663800F09780401E0BD0113800F08A80401E7FD0093872D0401E58D0401E4CD024
:201B700045E02819314607F06BFB804689460096504603C802AA4B4682E8030070A042464D
:201B900008F093FB4946404607F02EFF002800F0C280C6E072A008F088FB9AE80300894596
:201BB00008BF804540F0B7802819314608F07AFA07F018F9002840F0AE80B2E02819314626
:201BD00007F03EFB8946804600969AE8030002AA4B4682E8030064A0424608F066FB9AE804
:201BF0000300894508BF804500F0958099E066A03946324608F059FB8DE06CA008F055FBF0
:201C10002819314608F04EFA08F036FE83E06DA008F04BFB05EB040B3146584608F042FA9A
:201C300007463146584608F03DFA4FF4FA5102464FF47A705143784305F01CF96BE066A056
:201C500008F033FB2819314608F02CFAC0B207F003FD60E063A008F028FB2819401C06F01E
:201C7000D5F958E064A008F020FB2819401C06F0D7FC50E064A0314608F017FB291948781A
:201C9000B21E92B2891C05F041F944E064A008F00CFB66A0314608F008FB2819B11E401C41
:201CB00089B201F0A5FE36E068A0314608F0FDFA2819314603F0F0FA2DE06AA008F0F5FA2E
:201CD0002819314608F0EEF9C0B205F0B1F922E066A008F0EAFA2819314608F0E3F9C0B26A
:201CF00008F0A0F917E064A008F0DFFA06F0AEFF2819314608F0D6F9C1B2012007F046FA8A
:201D100009E02819314608F0CDF908F09DF802E05CA008F0CAFA0498A419A4B2A0423FF766
:201D3000B6AE204605B0BDE8F08FC0464840002056444820636F64652025642025780A0035
:201D50004445465F494420256C64206C656E6774682025642074616769642025640A00C0BC
:201D70005345514E4F0A00C044455354494420256C64206C656E677468202564207461678A
:201D900069642025640A00C056444820636F646520256420286E6F2068616E646C65722961
:201DB000206C656E6774682025640A0056444820564F4C5441474520544852455348204458
:201DD00045460A00564448205741544348444F47204445460A00C046424C494E4B204354E5
:201DF000524C0A0054524947474552204E4F2057414B4555500A00C054524947474552206F
:201E100057414B4555500A0041544C415320434F4445206C656E6774682025640A00C046D0
:201E3000434F4E462053434845440A0056444820636F6E66696775726174696F6E206C6570
:201E50006E6774682025640A00C046C0524144494F205345545550206C656E677468202541
:201E7000640A00C057414B4555500A00474F544F20434F4E460A00C0424C494E4B204E4FD7
:201E9000570A00C054414753544154450A0070472DE9F041B44C0F460646F80B80F0B48163
:201EB000A07AB90F80F04681B80880F03781F80A80F01081E07939096DD2B80B59D2780BC3
:201ED0000FD2380CC0F0C581206C806840880028FAD0206C806840880128F5D027F400471D
:201EF00043E007F09FFB38B1B56930466FF4807100224FF00073A847D24904F170000022E8
:201F100008F020FDB16800254FF0010840F602022572088884F8038082420AD0B0F5C15F53
:201F300007D00A8B4FF61F60104040F43470088306E00A8A4FF61F60104040F434700882BE
:201F50007574266E08F03AFBD4F85411E26804F5AA73914208BFA84626B1801B03EB8806C0
:201F7000010BB160256627F48057192008F0E8FC6FE104F1440008F0EDFC061C08D0706866
:201F900030B17568F068B6F92C1000222023A84727F400575DE1012800F09780206C002848
:201FB00040F0958000254FF00108E570AD4884F8058008F00DFC284607F0C4FFAA4904F103
:201FD00070002A4608F0BEFCA66D08F0F7FAA178801B000B012906D1667826B994F86810E2
:201FF000B0EBC12F39D9A14E84F80280A6F1150109686570090A30D3606640F60900A08217
:2020100094F8210000F0F00040F0010084F8210094F8200000F0F00084F82000A56108F02F
:202030008BFC06F6FF7211686FF0020321F00201116004F11401C6F8FB3F8D4AC6F8EB1F99
:2020500011688908FCD3C6F8FB3FD6F8FF1F41F00201C6F8FF1F08F063FD2E4604F158008A
:2020700080E86000666606F0FBFF207818B9E068403008F073FC7F480660022007F09EFA66
:20209000112003F07FFFE068007C10B90E2003F079FF607A18B16572052007F08FFA76498A
:2020B00065710878A57128B10D7004F1EC00042108F05CFCB4F95000B4F95210884214BF4F
:2020D0000220072004F0D6FB01E00020E07127F00807BEE008F030FC054604F13C0008F034
:2020F00039FC061C15D0E06810B1783008F020FCF068E060284608F013FD08F05FFA2066EA
:202110005E4808F065FB4FF4006104F1EC0008F02DFC002027F48067E0719AE002F024F810
:2021300004F14C0008F016FC27F0020708B147F002078EE020B1042007F040FA0020A07265
:2021500008F0FAFBB1688046088840F6020282420CD0B0F5C15F09D00A8B4FF61F601040F2
:2021700040F43470088308E0082200200A8A4FF61F60104040F43470088204F1580090E8EB
:202190000C00002B08BF002A1AD0042007F0A0FCB0B1A56D08F012FAF168401B728AF060EF
:2021B000000BF06080188842F06002D209184808F06040F6C41181422CBFB0F5FA7FF16045
:2021D000404608F0ADFC07F02DFA98B1B56930466FF4807100224FF00073A84704F13C0085
:2021F00008F0B8FB002808BF47F0020702D0192008F0A6FB7569002130464FF080630A466A
:20221000A84727F0005724E008F096FB014604F1440008F09FFB061C16D0356AA80813D276
:2022300025EA05003062084608F07AFC706870B16DB12A46F068B6F92C1075680023A84773
:2022500005E0C04661450000084608F069FC27F4804727B104F1EC00394608F087FBBDE8F9
:20227000F081C046B14F000009750000150004401010044000000460AB36002019440000DA
:202290002DE9F04F09AFADF13C0D08900A92388809911E46ADF81800101C08BF002000F088
:2022B0008481002700F101094FF0FF3A4FF0010BB8466CE1252940F063811078521C0A92E5
:2022D0002D2818BFADF8068005D15846551CADF8060010780A9530281CBF4246434605D1C6
:2022F0000A9908785A465B46491C0A912A28CDF80080554616D1306804930A99CDF808A012
:20231000C01C4B1C20F00300001D306050F8044C0A93002C0878009418D5ADF806B0644247
:20233000009413E044460AE0610001EBC4010918A1F130040A9908780094491C0A9130288A
:2023500001DB3A28F0DBCDF808A004932E282BD10A9908782A2801F101010A9111D1306890
:20237000CDF80880C01C20F00300001D306050F8045C002D48BF454608782B46491C0A910C
:2023900011E0454643460AE0690001EBC5010918A1F130050A9908782B46491C0A9130284F
:2023B00001DB3A28F0DB02930AB1224604926C2804D04C2818BFADF8048005D10A990878E1
:2023D000ADF804B0491C0A910BA9CDF80C800FAB07916428059300F08B80692800F0888095
:2023F000BDF818C0752872D078286ED06F286AD0702850D063283DD073281ED009980A9995
:202410000128A1F101010A9115D96B490C68B5F1FF3F03D0A84288BF6D1C00D8099D0295B8
:2024300008A80AA932466B46A0473F180A99039801F1010974E040462AE030680A99C01C8D
:2024500020F00300001D306050F8040CBCF1000F01F10109014608B955A00146079108F0C8
:20247000DFF80390B5F1FF3F5BD0A842C4BF281C039056E03068C01C20F00300001D306025
:2024900010F8040C5D468DF82C000A990395584601F1010945E0082035680490E81C20F059
:2024B0000300001D306050F8041C082210230FA805F038FA401E0790402101700A990798B0
:2024D00001F1010929E0082302E0102300E00A230A99306801F10109C01C20F00300001D57
:2024F000306050F8041CAA42BCBF2A1C049210E00A99306801F10109C01C20F00300001D5E
:20251000306050F8041CAA42BCBF2A1C04926FF009030FA805F006FA0790059D281A03904B
:20253000009C241ABDF8065000945DB906E008A8202109AA07F091FB009C7F1C641E0094A2
:20255000F5D503980546401E039075B9BDF80600E8B10098401E009019D408A8202109AA31
:2025700007F07BFB00987F1CF4E70798411C0791017809AA08A807F070FB03987F1CE1E700
:2025900008A809AA07F069FB7F1C09F101094A460A9812F8011C401C00290A907FF48AAEAB
:2025B000089808B14146017038460FB0BDE8F08F286E756C6C2900C094C00000BA482DE921
:2025D000F84F0025B94CB749056094F8E200002800F06381012800F02F81B54E02283CD0A9
:2025F000032840F05A8151F8250CD4F8B8100029A0F5C060C4F8D400B8BF49420028B8BF78
:202610004042814226DA4FF08057D7F8A4014568B4F8BC0030214FF47F4208230090304640
:20263000A847D7F8A4014568B4F8C00004214FF4F802122300903046A847D7F8A401B4F862
:20265000D070456820214FF440620A2330460097A847012584F8D8501AE151F8258C08F077
:20267000C3F82F4600B901273946924F38680028FCD0B146012609F10409D9F82CA03E60E5
:2026900009B108F0B7F8CAF30720C4F8BC0008F0ABF8AA4600B9B2463B68002BFCD0D9F8C6
:2026B00000B0BAF1000F3E6001D008F0A3F8CBF38440C4F8C00008F097F8AA4600B9B24678
:2026D0003B68002BFCD0D9F81C90BAF1000F3E6001D008F08FF8C9F38120C4F8D000B8F595
:2026F000C061C4F8B81000F09C8094F8D80068B9C4F8D410D4F8C000C4F8C800D4F8BC70EC
:20271000C4F8C470D4F8D030C4F8CC30D4F8D410D4F8BC30002954BF02206FF0010004F11A
:20273000C802176801EB41014018411000EB917107EBA1001060D4F8C810C4F8C4300029FC
:202750001CDD1E293CDDD4F8CC0030B93429B4BF15391E21C4F8C81025E02A29BABFD4F801
:20277000C8000B381E20C4F8C800D4F8C4003F28B4BF401C3F20C4F8C4001FE0D4F8CC0040
:20279000032812D011F10B0FC6BFD4F8C8000B30301CC4F8C800D4F8C4000028C4BF401E43
:2027B000051CC4F8C450032508E011F1150FC6BFD4F8C8001530301CC4F8C800C4F8CC50DC
:2027D0004FF08057D7F8A401B4F8C43030214FF47F424568364800930823A847D7F8A4011E
:2027F00004214FF400321123456831480096A847B4F8C860D7F8A40104214FF4F802122371
:2028100045682B480096A847D7F8A40120214FF440620A23B4F8CC60456825480096A847C5
:2028300001E084F8D85040F2FF50404502D8801C40452DD208202EE051F8251C1E4F4BF299
:20285000F5204843060A3868C0F3814001280AD107F018FA06F0E6FB07F0D2FF3111C010E6
:20287000484306EBE03694F8E50030B91348006820F07F408019460801E084F8E5501048F9
:20289000310C0660012741600E4D8760287808B90B2000E0052084F8E40001F073F9BDE887
:2028B000F88FC0462D400C402C500C40CC37002000A00C4000800C40B43F00501020094063
:2028D0003C600C40F1BF00002DE9F047DFF80CA20746AAF13500DFF8F8810068800880F0B1
:2028F000E78007F0CFF9814908310B6800261A17990D02F101020AD2C0F13E0110F10A0F53
:202910004FEAE101D8BF08218A42B8BF0A1CDFF8C4C1990E0FD2590E0DD36446143C2168B5
:20293000C1F304211629A8BF20392468C4F30464162C0EDB0CE0634CD4F87C11C1F30461CC
:202950001629A8BF20392468C4F30444162C00DB203C5118A146162905DA11F10A0FB8BF64
:202970006FF0090100E01521574C584D01F01F0242F4F85222802A6812F0030F18BF0126A8
:20299000D20828BF46F002060FB146F00406424692F90740041B052C04DA9479B44208BFD6
:2029B000918865D00F28A0F10F0827DB08EB0014A4F1F0084FEA282EBEF1070F88BF4FF06A
:2029D000070E7546062D88BF06255CF82570042404EB850465462C59E41B04F0FF05F708C3
:2029F00024BFC4F307273D44B70824BFC4F307473D44770828BF05EB146501E00025AE468D
:202A10005CF82EC0F7080CF0FF0424BFCCF307273C44B70824BFCCF307473C44770828BF81
:202A300004EB1C64ADB2A8EB0E27B9EB010105FB07F505F1800504EB1524D8BF012103F0FF
:202A5000FF0334254D435D434FF6FF73B5FBF4F18B4238BF191C802889B2918005DA10F1C2
:202A7000800FB8BF6FF07F0000E07F20D0719671194800681F2910604FF0000008D340F2CE
:202A9000FF128A4206D24908401C8A42FBD301E01F219180124F0F39090940EAC10047EA21
:202AB0000001CAF8FB1F0026CAF8FF6FBDE8F0870C490D4F424608200F60921D1070BDE813
:202AD000F087C0463C1100506E62084024220840343600209C1300500820094035000940AE
:202AF00000E7A48030100940FDFDA400AC3F005001282DE9FE4F40F0EE80DFF810B2DBF8C3
:202B1000DC00012840F0E4800220CBF8DC0007F039FA012006F0BCF85FEA000805D001200F
:202B3000CBF8DC0007F03EFAD7E007F01BFF6C49029000200860012006F0CAFF012818BF40
:202B5000002003D1002005F0FDF90120654900900020654F08603868112007F05DFE002880
:202B70000CBF00240124102007F056FE08B144F002040F2007F050FE08B144F004040B202F
:202B900007F04AFE30B1624814300068574E016B308888470A2007F03FFE002600B10126BB
:202BB0004FF0805A0AF5DC75301C04D02868504E016B308888474F480126066028688169BD
:202BD00044F0200088474C48066007F01FFE00F001010191400814D2484807F0D5FD8146E2
:202BF000B9F1040FF8D0B9F1010F05D1DAF8D80142684248032190474149086820F00300C9
:202C100008600020FFF760FE2B683868986B8047019801280DD0B9F1010F05D1DAF8D801F1
:202C300042683648314690473549086840F0030008602C48066028684169204688470B2011
:202C500007F0EAFD20B12868284BC16A188888470A2007F0E1FD20B12868254BC16A18887D
:202C700088472448032206602349CBF8DC2000230B602868416B204688470128F9D13868C1
:202C9000042006F005F8044615481E490660386808688009FCD30098012802D1304605F032
:202CB00051F907F0A7FD082005F0F2FF07460298CBF8DC6007F030FF1348008804F008FF27
:202CD00007F070F957EA040018BF4FF0FF3804E06FF0040801E06FF001084046BDE8FE8FA2
:202CF0000C400940000222432C20094044BE000040BE000028200860800104430040034038
:202D10002422084014100940ECBF0000CC370020A40100102DE9F047DFF8D88198F9001007
:202D30002A2048437249714D085A2988401E8842CCBF00270127704E96F90000B0F1FF3FF4
:202D50000CD004F07FFD4FF0FF3096F90010307088F8001053A007F0A8FA0127674C2078DB
:202D7000B0B106F04FFB664A664912680968801A81420DD264494FF0FF300022307091F9B5
:202D9000001022704AA088F8001007F08EFA01275E4898F900C05E4E5E4CDFF8809190F9A2
:202DB00000E00FBB2A88BEF1000F17D4704641008B1918887746401C18807800335A205A93
:202DD000984206DD4846544B445AC85E0019C85204E051484FF0FF3120F81E105048521CCA
:202DF00092B201782A8021E034A0614607F05DFA00224B4898F900C001782A8011B33C4821
:202E1000DFF814A12A23A6460F4603FB0C00083830F80A3F2AF8023B448826F8022B83884C
:202E300029F8024B7F1E2EF8023BF1D151B13A480024801E30F9023F93420DD0491E04F194
:202E50000104F7D131484FF0FF33614603701EA007F02BFABDE8F0872C4863B261460470F7
:202E70001EA007F022FA29482E4A90F900100846105C401E02280AD9C01F08D008380ED1F4
:202E900098F800002A88C9B204F072FA05E098F800002A88C9B203F08FF923490860BDE86F
:202EB000F087C0467775702D3E2564210A00C04677646E2D3E2564210A00C0466E663A2068
:202ED0002564210A00C046C06F6F70732063256420732564207225640A00C0466325642048
:202EF000732564207225640A00C046C0AC360020F8310020524000205A400020594000206B
:202F1000544000208836002058400020B13600205C360020643600204C3600206C36002080
:202F3000B036002090360020A43600202DE9F04705466E48164602681F46ADF1380DB9B1D5
:202F5000B6B108784FF0010808FA00F002420FD069603046002102F0FDFBAE6007F0ECFCE6
:202F7000634C81462078022804DB484607F0D8FD0020B8E0002870D101F078FE5D49086832
:202F900040F0020008600AA807F0C6FBDFF868A15A499AF802000AAA0C9004F1EC0006F0DF
:202FB0009BF80AA807F08FFB002619210AAB8DF830609AF80000524A0B9004F1700005F0EE
:202FD000D5FF0AA807F0A8FB9AF803004D490AAA0C9004F5907006F07FF80AA807F073FBC9
:202FF0009AF801008DF830801A210AAB464A0B9004F18C0005F0BAFF4449324604F1C800ED
:20301000134605F09DFC424807F0E2FB414A3346042104F1280006F049FE4FF6FF70A4F888
:20303000C40084F8C760A67026716671A671E67126720523667204F15802A672314684F835
:203050006830304682E803004FF4FA71C4F85C11314AC4F860112078167004EB8001401C7C
:20307000C1F85451C0B22070484607F059FD44461FB903AF384607F0B5FA386828607868C5
:20309000E860387C2874B8696C742862788A6882224EAE61EE616E61F86800B1A861786979
:2030B00000B1E861B86800B168610021A02205F1280004F0A3FA05F14000002106F060FD30
:2030D000684607F005FC1649029505F1780000226B4605F035FC134905F19C0000226B461C
:2030F00005F02EFC28460EB0BDE8F087D4210840082200200020094074C00000CDA40000C4
:2031100009750000BD6900006D770000BD9B0000B14F0000B9880000AA3600209F1E0000C1
:20313000F9A10000F3A800002DE9F0411C4615468C4208BF854282BF00230022E5E0002C73
:2031500008BF002D0AD100290EBF00286FF000006FF0000100F0E1F8BDE8F0815FF000087D
:203170005FF0000E002C08BF8D429CBF2C1C0025070C47EA01470E0CB44208BFBD429EBF99
:203190005FEA044444EA15445FEA0545070A47EA01670E0AB44208BFBD429EBF5FEA042428
:2031B00044EA15645FEA0525470847EAC1774E08B44208BFBD4200F29380870847EA81775E
:2031D0008E08B44208BFBD427CD8C70847EA4177CE08B44208BFBD4266D8070947EA0177F8
:2031F0000E09B44208BFBD4250D8470947EAC1674E09B44208BFBD423AD8870947EA81674D
:203210008E09B44208BFBD4224D8C70947EA4167CE09B44208BFBD420DD8E60146EA55665C
:20323000EF01B14208BFB84201D3C01BB14158EB08085EEB0E0EA60146EA95664FEA8517DA
:20325000B14208BFB84201D3C01BB14158EB08084EEB0E0E660146EAD5666F01B14208BF65
:20327000B84201D3C01BB14158EB08084EEB0E0E260146EA15762F01B14208BFB84201D361
:20329000C01BB14158EB08085EEB0E0EE60046EA5576EF00B14208BFB84201D3C01BB14174
:2032B00058EB08084EEB0E0EA60046EA9576AF00B14208BFB84201D3C01BB14158EB08081E
:2032D0004EEB0E0E660046EAD5766F00B14208BFB84201D3C01BB14158EB08085EEB0E0E2C
:2032F000A14208BFA84201D3401BA14158EB08085EEB0E0EA34208BFAA423EBF2D0A45EA66
:203310000465240A89D3734642461E4617460B46024631463846BDE8F0817047F8B58446D6
:203330000F1C5BD06848674908605578167885B1622D4FF0010003D09178622918BF0020A1
:203350002B2D4FF0010406D091782B2918BF002401E000200446002144B9722E08BF102291
:2033700005D0772E14BF612E202200D00A46612E0CBF80230B1C1A43002814BF4FF480734D
:203390000B1C002C43EA020214BF40230B1C13437B6108B14FF40041613E10D0113E02D02D
:2033B000761F04D012E00CB141F002010EE0002C14BF02200120014341F4C06106E0002CD5
:2033D00014BF02200120014341F4027160464FF4DB7202F093FE0028386001D50020F8BDB7
:2033F0003846F8BD70B5394D284603F013FC384C206802280BDB012655F8181F002903D4A8
:20341000284603F007FC2068761C8642F4DB70BD70B505462F48006814460E468047204630
:2034300003F0F8FB284632462146FFF777FF0446294800688047204670BD2DE9F843814648
:2034500024480068884680472449204A0F6857B901234FF0FF34072702F148000B607F1E8E
:2034700040F8184BFBD11A490868002300280BDD14460546183C54F8186FB6F1FF3F03D04B
:203490006D1E03F10103F6D10A2B0ED0DC00984204EB0314144404BF401C086000211822C9
:2034B000204604F0ABF8214600E0002148464246FFF734FF04460848006880472046BDE884
:2034D000F883C04604410020F5330000E0380020F440002040410020444100201C3F002081
:2034F0002DE9F04FADF1240D079001F0BFFB6148007806F0E9F9604D0024012808D90A3840
:203510000FD0801E04D0401E0ED0401E09D006E006F0F0FE022804BF01210C1C06D069682F
:2035300005E005211F2401E0032107246960534A1068C0F38150012806D152F80C0C012711
:20355000020E07FA02F0044307F0DEF8524AFF230818401E471C28607F1E02F8013BFBD17E
:20357000079A1268002702F0FF03FE2B20D0DDF81CC096463B4601260EF0FF02FF2A10D0AF
:20359000904205D3914203D806FA02F2144201D002206CE017430EF0FF02DFF8FCE00EF828
:2035B00002305CF804EF5B1C0EF0FF02FE2AE5D1092002F017FF07980121A86005F1280016
:2035D00006F0DEFA05F19806A8464FF0010A4FF0040B0025A9460AFA05F0044216D1074270
:2035F00004BF05F0FF0141F4C04104D02A480799405D51F82010224802F01AF9E8B24FF089
:20361000FF3106F0C7FDC6F8009001E0C6F800B0D8F800006D1C361D8542DCD904A807F048
:2036300052F8184C184A2078102104AB059008F10C0005F09BFC684607F06EF8CDF80C9060
:203650006A4660681149029008F1640005F044FD0F4951F80D0C20F4F85040F4005041F890
:203670000D0C0C4FC1F8FFAF4846C7F800A009B0BDE8F08FAF360020B8360020B43F00503F
:20369000007FC76768C00000C1A100007D8E00000D30094008000940FC3600202DE9FC4F4E
:2036B00083F0004301E02DE9FC4F1F03FF0847EAD2574FEA42284FEA43095FEA595906D185
:2036D00047EA080A1CBF00210020BDE8FC8F57F000575FF4E06E1EF1FF0EF14505D14FF0A5
:2036F0000000190D0905BDE8FC8F002B05D55FF0000AD8F100086AEB07070C03E40844EA9B
:20371000D0544FEA40254FEA4106760D08D144EA050A19BF00210020191C101CBDE8FC8F14
:2037300044F00054764504D10020090D0905BDE8FC8F002904D55FF0000A6D426AEB040486
:20375000B6EB090E08D5A2463C465746AA464546D046CEF1000E4E46BEF1360F5CBF4FF07D
:20377000000B23E0BEF1000F04BF4FF0000B1AE0CEF1390ABAF120092EBF08FA09FB07FA9C
:203790000AFB4BEA080BDEF1200A07FA0AFA38BFBA4647FA0EF72DBF28FA0EF8AEF1200EB0
:2037B0004AFA0EF8D04415EB08057C4154EA050A02BF00210020BDE8FC8F002C58BF4FF0D0
:2037D000000A06D55FF0010A5FF0000E6D426EEB0404A6F101066D006441FAD515F4806EB7
:2037F00011D005F480794BEA090B15F5806554F1000428BF761C0BD205F400795BEA090B44
:2038100008BF25F4006525F4E0656D0044EB0404B61CDEBF00210020BDE8FC8F5FF4E06ED0
:203830001EF1FF0E76450AD34FF0000013F00043FF21C900C91D09051943BDE8FC8F2705AA
:2038500047EA1530210B41EA065141EACA71BDE8FC8F70472DE9F04F0746880FADF1140DEF
:20387000C0F0B980002004F0D3FD60485B4E4FF0000900F11008C8F80090012048F81C6C90
:2038900006F060FB564806F0A3FF564DBC68CB4640F60A0605F1140095F82010AA7895F8FD
:2038B0002130A5F816908246C5F818B001F0F0010680012A85F8201003F0F000A4F80290C6
:2038D00040F0010085F8210001D17B7CABB1B8680088A6F10801814208D0B0F5C15F05D067
:2038F000218B4FF60F400840208304E0218A4FF60F400840208287F81190B868694602F09F
:20391000DFF8684606F0E8FE3346D91F4A1C00E03446666836B13088834203D0814218BF66
:203930008242F5D1C4F804A0607B00F0F000607305F13C0007F00EF88068008881421FD0AE
:2039500082421DD03E8D06B397F8340097F83560C7F82CB000F0F00087F8340006F0F00027
:2039700040F0010087F8350007F12803AB619AF80D00A7F82A9000F0F0008AF80D0004E0D8
:20399000DA4605F1580080E80006B9680A8A4FF6FF3010400882D8F800000028FBD0687A93
:2039B000C8F8009070B9012006F092F801280FD0607B00F0F00040F0010060730A4806F0CE
:2039D00007FF05E005F06AFB0028FBD006F0C0FFB86848F81C0C05B0BDE8F08F01010E0475
:2039F000A11E000008220020817C00000C1004402DE9FE4FDFF87CB1044600220D465C4887
:203A10008BF800202188018032A006F04EFCDFF86881DFF868A198F800C0284600214010E8
:203A30001FFA80FEBEF1020F18DB0CEB8C0201234FF02A09521C002034F8137009FB01F5DA
:203A5000461C5B1C05EB4005F0B29BB282422AF80570F1DC491C9E45C9B2ECDCD94628A0BF
:203A7000624689F8001006F020FC56462A27002501E06D1CEDB299F80000A8420ADC4049E6
:203A90004FF6FF700880FFF745F923A006F00DFCBDE8FE8F07FB05F0325A294624A006F006
:203AB00004FC002498F80000A042E2DD600000EBC40007FB050030180189009141890191CC
:203AD0008288C38841881FA006F0EFFB641CA4B2E8E7C04674616720706572696F643D252D
:203AF00064206D7320696E697469616C20636F6E66696775726174696F6E2025640A00C03D
:203B100023636F6E663D256420237365747570733D25640A00C046C07363686564756C653C
:203B300020696E697420656E6465640A00C046C02564206672616D65206C656E3D25640ACE
:203B500000C046C0202073746172743D256420737465703D2564206C696D69743D25642094
:203B700064626D3D2564206F7074733D25780A0050400020AE360020B0360020F83100206F
:203B9000AC3600202DE9F843614C5A4D5A4EDFF870815E4F94F8E4100846401E0B2864D8B6
:203BB000DFE800F07B2C43062343062343067664042907D001220A2945F8212C14BF0220C3
:203BD000032004E0202045F8210C0120024684F8E200002045F8390C0827C5F8FF7FC5F894
:203BF000F37F45F8392CBDE8F883052914BF09200620002784F8E400376075E094F8E170E1
:203C1000383D0120002FC5F81B0004BF0620002102D00021F160032084F8E400032045F8C6
:203C3000010C3160306880085ED294F8E4103348012703290ED00068456800216022052379
:203C500000914046A84794F8E400062814BF0A200720CFE7006845680021602205230220D4
:203C700000904046A8470420C4E7FEE72548264F0026012506600E203D6002F083F902208C
:203C900005F09CFC84F8E45084F8E360BDE8F883002038600C25786024E04FF08059D9F84A
:203CB000A0010168202088472C3D0F2045F8010C41F61D56C5F80360D9F8A40146680021EA
:203CD0004FF4C0720723022540460095B047D9F8A401C66800214FF4C07207234046B0471B
:203CF0000120386084F8E45004F1780006F01EFEBDE8F88339400C4038600C40A40100104E
:203D100000A00C402C500C4004800C4034600C40CC3700202DE9FE4F5F4C0C9F8C46164625
:203D3000FA21C500B3FBF1F205EB4015D2040CF0070141EA124188B2C2102919C88119466F
:203D500039A0634606F0B1FA4CF250386419B04505D24E48B04234BF0525062500E00F253D
:203D7000304606F04FF945A20CCA01F013FB82468946284605F068FE0B46024649465046A5
:203D900001F008FB0FF2FC0A9AE80C0000F01CFD04F0C2FF814606F035F99AE80C0001F062
:203DB000F9FA83468A46280505F04EFE0B4602465146584600F008FD2B468DE803004A46BD
:203DD00021A0314606F071FA5FEA59500AD121692F4805F00F054FEAC9230840054345EA7F
:203DF000D30525612B4D4FF47A7100E02D1DA8884843B842FAD22A886B881BA0394606F02F
:203E100054FAA9784046B042217505D3607D00F0C00040F0050004E0607D00F0C00040F0DA
:203E300008006075BDE8FE8F646576696174696F6E202564203D202564202A2032353020D0
:203E50006D6F642025640A0073796D626F6C7261746520256420703D256420723D256420A6
:203E70003D3D3E2025660A0072786277202564203E3D20256420282564290A000000000011
:203E9000000030410000000060E3764120A10700F00000E07C3D0020D03900202DE9F84FB0
:203EB000804692460868DAF80050067800271C46BB46421C242E0A6026D110F8016F521CC3
:203ED000532E0A6020D1ED1C25F003052D1D55F8040CE061CAF80050208B0090A168E26947
:203EF000D8F800005346FEF7CBF98346D8F8000010B15844C8F80000DAF800502068E760E9
:203F10000127A0EB0B002060662E05D0002F64D1E16901200E705FE0208B40B9ED1D25F09B
:203F300007050835A5F1080090E8000309E0ED1C25F003052D1D55F8040C05F02BFA894670
:203F500080462AA20CCA4946404603F08BF928BF002705D2206989F000490127401E206126
:203F700024A20CCA4946404603F0BFF931D3404604F076FD064605F067FD0B460246494617
:203F90004046FFF78BFB1DA20CCA01F003FA04F0C3FE0146606904220A2303F0C3FC401E64
:203FB000E0612E21017063692269E06931461B1AE360D21A0A2303F0B5FC002F08BFE0616D
:203FD00004D0401EE0612D210170E0696169081A02E004A0E0610720E060CAF8005058468C
:203FF000BDE8F88F286572726F72290000000000000000000000C0FFFFFFDF41000000002D
:204010000088C3402DE9FF4104466668A7680D4606F092FC3178012903D106F081FD002076
:2040300091E00121317006F07BFD287870706878B07068687060A868B060E868F06028695D
:204050003061287D3075687D7075A87DB075A869B061287F3077687F7077A87FB0774FF096
:204070000008C6F82080C6F83080454675627563B562B56386F82C50102386F83C3086F85E
:204090002D5086F83D50786802F0ACF9204601F0D7FF204602F072FD70B92C480068C168EF
:2040B00038688847786801F06DFF06F045FC357006F036FD2C4645E0684606F004FB009471
:2040D000387B234A0190B9686B4606F1800004F04DFF684606F020FB00941E4938696A468B
:2040F000029006F19C0004F0F7FFB07830B906F1D000294605F044FD17483061707830B963
:2041100006F1EC00294605F03BFD1448F060684606F0DEFB01958DF800501149029406F591
:2041300084700A226B4604F00BFCB969FA6906F1400006F093FA0B4A06F16C00042123461E
:2041500005F0B4FD20460090BDE8FF81D0010010914D0000C5920000D9A80000D1A800007E
:20417000E971000089A700002DE9F041514C04F14C08404606F0EEFB071C00F09980B868C7
:2041900040F603022026531C02E04068761EF6B260B15EB101888A4218BF8B42F5D1F96819
:2041B0002CC828312CC149C881E849003A6A00263E627D6835B397F82F0000F00700401EA8
:2041D0000BD0401E06D0801E18BF002308D14FF0805304E04FF0804301E04FF0005332466C
:2041F00097F82F00000908D397F82F0010F0070F03D04FF08070324303437D68F868B7F987
:204210002C10A84706F098FB0546B4F95200401C6FF31F30A4F85200E06C80F82F604046BC
:2042300006F0F8F8284606F07BFCB4F95000B4F9521088423CD1F86890F8C20000280CBF2D
:204250000520072002F016FB04F5AA742568F868854208BF656890F8C240002C0CBF0468B3
:20427000341C80F8C2604DB195F8C23023B92868A04228BF041C01E085F8C260ACB10E483F
:204290000068B4F1FF3F13D0B4FBF0F101298CBFB4FBF0F10121F868783006F045FBF8688B
:2042B000783006F043FBBDE8F081012004F068FCBDE8F081082200207C3600204748484931
:2042D0002DE9F041ADF1280D02F00CFC4C49086010B924A006F01CFC0027684624220823DC
:2042F0008DF81870394606F00FFC69463846024606F006FC3B4C69463A466060104606F0F2
:20431000FFFB012160600A461FA005F0CEFF364C3C2208233946204606F0EEFB4FF4007658
:2043300001250220DFF8C8803049A0613B462662224625612F48E161414606F0D9FB2E4815
:204350003B4626624146A5612246E0612B48256106F0CEFB2B48017817A005F0A6FF0AB05F
:20437000BDE8F0814572726F7220696E697469616C697A696E6720626F617264204C4544C5
:204390002070696E730A00C04C45445320636F6E73747275637465642073656D6170686F66
:2043B00072657320666F72206C6564732025642C2025640A00C046C04C45445320696E699E
:2043D0007469616C20626C696E6B20636F756E746572203D2025640A00C046C000360020A7
:2043F00048410020183600208034002018270020B16F000090330020182500204033002070
:2044100064300020C74100202DE9FF410646080BC0F08E80484C00250127E068E570016A54
:204430002772C90803D3C36904212A4698474349A0462A4608F1700006F084FA404806F04F
:20445000C7F9D8F80C0041683F4C886808B9C86820B1A4F11C00C5613A490160384603F09E
:20447000D7FF2560394844F81C0CB1684D80B068028840F60200904208D0B2F5C15F05D0E6
:204490000B8B4FF60F421A400A8304E00B8A4FF60F421A400A8200F1080C7774ACF107026E
:2044B000531C00E039464F6837B13888844503D0824218BF8342F5D12F464F60487B00F026
:2044D000F00040F00100487308F13C0006F042FA8068008882421BD0834219D0308DC8B186
:2044F00096F83400758596F83530F76200F0F00086F8340003F0F00040F0010086F835004B
:2045100006F128024A60487B00F0F000487301E0C8F86050B068694601F0D2FA684606F0E9
:20453000DBF820680028FCD02560B06844F81C0C0090BDE8FF81C0460822002015A200005F
:20455000A11E0000510007061C10044001010E042DE9F04105F0E6FE4A4C276C002F00F042
:204570008D80010924D2810801D3A66C06B307F1100292E86000002105400E4008BF002D6A
:204590007CD03A693E6A07F1180510403043386295E80C00676407F118061943104386E87B
:2045B000030004F1EC004FF4804106F0DFF965E039693E6A07F1180541F00A01084030439A
:2045D000386295E80C00002100262F4D266419431043103D07F1180383E8030005F10803DD
:2045F0003A691868904307F11002186092E803002868091C324688433946286004F14C0076
:20461000804604F0E5F904F1EC00022106F0AEF9A06C98B3A06CF968C06888422ED1A06C90
:2046300090F82F1097F82F00084310F0070016D000F0010100F002070F4304D1A16C2F312E
:204650000A78104304E0A16C2F31087840F001000870A16C3246404604F0BAF90DE0A06C50
:204670002064A968A06C00690843A860A06C2F68103003C8081C38432860A66401F0FAFD06
:20469000BDE8F081082200201C1004402DE9FE4F054648480C46B4FBF0F18AB24849EE005F
:2046B000804606EB0516761808FB1240F28105F0A9FC3CA20CCA00F087F80FF2F00999E88A
:2046D0000C0000F067FE04F027FB87B23782F689304605F097FC83468A46384605F092FC4A
:2046F00099E80C0000F070F80B46024651465846FEF7D9FF3A468DE803001BA0314605F00B
:20471000D4FD2D48A0422CD92C4F00224FF0FF3110463E460DE008FB1343002B48BF5B4261
:20473000B1F1FF3F01D0994201DD19460246361D401C3388002BEED1960007EB0608BA5B59
:20475000B8F802300FA0214605F0AFFD1D49BA5BE80000EB45104018028498F8024080F8E5
:204770002440BDE8FE8FC046663D25642066756C6C2025642066726163203D3D3E20252EDE
:2047900036660A007375622D3147487A20663D25642062616E6420256420646976202564FC
:2047B0000A00C0460000000080842E4100000000E0FFEF4040420F0000CA9A3BA840002020
:2047D0005C3C0020D03900202DE9FC4191EA03084CBF4FF000484FF000084FEA03354FEA8C
:2047F000153556006D414FEA43075FEA575711BF45F4001500210020BDE8FC814FF4E06ECF
:204810001EF1FF0E77456FD04FEA01334FEA133342005B414FEA4104640D11BF43F400139E
:2048300000210020BDE8FC8174455DD0E41B002100205FF0360EAB4200D1B24205D3404141
:204850004941921B63EB050301E040414941BEF1010E05D053EA020702D052005B41EAE765
:20487000BEF1200F09D2BEF1160F0CD3CEF1200720FA07F100FA0EF00FE0AEF1200E00FA16
:204890000EF1002009E001FA0EF1CEF1200720FA07F741EA070100FA0EF011F4001F02D1E6
:2048B00040004941641E401C51F1000111F4800F1ABF641C21F4800121F400114FF440775A
:2048D000FF37E419DEBF00210020BDE8FC8107F58067BC4208D249084FEA300041EA0451A0
:2048F00041EA0801BDE8FC810020FF214FEAC101C91D4FEA015141EA0801BDE8FC81704799
:204910002DE9F041424C464D8046C8F38140401E02D0401E2AD025E0284620300168880C95
:2049300020D24FF4804020603A48D0F802204B0AC1F3033703F0800322F08F02134347EAA3
:204950000302C0F80220D0F801300E1266F30303C0F80130026801F0E70722F0E70247EA92
:20497000020102E04FF00041204601602F4E301D0068C0F3C0070FB94020A0624FF4007072
:20499000206405F0B1FE40F0300084F8C800C8F3815040B3401E03D0401E1FD002211EE01D
:2049B000012005F095F807460420394603F060FB042005F08DF88742FAD1361F366826F0CB
:2049D0007F4004F099FF14480068036807214FF06022300E98474FF480602060032104205C
:2049F00003F046FB06E00420012103F041FB0B4804F082FF284600680A4947F6180700F0DB
:204A10003F0084F8CB0F084E0F803068BDE8F08140A00C400A600840B4010010BD37860041
:204A30006C13005070B00C402C200940AC3F005038B505F0D7FCB0B1801E0ED0801E0CD04F
:204A5000801E012804D91AA005F02FFC04210EE023A005F02AFC022109E029A005F025FCEC
:204A70000120014604E02DA005F01FFC0321012004F08CFB344833490068B1FBF0F52846DE
:204A900006F05EF8314C02E0206806F02DF8206806F02AF8284606F053F8206805F074FF79
:204AB0000028F1DD23A005F000FC05F0A5FD38BD524553455420534F555243452077616BD9
:204AD0006575702066726F6D2073687574646F776E20286F72206F74686572290A00C04668
:204AF000524553455420534F555243452073797374656D2F7761726D2072657365740A003A
:204B1000524553455420534F555243452056444428522F5329206C6F73730A0052455345D4
:204B30005420534F5552434520706F776572206F6E0A00C05741544348444F472072657351
:204B500065740A008096980088C00000783600202DE9FC4705466E68D5F80880B76B002F7E
:204B700018BF4FF0FF307BD131630024F477171C74631BD006F1400905F0DEFE82466946F4
:204B9000484604F012FA00281ED4504605F0C8FF9DF80000316B0870306B736B7F1E00F15B
:204BB0000100306303F101007063E5D17078726B316B0128A1EB0201316303D1F368284689
:204BD0009847726B14464AE0B763504605F0A8FF05F0B2FE234D0746287820B9022004F048
:204BF000A3FE01202870384605F09AFF1E49086840F400700860D8F80010886B40F4FA60FB
:204C10008863707808BB716806F1EC07384605F02EFDB8B1B4633846214605F028FD88B1D5
:204C300005F08AFE0746287818B1022004F0C6FC2C70384605F074FF1027716B306BF777BB
:204C5000401A3063706BBDE8FC8796F82D0030B1706B20B1B46306F19C0005F089FE204680
:204C7000BDE8FC87A8360020301000402DE9FF47424C94F8E70000286ED10127384D84F891
:204C9000E770E87C84F8E6006E68C4F81061684605F01EFE002604F10C0001966B468DF831
:204CB000006030490296324603F04AFE2E4904F130006B46324603F043FE2C4904F1540009
:204CD0006B468146324603F03BFEA96838468847DFF8A48026482A7D08F104030078254D50
:204CF0001868C0F3815A22B1BAF1030F04D184F8E170BAF1030F15D0BAF1020F12D0BAF179
:204D1000010F0CD0022004F00FFE042004F0E0FE012804D028683221B1FBF0F10DE004F030
:204D3000F9F912E0022004F0FFFDBAF1030F0CBF4FF47A7142F210712868B1FBF0F1484657
:204D500005F0F2FD484605F0F1FD40460068C00802D2304604F0E8FD00200090BDE8FF873A
:204D7000DCBF000063380000A1660000E97C0000AF3600207C360020B03F0050CC37002048
:204D90002DE9F8438146D9F808703868066CD9F8045046646A6CAB6CA86B16F4F06F014611
:204DB000A2EB03082ED1F00919D2700961D389B195F83C40641EA14298BF0C1C484621469F
:204DD00004F0CCFAA86B001BA86352D105F19C0005F0CEFD4846414604F0D6FD49E000292D
:204DF000F8D0484604F0BAFA95F82D10A86311B900283ED101E00020A86305F19C0005F03C
:204E1000B7FD36E0F20A19D24FF00008444602E0A86B401EA86340B34846012104F09EFA73
:204E30003868446814F00F04C0F80480F0D0286B401E2863686B401E686316E03868446849
:204E50000022202904F00F044260CCBF20270F1C4846394604F082FAC7F12007B845C8BF51
:204E7000B8464846414604F08FFDEC77484602F097FEB0090BD3A96A49B10F46484604F09C
:204E9000F9FAA86218B94846391D03F0BDFCBDE8F883704738B54FF4F03001884FF6FF7040
:204EB0000C46A0420FD01EA005F0FFF935482146FCF7DEFD05F038FC03F0C6F9FF2808D098
:204ED00005F0B0F805E0012005F0C8FA1BA005F01FFE324C94E8030004F080FF94E80300AC
:204EF000294C00232246FEF71FF91EA0114605F0DCF9264D00213C220823284605F0FCFD3D
:204F10004FF480600723286223492148AB612A46E86120482C61002305F0EAFD38BDC04621
:204F3000636F6E66696775726174696F6E206C656E6774682025640A00C046C0636F6E6628
:204F5000696775726174696F6E2064617461206D697373696E672C2068616C74696E670A5E
:204F700000C046C0746167202564207374617274696E6720286C6F77657220646967697448
:204F900073290A0002E0010040420F00BC340020081E0020E0330020F114000048400020B1
:204FB000F8B5384C0D46A8084ED2E80869D301250420A57204F0B8FC05F000FB04F1580219
:204FD00082E8030004F13C0005F0C4FCE16868B1C068064641B18E4206D0316AC90803D3BE
:204FF000C3690421002298473146E1604868264900780860022004F097FC112001F0F2F9E2
:20501000E1682571087C10B1A078012803D00E2001F0E8F9E16849681C488F680FB9CF68F4
:205030001FB10021C1611A4F07601A4A40F2FF7111600027876118494161184805F0C8FBDC
:20505000192005F07BFCF8BDFFF78EF804F14C0005F080FC25F0020504F13C0158B9E80869
:2050700003D2084605F076FC58B104F1C80005F05FFC042101E045F0020104F1EC0005F06C
:2050900075FCF8BD08220020D02108400010044051000706000004600A000040653800005A
:2050B0002DE9F0413C4C05462078002871D0B4F95200B4F95010884213D0284604F098FA18
:2050D000021C06D1216C284605F036FB00B1226C3AB1B2F92C1028464FF0E043002200F0B7
:2050F0004FFA05F029FC804604F5AA700168A94219BF00264660002606602078401EC0B278
:20511000207090BBE078E56088B1012003F038FD022003F035FD404605F002FD05F140008E
:205130004FF0FF3105F0A3FA05F006FC804604F1EC0005F015FC04F1700005F0FBFB04F571
:20515000907005F00DFC04F18C0005F0F3FB04F1C80005F0E3FB04F1280004F033FF287C66
:20517000012802D10E2000F00DFFE06805F14007854208BFE660404605F0D2FC384605F0E4
:20519000EBFB05F1780005F0C9FB05F19C0005F0C5FBBDE8F081C046082200202DE9F047F8
:2051B00007467D68D7F8089090460E4605F0C4FB8246A86A002864D105F5847005F0B8FB9B
:2051D0000024EC772E6250466C6205F0A9FC05F0B3FB2F4E3378824623B9022004F0A4FB86
:2051F00001203070504605F09BFC2A49086840F4807008603846414604F03CF9A862C0B99C
:205210003846414603F000FBA878D0B9A96805F1D00005F02CFAE8B1AC621020E87749462B
:20523000284602F024FA05F087FB8246307840B323E0D9F80010886B40F020008863A878D4
:2052500010B12046BDE8F087A96805F1D00005F00EFA10B9686ABDE8F0873846414603F078
:20527000D3FA1020AC624946E877284602F0FFF905F062FB8246307818B1022004F09EF995
:205290003470504605F04CFC4FF0FF30BDE8F087A9360020301000402DE9F04F3B4D0F464C
:2052B000002104462970ADF1340D0994002F0A9752D014F8016B14F8013B14F8010B14F888
:2052D000019B54F8042B54F804CB54F8047B54F804BB54F8048BCDF830C04FEAA31CCDF869
:2052F0002CC00097CDF804B0CDF8088003F03F030396203BCDF810C05FFA83FACDF814A048
:20531000C311069300F03F030793CDF820900C9B13A004F0CAFFCDF800800B9928785A468F
:205330003B46FEF7F7FC28784FFA8AF103F0D2FC28784FFA89F100F097FC28780C99FFF7AE
:20535000A5F928781249099F0A9B0E54E21B401CC1B293422970ACDC0DB0BDE8F08FC0464C
:2053700025643E3E2025303878202564202564202564202564202D2D20256420256420253E
:20539000642025642025642025640A00B0360020903600202DE9FC4191EA03084CBF4FF085
:2053B00000484FF000084FEAC32545EA52554FEAC2264FEA43077F0D11BF45F000450021BC
:2053D0000020BDE8FC815FF4E06E1EF1FF0E774555D04FEAC12343EA50534FEAC0224FEA9C
:2053F0004104640D11BF43F0004300210020BDE8FC81744543D0E419A3FB0501A3FB06E746
:20541000A2FB06631EEB030E57F1000751F10001A2FB05631EEB060E57F1000751F1000116
:20543000FF1851F10001C01951F100014CBF4FF4806E4FF4007E10EB0E0051F1000148BF96
:20545000641C01D4400049415FF44077FF37E41BDEBF00210020BDE8FC8117F58067BC42ED
:205470000DD24FEAD02040EA41504FEA41014FEA113141EA045141EA0801BDE8FC8100206D
:20549000FF21C900C91D090551EA0801BDE8FC817CB50546084602F0E7FA364E0246182117
:2054B000304604F0FFFA04F067FE3449103909684C6840F2FF32002380B22C21009030462A
:2054D000A04705F019F91C210246304604F0EAFA04F044FE02461421304604F0E3FA04F00D
:2054F00051FF02461021304604F0DCFA284602F087FA02460C21304604F0D4FA284604F0A3
:2055100029FF1D4C400040F020002070284604F02DFF40F010002070284604F023FD0246A2
:205530002821304604F0BEFA284604F037FF400040F06000E070284604F03CFFC00040F0AB
:20555000800004F8080C284604F040FF800040F47C40A4F89300284604F0E6FA02460821B8
:20557000304604F09FFA4FF48000A4F2091108607CBDC04600A00C4049A10C40B401001017
:205590002DE9F8439946904604460E1C44BF0020011C68D405F0E6F9054631468022204667
:2055B00003F0D6FD071C04D097F82F0030F07F0003D1284605F0B0FA53E097F82F0010F0EF
:2055D0000F0F46D100200A2107F1180640EA090941EA080896E8030008EA000019EA010631
:2055F00008BF002820D0284605F096FA07F1180003C804F1700604F1700508EA000809EA2C
:20561000010986E8000395E80C0007F1180696E8030007F118059943904385E80300703407
:2056300094E80300BDE8F88310487968884202D07968A166786004F1600080E800032846F8
:2056500005F06AFA04F140004FF0FF3105F00FF8E5E7284605F060FA97F82F0010F00F0FDC
:20567000FAD102200021BDE8F883C04611830000F8B505F0B9F802F05FFA05F0C7F80546B5
:2056900005F00C000C2853D0E80826D204F0BAFA2A4E376804460120014604F032FD31688D
:2056B0006143884219D22649F020B0FBF7F0241A887C18B1C868A04238BF041C214D214667
:2056D000284605F00DFA284605F006FA0120FDF70FFA284604F0D6FC2CE0280928D21A4802
:2056F00005F052F80428FAD0184A690905D220B11168104621F0010103E01046016841F034
:2057100001010160983210684FF0805540F003001060D5F8B8018169202088470C4CD5F879
:20573000B8712068B86B804701202060206801E005F0F2F805F05EF8F8BDC04688C0000087
:20575000DCBF0000D8370020004003408C2108402C200940E0B501880025A1F6020159B17B
:2057700043F20402891A04D0491E19D190F8246000E00226C76901E0C67B476987B13F1F6A
:20579000052044F2380357F8041F0A04120C934203D0401EF7D13F1D01E0C1F303450DB9F8
:2057B0000120E0BD3046401F19D01F4A401E11D01B4B001F0CD0801E07D0C01E06D00F38E4
:2057D0001ABF1A4A6032083205E01A46121D02E01A4600E0083A1068C0F3834003E01148AE
:2057F0000068C0F303200F2806D0A84216D921F4702141EA004110E0761F0AD0761F08D097
:20581000761F06D00F3E1CBF21F4702141F4802103D121F4002141F4E02139600020E0BDD3
:20583000FC1000502013005000110050201300502DE9F0470D4606465FFA85FA280824BFBE
:205850002E4845402E494FEA8A03C85885EA00023240C2F300672B4A06EA0504B04322401E
:2058700006F4E0240243B4F5E02F01D1500E14D306F4E020074310D002F4E027B7F5A02772
:2058900007D0B7F5803704BF22F4003242F4A02203E022F4803242F4C022DFF86C80CA501B
:2058B00008F1D00739680122002002FA0AF40C4218BF101C5FEA000906D1F00D04D3414655
:2058D000C5F3805001F80A00300E0BD305F034F8290E34BF0021211C3A68A24311433960F4
:2058F00005F01EF9B9F1000F06D0F00D04D34046C5F3805100F80A10BDE8F087006000A0EC
:2059100000100840007F077F002002402DE9F843DFF8C4900446D9F800001F4616460D460D
:205930008047DFF8B8802068B0F1FF3F02D0042E03D017B9464630682EE0636873B1606989
:20595000010903D3581E04F0A3FC606900216160A160E16020F00800216100E0606906B95F
:20597000012620F00700012F46EA0006666108BF0025B7F5807F88BF4FF48077B5B97F1C8B
:20599000384604F078F84646054630684DB96169656041F48061616180474FF0FF30BDE85F
:2059B000F883616941F00801616101E0464630686D1C65602561E919A560491EE160804747
:2059D000D9F8000080470749054A3068116080470020BDE8F883C046404100204441002024
:2059F00004410020F5330000F8B505462F4890F900200E4602F003002843C1B20F4621A0B5
:205A100004F053FC2A4C2B4900224FF48073204604F03EFFF82239463346204602F01CFFD5
:205A3000254A0CCA0021204600F080FC15F4E06F0BD0C5F3022617A0314604F036FC204651
:205A50000921F317324600F071FC280B0AD320460521042200F0F8FF03F0D4FC0146204614
:205A700003F018FFA80B0CD320460A21042200F0EBFF03F0C7FC11490968411A204603F0B4
:205A900009FFF8BD666C61677320253032782025640A00C0626561636F6E696E67207761FC
:205AB0006B6575702025640A00C046C0524000200C360020642F0020484000205440002085
:205AD00080B50288A2F602073FB143F20502BF1A14BF002090F8240000E0C07B2C4AD2F857
:205AF0008832401F0B6048D0401E3CD0001F30D0801E24D0C01E18D00F380CD0D2F890029A
:205B10004860D2F894028860D2F8BC0220F0784040F080503AE050694860D06A8860506CDC
:205B300020F0784040F0704030E010694860906A8860106C20F0784040F0F04026E0D068B8
:205B50004860506A8860D06B20F0784040F0C0401CE090684860106A8860906B20F07840F7
:205B700040F0A04012E050684860D0698860506B20F0784040F0405008E01068486090694E
:205B90008860106B20F0784040F02050C86080BDC41000502DE9F84F984691468A46054674
:205BB00004F0CAFE834604F0E3F80AAF061C2ED005F1780004F0BCFE294CC6F808A0B4F904
:205BD000500086F82E90401C6FF31F30A4F85000C6F80480B4F85000B0852248F56097E87F
:205BF0000C002021002719401040B84606F110036A4683E8030006F11803314686F82F70AC
:205C100004F13C0083E8800102F0E2FE30B9584604F086FF6FF00100BDE8F88FB08D85F83F
:205C3000C2709DF80030A5F8C00096F82F0040F0800086F82F0033B1A07920B1E07810B1FF
:205C5000A7710120E071584604F06AFF9DF8000008B101F011FCB6F92C00BDE8F88FC04656
:205C700008220020FDEFFF9FF8B5294F2A4E04460846801E1FD0401E06D01BA004F015FB8B
:205C9000244D2749002205E01AA004F00EFB0021244D254ADFF884C0E0003B4600EB441099
:205CB000C018C78A33464FF2FF0603EB04139A603E40644613E013A004F0F7FA1B4DE000F2
:205CD0003346002100EB44104FF6FF0603EB0413C019174CC28A9960164046F40066C682CD
:205CF000C5615C60D960F8BD656E6320706C61696E0A00C0656E6320666173746C726D0A37
:205D100000C046C0656E63206C726D0A00C046C0D03900202C3E0020683F002089A9000090
:205D300089750000F83B002005740000D43D00208DA9000038B504462568B5F1FF3F12D098
:205D500063690020990909D3616839B1A268914204D0521A284603F0E5FF6369002805D5E6
:205D700043F4806363614FF0FF3038BD60682061A060D80924BF23F030036361002038BDA6
:205D90002DE9F0470746194CDFF86C8020680FBB8047174A10680025002820DD1549A146B0
:205DB0002E469246A1F1180454F8181FB1F1FF3F0CD0D9F8000080472046FFF7BBFF07469F
:205DD000D8F800008047DAF800003D43761C8642EADB04E080473846FFF7ACFF0546404610
:205DF000006880472846BDE8F087C04640410020F4400020E038002044410020274A2DE97B
:205E1000F04180460125264815600768002FFCD0244CC02025492060081F03689B0806D2BD
:205E300050F8040C204B000C40F0F0001870002010630E68304600F0D9FB40463146FFF7A5
:205E500027FB1B49886D40F21E226FF31F40824215D90868020E12F00F0F02F00F01C0F37D
:205E7000034018BF491E072805D006280EBF0720801C00F00F0041EA00110E480170304657
:205E9000FEF73EFD0C480068C16802208847402020600A4F3D60BDE8F081C0461010094091
:205EB0009402224300600C4056620840B43F0050BC12005002600840A00100109404604235
:205ED000F8B5294E56F81D1CC90828BF02204AD2264F01462422384600F01AFD244C0125F4
:205EF000FF20C4F8AB0F3969FA892248C4F8FF5F00F00EFDF869804742F22B0142F60B305E
:205F100044F8551C1C4944F8510C4FF480770F60002744F8217C44F83D5CC4F8B35FC4F8BE
:205F3000F35FD4F8F30F04F0D3FD56F81D1C134A41F0040146F81D1C116821F0F05141F0E0
:205F50003451116004F0ECFD0D48006803F09EFB04F0CAFC04F0D1FC03F0B2FB04F0C7FC43
:205F700004F0D1FC3846F8BD2D1009403435002055500C4000000E4000100E4000300940F8
:205F90002C2009402DE9B043044604F0D5FC81462748021992F8EF10491ECFB2002F82F8D9
:205FB000EF703FD1254901EB84014A880C78904634F07F0718D1E1090FD24FF0805000F5F5
:205FD000DC75D0F8B8018169104688472868416B404688470228F9D11EE000EB8800D0F812
:205FF00004110020884717E04FF08055D5F8B801016A10468847D5F8B801816A40468847A6
:20601000D5F8B801016B404688470A4901200860094908688008FCD304F03F003F2801D0C9
:20603000FFF7B0FF484604F07BFD0020BDE8B083CC370020282008602820084016BE000082
:20605000F0B52B4D05F12C0158C9ADF11C0D02AA58C20AC94FF0805682E80A00476884684B
:20607000D6F8D001C16820688847216821488A6B10408863206840F2F271416497F83C0042
:2060900097F83D10C0100DEB80008068084321684863684604F044FCD6F8D001397F46687E
:2060B00005EB8101BA698B68797F206855F821101943BB7F05EB8305AB690B430199B04749
:2060D0000D490A1F106840F010001060086840F001000860A07D0027FF2802D0E07DFF283F
:2060F00000D11FB1086840F44040086007B0F0BDACBE00000DF8FFFF301000402DE9FC47B9
:20611000294C8A462168009088472849284D086848B901232846072700220B6018307F1EB9
:2061300040F8082BFBD12846214600F1180400E00834DFF8809000F15002A24206D14C46A3
:20615000206880474FF0FF30BDE8FC872268002AEED108688047684601F0C1FB0646708900
:20617000641BE2109046400806D2F0680346009851469847074601E04FF0FF374C4620683C
:20619000002F48BFB84609D405EBC8052E6071896F608A083CBF41F00101718180472068C9
:2061B00080474046BDE8FC8740410020B0410020803E0020444100202DE9F04705462A4B18
:2061D00028481F88DFF8A4804C002A2604EBC10106FB05F40D46214664194D1924182D1838
:2061F0006688A3886D896489921B03FB07F61FFA86FA92FBF3F707F001076A0813D2DFF8AE
:206210007090E20B12D22FB104F0400104F08000084308D120465146FFF7E6FB49460A88FB
:206230004046028118E00321404616E0455A03F079F890FBF5F16943401A0028C8BF04215F
:20625000F2DC07A004F031F820465146FFF7CCFB494609884046018101210170BDE8F0870B
:20627000210A00C0F8310020504000203441002010360020F8B52C4C04F13C05284604F072
:2062900069FB0746012002F047FA206C002847D1002F40D0E068F968884239D1B86802F04F
:2062B000E3F8061C13D0A06C88B9012002F068FC832835D1E068783004F03AFBC8343146ED
:2062D000204604F031FB204604F030FBF8BD15493869A1F10802136807F1100618431060FF
:2062F00096E80C0051F8102C181C104341F8100C00260E60B86841F81C0C0F68002FFCD01C
:20631000284604F087F82064304602F005FAF8BD4FF4806100E0022104F1EC0004F026FBCF
:20633000F8BDC0461C10044008220020F8B505460F461C46164625A0211C03F0B6FF3946A4
:20635000002C08BFFF2E38D94FF6FF70C217944208BF864228D9002C08BFB6F1FF3F1AD93E
:20637000FF204FF0FF32844208BF964209D92846082200F069FB28462346324602F0DCFB33
:20639000F8BD2846062200F05FFB28462346324602F0AEFBF8BD2846042200F055FB284677
:2063B000314603F077FAF8BD2846022200F04CFBB1B2284603F096F8F8BD2846012200F0EC
:2063D00043FBF1B2284603F0A9F8F8BD7061636B696E6720696E74202538783A2530387899
:2063F0000A007047F8B5064604F0A6FA264D0746A91991F8EF00421C002881F8EF203ED128
:20641000224C04EB8604267806F03F003F2801D0FFF7E8FF648836F07F0018D1F0090FD249
:206430004FF0805000F5DC75D0F8B8014169204688472868416B204688470128F9D11EE035
:2064500005EB8405D5F804110120884717E04FF08055D5F8B801C16920468847D5F8B8016B
:20647000416A20468847D5F8B801C16A20468847074901200860074908688008FCD33846D8
:2064900004F04EFB0020F8BDCC37002016BE0000282008602820084098B504462068B0F1E3
:2064B000FF3F05D06269500904D342F480626261002098BD100A05D320460021022201F0E0
:2064D00073FD626990094FF0000104D2D00924BF42F02002626167684FB9D00807D202F075
:2064F000070220464FF48073FFF710FA0146E2680020226101B9012098BD80B50168B1F143
:20651000FF3F05D04269910904D342F480624261002080BD53094FF0000104D2D30924BFF3
:2065300042F010024261476847B9D30806D202F007024FF48073FFF7E9F90146002001B9D8
:20655000012080BD264838B560300468B4F1FF3F08BF002404F005F82248234B0025012198
:206570001038056003F15C0001601448016002F083F81348006820B1124800682046FFF7D1
:206590003DFC114811490560114C0A686FF35B4244EA020008600F490868C0F3013001285F
:2065B00006D10A680C48104040F400320A6008600A4908680028FCD138BDC0460822044382
:2065D00080012843000120438C210840482003400000390104000940FFFFFCFC0C00684288
:2065F000BC1200509404604200600C4070B5234C234D0646B00E11D2700E0FD38020207402
:206610004FF6D801A4F85110207001F06DF8D0352868C0F30420162806DB04E02868C0F3B7
:206630000460162800DB203800EB2670401C162805DA10F10A0FB8BF6FF0090000E015206D
:20665000104D00F01F0040F4F850A4F859002868800803D20C490020086001E046F04066C6
:206670000A49F00EB50E80F0010000F00100086085F0010000F00100886070BD15620840F1
:20669000B81200500000094094042A43000020432DE9F04104F050F9254D214E804605F1FE
:2066B000E000007848B93446A168022088470746102002F0EDFA6FB31AE004F0A7F8C0092F
:2066D0001AD218480068C4681748342101220023A04788B101F004FC34460020A16885F89F
:2066F000E000022088470746102002F0D1FA8FB1A168032088470DE00C4800683221B1FB9C
:20671000F0F101B901213035284604F00DF9284604F00CF9404604F003FABDE8F081C046E5
:20673000DCBF0000A401001000A00C407C360020CC370020F0B520480127F84201D002F0E6
:20675000D9F8204D204F214EBD4206D203CD0478A4003459401CA047F6E71D48002800D03C
:206770008047164D164FBD4202D210CDA047FAE7F0BD03251BE0416808300A1C2A400BD1E5
:206790001A1C2A40AB4305D0046804300C600431043BF9D1131C05D0047801300C700131DD
:2067B000013BF9D1021C2A4001D0A84304300368002BE0D17047C046FFFFFFFF000000004B
:2067D000000000003804000098040000F403000055C5011008B5FEF749FA2548FCF780FEDC
:2067F00010B10BA004F094F901F046FB02F05EFBFDF764FD0CA003F058FD02F077FD16A0BA
:2068100003F053FDFEF746FB04F05EF9002008BD4572726F7220776974682050494E5F690A
:206830006E69740A00C046C02A2A2A4255494C442054494D4520444154452031313A313095
:206850003A3434204A616E2020342032303138202A2A2A0A00C046C0676F696E6720746F69
:2068700020726164696F2073657475700A00C046A4BF0000F8B5044604F05EF8234D064618
:2068900005F5C4710878A04305F5AA7408702068002808BF002706D020689C3003F00BFF01
:2068B000002700B10127606838B19C3003F003FF0024384318BF0124274695F8880100BB7D
:2068D000012F1ED0D5F87C01F0B1016A89080BD24469304604F024F9D5F87C0100214FF4E4
:2068F00000030A46A04708E0C469304604F018F9D5F87C0102210022A0470020C5F87C01EE
:20691000F8BD304604F00CF9F8BDC04608220020002A4AD05FEA000C8B071CD1830722D1A9
:20693000102A08D370B4103A78C978C0103AFBD270BC103238D0042A2CD3082A05D30C2A51
:2069500024BF08C908C008C908C008C908C092072AD0920F22E00B780370491C401C521E1C
:2069700022D08B07F7D1C30714D18307D8D0121F12D308C903801B0C4380001D121FF8D26E
:206990000AE008C903701B0A43701B0A83701B0AC370001D121FF4D2121D05D00B78037063
:2069B000491C401C521EF9D160467047F8B503F0C3FF234C0746D4F8C00010F4602F33D02F
:2069D000D4F8C000400CC6B2700807D2B00803D2F00828BF022602E0012600E00026751DD1
:2069F000002168B201F06CFDD4F8C03006F111010120884023EA00013846C4F8C01004F038
:206A10008FF8B00004F1A8010A18D7682FB1085800224FF000632946B8470A48006830B91B
:206A3000022002F0ADF802E0384604F079F8D4F8C00020B104F59070002103F097FFF8BD13
:206A5000082200200C1004402DE9F041044690460F46101C19D0401E15D0401E11D0801E8B
:206A70000DD0801E09D0801E05D0B8F5807FB4BF062507250AE0052508E0042506E0032596
:206A900004E0022502E0012500E00025B7F5807F0E4602DA1E2F04DB1E26B7F5807FA8BF71
:206AB0001F2646EA4510C1B2204602F037FD062D04D15FFA88F1204602F030FD072D03D196
:206AD0004146204602F00EFD1E2E03D1F9B2204602F024FD1F2E03D13946204602F002FD81
:206AF000BDE8F0812DE9F843234D884606464FF0FF3105F12800814603F0B9FD00200CE08C
:206B1000FF2909D02A688A4204D305EB8101D1F898700FB1002627E0401CB8F1000F03D018
:206B300018F82010FE29EBD10024346074600127B46011E0FF280ED005EB80000B78726897
:206B5000C0F8986007FA03F0104370600A680949304602F019FD641CB8F1000F04D008EB1D
:206B700084010878FE28E5D1484603F0F7FE3046BDE8F883007FC767B8360020B0B545684B
:206B900084682349607DA27DADF1180D40F000400090207D0027FF2A41EA000001904FF0E6
:206BB000020002D0E27DFF2A00D13FB1E37DA07D1943039140F0004002900420FE214DF8B1
:206BD000201005F158006946FFF78CFF6866002808BF381C1AD0617D0F2202F0BBFF686E6B
:206BF000217D102202F0B6FFA17D3846FF2902D0E27DFF2A00D140B1686E112202F0AAFF8A
:206C1000686EE17D122202F0A5FF012006B0B0BD0000C0A0F8B5044625686769B5F1FF3F8A
:206C300007F4805702D0FFF785F810B14FF0FF30F8BD6069000907D36068401E03F028FB61
:206C5000606920F00800606100206060A060E060206801F027FB06464FF0FF30206057B185
:206C70000F48006880470F4800EB051002F0B4FF0D48006880473046F8BD38B5084C054647
:206C900020688047206880472846FFF7C3FF064C05462068804720688047284638BDC0467C
:206CB00040410020A032002044410020F8B50546214800680C4680472046FFF7EDFB1F4EF9
:206CD000002830D0606900F00700042819D0A068E168814204D82046FFF72CF8F8B9A0687E
:206CF000411CA160EFB207706069800805D30A2D03D12046FFF71EF888B93068804738464A
:206D1000F8BD20688DF800506946012203F00AF8B0F1FF3F03D030688047E8B2F8BD616960
:206D300041F480616161306880474FF0FF30F8BD0349FFF7BBBFC0464041002044410020E1
:206D5000F83800202DE9F8438946804603F034F800284946404608BF012238D01D4F7A6851
:206D7000BB894C0805D314881C43204218BF02222BD1194C04F10C052E68760838BF0122A6
:206D900023D30126E6632E687608FCD24D083CBF0023938003D3034390809BB2BB818B08CD
:206DB0003ABF0023D380D080C90838BF0020108103F09AFD03F0A1FD206840F040002060F8
:206DD0002068002220F04000206003F043FD1046BDE8F8833435002000500C402DE9F8430A
:206DF0002020EFF3118780F31188214CA068012103F066FE4FF001094FF0000865692168E8
:206E1000A4F81C906A1A2168A4F81E80461B401A904227D387F3118840462D18361A484690
:206E3000294603F049FEB042F7D92021EFF3118781F31188E18B012903D14046294603F0BD
:206E50003BFEB0F1FF3F06D0A169801B814238BF081C291801E0A069411903F029FEA4F876
:206E700020902560A4F81C8087F31188BDE8F8837801002070B505460A460C4617A0ADF162
:206E9000280D294603F011FA1E48012124228DF81810082301700021684603F035FE002014
:206EB0006946024603F02CFE1749124E3C22082308600021304603F01FFE4FF40070306211
:206ED000002307200E49B0610B4835613246F0610A48746103F00CFE0AB070BD5741544304
:206EF00048444F4720696E69742025642025640A00C046C0F8340020182B00203034002037
:206F1000414A0000C8410020783600202DE9F0411F4C2388884607461646C3F5006393421B
:206F300038BF1E1C002E16D413460CA03946324603F0BBF9174D2088414632464019FFF7FB
:206F5000E7FC164A2088144B22F81760811921802D1843F82750BDE8F081C0467365747438
:206F7000696E672061746C617320636F646520256420746F206C656E677468202564202894
:206F9000726571756573746564202564290A00C05C400020080E0020E03500202C360020CA
:206FB0002DE9F0415FFA80F84046401E012828D81B481C4A006846F2A8134146B3FBF0F65D
:206FD000B2FBF0F510A02B46324603F06EF9174C154F04EB880420684FF0FF3103F0A4FD4F
:206FF00038680821002202F049F9304603F0A8FD38680821012202F041F9284603F0A0FD3E
:20701000E9E7BDE8F081C0464C454453202564206F6E202564206F66662025640A00C046E9
:2070300088C00000E0930400643000201836002098B5044602F0E6F9194A1E4992F9002082
:207050000860B2F1FF3F02D01649012008701A481549077891F90010C7B1144A174892F974
:207070000020001F10F8043F994205D143789A4202D1C3789C4202D07F1EF3D198BD8078C2
:207090000B4A41B2107002A003F00FF998BDC04677616B7570202D3E2025640A00C046C0F4
:2070B000584000205940002052400020B13600205A4000205440002053400020F035002030
:2070D00070B506467468B568606E03F00BF829681C488A6B10408863304600F037F8304642
:2070F00000F05EFD2968C86A20F01000C862296815480A6B104008636868FEF743FF04F10E
:20711000800003F017FC04F19C0003F029FCA07818B904F1D00003F01FFC607818B904F1D6
:20713000EC0003F019FC04F5847003F0F7FB03F003FC0021217003F0F3FC04F16C0002F0A0
:2071500041FF70BD0DF8FFFFFEFCFFFF2DE9F04106467568B46803F0EFFBA96A39B92168C0
:207170008969090903D203F0DBFCBDE8F0810027AF6203F0D5FCA17D3846FF2902D0E17D56
:20719000FF2900D118B12846214600F070FA2168886B20F0200088630D49086820F480708D
:2071B000086003F0C9FB0B4C8046207818B1022002F004FA2770404603F0B2FC686A296AED
:2071D000091A29622B696A6A30469847BDE8F08130100040A93600202DE9F04107461E49A4
:2071F000BE687C68306809688069C0F3C00008BB03F0A2FB194D8046287820B1022002F00C
:20721000DDF900202870404603F08AFC3168144D886B20F020008863286820F480702860AD
:20723000606A216A091A21622369626A38469847BDE8F0814FF4FA70B0FBF1F1012998BFBD
:20725000012104F58474204603F06EFB204603F06DFBBDE8F081C0467C360020A93600209B
:207270003010004010B5994201D1904233D050EA020404D141EA03046400002C2BD050EA2B
:20729000410401D19C4226E04C006415641C07D15C006415641C03D1DC0FB4EBD1741AE0D4
:2072B000002B0CD4002916D4994214D190EA020401D490420FE0002A0DD101240BE0002989
